{
	"data": {
		"bytecode": {
			"linkReferences": {},
			"object": "60a06040523480156200001157600080fd5b5060405180604001604052806007815260200166135e5b9d1a5cdd60ca1b815250604051806040016040528060048152602001631356539560e21b815250816003908162000060919062000121565b5060046200006f828262000121565b50503360805250620001ed565b634e487b7160e01b600052604160045260246000fd5b600181811c90821680620000a757607f821691505b602082108103620000c857634e487b7160e01b600052602260045260246000fd5b50919050565b601f8211156200011c57600081815260208120601f850160051c81016020861015620000f75750805b601f850160051c820191505b81811015620001185782815560010162000103565b5050505b505050565b81516001600160401b038111156200013d576200013d6200007c565b62000155816200014e845462000092565b84620000ce565b602080601f8311600181146200018d5760008415620001745750858301515b600019600386901b1c1916600185901b17855562000118565b600085815260208120601f198616915b82811015620001be578886015182559484019460019091019084016200019d565b5085821015620001dd5787850151600019600388901b60f8161c191681555b5050505050600190811b01905550565b608051611e4c62000210600039600081816105fa01526109f10152611e4c6000f3fe608060405234801561001057600080fd5b50600436106101e55760003560e01c806365d2a5571161010f57806395d89b41116100a2578063c312452511610071578063c31245251461052d578063ce606ee0146105f5578063dd62ed3e1461061c578063f04b5fa01461062f57600080fd5b806395d89b41146104ec578063a457c2d7146104f4578063a9059cbb14610507578063b626d6fc1461051a57600080fd5b806387a0f31c116100de57806387a0f31c146104305780638cba2842146104505780638f1c65c01461046357806390de68711461047657600080fd5b806365d2a557146103b15780636a210a0e146103c457806370a08231146103e45780637c4266201461040d57600080fd5b80632607443b11610187578063395093511161015657806339509351146103315780633a70a5ca1461034457806344203faf1461034c5780635c9302c9146103a957600080fd5b80632607443b146102a4578063313ce56714610309578063319e74f61461031857806334dc8bb51461032057600080fd5b80631285b047116101c35780631285b0471461024057806313c5c2c71461025657806318160ddd1461028957806323b872dd1461029157600080fd5b806306fdde03146101ea578063095ea7b3146102085780630d4d15131461022b575b600080fd5b6101f2610644565b6040516101ff91906118bb565b60405180910390f35b61021b610216366004611925565b6106d6565b60405190151581526020016101ff565b61023e61023936600461194f565b6106f0565b005b610248610761565b6040519081526020016101ff565b61027173dec9f2793e3c17cd26eefb21c4762fa5128e039981565b6040516001600160a01b0390911681526020016101ff565b600254610248565b61021b61029f36600461198b565b61078c565b6102b76102b2366004611925565b6107b0565b6040805164ffffffffff9890981688526001600160481b039687166020890152949095169386019390935261ffff9182166060860152811660808501521660a0830152151560c082015260e0016101ff565b604051600881526020016101ff565b61024861082e565b6005546001600160a01b0316610271565b61021b61033f366004611925565b61083a565b61024861085c565b61038b61035a3660046119c7565b600c60209081526000928352604080842090915290825290205464ffffffffff808216916501000000000090041682565b6040805164ffffffffff9384168152929091166020830152016101ff565b610248610883565b61023e6103bf366004611aee565b61088d565b6103d76103d2366004611b1c565b61089b565b6040516101ff9190611b3e565b6102486103f2366004611b82565b6001600160a01b031660009081526020819052604090205490565b61021b61041b366004611ba4565b60086020526000908152604090205460ff1681565b61024861043e366004611bd3565b600b6020526000908152604090205481565b61023e61045e366004611b82565b6109e6565b61023e610471366004611bd3565b610a70565b6104bd610484366004611bd3565b6009602052600090815260409020546001600160481b0380821691600160481b810490911690600160901b900466ffffffffffffff1683565b604080516001600160481b03948516815293909216602084015266ffffffffffffff16908201526060016101ff565b6101f2610b68565b61021b610502366004611925565b610b77565b61021b610515366004611925565b610bf2565b600554610271906001600160a01b031681565b600654600754610593916001600160481b0380821692600160481b830482169264ffffffffff600160901b8204811693600160b81b90920482169261ffff8116926201000082041691600160581b820416906001600160801b03600160801b9091041688565b604080516001600160481b03998a168152978916602089015264ffffffffff96871690880152938716606087015261ffff90921660808601529490941660a0840152921660c08201526001600160801b0390911660e0820152610100016101ff565b6102717f000000000000000000000000000000000000000000000000000000000000000081565b61024861062a366004611bec565b610c00565b610637610c2b565b6040516101ff9190611c16565b60606003805461065390611c48565b80601f016020809104026020016040519081016040528092919081815260200182805461067f90611c48565b80156106cc5780601f106106a1576101008083540402835291602001916106cc565b820191906000526020600020905b8154815290600101906020018083116106af57829003601f168201915b5050505050905090565b6000336106e4818585610d2d565b60019150505b92915050565b6005546001600160a01b038281169116146107525760405162461bcd60e51b815260206004820152601960248201527f43616c6c6572206973206e6f7420544220636f6e74726163740000000000000060448201526064015b60405180910390fd5b61075c8383610e51565b505050565b6127106305f5e1006107756008600a611d7c565b61077f9190611d88565b6107899190611daa565b81565b60003361079a858285610f10565b6107a5858585610f8a565b506001949350505050565b600a60205281600052604060002081815481106107cc57600080fd5b60009182526020909120015464ffffffffff811692506001600160481b0365010000000000820481169250600160701b8204169061ffff600160b81b8204811691600160c81b8104821691600160d81b8204169060ff600160e81b9091041687565b61078960326007611daa565b6000336106e481858561084d8383610c00565b6108579190611dc1565b610d2d565b6006546000906001600160481b031661087460025490565b61087e9190611dc1565b905090565b600061087e61112e565b610897828261114a565b5050565b606081831080156108b2575060075461ffff168211155b6108f45760405162461bcd60e51b8152602060048201526013602482015272135653950e881c985b99d9481a5b9d985b1a59606a1b6044820152606401610749565b6108fe8383611dd4565b67ffffffffffffffff811115610916576109166119f3565b60405190808252806020026020018201604052801561093f578160200160208202803683370190505b509050826000805b61095360486002611daa565b600084815260096020526040902054600160901b810466ffffffffffffff1690911b600160481b820460481b71ffffffffffffffffff00000000000000000016176001600160481b039091161790508084836109ae81611de7565b9450815181106109c0576109c0611e00565b6020908102919091010152846109d584611de7565b935083106109475750505092915050565b336001600160a01b037f00000000000000000000000000000000000000000000000000000000000000001614610a4e5760405162461bcd60e51b815260206004820152600d60248201526c2737ba103a34329027bbb732b960991b6044820152606401610749565b600580546001600160a01b0319166001600160a01b0392909216919091179055565b610a7861183b565b610a8061183b565b610a8a828261114a565b600182610140015111610ad15760405162461bcd60e51b815260206004820152600f60248201526e4d594e543a20546f6f206561726c7960881b6044820152606401610749565b8215610b4d57816101400151831115610b3c5760405162461bcd60e51b815260206004820152602760248201527f4d594e543a206265666f72654461792063616e6e6f7420626520696e207468656044820152662066757475726560c81b6064820152608401610749565b610b4882846000611256565b610b5e565b610b5e828361014001516000611256565b61075c8282611342565b60606004805461065390611c48565b60003381610b858286610c00565b905083811015610be55760405162461bcd60e51b815260206004820152602560248201527f45524332303a2064656372656173656420616c6c6f77616e63652062656c6f77604482015264207a65726f60d81b6064820152608401610749565b6107a58286868403610d2d565b6000336106e4818585610f8a565b6001600160a01b03918216600090815260016020908152604080832093909416825291909152205490565b610c3361189c565b60075460009081908190610c5690600160801b90046001600160801b0316611522565b604080516101a0810182526006546001600160481b038082168352600160481b82048116602084015264ffffffffff600160901b8304811694840194909452600160b81b9091048116606083015260075461ffff8116608084015262010000810490911660a0830152600160581b900490911660c082015260e08101829052610100810183905261012081018490524261014082015292955090935091506101608101610d0260025490565b8152602001600b6000610d1361112e565b815260200190815260200160002054815250935050505090565b6001600160a01b038316610d8f5760405162461bcd60e51b8152602060048201526024808201527f45524332303a20617070726f76652066726f6d20746865207a65726f206164646044820152637265737360e01b6064820152608401610749565b6001600160a01b038216610df05760405162461bcd60e51b815260206004820152602260248201527f45524332303a20617070726f766520746f20746865207a65726f206164647265604482015261737360f01b6064820152608401610749565b6001600160a01b0383811660008181526001602090815260408083209487168084529482529182902085905590518481527f8c5be1e5ebec7d5bd14f71427d1e84f3dd0314c0f7b2291e5b200ac8c7c3b925910160405180910390a3505050565b6001600160a01b038216610ea75760405162461bcd60e51b815260206004820152601f60248201527f45524332303a206d696e7420746f20746865207a65726f2061646472657373006044820152606401610749565b8060026000828254610eb99190611dc1565b90915550506001600160a01b038216600081815260208181526040808320805486019055518481527fddf252ad1be2c89b69c2b068fc378daa952ba7f163c4a11628f55a4df523b3ef910160405180910390a35050565b6000610f1c8484610c00565b90506000198114610f845781811015610f775760405162461bcd60e51b815260206004820152601d60248201527f45524332303a20696e73756666696369656e7420616c6c6f77616e63650000006044820152606401610749565b610f848484848403610d2d565b50505050565b6001600160a01b038316610fee5760405162461bcd60e51b815260206004820152602560248201527f45524332303a207472616e736665722066726f6d20746865207a65726f206164604482015264647265737360d81b6064820152608401610749565b6001600160a01b0382166110505760405162461bcd60e51b815260206004820152602360248201527f45524332303a207472616e7366657220746f20746865207a65726f206164647260448201526265737360e81b6064820152608401610749565b6001600160a01b038316600090815260208190526040902054818110156110c85760405162461bcd60e51b815260206004820152602660248201527f45524332303a207472616e7366657220616d6f756e7420657863656564732062604482015265616c616e636560d01b6064820152608401610749565b6001600160a01b03848116600081815260208181526040808320878703905593871680835291849020805487019055925185815290927fddf252ad1be2c89b69c2b068fc378daa952ba7f163c4a11628f55a4df523b3ef910160405180910390a3610f84565b6000603c6111406365645b8f42611dd4565b61087e9190611d88565b6006546001600160481b038082168452600160481b82048116602085015264ffffffffff600160901b830481166040860152600160b81b9092048116606085015260075461ffff8116608086015262010000810490911660a0850152600160581b810490911660c08401526111cf906001600160801b03600160801b90910416611522565b60e08501526101008401526101208301526111e861112e565b610140830152815181526020808301519082015260408083015190820152606080830151908201526080808301519082015260a0808301519082015260c08083015164ffffffffff169082015260e08083015190820152610100808301519082015261012091820151910152565b8183608001511061126657505050565b61128a60405180606001604052806000815260200160008152602001600081525090565b83516002546112999190611dc1565b815260808401516112ab85838361158f565b6020850151156112d65784602001518560a0018181516112cb9190611dc1565b905250600060208601525b836112e082611de7565b91508110156112f9576112f485838361158f565b6112d6565b61130885608001518285611607565b6080850181905260208201511561133b5761133b739a6a414d6f3497c05e3b1de90520765fa1e07c038360200151610e51565b5050505050565b8051825114158061135b57508060200151826020015114155b8061136e57508060400151826040015114155b8061138157508060600151826060015114155b15611404578151600680546020850151604086015160608701516001600160481b03908116600160b81b026001600160b81b0364ffffffffff909316600160901b029290921671ffffffffffffffffffffffffffffffffffff938216600160481b026001600160901b031990951691909616179290921716929092179190911790555b8060800151826080015114158061142357508060a001518260a0015114155b8061144457508060c0015164ffffffffff168260c0015164ffffffffff1614155b8061145757508060e001518260e0015114155b8061146c575080610100015182610100015114155b80611481575080610120015182610120015114155b156108975760808201516007805460a085015160c086015164ffffffffff16600160581b0264ffffffffff60581b196001600160481b0390921662010000026affffffffffffffffffffff1990931661ffff90951694909417919091171691909117905561012082015161010083015160e0840151611501929190611680565b600780546001600160801b03928316600160801b0292169190911790555050565b6000808061153260336002611daa565b6001600160801b0380861690911c16925061155560016608000000000000611dd4565b603385901c16691fffffffffffffffffff16915061157b60016608000000000000611dd4565b846001600160801b03161690509193909250565b61159a8383836116a4565b60409182015160009182526009602052919020805460a084015160e09094015166ffffffffffffff16600160901b0266ffffffffffffff60901b196001600160481b03958616600160481b026001600160901b031990931695909416949094171791909116919091179055565b337fb8d6eb541ded1720cc657b719f57abcb1fe4711cb7ead82751b135f5d94bc9448261163557600061163b565b600160481b5b69ffffffffffffffffffff1660388561ffff16901b60288761ffff16901b4264ffffffffff1617171760405161167391815260200190565b60405180910390a2505050565b60008061168f60336002611daa565b9490941b60339390931b929092171792915050565b81516305fcbae3906116b890612710611daa565b6116c29190611d88565b60408301526116d360326007611daa565b6116de906001611dc1565b8110156117ad5760006116f360326007611daa565b6127106305f5e1006117076008600a611d7c565b6117119190611d88565b61171b9190611daa565b8560e0015161172a9190611daa565b6117349190611d88565b905060006117518583866040015161174c9190611dc1565b6117dc565b61175b9083611dc1565b9050808460200181815161176f9190611dc1565b905250835181908590611783908390611dc1565b90525060408401516117969086906117dc565b846040018181516117a79190611dc1565b90525050505b60608301511561075c578260600151826040018181516117cd9190611dc1565b90525060006060840152505050565b6000806301ab362e846101200151846117f59190611daa565b6117ff9190611d88565b9050600066033bb85fc52d998561010001518561181c9190611daa565b6118269190611d88565b90506118328183611dc1565b95945050505050565b604051806101600160405280600081526020016000815260200160008152602001600081526020016000815260200160008152602001600064ffffffffff168152602001600081526020016000815260200160008152602001600081525090565b604051806101a00160405280600d906020820280368337509192915050565b600060208083528351808285015260005b818110156118e8578581018301518582016040015282016118cc565b506000604082860101526040601f19601f8301168501019250505092915050565b80356001600160a01b038116811461192057600080fd5b919050565b6000806040838503121561193857600080fd5b61194183611909565b946020939093013593505050565b60008060006060848603121561196457600080fd5b61196d84611909565b92506020840135915061198260408501611909565b90509250925092565b6000806000606084860312156119a057600080fd5b6119a984611909565b92506119b760208501611909565b9150604084013590509250925092565b600080604083850312156119da57600080fd5b823591506119ea60208401611909565b90509250929050565b634e487b7160e01b600052604160045260246000fd5b604051610160810167ffffffffffffffff81118282101715611a3b57634e487b7160e01b600052604160045260246000fd5b60405290565b803564ffffffffff8116811461192057600080fd5b60006101608284031215611a6957600080fd5b611a71611a09565b9050813581526020820135602082015260408201356040820152606082013560608201526080820135608082015260a082013560a0820152611ab560c08301611a41565b60c082015260e082013560e082015261010080830135818301525061012080830135818301525061014080830135818301525092915050565b6000806102c08385031215611b0257600080fd5b611b0c8484611a56565b91506119ea846101608501611a56565b60008060408385031215611b2f57600080fd5b50508035926020909101359150565b6020808252825182820181905260009190848201906040850190845b81811015611b7657835183529284019291840191600101611b5a565b50909695505050505050565b600060208284031215611b9457600080fd5b611b9d82611909565b9392505050565b600060208284031215611bb657600080fd5b81356bffffffffffffffffffffffff1981168114611b9d57600080fd5b600060208284031215611be557600080fd5b5035919050565b60008060408385031215611bff57600080fd5b611c0883611909565b91506119ea60208401611909565b6101a08101818360005b600d811015611c3f578151835260209283019290910190600101611c20565b50505092915050565b600181811c90821680611c5c57607f821691505b602082108103611c7c57634e487b7160e01b600052602260045260246000fd5b50919050565b634e487b7160e01b600052601160045260246000fd5b600181815b80851115611cd3578160001904821115611cb957611cb9611c82565b80851615611cc657918102915b93841c9390800290611c9d565b509250929050565b600082611cea575060016106ea565b81611cf7575060006106ea565b8160018114611d0d5760028114611d1757611d33565b60019150506106ea565b60ff841115611d2857611d28611c82565b50506001821b6106ea565b5060208310610133831016604e8410600b8410161715611d56575081810a6106ea565b611d608383611c98565b8060001904821115611d7457611d74611c82565b029392505050565b6000611b9d8383611cdb565b600082611da557634e487b7160e01b600052601260045260246000fd5b500490565b80820281158282048414176106ea576106ea611c82565b808201808211156106ea576106ea611c82565b818103818111156106ea576106ea611c82565b600060018201611df957611df9611c82565b5060010190565b634e487b7160e01b600052603260045260246000fdfea2646970667358221220d94b51ccaed008c036f33858585e71350ac38edd5cdc5d3663c371cfd90fe45464736f6c63430008130033",
			"opcodes": "PUSH1 0xA0 PUSH1 0x40 MSTORE CALLVALUE DUP1 ISZERO PUSH3 0x11 JUMPI PUSH1 0x0 DUP1 REVERT JUMPDEST POP PUSH1 0x40 MLOAD DUP1 PUSH1 0x40 ADD PUSH1 0x40 MSTORE DUP1 PUSH1 0x7 DUP2 MSTORE PUSH1 0x20 ADD PUSH7 0x135E5B9D1A5CDD PUSH1 0xCA SHL DUP2 MSTORE POP PUSH1 0x40 MLOAD DUP1 PUSH1 0x40 ADD PUSH1 0x40 MSTORE DUP1 PUSH1 0x4 DUP2 MSTORE PUSH1 0x20 ADD PUSH4 0x13565395 PUSH1 0xE2 SHL DUP2 MSTORE POP DUP2 PUSH1 0x3 SWAP1 DUP2 PUSH3 0x60 SWAP2 SWAP1 PUSH3 0x121 JUMP JUMPDEST POP PUSH1 0x4 PUSH3 0x6F DUP3 DUP3 PUSH3 0x121 JUMP JUMPDEST POP POP CALLER PUSH1 0x80 MSTORE POP PUSH3 0x1ED JUMP JUMPDEST PUSH4 0x4E487B71 PUSH1 0xE0 SHL PUSH1 0x0 MSTORE PUSH1 0x41 PUSH1 0x4 MSTORE PUSH1 0x24 PUSH1 0x0 REVERT JUMPDEST PUSH1 0x1 DUP2 DUP2 SHR SWAP1 DUP3 AND DUP1 PUSH3 0xA7 JUMPI PUSH1 0x7F DUP3 AND SWAP2 POP JUMPDEST PUSH1 0x20 DUP3 LT DUP2 SUB PUSH3 0xC8 JUMPI PUSH4 0x4E487B71 PUSH1 0xE0 SHL PUSH1 0x0 MSTORE PUSH1 0x22 PUSH1 0x4 MSTORE PUSH1 0x24 PUSH1 0x0 REVERT JUMPDEST POP SWAP2 SWAP1 POP JUMP JUMPDEST PUSH1 0x1F DUP3 GT ISZERO PUSH3 0x11C JUMPI PUSH1 0x0 DUP2 DUP2 MSTORE PUSH1 0x20 DUP2 KECCAK256 PUSH1 0x1F DUP6 ADD PUSH1 0x5 SHR DUP2 ADD PUSH1 0x20 DUP7 LT ISZERO PUSH3 0xF7 JUMPI POP DUP1 JUMPDEST PUSH1 0x1F DUP6 ADD PUSH1 0x5 SHR DUP3 ADD SWAP2 POP JUMPDEST DUP2 DUP2 LT ISZERO PUSH3 0x118 JUMPI DUP3 DUP2 SSTORE PUSH1 0x1 ADD PUSH3 0x103 JUMP JUMPDEST POP POP POP JUMPDEST POP POP POP JUMP JUMPDEST DUP2 MLOAD PUSH1 0x1 PUSH1 0x1 PUSH1 0x40 SHL SUB DUP2 GT ISZERO PUSH3 0x13D JUMPI PUSH3 0x13D PUSH3 0x7C JUMP JUMPDEST PUSH3 0x155 DUP2 PUSH3 0x14E DUP5 SLOAD PUSH3 0x92 JUMP JUMPDEST DUP5 PUSH3 0xCE JUMP JUMPDEST PUSH1 0x20 DUP1 PUSH1 0x1F DUP4 GT PUSH1 0x1 DUP2 EQ PUSH3 0x18D JUMPI PUSH1 0x0 DUP5 ISZERO PUSH3 0x174 JUMPI POP DUP6 DUP4 ADD MLOAD JUMPDEST PUSH1 0x0 NOT PUSH1 0x3 DUP7 SWAP1 SHL SHR NOT AND PUSH1 0x1 DUP6 SWAP1 SHL OR DUP6 SSTORE PUSH3 0x118 JUMP JUMPDEST PUSH1 0x0 DUP6 DUP2 MSTORE PUSH1 0x20 DUP2 KECCAK256 PUSH1 0x1F NOT DUP7 AND SWAP2 JUMPDEST DUP3 DUP2 LT ISZERO PUSH3 0x1BE JUMPI DUP9 DUP7 ADD MLOAD DUP3 SSTORE SWAP5 DUP5 ADD SWAP5 PUSH1 0x1 SWAP1 SWAP2 ADD SWAP1 DUP5 ADD PUSH3 0x19D JUMP JUMPDEST POP DUP6 DUP3 LT ISZERO PUSH3 0x1DD JUMPI DUP8 DUP6 ADD MLOAD PUSH1 0x0 NOT PUSH1 0x3 DUP9 SWAP1 SHL PUSH1 0xF8 AND SHR NOT AND DUP2 SSTORE JUMPDEST POP POP POP POP POP PUSH1 0x1 SWAP1 DUP2 SHL ADD SWAP1 SSTORE POP JUMP JUMPDEST PUSH1 0x80 MLOAD PUSH2 0x1E4C PUSH3 0x210 PUSH1 0x0 CODECOPY PUSH1 0x0 DUP2 DUP2 PUSH2 0x5FA ADD MSTORE PUSH2 0x9F1 ADD MSTORE PUSH2 0x1E4C PUSH1 0x0 RETURN INVALID PUSH1 0x80 PUSH1 0x40 MSTORE CALLVALUE DUP1 ISZERO PUSH2 0x10 JUMPI PUSH1 0x0 DUP1 REVERT JUMPDEST POP PUSH1 0x4 CALLDATASIZE LT PUSH2 0x1E5 JUMPI PUSH1 0x0 CALLDATALOAD PUSH1 0xE0 SHR DUP1 PUSH4 0x65D2A557 GT PUSH2 0x10F JUMPI DUP1 PUSH4 0x95D89B41 GT PUSH2 0xA2 JUMPI DUP1 PUSH4 0xC3124525 GT PUSH2 0x71 JUMPI DUP1 PUSH4 0xC3124525 EQ PUSH2 0x52D JUMPI DUP1 PUSH4 0xCE606EE0 EQ PUSH2 0x5F5 JUMPI DUP1 PUSH4 0xDD62ED3E EQ PUSH2 0x61C JUMPI DUP1 PUSH4 0xF04B5FA0 EQ PUSH2 0x62F JUMPI PUSH1 0x0 DUP1 REVERT JUMPDEST DUP1 PUSH4 0x95D89B41 EQ PUSH2 0x4EC JUMPI DUP1 PUSH4 0xA457C2D7 EQ PUSH2 0x4F4 JUMPI DUP1 PUSH4 0xA9059CBB EQ PUSH2 0x507 JUMPI DUP1 PUSH4 0xB626D6FC EQ PUSH2 0x51A JUMPI PUSH1 0x0 DUP1 REVERT JUMPDEST DUP1 PUSH4 0x87A0F31C GT PUSH2 0xDE JUMPI DUP1 PUSH4 0x87A0F31C EQ PUSH2 0x430 JUMPI DUP1 PUSH4 0x8CBA2842 EQ PUSH2 0x450 JUMPI DUP1 PUSH4 0x8F1C65C0 EQ PUSH2 0x463 JUMPI DUP1 PUSH4 0x90DE6871 EQ PUSH2 0x476 JUMPI PUSH1 0x0 DUP1 REVERT JUMPDEST DUP1 PUSH4 0x65D2A557 EQ PUSH2 0x3B1 JUMPI DUP1 PUSH4 0x6A210A0E EQ PUSH2 0x3C4 JUMPI DUP1 PUSH4 0x70A08231 EQ PUSH2 0x3E4 JUMPI DUP1 PUSH4 0x7C426620 EQ PUSH2 0x40D JUMPI PUSH1 0x0 DUP1 REVERT JUMPDEST DUP1 PUSH4 0x2607443B GT PUSH2 0x187 JUMPI DUP1 PUSH4 0x39509351 GT PUSH2 0x156 JUMPI DUP1 PUSH4 0x39509351 EQ PUSH2 0x331 JUMPI DUP1 PUSH4 0x3A70A5CA EQ PUSH2 0x344 JUMPI DUP1 PUSH4 0x44203FAF EQ PUSH2 0x34C JUMPI DUP1 PUSH4 0x5C9302C9 EQ PUSH2 0x3A9 JUMPI PUSH1 0x0 DUP1 REVERT JUMPDEST DUP1 PUSH4 0x2607443B EQ PUSH2 0x2A4 JUMPI DUP1 PUSH4 0x313CE567 EQ PUSH2 0x309 JUMPI DUP1 PUSH4 0x319E74F6 EQ PUSH2 0x318 JUMPI DUP1 PUSH4 0x34DC8BB5 EQ PUSH2 0x320 JUMPI PUSH1 0x0 DUP1 REVERT JUMPDEST DUP1 PUSH4 0x1285B047 GT PUSH2 0x1C3 JUMPI DUP1 PUSH4 0x1285B047 EQ PUSH2 0x240 JUMPI DUP1 PUSH4 0x13C5C2C7 EQ PUSH2 0x256 JUMPI DUP1 PUSH4 0x18160DDD EQ PUSH2 0x289 JUMPI DUP1 PUSH4 0x23B872DD EQ PUSH2 0x291 JUMPI PUSH1 0x0 DUP1 REVERT JUMPDEST DUP1 PUSH4 0x6FDDE03 EQ PUSH2 0x1EA JUMPI DUP1 PUSH4 0x95EA7B3 EQ PUSH2 0x208 JUMPI DUP1 PUSH4 0xD4D1513 EQ PUSH2 0x22B JUMPI JUMPDEST PUSH1 0x0 DUP1 REVERT JUMPDEST PUSH2 0x1F2 PUSH2 0x644 JUMP JUMPDEST PUSH1 0x40 MLOAD PUSH2 0x1FF SWAP2 SWAP1 PUSH2 0x18BB JUMP JUMPDEST PUSH1 0x40 MLOAD DUP1 SWAP2 SUB SWAP1 RETURN JUMPDEST PUSH2 0x21B PUSH2 0x216 CALLDATASIZE PUSH1 0x4 PUSH2 0x1925 JUMP JUMPDEST PUSH2 0x6D6 JUMP JUMPDEST PUSH1 0x40 MLOAD SWAP1 ISZERO ISZERO DUP2 MSTORE PUSH1 0x20 ADD PUSH2 0x1FF JUMP JUMPDEST PUSH2 0x23E PUSH2 0x239 CALLDATASIZE PUSH1 0x4 PUSH2 0x194F JUMP JUMPDEST PUSH2 0x6F0 JUMP JUMPDEST STOP JUMPDEST PUSH2 0x248 PUSH2 0x761 JUMP JUMPDEST PUSH1 0x40 MLOAD SWAP1 DUP2 MSTORE PUSH1 0x20 ADD PUSH2 0x1FF JUMP JUMPDEST PUSH2 0x271 PUSH20 0xDEC9F2793E3C17CD26EEFB21C4762FA5128E0399 DUP2 JUMP JUMPDEST PUSH1 0x40 MLOAD PUSH1 0x1 PUSH1 0x1 PUSH1 0xA0 SHL SUB SWAP1 SWAP2 AND DUP2 MSTORE PUSH1 0x20 ADD PUSH2 0x1FF JUMP JUMPDEST PUSH1 0x2 SLOAD PUSH2 0x248 JUMP JUMPDEST PUSH2 0x21B PUSH2 0x29F CALLDATASIZE PUSH1 0x4 PUSH2 0x198B JUMP JUMPDEST PUSH2 0x78C JUMP JUMPDEST PUSH2 0x2B7 PUSH2 0x2B2 CALLDATASIZE PUSH1 0x4 PUSH2 0x1925 JUMP JUMPDEST PUSH2 0x7B0 JUMP JUMPDEST PUSH1 0x40 DUP1 MLOAD PUSH5 0xFFFFFFFFFF SWAP9 SWAP1 SWAP9 AND DUP9 MSTORE PUSH1 0x1 PUSH1 0x1 PUSH1 0x48 SHL SUB SWAP7 DUP8 AND PUSH1 0x20 DUP10 ADD MSTORE SWAP5 SWAP1 SWAP6 AND SWAP4 DUP7 ADD SWAP4 SWAP1 SWAP4 MSTORE PUSH2 0xFFFF SWAP2 DUP3 AND PUSH1 0x60 DUP7 ADD MSTORE DUP2 AND PUSH1 0x80 DUP6 ADD MSTORE AND PUSH1 0xA0 DUP4 ADD MSTORE ISZERO ISZERO PUSH1 0xC0 DUP3 ADD MSTORE PUSH1 0xE0 ADD PUSH2 0x1FF JUMP JUMPDEST PUSH1 0x40 MLOAD PUSH1 0x8 DUP2 MSTORE PUSH1 0x20 ADD PUSH2 0x1FF JUMP JUMPDEST PUSH2 0x248 PUSH2 0x82E JUMP JUMPDEST PUSH1 0x5 SLOAD PUSH1 0x1 PUSH1 0x1 PUSH1 0xA0 SHL SUB AND PUSH2 0x271 JUMP JUMPDEST PUSH2 0x21B PUSH2 0x33F CALLDATASIZE PUSH1 0x4 PUSH2 0x1925 JUMP JUMPDEST PUSH2 0x83A JUMP JUMPDEST PUSH2 0x248 PUSH2 0x85C JUMP JUMPDEST PUSH2 0x38B PUSH2 0x35A CALLDATASIZE PUSH1 0x4 PUSH2 0x19C7 JUMP JUMPDEST PUSH1 0xC PUSH1 0x20 SWAP1 DUP2 MSTORE PUSH1 0x0 SWAP3 DUP4 MSTORE PUSH1 0x40 DUP1 DUP5 KECCAK256 SWAP1 SWAP2 MSTORE SWAP1 DUP3 MSTORE SWAP1 KECCAK256 SLOAD PUSH5 0xFFFFFFFFFF DUP1 DUP3 AND SWAP2 PUSH6 0x10000000000 SWAP1 DIV AND DUP3 JUMP JUMPDEST PUSH1 0x40 DUP1 MLOAD PUSH5 0xFFFFFFFFFF SWAP4 DUP5 AND DUP2 MSTORE SWAP3 SWAP1 SWAP2 AND PUSH1 0x20 DUP4 ADD MSTORE ADD PUSH2 0x1FF JUMP JUMPDEST PUSH2 0x248 PUSH2 0x883 JUMP JUMPDEST PUSH2 0x23E PUSH2 0x3BF CALLDATASIZE PUSH1 0x4 PUSH2 0x1AEE JUMP JUMPDEST PUSH2 0x88D JUMP JUMPDEST PUSH2 0x3D7 PUSH2 0x3D2 CALLDATASIZE PUSH1 0x4 PUSH2 0x1B1C JUMP JUMPDEST PUSH2 0x89B JUMP JUMPDEST PUSH1 0x40 MLOAD PUSH2 0x1FF SWAP2 SWAP1 PUSH2 0x1B3E JUMP JUMPDEST PUSH2 0x248 PUSH2 0x3F2 CALLDATASIZE PUSH1 0x4 PUSH2 0x1B82 JUMP JUMPDEST PUSH1 0x1 PUSH1 0x1 PUSH1 0xA0 SHL SUB AND PUSH1 0x0 SWAP1 DUP2 MSTORE PUSH1 0x20 DUP2 SWAP1 MSTORE PUSH1 0x40 SWAP1 KECCAK256 SLOAD SWAP1 JUMP JUMPDEST PUSH2 0x21B PUSH2 0x41B CALLDATASIZE PUSH1 0x4 PUSH2 0x1BA4 JUMP JUMPDEST PUSH1 0x8 PUSH1 0x20 MSTORE PUSH1 0x0 SWAP1 DUP2 MSTORE PUSH1 0x40 SWAP1 KECCAK256 SLOAD PUSH1 0xFF AND DUP2 JUMP JUMPDEST PUSH2 0x248 PUSH2 0x43E CALLDATASIZE PUSH1 0x4 PUSH2 0x1BD3 JUMP JUMPDEST PUSH1 0xB PUSH1 0x20 MSTORE PUSH1 0x0 SWAP1 DUP2 MSTORE PUSH1 0x40 SWAP1 KECCAK256 SLOAD DUP2 JUMP JUMPDEST PUSH2 0x23E PUSH2 0x45E CALLDATASIZE PUSH1 0x4 PUSH2 0x1B82 JUMP JUMPDEST PUSH2 0x9E6 JUMP JUMPDEST PUSH2 0x23E PUSH2 0x471 CALLDATASIZE PUSH1 0x4 PUSH2 0x1BD3 JUMP JUMPDEST PUSH2 0xA70 JUMP JUMPDEST PUSH2 0x4BD PUSH2 0x484 CALLDATASIZE PUSH1 0x4 PUSH2 0x1BD3 JUMP JUMPDEST PUSH1 0x9 PUSH1 0x20 MSTORE PUSH1 0x0 SWAP1 DUP2 MSTORE PUSH1 0x40 SWAP1 KECCAK256 SLOAD PUSH1 0x1 PUSH1 0x1 PUSH1 0x48 SHL SUB DUP1 DUP3 AND SWAP2 PUSH1 0x1 PUSH1 0x48 SHL DUP2 DIV SWAP1 SWAP2 AND SWAP1 PUSH1 0x1 PUSH1 0x90 SHL SWAP1 DIV PUSH7 0xFFFFFFFFFFFFFF AND DUP4 JUMP JUMPDEST PUSH1 0x40 DUP1 MLOAD PUSH1 0x1 PUSH1 0x1 PUSH1 0x48 SHL SUB SWAP5 DUP6 AND DUP2 MSTORE SWAP4 SWAP1 SWAP3 AND PUSH1 0x20 DUP5 ADD MSTORE PUSH7 0xFFFFFFFFFFFFFF AND SWAP1 DUP3 ADD MSTORE PUSH1 0x60 ADD PUSH2 0x1FF JUMP JUMPDEST PUSH2 0x1F2 PUSH2 0xB68 JUMP JUMPDEST PUSH2 0x21B PUSH2 0x502 CALLDATASIZE PUSH1 0x4 PUSH2 0x1925 JUMP JUMPDEST PUSH2 0xB77 JUMP JUMPDEST PUSH2 0x21B PUSH2 0x515 CALLDATASIZE PUSH1 0x4 PUSH2 0x1925 JUMP JUMPDEST PUSH2 0xBF2 JUMP JUMPDEST PUSH1 0x5 SLOAD PUSH2 0x271 SWAP1 PUSH1 0x1 PUSH1 0x1 PUSH1 0xA0 SHL SUB AND DUP2 JUMP JUMPDEST PUSH1 0x6 SLOAD PUSH1 0x7 SLOAD PUSH2 0x593 SWAP2 PUSH1 0x1 PUSH1 0x1 PUSH1 0x48 SHL SUB DUP1 DUP3 AND SWAP3 PUSH1 0x1 PUSH1 0x48 SHL DUP4 DIV DUP3 AND SWAP3 PUSH5 0xFFFFFFFFFF PUSH1 0x1 PUSH1 0x90 SHL DUP3 DIV DUP2 AND SWAP4 PUSH1 0x1 PUSH1 0xB8 SHL SWAP1 SWAP3 DIV DUP3 AND SWAP3 PUSH2 0xFFFF DUP2 AND SWAP3 PUSH3 0x10000 DUP3 DIV AND SWAP2 PUSH1 0x1 PUSH1 0x58 SHL DUP3 DIV AND SWAP1 PUSH1 0x1 PUSH1 0x1 PUSH1 0x80 SHL SUB PUSH1 0x1 PUSH1 0x80 SHL SWAP1 SWAP2 DIV AND DUP9 JUMP JUMPDEST PUSH1 0x40 DUP1 MLOAD PUSH1 0x1 PUSH1 0x1 PUSH1 0x48 SHL SUB SWAP10 DUP11 AND DUP2 MSTORE SWAP8 DUP10 AND PUSH1 0x20 DUP10 ADD MSTORE PUSH5 0xFFFFFFFFFF SWAP7 DUP8 AND SWAP1 DUP9 ADD MSTORE SWAP4 DUP8 AND PUSH1 0x60 DUP8 ADD MSTORE PUSH2 0xFFFF SWAP1 SWAP3 AND PUSH1 0x80 DUP7 ADD MSTORE SWAP5 SWAP1 SWAP5 AND PUSH1 0xA0 DUP5 ADD MSTORE SWAP3 AND PUSH1 0xC0 DUP3 ADD MSTORE PUSH1 0x1 PUSH1 0x1 PUSH1 0x80 SHL SUB SWAP1 SWAP2 AND PUSH1 0xE0 DUP3 ADD MSTORE PUSH2 0x100 ADD PUSH2 0x1FF JUMP JUMPDEST PUSH2 0x271 PUSH32 0x0 DUP2 JUMP JUMPDEST PUSH2 0x248 PUSH2 0x62A CALLDATASIZE PUSH1 0x4 PUSH2 0x1BEC JUMP JUMPDEST PUSH2 0xC00 JUMP JUMPDEST PUSH2 0x637 PUSH2 0xC2B JUMP JUMPDEST PUSH1 0x40 MLOAD PUSH2 0x1FF SWAP2 SWAP1 PUSH2 0x1C16 JUMP JUMPDEST PUSH1 0x60 PUSH1 0x3 DUP1 SLOAD PUSH2 0x653 SWAP1 PUSH2 0x1C48 JUMP JUMPDEST DUP1 PUSH1 0x1F ADD PUSH1 0x20 DUP1 SWAP2 DIV MUL PUSH1 0x20 ADD PUSH1 0x40 MLOAD SWAP1 DUP2 ADD PUSH1 0x40 MSTORE DUP1 SWAP3 SWAP2 SWAP1 DUP2 DUP2 MSTORE PUSH1 0x20 ADD DUP3 DUP1 SLOAD PUSH2 0x67F SWAP1 PUSH2 0x1C48 JUMP JUMPDEST DUP1 ISZERO PUSH2 0x6CC JUMPI DUP1 PUSH1 0x1F LT PUSH2 0x6A1 JUMPI PUSH2 0x100 DUP1 DUP4 SLOAD DIV MUL DUP4 MSTORE SWAP2 PUSH1 0x20 ADD SWAP2 PUSH2 0x6CC JUMP JUMPDEST DUP3 ADD SWAP2 SWAP1 PUSH1 0x0 MSTORE PUSH1 0x20 PUSH1 0x0 KECCAK256 SWAP1 JUMPDEST DUP2 SLOAD DUP2 MSTORE SWAP1 PUSH1 0x1 ADD SWAP1 PUSH1 0x20 ADD DUP1 DUP4 GT PUSH2 0x6AF JUMPI DUP3 SWAP1 SUB PUSH1 0x1F AND DUP3 ADD SWAP2 JUMPDEST POP POP POP POP POP SWAP1 POP SWAP1 JUMP JUMPDEST PUSH1 0x0 CALLER PUSH2 0x6E4 DUP2 DUP6 DUP6 PUSH2 0xD2D JUMP JUMPDEST PUSH1 0x1 SWAP2 POP POP JUMPDEST SWAP3 SWAP2 POP POP JUMP JUMPDEST PUSH1 0x5 SLOAD PUSH1 0x1 PUSH1 0x1 PUSH1 0xA0 SHL SUB DUP3 DUP2 AND SWAP2 AND EQ PUSH2 0x752 JUMPI PUSH1 0x40 MLOAD PUSH3 0x461BCD PUSH1 0xE5 SHL DUP2 MSTORE PUSH1 0x20 PUSH1 0x4 DUP3 ADD MSTORE PUSH1 0x19 PUSH1 0x24 DUP3 ADD MSTORE PUSH32 0x43616C6C6572206973206E6F7420544220636F6E747261637400000000000000 PUSH1 0x44 DUP3 ADD MSTORE PUSH1 0x64 ADD JUMPDEST PUSH1 0x40 MLOAD DUP1 SWAP2 SUB SWAP1 REVERT JUMPDEST PUSH2 0x75C DUP4 DUP4 PUSH2 0xE51 JUMP JUMPDEST POP POP POP JUMP JUMPDEST PUSH2 0x2710 PUSH4 0x5F5E100 PUSH2 0x775 PUSH1 0x8 PUSH1 0xA PUSH2 0x1D7C JUMP JUMPDEST PUSH2 0x77F SWAP2 SWAP1 PUSH2 0x1D88 JUMP JUMPDEST PUSH2 0x789 SWAP2 SWAP1 PUSH2 0x1DAA JUMP JUMPDEST DUP2 JUMP JUMPDEST PUSH1 0x0 CALLER PUSH2 0x79A DUP6 DUP3 DUP6 PUSH2 0xF10 JUMP JUMPDEST PUSH2 0x7A5 DUP6 DUP6 DUP6 PUSH2 0xF8A JUMP JUMPDEST POP PUSH1 0x1 SWAP5 SWAP4 POP POP POP POP JUMP JUMPDEST PUSH1 0xA PUSH1 0x20 MSTORE DUP2 PUSH1 0x0 MSTORE PUSH1 0x40 PUSH1 0x0 KECCAK256 DUP2 DUP2 SLOAD DUP2 LT PUSH2 0x7CC JUMPI PUSH1 0x0 DUP1 REVERT JUMPDEST PUSH1 0x0 SWAP2 DUP3 MSTORE PUSH1 0x20 SWAP1 SWAP2 KECCAK256 ADD SLOAD PUSH5 0xFFFFFFFFFF DUP2 AND SWAP3 POP PUSH1 0x1 PUSH1 0x1 PUSH1 0x48 SHL SUB PUSH6 0x10000000000 DUP3 DIV DUP2 AND SWAP3 POP PUSH1 0x1 PUSH1 0x70 SHL DUP3 DIV AND SWAP1 PUSH2 0xFFFF PUSH1 0x1 PUSH1 0xB8 SHL DUP3 DIV DUP2 AND SWAP2 PUSH1 0x1 PUSH1 0xC8 SHL DUP2 DIV DUP3 AND SWAP2 PUSH1 0x1 PUSH1 0xD8 SHL DUP3 DIV AND SWAP1 PUSH1 0xFF PUSH1 0x1 PUSH1 0xE8 SHL SWAP1 SWAP2 DIV AND DUP8 JUMP JUMPDEST PUSH2 0x789 PUSH1 0x32 PUSH1 0x7 PUSH2 0x1DAA JUMP JUMPDEST PUSH1 0x0 CALLER PUSH2 0x6E4 DUP2 DUP6 DUP6 PUSH2 0x84D DUP4 DUP4 PUSH2 0xC00 JUMP JUMPDEST PUSH2 0x857 SWAP2 SWAP1 PUSH2 0x1DC1 JUMP JUMPDEST PUSH2 0xD2D JUMP JUMPDEST PUSH1 0x6 SLOAD PUSH1 0x0 SWAP1 PUSH1 0x1 PUSH1 0x1 PUSH1 0x48 SHL SUB AND PUSH2 0x874 PUSH1 0x2 SLOAD SWAP1 JUMP JUMPDEST PUSH2 0x87E SWAP2 SWAP1 PUSH2 0x1DC1 JUMP JUMPDEST SWAP1 POP SWAP1 JUMP JUMPDEST PUSH1 0x0 PUSH2 0x87E PUSH2 0x112E JUMP JUMPDEST PUSH2 0x897 DUP3 DUP3 PUSH2 0x114A JUMP JUMPDEST POP POP JUMP JUMPDEST PUSH1 0x60 DUP2 DUP4 LT DUP1 ISZERO PUSH2 0x8B2 JUMPI POP PUSH1 0x7 SLOAD PUSH2 0xFFFF AND DUP3 GT ISZERO JUMPDEST PUSH2 0x8F4 JUMPI PUSH1 0x40 MLOAD PUSH3 0x461BCD PUSH1 0xE5 SHL DUP2 MSTORE PUSH1 0x20 PUSH1 0x4 DUP3 ADD MSTORE PUSH1 0x13 PUSH1 0x24 DUP3 ADD MSTORE PUSH19 0x135653950E881C985B99D9481A5B9D985B1A59 PUSH1 0x6A SHL PUSH1 0x44 DUP3 ADD MSTORE PUSH1 0x64 ADD PUSH2 0x749 JUMP JUMPDEST PUSH2 0x8FE DUP4 DUP4 PUSH2 0x1DD4 JUMP JUMPDEST PUSH8 0xFFFFFFFFFFFFFFFF DUP2 GT ISZERO PUSH2 0x916 JUMPI PUSH2 0x916 PUSH2 0x19F3 JUMP JUMPDEST PUSH1 0x40 MLOAD SWAP1 DUP1 DUP3 MSTORE DUP1 PUSH1 0x20 MUL PUSH1 0x20 ADD DUP3 ADD PUSH1 0x40 MSTORE DUP1 ISZERO PUSH2 0x93F JUMPI DUP2 PUSH1 0x20 ADD PUSH1 0x20 DUP3 MUL DUP1 CALLDATASIZE DUP4 CALLDATACOPY ADD SWAP1 POP JUMPDEST POP SWAP1 POP DUP3 PUSH1 0x0 DUP1 JUMPDEST PUSH2 0x953 PUSH1 0x48 PUSH1 0x2 PUSH2 0x1DAA JUMP JUMPDEST PUSH1 0x0 DUP5 DUP2 MSTORE PUSH1 0x9 PUSH1 0x20 MSTORE PUSH1 0x40 SWAP1 KECCAK256 SLOAD PUSH1 0x1 PUSH1 0x90 SHL DUP2 DIV PUSH7 0xFFFFFFFFFFFFFF AND SWAP1 SWAP2 SHL PUSH1 0x1 PUSH1 0x48 SHL DUP3 DIV PUSH1 0x48 SHL PUSH18 0xFFFFFFFFFFFFFFFFFF000000000000000000 AND OR PUSH1 0x1 PUSH1 0x1 PUSH1 0x48 SHL SUB SWAP1 SWAP2 AND OR SWAP1 POP DUP1 DUP5 DUP4 PUSH2 0x9AE DUP2 PUSH2 0x1DE7 JUMP JUMPDEST SWAP5 POP DUP2 MLOAD DUP2 LT PUSH2 0x9C0 JUMPI PUSH2 0x9C0 PUSH2 0x1E00 JUMP JUMPDEST PUSH1 0x20 SWAP1 DUP2 MUL SWAP2 SWAP1 SWAP2 ADD ADD MSTORE DUP5 PUSH2 0x9D5 DUP5 PUSH2 0x1DE7 JUMP JUMPDEST SWAP4 POP DUP4 LT PUSH2 0x947 JUMPI POP POP POP SWAP3 SWAP2 POP POP JUMP JUMPDEST CALLER PUSH1 0x1 PUSH1 0x1 PUSH1 0xA0 SHL SUB PUSH32 0x0 AND EQ PUSH2 0xA4E JUMPI PUSH1 0x40 MLOAD PUSH3 0x461BCD PUSH1 0xE5 SHL DUP2 MSTORE PUSH1 0x20 PUSH1 0x4 DUP3 ADD MSTORE PUSH1 0xD PUSH1 0x24 DUP3 ADD MSTORE PUSH13 0x2737BA103A34329027BBB732B9 PUSH1 0x99 SHL PUSH1 0x44 DUP3 ADD MSTORE PUSH1 0x64 ADD PUSH2 0x749 JUMP JUMPDEST PUSH1 0x5 DUP1 SLOAD PUSH1 0x1 PUSH1 0x1 PUSH1 0xA0 SHL SUB NOT AND PUSH1 0x1 PUSH1 0x1 PUSH1 0xA0 SHL SUB SWAP3 SWAP1 SWAP3 AND SWAP2 SWAP1 SWAP2 OR SWAP1 SSTORE JUMP JUMPDEST PUSH2 0xA78 PUSH2 0x183B JUMP JUMPDEST PUSH2 0xA80 PUSH2 0x183B JUMP JUMPDEST PUSH2 0xA8A DUP3 DUP3 PUSH2 0x114A JUMP JUMPDEST PUSH1 0x1 DUP3 PUSH2 0x140 ADD MLOAD GT PUSH2 0xAD1 JUMPI PUSH1 0x40 MLOAD PUSH3 0x461BCD PUSH1 0xE5 SHL DUP2 MSTORE PUSH1 0x20 PUSH1 0x4 DUP3 ADD MSTORE PUSH1 0xF PUSH1 0x24 DUP3 ADD MSTORE PUSH15 0x4D594E543A20546F6F206561726C79 PUSH1 0x88 SHL PUSH1 0x44 DUP3 ADD MSTORE PUSH1 0x64 ADD PUSH2 0x749 JUMP JUMPDEST DUP3 ISZERO PUSH2 0xB4D JUMPI DUP2 PUSH2 0x140 ADD MLOAD DUP4 GT ISZERO PUSH2 0xB3C JUMPI PUSH1 0x40 MLOAD PUSH3 0x461BCD PUSH1 0xE5 SHL DUP2 MSTORE PUSH1 0x20 PUSH1 0x4 DUP3 ADD MSTORE PUSH1 0x27 PUSH1 0x24 DUP3 ADD MSTORE PUSH32 0x4D594E543A206265666F72654461792063616E6E6F7420626520696E20746865 PUSH1 0x44 DUP3 ADD MSTORE PUSH7 0x20667574757265 PUSH1 0xC8 SHL PUSH1 0x64 DUP3 ADD MSTORE PUSH1 0x84 ADD PUSH2 0x749 JUMP JUMPDEST PUSH2 0xB48 DUP3 DUP5 PUSH1 0x0 PUSH2 0x1256 JUMP JUMPDEST PUSH2 0xB5E JUMP JUMPDEST PUSH2 0xB5E DUP3 DUP4 PUSH2 0x140 ADD MLOAD PUSH1 0x0 PUSH2 0x1256 JUMP JUMPDEST PUSH2 0x75C DUP3 DUP3 PUSH2 0x1342 JUMP JUMPDEST PUSH1 0x60 PUSH1 0x4 DUP1 SLOAD PUSH2 0x653 SWAP1 PUSH2 0x1C48 JUMP JUMPDEST PUSH1 0x0 CALLER DUP2 PUSH2 0xB85 DUP3 DUP7 PUSH2 0xC00 JUMP JUMPDEST SWAP1 POP DUP4 DUP2 LT ISZERO PUSH2 0xBE5 JUMPI PUSH1 0x40 MLOAD PUSH3 0x461BCD PUSH1 0xE5 SHL DUP2 MSTORE PUSH1 0x20 PUSH1 0x4 DUP3 ADD MSTORE PUSH1 0x25 PUSH1 0x24 DUP3 ADD MSTORE PUSH32 0x45524332303A2064656372656173656420616C6C6F77616E63652062656C6F77 PUSH1 0x44 DUP3 ADD MSTORE PUSH5 0x207A65726F PUSH1 0xD8 SHL PUSH1 0x64 DUP3 ADD MSTORE PUSH1 0x84 ADD PUSH2 0x749 JUMP JUMPDEST PUSH2 0x7A5 DUP3 DUP7 DUP7 DUP5 SUB PUSH2 0xD2D JUMP JUMPDEST PUSH1 0x0 CALLER PUSH2 0x6E4 DUP2 DUP6 DUP6 PUSH2 0xF8A JUMP JUMPDEST PUSH1 0x1 PUSH1 0x1 PUSH1 0xA0 SHL SUB SWAP2 DUP3 AND PUSH1 0x0 SWAP1 DUP2 MSTORE PUSH1 0x1 PUSH1 0x20 SWAP1 DUP2 MSTORE PUSH1 0x40 DUP1 DUP4 KECCAK256 SWAP4 SWAP1 SWAP5 AND DUP3 MSTORE SWAP2 SWAP1 SWAP2 MSTORE KECCAK256 SLOAD SWAP1 JUMP JUMPDEST PUSH2 0xC33 PUSH2 0x189C JUMP JUMPDEST PUSH1 0x7 SLOAD PUSH1 0x0 SWAP1 DUP2 SWAP1 DUP2 SWAP1 PUSH2 0xC56 SWAP1 PUSH1 0x1 PUSH1 0x80 SHL SWAP1 DIV PUSH1 0x1 PUSH1 0x1 PUSH1 0x80 SHL SUB AND PUSH2 0x1522 JUMP JUMPDEST PUSH1 0x40 DUP1 MLOAD PUSH2 0x1A0 DUP2 ADD DUP3 MSTORE PUSH1 0x6 SLOAD PUSH1 0x1 PUSH1 0x1 PUSH1 0x48 SHL SUB DUP1 DUP3 AND DUP4 MSTORE PUSH1 0x1 PUSH1 0x48 SHL DUP3 DIV DUP2 AND PUSH1 0x20 DUP5 ADD MSTORE PUSH5 0xFFFFFFFFFF PUSH1 0x1 PUSH1 0x90 SHL DUP4 DIV DUP2 AND SWAP5 DUP5 ADD SWAP5 SWAP1 SWAP5 MSTORE PUSH1 0x1 PUSH1 0xB8 SHL SWAP1 SWAP2 DIV DUP2 AND PUSH1 0x60 DUP4 ADD MSTORE PUSH1 0x7 SLOAD PUSH2 0xFFFF DUP2 AND PUSH1 0x80 DUP5 ADD MSTORE PUSH3 0x10000 DUP2 DIV SWAP1 SWAP2 AND PUSH1 0xA0 DUP4 ADD MSTORE PUSH1 0x1 PUSH1 0x58 SHL SWAP1 DIV SWAP1 SWAP2 AND PUSH1 0xC0 DUP3 ADD MSTORE PUSH1 0xE0 DUP2 ADD DUP3 SWAP1 MSTORE PUSH2 0x100 DUP2 ADD DUP4 SWAP1 MSTORE PUSH2 0x120 DUP2 ADD DUP5 SWAP1 MSTORE TIMESTAMP PUSH2 0x140 DUP3 ADD MSTORE SWAP3 SWAP6 POP SWAP1 SWAP4 POP SWAP2 POP PUSH2 0x160 DUP2 ADD PUSH2 0xD02 PUSH1 0x2 SLOAD SWAP1 JUMP JUMPDEST DUP2 MSTORE PUSH1 0x20 ADD PUSH1 0xB PUSH1 0x0 PUSH2 0xD13 PUSH2 0x112E JUMP JUMPDEST DUP2 MSTORE PUSH1 0x20 ADD SWAP1 DUP2 MSTORE PUSH1 0x20 ADD PUSH1 0x0 KECCAK256 SLOAD DUP2 MSTORE POP SWAP4 POP POP POP POP SWAP1 JUMP JUMPDEST PUSH1 0x1 PUSH1 0x1 PUSH1 0xA0 SHL SUB DUP4 AND PUSH2 0xD8F JUMPI PUSH1 0x40 MLOAD PUSH3 0x461BCD PUSH1 0xE5 SHL DUP2 MSTORE PUSH1 0x20 PUSH1 0x4 DUP3 ADD MSTORE PUSH1 0x24 DUP1 DUP3 ADD MSTORE PUSH32 0x45524332303A20617070726F76652066726F6D20746865207A65726F20616464 PUSH1 0x44 DUP3 ADD MSTORE PUSH4 0x72657373 PUSH1 0xE0 SHL PUSH1 0x64 DUP3 ADD MSTORE PUSH1 0x84 ADD PUSH2 0x749 JUMP JUMPDEST PUSH1 0x1 PUSH1 0x1 PUSH1 0xA0 SHL SUB DUP3 AND PUSH2 0xDF0 JUMPI PUSH1 0x40 MLOAD PUSH3 0x461BCD PUSH1 0xE5 SHL DUP2 MSTORE PUSH1 0x20 PUSH1 0x4 DUP3 ADD MSTORE PUSH1 0x22 PUSH1 0x24 DUP3 ADD MSTORE PUSH32 0x45524332303A20617070726F766520746F20746865207A65726F206164647265 PUSH1 0x44 DUP3 ADD MSTORE PUSH2 0x7373 PUSH1 0xF0 SHL PUSH1 0x64 DUP3 ADD MSTORE PUSH1 0x84 ADD PUSH2 0x749 JUMP JUMPDEST PUSH1 0x1 PUSH1 0x1 PUSH1 0xA0 SHL SUB DUP4 DUP2 AND PUSH1 0x0 DUP2 DUP2 MSTORE PUSH1 0x1 PUSH1 0x20 SWAP1 DUP2 MSTORE PUSH1 0x40 DUP1 DUP4 KECCAK256 SWAP5 DUP8 AND DUP1 DUP5 MSTORE SWAP5 DUP3 MSTORE SWAP2 DUP3 SWAP1 KECCAK256 DUP6 SWAP1 SSTORE SWAP1 MLOAD DUP5 DUP2 MSTORE PUSH32 0x8C5BE1E5EBEC7D5BD14F71427D1E84F3DD0314C0F7B2291E5B200AC8C7C3B925 SWAP2 ADD PUSH1 0x40 MLOAD DUP1 SWAP2 SUB SWAP1 LOG3 POP POP POP JUMP JUMPDEST PUSH1 0x1 PUSH1 0x1 PUSH1 0xA0 SHL SUB DUP3 AND PUSH2 0xEA7 JUMPI PUSH1 0x40 MLOAD PUSH3 0x461BCD PUSH1 0xE5 SHL DUP2 MSTORE PUSH1 0x20 PUSH1 0x4 DUP3 ADD MSTORE PUSH1 0x1F PUSH1 0x24 DUP3 ADD MSTORE PUSH32 0x45524332303A206D696E7420746F20746865207A65726F206164647265737300 PUSH1 0x44 DUP3 ADD MSTORE PUSH1 0x64 ADD PUSH2 0x749 JUMP JUMPDEST DUP1 PUSH1 0x2 PUSH1 0x0 DUP3 DUP3 SLOAD PUSH2 0xEB9 SWAP2 SWAP1 PUSH2 0x1DC1 JUMP JUMPDEST SWAP1 SWAP2 SSTORE POP POP PUSH1 0x1 PUSH1 0x1 PUSH1 0xA0 SHL SUB DUP3 AND PUSH1 0x0 DUP2 DUP2 MSTORE PUSH1 0x20 DUP2 DUP2 MSTORE PUSH1 0x40 DUP1 DUP4 KECCAK256 DUP1 SLOAD DUP7 ADD SWAP1 SSTORE MLOAD DUP5 DUP2 MSTORE PUSH32 0xDDF252AD1BE2C89B69C2B068FC378DAA952BA7F163C4A11628F55A4DF523B3EF SWAP2 ADD PUSH1 0x40 MLOAD DUP1 SWAP2 SUB SWAP1 LOG3 POP POP JUMP JUMPDEST PUSH1 0x0 PUSH2 0xF1C DUP5 DUP5 PUSH2 0xC00 JUMP JUMPDEST SWAP1 POP PUSH1 0x0 NOT DUP2 EQ PUSH2 0xF84 JUMPI DUP2 DUP2 LT ISZERO PUSH2 0xF77 JUMPI PUSH1 0x40 MLOAD PUSH3 0x461BCD PUSH1 0xE5 SHL DUP2 MSTORE PUSH1 0x20 PUSH1 0x4 DUP3 ADD MSTORE PUSH1 0x1D PUSH1 0x24 DUP3 ADD MSTORE PUSH32 0x45524332303A20696E73756666696369656E7420616C6C6F77616E6365000000 PUSH1 0x44 DUP3 ADD MSTORE PUSH1 0x64 ADD PUSH2 0x749 JUMP JUMPDEST PUSH2 0xF84 DUP5 DUP5 DUP5 DUP5 SUB PUSH2 0xD2D JUMP JUMPDEST POP POP POP POP JUMP JUMPDEST PUSH1 0x1 PUSH1 0x1 PUSH1 0xA0 SHL SUB DUP4 AND PUSH2 0xFEE JUMPI PUSH1 0x40 MLOAD PUSH3 0x461BCD PUSH1 0xE5 SHL DUP2 MSTORE PUSH1 0x20 PUSH1 0x4 DUP3 ADD MSTORE PUSH1 0x25 PUSH1 0x24 DUP3 ADD MSTORE PUSH32 0x45524332303A207472616E736665722066726F6D20746865207A65726F206164 PUSH1 0x44 DUP3 ADD MSTORE PUSH5 0x6472657373 PUSH1 0xD8 SHL PUSH1 0x64 DUP3 ADD MSTORE PUSH1 0x84 ADD PUSH2 0x749 JUMP JUMPDEST PUSH1 0x1 PUSH1 0x1 PUSH1 0xA0 SHL SUB DUP3 AND PUSH2 0x1050 JUMPI PUSH1 0x40 MLOAD PUSH3 0x461BCD PUSH1 0xE5 SHL DUP2 MSTORE PUSH1 0x20 PUSH1 0x4 DUP3 ADD MSTORE PUSH1 0x23 PUSH1 0x24 DUP3 ADD MSTORE PUSH32 0x45524332303A207472616E7366657220746F20746865207A65726F2061646472 PUSH1 0x44 DUP3 ADD MSTORE PUSH3 0x657373 PUSH1 0xE8 SHL PUSH1 0x64 DUP3 ADD MSTORE PUSH1 0x84 ADD PUSH2 0x749 JUMP JUMPDEST PUSH1 0x1 PUSH1 0x1 PUSH1 0xA0 SHL SUB DUP4 AND PUSH1 0x0 SWAP1 DUP2 MSTORE PUSH1 0x20 DUP2 SWAP1 MSTORE PUSH1 0x40 SWAP1 KECCAK256 SLOAD DUP2 DUP2 LT ISZERO PUSH2 0x10C8 JUMPI PUSH1 0x40 MLOAD PUSH3 0x461BCD PUSH1 0xE5 SHL DUP2 MSTORE PUSH1 0x20 PUSH1 0x4 DUP3 ADD MSTORE PUSH1 0x26 PUSH1 0x24 DUP3 ADD MSTORE PUSH32 0x45524332303A207472616E7366657220616D6F756E7420657863656564732062 PUSH1 0x44 DUP3 ADD MSTORE PUSH6 0x616C616E6365 PUSH1 0xD0 SHL PUSH1 0x64 DUP3 ADD MSTORE PUSH1 0x84 ADD PUSH2 0x749 JUMP JUMPDEST PUSH1 0x1 PUSH1 0x1 PUSH1 0xA0 SHL SUB DUP5 DUP2 AND PUSH1 0x0 DUP2 DUP2 MSTORE PUSH1 0x20 DUP2 DUP2 MSTORE PUSH1 0x40 DUP1 DUP4 KECCAK256 DUP8 DUP8 SUB SWAP1 SSTORE SWAP4 DUP8 AND DUP1 DUP4 MSTORE SWAP2 DUP5 SWAP1 KECCAK256 DUP1 SLOAD DUP8 ADD SWAP1 SSTORE SWAP3 MLOAD DUP6 DUP2 MSTORE SWAP1 SWAP3 PUSH32 0xDDF252AD1BE2C89B69C2B068FC378DAA952BA7F163C4A11628F55A4DF523B3EF SWAP2 ADD PUSH1 0x40 MLOAD DUP1 SWAP2 SUB SWAP1 LOG3 PUSH2 0xF84 JUMP JUMPDEST PUSH1 0x0 PUSH1 0x3C PUSH2 0x1140 PUSH4 0x65645B8F TIMESTAMP PUSH2 0x1DD4 JUMP JUMPDEST PUSH2 0x87E SWAP2 SWAP1 PUSH2 0x1D88 JUMP JUMPDEST PUSH1 0x6 SLOAD PUSH1 0x1 PUSH1 0x1 PUSH1 0x48 SHL SUB DUP1 DUP3 AND DUP5 MSTORE PUSH1 0x1 PUSH1 0x48 SHL DUP3 DIV DUP2 AND PUSH1 0x20 DUP6 ADD MSTORE PUSH5 0xFFFFFFFFFF PUSH1 0x1 PUSH1 0x90 SHL DUP4 DIV DUP2 AND PUSH1 0x40 DUP7 ADD MSTORE PUSH1 0x1 PUSH1 0xB8 SHL SWAP1 SWAP3 DIV DUP2 AND PUSH1 0x60 DUP6 ADD MSTORE PUSH1 0x7 SLOAD PUSH2 0xFFFF DUP2 AND PUSH1 0x80 DUP7 ADD MSTORE PUSH3 0x10000 DUP2 DIV SWAP1 SWAP2 AND PUSH1 0xA0 DUP6 ADD MSTORE PUSH1 0x1 PUSH1 0x58 SHL DUP2 DIV SWAP1 SWAP2 AND PUSH1 0xC0 DUP5 ADD MSTORE PUSH2 0x11CF SWAP1 PUSH1 0x1 PUSH1 0x1 PUSH1 0x80 SHL SUB PUSH1 0x1 PUSH1 0x80 SHL SWAP1 SWAP2 DIV AND PUSH2 0x1522 JUMP JUMPDEST PUSH1 0xE0 DUP6 ADD MSTORE PUSH2 0x100 DUP5 ADD MSTORE PUSH2 0x120 DUP4 ADD MSTORE PUSH2 0x11E8 PUSH2 0x112E JUMP JUMPDEST PUSH2 0x140 DUP4 ADD MSTORE DUP2 MLOAD DUP2 MSTORE PUSH1 0x20 DUP1 DUP4 ADD MLOAD SWAP1 DUP3 ADD MSTORE PUSH1 0x40 DUP1 DUP4 ADD MLOAD SWAP1 DUP3 ADD MSTORE PUSH1 0x60 DUP1 DUP4 ADD MLOAD SWAP1 DUP3 ADD MSTORE PUSH1 0x80 DUP1 DUP4 ADD MLOAD SWAP1 DUP3 ADD MSTORE PUSH1 0xA0 DUP1 DUP4 ADD MLOAD SWAP1 DUP3 ADD MSTORE PUSH1 0xC0 DUP1 DUP4 ADD MLOAD PUSH5 0xFFFFFFFFFF AND SWAP1 DUP3 ADD MSTORE PUSH1 0xE0 DUP1 DUP4 ADD MLOAD SWAP1 DUP3 ADD MSTORE PUSH2 0x100 DUP1 DUP4 ADD MLOAD SWAP1 DUP3 ADD MSTORE PUSH2 0x120 SWAP2 DUP3 ADD MLOAD SWAP2 ADD MSTORE JUMP JUMPDEST DUP2 DUP4 PUSH1 0x80 ADD MLOAD LT PUSH2 0x1266 JUMPI POP POP POP JUMP JUMPDEST PUSH2 0x128A PUSH1 0x40 MLOAD DUP1 PUSH1 0x60 ADD PUSH1 0x40 MSTORE DUP1 PUSH1 0x0 DUP2 MSTORE PUSH1 0x20 ADD PUSH1 0x0 DUP2 MSTORE PUSH1 0x20 ADD PUSH1 0x0 DUP2 MSTORE POP SWAP1 JUMP JUMPDEST DUP4 MLOAD PUSH1 0x2 SLOAD PUSH2 0x1299 SWAP2 SWAP1 PUSH2 0x1DC1 JUMP JUMPDEST DUP2 MSTORE PUSH1 0x80 DUP5 ADD MLOAD PUSH2 0x12AB DUP6 DUP4 DUP4 PUSH2 0x158F JUMP JUMPDEST PUSH1 0x20 DUP6 ADD MLOAD ISZERO PUSH2 0x12D6 JUMPI DUP5 PUSH1 0x20 ADD MLOAD DUP6 PUSH1 0xA0 ADD DUP2 DUP2 MLOAD PUSH2 0x12CB SWAP2 SWAP1 PUSH2 0x1DC1 JUMP JUMPDEST SWAP1 MSTORE POP PUSH1 0x0 PUSH1 0x20 DUP7 ADD MSTORE JUMPDEST DUP4 PUSH2 0x12E0 DUP3 PUSH2 0x1DE7 JUMP JUMPDEST SWAP2 POP DUP2 LT ISZERO PUSH2 0x12F9 JUMPI PUSH2 0x12F4 DUP6 DUP4 DUP4 PUSH2 0x158F JUMP JUMPDEST PUSH2 0x12D6 JUMP JUMPDEST PUSH2 0x1308 DUP6 PUSH1 0x80 ADD MLOAD DUP3 DUP6 PUSH2 0x1607 JUMP JUMPDEST PUSH1 0x80 DUP6 ADD DUP2 SWAP1 MSTORE PUSH1 0x20 DUP3 ADD MLOAD ISZERO PUSH2 0x133B JUMPI PUSH2 0x133B PUSH20 0x9A6A414D6F3497C05E3B1DE90520765FA1E07C03 DUP4 PUSH1 0x20 ADD MLOAD PUSH2 0xE51 JUMP JUMPDEST POP POP POP POP POP JUMP JUMPDEST DUP1 MLOAD DUP3 MLOAD EQ ISZERO DUP1 PUSH2 0x135B JUMPI POP DUP1 PUSH1 0x20 ADD MLOAD DUP3 PUSH1 0x20 ADD MLOAD EQ ISZERO JUMPDEST DUP1 PUSH2 0x136E JUMPI POP DUP1 PUSH1 0x40 ADD MLOAD DUP3 PUSH1 0x40 ADD MLOAD EQ ISZERO JUMPDEST DUP1 PUSH2 0x1381 JUMPI POP DUP1 PUSH1 0x60 ADD MLOAD DUP3 PUSH1 0x60 ADD MLOAD EQ ISZERO JUMPDEST ISZERO PUSH2 0x1404 JUMPI DUP2 MLOAD PUSH1 0x6 DUP1 SLOAD PUSH1 0x20 DUP6 ADD MLOAD PUSH1 0x40 DUP7 ADD MLOAD PUSH1 0x60 DUP8 ADD MLOAD PUSH1 0x1 PUSH1 0x1 PUSH1 0x48 SHL SUB SWAP1 DUP2 AND PUSH1 0x1 PUSH1 0xB8 SHL MUL PUSH1 0x1 PUSH1 0x1 PUSH1 0xB8 SHL SUB PUSH5 0xFFFFFFFFFF SWAP1 SWAP4 AND PUSH1 0x1 PUSH1 0x90 SHL MUL SWAP3 SWAP1 SWAP3 AND PUSH18 0xFFFFFFFFFFFFFFFFFFFFFFFFFFFFFFFFFFFF SWAP4 DUP3 AND PUSH1 0x1 PUSH1 0x48 SHL MUL PUSH1 0x1 PUSH1 0x1 PUSH1 0x90 SHL SUB NOT SWAP1 SWAP6 AND SWAP2 SWAP1 SWAP7 AND OR SWAP3 SWAP1 SWAP3 OR AND SWAP3 SWAP1 SWAP3 OR SWAP2 SWAP1 SWAP2 OR SWAP1 SSTORE JUMPDEST DUP1 PUSH1 0x80 ADD MLOAD DUP3 PUSH1 0x80 ADD MLOAD EQ ISZERO DUP1 PUSH2 0x1423 JUMPI POP DUP1 PUSH1 0xA0 ADD MLOAD DUP3 PUSH1 0xA0 ADD MLOAD EQ ISZERO JUMPDEST DUP1 PUSH2 0x1444 JUMPI POP DUP1 PUSH1 0xC0 ADD MLOAD PUSH5 0xFFFFFFFFFF AND DUP3 PUSH1 0xC0 ADD MLOAD PUSH5 0xFFFFFFFFFF AND EQ ISZERO JUMPDEST DUP1 PUSH2 0x1457 JUMPI POP DUP1 PUSH1 0xE0 ADD MLOAD DUP3 PUSH1 0xE0 ADD MLOAD EQ ISZERO JUMPDEST DUP1 PUSH2 0x146C JUMPI POP DUP1 PUSH2 0x100 ADD MLOAD DUP3 PUSH2 0x100 ADD MLOAD EQ ISZERO JUMPDEST DUP1 PUSH2 0x1481 JUMPI POP DUP1 PUSH2 0x120 ADD MLOAD DUP3 PUSH2 0x120 ADD MLOAD EQ ISZERO JUMPDEST ISZERO PUSH2 0x897 JUMPI PUSH1 0x80 DUP3 ADD MLOAD PUSH1 0x7 DUP1 SLOAD PUSH1 0xA0 DUP6 ADD MLOAD PUSH1 0xC0 DUP7 ADD MLOAD PUSH5 0xFFFFFFFFFF AND PUSH1 0x1 PUSH1 0x58 SHL MUL PUSH5 0xFFFFFFFFFF PUSH1 0x58 SHL NOT PUSH1 0x1 PUSH1 0x1 PUSH1 0x48 SHL SUB SWAP1 SWAP3 AND PUSH3 0x10000 MUL PUSH11 0xFFFFFFFFFFFFFFFFFFFFFF NOT SWAP1 SWAP4 AND PUSH2 0xFFFF SWAP1 SWAP6 AND SWAP5 SWAP1 SWAP5 OR SWAP2 SWAP1 SWAP2 OR AND SWAP2 SWAP1 SWAP2 OR SWAP1 SSTORE PUSH2 0x120 DUP3 ADD MLOAD PUSH2 0x100 DUP4 ADD MLOAD PUSH1 0xE0 DUP5 ADD MLOAD PUSH2 0x1501 SWAP3 SWAP2 SWAP1 PUSH2 0x1680 JUMP JUMPDEST PUSH1 0x7 DUP1 SLOAD PUSH1 0x1 PUSH1 0x1 PUSH1 0x80 SHL SUB SWAP3 DUP4 AND PUSH1 0x1 PUSH1 0x80 SHL MUL SWAP3 AND SWAP2 SWAP1 SWAP2 OR SWAP1 SSTORE POP POP JUMP JUMPDEST PUSH1 0x0 DUP1 DUP1 PUSH2 0x1532 PUSH1 0x33 PUSH1 0x2 PUSH2 0x1DAA JUMP JUMPDEST PUSH1 0x1 PUSH1 0x1 PUSH1 0x80 SHL SUB DUP1 DUP7 AND SWAP1 SWAP2 SHR AND SWAP3 POP PUSH2 0x1555 PUSH1 0x1 PUSH7 0x8000000000000 PUSH2 0x1DD4 JUMP JUMPDEST PUSH1 0x33 DUP6 SWAP1 SHR AND PUSH10 0x1FFFFFFFFFFFFFFFFFFF AND SWAP2 POP PUSH2 0x157B PUSH1 0x1 PUSH7 0x8000000000000 PUSH2 0x1DD4 JUMP JUMPDEST DUP5 PUSH1 0x1 PUSH1 0x1 PUSH1 0x80 SHL SUB AND AND SWAP1 POP SWAP2 SWAP4 SWAP1 SWAP3 POP JUMP JUMPDEST PUSH2 0x159A DUP4 DUP4 DUP4 PUSH2 0x16A4 JUMP JUMPDEST PUSH1 0x40 SWAP2 DUP3 ADD MLOAD PUSH1 0x0 SWAP2 DUP3 MSTORE PUSH1 0x9 PUSH1 0x20 MSTORE SWAP2 SWAP1 KECCAK256 DUP1 SLOAD PUSH1 0xA0 DUP5 ADD MLOAD PUSH1 0xE0 SWAP1 SWAP5 ADD MLOAD PUSH7 0xFFFFFFFFFFFFFF AND PUSH1 0x1 PUSH1 0x90 SHL MUL PUSH7 0xFFFFFFFFFFFFFF PUSH1 0x90 SHL NOT PUSH1 0x1 PUSH1 0x1 PUSH1 0x48 SHL SUB SWAP6 DUP7 AND PUSH1 0x1 PUSH1 0x48 SHL MUL PUSH1 0x1 PUSH1 0x1 PUSH1 0x90 SHL SUB NOT SWAP1 SWAP4 AND SWAP6 SWAP1 SWAP5 AND SWAP5 SWAP1 SWAP5 OR OR SWAP2 SWAP1 SWAP2 AND SWAP2 SWAP1 SWAP2 OR SWAP1 SSTORE JUMP JUMPDEST CALLER PUSH32 0xB8D6EB541DED1720CC657B719F57ABCB1FE4711CB7EAD82751B135F5D94BC944 DUP3 PUSH2 0x1635 JUMPI PUSH1 0x0 PUSH2 0x163B JUMP JUMPDEST PUSH1 0x1 PUSH1 0x48 SHL JUMPDEST PUSH10 0xFFFFFFFFFFFFFFFFFFFF AND PUSH1 0x38 DUP6 PUSH2 0xFFFF AND SWAP1 SHL PUSH1 0x28 DUP8 PUSH2 0xFFFF AND SWAP1 SHL TIMESTAMP PUSH5 0xFFFFFFFFFF AND OR OR OR PUSH1 0x40 MLOAD PUSH2 0x1673 SWAP2 DUP2 MSTORE PUSH1 0x20 ADD SWAP1 JUMP JUMPDEST PUSH1 0x40 MLOAD DUP1 SWAP2 SUB SWAP1 LOG2 POP POP POP JUMP JUMPDEST PUSH1 0x0 DUP1 PUSH2 0x168F PUSH1 0x33 PUSH1 0x2 PUSH2 0x1DAA JUMP JUMPDEST SWAP5 SWAP1 SWAP5 SHL PUSH1 0x33 SWAP4 SWAP1 SWAP4 SHL SWAP3 SWAP1 SWAP3 OR OR SWAP3 SWAP2 POP POP JUMP JUMPDEST DUP2 MLOAD PUSH4 0x5FCBAE3 SWAP1 PUSH2 0x16B8 SWAP1 PUSH2 0x2710 PUSH2 0x1DAA JUMP JUMPDEST PUSH2 0x16C2 SWAP2 SWAP1 PUSH2 0x1D88 JUMP JUMPDEST PUSH1 0x40 DUP4 ADD MSTORE PUSH2 0x16D3 PUSH1 0x32 PUSH1 0x7 PUSH2 0x1DAA JUMP JUMPDEST PUSH2 0x16DE SWAP1 PUSH1 0x1 PUSH2 0x1DC1 JUMP JUMPDEST DUP2 LT ISZERO PUSH2 0x17AD JUMPI PUSH1 0x0 PUSH2 0x16F3 PUSH1 0x32 PUSH1 0x7 PUSH2 0x1DAA JUMP JUMPDEST PUSH2 0x2710 PUSH4 0x5F5E100 PUSH2 0x1707 PUSH1 0x8 PUSH1 0xA PUSH2 0x1D7C JUMP JUMPDEST PUSH2 0x1711 SWAP2 SWAP1 PUSH2 0x1D88 JUMP JUMPDEST PUSH2 0x171B SWAP2 SWAP1 PUSH2 0x1DAA JUMP JUMPDEST DUP6 PUSH1 0xE0 ADD MLOAD PUSH2 0x172A SWAP2 SWAP1 PUSH2 0x1DAA JUMP JUMPDEST PUSH2 0x1734 SWAP2 SWAP1 PUSH2 0x1D88 JUMP JUMPDEST SWAP1 POP PUSH1 0x0 PUSH2 0x1751 DUP6 DUP4 DUP7 PUSH1 0x40 ADD MLOAD PUSH2 0x174C SWAP2 SWAP1 PUSH2 0x1DC1 JUMP JUMPDEST PUSH2 0x17DC JUMP JUMPDEST PUSH2 0x175B SWAP1 DUP4 PUSH2 0x1DC1 JUMP JUMPDEST SWAP1 POP DUP1 DUP5 PUSH1 0x20 ADD DUP2 DUP2 MLOAD PUSH2 0x176F SWAP2 SWAP1 PUSH2 0x1DC1 JUMP JUMPDEST SWAP1 MSTORE POP DUP4 MLOAD DUP2 SWAP1 DUP6 SWAP1 PUSH2 0x1783 SWAP1 DUP4 SWAP1 PUSH2 0x1DC1 JUMP JUMPDEST SWAP1 MSTORE POP PUSH1 0x40 DUP5 ADD MLOAD PUSH2 0x1796 SWAP1 DUP7 SWAP1 PUSH2 0x17DC JUMP JUMPDEST DUP5 PUSH1 0x40 ADD DUP2 DUP2 MLOAD PUSH2 0x17A7 SWAP2 SWAP1 PUSH2 0x1DC1 JUMP JUMPDEST SWAP1 MSTORE POP POP POP JUMPDEST PUSH1 0x60 DUP4 ADD MLOAD ISZERO PUSH2 0x75C JUMPI DUP3 PUSH1 0x60 ADD MLOAD DUP3 PUSH1 0x40 ADD DUP2 DUP2 MLOAD PUSH2 0x17CD SWAP2 SWAP1 PUSH2 0x1DC1 JUMP JUMPDEST SWAP1 MSTORE POP PUSH1 0x0 PUSH1 0x60 DUP5 ADD MSTORE POP POP POP JUMP JUMPDEST PUSH1 0x0 DUP1 PUSH4 0x1AB362E DUP5 PUSH2 0x120 ADD MLOAD DUP5 PUSH2 0x17F5 SWAP2 SWAP1 PUSH2 0x1DAA JUMP JUMPDEST PUSH2 0x17FF SWAP2 SWAP1 PUSH2 0x1D88 JUMP JUMPDEST SWAP1 POP PUSH1 0x0 PUSH7 0x33BB85FC52D99 DUP6 PUSH2 0x100 ADD MLOAD DUP6 PUSH2 0x181C SWAP2 SWAP1 PUSH2 0x1DAA JUMP JUMPDEST PUSH2 0x1826 SWAP2 SWAP1 PUSH2 0x1D88 JUMP JUMPDEST SWAP1 POP PUSH2 0x1832 DUP2 DUP4 PUSH2 0x1DC1 JUMP JUMPDEST SWAP6 SWAP5 POP POP POP POP POP JUMP JUMPDEST PUSH1 0x40 MLOAD DUP1 PUSH2 0x160 ADD PUSH1 0x40 MSTORE DUP1 PUSH1 0x0 DUP2 MSTORE PUSH1 0x20 ADD PUSH1 0x0 DUP2 MSTORE PUSH1 0x20 ADD PUSH1 0x0 DUP2 MSTORE PUSH1 0x20 ADD PUSH1 0x0 DUP2 MSTORE PUSH1 0x20 ADD PUSH1 0x0 DUP2 MSTORE PUSH1 0x20 ADD PUSH1 0x0 DUP2 MSTORE PUSH1 0x20 ADD PUSH1 0x0 PUSH5 0xFFFFFFFFFF AND DUP2 MSTORE PUSH1 0x20 ADD PUSH1 0x0 DUP2 MSTORE PUSH1 0x20 ADD PUSH1 0x0 DUP2 MSTORE PUSH1 0x20 ADD PUSH1 0x0 DUP2 MSTORE PUSH1 0x20 ADD PUSH1 0x0 DUP2 MSTORE POP SWAP1 JUMP JUMPDEST PUSH1 0x40 MLOAD DUP1 PUSH2 0x1A0 ADD PUSH1 0x40 MSTORE DUP1 PUSH1 0xD SWAP1 PUSH1 0x20 DUP3 MUL DUP1 CALLDATASIZE DUP4 CALLDATACOPY POP SWAP2 SWAP3 SWAP2 POP POP JUMP JUMPDEST PUSH1 0x0 PUSH1 0x20 DUP1 DUP4 MSTORE DUP4 MLOAD DUP1 DUP3 DUP6 ADD MSTORE PUSH1 0x0 JUMPDEST DUP2 DUP2 LT ISZERO PUSH2 0x18E8 JUMPI DUP6 DUP2 ADD DUP4 ADD MLOAD DUP6 DUP3 ADD PUSH1 0x40 ADD MSTORE DUP3 ADD PUSH2 0x18CC JUMP JUMPDEST POP PUSH1 0x0 PUSH1 0x40 DUP3 DUP7 ADD ADD MSTORE PUSH1 0x40 PUSH1 0x1F NOT PUSH1 0x1F DUP4 ADD AND DUP6 ADD ADD SWAP3 POP POP POP SWAP3 SWAP2 POP POP JUMP JUMPDEST DUP1 CALLDATALOAD PUSH1 0x1 PUSH1 0x1 PUSH1 0xA0 SHL SUB DUP2 AND DUP2 EQ PUSH2 0x1920 JUMPI PUSH1 0x0 DUP1 REVERT JUMPDEST SWAP2 SWAP1 POP JUMP JUMPDEST PUSH1 0x0 DUP1 PUSH1 0x40 DUP4 DUP6 SUB SLT ISZERO PUSH2 0x1938 JUMPI PUSH1 0x0 DUP1 REVERT JUMPDEST PUSH2 0x1941 DUP4 PUSH2 0x1909 JUMP JUMPDEST SWAP5 PUSH1 0x20 SWAP4 SWAP1 SWAP4 ADD CALLDATALOAD SWAP4 POP POP POP JUMP JUMPDEST PUSH1 0x0 DUP1 PUSH1 0x0 PUSH1 0x60 DUP5 DUP7 SUB SLT ISZERO PUSH2 0x1964 JUMPI PUSH1 0x0 DUP1 REVERT JUMPDEST PUSH2 0x196D DUP5 PUSH2 0x1909 JUMP JUMPDEST SWAP3 POP PUSH1 0x20 DUP5 ADD CALLDATALOAD SWAP2 POP PUSH2 0x1982 PUSH1 0x40 DUP6 ADD PUSH2 0x1909 JUMP JUMPDEST SWAP1 POP SWAP3 POP SWAP3 POP SWAP3 JUMP JUMPDEST PUSH1 0x0 DUP1 PUSH1 0x0 PUSH1 0x60 DUP5 DUP7 SUB SLT ISZERO PUSH2 0x19A0 JUMPI PUSH1 0x0 DUP1 REVERT JUMPDEST PUSH2 0x19A9 DUP5 PUSH2 0x1909 JUMP JUMPDEST SWAP3 POP PUSH2 0x19B7 PUSH1 0x20 DUP6 ADD PUSH2 0x1909 JUMP JUMPDEST SWAP2 POP PUSH1 0x40 DUP5 ADD CALLDATALOAD SWAP1 POP SWAP3 POP SWAP3 POP SWAP3 JUMP JUMPDEST PUSH1 0x0 DUP1 PUSH1 0x40 DUP4 DUP6 SUB SLT ISZERO PUSH2 0x19DA JUMPI PUSH1 0x0 DUP1 REVERT JUMPDEST DUP3 CALLDATALOAD SWAP2 POP PUSH2 0x19EA PUSH1 0x20 DUP5 ADD PUSH2 0x1909 JUMP JUMPDEST SWAP1 POP SWAP3 POP SWAP3 SWAP1 POP JUMP JUMPDEST PUSH4 0x4E487B71 PUSH1 0xE0 SHL PUSH1 0x0 MSTORE PUSH1 0x41 PUSH1 0x4 MSTORE PUSH1 0x24 PUSH1 0x0 REVERT JUMPDEST PUSH1 0x40 MLOAD PUSH2 0x160 DUP2 ADD PUSH8 0xFFFFFFFFFFFFFFFF DUP2 GT DUP3 DUP3 LT OR ISZERO PUSH2 0x1A3B JUMPI PUSH4 0x4E487B71 PUSH1 0xE0 SHL PUSH1 0x0 MSTORE PUSH1 0x41 PUSH1 0x4 MSTORE PUSH1 0x24 PUSH1 0x0 REVERT JUMPDEST PUSH1 0x40 MSTORE SWAP1 JUMP JUMPDEST DUP1 CALLDATALOAD PUSH5 0xFFFFFFFFFF DUP2 AND DUP2 EQ PUSH2 0x1920 JUMPI PUSH1 0x0 DUP1 REVERT JUMPDEST PUSH1 0x0 PUSH2 0x160 DUP3 DUP5 SUB SLT ISZERO PUSH2 0x1A69 JUMPI PUSH1 0x0 DUP1 REVERT JUMPDEST PUSH2 0x1A71 PUSH2 0x1A09 JUMP JUMPDEST SWAP1 POP DUP2 CALLDATALOAD DUP2 MSTORE PUSH1 0x20 DUP3 ADD CALLDATALOAD PUSH1 0x20 DUP3 ADD MSTORE PUSH1 0x40 DUP3 ADD CALLDATALOAD PUSH1 0x40 DUP3 ADD MSTORE PUSH1 0x60 DUP3 ADD CALLDATALOAD PUSH1 0x60 DUP3 ADD MSTORE PUSH1 0x80 DUP3 ADD CALLDATALOAD PUSH1 0x80 DUP3 ADD MSTORE PUSH1 0xA0 DUP3 ADD CALLDATALOAD PUSH1 0xA0 DUP3 ADD MSTORE PUSH2 0x1AB5 PUSH1 0xC0 DUP4 ADD PUSH2 0x1A41 JUMP JUMPDEST PUSH1 0xC0 DUP3 ADD MSTORE PUSH1 0xE0 DUP3 ADD CALLDATALOAD PUSH1 0xE0 DUP3 ADD MSTORE PUSH2 0x100 DUP1 DUP4 ADD CALLDATALOAD DUP2 DUP4 ADD MSTORE POP PUSH2 0x120 DUP1 DUP4 ADD CALLDATALOAD DUP2 DUP4 ADD MSTORE POP PUSH2 0x140 DUP1 DUP4 ADD CALLDATALOAD DUP2 DUP4 ADD MSTORE POP SWAP3 SWAP2 POP POP JUMP JUMPDEST PUSH1 0x0 DUP1 PUSH2 0x2C0 DUP4 DUP6 SUB SLT ISZERO PUSH2 0x1B02 JUMPI PUSH1 0x0 DUP1 REVERT JUMPDEST PUSH2 0x1B0C DUP5 DUP5 PUSH2 0x1A56 JUMP JUMPDEST SWAP2 POP PUSH2 0x19EA DUP5 PUSH2 0x160 DUP6 ADD PUSH2 0x1A56 JUMP JUMPDEST PUSH1 0x0 DUP1 PUSH1 0x40 DUP4 DUP6 SUB SLT ISZERO PUSH2 0x1B2F JUMPI PUSH1 0x0 DUP1 REVERT JUMPDEST POP POP DUP1 CALLDATALOAD SWAP3 PUSH1 0x20 SWAP1 SWAP2 ADD CALLDATALOAD SWAP2 POP JUMP JUMPDEST PUSH1 0x20 DUP1 DUP3 MSTORE DUP3 MLOAD DUP3 DUP3 ADD DUP2 SWAP1 MSTORE PUSH1 0x0 SWAP2 SWAP1 DUP5 DUP3 ADD SWAP1 PUSH1 0x40 DUP6 ADD SWAP1 DUP5 JUMPDEST DUP2 DUP2 LT ISZERO PUSH2 0x1B76 JUMPI DUP4 MLOAD DUP4 MSTORE SWAP3 DUP5 ADD SWAP3 SWAP2 DUP5 ADD SWAP2 PUSH1 0x1 ADD PUSH2 0x1B5A JUMP JUMPDEST POP SWAP1 SWAP7 SWAP6 POP POP POP POP POP POP JUMP JUMPDEST PUSH1 0x0 PUSH1 0x20 DUP3 DUP5 SUB SLT ISZERO PUSH2 0x1B94 JUMPI PUSH1 0x0 DUP1 REVERT JUMPDEST PUSH2 0x1B9D DUP3 PUSH2 0x1909 JUMP JUMPDEST SWAP4 SWAP3 POP POP POP JUMP JUMPDEST PUSH1 0x0 PUSH1 0x20 DUP3 DUP5 SUB SLT ISZERO PUSH2 0x1BB6 JUMPI PUSH1 0x0 DUP1 REVERT JUMPDEST DUP2 CALLDATALOAD PUSH12 0xFFFFFFFFFFFFFFFFFFFFFFFF NOT DUP2 AND DUP2 EQ PUSH2 0x1B9D JUMPI PUSH1 0x0 DUP1 REVERT JUMPDEST PUSH1 0x0 PUSH1 0x20 DUP3 DUP5 SUB SLT ISZERO PUSH2 0x1BE5 JUMPI PUSH1 0x0 DUP1 REVERT JUMPDEST POP CALLDATALOAD SWAP2 SWAP1 POP JUMP JUMPDEST PUSH1 0x0 DUP1 PUSH1 0x40 DUP4 DUP6 SUB SLT ISZERO PUSH2 0x1BFF JUMPI PUSH1 0x0 DUP1 REVERT JUMPDEST PUSH2 0x1C08 DUP4 PUSH2 0x1909 JUMP JUMPDEST SWAP2 POP PUSH2 0x19EA PUSH1 0x20 DUP5 ADD PUSH2 0x1909 JUMP JUMPDEST PUSH2 0x1A0 DUP2 ADD DUP2 DUP4 PUSH1 0x0 JUMPDEST PUSH1 0xD DUP2 LT ISZERO PUSH2 0x1C3F JUMPI DUP2 MLOAD DUP4 MSTORE PUSH1 0x20 SWAP3 DUP4 ADD SWAP3 SWAP1 SWAP2 ADD SWAP1 PUSH1 0x1 ADD PUSH2 0x1C20 JUMP JUMPDEST POP POP POP SWAP3 SWAP2 POP POP JUMP JUMPDEST PUSH1 0x1 DUP2 DUP2 SHR SWAP1 DUP3 AND DUP1 PUSH2 0x1C5C JUMPI PUSH1 0x7F DUP3 AND SWAP2 POP JUMPDEST PUSH1 0x20 DUP3 LT DUP2 SUB PUSH2 0x1C7C JUMPI PUSH4 0x4E487B71 PUSH1 0xE0 SHL PUSH1 0x0 MSTORE PUSH1 0x22 PUSH1 0x4 MSTORE PUSH1 0x24 PUSH1 0x0 REVERT JUMPDEST POP SWAP2 SWAP1 POP JUMP JUMPDEST PUSH4 0x4E487B71 PUSH1 0xE0 SHL PUSH1 0x0 MSTORE PUSH1 0x11 PUSH1 0x4 MSTORE PUSH1 0x24 PUSH1 0x0 REVERT JUMPDEST PUSH1 0x1 DUP2 DUP2 JUMPDEST DUP1 DUP6 GT ISZERO PUSH2 0x1CD3 JUMPI DUP2 PUSH1 0x0 NOT DIV DUP3 GT ISZERO PUSH2 0x1CB9 JUMPI PUSH2 0x1CB9 PUSH2 0x1C82 JUMP JUMPDEST DUP1 DUP6 AND ISZERO PUSH2 0x1CC6 JUMPI SWAP2 DUP2 MUL SWAP2 JUMPDEST SWAP4 DUP5 SHR SWAP4 SWAP1 DUP1 MUL SWAP1 PUSH2 0x1C9D JUMP JUMPDEST POP SWAP3 POP SWAP3 SWAP1 POP JUMP JUMPDEST PUSH1 0x0 DUP3 PUSH2 0x1CEA JUMPI POP PUSH1 0x1 PUSH2 0x6EA JUMP JUMPDEST DUP2 PUSH2 0x1CF7 JUMPI POP PUSH1 0x0 PUSH2 0x6EA JUMP JUMPDEST DUP2 PUSH1 0x1 DUP2 EQ PUSH2 0x1D0D JUMPI PUSH1 0x2 DUP2 EQ PUSH2 0x1D17 JUMPI PUSH2 0x1D33 JUMP JUMPDEST PUSH1 0x1 SWAP2 POP POP PUSH2 0x6EA JUMP JUMPDEST PUSH1 0xFF DUP5 GT ISZERO PUSH2 0x1D28 JUMPI PUSH2 0x1D28 PUSH2 0x1C82 JUMP JUMPDEST POP POP PUSH1 0x1 DUP3 SHL PUSH2 0x6EA JUMP JUMPDEST POP PUSH1 0x20 DUP4 LT PUSH2 0x133 DUP4 LT AND PUSH1 0x4E DUP5 LT PUSH1 0xB DUP5 LT AND OR ISZERO PUSH2 0x1D56 JUMPI POP DUP2 DUP2 EXP PUSH2 0x6EA JUMP JUMPDEST PUSH2 0x1D60 DUP4 DUP4 PUSH2 0x1C98 JUMP JUMPDEST DUP1 PUSH1 0x0 NOT DIV DUP3 GT ISZERO PUSH2 0x1D74 JUMPI PUSH2 0x1D74 PUSH2 0x1C82 JUMP JUMPDEST MUL SWAP4 SWAP3 POP POP POP JUMP JUMPDEST PUSH1 0x0 PUSH2 0x1B9D DUP4 DUP4 PUSH2 0x1CDB JUMP JUMPDEST PUSH1 0x0 DUP3 PUSH2 0x1DA5 JUMPI PUSH4 0x4E487B71 PUSH1 0xE0 SHL PUSH1 0x0 MSTORE PUSH1 0x12 PUSH1 0x4 MSTORE PUSH1 0x24 PUSH1 0x0 REVERT JUMPDEST POP DIV SWAP1 JUMP JUMPDEST DUP1 DUP3 MUL DUP2 ISZERO DUP3 DUP3 DIV DUP5 EQ OR PUSH2 0x6EA JUMPI PUSH2 0x6EA PUSH2 0x1C82 JUMP JUMPDEST DUP1 DUP3 ADD DUP1 DUP3 GT ISZERO PUSH2 0x6EA JUMPI PUSH2 0x6EA PUSH2 0x1C82 JUMP JUMPDEST DUP2 DUP2 SUB DUP2 DUP2 GT ISZERO PUSH2 0x6EA JUMPI PUSH2 0x6EA PUSH2 0x1C82 JUMP JUMPDEST PUSH1 0x0 PUSH1 0x1 DUP3 ADD PUSH2 0x1DF9 JUMPI PUSH2 0x1DF9 PUSH2 0x1C82 JUMP JUMPDEST POP PUSH1 0x1 ADD SWAP1 JUMP JUMPDEST PUSH4 0x4E487B71 PUSH1 0xE0 SHL PUSH1 0x0 MSTORE PUSH1 0x32 PUSH1 0x4 MSTORE PUSH1 0x24 PUSH1 0x0 REVERT INVALID LOG2 PUSH5 0x6970667358 0x22 SLT KECCAK256 0xD9 0x4B MLOAD 0xCC 0xAE 0xD0 ADDMOD 0xC0 CALLDATASIZE RETURN CODESIZE PC PC 0x5E PUSH18 0x350AC38EDD5CDC5D3663C371CFD90FE45464 PUSH20 0x6F6C634300081300330000000000000000000000 "
		},
		"gasEstimates": {
			"creation": {
				"codeDepositCost": "1551200",
				"executionCost": "infinite",
				"totalCost": "infinite"
			},
			"external": {
				"CLAIM_PHASE_DAYS()": "385",
				"FLUSH_ADDR()": "284",
				"HEARTS_PER_SATOSHI()": "infinite",
				"allocatedSupply()": "4596",
				"allowance(address,address)": "infinite",
				"approve(address,uint256)": "24674",
				"balanceOf(address)": "2630",
				"btcAddressClaims(bytes20)": "2599",
				"contractOwner()": "infinite",
				"currentDay()": "infinite",
				"dailyData(uint256)": "2700",
				"dailyDataRange(uint256,uint256)": "infinite",
				"dailyDataUpdate(uint256)": "infinite",
				"decimals()": "245",
				"decreaseAllowance(address,uint256)": "27017",
				"getGlobalsLoad((uint256,uint256,uint256,uint256,uint256,uint256,uint40,uint256,uint256,uint256,uint256),(uint256,uint256,uint256,uint256,uint256,uint256,uint40,uint256,uint256,uint256,uint256))": "infinite",
				"getTreasureBoxAddress()": "2443",
				"globalInfo()": "infinite",
				"globals()": "4859",
				"increaseAllowance(address,uint256)": "infinite",
				"mint(address,uint256,address)": "infinite",
				"name()": "infinite",
				"setTreasureBoxAddress(address)": "infinite",
				"stakeLists(address,uint256)": "5136",
				"symbol()": "infinite",
				"totalSupply()": "2382",
				"transfer(address,uint256)": "51139",
				"transferFrom(address,address,uint256)": "infinite",
				"treasureBoxAddress()": "2448",
				"xfLobby(uint256)": "2483",
				"xfLobbyMembers(uint256,address)": "2771"
			},
			"internal": {
				"_calcAdoptionBonus(struct IGlobals.GlobalsCache memory,uint256)": "infinite",
				"_claimStatsDecode(uint128)": "infinite",
				"_claimStatsEncode(uint256,uint256,uint256)": "158",
				"_currentDay()": "157",
				"_dailyDataUpdate(struct IGlobals.GlobalsCache memory,uint256,bool)": "infinite",
				"_dailyDataUpdateAuto(struct IGlobals.GlobalsCache memory)": "infinite",
				"_dailyRoundCalc(struct IGlobals.GlobalsCache memory,struct GlobalsAndUtility.DailyRoundState memory,uint256)": "infinite",
				"_dailyRoundCalcAndStore(struct IGlobals.GlobalsCache memory,struct GlobalsAndUtility.DailyRoundState memory,uint256)": "infinite",
				"_emitDailyDataUpdate(uint256,uint256,bool)": "infinite",
				"_estimatePayoutRewardsDay(struct IGlobals.GlobalsCache memory,uint256,uint256)": "infinite",
				"_globalsCacheSnapshot(struct IGlobals.GlobalsCache memory,struct IGlobals.GlobalsCache memory)": "infinite",
				"_globalsLoad(struct IGlobals.GlobalsCache memory,struct IGlobals.GlobalsCache memory)": "infinite",
				"_globalsSync(struct IGlobals.GlobalsCache memory,struct IGlobals.GlobalsCache memory)": "infinite",
				"_stakeAdd(struct GlobalsAndUtility.StakeStore storage ref[] storage pointer,uint40,uint256,uint256,uint256,uint256,bool)": "infinite",
				"_stakeLoad(struct GlobalsAndUtility.StakeStore storage pointer,uint40,struct GlobalsAndUtility.StakeCache memory)": "infinite",
				"_stakeRemove(struct GlobalsAndUtility.StakeStore storage ref[] storage pointer,uint256)": "infinite",
				"_stakeUpdate(struct GlobalsAndUtility.StakeStore storage pointer,struct GlobalsAndUtility.StakeCache memory)": "infinite"
			}
		},
		"methodIdentifiers": {
			"CLAIM_PHASE_DAYS()": "319e74f6",
			"FLUSH_ADDR()": "13c5c2c7",
			"HEARTS_PER_SATOSHI()": "1285b047",
			"allocatedSupply()": "3a70a5ca",
			"allowance(address,address)": "dd62ed3e",
			"approve(address,uint256)": "095ea7b3",
			"balanceOf(address)": "70a08231",
			"btcAddressClaims(bytes20)": "7c426620",
			"contractOwner()": "ce606ee0",
			"currentDay()": "5c9302c9",
			"dailyData(uint256)": "90de6871",
			"dailyDataRange(uint256,uint256)": "6a210a0e",
			"dailyDataUpdate(uint256)": "8f1c65c0",
			"decimals()": "313ce567",
			"decreaseAllowance(address,uint256)": "a457c2d7",
			"getGlobalsLoad((uint256,uint256,uint256,uint256,uint256,uint256,uint40,uint256,uint256,uint256,uint256),(uint256,uint256,uint256,uint256,uint256,uint256,uint40,uint256,uint256,uint256,uint256))": "65d2a557",
			"getTreasureBoxAddress()": "34dc8bb5",
			"globalInfo()": "f04b5fa0",
			"globals()": "c3124525",
			"increaseAllowance(address,uint256)": "39509351",
			"mint(address,uint256,address)": "0d4d1513",
			"name()": "06fdde03",
			"setTreasureBoxAddress(address)": "8cba2842",
			"stakeLists(address,uint256)": "2607443b",
			"symbol()": "95d89b41",
			"totalSupply()": "18160ddd",
			"transfer(address,uint256)": "a9059cbb",
			"transferFrom(address,address,uint256)": "23b872dd",
			"treasureBoxAddress()": "b626d6fc",
			"xfLobby(uint256)": "87a0f31c",
			"xfLobbyMembers(uint256,address)": "44203faf"
		}
	},
	"abi": [
		{
			"inputs": [],
			"stateMutability": "nonpayable",
			"type": "constructor"
		},
		{
			"anonymous": false,
			"inputs": [
				{
					"indexed": true,
					"internalType": "address",
					"name": "owner",
					"type": "address"
				},
				{
					"indexed": true,
					"internalType": "address",
					"name": "spender",
					"type": "address"
				},
				{
					"indexed": false,
					"internalType": "uint256",
					"name": "value",
					"type": "uint256"
				}
			],
			"name": "Approval",
			"type": "event"
		},
		{
			"anonymous": false,
			"inputs": [
				{
					"indexed": false,
					"internalType": "uint256",
					"name": "data0",
					"type": "uint256"
				},
				{
					"indexed": false,
					"internalType": "uint256",
					"name": "data1",
					"type": "uint256"
				},
				{
					"indexed": true,
					"internalType": "bytes20",
					"name": "btcAddr",
					"type": "bytes20"
				},
				{
					"indexed": true,
					"internalType": "address",
					"name": "claimToAddr",
					"type": "address"
				},
				{
					"indexed": true,
					"internalType": "address",
					"name": "referrerAddr",
					"type": "address"
				}
			],
			"name": "Claim",
			"type": "event"
		},
		{
			"anonymous": false,
			"inputs": [
				{
					"indexed": false,
					"internalType": "uint256",
					"name": "data0",
					"type": "uint256"
				},
				{
					"indexed": false,
					"internalType": "uint256",
					"name": "data1",
					"type": "uint256"
				},
				{
					"indexed": false,
					"internalType": "uint256",
					"name": "data2",
					"type": "uint256"
				},
				{
					"indexed": true,
					"internalType": "address",
					"name": "senderAddr",
					"type": "address"
				}
			],
			"name": "ClaimAssist",
			"type": "event"
		},
		{
			"anonymous": false,
			"inputs": [
				{
					"indexed": false,
					"internalType": "uint256",
					"name": "data0",
					"type": "uint256"
				},
				{
					"indexed": true,
					"internalType": "address",
					"name": "updaterAddr",
					"type": "address"
				}
			],
			"name": "DailyDataUpdate",
			"type": "event"
		},
		{
			"anonymous": false,
			"inputs": [
				{
					"indexed": false,
					"internalType": "uint256",
					"name": "data0",
					"type": "uint256"
				},
				{
					"indexed": true,
					"internalType": "uint40",
					"name": "stakeId",
					"type": "uint40"
				}
			],
			"name": "ShareRateChange",
			"type": "event"
		},
		{
			"anonymous": false,
			"inputs": [
				{
					"indexed": false,
					"internalType": "uint256",
					"name": "data0",
					"type": "uint256"
				},
				{
					"indexed": false,
					"internalType": "uint256",
					"name": "data1",
					"type": "uint256"
				},
				{
					"indexed": true,
					"internalType": "address",
					"name": "stakerAddr",
					"type": "address"
				},
				{
					"indexed": true,
					"internalType": "uint40",
					"name": "stakeId",
					"type": "uint40"
				}
			],
			"name": "StakeEnd",
			"type": "event"
		},
		{
			"anonymous": false,
			"inputs": [
				{
					"indexed": false,
					"internalType": "uint256",
					"name": "data0",
					"type": "uint256"
				},
				{
					"indexed": false,
					"internalType": "uint256",
					"name": "data1",
					"type": "uint256"
				},
				{
					"indexed": true,
					"internalType": "address",
					"name": "stakerAddr",
					"type": "address"
				},
				{
					"indexed": true,
					"internalType": "uint40",
					"name": "stakeId",
					"type": "uint40"
				},
				{
					"indexed": true,
					"internalType": "address",
					"name": "senderAddr",
					"type": "address"
				}
			],
			"name": "StakeGoodAccounting",
			"type": "event"
		},
		{
			"anonymous": false,
			"inputs": [
				{
					"indexed": false,
					"internalType": "uint256",
					"name": "data0",
					"type": "uint256"
				},
				{
					"indexed": true,
					"internalType": "address",
					"name": "stakerAddr",
					"type": "address"
				},
				{
					"indexed": true,
					"internalType": "uint40",
					"name": "stakeId",
					"type": "uint40"
				}
			],
			"name": "StakeStart",
			"type": "event"
		},
		{
			"anonymous": false,
			"inputs": [
				{
					"indexed": true,
					"internalType": "address",
					"name": "from",
					"type": "address"
				},
				{
					"indexed": true,
					"internalType": "address",
					"name": "to",
					"type": "address"
				},
				{
					"indexed": false,
					"internalType": "uint256",
					"name": "value",
					"type": "uint256"
				}
			],
			"name": "Transfer",
			"type": "event"
		},
		{
			"anonymous": false,
			"inputs": [
				{
					"indexed": false,
					"internalType": "uint256",
					"name": "data0",
					"type": "uint256"
				},
				{
					"indexed": true,
					"internalType": "address",
					"name": "memberAddr",
					"type": "address"
				},
				{
					"indexed": true,
					"internalType": "uint256",
					"name": "entryId",
					"type": "uint256"
				},
				{
					"indexed": true,
					"internalType": "address",
					"name": "referrerAddr",
					"type": "address"
				}
			],
			"name": "XfLobbyEnter",
			"type": "event"
		},
		{
			"anonymous": false,
			"inputs": [
				{
					"indexed": false,
					"internalType": "uint256",
					"name": "data0",
					"type": "uint256"
				},
				{
					"indexed": true,
					"internalType": "address",
					"name": "memberAddr",
					"type": "address"
				},
				{
					"indexed": true,
					"internalType": "uint256",
					"name": "entryId",
					"type": "uint256"
				},
				{
					"indexed": true,
					"internalType": "address",
					"name": "referrerAddr",
					"type": "address"
				}
			],
			"name": "XfLobbyExit",
			"type": "event"
		},
		{
			"inputs": [],
			"name": "CLAIM_PHASE_DAYS",
			"outputs": [
				{
					"internalType": "uint256",
					"name": "",
					"type": "uint256"
				}
			],
			"stateMutability": "view",
			"type": "function"
		},
		{
			"inputs": [],
			"name": "FLUSH_ADDR",
			"outputs": [
				{
					"internalType": "address payable",
					"name": "",
					"type": "address"
				}
			],
			"stateMutability": "view",
			"type": "function"
		},
		{
			"inputs": [],
			"name": "HEARTS_PER_SATOSHI",
			"outputs": [
				{
					"internalType": "uint256",
					"name": "",
					"type": "uint256"
				}
			],
			"stateMutability": "view",
			"type": "function"
		},
		{
			"inputs": [],
			"name": "allocatedSupply",
			"outputs": [
				{
					"internalType": "uint256",
					"name": "",
					"type": "uint256"
				}
			],
			"stateMutability": "view",
			"type": "function"
		},
		{
			"inputs": [
				{
					"internalType": "address",
					"name": "owner",
					"type": "address"
				},
				{
					"internalType": "address",
					"name": "spender",
					"type": "address"
				}
			],
			"name": "allowance",
			"outputs": [
				{
					"internalType": "uint256",
					"name": "",
					"type": "uint256"
				}
			],
			"stateMutability": "view",
			"type": "function"
		},
		{
			"inputs": [
				{
					"internalType": "address",
					"name": "spender",
					"type": "address"
				},
				{
					"internalType": "uint256",
					"name": "amount",
					"type": "uint256"
				}
			],
			"name": "approve",
			"outputs": [
				{
					"internalType": "bool",
					"name": "",
					"type": "bool"
				}
			],
			"stateMutability": "nonpayable",
			"type": "function"
		},
		{
			"inputs": [
				{
					"internalType": "address",
					"name": "account",
					"type": "address"
				}
			],
			"name": "balanceOf",
			"outputs": [
				{
					"internalType": "uint256",
					"name": "",
					"type": "uint256"
				}
			],
			"stateMutability": "view",
			"type": "function"
		},
		{
			"inputs": [
				{
					"internalType": "bytes20",
					"name": "",
					"type": "bytes20"
				}
			],
			"name": "btcAddressClaims",
			"outputs": [
				{
					"internalType": "bool",
					"name": "",
					"type": "bool"
				}
			],
			"stateMutability": "view",
			"type": "function"
		},
		{
			"inputs": [],
			"name": "contractOwner",
			"outputs": [
				{
					"internalType": "address",
					"name": "",
					"type": "address"
				}
			],
			"stateMutability": "view",
			"type": "function"
		},
		{
			"inputs": [],
			"name": "currentDay",
			"outputs": [
				{
					"internalType": "uint256",
					"name": "",
					"type": "uint256"
				}
			],
			"stateMutability": "view",
			"type": "function"
		},
		{
			"inputs": [
				{
					"internalType": "uint256",
					"name": "",
					"type": "uint256"
				}
			],
			"name": "dailyData",
			"outputs": [
				{
					"internalType": "uint72",
					"name": "dayPayoutTotal",
					"type": "uint72"
				},
				{
					"internalType": "uint72",
					"name": "dayStakeSharesTotal",
					"type": "uint72"
				},
				{
					"internalType": "uint56",
					"name": "dayUnclaimedSatoshisTotal",
					"type": "uint56"
				}
			],
			"stateMutability": "view",
			"type": "function"
		},
		{
			"inputs": [
				{
					"internalType": "uint256",
					"name": "beginDay",
					"type": "uint256"
				},
				{
					"internalType": "uint256",
					"name": "endDay",
					"type": "uint256"
				}
			],
			"name": "dailyDataRange",
			"outputs": [
				{
					"internalType": "uint256[]",
					"name": "list",
					"type": "uint256[]"
				}
			],
			"stateMutability": "view",
			"type": "function"
		},
		{
			"inputs": [
				{
					"internalType": "uint256",
					"name": "beforeDay",
					"type": "uint256"
				}
			],
			"name": "dailyDataUpdate",
			"outputs": [],
			"stateMutability": "nonpayable",
			"type": "function"
		},
		{
			"inputs": [],
			"name": "decimals",
			"outputs": [
				{
					"internalType": "uint8",
					"name": "",
					"type": "uint8"
				}
			],
			"stateMutability": "view",
			"type": "function"
		},
		{
			"inputs": [
				{
					"internalType": "address",
					"name": "spender",
					"type": "address"
				},
				{
					"internalType": "uint256",
					"name": "subtractedValue",
					"type": "uint256"
				}
			],
			"name": "decreaseAllowance",
			"outputs": [
				{
					"internalType": "bool",
					"name": "",
					"type": "bool"
				}
			],
			"stateMutability": "nonpayable",
			"type": "function"
		},
		{
			"inputs": [
				{
					"components": [
						{
							"internalType": "uint256",
							"name": "_lockedHeartsTotal",
							"type": "uint256"
						},
						{
							"internalType": "uint256",
							"name": "_nextStakeSharesTotal",
							"type": "uint256"
						},
						{
							"internalType": "uint256",
							"name": "_shareRate",
							"type": "uint256"
						},
						{
							"internalType": "uint256",
							"name": "_stakePenaltyTotal",
							"type": "uint256"
						},
						{
							"internalType": "uint256",
							"name": "_dailyDataCount",
							"type": "uint256"
						},
						{
							"internalType": "uint256",
							"name": "_stakeSharesTotal",
							"type": "uint256"
						},
						{
							"internalType": "uint40",
							"name": "_latestStakeId",
							"type": "uint40"
						},
						{
							"internalType": "uint256",
							"name": "_unclaimedSatoshisTotal",
							"type": "uint256"
						},
						{
							"internalType": "uint256",
							"name": "_claimedSatoshisTotal",
							"type": "uint256"
						},
						{
							"internalType": "uint256",
							"name": "_claimedBtcAddrCount",
							"type": "uint256"
						},
						{
							"internalType": "uint256",
							"name": "_currentDay",
							"type": "uint256"
						}
					],
					"internalType": "struct IGlobals.GlobalsCache",
					"name": "g",
					"type": "tuple"
				},
				{
					"components": [
						{
							"internalType": "uint256",
							"name": "_lockedHeartsTotal",
							"type": "uint256"
						},
						{
							"internalType": "uint256",
							"name": "_nextStakeSharesTotal",
							"type": "uint256"
						},
						{
							"internalType": "uint256",
							"name": "_shareRate",
							"type": "uint256"
						},
						{
							"internalType": "uint256",
							"name": "_stakePenaltyTotal",
							"type": "uint256"
						},
						{
							"internalType": "uint256",
							"name": "_dailyDataCount",
							"type": "uint256"
						},
						{
							"internalType": "uint256",
							"name": "_stakeSharesTotal",
							"type": "uint256"
						},
						{
							"internalType": "uint40",
							"name": "_latestStakeId",
							"type": "uint40"
						},
						{
							"internalType": "uint256",
							"name": "_unclaimedSatoshisTotal",
							"type": "uint256"
						},
						{
							"internalType": "uint256",
							"name": "_claimedSatoshisTotal",
							"type": "uint256"
						},
						{
							"internalType": "uint256",
							"name": "_claimedBtcAddrCount",
							"type": "uint256"
						},
						{
							"internalType": "uint256",
							"name": "_currentDay",
							"type": "uint256"
						}
					],
					"internalType": "struct IGlobals.GlobalsCache",
					"name": "gSnapshot",
					"type": "tuple"
				}
			],
			"name": "getGlobalsLoad",
			"outputs": [],
			"stateMutability": "view",
			"type": "function"
		},
		{
			"inputs": [],
			"name": "getTreasureBoxAddress",
			"outputs": [
				{
					"internalType": "address",
					"name": "",
					"type": "address"
				}
			],
			"stateMutability": "view",
			"type": "function"
		},
		{
			"inputs": [],
			"name": "globalInfo",
			"outputs": [
				{
					"internalType": "uint256[13]",
					"name": "",
					"type": "uint256[13]"
				}
			],
			"stateMutability": "view",
			"type": "function"
		},
		{
			"inputs": [],
			"name": "globals",
			"outputs": [
				{
					"internalType": "uint72",
					"name": "lockedHeartsTotal",
					"type": "uint72"
				},
				{
					"internalType": "uint72",
					"name": "nextStakeSharesTotal",
					"type": "uint72"
				},
				{
					"internalType": "uint40",
					"name": "shareRate",
					"type": "uint40"
				},
				{
					"internalType": "uint72",
					"name": "stakePenaltyTotal",
					"type": "uint72"
				},
				{
					"internalType": "uint16",
					"name": "dailyDataCount",
					"type": "uint16"
				},
				{
					"internalType": "uint72",
					"name": "stakeSharesTotal",
					"type": "uint72"
				},
				{
					"internalType": "uint40",
					"name": "latestStakeId",
					"type": "uint40"
				},
				{
					"internalType": "uint128",
					"name": "claimStats",
					"type": "uint128"
				}
			],
			"stateMutability": "view",
			"type": "function"
		},
		{
			"inputs": [
				{
					"internalType": "address",
					"name": "spender",
					"type": "address"
				},
				{
					"internalType": "uint256",
					"name": "addedValue",
					"type": "uint256"
				}
			],
			"name": "increaseAllowance",
			"outputs": [
				{
					"internalType": "bool",
					"name": "",
					"type": "bool"
				}
			],
			"stateMutability": "nonpayable",
			"type": "function"
		},
		{
			"inputs": [
				{
					"internalType": "address",
					"name": "_receiver",
					"type": "address"
				},
				{
					"internalType": "uint256",
					"name": "_amount",
					"type": "uint256"
				},
				{
					"internalType": "address",
					"name": "_contractAddress",
					"type": "address"
				}
			],
			"name": "mint",
			"outputs": [],
			"stateMutability": "nonpayable",
			"type": "function"
		},
		{
			"inputs": [],
			"name": "name",
			"outputs": [
				{
					"internalType": "string",
					"name": "",
					"type": "string"
				}
			],
			"stateMutability": "view",
			"type": "function"
		},
		{
			"inputs": [
				{
					"internalType": "address",
					"name": "_treasureBoxAddress",
					"type": "address"
				}
			],
			"name": "setTreasureBoxAddress",
			"outputs": [],
			"stateMutability": "nonpayable",
			"type": "function"
		},
		{
			"inputs": [
				{
					"internalType": "address",
					"name": "",
					"type": "address"
				},
				{
					"internalType": "uint256",
					"name": "",
					"type": "uint256"
				}
			],
			"name": "stakeLists",
			"outputs": [
				{
					"internalType": "uint40",
					"name": "stakeId",
					"type": "uint40"
				},
				{
					"internalType": "uint72",
					"name": "stakedHearts",
					"type": "uint72"
				},
				{
					"internalType": "uint72",
					"name": "stakeShares",
					"type": "uint72"
				},
				{
					"internalType": "uint16",
					"name": "lockedDay",
					"type": "uint16"
				},
				{
					"internalType": "uint16",
					"name": "stakedDays",
					"type": "uint16"
				},
				{
					"internalType": "uint16",
					"name": "unlockedDay",
					"type": "uint16"
				},
				{
					"internalType": "bool",
					"name": "isAutoStake",
					"type": "bool"
				}
			],
			"stateMutability": "view",
			"type": "function"
		},
		{
			"inputs": [],
			"name": "symbol",
			"outputs": [
				{
					"internalType": "string",
					"name": "",
					"type": "string"
				}
			],
			"stateMutability": "view",
			"type": "function"
		},
		{
			"inputs": [],
			"name": "totalSupply",
			"outputs": [
				{
					"internalType": "uint256",
					"name": "",
					"type": "uint256"
				}
			],
			"stateMutability": "view",
			"type": "function"
		},
		{
			"inputs": [
				{
					"internalType": "address",
					"name": "to",
					"type": "address"
				},
				{
					"internalType": "uint256",
					"name": "amount",
					"type": "uint256"
				}
			],
			"name": "transfer",
			"outputs": [
				{
					"internalType": "bool",
					"name": "",
					"type": "bool"
				}
			],
			"stateMutability": "nonpayable",
			"type": "function"
		},
		{
			"inputs": [
				{
					"internalType": "address",
					"name": "from",
					"type": "address"
				},
				{
					"internalType": "address",
					"name": "to",
					"type": "address"
				},
				{
					"internalType": "uint256",
					"name": "amount",
					"type": "uint256"
				}
			],
			"name": "transferFrom",
			"outputs": [
				{
					"internalType": "bool",
					"name": "",
					"type": "bool"
				}
			],
			"stateMutability": "nonpayable",
			"type": "function"
		},
		{
			"inputs": [],
			"name": "treasureBoxAddress",
			"outputs": [
				{
					"internalType": "address",
					"name": "",
					"type": "address"
				}
			],
			"stateMutability": "view",
			"type": "function"
		},
		{
			"inputs": [
				{
					"internalType": "uint256",
					"name": "",
					"type": "uint256"
				}
			],
			"name": "xfLobby",
			"outputs": [
				{
					"internalType": "uint256",
					"name": "",
					"type": "uint256"
				}
			],
			"stateMutability": "view",
			"type": "function"
		},
		{
			"inputs": [
				{
					"internalType": "uint256",
					"name": "",
					"type": "uint256"
				},
				{
					"internalType": "address",
					"name": "",
					"type": "address"
				}
			],
			"name": "xfLobbyMembers",
			"outputs": [
				{
					"internalType": "uint40",
					"name": "headIndex",
					"type": "uint40"
				},
				{
					"internalType": "uint40",
					"name": "tailIndex",
					"type": "uint40"
				}
			],
			"stateMutability": "view",
			"type": "function"
		}
	]
}