{
	"data": {
		"bytecode": {
			"linkReferences": {},
			"object": "60a06040523480156200001157600080fd5b5060405180604001604052806007815260200166135e5b9d1a5cdd60ca1b815250604051806040016040528060048152602001631356539560e21b8152508160039081620000609190620001be565b5060046200006f8282620001be565b5050336080525062000086620186a060016200028a565b6006805464ffffffffff92909216600160901b0264ffffffffff60901b199092169190911790556007805461ffff19166001179055620000d060008066066c277de83e9c620000f3565b600780546001600160801b03928316600160801b029216919091179055620002b6565b60008062000104603360026200028a565b9490941b60339390931b929092171792915050565b634e487b7160e01b600052604160045260246000fd5b600181811c908216806200014457607f821691505b6020821081036200016557634e487b7160e01b600052602260045260246000fd5b50919050565b601f821115620001b957600081815260208120601f850160051c81016020861015620001945750805b601f850160051c820191505b81811015620001b557828155600101620001a0565b5050505b505050565b81516001600160401b03811115620001da57620001da62000119565b620001f281620001eb84546200012f565b846200016b565b602080601f8311600181146200022a5760008415620002115750858301515b600019600386901b1c1916600185901b178555620001b5565b600085815260208120601f198616915b828110156200025b578886015182559484019460019091019084016200023a565b50858210156200027a5787850151600019600388901b60f8161c191681555b5050505050600190811b01905550565b8082028115828204841417620002b057634e487b7160e01b600052601160045260246000fd5b92915050565b608051615f72620002e060003960008181610ac001528181610cbf0152611a460152615f726000f3fe6080604052600436106102cd5760003560e01c80636a210a0e11610175578063a457c2d7116100dc578063ce606ee011610095578063dd62ed3e1161006f578063dd62ed3e14610b15578063ec9a191714610b35578063f04b5fa014610b55578063f57a1b3c14610b7757600080fd5b8063ce606ee014610aae578063ce7d1f7714610ae2578063d5a373ff14610af557600080fd5b8063a457c2d71461091c578063a9059cbb1461093c578063b626d6fc1461095c578063bd926ed31461097c578063c3124525146109b9578063cbb151d314610a8e57600080fd5b80638e21aa011161012e5780638e21aa01146108045780638f1c65c01461082457806390de68711461084457806395d89b41146108c757806396f62b9d146108dc578063a042b1b6146108fc57600080fd5b80636a210a0e1461070457806370a08231146107315780637c4266201461076757806387a0f31c146107975780638c84a47b146107c45780638cba2842146107e457600080fd5b8063313ce567116102345780633a70a5ca116101ed57806352a438b8116101c757806352a438b81461068f5780635c9302c9146106af57806365cf71b2146106c457806365d2a557146106e457600080fd5b80633a70a5ca146105e557806344203faf146105fa57806344f0de751461066257600080fd5b8063313ce56714610520578063319e74f61461053c57806333060d9014610551578063343009a21461058757806334dc8bb5146105a757806339509351146105c557600080fd5b806318160ddd1161028657806318160ddd146103d957806323b872dd146103ee5780632607443b1461040e57806327aa601814610480578063283a5baf146104a057806330c1a785146104d957600080fd5b806306fdde03146102d9578063095ea7b3146103045780630d4d151314610334578063112beab5146103565780631285b0471461037657806313c5c2c71461039957600080fd5b366102d457005b600080fd5b3480156102e557600080fd5b506102ee610b97565b6040516102fb919061553a565b60405180910390f35b34801561031057600080fd5b5061032461031f366004615564565b610c29565b60405190151581526020016102fb565b34801561034057600080fd5b5061035461034f36600461558e565b610c43565b005b34801561036257600080fd5b50610354610371366004615564565b610cb4565b34801561038257600080fd5b5061038b610d33565b6040519081526020016102fb565b3480156103a557600080fd5b506103c173dec9f2793e3c17cd26eefb21c4762fa5128e039981565b6040516001600160a01b0390911681526020016102fb565b3480156103e557600080fd5b5060025461038b565b3480156103fa57600080fd5b506103246104093660046155ca565b610d5e565b34801561041a57600080fd5b5061042e610429366004615564565b610d84565b6040805164ffffffffff9890981688526001600160481b039687166020890152949095169386019390935261ffff9182166060860152811660808501521660a0830152151560c082015260e0016102fb565b34801561048c57600080fd5b5061032461049b36600461564b565b610e00565b3480156104ac57600080fd5b506104c06104bb3660046156a8565b610e47565b6040516001600160601b031990911681526020016102fb565b3480156104e557600080fd5b506103c16104f43660046156d4565b604080516020808201949094528082019290925280518083038201815260609092019052805191012090565b34801561052c57600080fd5b50604051600881526020016102fb565b34801561054857600080fd5b5061038b610ff8565b34801561055d57600080fd5b5061038b61056c3660046156f6565b6001600160a01b03166000908152600a602052604090205490565b34801561059357600080fd5b506103546105a2366004615726565b611004565b3480156105b357600080fd5b506005546001600160a01b03166103c1565b3480156105d157600080fd5b506103246105e0366004615564565b6112dc565b3480156105f157600080fd5b5061038b6112fe565b34801561060657600080fd5b50610644610615366004615752565b600c60209081526000928352604080842090915290825290205464ffffffffff80821691600160281b90041682565b6040805164ffffffffff9384168152929091166020830152016102fb565b34801561066e57600080fd5b5061068261067d3660046156f6565b611325565b6040516102fb9190615775565b34801561069b57600080fd5b506103546106aa3660046156d4565b6113fe565b3480156106bb57600080fd5b5061038b6114a8565b3480156106d057600080fd5b506103546106df36600461579d565b6114b2565b3480156106f057600080fd5b506103546106ff3660046158b6565b6117be565b34801561071057600080fd5b5061072461071f3660046156d4565b6117c8565b6040516102fb91906158e4565b34801561073d57600080fd5b5061038b61074c3660046156f6565b6001600160a01b031660009081526020819052604090205490565b34801561077357600080fd5b50610324610782366004615940565b60086020526000908152604090205460ff1681565b3480156107a357600080fd5b5061038b6107b236600461595b565b600b6020526000908152604090205481565b3480156107d057600080fd5b5061038b6107df36600461595b565b611913565b3480156107f057600080fd5b506103546107ff3660046156f6565b611a3b565b34801561081057600080fd5b5061032461081f366004615974565b611ac5565b34801561083057600080fd5b5061035461083f36600461595b565b611bcc565b34801561085057600080fd5b5061089861085f36600461595b565b6009602052600090815260409020546001600160481b0380821691600160481b810490911690600160901b900466ffffffffffffff1683565b604080516001600160481b03948516815293909216602084015266ffffffffffffff16908201526060016102fb565b3480156108d357600080fd5b506102ee611cc4565b3480156108e857600080fd5b5061038b6108f73660046159ce565b611cd3565b34801561090857600080fd5b5061038b6109173660046156d4565b611fb9565b34801561092857600080fd5b50610324610937366004615564565b61206c565b34801561094857600080fd5b50610324610957366004615564565b6120f2565b34801561096857600080fd5b506005546103c1906001600160a01b031681565b34801561098857600080fd5b5061099c610997366004615564565b612100565b604080519283526001600160a01b039091166020830152016102fb565b3480156109c557600080fd5b50600654600754610a2c916001600160481b0380821692600160481b830482169264ffffffffff600160901b8204811693600160b81b90920482169261ffff8116926201000082041691600160581b820416906001600160801b03600160801b9091041688565b604080516001600160481b03998a168152978916602089015264ffffffffff96871690880152938716606087015261ffff90921660808601529490941660a0840152921660c08201526001600160801b0390911660e0820152610100016102fb565b348015610a9a57600080fd5b50610354610aa93660046156d4565b6121c6565b348015610aba57600080fd5b506103c17f000000000000000000000000000000000000000000000000000000000000000081565b610354610af03660046156f6565b6124d3565b348015610b0157600080fd5b50610324610b10366004615a91565b61266f565b348015610b2157600080fd5b5061038b610b30366004615b05565b612789565b348015610b4157600080fd5b50610324610b50366004615974565b6127b4565b348015610b6157600080fd5b50610b6a6127fd565b6040516102fb9190615b2f565b348015610b8357600080fd5b50610724610b923660046156d4565b6128ff565b606060038054610ba690615b58565b80601f0160208091040260200160405190810160405280929190818152602001828054610bd290615b58565b8015610c1f5780601f10610bf457610100808354040283529160200191610c1f565b820191906000526020600020905b815481529060010190602001808311610c0257829003601f168201915b5050505050905090565b600033610c37818585612a25565b60019150505b92915050565b6005546001600160a01b03828116911614610ca55760405162461bcd60e51b815260206004820152601960248201527f43616c6c6572206973206e6f7420544220636f6e74726163740000000000000060448201526064015b60405180910390fd5b610caf8383612b49565b505050565b336001600160a01b037f00000000000000000000000000000000000000000000000000000000000000001614610d255760405162461bcd60e51b81526020600482015260166024820152752737ba103a34329031b7b73a3930b1ba1037bbb732b960511b6044820152606401610c9c565b610d2f8282612b49565b5050565b6127106305f5e100610d476008600a615c86565b610d519190615c92565b610d5b9190615cb4565b81565b600033610d6c858285612c08565b610d77858585612c7c565b60019150505b9392505050565b600a6020528160005260406000208181548110610da057600080fd5b60009182526020909120015464ffffffffff811692506001600160481b03600160281b820481169250600160701b8204169061ffff600160b81b8204811691600160c81b8104821691600160d81b8204169060ff600160e81b9091041687565b6000610e3f84848480806020026020016040519081016040528093929190818152602001838360200280828437600092019190915250612e2092505050565b949350505050565b600080606060028416158015906004861615159060088716151590610f0c57818015610e705750805b15610eb85760405162461bcd60e51b8152602060048201526018602482015277135653950e8818db185a5b519b1859dcc81a5b9d985b1a5960421b6044820152606401610c9c565b600160f81b60f889901b1615610ecf576003610ed2565b60025b6040516001600160f81b031960f883901b166020820152602181018b90529095506041016040516020818303038152906040529350610f93565b81158015610f18575080155b610f5f5760405162461bcd60e51b8152602060048201526018602482015277135653950e8818db185a5b519b1859dcc81a5b9d985b1a5960421b6044820152606401610c9c565b604051600160fa1b6020820152602181018a9052604181018990526004955060610160405160208183030381529060405293505b6000610f9e85612e4d565b90508215610feb57604051600560f21b60208201526001600160601b031982166022820152610fde90603601604051602081830303815290604052612e4d565b9650505050505050610d7d565b9998505050505050505050565b610d5b60326007615cb4565b61100c615406565b611014615406565b61101e8282612efa565b336000908152600a6020526040812080549091036110775760405162461bcd60e51b8152602060048201526016602482015275135653950e88115b5c1d1e481cdd185ad9481b1a5cdd60521b6044820152606401610c9c565b805485106110c25760405162461bcd60e51b8152602060048201526018602482015277135653950e881cdd185ad9525b99195e081a5b9d985b1a5960421b6044820152606401610c9c565b6110ca615467565b6110f08287815481106110df576110df615ccb565b906000526020600020018683612fa8565b6110f984613076565b6000808260a001516000141590506000806000905060008086606001518a6101400151106111e257841561113357866080015195506111c8565b61113d8a8861308a565b86606001518a61014001516111529190615ce1565b9550866080015186111561116c57866080015195506111c8565b61015e8610156111c8578660c00151156111c85760405162461bcd60e51b815260206004820152601d60248201527f4d594e543a204175746f2d7374616b65207374696c6c206c6f636b65640000006044820152606401610c9c565b6111d38a88886130b2565b92965090945092509050611255565b8660c00151156112345760405162461bcd60e51b815260206004820152601d60248201527f4d594e543a204175746f2d7374616b65207374696c6c206c6f636b65640000006044820152606401610c9c565b86604001518a60200181815161124a9190615ce1565b905250602087015193505b61126c8b8860200151896040015186868b8b613176565b8015801590611279575084155b15611288576112888a82613236565b83156112a3576112983385612b49565b6112a38a888661328f565b60208701518a518b906112b7908390615ce1565b9052506112c4888d613322565b6112ce8a8a6134b7565b505050505050505050505050565b600033610c378185856112ef8383612789565b6112f99190615cf4565b612a25565b6006546000906001600160481b031661131660025490565b6113209190615cf4565b905090565b61132d6154ad565b6000611337613697565b611342906001615cf4565b905061135060326007615cb4565b61135b906001615cf4565b81111561137c5761136e60326007615cb4565b611379906001615cf4565b90505b80156113f8576000818152600c602090815260408083206001600160a01b038716845290915290205464ffffffffff808216600160281b9092041611156113e657600160ff82161b82600883901c600281106113da576113da615ccb565b60200201805190911790525b806113f081615d07565b91505061137c565b50919050565b611406615406565b61140e615406565b6114188282612efa565b60018310156114785760405162461bcd60e51b815260206004820152602660248201527f4d594e543a206e65775374616b656444617973206c6f776572207468616e206d604482015265696e696d756d60d01b6064820152608401610c9c565b61148182613076565b61148e82858560006136b3565b6114983385613988565b6114a282826134b7565b50505050565b6000611320613697565b6114ba615406565b6114c2615406565b6114cc8282612efa565b6001600160a01b0385166000908152600a6020526040812054900361152c5760405162461bcd60e51b8152602060048201526016602482015275135653950e88115b5c1d1e481cdd185ad9481b1a5cdd60521b6044820152606401610c9c565b6001600160a01b0385166000908152600a6020526040902054841061158e5760405162461bcd60e51b8152602060048201526018602482015277135653950e881cdd185ad9525b99195e081a5b9d985b1a5960421b6044820152606401610c9c565b6001600160a01b0385166000908152600a602052604081208054869081106115b8576115b8615ccb565b9060005260206000200190506115cc615467565b6115d7828683612fa8565b806080015181606001516115eb9190615cf4565b846101400151101561163f5760405162461bcd60e51b815260206004820152601c60248201527f4d594e543a205374616b65206e6f742066756c6c7920736572766564000000006044820152606401610c9c565b60a0810151156116915760405162461bcd60e51b815260206004820152601c60248201527f4d594e543a205374616b6520616c726561647920756e6c6f636b6564000000006044820152606401610c9c565b61169a84613076565b6116a4848261308a565b60008060006116b8878586608001516130b2565b935093509350506116d58a89866020015187604001518787613aba565b80156116e5576116e58782613236565b83518554602086015160408701516060880151608089015160a08a015160c08b015164ffffffffff9097166001600160701b031990961695909517600160281b6001600160481b039586160217600160701b600160c81b031916600160701b949093169390930261ffff60b81b191691909117600160b81b61ffff928316021763ffffffff60c81b1916600160c81b9282169290920261ffff60d81b191691909117600160d81b91909216021760ff60e81b1916600160e81b911515919091021785556117b287876134b7565b50505050505050505050565b610d2f8282612efa565b606081831080156117df575060075461ffff168211155b6118215760405162461bcd60e51b8152602060048201526013602482015272135653950e881c985b99d9481a5b9d985b1a59606a1b6044820152606401610c9c565b61182b8383615ce1565b67ffffffffffffffff811115611843576118436157d0565b60405190808252806020026020018201604052801561186c578160200160208202803683370190505b509050826000805b61188060486002615cb4565b600084815260096020526040902054600160901b810466ffffffffffffff1690911b600160481b820460481b71ffffffffffffffffff00000000000000000016176001600160481b039091161790508084836118db81615d1e565b9450815181106118ed576118ed615ccb565b60209081029190910101528461190284615d1e565b935083106118745750505092915050565b600060018210611a1957611925615406565b61192d615406565b6119378282612efa565b61194082613076565b600084815260096020908152604091829020548251808401909352600b83526a03ab731b630b4b6b2b21d160ad1b91830191909152600160901b900466ffffffffffffff16906119909082613b57565b61199c60326007615cb4565b6127106305f5e1006119b06008600a615c86565b6119ba9190615c92565b6119c49190615cb4565b6119ce9083615cb4565b6119d89190615c92565b9350611a076040518060400160405280600b81526020016a03bb0b0b9a637b1313c9d160ad1b81525085613b57565b611a1183836134b7565b505050919050565b611a256008600a615c86565b611a3390633b9aca00615cb4565b90505b919050565b336001600160a01b037f00000000000000000000000000000000000000000000000000000000000000001614611aa35760405162461bcd60e51b815260206004820152600d60248201526c2737ba103a34329027bbb732b960991b6044820152606401610c9c565b600580546001600160a01b0319166001600160a01b0392909216919091179055565b600080611ad0613697565b90506001811015611af35760405162461bcd60e51b8152600401610c9c90615d37565b611aff60326007615cb4565b611b0a906001615cf4565b8110611b585760405162461bcd60e51b815260206004820152601b60248201527f4d594e543a20436c61696d2070686173652068617320656e64656400000000006044820152606401610c9c565b6001600160601b0319861660009081526008602052604090205460ff1615611b84576000915050610e3f565b611bc28686868680806020026020016040519081016040528093929190818152602001838360200280828437600092019190915250613b9c92505050565b9695505050505050565b611bd4615406565b611bdc615406565b611be68282612efa565b600182610140015111611c2d5760405162461bcd60e51b815260206004820152600f60248201526e4d594e543a20546f6f206561726c7960881b6044820152606401610c9c565b8215611ca957816101400151831115611c985760405162461bcd60e51b815260206004820152602760248201527f4d594e543a206265666f72654461792063616e6e6f7420626520696e207468656044820152662066757475726560c81b6064820152608401610c9c565b611ca482846000613cd9565b611cba565b611cba828361014001516000613cd9565b610caf82826134b7565b606060048054610ba690615b58565b600065173cdf6f6e318d1115611d245760405162461bcd60e51b81526020600482015260166024820152754d594e543a2043484b3a207261775361746f7368697360501b6044820152606401610c9c565b61015e831015611d855760405162461bcd60e51b815260206004820152602660248201527f4d594e543a206175746f5374616b6544617973206c6f776572207468616e206d604482015265696e696d756d60d01b6064820152608401610c9c565b60006001600160a01b038b163314611df657604080517f4e831acb4223b66de3b3d2e54a2edeefb0de3d7916e2886a4b134d9764d41bec6020820152908101859052606084811b6001600160601b031916908201526074016040516020818303038152906040528051906020012090505b611e068b828c8c8c8c8c8c61266f565b611e525760405162461bcd60e51b815260206004820152601860248201527f4d594e543a205369676e6174757265206d69736d6174636800000000000000006044820152606401610c9c565b506000611e608a8a8a610e47565b6001600160601b0319811660009081526008602052604090205490915060ff1615611edf5760405162461bcd60e51b815260206004820152602960248201527f4d594e543a2042544320616464726573732062616c616e636520616c726561646044820152681e4818db185a5b595960ba1b6064820152608401610c9c565b611f1d818f8f8f80806020026020016040519081016040528093929190818152602001838360200280828437600092019190915250613b9c92505050565b611f755760405162461bcd60e51b8152602060048201526024808201527f4d594e543a204254432061646472657373206f722062616c616e636520756e6b6044820152633737bbb760e11b6064820152608401610c9c565b6001600160601b031981166000908152600860205260409020805460ff19166001179055611fa78e8c838b8888613dbe565b9e9d5050505050505050505050505050565b6000600160801b831061200e5760405162461bcd60e51b815260206004820152601960248201527f656e7465724461792065786365656473203132382062697473000000000000006044820152606401610c9c565b600160281b82106120615760405162461bcd60e51b815260206004820152601a60248201527f656e747279496e646578206578636565647320343020626974730000000000006044820152606401610c9c565b5060289190911b1790565b6000338161207a8286612789565b9050838110156120da5760405162461bcd60e51b815260206004820152602560248201527f45524332303a2064656372656173656420616c6c6f77616e63652062656c6f77604482015264207a65726f60d81b6064820152608401610c9c565b6120e78286868403612a25565b506001949350505050565b600033610c37818585612c7c565b600080602883901c816121186001600160281b615ce1565b6000838152600c602090815260408083206001600160a01b038b1684528252808320938916808452600190940190915281208054929350916001600160601b0316900361219d5760405162461bcd60e51b8152602060048201526013602482015272135653950e8814185c985b481a5b9d985b1a59606a1b6044820152606401610c9c565b546001600160601b0381169450600160601b90046001600160a01b0316925050505b9250929050565b6121ce613697565b821061221c5760405162461bcd60e51b815260206004820152601b60248201527f4d594e543a20526f756e64206973206e6f7420636f6d706c65746500000000006044820152606401610c9c565b6000828152600c6020908152604080832033845290915281208054909164ffffffffff9091169083156122ba578254612264908390600160281b900464ffffffffff16615ce1565b8411156122a95760405162461bcd60e51b8152602060048201526013602482015272135653950e8818dbdd5b9d081a5b9d985b1a59606a1b6044820152606401610c9c565b6122b38483615cf4565b9050612310565b508154600160281b900464ffffffffff168082106123105760405162461bcd60e51b8152602060048201526013602482015272135653950e8818dbdd5b9d081a5b9d985b1a59606a1b6044820152606401610c9c565b600061231b86611913565b90506000600b600088815260200190815260200160002054905061236a60405180604001604052806013815260200172032b73a32b92230bc902fbc332637b1313c9d1606d1b81525082613b57565b6000805b600086815260018801602052604081208054908290556001600160601b03811691600160601b9091046001600160a01b031690856123ac8489615cb4565b6123b69190615c92565b90506001600160a01b0382166123d7576123d28c8a8385613e01565b61245d565b60006123e4600a83615c92565b90506123f08183615cf4565b915060006123ff600584615c92565b9050336001600160a01b0385160361242e5761241b8184615cf4565b92506124298e8c8587613e01565b612444565b61243a8e8c8587613e01565b6124448482612b49565b61244e8183615cf4565b6124589087615cf4565b955050505b6124678186615cf4565b9450505050848661247790615d1e565b9650861061236e57865464ffffffffff191664ffffffffff871617875580156124b8576124b8739a6a414d6f3497c05e3b1de90520765fa1e07c0382612b49565b81156124c8576124c83383612b49565b505050505050505050565b60006124dd613697565b90506124eb60326007615cb4565b6124f6906001615cf4565b81106125445760405162461bcd60e51b815260206004820152601860248201527f4d594e543a204c6f6262696573206861766520656e64656400000000000000006044820152606401610c9c565b34600081900361258e5760405162461bcd60e51b8152602060048201526015602482015274135653950e88105b5bdd5b9d081c995c5d5a5c9959605a1b6044820152606401610c9c565b6000828152600c6020908152604080832033845290915281208054909190600160281b900464ffffffffff168260056125c683615d7c565b82546101009290920a64ffffffffff8181021990931691831602179091556040805180820182526001600160601b0387811682526001600160a01b038a8116602080850191825296909516600081815260018a0188528581209451965196909316600160601b969092169590950217909155878152600b9093528220805491935085929091612656908490615cf4565b90915550612668905084828588613e71565b5050505050565b6000601b8460ff16101580156126895750601e8460ff1611155b6126c75760405162461bcd60e51b815260206004820152600f60248201526e135653950e881d881a5b9d985b1a59608a1b6044820152606401610c9c565b6040805160208082018a90528183018990528251808303840181526060909201909252805191012060006127046126ff8c8c8a613ed3565b6140b6565b60408051600081526020810180835283905260ff89169181019190915260608101879052608081018690529091506001600160a01b0383169060019060a0016020604051602081039080840390855afa158015612765573d6000803e3d6000fd5b505050602060405103516001600160a01b0316149250505098975050505050505050565b6001600160a01b03918216600090815260016020908152604080832093909416825291909152205490565b60006127f48585858580806020026020016040519081016040528093929190818152602001838360200280828437600092019190915250613b9c92505050565b95945050505050565b6128056154cb565b6007546000908190819061282890600160801b90046001600160801b0316614175565b604080516101a0810182526006546001600160481b038082168352600160481b82048116602084015264ffffffffff600160901b8304811694840194909452600160b81b9091048116606083015260075461ffff8116608084015262010000810490911660a0830152600160581b900490911660c082015260e081018290526101008101839052610120810184905242610140820152929550909350915061016081016128d460025490565b8152602001600b60006128e5613697565b815260200190815260200160002054815250935050505090565b60608183108015612926575061291760326007615cb4565b612922906001615cf4565b8211155b80156129395750612935613697565b8211155b61297b5760405162461bcd60e51b81526020600482015260136024820152724d594e543a20696e76616c69642072616e676560681b6044820152606401610c9c565b6129858383615ce1565b67ffffffffffffffff81111561299d5761299d6157d0565b6040519080825280602002602001820160405280156129c6578160200160208202803683370190505b5090508260005b600b6000836129db81615d1e565b94508152602001908152602001600020548382806129f890615d1e565b935081518110612a0a57612a0a615ccb565b6020026020010181815250508382106129cd57505092915050565b6001600160a01b038316612a875760405162461bcd60e51b8152602060048201526024808201527f45524332303a20617070726f76652066726f6d20746865207a65726f206164646044820152637265737360e01b6064820152608401610c9c565b6001600160a01b038216612ae85760405162461bcd60e51b815260206004820152602260248201527f45524332303a20617070726f766520746f20746865207a65726f206164647265604482015261737360f01b6064820152608401610c9c565b6001600160a01b0383811660008181526001602090815260408083209487168084529482529182902085905590518481527f8c5be1e5ebec7d5bd14f71427d1e84f3dd0314c0f7b2291e5b200ac8c7c3b925910160405180910390a3505050565b6001600160a01b038216612b9f5760405162461bcd60e51b815260206004820152601f60248201527f45524332303a206d696e7420746f20746865207a65726f2061646472657373006044820152606401610c9c565b8060026000828254612bb19190615cf4565b90915550506001600160a01b038216600081815260208181526040808320805486019055518481527fddf252ad1be2c89b69c2b068fc378daa952ba7f163c4a11628f55a4df523b3ef910160405180910390a35050565b6000612c148484612789565b905060001981146114a25781811015612c6f5760405162461bcd60e51b815260206004820152601d60248201527f45524332303a20696e73756666696369656e7420616c6c6f77616e63650000006044820152606401610c9c565b6114a28484848403612a25565b6001600160a01b038316612ce05760405162461bcd60e51b815260206004820152602560248201527f45524332303a207472616e736665722066726f6d20746865207a65726f206164604482015264647265737360d81b6064820152608401610c9c565b6001600160a01b038216612d425760405162461bcd60e51b815260206004820152602360248201527f45524332303a207472616e7366657220746f20746865207a65726f206164647260448201526265737360e81b6064820152608401610c9c565b6001600160a01b03831660009081526020819052604090205481811015612dba5760405162461bcd60e51b815260206004820152602660248201527f45524332303a207472616e7366657220616d6f756e7420657863656564732062604482015265616c616e636560d01b6064820152608401610c9c565b6001600160a01b03848116600081815260208181526040808320878703905593871680835291849020805487019055925185815290927fddf252ad1be2c89b69c2b068fc378daa952ba7f163c4a11628f55a4df523b3ef910160405180910390a36114a2565b6000610d7d827f4e831acb4223b66de3b3d2e54a2edeefb0de3d7916e2886a4b134d9764d41bec856141e2565b60006003600283604051612e619190615da0565b602060405180830381855afa158015612e7e573d6000803e3d6000fd5b5050506040513d601f19601f82011682018060405250810190612ea19190615dbc565b604051602001612eb391815260200190565b60408051601f1981840301815290829052612ecd91615da0565b602060405180830381855afa158015612eea573d6000803e3d6000fd5b50506040515160601b9392505050565b6006546001600160481b038082168452600160481b82048116602085015264ffffffffff600160901b830481166040860152600160b81b9092048116606085015260075461ffff8116608086015262010000810490911660a0850152600160581b810490911660c0840152612f7f906001600160801b03600160801b90910416614175565b60e0850152610100840152610120830152612f98613697565b610140830152610d2f82826141f8565b825464ffffffffff8381169116146130025760405162461bcd60e51b815260206004820152601f60248201527f4d594e543a207374616b654964506172616d206e6f7420696e207374616b65006044820152606401610c9c565b915464ffffffffff811683526001600160481b03600160281b820481166020850152600160701b820416604084015261ffff600160b81b820481166060850152600160c81b820481166080850152600160d81b82041660a084015260ff600160e81b90910416151560c09092019190915250565b613087818261014001516001613cd9565b50565b80604001518260a0018181516130a09190615ce1565b9052506101409091015160a090910152565b60008060008085608001518510156130f9576130dd8787606001518860800151888a60400151614260565b602088015191945092506130f2908490615cf4565b9350613147565b604086015160608701516131189189916131138982615cf4565b61434e565b925082866020015161312a9190615cf4565b9350613144866060015187608001518860a00151876144ba565b91505b811561316d578382111561315e575060009261316d565b508061316a8185615ce1565b93505b93509350935093565b8664ffffffffff16336001600160a01b03167f72d9c5a7ab13846e08d9c838f9e866a1bb4a66a2fd3ba3c9e7da3cf9e394dfd760b8876001600160481b0316901b6070896001600160481b0316901b60288b6001600160481b0316901b4264ffffffffff16171717846131ea5760006131f0565b600160581b5b6001600160601b031660488761ffff16901b886001600160481b03161717604051613225929190918252602082015260400190565b60405180910390a350505050505050565b6000613243600283615c92565b9050801561326957613269739a6a414d6f3497c05e3b1de90520765fa1e07c0382612b49565b6132738183615ce1565b905080836060018181516132879190615cf4565b905250505050565b8160200151811115610caf5760006132ab82846080015161451a565b905060008360400151620186a083856132c49190615cf4565b6132ce9190615cb4565b6132d89190615c92565b90506132e96001600160281b615ce1565b811115613302576132ff6001600160281b615ce1565b90505b846040015181111561266857604085018190528351612668908290614688565b815460009061333390600190615ce1565b90508082146134805782818154811061334e5761334e615ccb565b9060005260206000200183838154811061336a5761336a615ccb565b6000918252602090912082549101805464ffffffffff19811664ffffffffff909316928317825583546001600160481b03600160281b9182900481169091026001600160701b0319909216909317178082558354600160701b9081900490931690920268ffffffffffffffffff60701b19831681178255835461ffff600160b81b91829004811690910261ffff60b81b19909216600160701b600160c81b031990941693909317178082558354600160c81b9081900484160261ffff60c81b198216811783558454600160d81b9081900490941690930261ffff60d81b1990931663ffffffff60c81b199091161791909117808255915460ff600160e81b918290041615150260ff60e81b199092169190911790555b8280548061349057613490615dd5565b600082815260209020810160001990810180546001600160f01b0319169055019055505050565b805182511415806134d057508060200151826020015114155b806134e357508060400151826040015114155b806134f657508060600151826060015114155b15613579578151600680546020850151604086015160608701516001600160481b03908116600160b81b026001600160b81b0364ffffffffff909316600160901b029290921671ffffffffffffffffffffffffffffffffffff938216600160481b026001600160901b031990951691909616179290921716929092179190911790555b8060800151826080015114158061359857508060a001518260a0015114155b806135b957508060c0015164ffffffffff168260c0015164ffffffffff1614155b806135cc57508060e001518260e0015114155b806135e1575080610100015182610100015114155b806135f6575080610120015182610120015114155b15610d2f5760808201516007805460a085015160c086015164ffffffffff16600160581b0264ffffffffff60581b196001600160481b0390921662010000026affffffffffffffffffffff1990931661ffff90951694909417919091171691909117905561012082015161010083015160e08401516136769291906146e1565b600780546001600160801b03928316600160801b0292169190911790555050565b6000603c6136a96365645b8f42615ce1565b6113209190615c92565b6115b38211156137155760405162461bcd60e51b815260206004820152602760248201527f4d594e543a206e65775374616b65644461797320686967686572207468616e206044820152666d6178696d756d60c81b6064820152608401610c9c565b6000613721848461451a565b905060008560400151620186a0838761373a9190615cf4565b6137449190615cb4565b61374e9190615c92565b9050806000036137c65760405162461bcd60e51b815260206004820152603860248201527f4d594e543a206e65775374616b6564486561727473206d75737420626520617460448201527f206c65617374206d696e696d756d2073686172655261746500000000000000006064820152608401610c9c565b60006001876101400151106137eb576101408701516137e6906001615cf4565b6137f6565b6137f6600180615cf4565b905060008760c001805161380990615d7c565b64ffffffffff1690819052336000908152600a6020526040902090915061394890828986868b8b6040805160e08101825264ffffffffff97881681526001600160481b03968716602080830191825296881692820192835261ffff9586166060830190815294861660808301908152600060a0840181815295151560c085019081528c54600181018e559c8252989020925192909a0180549151935195519a51945197511515600160e81b0260ff60e81b19988816600160d81b0261ffff60d81b19968916600160c81b029690961663ffffffff60c81b199c909816600160b81b0261ffff60b81b19978b16600160701b0297909716600160701b600160c81b031995909a16600160281b026001600160701b031990931693909a16929092171791909116959095179190911795909516179390931792909216179055565b6139558188858989614705565b82886020018181516139679190615cf4565b90525087518790899061397b908390615cf4565b9052505050505050505050565b6001600160a01b0382166139e85760405162461bcd60e51b815260206004820152602160248201527f45524332303a206275726e2066726f6d20746865207a65726f206164647265736044820152607360f81b6064820152608401610c9c565b6001600160a01b03821660009081526020819052604090205481811015613a5c5760405162461bcd60e51b815260206004820152602260248201527f45524332303a206275726e20616d6f756e7420657863656564732062616c616e604482015261636560f01b6064820152608401610c9c565b6001600160a01b0383166000818152602081815260408083208686039055600280548790039055518581529192917fddf252ad1be2c89b69c2b068fc378daa952ba7f163c4a11628f55a4df523b3ef910160405180910390a3505050565b604080514264ffffffffff9081166dffffffffffffffffff0000000000602889901b161768ffffffffffffffffff60701b607088901b16176001600160b81b031960b887901b161782526001600160481b03841660208301523392908816916001600160a01b038a16917fd824970a2cf19cc2b630c87ce5b00f67301cac3ac60513d027c7a39129f93b46910160405180910390a4505050505050565b610d2f8282604051602401613b6d929190615deb565b60408051601f198184030181529190526020810180516001600160e01b0316632d839cb360e21b179052614799565b6000602d6001613bad826060615ce1565b6001901b613bbb9190615ce1565b901b82600081518110613bd057613bd0615ccb565b602002602001015160001c16600014613c215760405162461bcd60e51b8152602060048201526013602482015272135653950e881c1c9bdbd9881a5b9d985b1a59606a1b6044820152606401610c9c565b60015b8251811015613cc157602d6001613c3c826060615ce1565b6001901b613c4a9190615ce1565b901b838281518110613c5e57613c5e615ccb565b602002602001015160001c16600003613caf5760405162461bcd60e51b8152602060048201526013602482015272135653950e881c1c9bdbd9881a5b9d985b1a59606a1b6044820152606401610c9c565b80613cb981615d1e565b915050613c24565b506001600160601b0319841683176127f48184612e20565b81836080015110613ce957505050565b613d0d60405180606001604052806000815260200160008152602001600081525090565b8351600254613d1c9190615cf4565b81526080840151613d2e8583836147a2565b602085015115613d595784602001518560a001818151613d4e9190615cf4565b905250600060208601525b83613d6382615d1e565b9150811015613d7c57613d778583836147a2565b613d59565b613d8b8560800151828561481a565b6080850181905260208201511561266857612668739a6a414d6f3497c05e3b1de90520765fa1e07c038360200151612b49565b6000613dc8615406565b613dd0615406565b613dda8282612efa565b613de9828a8a8a8a8a8a614893565b9250613df582826134b7565b50509695505050505050565b806001600160a01b031683602886901b17336001600160a01b03167fa6b19fa7f41317a186e1d58e9d81f86a52f1102b6bce10b4eca83f37aaa584686028866001600160481b0316901b4264ffffffffff1617604051613e6391815260200190565b60405180910390a450505050565b806001600160a01b031683602886901b17336001600160a01b03167f25ecdb937d5c5cc78f0d18dfb1ac82c44086b5dc608380ba357d06c9868f0b1d6028866001600160601b0316901b4264ffffffffff1617604051613e6391815260200190565b60606000600183168103613f0f576040518060400160405280601081526020016f086d8c2d2dabe9ab29ca8bee8debe60f60831b815250613f46565b6040518060400160405280601781526020017f436c61696d5f426974636f696e4d594e545f746f5f30780000000000000000008152505b905060108316156000613f598783614a0c565b90506000869003613fc9576018772134ba31b7b4b71029b4b3b732b21026b2b9b9b0b3b29d0560411b613f8e60146002615e0d565b8551613f9a9190615e30565b8584604051602001613fb0959493929190615e49565b6040516020818303038152906040529350505050610d7d565b6000613fd7600c6002615e0d565b60ff1667ffffffffffffffff811115613ff257613ff26157d0565b6040519080825280601f01601f19166020018201604052801561401c576020820181803683370190505b50905061402b8188600c614aff565b6018772134ba31b7b4b71029b4b3b732b21026b2b9b9b0b3b29d0560411b614055600c6002615e0d565b61406160146002615e0d565b875161406d9190615e30565b614078906001615e30565b6140829190615e30565b86858560405160200161409a96959493929190615eb1565b6040516020818303038152906040529450505050509392505050565b6000600280836040516140c99190615da0565b602060405180830381855afa1580156140e6573d6000803e3d6000fd5b5050506040513d601f19601f820116820180604052508101906141099190615dbc565b60405160200161411b91815260200190565b60408051601f198184030181529082905261413591615da0565b602060405180830381855afa158015614152573d6000803e3d6000fd5b5050506040513d601f19601f82011682018060405250810190611a339190615dbc565b6000808061418560336002615cb4565b6001600160801b0380861690911c1692506141a860016608000000000000615ce1565b603385901c16691fffffffffffffffffff1691506141ce60016608000000000000615ce1565b846001600160801b03161690509193909250565b6000826141ef8584614bfa565b14949350505050565b815181526020808301519082015260408083015190820152606080830151908201526080808301519082015260a0808301519082015260c08083015164ffffffffff169082015260e08083015190820152610100808301519082015261012091820151910152565b6000808061426e8588615cf4565b90506000600261427f886001615cf4565b6142899190615c92565b9050605a8110156142985750605a5b856000036142c35760006142ad8a878b614c47565b90506142b98282615cb4565b9350505050614344565b8581101561430c5760006142d7828a615cf4565b90506142e58a878b8461434e565b935060006142f58b88848761434e565b90506143018186615cf4565b955050505050614344565b61431889868a8561434e565b935085810361432957839250614341565b856143348286615cb4565b61433e9190615c92565b92505b50505b9550959350505050565b6000825b828110156143af576000818152600960205260409020546001600160481b03600160481b820481169161438791889116615cb4565b6143919190615c92565b61439b9083615cf4565b9150806143a781615d1e565b915050614352565b506143bc60326007615cb4565b6143c7906001615cf4565b6143d2906001615cf4565b831115801561440157506143e860326007615cb4565b6143f3906001615cf4565b6143fe906001615cf4565b82115b15610e3f57600060098161441760326007615cb4565b614422906001615cf4565b61442d906001615cf4565b8152602081019190915260400160002054600160481b90046001600160481b0316856127106305f5e1006144636008600a615c86565b61446d9190615c92565b6144779190615cb4565b8860e001516144869190615cb4565b6144909190615cb4565b61449a9190615c92565b90506144a68682614d7a565b6144b09082615cf4565b611bc29083615cf4565b6000806144c960026007615cb4565b6144d38688615cf4565b6144dd9190615cf4565b90508084116144f0576000915050610e3f565b6144fc60646007615cb4565b6145068286615ce1565b6145109085615cb4565b611bc29190615c92565b600080600183111561458a57606460c86145376014618e30615c92565b6145419190615cb4565b61454b9190615c92565b83111561457c57606460c86145636014618e30615c92565b61456d9190615cb4565b6145779190615c92565b614587565b614587600184615ce1565b90505b60006145986008600a615c86565b6145a6906308f0d180615cb4565b8511156145cc576145b96008600a615c86565b6145c7906308f0d180615cb4565b6145ce565b845b90506145dd6014618e30615c92565b6145e79082615cb4565b600a6145f4600882615c86565b614602906308f0d180615cb4565b61460d906064615cb4565b6146179190615c92565b6146219084615cb4565b61462b9190615cf4565b9250600a61463a600882615c86565b614648906308f0d180615cb4565b614653906064615cb4565b61465d9190615c92565b61466a6014618e30615c92565b6146749190615cb4565b61467e8487615cb4565b6127f49190615c92565b8064ffffffffff167f9861fa0ed101659f7a59b4583fcc798dfa4f3b419bea371c8ee2ad0ffe13a31e60288464ffffffffff16901b4264ffffffffff16176040516146d591815260200190565b60405180910390a25050565b6000806146f060336002615cb4565b9490941b60339390931b929092171792915050565b64ffffffffff8516337f14872dc760f33532684e68e1b6d5fd3f71ba7b07dee76bdb2b084f28b74233ef8361473b576000614741565b600160c81b5b6001600160d01b031660b88661ffff16901b6070886001600160481b0316901b60288a6001600160481b0316901b4264ffffffffff161717171760405161478a91815260200190565b60405180910390a35050505050565b61308781614dd0565b6147ad838383614df1565b60409182015160009182526009602052919020805460a084015160e09094015166ffffffffffffff16600160901b0266ffffffffffffff60901b196001600160481b03958616600160481b026001600160901b031990931695909416949094171791909116919091179055565b337fb8d6eb541ded1720cc657b719f57abcb1fe4711cb7ead82751b135f5d94bc9448261484857600061484e565b600160481b5b69ffffffffffffffffffff1660388561ffff16901b60288761ffff16901b4264ffffffffff1617171760405161488691815260200190565b60405180910390a2505050565b6000600188610140015110156148bb5760405162461bcd60e51b8152600401610c9c90615d37565b6148c760326007615cb4565b6148d2906001615cf4565b886101400151106149255760405162461bcd60e51b815260206004820152601b60248201527f4d594e543a20436c61696d2070686173652068617320656e64656400000000006044820152606401610c9c565b61492e88613076565b6301ab362e886101200151106149865760405162461bcd60e51b815260206004820152601f60248201527f4d594e543a2043484b3a205f636c61696d656442746341646472436f756e74006044820152606401610c9c565b60008060006149958b8b614f29565b6101208e01805193965091945092506149ad82615d1e565b9052506149c08989898d8787878c61504b565b9350600060646149d1605a87615cb4565b6149db9190615c92565b90506149ea8c828960016136b3565b6149fd8a6149f88388615ce1565b612b49565b50505050979650505050505050565b6060614a1a60146002615e0d565b60ff1667ffffffffffffffff811115614a3557614a356157d0565b6040519080825280601f01601f191660200182016040528015614a5f576020820181803683370190505b509050614a7c816001600160601b0319606086901b166014614aff565b8115610c3d57805160208201206000805b6014811015614af6576000838260208110614aaa57614aaa615ccb565b1a9050614aca8584614abb81615d1e565b955060048460ff16901c61513c565b614ae38584614ad881615d1e565b955083600f1661513c565b5080614aee81615d1e565b915050614a8d565b50505092915050565b6000805b82811015612668576000848260208110614b1f57614b1f615ccb565b1a90506f181899199a1a9b1b9c1cb0b131b232b360811b600482901c60ff1660108110614b4e57614b4e615ccb565b1a60f81b8684614b5d81615d1e565b955081518110614b6f57614b6f615ccb565b60200101906001600160f81b031916908160001a9053506f181899199a1a9b1b9c1cb0b131b232b360811b600f821660108110614bae57614bae615ccb565b1a60f81b8684614bbd81615d1e565b955081518110614bcf57614bcf615ccb565b60200101906001600160f81b031916908160001a905350508080614bf290615d1e565b915050614b03565b600081815b8451811015614c3f57614c2b82868381518110614c1e57614c1e615ccb565b60200260200101516151b4565b915080614c3781615d1e565b915050614bff565b509392505050565b6000614c51615406565b614c5b85826141f8565b614c7f60405180606001604052806000815260200160008152602001600081525090565b8551600254614c8e9190615cf4565b8152614c9b828286614df1565b848260a001818151614cad9190615cf4565b90525060a08201516040820151614cc5908790615cb4565b614ccf9190615c92565b9250614cdd60326007615cb4565b614ce8906001615cf4565b614cf3906001615cf4565b8403614d715760a0820151600090866127106305f5e100614d166008600a615c86565b614d209190615c92565b614d2a9190615cb4565b8560e00151614d399190615cb4565b614d439190615cb4565b614d4d9190615c92565b9050614d598382614d7a565b614d639082615cf4565b614d6d9085615cf4565b9350505b50509392505050565b6000806301ab362e84610120015184614d939190615cb4565b614d9d9190615c92565b9050600066033bb85fc52d9985610100015185614dba9190615cb4565b614dc49190615c92565b90506127f48183615cf4565b60006a636f6e736f6c652e6c6f679050600080835160208501845afa505050565b81516305fcbae390614e0590612710615cb4565b614e0f9190615c92565b6040830152614e2060326007615cb4565b614e2b906001615cf4565b811015614efa576000614e4060326007615cb4565b6127106305f5e100614e546008600a615c86565b614e5e9190615c92565b614e689190615cb4565b8560e00151614e779190615cb4565b614e819190615c92565b90506000614e9e85838660400151614e999190615cf4565b614d7a565b614ea89083615cf4565b90508084602001818151614ebc9190615cf4565b905250835181908590614ed0908390615cf4565b9052506040840151614ee3908690614d7a565b84604001818151614ef49190615cf4565b90525050505b606083015115610caf57826060015182604001818151614f1a9190615cf4565b90525060006060840152505050565b6000806000614f37846151e3565b925066033bb85fc52d9983866101000151614f529190615cf4565b1115614fa05760405162461bcd60e51b815260206004820181905260248201527f4d594e543a2043484b3a205f636c61696d65645361746f73686973546f74616c6044820152606401610c9c565b828561010001818151614fb39190615cf4565b905250610140850151600090614fcb60326007615cb4565b614fd6906001615cf4565b614fe09190615ce1565b9050614fec8482615238565b9350838660e0018181516150009190615ce1565b9052506127106305f5e1006150176008600a615c86565b6150219190615c92565b61502b9190615cb4565b6150359085615cb4565b9250615041838261525a565b9150509250925092565b60006150578385615cf4565b9050826001600160a01b03831661507c576150778a8a8a8a8a8789615294565b615111565b6000615089600a84615c92565b90506150958184615cf4565b925060006150a4600585615c92565b90506150b08183615cf4565b6150ba9084615cf4565b92508b6001600160a01b0316856001600160a01b0316036150f5576150df8185615cf4565b93506150f08c8c8c8c8c898b615294565b61510e565b6151048c8c8c8c8c898b615294565b61510e8582612b49565b50505b61512f739a6a414d6f3497c05e3b1de90520765fa1e07c0382612b49565b5098975050505050505050565b600083838151811061515057615150615ccb565b01602001516001600160f81b0319169050606160f81b8110801590615179575060088260ff1610155b156114a25780602060f81b1884848151811061519757615197615ccb565b60200101906001600160f81b031916908160001a90535050505050565b60008183106151d0576000828152602084905260409020610d7d565b6000838152602083905260409020610d7d565b600064174876e8008210156151f6575090565b64e8d4a51000821061520d57611a33600483615c92565b65034630b8a000615224836501ba60d33800615ce1565b61522e9084615cb4565b611a339190615c92565b600061524660326007615cb4565b6152508385615cb4565b610d7d9190615c92565b6000600161526a60326007615cb4565b6152749190615ce1565b61527f906005615cb4565b61528a600184615ce1565b6152509085615cb4565b6040805164ffffffffff42166bffffffffffffff0000000000602888901b161766ffffffffffffff60601b606087901b161760ff60981b609889901b161768ffffffffffffffffff60a01b60a086901b161781523360208201526001600160a01b0380841692908a16916001600160601b03198a16917f41e3c7dc6eebc97a48a437ff2afdc629613f12c48ba37a2c94563f80acba9725910160405180910390a46001600160a01b03871633146153fd57336001600160a01b03167f3a84b2d9dac24683628d63034c6949797f15fab735e16232518ee4e753fd49b760c88666ffffffffffffff16901b60288960601c6001600160a01b0316901b4264ffffffffff16171760d88860ff16901b60388b6001600160a01b0316901b8766ffffffffffffff1617176048856001600160a01b0316901b866001600160481b0316176040516153f4939291909283526020830191909152604082015260600190565b60405180910390a25b50505050505050565b604051806101600160405280600081526020016000815260200160008152602001600081526020016000815260200160008152602001600064ffffffffff168152602001600081526020016000815260200160008152602001600081525090565b6040518060e00160405280600064ffffffffff16815260200160008152602001600081526020016000815260200160008152602001600081526020016000151581525090565b60405180604001604052806002906020820280368337509192915050565b604051806101a00160405280600d906020820280368337509192915050565b60005b838110156155055781810151838201526020016154ed565b50506000910152565b600081518084526155268160208601602086016154ea565b601f01601f19169290920160200192915050565b602081526000610d7d602083018461550e565b80356001600160a01b0381168114611a3657600080fd5b6000806040838503121561557757600080fd5b6155808361554d565b946020939093013593505050565b6000806000606084860312156155a357600080fd5b6155ac8461554d565b9250602084013591506155c16040850161554d565b90509250925092565b6000806000606084860312156155df57600080fd5b6155e88461554d565b92506155f66020850161554d565b9150604084013590509250925092565b60008083601f84011261561857600080fd5b50813567ffffffffffffffff81111561563057600080fd5b6020830191508360208260051b85010111156121bf57600080fd5b60008060006040848603121561566057600080fd5b83359250602084013567ffffffffffffffff81111561567e57600080fd5b61568a86828701615606565b9497909650939450505050565b803560ff81168114611a3657600080fd5b6000806000606084860312156156bd57600080fd5b83359250602084013591506155c160408501615697565b600080604083850312156156e757600080fd5b50508035926020909101359150565b60006020828403121561570857600080fd5b610d7d8261554d565b803564ffffffffff81168114611a3657600080fd5b6000806040838503121561573957600080fd5b8235915061574960208401615711565b90509250929050565b6000806040838503121561576557600080fd5b823591506157496020840161554d565b60408101818360005b6002811015614af657815183526020928301929091019060010161577e565b6000806000606084860312156157b257600080fd5b6157bb8461554d565b9250602084013591506155c160408501615711565b634e487b7160e01b600052604160045260246000fd5b604051610160810167ffffffffffffffff8111828210171561581857634e487b7160e01b600052604160045260246000fd5b60405290565b6000610160828403121561583157600080fd5b6158396157e6565b9050813581526020820135602082015260408201356040820152606082013560608201526080820135608082015260a082013560a082015261587d60c08301615711565b60c082015260e082013560e082015261010080830135818301525061012080830135818301525061014080830135818301525092915050565b6000806102c083850312156158ca57600080fd5b6158d4848461581e565b915061574984610160850161581e565b6020808252825182820181905260009190848201906040850190845b8181101561591c57835183529284019291840191600101615900565b50909695505050505050565b80356001600160601b031981168114611a3657600080fd5b60006020828403121561595257600080fd5b610d7d82615928565b60006020828403121561596d57600080fd5b5035919050565b6000806000806060858703121561598a57600080fd5b61599385615928565b935060208501359250604085013567ffffffffffffffff8111156159b657600080fd5b6159c287828801615606565b95989497509550505050565b6000806000806000806000806000806000806101608d8f0312156159f157600080fd5b8c359b5067ffffffffffffffff60208e01351115615a0e57600080fd5b615a1e8e60208f01358f01615606565b909b509950615a2f60408e0161554d565b985060608d0135975060808d01359650615a4b60a08e01615697565b9550615a5960c08e01615697565b945060e08d013593506101008d013592506101208d01359150615a7f6101408e0161554d565b90509295989b509295989b509295989b565b600080600080600080600080610100898b031215615aae57600080fd5b615ab78961554d565b9750602089013596506040890135955060608901359450615ada60808a01615697565b9350615ae860a08a01615697565b925060c0890135915060e089013590509295985092959890939650565b60008060408385031215615b1857600080fd5b615b218361554d565b91506157496020840161554d565b6101a08101818360005b600d811015614af6578151835260209283019290910190600101615b39565b600181811c90821680615b6c57607f821691505b6020821081036113f857634e487b7160e01b600052602260045260246000fd5b634e487b7160e01b600052601160045260246000fd5b600181815b80851115615bdd578160001904821115615bc357615bc3615b8c565b80851615615bd057918102915b93841c9390800290615ba7565b509250929050565b600082615bf457506001610c3d565b81615c0157506000610c3d565b8160018114615c175760028114615c2157615c3d565b6001915050610c3d565b60ff841115615c3257615c32615b8c565b50506001821b610c3d565b5060208310610133831016604e8410600b8410161715615c60575081810a610c3d565b615c6a8383615ba2565b8060001904821115615c7e57615c7e615b8c565b029392505050565b6000610d7d8383615be5565b600082615caf57634e487b7160e01b600052601260045260246000fd5b500490565b8082028115828204841417610c3d57610c3d615b8c565b634e487b7160e01b600052603260045260246000fd5b81810381811115610c3d57610c3d615b8c565b80820180821115610c3d57610c3d615b8c565b600081615d1657615d16615b8c565b506000190190565b600060018201615d3057615d30615b8c565b5060010190565b60208082526025908201527f4d594e543a20436c61696d20706861736520686173206e6f7420796574207374604082015264185c9d195960da1b606082015260800190565b600064ffffffffff808316818103615d9657615d96615b8c565b6001019392505050565b60008251615db28184602087016154ea565b9190910192915050565b600060208284031215615dce57600080fd5b5051919050565b634e487b7160e01b600052603160045260246000fd5b604081526000615dfe604083018561550e565b90508260208301529392505050565b60ff8181168382160290811690818114615e2957615e29615b8c565b5092915050565b60ff8181168382160190811115610c3d57610c3d615b8c565b6001600160f81b031960f887811b8216835267ffffffffffffffff198716600184015285901b1660198201528251600090615e8b81601a8501602088016154ea565b835190830190615ea281601a8401602088016154ea565b01601a01979650505050505050565b6001600160f81b031960f888811b8216835267ffffffffffffffff198816600184015286901b1660198201528351600090615ef381601a8501602089016154ea565b845190830190615f0a81601a8401602089016154ea565b605f60f81b601a92909101918201528351615f2c81601b8401602088016154ea565b01601b019897505050505050505056fea2646970667358221220060d367a92489049e2d15b03728d4068e38b8e1b0ad61adc014792833b9c154964736f6c63430008130033",
			"opcodes": "PUSH1 0xA0 PUSH1 0x40 MSTORE CALLVALUE DUP1 ISZERO PUSH3 0x11 JUMPI PUSH1 0x0 DUP1 REVERT JUMPDEST POP PUSH1 0x40 MLOAD DUP1 PUSH1 0x40 ADD PUSH1 0x40 MSTORE DUP1 PUSH1 0x7 DUP2 MSTORE PUSH1 0x20 ADD PUSH7 0x135E5B9D1A5CDD PUSH1 0xCA SHL DUP2 MSTORE POP PUSH1 0x40 MLOAD DUP1 PUSH1 0x40 ADD PUSH1 0x40 MSTORE DUP1 PUSH1 0x4 DUP2 MSTORE PUSH1 0x20 ADD PUSH4 0x13565395 PUSH1 0xE2 SHL DUP2 MSTORE POP DUP2 PUSH1 0x3 SWAP1 DUP2 PUSH3 0x60 SWAP2 SWAP1 PUSH3 0x1BE JUMP JUMPDEST POP PUSH1 0x4 PUSH3 0x6F DUP3 DUP3 PUSH3 0x1BE JUMP JUMPDEST POP POP CALLER PUSH1 0x80 MSTORE POP PUSH3 0x86 PUSH3 0x186A0 PUSH1 0x1 PUSH3 0x28A JUMP JUMPDEST PUSH1 0x6 DUP1 SLOAD PUSH5 0xFFFFFFFFFF SWAP3 SWAP1 SWAP3 AND PUSH1 0x1 PUSH1 0x90 SHL MUL PUSH5 0xFFFFFFFFFF PUSH1 0x90 SHL NOT SWAP1 SWAP3 AND SWAP2 SWAP1 SWAP2 OR SWAP1 SSTORE PUSH1 0x7 DUP1 SLOAD PUSH2 0xFFFF NOT AND PUSH1 0x1 OR SWAP1 SSTORE PUSH3 0xD0 PUSH1 0x0 DUP1 PUSH7 0x66C277DE83E9C PUSH3 0xF3 JUMP JUMPDEST PUSH1 0x7 DUP1 SLOAD PUSH1 0x1 PUSH1 0x1 PUSH1 0x80 SHL SUB SWAP3 DUP4 AND PUSH1 0x1 PUSH1 0x80 SHL MUL SWAP3 AND SWAP2 SWAP1 SWAP2 OR SWAP1 SSTORE PUSH3 0x2B6 JUMP JUMPDEST PUSH1 0x0 DUP1 PUSH3 0x104 PUSH1 0x33 PUSH1 0x2 PUSH3 0x28A JUMP JUMPDEST SWAP5 SWAP1 SWAP5 SHL PUSH1 0x33 SWAP4 SWAP1 SWAP4 SHL SWAP3 SWAP1 SWAP3 OR OR SWAP3 SWAP2 POP POP JUMP JUMPDEST PUSH4 0x4E487B71 PUSH1 0xE0 SHL PUSH1 0x0 MSTORE PUSH1 0x41 PUSH1 0x4 MSTORE PUSH1 0x24 PUSH1 0x0 REVERT JUMPDEST PUSH1 0x1 DUP2 DUP2 SHR SWAP1 DUP3 AND DUP1 PUSH3 0x144 JUMPI PUSH1 0x7F DUP3 AND SWAP2 POP JUMPDEST PUSH1 0x20 DUP3 LT DUP2 SUB PUSH3 0x165 JUMPI PUSH4 0x4E487B71 PUSH1 0xE0 SHL PUSH1 0x0 MSTORE PUSH1 0x22 PUSH1 0x4 MSTORE PUSH1 0x24 PUSH1 0x0 REVERT JUMPDEST POP SWAP2 SWAP1 POP JUMP JUMPDEST PUSH1 0x1F DUP3 GT ISZERO PUSH3 0x1B9 JUMPI PUSH1 0x0 DUP2 DUP2 MSTORE PUSH1 0x20 DUP2 KECCAK256 PUSH1 0x1F DUP6 ADD PUSH1 0x5 SHR DUP2 ADD PUSH1 0x20 DUP7 LT ISZERO PUSH3 0x194 JUMPI POP DUP1 JUMPDEST PUSH1 0x1F DUP6 ADD PUSH1 0x5 SHR DUP3 ADD SWAP2 POP JUMPDEST DUP2 DUP2 LT ISZERO PUSH3 0x1B5 JUMPI DUP3 DUP2 SSTORE PUSH1 0x1 ADD PUSH3 0x1A0 JUMP JUMPDEST POP POP POP JUMPDEST POP POP POP JUMP JUMPDEST DUP2 MLOAD PUSH1 0x1 PUSH1 0x1 PUSH1 0x40 SHL SUB DUP2 GT ISZERO PUSH3 0x1DA JUMPI PUSH3 0x1DA PUSH3 0x119 JUMP JUMPDEST PUSH3 0x1F2 DUP2 PUSH3 0x1EB DUP5 SLOAD PUSH3 0x12F JUMP JUMPDEST DUP5 PUSH3 0x16B JUMP JUMPDEST PUSH1 0x20 DUP1 PUSH1 0x1F DUP4 GT PUSH1 0x1 DUP2 EQ PUSH3 0x22A JUMPI PUSH1 0x0 DUP5 ISZERO PUSH3 0x211 JUMPI POP DUP6 DUP4 ADD MLOAD JUMPDEST PUSH1 0x0 NOT PUSH1 0x3 DUP7 SWAP1 SHL SHR NOT AND PUSH1 0x1 DUP6 SWAP1 SHL OR DUP6 SSTORE PUSH3 0x1B5 JUMP JUMPDEST PUSH1 0x0 DUP6 DUP2 MSTORE PUSH1 0x20 DUP2 KECCAK256 PUSH1 0x1F NOT DUP7 AND SWAP2 JUMPDEST DUP3 DUP2 LT ISZERO PUSH3 0x25B JUMPI DUP9 DUP7 ADD MLOAD DUP3 SSTORE SWAP5 DUP5 ADD SWAP5 PUSH1 0x1 SWAP1 SWAP2 ADD SWAP1 DUP5 ADD PUSH3 0x23A JUMP JUMPDEST POP DUP6 DUP3 LT ISZERO PUSH3 0x27A JUMPI DUP8 DUP6 ADD MLOAD PUSH1 0x0 NOT PUSH1 0x3 DUP9 SWAP1 SHL PUSH1 0xF8 AND SHR NOT AND DUP2 SSTORE JUMPDEST POP POP POP POP POP PUSH1 0x1 SWAP1 DUP2 SHL ADD SWAP1 SSTORE POP JUMP JUMPDEST DUP1 DUP3 MUL DUP2 ISZERO DUP3 DUP3 DIV DUP5 EQ OR PUSH3 0x2B0 JUMPI PUSH4 0x4E487B71 PUSH1 0xE0 SHL PUSH1 0x0 MSTORE PUSH1 0x11 PUSH1 0x4 MSTORE PUSH1 0x24 PUSH1 0x0 REVERT JUMPDEST SWAP3 SWAP2 POP POP JUMP JUMPDEST PUSH1 0x80 MLOAD PUSH2 0x5F72 PUSH3 0x2E0 PUSH1 0x0 CODECOPY PUSH1 0x0 DUP2 DUP2 PUSH2 0xAC0 ADD MSTORE DUP2 DUP2 PUSH2 0xCBF ADD MSTORE PUSH2 0x1A46 ADD MSTORE PUSH2 0x5F72 PUSH1 0x0 RETURN INVALID PUSH1 0x80 PUSH1 0x40 MSTORE PUSH1 0x4 CALLDATASIZE LT PUSH2 0x2CD JUMPI PUSH1 0x0 CALLDATALOAD PUSH1 0xE0 SHR DUP1 PUSH4 0x6A210A0E GT PUSH2 0x175 JUMPI DUP1 PUSH4 0xA457C2D7 GT PUSH2 0xDC JUMPI DUP1 PUSH4 0xCE606EE0 GT PUSH2 0x95 JUMPI DUP1 PUSH4 0xDD62ED3E GT PUSH2 0x6F JUMPI DUP1 PUSH4 0xDD62ED3E EQ PUSH2 0xB15 JUMPI DUP1 PUSH4 0xEC9A1917 EQ PUSH2 0xB35 JUMPI DUP1 PUSH4 0xF04B5FA0 EQ PUSH2 0xB55 JUMPI DUP1 PUSH4 0xF57A1B3C EQ PUSH2 0xB77 JUMPI PUSH1 0x0 DUP1 REVERT JUMPDEST DUP1 PUSH4 0xCE606EE0 EQ PUSH2 0xAAE JUMPI DUP1 PUSH4 0xCE7D1F77 EQ PUSH2 0xAE2 JUMPI DUP1 PUSH4 0xD5A373FF EQ PUSH2 0xAF5 JUMPI PUSH1 0x0 DUP1 REVERT JUMPDEST DUP1 PUSH4 0xA457C2D7 EQ PUSH2 0x91C JUMPI DUP1 PUSH4 0xA9059CBB EQ PUSH2 0x93C JUMPI DUP1 PUSH4 0xB626D6FC EQ PUSH2 0x95C JUMPI DUP1 PUSH4 0xBD926ED3 EQ PUSH2 0x97C JUMPI DUP1 PUSH4 0xC3124525 EQ PUSH2 0x9B9 JUMPI DUP1 PUSH4 0xCBB151D3 EQ PUSH2 0xA8E JUMPI PUSH1 0x0 DUP1 REVERT JUMPDEST DUP1 PUSH4 0x8E21AA01 GT PUSH2 0x12E JUMPI DUP1 PUSH4 0x8E21AA01 EQ PUSH2 0x804 JUMPI DUP1 PUSH4 0x8F1C65C0 EQ PUSH2 0x824 JUMPI DUP1 PUSH4 0x90DE6871 EQ PUSH2 0x844 JUMPI DUP1 PUSH4 0x95D89B41 EQ PUSH2 0x8C7 JUMPI DUP1 PUSH4 0x96F62B9D EQ PUSH2 0x8DC JUMPI DUP1 PUSH4 0xA042B1B6 EQ PUSH2 0x8FC JUMPI PUSH1 0x0 DUP1 REVERT JUMPDEST DUP1 PUSH4 0x6A210A0E EQ PUSH2 0x704 JUMPI DUP1 PUSH4 0x70A08231 EQ PUSH2 0x731 JUMPI DUP1 PUSH4 0x7C426620 EQ PUSH2 0x767 JUMPI DUP1 PUSH4 0x87A0F31C EQ PUSH2 0x797 JUMPI DUP1 PUSH4 0x8C84A47B EQ PUSH2 0x7C4 JUMPI DUP1 PUSH4 0x8CBA2842 EQ PUSH2 0x7E4 JUMPI PUSH1 0x0 DUP1 REVERT JUMPDEST DUP1 PUSH4 0x313CE567 GT PUSH2 0x234 JUMPI DUP1 PUSH4 0x3A70A5CA GT PUSH2 0x1ED JUMPI DUP1 PUSH4 0x52A438B8 GT PUSH2 0x1C7 JUMPI DUP1 PUSH4 0x52A438B8 EQ PUSH2 0x68F JUMPI DUP1 PUSH4 0x5C9302C9 EQ PUSH2 0x6AF JUMPI DUP1 PUSH4 0x65CF71B2 EQ PUSH2 0x6C4 JUMPI DUP1 PUSH4 0x65D2A557 EQ PUSH2 0x6E4 JUMPI PUSH1 0x0 DUP1 REVERT JUMPDEST DUP1 PUSH4 0x3A70A5CA EQ PUSH2 0x5E5 JUMPI DUP1 PUSH4 0x44203FAF EQ PUSH2 0x5FA JUMPI DUP1 PUSH4 0x44F0DE75 EQ PUSH2 0x662 JUMPI PUSH1 0x0 DUP1 REVERT JUMPDEST DUP1 PUSH4 0x313CE567 EQ PUSH2 0x520 JUMPI DUP1 PUSH4 0x319E74F6 EQ PUSH2 0x53C JUMPI DUP1 PUSH4 0x33060D90 EQ PUSH2 0x551 JUMPI DUP1 PUSH4 0x343009A2 EQ PUSH2 0x587 JUMPI DUP1 PUSH4 0x34DC8BB5 EQ PUSH2 0x5A7 JUMPI DUP1 PUSH4 0x39509351 EQ PUSH2 0x5C5 JUMPI PUSH1 0x0 DUP1 REVERT JUMPDEST DUP1 PUSH4 0x18160DDD GT PUSH2 0x286 JUMPI DUP1 PUSH4 0x18160DDD EQ PUSH2 0x3D9 JUMPI DUP1 PUSH4 0x23B872DD EQ PUSH2 0x3EE JUMPI DUP1 PUSH4 0x2607443B EQ PUSH2 0x40E JUMPI DUP1 PUSH4 0x27AA6018 EQ PUSH2 0x480 JUMPI DUP1 PUSH4 0x283A5BAF EQ PUSH2 0x4A0 JUMPI DUP1 PUSH4 0x30C1A785 EQ PUSH2 0x4D9 JUMPI PUSH1 0x0 DUP1 REVERT JUMPDEST DUP1 PUSH4 0x6FDDE03 EQ PUSH2 0x2D9 JUMPI DUP1 PUSH4 0x95EA7B3 EQ PUSH2 0x304 JUMPI DUP1 PUSH4 0xD4D1513 EQ PUSH2 0x334 JUMPI DUP1 PUSH4 0x112BEAB5 EQ PUSH2 0x356 JUMPI DUP1 PUSH4 0x1285B047 EQ PUSH2 0x376 JUMPI DUP1 PUSH4 0x13C5C2C7 EQ PUSH2 0x399 JUMPI PUSH1 0x0 DUP1 REVERT JUMPDEST CALLDATASIZE PUSH2 0x2D4 JUMPI STOP JUMPDEST PUSH1 0x0 DUP1 REVERT JUMPDEST CALLVALUE DUP1 ISZERO PUSH2 0x2E5 JUMPI PUSH1 0x0 DUP1 REVERT JUMPDEST POP PUSH2 0x2EE PUSH2 0xB97 JUMP JUMPDEST PUSH1 0x40 MLOAD PUSH2 0x2FB SWAP2 SWAP1 PUSH2 0x553A JUMP JUMPDEST PUSH1 0x40 MLOAD DUP1 SWAP2 SUB SWAP1 RETURN JUMPDEST CALLVALUE DUP1 ISZERO PUSH2 0x310 JUMPI PUSH1 0x0 DUP1 REVERT JUMPDEST POP PUSH2 0x324 PUSH2 0x31F CALLDATASIZE PUSH1 0x4 PUSH2 0x5564 JUMP JUMPDEST PUSH2 0xC29 JUMP JUMPDEST PUSH1 0x40 MLOAD SWAP1 ISZERO ISZERO DUP2 MSTORE PUSH1 0x20 ADD PUSH2 0x2FB JUMP JUMPDEST CALLVALUE DUP1 ISZERO PUSH2 0x340 JUMPI PUSH1 0x0 DUP1 REVERT JUMPDEST POP PUSH2 0x354 PUSH2 0x34F CALLDATASIZE PUSH1 0x4 PUSH2 0x558E JUMP JUMPDEST PUSH2 0xC43 JUMP JUMPDEST STOP JUMPDEST CALLVALUE DUP1 ISZERO PUSH2 0x362 JUMPI PUSH1 0x0 DUP1 REVERT JUMPDEST POP PUSH2 0x354 PUSH2 0x371 CALLDATASIZE PUSH1 0x4 PUSH2 0x5564 JUMP JUMPDEST PUSH2 0xCB4 JUMP JUMPDEST CALLVALUE DUP1 ISZERO PUSH2 0x382 JUMPI PUSH1 0x0 DUP1 REVERT JUMPDEST POP PUSH2 0x38B PUSH2 0xD33 JUMP JUMPDEST PUSH1 0x40 MLOAD SWAP1 DUP2 MSTORE PUSH1 0x20 ADD PUSH2 0x2FB JUMP JUMPDEST CALLVALUE DUP1 ISZERO PUSH2 0x3A5 JUMPI PUSH1 0x0 DUP1 REVERT JUMPDEST POP PUSH2 0x3C1 PUSH20 0xDEC9F2793E3C17CD26EEFB21C4762FA5128E0399 DUP2 JUMP JUMPDEST PUSH1 0x40 MLOAD PUSH1 0x1 PUSH1 0x1 PUSH1 0xA0 SHL SUB SWAP1 SWAP2 AND DUP2 MSTORE PUSH1 0x20 ADD PUSH2 0x2FB JUMP JUMPDEST CALLVALUE DUP1 ISZERO PUSH2 0x3E5 JUMPI PUSH1 0x0 DUP1 REVERT JUMPDEST POP PUSH1 0x2 SLOAD PUSH2 0x38B JUMP JUMPDEST CALLVALUE DUP1 ISZERO PUSH2 0x3FA JUMPI PUSH1 0x0 DUP1 REVERT JUMPDEST POP PUSH2 0x324 PUSH2 0x409 CALLDATASIZE PUSH1 0x4 PUSH2 0x55CA JUMP JUMPDEST PUSH2 0xD5E JUMP JUMPDEST CALLVALUE DUP1 ISZERO PUSH2 0x41A JUMPI PUSH1 0x0 DUP1 REVERT JUMPDEST POP PUSH2 0x42E PUSH2 0x429 CALLDATASIZE PUSH1 0x4 PUSH2 0x5564 JUMP JUMPDEST PUSH2 0xD84 JUMP JUMPDEST PUSH1 0x40 DUP1 MLOAD PUSH5 0xFFFFFFFFFF SWAP9 SWAP1 SWAP9 AND DUP9 MSTORE PUSH1 0x1 PUSH1 0x1 PUSH1 0x48 SHL SUB SWAP7 DUP8 AND PUSH1 0x20 DUP10 ADD MSTORE SWAP5 SWAP1 SWAP6 AND SWAP4 DUP7 ADD SWAP4 SWAP1 SWAP4 MSTORE PUSH2 0xFFFF SWAP2 DUP3 AND PUSH1 0x60 DUP7 ADD MSTORE DUP2 AND PUSH1 0x80 DUP6 ADD MSTORE AND PUSH1 0xA0 DUP4 ADD MSTORE ISZERO ISZERO PUSH1 0xC0 DUP3 ADD MSTORE PUSH1 0xE0 ADD PUSH2 0x2FB JUMP JUMPDEST CALLVALUE DUP1 ISZERO PUSH2 0x48C JUMPI PUSH1 0x0 DUP1 REVERT JUMPDEST POP PUSH2 0x324 PUSH2 0x49B CALLDATASIZE PUSH1 0x4 PUSH2 0x564B JUMP JUMPDEST PUSH2 0xE00 JUMP JUMPDEST CALLVALUE DUP1 ISZERO PUSH2 0x4AC JUMPI PUSH1 0x0 DUP1 REVERT JUMPDEST POP PUSH2 0x4C0 PUSH2 0x4BB CALLDATASIZE PUSH1 0x4 PUSH2 0x56A8 JUMP JUMPDEST PUSH2 0xE47 JUMP JUMPDEST PUSH1 0x40 MLOAD PUSH1 0x1 PUSH1 0x1 PUSH1 0x60 SHL SUB NOT SWAP1 SWAP2 AND DUP2 MSTORE PUSH1 0x20 ADD PUSH2 0x2FB JUMP JUMPDEST CALLVALUE DUP1 ISZERO PUSH2 0x4E5 JUMPI PUSH1 0x0 DUP1 REVERT JUMPDEST POP PUSH2 0x3C1 PUSH2 0x4F4 CALLDATASIZE PUSH1 0x4 PUSH2 0x56D4 JUMP JUMPDEST PUSH1 0x40 DUP1 MLOAD PUSH1 0x20 DUP1 DUP3 ADD SWAP5 SWAP1 SWAP5 MSTORE DUP1 DUP3 ADD SWAP3 SWAP1 SWAP3 MSTORE DUP1 MLOAD DUP1 DUP4 SUB DUP3 ADD DUP2 MSTORE PUSH1 0x60 SWAP1 SWAP3 ADD SWAP1 MSTORE DUP1 MLOAD SWAP2 ADD KECCAK256 SWAP1 JUMP JUMPDEST CALLVALUE DUP1 ISZERO PUSH2 0x52C JUMPI PUSH1 0x0 DUP1 REVERT JUMPDEST POP PUSH1 0x40 MLOAD PUSH1 0x8 DUP2 MSTORE PUSH1 0x20 ADD PUSH2 0x2FB JUMP JUMPDEST CALLVALUE DUP1 ISZERO PUSH2 0x548 JUMPI PUSH1 0x0 DUP1 REVERT JUMPDEST POP PUSH2 0x38B PUSH2 0xFF8 JUMP JUMPDEST CALLVALUE DUP1 ISZERO PUSH2 0x55D JUMPI PUSH1 0x0 DUP1 REVERT JUMPDEST POP PUSH2 0x38B PUSH2 0x56C CALLDATASIZE PUSH1 0x4 PUSH2 0x56F6 JUMP JUMPDEST PUSH1 0x1 PUSH1 0x1 PUSH1 0xA0 SHL SUB AND PUSH1 0x0 SWAP1 DUP2 MSTORE PUSH1 0xA PUSH1 0x20 MSTORE PUSH1 0x40 SWAP1 KECCAK256 SLOAD SWAP1 JUMP JUMPDEST CALLVALUE DUP1 ISZERO PUSH2 0x593 JUMPI PUSH1 0x0 DUP1 REVERT JUMPDEST POP PUSH2 0x354 PUSH2 0x5A2 CALLDATASIZE PUSH1 0x4 PUSH2 0x5726 JUMP JUMPDEST PUSH2 0x1004 JUMP JUMPDEST CALLVALUE DUP1 ISZERO PUSH2 0x5B3 JUMPI PUSH1 0x0 DUP1 REVERT JUMPDEST POP PUSH1 0x5 SLOAD PUSH1 0x1 PUSH1 0x1 PUSH1 0xA0 SHL SUB AND PUSH2 0x3C1 JUMP JUMPDEST CALLVALUE DUP1 ISZERO PUSH2 0x5D1 JUMPI PUSH1 0x0 DUP1 REVERT JUMPDEST POP PUSH2 0x324 PUSH2 0x5E0 CALLDATASIZE PUSH1 0x4 PUSH2 0x5564 JUMP JUMPDEST PUSH2 0x12DC JUMP JUMPDEST CALLVALUE DUP1 ISZERO PUSH2 0x5F1 JUMPI PUSH1 0x0 DUP1 REVERT JUMPDEST POP PUSH2 0x38B PUSH2 0x12FE JUMP JUMPDEST CALLVALUE DUP1 ISZERO PUSH2 0x606 JUMPI PUSH1 0x0 DUP1 REVERT JUMPDEST POP PUSH2 0x644 PUSH2 0x615 CALLDATASIZE PUSH1 0x4 PUSH2 0x5752 JUMP JUMPDEST PUSH1 0xC PUSH1 0x20 SWAP1 DUP2 MSTORE PUSH1 0x0 SWAP3 DUP4 MSTORE PUSH1 0x40 DUP1 DUP5 KECCAK256 SWAP1 SWAP2 MSTORE SWAP1 DUP3 MSTORE SWAP1 KECCAK256 SLOAD PUSH5 0xFFFFFFFFFF DUP1 DUP3 AND SWAP2 PUSH1 0x1 PUSH1 0x28 SHL SWAP1 DIV AND DUP3 JUMP JUMPDEST PUSH1 0x40 DUP1 MLOAD PUSH5 0xFFFFFFFFFF SWAP4 DUP5 AND DUP2 MSTORE SWAP3 SWAP1 SWAP2 AND PUSH1 0x20 DUP4 ADD MSTORE ADD PUSH2 0x2FB JUMP JUMPDEST CALLVALUE DUP1 ISZERO PUSH2 0x66E JUMPI PUSH1 0x0 DUP1 REVERT JUMPDEST POP PUSH2 0x682 PUSH2 0x67D CALLDATASIZE PUSH1 0x4 PUSH2 0x56F6 JUMP JUMPDEST PUSH2 0x1325 JUMP JUMPDEST PUSH1 0x40 MLOAD PUSH2 0x2FB SWAP2 SWAP1 PUSH2 0x5775 JUMP JUMPDEST CALLVALUE DUP1 ISZERO PUSH2 0x69B JUMPI PUSH1 0x0 DUP1 REVERT JUMPDEST POP PUSH2 0x354 PUSH2 0x6AA CALLDATASIZE PUSH1 0x4 PUSH2 0x56D4 JUMP JUMPDEST PUSH2 0x13FE JUMP JUMPDEST CALLVALUE DUP1 ISZERO PUSH2 0x6BB JUMPI PUSH1 0x0 DUP1 REVERT JUMPDEST POP PUSH2 0x38B PUSH2 0x14A8 JUMP JUMPDEST CALLVALUE DUP1 ISZERO PUSH2 0x6D0 JUMPI PUSH1 0x0 DUP1 REVERT JUMPDEST POP PUSH2 0x354 PUSH2 0x6DF CALLDATASIZE PUSH1 0x4 PUSH2 0x579D JUMP JUMPDEST PUSH2 0x14B2 JUMP JUMPDEST CALLVALUE DUP1 ISZERO PUSH2 0x6F0 JUMPI PUSH1 0x0 DUP1 REVERT JUMPDEST POP PUSH2 0x354 PUSH2 0x6FF CALLDATASIZE PUSH1 0x4 PUSH2 0x58B6 JUMP JUMPDEST PUSH2 0x17BE JUMP JUMPDEST CALLVALUE DUP1 ISZERO PUSH2 0x710 JUMPI PUSH1 0x0 DUP1 REVERT JUMPDEST POP PUSH2 0x724 PUSH2 0x71F CALLDATASIZE PUSH1 0x4 PUSH2 0x56D4 JUMP JUMPDEST PUSH2 0x17C8 JUMP JUMPDEST PUSH1 0x40 MLOAD PUSH2 0x2FB SWAP2 SWAP1 PUSH2 0x58E4 JUMP JUMPDEST CALLVALUE DUP1 ISZERO PUSH2 0x73D JUMPI PUSH1 0x0 DUP1 REVERT JUMPDEST POP PUSH2 0x38B PUSH2 0x74C CALLDATASIZE PUSH1 0x4 PUSH2 0x56F6 JUMP JUMPDEST PUSH1 0x1 PUSH1 0x1 PUSH1 0xA0 SHL SUB AND PUSH1 0x0 SWAP1 DUP2 MSTORE PUSH1 0x20 DUP2 SWAP1 MSTORE PUSH1 0x40 SWAP1 KECCAK256 SLOAD SWAP1 JUMP JUMPDEST CALLVALUE DUP1 ISZERO PUSH2 0x773 JUMPI PUSH1 0x0 DUP1 REVERT JUMPDEST POP PUSH2 0x324 PUSH2 0x782 CALLDATASIZE PUSH1 0x4 PUSH2 0x5940 JUMP JUMPDEST PUSH1 0x8 PUSH1 0x20 MSTORE PUSH1 0x0 SWAP1 DUP2 MSTORE PUSH1 0x40 SWAP1 KECCAK256 SLOAD PUSH1 0xFF AND DUP2 JUMP JUMPDEST CALLVALUE DUP1 ISZERO PUSH2 0x7A3 JUMPI PUSH1 0x0 DUP1 REVERT JUMPDEST POP PUSH2 0x38B PUSH2 0x7B2 CALLDATASIZE PUSH1 0x4 PUSH2 0x595B JUMP JUMPDEST PUSH1 0xB PUSH1 0x20 MSTORE PUSH1 0x0 SWAP1 DUP2 MSTORE PUSH1 0x40 SWAP1 KECCAK256 SLOAD DUP2 JUMP JUMPDEST CALLVALUE DUP1 ISZERO PUSH2 0x7D0 JUMPI PUSH1 0x0 DUP1 REVERT JUMPDEST POP PUSH2 0x38B PUSH2 0x7DF CALLDATASIZE PUSH1 0x4 PUSH2 0x595B JUMP JUMPDEST PUSH2 0x1913 JUMP JUMPDEST CALLVALUE DUP1 ISZERO PUSH2 0x7F0 JUMPI PUSH1 0x0 DUP1 REVERT JUMPDEST POP PUSH2 0x354 PUSH2 0x7FF CALLDATASIZE PUSH1 0x4 PUSH2 0x56F6 JUMP JUMPDEST PUSH2 0x1A3B JUMP JUMPDEST CALLVALUE DUP1 ISZERO PUSH2 0x810 JUMPI PUSH1 0x0 DUP1 REVERT JUMPDEST POP PUSH2 0x324 PUSH2 0x81F CALLDATASIZE PUSH1 0x4 PUSH2 0x5974 JUMP JUMPDEST PUSH2 0x1AC5 JUMP JUMPDEST CALLVALUE DUP1 ISZERO PUSH2 0x830 JUMPI PUSH1 0x0 DUP1 REVERT JUMPDEST POP PUSH2 0x354 PUSH2 0x83F CALLDATASIZE PUSH1 0x4 PUSH2 0x595B JUMP JUMPDEST PUSH2 0x1BCC JUMP JUMPDEST CALLVALUE DUP1 ISZERO PUSH2 0x850 JUMPI PUSH1 0x0 DUP1 REVERT JUMPDEST POP PUSH2 0x898 PUSH2 0x85F CALLDATASIZE PUSH1 0x4 PUSH2 0x595B JUMP JUMPDEST PUSH1 0x9 PUSH1 0x20 MSTORE PUSH1 0x0 SWAP1 DUP2 MSTORE PUSH1 0x40 SWAP1 KECCAK256 SLOAD PUSH1 0x1 PUSH1 0x1 PUSH1 0x48 SHL SUB DUP1 DUP3 AND SWAP2 PUSH1 0x1 PUSH1 0x48 SHL DUP2 DIV SWAP1 SWAP2 AND SWAP1 PUSH1 0x1 PUSH1 0x90 SHL SWAP1 DIV PUSH7 0xFFFFFFFFFFFFFF AND DUP4 JUMP JUMPDEST PUSH1 0x40 DUP1 MLOAD PUSH1 0x1 PUSH1 0x1 PUSH1 0x48 SHL SUB SWAP5 DUP6 AND DUP2 MSTORE SWAP4 SWAP1 SWAP3 AND PUSH1 0x20 DUP5 ADD MSTORE PUSH7 0xFFFFFFFFFFFFFF AND SWAP1 DUP3 ADD MSTORE PUSH1 0x60 ADD PUSH2 0x2FB JUMP JUMPDEST CALLVALUE DUP1 ISZERO PUSH2 0x8D3 JUMPI PUSH1 0x0 DUP1 REVERT JUMPDEST POP PUSH2 0x2EE PUSH2 0x1CC4 JUMP JUMPDEST CALLVALUE DUP1 ISZERO PUSH2 0x8E8 JUMPI PUSH1 0x0 DUP1 REVERT JUMPDEST POP PUSH2 0x38B PUSH2 0x8F7 CALLDATASIZE PUSH1 0x4 PUSH2 0x59CE JUMP JUMPDEST PUSH2 0x1CD3 JUMP JUMPDEST CALLVALUE DUP1 ISZERO PUSH2 0x908 JUMPI PUSH1 0x0 DUP1 REVERT JUMPDEST POP PUSH2 0x38B PUSH2 0x917 CALLDATASIZE PUSH1 0x4 PUSH2 0x56D4 JUMP JUMPDEST PUSH2 0x1FB9 JUMP JUMPDEST CALLVALUE DUP1 ISZERO PUSH2 0x928 JUMPI PUSH1 0x0 DUP1 REVERT JUMPDEST POP PUSH2 0x324 PUSH2 0x937 CALLDATASIZE PUSH1 0x4 PUSH2 0x5564 JUMP JUMPDEST PUSH2 0x206C JUMP JUMPDEST CALLVALUE DUP1 ISZERO PUSH2 0x948 JUMPI PUSH1 0x0 DUP1 REVERT JUMPDEST POP PUSH2 0x324 PUSH2 0x957 CALLDATASIZE PUSH1 0x4 PUSH2 0x5564 JUMP JUMPDEST PUSH2 0x20F2 JUMP JUMPDEST CALLVALUE DUP1 ISZERO PUSH2 0x968 JUMPI PUSH1 0x0 DUP1 REVERT JUMPDEST POP PUSH1 0x5 SLOAD PUSH2 0x3C1 SWAP1 PUSH1 0x1 PUSH1 0x1 PUSH1 0xA0 SHL SUB AND DUP2 JUMP JUMPDEST CALLVALUE DUP1 ISZERO PUSH2 0x988 JUMPI PUSH1 0x0 DUP1 REVERT JUMPDEST POP PUSH2 0x99C PUSH2 0x997 CALLDATASIZE PUSH1 0x4 PUSH2 0x5564 JUMP JUMPDEST PUSH2 0x2100 JUMP JUMPDEST PUSH1 0x40 DUP1 MLOAD SWAP3 DUP4 MSTORE PUSH1 0x1 PUSH1 0x1 PUSH1 0xA0 SHL SUB SWAP1 SWAP2 AND PUSH1 0x20 DUP4 ADD MSTORE ADD PUSH2 0x2FB JUMP JUMPDEST CALLVALUE DUP1 ISZERO PUSH2 0x9C5 JUMPI PUSH1 0x0 DUP1 REVERT JUMPDEST POP PUSH1 0x6 SLOAD PUSH1 0x7 SLOAD PUSH2 0xA2C SWAP2 PUSH1 0x1 PUSH1 0x1 PUSH1 0x48 SHL SUB DUP1 DUP3 AND SWAP3 PUSH1 0x1 PUSH1 0x48 SHL DUP4 DIV DUP3 AND SWAP3 PUSH5 0xFFFFFFFFFF PUSH1 0x1 PUSH1 0x90 SHL DUP3 DIV DUP2 AND SWAP4 PUSH1 0x1 PUSH1 0xB8 SHL SWAP1 SWAP3 DIV DUP3 AND SWAP3 PUSH2 0xFFFF DUP2 AND SWAP3 PUSH3 0x10000 DUP3 DIV AND SWAP2 PUSH1 0x1 PUSH1 0x58 SHL DUP3 DIV AND SWAP1 PUSH1 0x1 PUSH1 0x1 PUSH1 0x80 SHL SUB PUSH1 0x1 PUSH1 0x80 SHL SWAP1 SWAP2 DIV AND DUP9 JUMP JUMPDEST PUSH1 0x40 DUP1 MLOAD PUSH1 0x1 PUSH1 0x1 PUSH1 0x48 SHL SUB SWAP10 DUP11 AND DUP2 MSTORE SWAP8 DUP10 AND PUSH1 0x20 DUP10 ADD MSTORE PUSH5 0xFFFFFFFFFF SWAP7 DUP8 AND SWAP1 DUP9 ADD MSTORE SWAP4 DUP8 AND PUSH1 0x60 DUP8 ADD MSTORE PUSH2 0xFFFF SWAP1 SWAP3 AND PUSH1 0x80 DUP7 ADD MSTORE SWAP5 SWAP1 SWAP5 AND PUSH1 0xA0 DUP5 ADD MSTORE SWAP3 AND PUSH1 0xC0 DUP3 ADD MSTORE PUSH1 0x1 PUSH1 0x1 PUSH1 0x80 SHL SUB SWAP1 SWAP2 AND PUSH1 0xE0 DUP3 ADD MSTORE PUSH2 0x100 ADD PUSH2 0x2FB JUMP JUMPDEST CALLVALUE DUP1 ISZERO PUSH2 0xA9A JUMPI PUSH1 0x0 DUP1 REVERT JUMPDEST POP PUSH2 0x354 PUSH2 0xAA9 CALLDATASIZE PUSH1 0x4 PUSH2 0x56D4 JUMP JUMPDEST PUSH2 0x21C6 JUMP JUMPDEST CALLVALUE DUP1 ISZERO PUSH2 0xABA JUMPI PUSH1 0x0 DUP1 REVERT JUMPDEST POP PUSH2 0x3C1 PUSH32 0x0 DUP2 JUMP JUMPDEST PUSH2 0x354 PUSH2 0xAF0 CALLDATASIZE PUSH1 0x4 PUSH2 0x56F6 JUMP JUMPDEST PUSH2 0x24D3 JUMP JUMPDEST CALLVALUE DUP1 ISZERO PUSH2 0xB01 JUMPI PUSH1 0x0 DUP1 REVERT JUMPDEST POP PUSH2 0x324 PUSH2 0xB10 CALLDATASIZE PUSH1 0x4 PUSH2 0x5A91 JUMP JUMPDEST PUSH2 0x266F JUMP JUMPDEST CALLVALUE DUP1 ISZERO PUSH2 0xB21 JUMPI PUSH1 0x0 DUP1 REVERT JUMPDEST POP PUSH2 0x38B PUSH2 0xB30 CALLDATASIZE PUSH1 0x4 PUSH2 0x5B05 JUMP JUMPDEST PUSH2 0x2789 JUMP JUMPDEST CALLVALUE DUP1 ISZERO PUSH2 0xB41 JUMPI PUSH1 0x0 DUP1 REVERT JUMPDEST POP PUSH2 0x324 PUSH2 0xB50 CALLDATASIZE PUSH1 0x4 PUSH2 0x5974 JUMP JUMPDEST PUSH2 0x27B4 JUMP JUMPDEST CALLVALUE DUP1 ISZERO PUSH2 0xB61 JUMPI PUSH1 0x0 DUP1 REVERT JUMPDEST POP PUSH2 0xB6A PUSH2 0x27FD JUMP JUMPDEST PUSH1 0x40 MLOAD PUSH2 0x2FB SWAP2 SWAP1 PUSH2 0x5B2F JUMP JUMPDEST CALLVALUE DUP1 ISZERO PUSH2 0xB83 JUMPI PUSH1 0x0 DUP1 REVERT JUMPDEST POP PUSH2 0x724 PUSH2 0xB92 CALLDATASIZE PUSH1 0x4 PUSH2 0x56D4 JUMP JUMPDEST PUSH2 0x28FF JUMP JUMPDEST PUSH1 0x60 PUSH1 0x3 DUP1 SLOAD PUSH2 0xBA6 SWAP1 PUSH2 0x5B58 JUMP JUMPDEST DUP1 PUSH1 0x1F ADD PUSH1 0x20 DUP1 SWAP2 DIV MUL PUSH1 0x20 ADD PUSH1 0x40 MLOAD SWAP1 DUP2 ADD PUSH1 0x40 MSTORE DUP1 SWAP3 SWAP2 SWAP1 DUP2 DUP2 MSTORE PUSH1 0x20 ADD DUP3 DUP1 SLOAD PUSH2 0xBD2 SWAP1 PUSH2 0x5B58 JUMP JUMPDEST DUP1 ISZERO PUSH2 0xC1F JUMPI DUP1 PUSH1 0x1F LT PUSH2 0xBF4 JUMPI PUSH2 0x100 DUP1 DUP4 SLOAD DIV MUL DUP4 MSTORE SWAP2 PUSH1 0x20 ADD SWAP2 PUSH2 0xC1F JUMP JUMPDEST DUP3 ADD SWAP2 SWAP1 PUSH1 0x0 MSTORE PUSH1 0x20 PUSH1 0x0 KECCAK256 SWAP1 JUMPDEST DUP2 SLOAD DUP2 MSTORE SWAP1 PUSH1 0x1 ADD SWAP1 PUSH1 0x20 ADD DUP1 DUP4 GT PUSH2 0xC02 JUMPI DUP3 SWAP1 SUB PUSH1 0x1F AND DUP3 ADD SWAP2 JUMPDEST POP POP POP POP POP SWAP1 POP SWAP1 JUMP JUMPDEST PUSH1 0x0 CALLER PUSH2 0xC37 DUP2 DUP6 DUP6 PUSH2 0x2A25 JUMP JUMPDEST PUSH1 0x1 SWAP2 POP POP JUMPDEST SWAP3 SWAP2 POP POP JUMP JUMPDEST PUSH1 0x5 SLOAD PUSH1 0x1 PUSH1 0x1 PUSH1 0xA0 SHL SUB DUP3 DUP2 AND SWAP2 AND EQ PUSH2 0xCA5 JUMPI PUSH1 0x40 MLOAD PUSH3 0x461BCD PUSH1 0xE5 SHL DUP2 MSTORE PUSH1 0x20 PUSH1 0x4 DUP3 ADD MSTORE PUSH1 0x19 PUSH1 0x24 DUP3 ADD MSTORE PUSH32 0x43616C6C6572206973206E6F7420544220636F6E747261637400000000000000 PUSH1 0x44 DUP3 ADD MSTORE PUSH1 0x64 ADD JUMPDEST PUSH1 0x40 MLOAD DUP1 SWAP2 SUB SWAP1 REVERT JUMPDEST PUSH2 0xCAF DUP4 DUP4 PUSH2 0x2B49 JUMP JUMPDEST POP POP POP JUMP JUMPDEST CALLER PUSH1 0x1 PUSH1 0x1 PUSH1 0xA0 SHL SUB PUSH32 0x0 AND EQ PUSH2 0xD25 JUMPI PUSH1 0x40 MLOAD PUSH3 0x461BCD PUSH1 0xE5 SHL DUP2 MSTORE PUSH1 0x20 PUSH1 0x4 DUP3 ADD MSTORE PUSH1 0x16 PUSH1 0x24 DUP3 ADD MSTORE PUSH22 0x2737BA103A34329031B7B73A3930B1BA1037BBB732B9 PUSH1 0x51 SHL PUSH1 0x44 DUP3 ADD MSTORE PUSH1 0x64 ADD PUSH2 0xC9C JUMP JUMPDEST PUSH2 0xD2F DUP3 DUP3 PUSH2 0x2B49 JUMP JUMPDEST POP POP JUMP JUMPDEST PUSH2 0x2710 PUSH4 0x5F5E100 PUSH2 0xD47 PUSH1 0x8 PUSH1 0xA PUSH2 0x5C86 JUMP JUMPDEST PUSH2 0xD51 SWAP2 SWAP1 PUSH2 0x5C92 JUMP JUMPDEST PUSH2 0xD5B SWAP2 SWAP1 PUSH2 0x5CB4 JUMP JUMPDEST DUP2 JUMP JUMPDEST PUSH1 0x0 CALLER PUSH2 0xD6C DUP6 DUP3 DUP6 PUSH2 0x2C08 JUMP JUMPDEST PUSH2 0xD77 DUP6 DUP6 DUP6 PUSH2 0x2C7C JUMP JUMPDEST PUSH1 0x1 SWAP2 POP POP JUMPDEST SWAP4 SWAP3 POP POP POP JUMP JUMPDEST PUSH1 0xA PUSH1 0x20 MSTORE DUP2 PUSH1 0x0 MSTORE PUSH1 0x40 PUSH1 0x0 KECCAK256 DUP2 DUP2 SLOAD DUP2 LT PUSH2 0xDA0 JUMPI PUSH1 0x0 DUP1 REVERT JUMPDEST PUSH1 0x0 SWAP2 DUP3 MSTORE PUSH1 0x20 SWAP1 SWAP2 KECCAK256 ADD SLOAD PUSH5 0xFFFFFFFFFF DUP2 AND SWAP3 POP PUSH1 0x1 PUSH1 0x1 PUSH1 0x48 SHL SUB PUSH1 0x1 PUSH1 0x28 SHL DUP3 DIV DUP2 AND SWAP3 POP PUSH1 0x1 PUSH1 0x70 SHL DUP3 DIV AND SWAP1 PUSH2 0xFFFF PUSH1 0x1 PUSH1 0xB8 SHL DUP3 DIV DUP2 AND SWAP2 PUSH1 0x1 PUSH1 0xC8 SHL DUP2 DIV DUP3 AND SWAP2 PUSH1 0x1 PUSH1 0xD8 SHL DUP3 DIV AND SWAP1 PUSH1 0xFF PUSH1 0x1 PUSH1 0xE8 SHL SWAP1 SWAP2 DIV AND DUP8 JUMP JUMPDEST PUSH1 0x0 PUSH2 0xE3F DUP5 DUP5 DUP5 DUP1 DUP1 PUSH1 0x20 MUL PUSH1 0x20 ADD PUSH1 0x40 MLOAD SWAP1 DUP2 ADD PUSH1 0x40 MSTORE DUP1 SWAP4 SWAP3 SWAP2 SWAP1 DUP2 DUP2 MSTORE PUSH1 0x20 ADD DUP4 DUP4 PUSH1 0x20 MUL DUP1 DUP3 DUP5 CALLDATACOPY PUSH1 0x0 SWAP3 ADD SWAP2 SWAP1 SWAP2 MSTORE POP PUSH2 0x2E20 SWAP3 POP POP POP JUMP JUMPDEST SWAP5 SWAP4 POP POP POP POP JUMP JUMPDEST PUSH1 0x0 DUP1 PUSH1 0x60 PUSH1 0x2 DUP5 AND ISZERO DUP1 ISZERO SWAP1 PUSH1 0x4 DUP7 AND ISZERO ISZERO SWAP1 PUSH1 0x8 DUP8 AND ISZERO ISZERO SWAP1 PUSH2 0xF0C JUMPI DUP2 DUP1 ISZERO PUSH2 0xE70 JUMPI POP DUP1 JUMPDEST ISZERO PUSH2 0xEB8 JUMPI PUSH1 0x40 MLOAD PUSH3 0x461BCD PUSH1 0xE5 SHL DUP2 MSTORE PUSH1 0x20 PUSH1 0x4 DUP3 ADD MSTORE PUSH1 0x18 PUSH1 0x24 DUP3 ADD MSTORE PUSH24 0x135653950E8818DB185A5B519B1859DCC81A5B9D985B1A59 PUSH1 0x42 SHL PUSH1 0x44 DUP3 ADD MSTORE PUSH1 0x64 ADD PUSH2 0xC9C JUMP JUMPDEST PUSH1 0x1 PUSH1 0xF8 SHL PUSH1 0xF8 DUP10 SWAP1 SHL AND ISZERO PUSH2 0xECF JUMPI PUSH1 0x3 PUSH2 0xED2 JUMP JUMPDEST PUSH1 0x2 JUMPDEST PUSH1 0x40 MLOAD PUSH1 0x1 PUSH1 0x1 PUSH1 0xF8 SHL SUB NOT PUSH1 0xF8 DUP4 SWAP1 SHL AND PUSH1 0x20 DUP3 ADD MSTORE PUSH1 0x21 DUP2 ADD DUP12 SWAP1 MSTORE SWAP1 SWAP6 POP PUSH1 0x41 ADD PUSH1 0x40 MLOAD PUSH1 0x20 DUP2 DUP4 SUB SUB DUP2 MSTORE SWAP1 PUSH1 0x40 MSTORE SWAP4 POP PUSH2 0xF93 JUMP JUMPDEST DUP2 ISZERO DUP1 ISZERO PUSH2 0xF18 JUMPI POP DUP1 ISZERO JUMPDEST PUSH2 0xF5F JUMPI PUSH1 0x40 MLOAD PUSH3 0x461BCD PUSH1 0xE5 SHL DUP2 MSTORE PUSH1 0x20 PUSH1 0x4 DUP3 ADD MSTORE PUSH1 0x18 PUSH1 0x24 DUP3 ADD MSTORE PUSH24 0x135653950E8818DB185A5B519B1859DCC81A5B9D985B1A59 PUSH1 0x42 SHL PUSH1 0x44 DUP3 ADD MSTORE PUSH1 0x64 ADD PUSH2 0xC9C JUMP JUMPDEST PUSH1 0x40 MLOAD PUSH1 0x1 PUSH1 0xFA SHL PUSH1 0x20 DUP3 ADD MSTORE PUSH1 0x21 DUP2 ADD DUP11 SWAP1 MSTORE PUSH1 0x41 DUP2 ADD DUP10 SWAP1 MSTORE PUSH1 0x4 SWAP6 POP PUSH1 0x61 ADD PUSH1 0x40 MLOAD PUSH1 0x20 DUP2 DUP4 SUB SUB DUP2 MSTORE SWAP1 PUSH1 0x40 MSTORE SWAP4 POP JUMPDEST PUSH1 0x0 PUSH2 0xF9E DUP6 PUSH2 0x2E4D JUMP JUMPDEST SWAP1 POP DUP3 ISZERO PUSH2 0xFEB JUMPI PUSH1 0x40 MLOAD PUSH1 0x5 PUSH1 0xF2 SHL PUSH1 0x20 DUP3 ADD MSTORE PUSH1 0x1 PUSH1 0x1 PUSH1 0x60 SHL SUB NOT DUP3 AND PUSH1 0x22 DUP3 ADD MSTORE PUSH2 0xFDE SWAP1 PUSH1 0x36 ADD PUSH1 0x40 MLOAD PUSH1 0x20 DUP2 DUP4 SUB SUB DUP2 MSTORE SWAP1 PUSH1 0x40 MSTORE PUSH2 0x2E4D JUMP JUMPDEST SWAP7 POP POP POP POP POP POP POP PUSH2 0xD7D JUMP JUMPDEST SWAP10 SWAP9 POP POP POP POP POP POP POP POP POP JUMP JUMPDEST PUSH2 0xD5B PUSH1 0x32 PUSH1 0x7 PUSH2 0x5CB4 JUMP JUMPDEST PUSH2 0x100C PUSH2 0x5406 JUMP JUMPDEST PUSH2 0x1014 PUSH2 0x5406 JUMP JUMPDEST PUSH2 0x101E DUP3 DUP3 PUSH2 0x2EFA JUMP JUMPDEST CALLER PUSH1 0x0 SWAP1 DUP2 MSTORE PUSH1 0xA PUSH1 0x20 MSTORE PUSH1 0x40 DUP2 KECCAK256 DUP1 SLOAD SWAP1 SWAP2 SUB PUSH2 0x1077 JUMPI PUSH1 0x40 MLOAD PUSH3 0x461BCD PUSH1 0xE5 SHL DUP2 MSTORE PUSH1 0x20 PUSH1 0x4 DUP3 ADD MSTORE PUSH1 0x16 PUSH1 0x24 DUP3 ADD MSTORE PUSH22 0x135653950E88115B5C1D1E481CDD185AD9481B1A5CDD PUSH1 0x52 SHL PUSH1 0x44 DUP3 ADD MSTORE PUSH1 0x64 ADD PUSH2 0xC9C JUMP JUMPDEST DUP1 SLOAD DUP6 LT PUSH2 0x10C2 JUMPI PUSH1 0x40 MLOAD PUSH3 0x461BCD PUSH1 0xE5 SHL DUP2 MSTORE PUSH1 0x20 PUSH1 0x4 DUP3 ADD MSTORE PUSH1 0x18 PUSH1 0x24 DUP3 ADD MSTORE PUSH24 0x135653950E881CDD185AD9525B99195E081A5B9D985B1A59 PUSH1 0x42 SHL PUSH1 0x44 DUP3 ADD MSTORE PUSH1 0x64 ADD PUSH2 0xC9C JUMP JUMPDEST PUSH2 0x10CA PUSH2 0x5467 JUMP JUMPDEST PUSH2 0x10F0 DUP3 DUP8 DUP2 SLOAD DUP2 LT PUSH2 0x10DF JUMPI PUSH2 0x10DF PUSH2 0x5CCB JUMP JUMPDEST SWAP1 PUSH1 0x0 MSTORE PUSH1 0x20 PUSH1 0x0 KECCAK256 ADD DUP7 DUP4 PUSH2 0x2FA8 JUMP JUMPDEST PUSH2 0x10F9 DUP5 PUSH2 0x3076 JUMP JUMPDEST PUSH1 0x0 DUP1 DUP3 PUSH1 0xA0 ADD MLOAD PUSH1 0x0 EQ ISZERO SWAP1 POP PUSH1 0x0 DUP1 PUSH1 0x0 SWAP1 POP PUSH1 0x0 DUP1 DUP7 PUSH1 0x60 ADD MLOAD DUP11 PUSH2 0x140 ADD MLOAD LT PUSH2 0x11E2 JUMPI DUP5 ISZERO PUSH2 0x1133 JUMPI DUP7 PUSH1 0x80 ADD MLOAD SWAP6 POP PUSH2 0x11C8 JUMP JUMPDEST PUSH2 0x113D DUP11 DUP9 PUSH2 0x308A JUMP JUMPDEST DUP7 PUSH1 0x60 ADD MLOAD DUP11 PUSH2 0x140 ADD MLOAD PUSH2 0x1152 SWAP2 SWAP1 PUSH2 0x5CE1 JUMP JUMPDEST SWAP6 POP DUP7 PUSH1 0x80 ADD MLOAD DUP7 GT ISZERO PUSH2 0x116C JUMPI DUP7 PUSH1 0x80 ADD MLOAD SWAP6 POP PUSH2 0x11C8 JUMP JUMPDEST PUSH2 0x15E DUP7 LT ISZERO PUSH2 0x11C8 JUMPI DUP7 PUSH1 0xC0 ADD MLOAD ISZERO PUSH2 0x11C8 JUMPI PUSH1 0x40 MLOAD PUSH3 0x461BCD PUSH1 0xE5 SHL DUP2 MSTORE PUSH1 0x20 PUSH1 0x4 DUP3 ADD MSTORE PUSH1 0x1D PUSH1 0x24 DUP3 ADD MSTORE PUSH32 0x4D594E543A204175746F2D7374616B65207374696C6C206C6F636B6564000000 PUSH1 0x44 DUP3 ADD MSTORE PUSH1 0x64 ADD PUSH2 0xC9C JUMP JUMPDEST PUSH2 0x11D3 DUP11 DUP9 DUP9 PUSH2 0x30B2 JUMP JUMPDEST SWAP3 SWAP7 POP SWAP1 SWAP5 POP SWAP3 POP SWAP1 POP PUSH2 0x1255 JUMP JUMPDEST DUP7 PUSH1 0xC0 ADD MLOAD ISZERO PUSH2 0x1234 JUMPI PUSH1 0x40 MLOAD PUSH3 0x461BCD PUSH1 0xE5 SHL DUP2 MSTORE PUSH1 0x20 PUSH1 0x4 DUP3 ADD MSTORE PUSH1 0x1D PUSH1 0x24 DUP3 ADD MSTORE PUSH32 0x4D594E543A204175746F2D7374616B65207374696C6C206C6F636B6564000000 PUSH1 0x44 DUP3 ADD MSTORE PUSH1 0x64 ADD PUSH2 0xC9C JUMP JUMPDEST DUP7 PUSH1 0x40 ADD MLOAD DUP11 PUSH1 0x20 ADD DUP2 DUP2 MLOAD PUSH2 0x124A SWAP2 SWAP1 PUSH2 0x5CE1 JUMP JUMPDEST SWAP1 MSTORE POP PUSH1 0x20 DUP8 ADD MLOAD SWAP4 POP JUMPDEST PUSH2 0x126C DUP12 DUP9 PUSH1 0x20 ADD MLOAD DUP10 PUSH1 0x40 ADD MLOAD DUP7 DUP7 DUP12 DUP12 PUSH2 0x3176 JUMP JUMPDEST DUP1 ISZERO DUP1 ISZERO SWAP1 PUSH2 0x1279 JUMPI POP DUP5 ISZERO JUMPDEST ISZERO PUSH2 0x1288 JUMPI PUSH2 0x1288 DUP11 DUP3 PUSH2 0x3236 JUMP JUMPDEST DUP4 ISZERO PUSH2 0x12A3 JUMPI PUSH2 0x1298 CALLER DUP6 PUSH2 0x2B49 JUMP JUMPDEST PUSH2 0x12A3 DUP11 DUP9 DUP7 PUSH2 0x328F JUMP JUMPDEST PUSH1 0x20 DUP8 ADD MLOAD DUP11 MLOAD DUP12 SWAP1 PUSH2 0x12B7 SWAP1 DUP4 SWAP1 PUSH2 0x5CE1 JUMP JUMPDEST SWAP1 MSTORE POP PUSH2 0x12C4 DUP9 DUP14 PUSH2 0x3322 JUMP JUMPDEST PUSH2 0x12CE DUP11 DUP11 PUSH2 0x34B7 JUMP JUMPDEST POP POP POP POP POP POP POP POP POP POP POP POP JUMP JUMPDEST PUSH1 0x0 CALLER PUSH2 0xC37 DUP2 DUP6 DUP6 PUSH2 0x12EF DUP4 DUP4 PUSH2 0x2789 JUMP JUMPDEST PUSH2 0x12F9 SWAP2 SWAP1 PUSH2 0x5CF4 JUMP JUMPDEST PUSH2 0x2A25 JUMP JUMPDEST PUSH1 0x6 SLOAD PUSH1 0x0 SWAP1 PUSH1 0x1 PUSH1 0x1 PUSH1 0x48 SHL SUB AND PUSH2 0x1316 PUSH1 0x2 SLOAD SWAP1 JUMP JUMPDEST PUSH2 0x1320 SWAP2 SWAP1 PUSH2 0x5CF4 JUMP JUMPDEST SWAP1 POP SWAP1 JUMP JUMPDEST PUSH2 0x132D PUSH2 0x54AD JUMP JUMPDEST PUSH1 0x0 PUSH2 0x1337 PUSH2 0x3697 JUMP JUMPDEST PUSH2 0x1342 SWAP1 PUSH1 0x1 PUSH2 0x5CF4 JUMP JUMPDEST SWAP1 POP PUSH2 0x1350 PUSH1 0x32 PUSH1 0x7 PUSH2 0x5CB4 JUMP JUMPDEST PUSH2 0x135B SWAP1 PUSH1 0x1 PUSH2 0x5CF4 JUMP JUMPDEST DUP2 GT ISZERO PUSH2 0x137C JUMPI PUSH2 0x136E PUSH1 0x32 PUSH1 0x7 PUSH2 0x5CB4 JUMP JUMPDEST PUSH2 0x1379 SWAP1 PUSH1 0x1 PUSH2 0x5CF4 JUMP JUMPDEST SWAP1 POP JUMPDEST DUP1 ISZERO PUSH2 0x13F8 JUMPI PUSH1 0x0 DUP2 DUP2 MSTORE PUSH1 0xC PUSH1 0x20 SWAP1 DUP2 MSTORE PUSH1 0x40 DUP1 DUP4 KECCAK256 PUSH1 0x1 PUSH1 0x1 PUSH1 0xA0 SHL SUB DUP8 AND DUP5 MSTORE SWAP1 SWAP2 MSTORE SWAP1 KECCAK256 SLOAD PUSH5 0xFFFFFFFFFF DUP1 DUP3 AND PUSH1 0x1 PUSH1 0x28 SHL SWAP1 SWAP3 DIV AND GT ISZERO PUSH2 0x13E6 JUMPI PUSH1 0x1 PUSH1 0xFF DUP3 AND SHL DUP3 PUSH1 0x8 DUP4 SWAP1 SHR PUSH1 0x2 DUP2 LT PUSH2 0x13DA JUMPI PUSH2 0x13DA PUSH2 0x5CCB JUMP JUMPDEST PUSH1 0x20 MUL ADD DUP1 MLOAD SWAP1 SWAP2 OR SWAP1 MSTORE JUMPDEST DUP1 PUSH2 0x13F0 DUP2 PUSH2 0x5D07 JUMP JUMPDEST SWAP2 POP POP PUSH2 0x137C JUMP JUMPDEST POP SWAP2 SWAP1 POP JUMP JUMPDEST PUSH2 0x1406 PUSH2 0x5406 JUMP JUMPDEST PUSH2 0x140E PUSH2 0x5406 JUMP JUMPDEST PUSH2 0x1418 DUP3 DUP3 PUSH2 0x2EFA JUMP JUMPDEST PUSH1 0x1 DUP4 LT ISZERO PUSH2 0x1478 JUMPI PUSH1 0x40 MLOAD PUSH3 0x461BCD PUSH1 0xE5 SHL DUP2 MSTORE PUSH1 0x20 PUSH1 0x4 DUP3 ADD MSTORE PUSH1 0x26 PUSH1 0x24 DUP3 ADD MSTORE PUSH32 0x4D594E543A206E65775374616B656444617973206C6F776572207468616E206D PUSH1 0x44 DUP3 ADD MSTORE PUSH6 0x696E696D756D PUSH1 0xD0 SHL PUSH1 0x64 DUP3 ADD MSTORE PUSH1 0x84 ADD PUSH2 0xC9C JUMP JUMPDEST PUSH2 0x1481 DUP3 PUSH2 0x3076 JUMP JUMPDEST PUSH2 0x148E DUP3 DUP6 DUP6 PUSH1 0x0 PUSH2 0x36B3 JUMP JUMPDEST PUSH2 0x1498 CALLER DUP6 PUSH2 0x3988 JUMP JUMPDEST PUSH2 0x14A2 DUP3 DUP3 PUSH2 0x34B7 JUMP JUMPDEST POP POP POP POP JUMP JUMPDEST PUSH1 0x0 PUSH2 0x1320 PUSH2 0x3697 JUMP JUMPDEST PUSH2 0x14BA PUSH2 0x5406 JUMP JUMPDEST PUSH2 0x14C2 PUSH2 0x5406 JUMP JUMPDEST PUSH2 0x14CC DUP3 DUP3 PUSH2 0x2EFA JUMP JUMPDEST PUSH1 0x1 PUSH1 0x1 PUSH1 0xA0 SHL SUB DUP6 AND PUSH1 0x0 SWAP1 DUP2 MSTORE PUSH1 0xA PUSH1 0x20 MSTORE PUSH1 0x40 DUP2 KECCAK256 SLOAD SWAP1 SUB PUSH2 0x152C JUMPI PUSH1 0x40 MLOAD PUSH3 0x461BCD PUSH1 0xE5 SHL DUP2 MSTORE PUSH1 0x20 PUSH1 0x4 DUP3 ADD MSTORE PUSH1 0x16 PUSH1 0x24 DUP3 ADD MSTORE PUSH22 0x135653950E88115B5C1D1E481CDD185AD9481B1A5CDD PUSH1 0x52 SHL PUSH1 0x44 DUP3 ADD MSTORE PUSH1 0x64 ADD PUSH2 0xC9C JUMP JUMPDEST PUSH1 0x1 PUSH1 0x1 PUSH1 0xA0 SHL SUB DUP6 AND PUSH1 0x0 SWAP1 DUP2 MSTORE PUSH1 0xA PUSH1 0x20 MSTORE PUSH1 0x40 SWAP1 KECCAK256 SLOAD DUP5 LT PUSH2 0x158E JUMPI PUSH1 0x40 MLOAD PUSH3 0x461BCD PUSH1 0xE5 SHL DUP2 MSTORE PUSH1 0x20 PUSH1 0x4 DUP3 ADD MSTORE PUSH1 0x18 PUSH1 0x24 DUP3 ADD MSTORE PUSH24 0x135653950E881CDD185AD9525B99195E081A5B9D985B1A59 PUSH1 0x42 SHL PUSH1 0x44 DUP3 ADD MSTORE PUSH1 0x64 ADD PUSH2 0xC9C JUMP JUMPDEST PUSH1 0x1 PUSH1 0x1 PUSH1 0xA0 SHL SUB DUP6 AND PUSH1 0x0 SWAP1 DUP2 MSTORE PUSH1 0xA PUSH1 0x20 MSTORE PUSH1 0x40 DUP2 KECCAK256 DUP1 SLOAD DUP7 SWAP1 DUP2 LT PUSH2 0x15B8 JUMPI PUSH2 0x15B8 PUSH2 0x5CCB JUMP JUMPDEST SWAP1 PUSH1 0x0 MSTORE PUSH1 0x20 PUSH1 0x0 KECCAK256 ADD SWAP1 POP PUSH2 0x15CC PUSH2 0x5467 JUMP JUMPDEST PUSH2 0x15D7 DUP3 DUP7 DUP4 PUSH2 0x2FA8 JUMP JUMPDEST DUP1 PUSH1 0x80 ADD MLOAD DUP2 PUSH1 0x60 ADD MLOAD PUSH2 0x15EB SWAP2 SWAP1 PUSH2 0x5CF4 JUMP JUMPDEST DUP5 PUSH2 0x140 ADD MLOAD LT ISZERO PUSH2 0x163F JUMPI PUSH1 0x40 MLOAD PUSH3 0x461BCD PUSH1 0xE5 SHL DUP2 MSTORE PUSH1 0x20 PUSH1 0x4 DUP3 ADD MSTORE PUSH1 0x1C PUSH1 0x24 DUP3 ADD MSTORE PUSH32 0x4D594E543A205374616B65206E6F742066756C6C792073657276656400000000 PUSH1 0x44 DUP3 ADD MSTORE PUSH1 0x64 ADD PUSH2 0xC9C JUMP JUMPDEST PUSH1 0xA0 DUP2 ADD MLOAD ISZERO PUSH2 0x1691 JUMPI PUSH1 0x40 MLOAD PUSH3 0x461BCD PUSH1 0xE5 SHL DUP2 MSTORE PUSH1 0x20 PUSH1 0x4 DUP3 ADD MSTORE PUSH1 0x1C PUSH1 0x24 DUP3 ADD MSTORE PUSH32 0x4D594E543A205374616B6520616C726561647920756E6C6F636B656400000000 PUSH1 0x44 DUP3 ADD MSTORE PUSH1 0x64 ADD PUSH2 0xC9C JUMP JUMPDEST PUSH2 0x169A DUP5 PUSH2 0x3076 JUMP JUMPDEST PUSH2 0x16A4 DUP5 DUP3 PUSH2 0x308A JUMP JUMPDEST PUSH1 0x0 DUP1 PUSH1 0x0 PUSH2 0x16B8 DUP8 DUP6 DUP7 PUSH1 0x80 ADD MLOAD PUSH2 0x30B2 JUMP JUMPDEST SWAP4 POP SWAP4 POP SWAP4 POP POP PUSH2 0x16D5 DUP11 DUP10 DUP7 PUSH1 0x20 ADD MLOAD DUP8 PUSH1 0x40 ADD MLOAD DUP8 DUP8 PUSH2 0x3ABA JUMP JUMPDEST DUP1 ISZERO PUSH2 0x16E5 JUMPI PUSH2 0x16E5 DUP8 DUP3 PUSH2 0x3236 JUMP JUMPDEST DUP4 MLOAD DUP6 SLOAD PUSH1 0x20 DUP7 ADD MLOAD PUSH1 0x40 DUP8 ADD MLOAD PUSH1 0x60 DUP9 ADD MLOAD PUSH1 0x80 DUP10 ADD MLOAD PUSH1 0xA0 DUP11 ADD MLOAD PUSH1 0xC0 DUP12 ADD MLOAD PUSH5 0xFFFFFFFFFF SWAP1 SWAP8 AND PUSH1 0x1 PUSH1 0x1 PUSH1 0x70 SHL SUB NOT SWAP1 SWAP7 AND SWAP6 SWAP1 SWAP6 OR PUSH1 0x1 PUSH1 0x28 SHL PUSH1 0x1 PUSH1 0x1 PUSH1 0x48 SHL SUB SWAP6 DUP7 AND MUL OR PUSH1 0x1 PUSH1 0x70 SHL PUSH1 0x1 PUSH1 0xC8 SHL SUB NOT AND PUSH1 0x1 PUSH1 0x70 SHL SWAP5 SWAP1 SWAP4 AND SWAP4 SWAP1 SWAP4 MUL PUSH2 0xFFFF PUSH1 0xB8 SHL NOT AND SWAP2 SWAP1 SWAP2 OR PUSH1 0x1 PUSH1 0xB8 SHL PUSH2 0xFFFF SWAP3 DUP4 AND MUL OR PUSH4 0xFFFFFFFF PUSH1 0xC8 SHL NOT AND PUSH1 0x1 PUSH1 0xC8 SHL SWAP3 DUP3 AND SWAP3 SWAP1 SWAP3 MUL PUSH2 0xFFFF PUSH1 0xD8 SHL NOT AND SWAP2 SWAP1 SWAP2 OR PUSH1 0x1 PUSH1 0xD8 SHL SWAP2 SWAP1 SWAP3 AND MUL OR PUSH1 0xFF PUSH1 0xE8 SHL NOT AND PUSH1 0x1 PUSH1 0xE8 SHL SWAP2 ISZERO ISZERO SWAP2 SWAP1 SWAP2 MUL OR DUP6 SSTORE PUSH2 0x17B2 DUP8 DUP8 PUSH2 0x34B7 JUMP JUMPDEST POP POP POP POP POP POP POP POP POP POP JUMP JUMPDEST PUSH2 0xD2F DUP3 DUP3 PUSH2 0x2EFA JUMP JUMPDEST PUSH1 0x60 DUP2 DUP4 LT DUP1 ISZERO PUSH2 0x17DF JUMPI POP PUSH1 0x7 SLOAD PUSH2 0xFFFF AND DUP3 GT ISZERO JUMPDEST PUSH2 0x1821 JUMPI PUSH1 0x40 MLOAD PUSH3 0x461BCD PUSH1 0xE5 SHL DUP2 MSTORE PUSH1 0x20 PUSH1 0x4 DUP3 ADD MSTORE PUSH1 0x13 PUSH1 0x24 DUP3 ADD MSTORE PUSH19 0x135653950E881C985B99D9481A5B9D985B1A59 PUSH1 0x6A SHL PUSH1 0x44 DUP3 ADD MSTORE PUSH1 0x64 ADD PUSH2 0xC9C JUMP JUMPDEST PUSH2 0x182B DUP4 DUP4 PUSH2 0x5CE1 JUMP JUMPDEST PUSH8 0xFFFFFFFFFFFFFFFF DUP2 GT ISZERO PUSH2 0x1843 JUMPI PUSH2 0x1843 PUSH2 0x57D0 JUMP JUMPDEST PUSH1 0x40 MLOAD SWAP1 DUP1 DUP3 MSTORE DUP1 PUSH1 0x20 MUL PUSH1 0x20 ADD DUP3 ADD PUSH1 0x40 MSTORE DUP1 ISZERO PUSH2 0x186C JUMPI DUP2 PUSH1 0x20 ADD PUSH1 0x20 DUP3 MUL DUP1 CALLDATASIZE DUP4 CALLDATACOPY ADD SWAP1 POP JUMPDEST POP SWAP1 POP DUP3 PUSH1 0x0 DUP1 JUMPDEST PUSH2 0x1880 PUSH1 0x48 PUSH1 0x2 PUSH2 0x5CB4 JUMP JUMPDEST PUSH1 0x0 DUP5 DUP2 MSTORE PUSH1 0x9 PUSH1 0x20 MSTORE PUSH1 0x40 SWAP1 KECCAK256 SLOAD PUSH1 0x1 PUSH1 0x90 SHL DUP2 DIV PUSH7 0xFFFFFFFFFFFFFF AND SWAP1 SWAP2 SHL PUSH1 0x1 PUSH1 0x48 SHL DUP3 DIV PUSH1 0x48 SHL PUSH18 0xFFFFFFFFFFFFFFFFFF000000000000000000 AND OR PUSH1 0x1 PUSH1 0x1 PUSH1 0x48 SHL SUB SWAP1 SWAP2 AND OR SWAP1 POP DUP1 DUP5 DUP4 PUSH2 0x18DB DUP2 PUSH2 0x5D1E JUMP JUMPDEST SWAP5 POP DUP2 MLOAD DUP2 LT PUSH2 0x18ED JUMPI PUSH2 0x18ED PUSH2 0x5CCB JUMP JUMPDEST PUSH1 0x20 SWAP1 DUP2 MUL SWAP2 SWAP1 SWAP2 ADD ADD MSTORE DUP5 PUSH2 0x1902 DUP5 PUSH2 0x5D1E JUMP JUMPDEST SWAP4 POP DUP4 LT PUSH2 0x1874 JUMPI POP POP POP SWAP3 SWAP2 POP POP JUMP JUMPDEST PUSH1 0x0 PUSH1 0x1 DUP3 LT PUSH2 0x1A19 JUMPI PUSH2 0x1925 PUSH2 0x5406 JUMP JUMPDEST PUSH2 0x192D PUSH2 0x5406 JUMP JUMPDEST PUSH2 0x1937 DUP3 DUP3 PUSH2 0x2EFA JUMP JUMPDEST PUSH2 0x1940 DUP3 PUSH2 0x3076 JUMP JUMPDEST PUSH1 0x0 DUP5 DUP2 MSTORE PUSH1 0x9 PUSH1 0x20 SWAP1 DUP2 MSTORE PUSH1 0x40 SWAP2 DUP3 SWAP1 KECCAK256 SLOAD DUP3 MLOAD DUP1 DUP5 ADD SWAP1 SWAP4 MSTORE PUSH1 0xB DUP4 MSTORE PUSH11 0x3AB731B630B4B6B2B21D1 PUSH1 0xAD SHL SWAP2 DUP4 ADD SWAP2 SWAP1 SWAP2 MSTORE PUSH1 0x1 PUSH1 0x90 SHL SWAP1 DIV PUSH7 0xFFFFFFFFFFFFFF AND SWAP1 PUSH2 0x1990 SWAP1 DUP3 PUSH2 0x3B57 JUMP JUMPDEST PUSH2 0x199C PUSH1 0x32 PUSH1 0x7 PUSH2 0x5CB4 JUMP JUMPDEST PUSH2 0x2710 PUSH4 0x5F5E100 PUSH2 0x19B0 PUSH1 0x8 PUSH1 0xA PUSH2 0x5C86 JUMP JUMPDEST PUSH2 0x19BA SWAP2 SWAP1 PUSH2 0x5C92 JUMP JUMPDEST PUSH2 0x19C4 SWAP2 SWAP1 PUSH2 0x5CB4 JUMP JUMPDEST PUSH2 0x19CE SWAP1 DUP4 PUSH2 0x5CB4 JUMP JUMPDEST PUSH2 0x19D8 SWAP2 SWAP1 PUSH2 0x5C92 JUMP JUMPDEST SWAP4 POP PUSH2 0x1A07 PUSH1 0x40 MLOAD DUP1 PUSH1 0x40 ADD PUSH1 0x40 MSTORE DUP1 PUSH1 0xB DUP2 MSTORE PUSH1 0x20 ADD PUSH11 0x3BB0B0B9A637B1313C9D1 PUSH1 0xAD SHL DUP2 MSTORE POP DUP6 PUSH2 0x3B57 JUMP JUMPDEST PUSH2 0x1A11 DUP4 DUP4 PUSH2 0x34B7 JUMP JUMPDEST POP POP POP SWAP2 SWAP1 POP JUMP JUMPDEST PUSH2 0x1A25 PUSH1 0x8 PUSH1 0xA PUSH2 0x5C86 JUMP JUMPDEST PUSH2 0x1A33 SWAP1 PUSH4 0x3B9ACA00 PUSH2 0x5CB4 JUMP JUMPDEST SWAP1 POP JUMPDEST SWAP2 SWAP1 POP JUMP JUMPDEST CALLER PUSH1 0x1 PUSH1 0x1 PUSH1 0xA0 SHL SUB PUSH32 0x0 AND EQ PUSH2 0x1AA3 JUMPI PUSH1 0x40 MLOAD PUSH3 0x461BCD PUSH1 0xE5 SHL DUP2 MSTORE PUSH1 0x20 PUSH1 0x4 DUP3 ADD MSTORE PUSH1 0xD PUSH1 0x24 DUP3 ADD MSTORE PUSH13 0x2737BA103A34329027BBB732B9 PUSH1 0x99 SHL PUSH1 0x44 DUP3 ADD MSTORE PUSH1 0x64 ADD PUSH2 0xC9C JUMP JUMPDEST PUSH1 0x5 DUP1 SLOAD PUSH1 0x1 PUSH1 0x1 PUSH1 0xA0 SHL SUB NOT AND PUSH1 0x1 PUSH1 0x1 PUSH1 0xA0 SHL SUB SWAP3 SWAP1 SWAP3 AND SWAP2 SWAP1 SWAP2 OR SWAP1 SSTORE JUMP JUMPDEST PUSH1 0x0 DUP1 PUSH2 0x1AD0 PUSH2 0x3697 JUMP JUMPDEST SWAP1 POP PUSH1 0x1 DUP2 LT ISZERO PUSH2 0x1AF3 JUMPI PUSH1 0x40 MLOAD PUSH3 0x461BCD PUSH1 0xE5 SHL DUP2 MSTORE PUSH1 0x4 ADD PUSH2 0xC9C SWAP1 PUSH2 0x5D37 JUMP JUMPDEST PUSH2 0x1AFF PUSH1 0x32 PUSH1 0x7 PUSH2 0x5CB4 JUMP JUMPDEST PUSH2 0x1B0A SWAP1 PUSH1 0x1 PUSH2 0x5CF4 JUMP JUMPDEST DUP2 LT PUSH2 0x1B58 JUMPI PUSH1 0x40 MLOAD PUSH3 0x461BCD PUSH1 0xE5 SHL DUP2 MSTORE PUSH1 0x20 PUSH1 0x4 DUP3 ADD MSTORE PUSH1 0x1B PUSH1 0x24 DUP3 ADD MSTORE PUSH32 0x4D594E543A20436C61696D2070686173652068617320656E6465640000000000 PUSH1 0x44 DUP3 ADD MSTORE PUSH1 0x64 ADD PUSH2 0xC9C JUMP JUMPDEST PUSH1 0x1 PUSH1 0x1 PUSH1 0x60 SHL SUB NOT DUP7 AND PUSH1 0x0 SWAP1 DUP2 MSTORE PUSH1 0x8 PUSH1 0x20 MSTORE PUSH1 0x40 SWAP1 KECCAK256 SLOAD PUSH1 0xFF AND ISZERO PUSH2 0x1B84 JUMPI PUSH1 0x0 SWAP2 POP POP PUSH2 0xE3F JUMP JUMPDEST PUSH2 0x1BC2 DUP7 DUP7 DUP7 DUP7 DUP1 DUP1 PUSH1 0x20 MUL PUSH1 0x20 ADD PUSH1 0x40 MLOAD SWAP1 DUP2 ADD PUSH1 0x40 MSTORE DUP1 SWAP4 SWAP3 SWAP2 SWAP1 DUP2 DUP2 MSTORE PUSH1 0x20 ADD DUP4 DUP4 PUSH1 0x20 MUL DUP1 DUP3 DUP5 CALLDATACOPY PUSH1 0x0 SWAP3 ADD SWAP2 SWAP1 SWAP2 MSTORE POP PUSH2 0x3B9C SWAP3 POP POP POP JUMP JUMPDEST SWAP7 SWAP6 POP POP POP POP POP POP JUMP JUMPDEST PUSH2 0x1BD4 PUSH2 0x5406 JUMP JUMPDEST PUSH2 0x1BDC PUSH2 0x5406 JUMP JUMPDEST PUSH2 0x1BE6 DUP3 DUP3 PUSH2 0x2EFA JUMP JUMPDEST PUSH1 0x1 DUP3 PUSH2 0x140 ADD MLOAD GT PUSH2 0x1C2D JUMPI PUSH1 0x40 MLOAD PUSH3 0x461BCD PUSH1 0xE5 SHL DUP2 MSTORE PUSH1 0x20 PUSH1 0x4 DUP3 ADD MSTORE PUSH1 0xF PUSH1 0x24 DUP3 ADD MSTORE PUSH15 0x4D594E543A20546F6F206561726C79 PUSH1 0x88 SHL PUSH1 0x44 DUP3 ADD MSTORE PUSH1 0x64 ADD PUSH2 0xC9C JUMP JUMPDEST DUP3 ISZERO PUSH2 0x1CA9 JUMPI DUP2 PUSH2 0x140 ADD MLOAD DUP4 GT ISZERO PUSH2 0x1C98 JUMPI PUSH1 0x40 MLOAD PUSH3 0x461BCD PUSH1 0xE5 SHL DUP2 MSTORE PUSH1 0x20 PUSH1 0x4 DUP3 ADD MSTORE PUSH1 0x27 PUSH1 0x24 DUP3 ADD MSTORE PUSH32 0x4D594E543A206265666F72654461792063616E6E6F7420626520696E20746865 PUSH1 0x44 DUP3 ADD MSTORE PUSH7 0x20667574757265 PUSH1 0xC8 SHL PUSH1 0x64 DUP3 ADD MSTORE PUSH1 0x84 ADD PUSH2 0xC9C JUMP JUMPDEST PUSH2 0x1CA4 DUP3 DUP5 PUSH1 0x0 PUSH2 0x3CD9 JUMP JUMPDEST PUSH2 0x1CBA JUMP JUMPDEST PUSH2 0x1CBA DUP3 DUP4 PUSH2 0x140 ADD MLOAD PUSH1 0x0 PUSH2 0x3CD9 JUMP JUMPDEST PUSH2 0xCAF DUP3 DUP3 PUSH2 0x34B7 JUMP JUMPDEST PUSH1 0x60 PUSH1 0x4 DUP1 SLOAD PUSH2 0xBA6 SWAP1 PUSH2 0x5B58 JUMP JUMPDEST PUSH1 0x0 PUSH6 0x173CDF6F6E31 DUP14 GT ISZERO PUSH2 0x1D24 JUMPI PUSH1 0x40 MLOAD PUSH3 0x461BCD PUSH1 0xE5 SHL DUP2 MSTORE PUSH1 0x20 PUSH1 0x4 DUP3 ADD MSTORE PUSH1 0x16 PUSH1 0x24 DUP3 ADD MSTORE PUSH22 0x4D594E543A2043484B3A207261775361746F73686973 PUSH1 0x50 SHL PUSH1 0x44 DUP3 ADD MSTORE PUSH1 0x64 ADD PUSH2 0xC9C JUMP JUMPDEST PUSH2 0x15E DUP4 LT ISZERO PUSH2 0x1D85 JUMPI PUSH1 0x40 MLOAD PUSH3 0x461BCD PUSH1 0xE5 SHL DUP2 MSTORE PUSH1 0x20 PUSH1 0x4 DUP3 ADD MSTORE PUSH1 0x26 PUSH1 0x24 DUP3 ADD MSTORE PUSH32 0x4D594E543A206175746F5374616B6544617973206C6F776572207468616E206D PUSH1 0x44 DUP3 ADD MSTORE PUSH6 0x696E696D756D PUSH1 0xD0 SHL PUSH1 0x64 DUP3 ADD MSTORE PUSH1 0x84 ADD PUSH2 0xC9C JUMP JUMPDEST PUSH1 0x0 PUSH1 0x1 PUSH1 0x1 PUSH1 0xA0 SHL SUB DUP12 AND CALLER EQ PUSH2 0x1DF6 JUMPI PUSH1 0x40 DUP1 MLOAD PUSH32 0x4E831ACB4223B66DE3B3D2E54A2EDEEFB0DE3D7916E2886A4B134D9764D41BEC PUSH1 0x20 DUP3 ADD MSTORE SWAP1 DUP2 ADD DUP6 SWAP1 MSTORE PUSH1 0x60 DUP5 DUP2 SHL PUSH1 0x1 PUSH1 0x1 PUSH1 0x60 SHL SUB NOT AND SWAP1 DUP3 ADD MSTORE PUSH1 0x74 ADD PUSH1 0x40 MLOAD PUSH1 0x20 DUP2 DUP4 SUB SUB DUP2 MSTORE SWAP1 PUSH1 0x40 MSTORE DUP1 MLOAD SWAP1 PUSH1 0x20 ADD KECCAK256 SWAP1 POP JUMPDEST PUSH2 0x1E06 DUP12 DUP3 DUP13 DUP13 DUP13 DUP13 DUP13 DUP13 PUSH2 0x266F JUMP JUMPDEST PUSH2 0x1E52 JUMPI PUSH1 0x40 MLOAD PUSH3 0x461BCD PUSH1 0xE5 SHL DUP2 MSTORE PUSH1 0x20 PUSH1 0x4 DUP3 ADD MSTORE PUSH1 0x18 PUSH1 0x24 DUP3 ADD MSTORE PUSH32 0x4D594E543A205369676E6174757265206D69736D617463680000000000000000 PUSH1 0x44 DUP3 ADD MSTORE PUSH1 0x64 ADD PUSH2 0xC9C JUMP JUMPDEST POP PUSH1 0x0 PUSH2 0x1E60 DUP11 DUP11 DUP11 PUSH2 0xE47 JUMP JUMPDEST PUSH1 0x1 PUSH1 0x1 PUSH1 0x60 SHL SUB NOT DUP2 AND PUSH1 0x0 SWAP1 DUP2 MSTORE PUSH1 0x8 PUSH1 0x20 MSTORE PUSH1 0x40 SWAP1 KECCAK256 SLOAD SWAP1 SWAP2 POP PUSH1 0xFF AND ISZERO PUSH2 0x1EDF JUMPI PUSH1 0x40 MLOAD PUSH3 0x461BCD PUSH1 0xE5 SHL DUP2 MSTORE PUSH1 0x20 PUSH1 0x4 DUP3 ADD MSTORE PUSH1 0x29 PUSH1 0x24 DUP3 ADD MSTORE PUSH32 0x4D594E543A2042544320616464726573732062616C616E636520616C72656164 PUSH1 0x44 DUP3 ADD MSTORE PUSH9 0x1E4818DB185A5B5959 PUSH1 0xBA SHL PUSH1 0x64 DUP3 ADD MSTORE PUSH1 0x84 ADD PUSH2 0xC9C JUMP JUMPDEST PUSH2 0x1F1D DUP2 DUP16 DUP16 DUP16 DUP1 DUP1 PUSH1 0x20 MUL PUSH1 0x20 ADD PUSH1 0x40 MLOAD SWAP1 DUP2 ADD PUSH1 0x40 MSTORE DUP1 SWAP4 SWAP3 SWAP2 SWAP1 DUP2 DUP2 MSTORE PUSH1 0x20 ADD DUP4 DUP4 PUSH1 0x20 MUL DUP1 DUP3 DUP5 CALLDATACOPY PUSH1 0x0 SWAP3 ADD SWAP2 SWAP1 SWAP2 MSTORE POP PUSH2 0x3B9C SWAP3 POP POP POP JUMP JUMPDEST PUSH2 0x1F75 JUMPI PUSH1 0x40 MLOAD PUSH3 0x461BCD PUSH1 0xE5 SHL DUP2 MSTORE PUSH1 0x20 PUSH1 0x4 DUP3 ADD MSTORE PUSH1 0x24 DUP1 DUP3 ADD MSTORE PUSH32 0x4D594E543A204254432061646472657373206F722062616C616E636520756E6B PUSH1 0x44 DUP3 ADD MSTORE PUSH4 0x3737BBB7 PUSH1 0xE1 SHL PUSH1 0x64 DUP3 ADD MSTORE PUSH1 0x84 ADD PUSH2 0xC9C JUMP JUMPDEST PUSH1 0x1 PUSH1 0x1 PUSH1 0x60 SHL SUB NOT DUP2 AND PUSH1 0x0 SWAP1 DUP2 MSTORE PUSH1 0x8 PUSH1 0x20 MSTORE PUSH1 0x40 SWAP1 KECCAK256 DUP1 SLOAD PUSH1 0xFF NOT AND PUSH1 0x1 OR SWAP1 SSTORE PUSH2 0x1FA7 DUP15 DUP13 DUP4 DUP12 DUP9 DUP9 PUSH2 0x3DBE JUMP JUMPDEST SWAP15 SWAP14 POP POP POP POP POP POP POP POP POP POP POP POP POP POP JUMP JUMPDEST PUSH1 0x0 PUSH1 0x1 PUSH1 0x80 SHL DUP4 LT PUSH2 0x200E JUMPI PUSH1 0x40 MLOAD PUSH3 0x461BCD PUSH1 0xE5 SHL DUP2 MSTORE PUSH1 0x20 PUSH1 0x4 DUP3 ADD MSTORE PUSH1 0x19 PUSH1 0x24 DUP3 ADD MSTORE PUSH32 0x656E746572446179206578636565647320313238206269747300000000000000 PUSH1 0x44 DUP3 ADD MSTORE PUSH1 0x64 ADD PUSH2 0xC9C JUMP JUMPDEST PUSH1 0x1 PUSH1 0x28 SHL DUP3 LT PUSH2 0x2061 JUMPI PUSH1 0x40 MLOAD PUSH3 0x461BCD PUSH1 0xE5 SHL DUP2 MSTORE PUSH1 0x20 PUSH1 0x4 DUP3 ADD MSTORE PUSH1 0x1A PUSH1 0x24 DUP3 ADD MSTORE PUSH32 0x656E747279496E64657820657863656564732034302062697473000000000000 PUSH1 0x44 DUP3 ADD MSTORE PUSH1 0x64 ADD PUSH2 0xC9C JUMP JUMPDEST POP PUSH1 0x28 SWAP2 SWAP1 SWAP2 SHL OR SWAP1 JUMP JUMPDEST PUSH1 0x0 CALLER DUP2 PUSH2 0x207A DUP3 DUP7 PUSH2 0x2789 JUMP JUMPDEST SWAP1 POP DUP4 DUP2 LT ISZERO PUSH2 0x20DA JUMPI PUSH1 0x40 MLOAD PUSH3 0x461BCD PUSH1 0xE5 SHL DUP2 MSTORE PUSH1 0x20 PUSH1 0x4 DUP3 ADD MSTORE PUSH1 0x25 PUSH1 0x24 DUP3 ADD MSTORE PUSH32 0x45524332303A2064656372656173656420616C6C6F77616E63652062656C6F77 PUSH1 0x44 DUP3 ADD MSTORE PUSH5 0x207A65726F PUSH1 0xD8 SHL PUSH1 0x64 DUP3 ADD MSTORE PUSH1 0x84 ADD PUSH2 0xC9C JUMP JUMPDEST PUSH2 0x20E7 DUP3 DUP7 DUP7 DUP5 SUB PUSH2 0x2A25 JUMP JUMPDEST POP PUSH1 0x1 SWAP5 SWAP4 POP POP POP POP JUMP JUMPDEST PUSH1 0x0 CALLER PUSH2 0xC37 DUP2 DUP6 DUP6 PUSH2 0x2C7C JUMP JUMPDEST PUSH1 0x0 DUP1 PUSH1 0x28 DUP4 SWAP1 SHR DUP2 PUSH2 0x2118 PUSH1 0x1 PUSH1 0x1 PUSH1 0x28 SHL PUSH2 0x5CE1 JUMP JUMPDEST PUSH1 0x0 DUP4 DUP2 MSTORE PUSH1 0xC PUSH1 0x20 SWAP1 DUP2 MSTORE PUSH1 0x40 DUP1 DUP4 KECCAK256 PUSH1 0x1 PUSH1 0x1 PUSH1 0xA0 SHL SUB DUP12 AND DUP5 MSTORE DUP3 MSTORE DUP1 DUP4 KECCAK256 SWAP4 DUP10 AND DUP1 DUP5 MSTORE PUSH1 0x1 SWAP1 SWAP5 ADD SWAP1 SWAP2 MSTORE DUP2 KECCAK256 DUP1 SLOAD SWAP3 SWAP4 POP SWAP2 PUSH1 0x1 PUSH1 0x1 PUSH1 0x60 SHL SUB AND SWAP1 SUB PUSH2 0x219D JUMPI PUSH1 0x40 MLOAD PUSH3 0x461BCD PUSH1 0xE5 SHL DUP2 MSTORE PUSH1 0x20 PUSH1 0x4 DUP3 ADD MSTORE PUSH1 0x13 PUSH1 0x24 DUP3 ADD MSTORE PUSH19 0x135653950E8814185C985B481A5B9D985B1A59 PUSH1 0x6A SHL PUSH1 0x44 DUP3 ADD MSTORE PUSH1 0x64 ADD PUSH2 0xC9C JUMP JUMPDEST SLOAD PUSH1 0x1 PUSH1 0x1 PUSH1 0x60 SHL SUB DUP2 AND SWAP5 POP PUSH1 0x1 PUSH1 0x60 SHL SWAP1 DIV PUSH1 0x1 PUSH1 0x1 PUSH1 0xA0 SHL SUB AND SWAP3 POP POP POP JUMPDEST SWAP3 POP SWAP3 SWAP1 POP JUMP JUMPDEST PUSH2 0x21CE PUSH2 0x3697 JUMP JUMPDEST DUP3 LT PUSH2 0x221C JUMPI PUSH1 0x40 MLOAD PUSH3 0x461BCD PUSH1 0xE5 SHL DUP2 MSTORE PUSH1 0x20 PUSH1 0x4 DUP3 ADD MSTORE PUSH1 0x1B PUSH1 0x24 DUP3 ADD MSTORE PUSH32 0x4D594E543A20526F756E64206973206E6F7420636F6D706C6574650000000000 PUSH1 0x44 DUP3 ADD MSTORE PUSH1 0x64 ADD PUSH2 0xC9C JUMP JUMPDEST PUSH1 0x0 DUP3 DUP2 MSTORE PUSH1 0xC PUSH1 0x20 SWAP1 DUP2 MSTORE PUSH1 0x40 DUP1 DUP4 KECCAK256 CALLER DUP5 MSTORE SWAP1 SWAP2 MSTORE DUP2 KECCAK256 DUP1 SLOAD SWAP1 SWAP2 PUSH5 0xFFFFFFFFFF SWAP1 SWAP2 AND SWAP1 DUP4 ISZERO PUSH2 0x22BA JUMPI DUP3 SLOAD PUSH2 0x2264 SWAP1 DUP4 SWAP1 PUSH1 0x1 PUSH1 0x28 SHL SWAP1 DIV PUSH5 0xFFFFFFFFFF AND PUSH2 0x5CE1 JUMP JUMPDEST DUP5 GT ISZERO PUSH2 0x22A9 JUMPI PUSH1 0x40 MLOAD PUSH3 0x461BCD PUSH1 0xE5 SHL DUP2 MSTORE PUSH1 0x20 PUSH1 0x4 DUP3 ADD MSTORE PUSH1 0x13 PUSH1 0x24 DUP3 ADD MSTORE PUSH19 0x135653950E8818DBDD5B9D081A5B9D985B1A59 PUSH1 0x6A SHL PUSH1 0x44 DUP3 ADD MSTORE PUSH1 0x64 ADD PUSH2 0xC9C JUMP JUMPDEST PUSH2 0x22B3 DUP5 DUP4 PUSH2 0x5CF4 JUMP JUMPDEST SWAP1 POP PUSH2 0x2310 JUMP JUMPDEST POP DUP2 SLOAD PUSH1 0x1 PUSH1 0x28 SHL SWAP1 DIV PUSH5 0xFFFFFFFFFF AND DUP1 DUP3 LT PUSH2 0x2310 JUMPI PUSH1 0x40 MLOAD PUSH3 0x461BCD PUSH1 0xE5 SHL DUP2 MSTORE PUSH1 0x20 PUSH1 0x4 DUP3 ADD MSTORE PUSH1 0x13 PUSH1 0x24 DUP3 ADD MSTORE PUSH19 0x135653950E8818DBDD5B9D081A5B9D985B1A59 PUSH1 0x6A SHL PUSH1 0x44 DUP3 ADD MSTORE PUSH1 0x64 ADD PUSH2 0xC9C JUMP JUMPDEST PUSH1 0x0 PUSH2 0x231B DUP7 PUSH2 0x1913 JUMP JUMPDEST SWAP1 POP PUSH1 0x0 PUSH1 0xB PUSH1 0x0 DUP9 DUP2 MSTORE PUSH1 0x20 ADD SWAP1 DUP2 MSTORE PUSH1 0x20 ADD PUSH1 0x0 KECCAK256 SLOAD SWAP1 POP PUSH2 0x236A PUSH1 0x40 MLOAD DUP1 PUSH1 0x40 ADD PUSH1 0x40 MSTORE DUP1 PUSH1 0x13 DUP2 MSTORE PUSH1 0x20 ADD PUSH19 0x32B73A32B92230BC902FBC332637B1313C9D1 PUSH1 0x6D SHL DUP2 MSTORE POP DUP3 PUSH2 0x3B57 JUMP JUMPDEST PUSH1 0x0 DUP1 JUMPDEST PUSH1 0x0 DUP7 DUP2 MSTORE PUSH1 0x1 DUP9 ADD PUSH1 0x20 MSTORE PUSH1 0x40 DUP2 KECCAK256 DUP1 SLOAD SWAP1 DUP3 SWAP1 SSTORE PUSH1 0x1 PUSH1 0x1 PUSH1 0x60 SHL SUB DUP2 AND SWAP2 PUSH1 0x1 PUSH1 0x60 SHL SWAP1 SWAP2 DIV PUSH1 0x1 PUSH1 0x1 PUSH1 0xA0 SHL SUB AND SWAP1 DUP6 PUSH2 0x23AC DUP5 DUP10 PUSH2 0x5CB4 JUMP JUMPDEST PUSH2 0x23B6 SWAP2 SWAP1 PUSH2 0x5C92 JUMP JUMPDEST SWAP1 POP PUSH1 0x1 PUSH1 0x1 PUSH1 0xA0 SHL SUB DUP3 AND PUSH2 0x23D7 JUMPI PUSH2 0x23D2 DUP13 DUP11 DUP4 DUP6 PUSH2 0x3E01 JUMP JUMPDEST PUSH2 0x245D JUMP JUMPDEST PUSH1 0x0 PUSH2 0x23E4 PUSH1 0xA DUP4 PUSH2 0x5C92 JUMP JUMPDEST SWAP1 POP PUSH2 0x23F0 DUP2 DUP4 PUSH2 0x5CF4 JUMP JUMPDEST SWAP2 POP PUSH1 0x0 PUSH2 0x23FF PUSH1 0x5 DUP5 PUSH2 0x5C92 JUMP JUMPDEST SWAP1 POP CALLER PUSH1 0x1 PUSH1 0x1 PUSH1 0xA0 SHL SUB DUP6 AND SUB PUSH2 0x242E JUMPI PUSH2 0x241B DUP2 DUP5 PUSH2 0x5CF4 JUMP JUMPDEST SWAP3 POP PUSH2 0x2429 DUP15 DUP13 DUP6 DUP8 PUSH2 0x3E01 JUMP JUMPDEST PUSH2 0x2444 JUMP JUMPDEST PUSH2 0x243A DUP15 DUP13 DUP6 DUP8 PUSH2 0x3E01 JUMP JUMPDEST PUSH2 0x2444 DUP5 DUP3 PUSH2 0x2B49 JUMP JUMPDEST PUSH2 0x244E DUP2 DUP4 PUSH2 0x5CF4 JUMP JUMPDEST PUSH2 0x2458 SWAP1 DUP8 PUSH2 0x5CF4 JUMP JUMPDEST SWAP6 POP POP POP JUMPDEST PUSH2 0x2467 DUP2 DUP7 PUSH2 0x5CF4 JUMP JUMPDEST SWAP5 POP POP POP POP DUP5 DUP7 PUSH2 0x2477 SWAP1 PUSH2 0x5D1E JUMP JUMPDEST SWAP7 POP DUP7 LT PUSH2 0x236E JUMPI DUP7 SLOAD PUSH5 0xFFFFFFFFFF NOT AND PUSH5 0xFFFFFFFFFF DUP8 AND OR DUP8 SSTORE DUP1 ISZERO PUSH2 0x24B8 JUMPI PUSH2 0x24B8 PUSH20 0x9A6A414D6F3497C05E3B1DE90520765FA1E07C03 DUP3 PUSH2 0x2B49 JUMP JUMPDEST DUP2 ISZERO PUSH2 0x24C8 JUMPI PUSH2 0x24C8 CALLER DUP4 PUSH2 0x2B49 JUMP JUMPDEST POP POP POP POP POP POP POP POP POP JUMP JUMPDEST PUSH1 0x0 PUSH2 0x24DD PUSH2 0x3697 JUMP JUMPDEST SWAP1 POP PUSH2 0x24EB PUSH1 0x32 PUSH1 0x7 PUSH2 0x5CB4 JUMP JUMPDEST PUSH2 0x24F6 SWAP1 PUSH1 0x1 PUSH2 0x5CF4 JUMP JUMPDEST DUP2 LT PUSH2 0x2544 JUMPI PUSH1 0x40 MLOAD PUSH3 0x461BCD PUSH1 0xE5 SHL DUP2 MSTORE PUSH1 0x20 PUSH1 0x4 DUP3 ADD MSTORE PUSH1 0x18 PUSH1 0x24 DUP3 ADD MSTORE PUSH32 0x4D594E543A204C6F6262696573206861766520656E6465640000000000000000 PUSH1 0x44 DUP3 ADD MSTORE PUSH1 0x64 ADD PUSH2 0xC9C JUMP JUMPDEST CALLVALUE PUSH1 0x0 DUP2 SWAP1 SUB PUSH2 0x258E JUMPI PUSH1 0x40 MLOAD PUSH3 0x461BCD PUSH1 0xE5 SHL DUP2 MSTORE PUSH1 0x20 PUSH1 0x4 DUP3 ADD MSTORE PUSH1 0x15 PUSH1 0x24 DUP3 ADD MSTORE PUSH21 0x135653950E88105B5BDD5B9D081C995C5D5A5C9959 PUSH1 0x5A SHL PUSH1 0x44 DUP3 ADD MSTORE PUSH1 0x64 ADD PUSH2 0xC9C JUMP JUMPDEST PUSH1 0x0 DUP3 DUP2 MSTORE PUSH1 0xC PUSH1 0x20 SWAP1 DUP2 MSTORE PUSH1 0x40 DUP1 DUP4 KECCAK256 CALLER DUP5 MSTORE SWAP1 SWAP2 MSTORE DUP2 KECCAK256 DUP1 SLOAD SWAP1 SWAP2 SWAP1 PUSH1 0x1 PUSH1 0x28 SHL SWAP1 DIV PUSH5 0xFFFFFFFFFF AND DUP3 PUSH1 0x5 PUSH2 0x25C6 DUP4 PUSH2 0x5D7C JUMP JUMPDEST DUP3 SLOAD PUSH2 0x100 SWAP3 SWAP1 SWAP3 EXP PUSH5 0xFFFFFFFFFF DUP2 DUP2 MUL NOT SWAP1 SWAP4 AND SWAP2 DUP4 AND MUL OR SWAP1 SWAP2 SSTORE PUSH1 0x40 DUP1 MLOAD DUP1 DUP3 ADD DUP3 MSTORE PUSH1 0x1 PUSH1 0x1 PUSH1 0x60 SHL SUB DUP8 DUP2 AND DUP3 MSTORE PUSH1 0x1 PUSH1 0x1 PUSH1 0xA0 SHL SUB DUP11 DUP2 AND PUSH1 0x20 DUP1 DUP6 ADD SWAP2 DUP3 MSTORE SWAP7 SWAP1 SWAP6 AND PUSH1 0x0 DUP2 DUP2 MSTORE PUSH1 0x1 DUP11 ADD DUP9 MSTORE DUP6 DUP2 KECCAK256 SWAP5 MLOAD SWAP7 MLOAD SWAP7 SWAP1 SWAP4 AND PUSH1 0x1 PUSH1 0x60 SHL SWAP7 SWAP1 SWAP3 AND SWAP6 SWAP1 SWAP6 MUL OR SWAP1 SWAP2 SSTORE DUP8 DUP2 MSTORE PUSH1 0xB SWAP1 SWAP4 MSTORE DUP3 KECCAK256 DUP1 SLOAD SWAP2 SWAP4 POP DUP6 SWAP3 SWAP1 SWAP2 PUSH2 0x2656 SWAP1 DUP5 SWAP1 PUSH2 0x5CF4 JUMP JUMPDEST SWAP1 SWAP2 SSTORE POP PUSH2 0x2668 SWAP1 POP DUP5 DUP3 DUP6 DUP9 PUSH2 0x3E71 JUMP JUMPDEST POP POP POP POP POP JUMP JUMPDEST PUSH1 0x0 PUSH1 0x1B DUP5 PUSH1 0xFF AND LT ISZERO DUP1 ISZERO PUSH2 0x2689 JUMPI POP PUSH1 0x1E DUP5 PUSH1 0xFF AND GT ISZERO JUMPDEST PUSH2 0x26C7 JUMPI PUSH1 0x40 MLOAD PUSH3 0x461BCD PUSH1 0xE5 SHL DUP2 MSTORE PUSH1 0x20 PUSH1 0x4 DUP3 ADD MSTORE PUSH1 0xF PUSH1 0x24 DUP3 ADD MSTORE PUSH15 0x135653950E881D881A5B9D985B1A59 PUSH1 0x8A SHL PUSH1 0x44 DUP3 ADD MSTORE PUSH1 0x64 ADD PUSH2 0xC9C JUMP JUMPDEST PUSH1 0x40 DUP1 MLOAD PUSH1 0x20 DUP1 DUP3 ADD DUP11 SWAP1 MSTORE DUP2 DUP4 ADD DUP10 SWAP1 MSTORE DUP3 MLOAD DUP1 DUP4 SUB DUP5 ADD DUP2 MSTORE PUSH1 0x60 SWAP1 SWAP3 ADD SWAP1 SWAP3 MSTORE DUP1 MLOAD SWAP2 ADD KECCAK256 PUSH1 0x0 PUSH2 0x2704 PUSH2 0x26FF DUP13 DUP13 DUP11 PUSH2 0x3ED3 JUMP JUMPDEST PUSH2 0x40B6 JUMP JUMPDEST PUSH1 0x40 DUP1 MLOAD PUSH1 0x0 DUP2 MSTORE PUSH1 0x20 DUP2 ADD DUP1 DUP4 MSTORE DUP4 SWAP1 MSTORE PUSH1 0xFF DUP10 AND SWAP2 DUP2 ADD SWAP2 SWAP1 SWAP2 MSTORE PUSH1 0x60 DUP2 ADD DUP8 SWAP1 MSTORE PUSH1 0x80 DUP2 ADD DUP7 SWAP1 MSTORE SWAP1 SWAP2 POP PUSH1 0x1 PUSH1 0x1 PUSH1 0xA0 SHL SUB DUP4 AND SWAP1 PUSH1 0x1 SWAP1 PUSH1 0xA0 ADD PUSH1 0x20 PUSH1 0x40 MLOAD PUSH1 0x20 DUP2 SUB SWAP1 DUP1 DUP5 SUB SWAP1 DUP6 GAS STATICCALL ISZERO DUP1 ISZERO PUSH2 0x2765 JUMPI RETURNDATASIZE PUSH1 0x0 DUP1 RETURNDATACOPY RETURNDATASIZE PUSH1 0x0 REVERT JUMPDEST POP POP POP PUSH1 0x20 PUSH1 0x40 MLOAD SUB MLOAD PUSH1 0x1 PUSH1 0x1 PUSH1 0xA0 SHL SUB AND EQ SWAP3 POP POP POP SWAP9 SWAP8 POP POP POP POP POP POP POP POP JUMP JUMPDEST PUSH1 0x1 PUSH1 0x1 PUSH1 0xA0 SHL SUB SWAP2 DUP3 AND PUSH1 0x0 SWAP1 DUP2 MSTORE PUSH1 0x1 PUSH1 0x20 SWAP1 DUP2 MSTORE PUSH1 0x40 DUP1 DUP4 KECCAK256 SWAP4 SWAP1 SWAP5 AND DUP3 MSTORE SWAP2 SWAP1 SWAP2 MSTORE KECCAK256 SLOAD SWAP1 JUMP JUMPDEST PUSH1 0x0 PUSH2 0x27F4 DUP6 DUP6 DUP6 DUP6 DUP1 DUP1 PUSH1 0x20 MUL PUSH1 0x20 ADD PUSH1 0x40 MLOAD SWAP1 DUP2 ADD PUSH1 0x40 MSTORE DUP1 SWAP4 SWAP3 SWAP2 SWAP1 DUP2 DUP2 MSTORE PUSH1 0x20 ADD DUP4 DUP4 PUSH1 0x20 MUL DUP1 DUP3 DUP5 CALLDATACOPY PUSH1 0x0 SWAP3 ADD SWAP2 SWAP1 SWAP2 MSTORE POP PUSH2 0x3B9C SWAP3 POP POP POP JUMP JUMPDEST SWAP6 SWAP5 POP POP POP POP POP JUMP JUMPDEST PUSH2 0x2805 PUSH2 0x54CB JUMP JUMPDEST PUSH1 0x7 SLOAD PUSH1 0x0 SWAP1 DUP2 SWAP1 DUP2 SWAP1 PUSH2 0x2828 SWAP1 PUSH1 0x1 PUSH1 0x80 SHL SWAP1 DIV PUSH1 0x1 PUSH1 0x1 PUSH1 0x80 SHL SUB AND PUSH2 0x4175 JUMP JUMPDEST PUSH1 0x40 DUP1 MLOAD PUSH2 0x1A0 DUP2 ADD DUP3 MSTORE PUSH1 0x6 SLOAD PUSH1 0x1 PUSH1 0x1 PUSH1 0x48 SHL SUB DUP1 DUP3 AND DUP4 MSTORE PUSH1 0x1 PUSH1 0x48 SHL DUP3 DIV DUP2 AND PUSH1 0x20 DUP5 ADD MSTORE PUSH5 0xFFFFFFFFFF PUSH1 0x1 PUSH1 0x90 SHL DUP4 DIV DUP2 AND SWAP5 DUP5 ADD SWAP5 SWAP1 SWAP5 MSTORE PUSH1 0x1 PUSH1 0xB8 SHL SWAP1 SWAP2 DIV DUP2 AND PUSH1 0x60 DUP4 ADD MSTORE PUSH1 0x7 SLOAD PUSH2 0xFFFF DUP2 AND PUSH1 0x80 DUP5 ADD MSTORE PUSH3 0x10000 DUP2 DIV SWAP1 SWAP2 AND PUSH1 0xA0 DUP4 ADD MSTORE PUSH1 0x1 PUSH1 0x58 SHL SWAP1 DIV SWAP1 SWAP2 AND PUSH1 0xC0 DUP3 ADD MSTORE PUSH1 0xE0 DUP2 ADD DUP3 SWAP1 MSTORE PUSH2 0x100 DUP2 ADD DUP4 SWAP1 MSTORE PUSH2 0x120 DUP2 ADD DUP5 SWAP1 MSTORE TIMESTAMP PUSH2 0x140 DUP3 ADD MSTORE SWAP3 SWAP6 POP SWAP1 SWAP4 POP SWAP2 POP PUSH2 0x160 DUP2 ADD PUSH2 0x28D4 PUSH1 0x2 SLOAD SWAP1 JUMP JUMPDEST DUP2 MSTORE PUSH1 0x20 ADD PUSH1 0xB PUSH1 0x0 PUSH2 0x28E5 PUSH2 0x3697 JUMP JUMPDEST DUP2 MSTORE PUSH1 0x20 ADD SWAP1 DUP2 MSTORE PUSH1 0x20 ADD PUSH1 0x0 KECCAK256 SLOAD DUP2 MSTORE POP SWAP4 POP POP POP POP SWAP1 JUMP JUMPDEST PUSH1 0x60 DUP2 DUP4 LT DUP1 ISZERO PUSH2 0x2926 JUMPI POP PUSH2 0x2917 PUSH1 0x32 PUSH1 0x7 PUSH2 0x5CB4 JUMP JUMPDEST PUSH2 0x2922 SWAP1 PUSH1 0x1 PUSH2 0x5CF4 JUMP JUMPDEST DUP3 GT ISZERO JUMPDEST DUP1 ISZERO PUSH2 0x2939 JUMPI POP PUSH2 0x2935 PUSH2 0x3697 JUMP JUMPDEST DUP3 GT ISZERO JUMPDEST PUSH2 0x297B JUMPI PUSH1 0x40 MLOAD PUSH3 0x461BCD PUSH1 0xE5 SHL DUP2 MSTORE PUSH1 0x20 PUSH1 0x4 DUP3 ADD MSTORE PUSH1 0x13 PUSH1 0x24 DUP3 ADD MSTORE PUSH19 0x4D594E543A20696E76616C69642072616E6765 PUSH1 0x68 SHL PUSH1 0x44 DUP3 ADD MSTORE PUSH1 0x64 ADD PUSH2 0xC9C JUMP JUMPDEST PUSH2 0x2985 DUP4 DUP4 PUSH2 0x5CE1 JUMP JUMPDEST PUSH8 0xFFFFFFFFFFFFFFFF DUP2 GT ISZERO PUSH2 0x299D JUMPI PUSH2 0x299D PUSH2 0x57D0 JUMP JUMPDEST PUSH1 0x40 MLOAD SWAP1 DUP1 DUP3 MSTORE DUP1 PUSH1 0x20 MUL PUSH1 0x20 ADD DUP3 ADD PUSH1 0x40 MSTORE DUP1 ISZERO PUSH2 0x29C6 JUMPI DUP2 PUSH1 0x20 ADD PUSH1 0x20 DUP3 MUL DUP1 CALLDATASIZE DUP4 CALLDATACOPY ADD SWAP1 POP JUMPDEST POP SWAP1 POP DUP3 PUSH1 0x0 JUMPDEST PUSH1 0xB PUSH1 0x0 DUP4 PUSH2 0x29DB DUP2 PUSH2 0x5D1E JUMP JUMPDEST SWAP5 POP DUP2 MSTORE PUSH1 0x20 ADD SWAP1 DUP2 MSTORE PUSH1 0x20 ADD PUSH1 0x0 KECCAK256 SLOAD DUP4 DUP3 DUP1 PUSH2 0x29F8 SWAP1 PUSH2 0x5D1E JUMP JUMPDEST SWAP4 POP DUP2 MLOAD DUP2 LT PUSH2 0x2A0A JUMPI PUSH2 0x2A0A PUSH2 0x5CCB JUMP JUMPDEST PUSH1 0x20 MUL PUSH1 0x20 ADD ADD DUP2 DUP2 MSTORE POP POP DUP4 DUP3 LT PUSH2 0x29CD JUMPI POP POP SWAP3 SWAP2 POP POP JUMP JUMPDEST PUSH1 0x1 PUSH1 0x1 PUSH1 0xA0 SHL SUB DUP4 AND PUSH2 0x2A87 JUMPI PUSH1 0x40 MLOAD PUSH3 0x461BCD PUSH1 0xE5 SHL DUP2 MSTORE PUSH1 0x20 PUSH1 0x4 DUP3 ADD MSTORE PUSH1 0x24 DUP1 DUP3 ADD MSTORE PUSH32 0x45524332303A20617070726F76652066726F6D20746865207A65726F20616464 PUSH1 0x44 DUP3 ADD MSTORE PUSH4 0x72657373 PUSH1 0xE0 SHL PUSH1 0x64 DUP3 ADD MSTORE PUSH1 0x84 ADD PUSH2 0xC9C JUMP JUMPDEST PUSH1 0x1 PUSH1 0x1 PUSH1 0xA0 SHL SUB DUP3 AND PUSH2 0x2AE8 JUMPI PUSH1 0x40 MLOAD PUSH3 0x461BCD PUSH1 0xE5 SHL DUP2 MSTORE PUSH1 0x20 PUSH1 0x4 DUP3 ADD MSTORE PUSH1 0x22 PUSH1 0x24 DUP3 ADD MSTORE PUSH32 0x45524332303A20617070726F766520746F20746865207A65726F206164647265 PUSH1 0x44 DUP3 ADD MSTORE PUSH2 0x7373 PUSH1 0xF0 SHL PUSH1 0x64 DUP3 ADD MSTORE PUSH1 0x84 ADD PUSH2 0xC9C JUMP JUMPDEST PUSH1 0x1 PUSH1 0x1 PUSH1 0xA0 SHL SUB DUP4 DUP2 AND PUSH1 0x0 DUP2 DUP2 MSTORE PUSH1 0x1 PUSH1 0x20 SWAP1 DUP2 MSTORE PUSH1 0x40 DUP1 DUP4 KECCAK256 SWAP5 DUP8 AND DUP1 DUP5 MSTORE SWAP5 DUP3 MSTORE SWAP2 DUP3 SWAP1 KECCAK256 DUP6 SWAP1 SSTORE SWAP1 MLOAD DUP5 DUP2 MSTORE PUSH32 0x8C5BE1E5EBEC7D5BD14F71427D1E84F3DD0314C0F7B2291E5B200AC8C7C3B925 SWAP2 ADD PUSH1 0x40 MLOAD DUP1 SWAP2 SUB SWAP1 LOG3 POP POP POP JUMP JUMPDEST PUSH1 0x1 PUSH1 0x1 PUSH1 0xA0 SHL SUB DUP3 AND PUSH2 0x2B9F JUMPI PUSH1 0x40 MLOAD PUSH3 0x461BCD PUSH1 0xE5 SHL DUP2 MSTORE PUSH1 0x20 PUSH1 0x4 DUP3 ADD MSTORE PUSH1 0x1F PUSH1 0x24 DUP3 ADD MSTORE PUSH32 0x45524332303A206D696E7420746F20746865207A65726F206164647265737300 PUSH1 0x44 DUP3 ADD MSTORE PUSH1 0x64 ADD PUSH2 0xC9C JUMP JUMPDEST DUP1 PUSH1 0x2 PUSH1 0x0 DUP3 DUP3 SLOAD PUSH2 0x2BB1 SWAP2 SWAP1 PUSH2 0x5CF4 JUMP JUMPDEST SWAP1 SWAP2 SSTORE POP POP PUSH1 0x1 PUSH1 0x1 PUSH1 0xA0 SHL SUB DUP3 AND PUSH1 0x0 DUP2 DUP2 MSTORE PUSH1 0x20 DUP2 DUP2 MSTORE PUSH1 0x40 DUP1 DUP4 KECCAK256 DUP1 SLOAD DUP7 ADD SWAP1 SSTORE MLOAD DUP5 DUP2 MSTORE PUSH32 0xDDF252AD1BE2C89B69C2B068FC378DAA952BA7F163C4A11628F55A4DF523B3EF SWAP2 ADD PUSH1 0x40 MLOAD DUP1 SWAP2 SUB SWAP1 LOG3 POP POP JUMP JUMPDEST PUSH1 0x0 PUSH2 0x2C14 DUP5 DUP5 PUSH2 0x2789 JUMP JUMPDEST SWAP1 POP PUSH1 0x0 NOT DUP2 EQ PUSH2 0x14A2 JUMPI DUP2 DUP2 LT ISZERO PUSH2 0x2C6F JUMPI PUSH1 0x40 MLOAD PUSH3 0x461BCD PUSH1 0xE5 SHL DUP2 MSTORE PUSH1 0x20 PUSH1 0x4 DUP3 ADD MSTORE PUSH1 0x1D PUSH1 0x24 DUP3 ADD MSTORE PUSH32 0x45524332303A20696E73756666696369656E7420616C6C6F77616E6365000000 PUSH1 0x44 DUP3 ADD MSTORE PUSH1 0x64 ADD PUSH2 0xC9C JUMP JUMPDEST PUSH2 0x14A2 DUP5 DUP5 DUP5 DUP5 SUB PUSH2 0x2A25 JUMP JUMPDEST PUSH1 0x1 PUSH1 0x1 PUSH1 0xA0 SHL SUB DUP4 AND PUSH2 0x2CE0 JUMPI PUSH1 0x40 MLOAD PUSH3 0x461BCD PUSH1 0xE5 SHL DUP2 MSTORE PUSH1 0x20 PUSH1 0x4 DUP3 ADD MSTORE PUSH1 0x25 PUSH1 0x24 DUP3 ADD MSTORE PUSH32 0x45524332303A207472616E736665722066726F6D20746865207A65726F206164 PUSH1 0x44 DUP3 ADD MSTORE PUSH5 0x6472657373 PUSH1 0xD8 SHL PUSH1 0x64 DUP3 ADD MSTORE PUSH1 0x84 ADD PUSH2 0xC9C JUMP JUMPDEST PUSH1 0x1 PUSH1 0x1 PUSH1 0xA0 SHL SUB DUP3 AND PUSH2 0x2D42 JUMPI PUSH1 0x40 MLOAD PUSH3 0x461BCD PUSH1 0xE5 SHL DUP2 MSTORE PUSH1 0x20 PUSH1 0x4 DUP3 ADD MSTORE PUSH1 0x23 PUSH1 0x24 DUP3 ADD MSTORE PUSH32 0x45524332303A207472616E7366657220746F20746865207A65726F2061646472 PUSH1 0x44 DUP3 ADD MSTORE PUSH3 0x657373 PUSH1 0xE8 SHL PUSH1 0x64 DUP3 ADD MSTORE PUSH1 0x84 ADD PUSH2 0xC9C JUMP JUMPDEST PUSH1 0x1 PUSH1 0x1 PUSH1 0xA0 SHL SUB DUP4 AND PUSH1 0x0 SWAP1 DUP2 MSTORE PUSH1 0x20 DUP2 SWAP1 MSTORE PUSH1 0x40 SWAP1 KECCAK256 SLOAD DUP2 DUP2 LT ISZERO PUSH2 0x2DBA JUMPI PUSH1 0x40 MLOAD PUSH3 0x461BCD PUSH1 0xE5 SHL DUP2 MSTORE PUSH1 0x20 PUSH1 0x4 DUP3 ADD MSTORE PUSH1 0x26 PUSH1 0x24 DUP3 ADD MSTORE PUSH32 0x45524332303A207472616E7366657220616D6F756E7420657863656564732062 PUSH1 0x44 DUP3 ADD MSTORE PUSH6 0x616C616E6365 PUSH1 0xD0 SHL PUSH1 0x64 DUP3 ADD MSTORE PUSH1 0x84 ADD PUSH2 0xC9C JUMP JUMPDEST PUSH1 0x1 PUSH1 0x1 PUSH1 0xA0 SHL SUB DUP5 DUP2 AND PUSH1 0x0 DUP2 DUP2 MSTORE PUSH1 0x20 DUP2 DUP2 MSTORE PUSH1 0x40 DUP1 DUP4 KECCAK256 DUP8 DUP8 SUB SWAP1 SSTORE SWAP4 DUP8 AND DUP1 DUP4 MSTORE SWAP2 DUP5 SWAP1 KECCAK256 DUP1 SLOAD DUP8 ADD SWAP1 SSTORE SWAP3 MLOAD DUP6 DUP2 MSTORE SWAP1 SWAP3 PUSH32 0xDDF252AD1BE2C89B69C2B068FC378DAA952BA7F163C4A11628F55A4DF523B3EF SWAP2 ADD PUSH1 0x40 MLOAD DUP1 SWAP2 SUB SWAP1 LOG3 PUSH2 0x14A2 JUMP JUMPDEST PUSH1 0x0 PUSH2 0xD7D DUP3 PUSH32 0x4E831ACB4223B66DE3B3D2E54A2EDEEFB0DE3D7916E2886A4B134D9764D41BEC DUP6 PUSH2 0x41E2 JUMP JUMPDEST PUSH1 0x0 PUSH1 0x3 PUSH1 0x2 DUP4 PUSH1 0x40 MLOAD PUSH2 0x2E61 SWAP2 SWAP1 PUSH2 0x5DA0 JUMP JUMPDEST PUSH1 0x20 PUSH1 0x40 MLOAD DUP1 DUP4 SUB DUP2 DUP6 GAS STATICCALL ISZERO DUP1 ISZERO PUSH2 0x2E7E JUMPI RETURNDATASIZE PUSH1 0x0 DUP1 RETURNDATACOPY RETURNDATASIZE PUSH1 0x0 REVERT JUMPDEST POP POP POP PUSH1 0x40 MLOAD RETURNDATASIZE PUSH1 0x1F NOT PUSH1 0x1F DUP3 ADD AND DUP3 ADD DUP1 PUSH1 0x40 MSTORE POP DUP2 ADD SWAP1 PUSH2 0x2EA1 SWAP2 SWAP1 PUSH2 0x5DBC JUMP JUMPDEST PUSH1 0x40 MLOAD PUSH1 0x20 ADD PUSH2 0x2EB3 SWAP2 DUP2 MSTORE PUSH1 0x20 ADD SWAP1 JUMP JUMPDEST PUSH1 0x40 DUP1 MLOAD PUSH1 0x1F NOT DUP2 DUP5 SUB ADD DUP2 MSTORE SWAP1 DUP3 SWAP1 MSTORE PUSH2 0x2ECD SWAP2 PUSH2 0x5DA0 JUMP JUMPDEST PUSH1 0x20 PUSH1 0x40 MLOAD DUP1 DUP4 SUB DUP2 DUP6 GAS STATICCALL ISZERO DUP1 ISZERO PUSH2 0x2EEA JUMPI RETURNDATASIZE PUSH1 0x0 DUP1 RETURNDATACOPY RETURNDATASIZE PUSH1 0x0 REVERT JUMPDEST POP POP PUSH1 0x40 MLOAD MLOAD PUSH1 0x60 SHL SWAP4 SWAP3 POP POP POP JUMP JUMPDEST PUSH1 0x6 SLOAD PUSH1 0x1 PUSH1 0x1 PUSH1 0x48 SHL SUB DUP1 DUP3 AND DUP5 MSTORE PUSH1 0x1 PUSH1 0x48 SHL DUP3 DIV DUP2 AND PUSH1 0x20 DUP6 ADD MSTORE PUSH5 0xFFFFFFFFFF PUSH1 0x1 PUSH1 0x90 SHL DUP4 DIV DUP2 AND PUSH1 0x40 DUP7 ADD MSTORE PUSH1 0x1 PUSH1 0xB8 SHL SWAP1 SWAP3 DIV DUP2 AND PUSH1 0x60 DUP6 ADD MSTORE PUSH1 0x7 SLOAD PUSH2 0xFFFF DUP2 AND PUSH1 0x80 DUP7 ADD MSTORE PUSH3 0x10000 DUP2 DIV SWAP1 SWAP2 AND PUSH1 0xA0 DUP6 ADD MSTORE PUSH1 0x1 PUSH1 0x58 SHL DUP2 DIV SWAP1 SWAP2 AND PUSH1 0xC0 DUP5 ADD MSTORE PUSH2 0x2F7F SWAP1 PUSH1 0x1 PUSH1 0x1 PUSH1 0x80 SHL SUB PUSH1 0x1 PUSH1 0x80 SHL SWAP1 SWAP2 DIV AND PUSH2 0x4175 JUMP JUMPDEST PUSH1 0xE0 DUP6 ADD MSTORE PUSH2 0x100 DUP5 ADD MSTORE PUSH2 0x120 DUP4 ADD MSTORE PUSH2 0x2F98 PUSH2 0x3697 JUMP JUMPDEST PUSH2 0x140 DUP4 ADD MSTORE PUSH2 0xD2F DUP3 DUP3 PUSH2 0x41F8 JUMP JUMPDEST DUP3 SLOAD PUSH5 0xFFFFFFFFFF DUP4 DUP2 AND SWAP2 AND EQ PUSH2 0x3002 JUMPI PUSH1 0x40 MLOAD PUSH3 0x461BCD PUSH1 0xE5 SHL DUP2 MSTORE PUSH1 0x20 PUSH1 0x4 DUP3 ADD MSTORE PUSH1 0x1F PUSH1 0x24 DUP3 ADD MSTORE PUSH32 0x4D594E543A207374616B654964506172616D206E6F7420696E207374616B6500 PUSH1 0x44 DUP3 ADD MSTORE PUSH1 0x64 ADD PUSH2 0xC9C JUMP JUMPDEST SWAP2 SLOAD PUSH5 0xFFFFFFFFFF DUP2 AND DUP4 MSTORE PUSH1 0x1 PUSH1 0x1 PUSH1 0x48 SHL SUB PUSH1 0x1 PUSH1 0x28 SHL DUP3 DIV DUP2 AND PUSH1 0x20 DUP6 ADD MSTORE PUSH1 0x1 PUSH1 0x70 SHL DUP3 DIV AND PUSH1 0x40 DUP5 ADD MSTORE PUSH2 0xFFFF PUSH1 0x1 PUSH1 0xB8 SHL DUP3 DIV DUP2 AND PUSH1 0x60 DUP6 ADD MSTORE PUSH1 0x1 PUSH1 0xC8 SHL DUP3 DIV DUP2 AND PUSH1 0x80 DUP6 ADD MSTORE PUSH1 0x1 PUSH1 0xD8 SHL DUP3 DIV AND PUSH1 0xA0 DUP5 ADD MSTORE PUSH1 0xFF PUSH1 0x1 PUSH1 0xE8 SHL SWAP1 SWAP2 DIV AND ISZERO ISZERO PUSH1 0xC0 SWAP1 SWAP3 ADD SWAP2 SWAP1 SWAP2 MSTORE POP JUMP JUMPDEST PUSH2 0x3087 DUP2 DUP3 PUSH2 0x140 ADD MLOAD PUSH1 0x1 PUSH2 0x3CD9 JUMP JUMPDEST POP JUMP JUMPDEST DUP1 PUSH1 0x40 ADD MLOAD DUP3 PUSH1 0xA0 ADD DUP2 DUP2 MLOAD PUSH2 0x30A0 SWAP2 SWAP1 PUSH2 0x5CE1 JUMP JUMPDEST SWAP1 MSTORE POP PUSH2 0x140 SWAP1 SWAP2 ADD MLOAD PUSH1 0xA0 SWAP1 SWAP2 ADD MSTORE JUMP JUMPDEST PUSH1 0x0 DUP1 PUSH1 0x0 DUP1 DUP6 PUSH1 0x80 ADD MLOAD DUP6 LT ISZERO PUSH2 0x30F9 JUMPI PUSH2 0x30DD DUP8 DUP8 PUSH1 0x60 ADD MLOAD DUP9 PUSH1 0x80 ADD MLOAD DUP9 DUP11 PUSH1 0x40 ADD MLOAD PUSH2 0x4260 JUMP JUMPDEST PUSH1 0x20 DUP9 ADD MLOAD SWAP2 SWAP5 POP SWAP3 POP PUSH2 0x30F2 SWAP1 DUP5 SWAP1 PUSH2 0x5CF4 JUMP JUMPDEST SWAP4 POP PUSH2 0x3147 JUMP JUMPDEST PUSH1 0x40 DUP7 ADD MLOAD PUSH1 0x60 DUP8 ADD MLOAD PUSH2 0x3118 SWAP2 DUP10 SWAP2 PUSH2 0x3113 DUP10 DUP3 PUSH2 0x5CF4 JUMP JUMPDEST PUSH2 0x434E JUMP JUMPDEST SWAP3 POP DUP3 DUP7 PUSH1 0x20 ADD MLOAD PUSH2 0x312A SWAP2 SWAP1 PUSH2 0x5CF4 JUMP JUMPDEST SWAP4 POP PUSH2 0x3144 DUP7 PUSH1 0x60 ADD MLOAD DUP8 PUSH1 0x80 ADD MLOAD DUP9 PUSH1 0xA0 ADD MLOAD DUP8 PUSH2 0x44BA JUMP JUMPDEST SWAP2 POP JUMPDEST DUP2 ISZERO PUSH2 0x316D JUMPI DUP4 DUP3 GT ISZERO PUSH2 0x315E JUMPI POP PUSH1 0x0 SWAP3 PUSH2 0x316D JUMP JUMPDEST POP DUP1 PUSH2 0x316A DUP2 DUP6 PUSH2 0x5CE1 JUMP JUMPDEST SWAP4 POP JUMPDEST SWAP4 POP SWAP4 POP SWAP4 POP SWAP4 JUMP JUMPDEST DUP7 PUSH5 0xFFFFFFFFFF AND CALLER PUSH1 0x1 PUSH1 0x1 PUSH1 0xA0 SHL SUB AND PUSH32 0x72D9C5A7AB13846E08D9C838F9E866A1BB4A66A2FD3BA3C9E7DA3CF9E394DFD7 PUSH1 0xB8 DUP8 PUSH1 0x1 PUSH1 0x1 PUSH1 0x48 SHL SUB AND SWAP1 SHL PUSH1 0x70 DUP10 PUSH1 0x1 PUSH1 0x1 PUSH1 0x48 SHL SUB AND SWAP1 SHL PUSH1 0x28 DUP12 PUSH1 0x1 PUSH1 0x1 PUSH1 0x48 SHL SUB AND SWAP1 SHL TIMESTAMP PUSH5 0xFFFFFFFFFF AND OR OR OR DUP5 PUSH2 0x31EA JUMPI PUSH1 0x0 PUSH2 0x31F0 JUMP JUMPDEST PUSH1 0x1 PUSH1 0x58 SHL JUMPDEST PUSH1 0x1 PUSH1 0x1 PUSH1 0x60 SHL SUB AND PUSH1 0x48 DUP8 PUSH2 0xFFFF AND SWAP1 SHL DUP9 PUSH1 0x1 PUSH1 0x1 PUSH1 0x48 SHL SUB AND OR OR PUSH1 0x40 MLOAD PUSH2 0x3225 SWAP3 SWAP2 SWAP1 SWAP2 DUP3 MSTORE PUSH1 0x20 DUP3 ADD MSTORE PUSH1 0x40 ADD SWAP1 JUMP JUMPDEST PUSH1 0x40 MLOAD DUP1 SWAP2 SUB SWAP1 LOG3 POP POP POP POP POP POP POP JUMP JUMPDEST PUSH1 0x0 PUSH2 0x3243 PUSH1 0x2 DUP4 PUSH2 0x5C92 JUMP JUMPDEST SWAP1 POP DUP1 ISZERO PUSH2 0x3269 JUMPI PUSH2 0x3269 PUSH20 0x9A6A414D6F3497C05E3B1DE90520765FA1E07C03 DUP3 PUSH2 0x2B49 JUMP JUMPDEST PUSH2 0x3273 DUP2 DUP4 PUSH2 0x5CE1 JUMP JUMPDEST SWAP1 POP DUP1 DUP4 PUSH1 0x60 ADD DUP2 DUP2 MLOAD PUSH2 0x3287 SWAP2 SWAP1 PUSH2 0x5CF4 JUMP JUMPDEST SWAP1 MSTORE POP POP POP POP JUMP JUMPDEST DUP2 PUSH1 0x20 ADD MLOAD DUP2 GT ISZERO PUSH2 0xCAF JUMPI PUSH1 0x0 PUSH2 0x32AB DUP3 DUP5 PUSH1 0x80 ADD MLOAD PUSH2 0x451A JUMP JUMPDEST SWAP1 POP PUSH1 0x0 DUP4 PUSH1 0x40 ADD MLOAD PUSH3 0x186A0 DUP4 DUP6 PUSH2 0x32C4 SWAP2 SWAP1 PUSH2 0x5CF4 JUMP JUMPDEST PUSH2 0x32CE SWAP2 SWAP1 PUSH2 0x5CB4 JUMP JUMPDEST PUSH2 0x32D8 SWAP2 SWAP1 PUSH2 0x5C92 JUMP JUMPDEST SWAP1 POP PUSH2 0x32E9 PUSH1 0x1 PUSH1 0x1 PUSH1 0x28 SHL PUSH2 0x5CE1 JUMP JUMPDEST DUP2 GT ISZERO PUSH2 0x3302 JUMPI PUSH2 0x32FF PUSH1 0x1 PUSH1 0x1 PUSH1 0x28 SHL PUSH2 0x5CE1 JUMP JUMPDEST SWAP1 POP JUMPDEST DUP5 PUSH1 0x40 ADD MLOAD DUP2 GT ISZERO PUSH2 0x2668 JUMPI PUSH1 0x40 DUP6 ADD DUP2 SWAP1 MSTORE DUP4 MLOAD PUSH2 0x2668 SWAP1 DUP3 SWAP1 PUSH2 0x4688 JUMP JUMPDEST DUP2 SLOAD PUSH1 0x0 SWAP1 PUSH2 0x3333 SWAP1 PUSH1 0x1 SWAP1 PUSH2 0x5CE1 JUMP JUMPDEST SWAP1 POP DUP1 DUP3 EQ PUSH2 0x3480 JUMPI DUP3 DUP2 DUP2 SLOAD DUP2 LT PUSH2 0x334E JUMPI PUSH2 0x334E PUSH2 0x5CCB JUMP JUMPDEST SWAP1 PUSH1 0x0 MSTORE PUSH1 0x20 PUSH1 0x0 KECCAK256 ADD DUP4 DUP4 DUP2 SLOAD DUP2 LT PUSH2 0x336A JUMPI PUSH2 0x336A PUSH2 0x5CCB JUMP JUMPDEST PUSH1 0x0 SWAP2 DUP3 MSTORE PUSH1 0x20 SWAP1 SWAP2 KECCAK256 DUP3 SLOAD SWAP2 ADD DUP1 SLOAD PUSH5 0xFFFFFFFFFF NOT DUP2 AND PUSH5 0xFFFFFFFFFF SWAP1 SWAP4 AND SWAP3 DUP4 OR DUP3 SSTORE DUP4 SLOAD PUSH1 0x1 PUSH1 0x1 PUSH1 0x48 SHL SUB PUSH1 0x1 PUSH1 0x28 SHL SWAP2 DUP3 SWAP1 DIV DUP2 AND SWAP1 SWAP2 MUL PUSH1 0x1 PUSH1 0x1 PUSH1 0x70 SHL SUB NOT SWAP1 SWAP3 AND SWAP1 SWAP4 OR OR DUP1 DUP3 SSTORE DUP4 SLOAD PUSH1 0x1 PUSH1 0x70 SHL SWAP1 DUP2 SWAP1 DIV SWAP1 SWAP4 AND SWAP1 SWAP3 MUL PUSH9 0xFFFFFFFFFFFFFFFFFF PUSH1 0x70 SHL NOT DUP4 AND DUP2 OR DUP3 SSTORE DUP4 SLOAD PUSH2 0xFFFF PUSH1 0x1 PUSH1 0xB8 SHL SWAP2 DUP3 SWAP1 DIV DUP2 AND SWAP1 SWAP2 MUL PUSH2 0xFFFF PUSH1 0xB8 SHL NOT SWAP1 SWAP3 AND PUSH1 0x1 PUSH1 0x70 SHL PUSH1 0x1 PUSH1 0xC8 SHL SUB NOT SWAP1 SWAP5 AND SWAP4 SWAP1 SWAP4 OR OR DUP1 DUP3 SSTORE DUP4 SLOAD PUSH1 0x1 PUSH1 0xC8 SHL SWAP1 DUP2 SWAP1 DIV DUP5 AND MUL PUSH2 0xFFFF PUSH1 0xC8 SHL NOT DUP3 AND DUP2 OR DUP4 SSTORE DUP5 SLOAD PUSH1 0x1 PUSH1 0xD8 SHL SWAP1 DUP2 SWAP1 DIV SWAP1 SWAP5 AND SWAP1 SWAP4 MUL PUSH2 0xFFFF PUSH1 0xD8 SHL NOT SWAP1 SWAP4 AND PUSH4 0xFFFFFFFF PUSH1 0xC8 SHL NOT SWAP1 SWAP2 AND OR SWAP2 SWAP1 SWAP2 OR DUP1 DUP3 SSTORE SWAP2 SLOAD PUSH1 0xFF PUSH1 0x1 PUSH1 0xE8 SHL SWAP2 DUP3 SWAP1 DIV AND ISZERO ISZERO MUL PUSH1 0xFF PUSH1 0xE8 SHL NOT SWAP1 SWAP3 AND SWAP2 SWAP1 SWAP2 OR SWAP1 SSTORE JUMPDEST DUP3 DUP1 SLOAD DUP1 PUSH2 0x3490 JUMPI PUSH2 0x3490 PUSH2 0x5DD5 JUMP JUMPDEST PUSH1 0x0 DUP3 DUP2 MSTORE PUSH1 0x20 SWAP1 KECCAK256 DUP2 ADD PUSH1 0x0 NOT SWAP1 DUP2 ADD DUP1 SLOAD PUSH1 0x1 PUSH1 0x1 PUSH1 0xF0 SHL SUB NOT AND SWAP1 SSTORE ADD SWAP1 SSTORE POP POP POP JUMP JUMPDEST DUP1 MLOAD DUP3 MLOAD EQ ISZERO DUP1 PUSH2 0x34D0 JUMPI POP DUP1 PUSH1 0x20 ADD MLOAD DUP3 PUSH1 0x20 ADD MLOAD EQ ISZERO JUMPDEST DUP1 PUSH2 0x34E3 JUMPI POP DUP1 PUSH1 0x40 ADD MLOAD DUP3 PUSH1 0x40 ADD MLOAD EQ ISZERO JUMPDEST DUP1 PUSH2 0x34F6 JUMPI POP DUP1 PUSH1 0x60 ADD MLOAD DUP3 PUSH1 0x60 ADD MLOAD EQ ISZERO JUMPDEST ISZERO PUSH2 0x3579 JUMPI DUP2 MLOAD PUSH1 0x6 DUP1 SLOAD PUSH1 0x20 DUP6 ADD MLOAD PUSH1 0x40 DUP7 ADD MLOAD PUSH1 0x60 DUP8 ADD MLOAD PUSH1 0x1 PUSH1 0x1 PUSH1 0x48 SHL SUB SWAP1 DUP2 AND PUSH1 0x1 PUSH1 0xB8 SHL MUL PUSH1 0x1 PUSH1 0x1 PUSH1 0xB8 SHL SUB PUSH5 0xFFFFFFFFFF SWAP1 SWAP4 AND PUSH1 0x1 PUSH1 0x90 SHL MUL SWAP3 SWAP1 SWAP3 AND PUSH18 0xFFFFFFFFFFFFFFFFFFFFFFFFFFFFFFFFFFFF SWAP4 DUP3 AND PUSH1 0x1 PUSH1 0x48 SHL MUL PUSH1 0x1 PUSH1 0x1 PUSH1 0x90 SHL SUB NOT SWAP1 SWAP6 AND SWAP2 SWAP1 SWAP7 AND OR SWAP3 SWAP1 SWAP3 OR AND SWAP3 SWAP1 SWAP3 OR SWAP2 SWAP1 SWAP2 OR SWAP1 SSTORE JUMPDEST DUP1 PUSH1 0x80 ADD MLOAD DUP3 PUSH1 0x80 ADD MLOAD EQ ISZERO DUP1 PUSH2 0x3598 JUMPI POP DUP1 PUSH1 0xA0 ADD MLOAD DUP3 PUSH1 0xA0 ADD MLOAD EQ ISZERO JUMPDEST DUP1 PUSH2 0x35B9 JUMPI POP DUP1 PUSH1 0xC0 ADD MLOAD PUSH5 0xFFFFFFFFFF AND DUP3 PUSH1 0xC0 ADD MLOAD PUSH5 0xFFFFFFFFFF AND EQ ISZERO JUMPDEST DUP1 PUSH2 0x35CC JUMPI POP DUP1 PUSH1 0xE0 ADD MLOAD DUP3 PUSH1 0xE0 ADD MLOAD EQ ISZERO JUMPDEST DUP1 PUSH2 0x35E1 JUMPI POP DUP1 PUSH2 0x100 ADD MLOAD DUP3 PUSH2 0x100 ADD MLOAD EQ ISZERO JUMPDEST DUP1 PUSH2 0x35F6 JUMPI POP DUP1 PUSH2 0x120 ADD MLOAD DUP3 PUSH2 0x120 ADD MLOAD EQ ISZERO JUMPDEST ISZERO PUSH2 0xD2F JUMPI PUSH1 0x80 DUP3 ADD MLOAD PUSH1 0x7 DUP1 SLOAD PUSH1 0xA0 DUP6 ADD MLOAD PUSH1 0xC0 DUP7 ADD MLOAD PUSH5 0xFFFFFFFFFF AND PUSH1 0x1 PUSH1 0x58 SHL MUL PUSH5 0xFFFFFFFFFF PUSH1 0x58 SHL NOT PUSH1 0x1 PUSH1 0x1 PUSH1 0x48 SHL SUB SWAP1 SWAP3 AND PUSH3 0x10000 MUL PUSH11 0xFFFFFFFFFFFFFFFFFFFFFF NOT SWAP1 SWAP4 AND PUSH2 0xFFFF SWAP1 SWAP6 AND SWAP5 SWAP1 SWAP5 OR SWAP2 SWAP1 SWAP2 OR AND SWAP2 SWAP1 SWAP2 OR SWAP1 SSTORE PUSH2 0x120 DUP3 ADD MLOAD PUSH2 0x100 DUP4 ADD MLOAD PUSH1 0xE0 DUP5 ADD MLOAD PUSH2 0x3676 SWAP3 SWAP2 SWAP1 PUSH2 0x46E1 JUMP JUMPDEST PUSH1 0x7 DUP1 SLOAD PUSH1 0x1 PUSH1 0x1 PUSH1 0x80 SHL SUB SWAP3 DUP4 AND PUSH1 0x1 PUSH1 0x80 SHL MUL SWAP3 AND SWAP2 SWAP1 SWAP2 OR SWAP1 SSTORE POP POP JUMP JUMPDEST PUSH1 0x0 PUSH1 0x3C PUSH2 0x36A9 PUSH4 0x65645B8F TIMESTAMP PUSH2 0x5CE1 JUMP JUMPDEST PUSH2 0x1320 SWAP2 SWAP1 PUSH2 0x5C92 JUMP JUMPDEST PUSH2 0x15B3 DUP3 GT ISZERO PUSH2 0x3715 JUMPI PUSH1 0x40 MLOAD PUSH3 0x461BCD PUSH1 0xE5 SHL DUP2 MSTORE PUSH1 0x20 PUSH1 0x4 DUP3 ADD MSTORE PUSH1 0x27 PUSH1 0x24 DUP3 ADD MSTORE PUSH32 0x4D594E543A206E65775374616B65644461797320686967686572207468616E20 PUSH1 0x44 DUP3 ADD MSTORE PUSH7 0x6D6178696D756D PUSH1 0xC8 SHL PUSH1 0x64 DUP3 ADD MSTORE PUSH1 0x84 ADD PUSH2 0xC9C JUMP JUMPDEST PUSH1 0x0 PUSH2 0x3721 DUP5 DUP5 PUSH2 0x451A JUMP JUMPDEST SWAP1 POP PUSH1 0x0 DUP6 PUSH1 0x40 ADD MLOAD PUSH3 0x186A0 DUP4 DUP8 PUSH2 0x373A SWAP2 SWAP1 PUSH2 0x5CF4 JUMP JUMPDEST PUSH2 0x3744 SWAP2 SWAP1 PUSH2 0x5CB4 JUMP JUMPDEST PUSH2 0x374E SWAP2 SWAP1 PUSH2 0x5C92 JUMP JUMPDEST SWAP1 POP DUP1 PUSH1 0x0 SUB PUSH2 0x37C6 JUMPI PUSH1 0x40 MLOAD PUSH3 0x461BCD PUSH1 0xE5 SHL DUP2 MSTORE PUSH1 0x20 PUSH1 0x4 DUP3 ADD MSTORE PUSH1 0x38 PUSH1 0x24 DUP3 ADD MSTORE PUSH32 0x4D594E543A206E65775374616B6564486561727473206D757374206265206174 PUSH1 0x44 DUP3 ADD MSTORE PUSH32 0x206C65617374206D696E696D756D207368617265526174650000000000000000 PUSH1 0x64 DUP3 ADD MSTORE PUSH1 0x84 ADD PUSH2 0xC9C JUMP JUMPDEST PUSH1 0x0 PUSH1 0x1 DUP8 PUSH2 0x140 ADD MLOAD LT PUSH2 0x37EB JUMPI PUSH2 0x140 DUP8 ADD MLOAD PUSH2 0x37E6 SWAP1 PUSH1 0x1 PUSH2 0x5CF4 JUMP JUMPDEST PUSH2 0x37F6 JUMP JUMPDEST PUSH2 0x37F6 PUSH1 0x1 DUP1 PUSH2 0x5CF4 JUMP JUMPDEST SWAP1 POP PUSH1 0x0 DUP8 PUSH1 0xC0 ADD DUP1 MLOAD PUSH2 0x3809 SWAP1 PUSH2 0x5D7C JUMP JUMPDEST PUSH5 0xFFFFFFFFFF AND SWAP1 DUP2 SWAP1 MSTORE CALLER PUSH1 0x0 SWAP1 DUP2 MSTORE PUSH1 0xA PUSH1 0x20 MSTORE PUSH1 0x40 SWAP1 KECCAK256 SWAP1 SWAP2 POP PUSH2 0x3948 SWAP1 DUP3 DUP10 DUP7 DUP7 DUP12 DUP12 PUSH1 0x40 DUP1 MLOAD PUSH1 0xE0 DUP2 ADD DUP3 MSTORE PUSH5 0xFFFFFFFFFF SWAP8 DUP9 AND DUP2 MSTORE PUSH1 0x1 PUSH1 0x1 PUSH1 0x48 SHL SUB SWAP7 DUP8 AND PUSH1 0x20 DUP1 DUP4 ADD SWAP2 DUP3 MSTORE SWAP7 DUP9 AND SWAP3 DUP3 ADD SWAP3 DUP4 MSTORE PUSH2 0xFFFF SWAP6 DUP7 AND PUSH1 0x60 DUP4 ADD SWAP1 DUP2 MSTORE SWAP5 DUP7 AND PUSH1 0x80 DUP4 ADD SWAP1 DUP2 MSTORE PUSH1 0x0 PUSH1 0xA0 DUP5 ADD DUP2 DUP2 MSTORE SWAP6 ISZERO ISZERO PUSH1 0xC0 DUP6 ADD SWAP1 DUP2 MSTORE DUP13 SLOAD PUSH1 0x1 DUP2 ADD DUP15 SSTORE SWAP13 DUP3 MSTORE SWAP9 SWAP1 KECCAK256 SWAP3 MLOAD SWAP3 SWAP1 SWAP11 ADD DUP1 SLOAD SWAP2 MLOAD SWAP4 MLOAD SWAP6 MLOAD SWAP11 MLOAD SWAP5 MLOAD SWAP8 MLOAD ISZERO ISZERO PUSH1 0x1 PUSH1 0xE8 SHL MUL PUSH1 0xFF PUSH1 0xE8 SHL NOT SWAP9 DUP9 AND PUSH1 0x1 PUSH1 0xD8 SHL MUL PUSH2 0xFFFF PUSH1 0xD8 SHL NOT SWAP7 DUP10 AND PUSH1 0x1 PUSH1 0xC8 SHL MUL SWAP7 SWAP1 SWAP7 AND PUSH4 0xFFFFFFFF PUSH1 0xC8 SHL NOT SWAP13 SWAP1 SWAP9 AND PUSH1 0x1 PUSH1 0xB8 SHL MUL PUSH2 0xFFFF PUSH1 0xB8 SHL NOT SWAP8 DUP12 AND PUSH1 0x1 PUSH1 0x70 SHL MUL SWAP8 SWAP1 SWAP8 AND PUSH1 0x1 PUSH1 0x70 SHL PUSH1 0x1 PUSH1 0xC8 SHL SUB NOT SWAP6 SWAP1 SWAP11 AND PUSH1 0x1 PUSH1 0x28 SHL MUL PUSH1 0x1 PUSH1 0x1 PUSH1 0x70 SHL SUB NOT SWAP1 SWAP4 AND SWAP4 SWAP1 SWAP11 AND SWAP3 SWAP1 SWAP3 OR OR SWAP2 SWAP1 SWAP2 AND SWAP6 SWAP1 SWAP6 OR SWAP2 SWAP1 SWAP2 OR SWAP6 SWAP1 SWAP6 AND OR SWAP4 SWAP1 SWAP4 OR SWAP3 SWAP1 SWAP3 AND OR SWAP1 SSTORE JUMP JUMPDEST PUSH2 0x3955 DUP2 DUP9 DUP6 DUP10 DUP10 PUSH2 0x4705 JUMP JUMPDEST DUP3 DUP9 PUSH1 0x20 ADD DUP2 DUP2 MLOAD PUSH2 0x3967 SWAP2 SWAP1 PUSH2 0x5CF4 JUMP JUMPDEST SWAP1 MSTORE POP DUP8 MLOAD DUP8 SWAP1 DUP10 SWAP1 PUSH2 0x397B SWAP1 DUP4 SWAP1 PUSH2 0x5CF4 JUMP JUMPDEST SWAP1 MSTORE POP POP POP POP POP POP POP POP POP JUMP JUMPDEST PUSH1 0x1 PUSH1 0x1 PUSH1 0xA0 SHL SUB DUP3 AND PUSH2 0x39E8 JUMPI PUSH1 0x40 MLOAD PUSH3 0x461BCD PUSH1 0xE5 SHL DUP2 MSTORE PUSH1 0x20 PUSH1 0x4 DUP3 ADD MSTORE PUSH1 0x21 PUSH1 0x24 DUP3 ADD MSTORE PUSH32 0x45524332303A206275726E2066726F6D20746865207A65726F20616464726573 PUSH1 0x44 DUP3 ADD MSTORE PUSH1 0x73 PUSH1 0xF8 SHL PUSH1 0x64 DUP3 ADD MSTORE PUSH1 0x84 ADD PUSH2 0xC9C JUMP JUMPDEST PUSH1 0x1 PUSH1 0x1 PUSH1 0xA0 SHL SUB DUP3 AND PUSH1 0x0 SWAP1 DUP2 MSTORE PUSH1 0x20 DUP2 SWAP1 MSTORE PUSH1 0x40 SWAP1 KECCAK256 SLOAD DUP2 DUP2 LT ISZERO PUSH2 0x3A5C JUMPI PUSH1 0x40 MLOAD PUSH3 0x461BCD PUSH1 0xE5 SHL DUP2 MSTORE PUSH1 0x20 PUSH1 0x4 DUP3 ADD MSTORE PUSH1 0x22 PUSH1 0x24 DUP3 ADD MSTORE PUSH32 0x45524332303A206275726E20616D6F756E7420657863656564732062616C616E PUSH1 0x44 DUP3 ADD MSTORE PUSH2 0x6365 PUSH1 0xF0 SHL PUSH1 0x64 DUP3 ADD MSTORE PUSH1 0x84 ADD PUSH2 0xC9C JUMP JUMPDEST PUSH1 0x1 PUSH1 0x1 PUSH1 0xA0 SHL SUB DUP4 AND PUSH1 0x0 DUP2 DUP2 MSTORE PUSH1 0x20 DUP2 DUP2 MSTORE PUSH1 0x40 DUP1 DUP4 KECCAK256 DUP7 DUP7 SUB SWAP1 SSTORE PUSH1 0x2 DUP1 SLOAD DUP8 SWAP1 SUB SWAP1 SSTORE MLOAD DUP6 DUP2 MSTORE SWAP2 SWAP3 SWAP2 PUSH32 0xDDF252AD1BE2C89B69C2B068FC378DAA952BA7F163C4A11628F55A4DF523B3EF SWAP2 ADD PUSH1 0x40 MLOAD DUP1 SWAP2 SUB SWAP1 LOG3 POP POP POP JUMP JUMPDEST PUSH1 0x40 DUP1 MLOAD TIMESTAMP PUSH5 0xFFFFFFFFFF SWAP1 DUP2 AND PUSH14 0xFFFFFFFFFFFFFFFFFF0000000000 PUSH1 0x28 DUP10 SWAP1 SHL AND OR PUSH9 0xFFFFFFFFFFFFFFFFFF PUSH1 0x70 SHL PUSH1 0x70 DUP9 SWAP1 SHL AND OR PUSH1 0x1 PUSH1 0x1 PUSH1 0xB8 SHL SUB NOT PUSH1 0xB8 DUP8 SWAP1 SHL AND OR DUP3 MSTORE PUSH1 0x1 PUSH1 0x1 PUSH1 0x48 SHL SUB DUP5 AND PUSH1 0x20 DUP4 ADD MSTORE CALLER SWAP3 SWAP1 DUP9 AND SWAP2 PUSH1 0x1 PUSH1 0x1 PUSH1 0xA0 SHL SUB DUP11 AND SWAP2 PUSH32 0xD824970A2CF19CC2B630C87CE5B00F67301CAC3AC60513D027C7A39129F93B46 SWAP2 ADD PUSH1 0x40 MLOAD DUP1 SWAP2 SUB SWAP1 LOG4 POP POP POP POP POP POP JUMP JUMPDEST PUSH2 0xD2F DUP3 DUP3 PUSH1 0x40 MLOAD PUSH1 0x24 ADD PUSH2 0x3B6D SWAP3 SWAP2 SWAP1 PUSH2 0x5DEB JUMP JUMPDEST PUSH1 0x40 DUP1 MLOAD PUSH1 0x1F NOT DUP2 DUP5 SUB ADD DUP2 MSTORE SWAP2 SWAP1 MSTORE PUSH1 0x20 DUP2 ADD DUP1 MLOAD PUSH1 0x1 PUSH1 0x1 PUSH1 0xE0 SHL SUB AND PUSH4 0x2D839CB3 PUSH1 0xE2 SHL OR SWAP1 MSTORE PUSH2 0x4799 JUMP JUMPDEST PUSH1 0x0 PUSH1 0x2D PUSH1 0x1 PUSH2 0x3BAD DUP3 PUSH1 0x60 PUSH2 0x5CE1 JUMP JUMPDEST PUSH1 0x1 SWAP1 SHL PUSH2 0x3BBB SWAP2 SWAP1 PUSH2 0x5CE1 JUMP JUMPDEST SWAP1 SHL DUP3 PUSH1 0x0 DUP2 MLOAD DUP2 LT PUSH2 0x3BD0 JUMPI PUSH2 0x3BD0 PUSH2 0x5CCB JUMP JUMPDEST PUSH1 0x20 MUL PUSH1 0x20 ADD ADD MLOAD PUSH1 0x0 SHR AND PUSH1 0x0 EQ PUSH2 0x3C21 JUMPI PUSH1 0x40 MLOAD PUSH3 0x461BCD PUSH1 0xE5 SHL DUP2 MSTORE PUSH1 0x20 PUSH1 0x4 DUP3 ADD MSTORE PUSH1 0x13 PUSH1 0x24 DUP3 ADD MSTORE PUSH19 0x135653950E881C1C9BDBD9881A5B9D985B1A59 PUSH1 0x6A SHL PUSH1 0x44 DUP3 ADD MSTORE PUSH1 0x64 ADD PUSH2 0xC9C JUMP JUMPDEST PUSH1 0x1 JUMPDEST DUP3 MLOAD DUP2 LT ISZERO PUSH2 0x3CC1 JUMPI PUSH1 0x2D PUSH1 0x1 PUSH2 0x3C3C DUP3 PUSH1 0x60 PUSH2 0x5CE1 JUMP JUMPDEST PUSH1 0x1 SWAP1 SHL PUSH2 0x3C4A SWAP2 SWAP1 PUSH2 0x5CE1 JUMP JUMPDEST SWAP1 SHL DUP4 DUP3 DUP2 MLOAD DUP2 LT PUSH2 0x3C5E JUMPI PUSH2 0x3C5E PUSH2 0x5CCB JUMP JUMPDEST PUSH1 0x20 MUL PUSH1 0x20 ADD ADD MLOAD PUSH1 0x0 SHR AND PUSH1 0x0 SUB PUSH2 0x3CAF JUMPI PUSH1 0x40 MLOAD PUSH3 0x461BCD PUSH1 0xE5 SHL DUP2 MSTORE PUSH1 0x20 PUSH1 0x4 DUP3 ADD MSTORE PUSH1 0x13 PUSH1 0x24 DUP3 ADD MSTORE PUSH19 0x135653950E881C1C9BDBD9881A5B9D985B1A59 PUSH1 0x6A SHL PUSH1 0x44 DUP3 ADD MSTORE PUSH1 0x64 ADD PUSH2 0xC9C JUMP JUMPDEST DUP1 PUSH2 0x3CB9 DUP2 PUSH2 0x5D1E JUMP JUMPDEST SWAP2 POP POP PUSH2 0x3C24 JUMP JUMPDEST POP PUSH1 0x1 PUSH1 0x1 PUSH1 0x60 SHL SUB NOT DUP5 AND DUP4 OR PUSH2 0x27F4 DUP2 DUP5 PUSH2 0x2E20 JUMP JUMPDEST DUP2 DUP4 PUSH1 0x80 ADD MLOAD LT PUSH2 0x3CE9 JUMPI POP POP POP JUMP JUMPDEST PUSH2 0x3D0D PUSH1 0x40 MLOAD DUP1 PUSH1 0x60 ADD PUSH1 0x40 MSTORE DUP1 PUSH1 0x0 DUP2 MSTORE PUSH1 0x20 ADD PUSH1 0x0 DUP2 MSTORE PUSH1 0x20 ADD PUSH1 0x0 DUP2 MSTORE POP SWAP1 JUMP JUMPDEST DUP4 MLOAD PUSH1 0x2 SLOAD PUSH2 0x3D1C SWAP2 SWAP1 PUSH2 0x5CF4 JUMP JUMPDEST DUP2 MSTORE PUSH1 0x80 DUP5 ADD MLOAD PUSH2 0x3D2E DUP6 DUP4 DUP4 PUSH2 0x47A2 JUMP JUMPDEST PUSH1 0x20 DUP6 ADD MLOAD ISZERO PUSH2 0x3D59 JUMPI DUP5 PUSH1 0x20 ADD MLOAD DUP6 PUSH1 0xA0 ADD DUP2 DUP2 MLOAD PUSH2 0x3D4E SWAP2 SWAP1 PUSH2 0x5CF4 JUMP JUMPDEST SWAP1 MSTORE POP PUSH1 0x0 PUSH1 0x20 DUP7 ADD MSTORE JUMPDEST DUP4 PUSH2 0x3D63 DUP3 PUSH2 0x5D1E JUMP JUMPDEST SWAP2 POP DUP2 LT ISZERO PUSH2 0x3D7C JUMPI PUSH2 0x3D77 DUP6 DUP4 DUP4 PUSH2 0x47A2 JUMP JUMPDEST PUSH2 0x3D59 JUMP JUMPDEST PUSH2 0x3D8B DUP6 PUSH1 0x80 ADD MLOAD DUP3 DUP6 PUSH2 0x481A JUMP JUMPDEST PUSH1 0x80 DUP6 ADD DUP2 SWAP1 MSTORE PUSH1 0x20 DUP3 ADD MLOAD ISZERO PUSH2 0x2668 JUMPI PUSH2 0x2668 PUSH20 0x9A6A414D6F3497C05E3B1DE90520765FA1E07C03 DUP4 PUSH1 0x20 ADD MLOAD PUSH2 0x2B49 JUMP JUMPDEST PUSH1 0x0 PUSH2 0x3DC8 PUSH2 0x5406 JUMP JUMPDEST PUSH2 0x3DD0 PUSH2 0x5406 JUMP JUMPDEST PUSH2 0x3DDA DUP3 DUP3 PUSH2 0x2EFA JUMP JUMPDEST PUSH2 0x3DE9 DUP3 DUP11 DUP11 DUP11 DUP11 DUP11 DUP11 PUSH2 0x4893 JUMP JUMPDEST SWAP3 POP PUSH2 0x3DF5 DUP3 DUP3 PUSH2 0x34B7 JUMP JUMPDEST POP POP SWAP7 SWAP6 POP POP POP POP POP POP JUMP JUMPDEST DUP1 PUSH1 0x1 PUSH1 0x1 PUSH1 0xA0 SHL SUB AND DUP4 PUSH1 0x28 DUP7 SWAP1 SHL OR CALLER PUSH1 0x1 PUSH1 0x1 PUSH1 0xA0 SHL SUB AND PUSH32 0xA6B19FA7F41317A186E1D58E9D81F86A52F1102B6BCE10B4ECA83F37AAA58468 PUSH1 0x28 DUP7 PUSH1 0x1 PUSH1 0x1 PUSH1 0x48 SHL SUB AND SWAP1 SHL TIMESTAMP PUSH5 0xFFFFFFFFFF AND OR PUSH1 0x40 MLOAD PUSH2 0x3E63 SWAP2 DUP2 MSTORE PUSH1 0x20 ADD SWAP1 JUMP JUMPDEST PUSH1 0x40 MLOAD DUP1 SWAP2 SUB SWAP1 LOG4 POP POP POP POP JUMP JUMPDEST DUP1 PUSH1 0x1 PUSH1 0x1 PUSH1 0xA0 SHL SUB AND DUP4 PUSH1 0x28 DUP7 SWAP1 SHL OR CALLER PUSH1 0x1 PUSH1 0x1 PUSH1 0xA0 SHL SUB AND PUSH32 0x25ECDB937D5C5CC78F0D18DFB1AC82C44086B5DC608380BA357D06C9868F0B1D PUSH1 0x28 DUP7 PUSH1 0x1 PUSH1 0x1 PUSH1 0x60 SHL SUB AND SWAP1 SHL TIMESTAMP PUSH5 0xFFFFFFFFFF AND OR PUSH1 0x40 MLOAD PUSH2 0x3E63 SWAP2 DUP2 MSTORE PUSH1 0x20 ADD SWAP1 JUMP JUMPDEST PUSH1 0x60 PUSH1 0x0 PUSH1 0x1 DUP4 AND DUP2 SUB PUSH2 0x3F0F JUMPI PUSH1 0x40 MLOAD DUP1 PUSH1 0x40 ADD PUSH1 0x40 MSTORE DUP1 PUSH1 0x10 DUP2 MSTORE PUSH1 0x20 ADD PUSH16 0x86D8C2D2DABE9AB29CA8BEE8DEBE60F PUSH1 0x83 SHL DUP2 MSTORE POP PUSH2 0x3F46 JUMP JUMPDEST PUSH1 0x40 MLOAD DUP1 PUSH1 0x40 ADD PUSH1 0x40 MSTORE DUP1 PUSH1 0x17 DUP2 MSTORE PUSH1 0x20 ADD PUSH32 0x436C61696D5F426974636F696E4D594E545F746F5F3078000000000000000000 DUP2 MSTORE POP JUMPDEST SWAP1 POP PUSH1 0x10 DUP4 AND ISZERO PUSH1 0x0 PUSH2 0x3F59 DUP8 DUP4 PUSH2 0x4A0C JUMP JUMPDEST SWAP1 POP PUSH1 0x0 DUP7 SWAP1 SUB PUSH2 0x3FC9 JUMPI PUSH1 0x18 PUSH24 0x2134BA31B7B4B71029B4B3B732B21026B2B9B9B0B3B29D05 PUSH1 0x41 SHL PUSH2 0x3F8E PUSH1 0x14 PUSH1 0x2 PUSH2 0x5E0D JUMP JUMPDEST DUP6 MLOAD PUSH2 0x3F9A SWAP2 SWAP1 PUSH2 0x5E30 JUMP JUMPDEST DUP6 DUP5 PUSH1 0x40 MLOAD PUSH1 0x20 ADD PUSH2 0x3FB0 SWAP6 SWAP5 SWAP4 SWAP3 SWAP2 SWAP1 PUSH2 0x5E49 JUMP JUMPDEST PUSH1 0x40 MLOAD PUSH1 0x20 DUP2 DUP4 SUB SUB DUP2 MSTORE SWAP1 PUSH1 0x40 MSTORE SWAP4 POP POP POP POP PUSH2 0xD7D JUMP JUMPDEST PUSH1 0x0 PUSH2 0x3FD7 PUSH1 0xC PUSH1 0x2 PUSH2 0x5E0D JUMP JUMPDEST PUSH1 0xFF AND PUSH8 0xFFFFFFFFFFFFFFFF DUP2 GT ISZERO PUSH2 0x3FF2 JUMPI PUSH2 0x3FF2 PUSH2 0x57D0 JUMP JUMPDEST PUSH1 0x40 MLOAD SWAP1 DUP1 DUP3 MSTORE DUP1 PUSH1 0x1F ADD PUSH1 0x1F NOT AND PUSH1 0x20 ADD DUP3 ADD PUSH1 0x40 MSTORE DUP1 ISZERO PUSH2 0x401C JUMPI PUSH1 0x20 DUP3 ADD DUP2 DUP1 CALLDATASIZE DUP4 CALLDATACOPY ADD SWAP1 POP JUMPDEST POP SWAP1 POP PUSH2 0x402B DUP2 DUP9 PUSH1 0xC PUSH2 0x4AFF JUMP JUMPDEST PUSH1 0x18 PUSH24 0x2134BA31B7B4B71029B4B3B732B21026B2B9B9B0B3B29D05 PUSH1 0x41 SHL PUSH2 0x4055 PUSH1 0xC PUSH1 0x2 PUSH2 0x5E0D JUMP JUMPDEST PUSH2 0x4061 PUSH1 0x14 PUSH1 0x2 PUSH2 0x5E0D JUMP JUMPDEST DUP8 MLOAD PUSH2 0x406D SWAP2 SWAP1 PUSH2 0x5E30 JUMP JUMPDEST PUSH2 0x4078 SWAP1 PUSH1 0x1 PUSH2 0x5E30 JUMP JUMPDEST PUSH2 0x4082 SWAP2 SWAP1 PUSH2 0x5E30 JUMP JUMPDEST DUP7 DUP6 DUP6 PUSH1 0x40 MLOAD PUSH1 0x20 ADD PUSH2 0x409A SWAP7 SWAP6 SWAP5 SWAP4 SWAP3 SWAP2 SWAP1 PUSH2 0x5EB1 JUMP JUMPDEST PUSH1 0x40 MLOAD PUSH1 0x20 DUP2 DUP4 SUB SUB DUP2 MSTORE SWAP1 PUSH1 0x40 MSTORE SWAP5 POP POP POP POP POP SWAP4 SWAP3 POP POP POP JUMP JUMPDEST PUSH1 0x0 PUSH1 0x2 DUP1 DUP4 PUSH1 0x40 MLOAD PUSH2 0x40C9 SWAP2 SWAP1 PUSH2 0x5DA0 JUMP JUMPDEST PUSH1 0x20 PUSH1 0x40 MLOAD DUP1 DUP4 SUB DUP2 DUP6 GAS STATICCALL ISZERO DUP1 ISZERO PUSH2 0x40E6 JUMPI RETURNDATASIZE PUSH1 0x0 DUP1 RETURNDATACOPY RETURNDATASIZE PUSH1 0x0 REVERT JUMPDEST POP POP POP PUSH1 0x40 MLOAD RETURNDATASIZE PUSH1 0x1F NOT PUSH1 0x1F DUP3 ADD AND DUP3 ADD DUP1 PUSH1 0x40 MSTORE POP DUP2 ADD SWAP1 PUSH2 0x4109 SWAP2 SWAP1 PUSH2 0x5DBC JUMP JUMPDEST PUSH1 0x40 MLOAD PUSH1 0x20 ADD PUSH2 0x411B SWAP2 DUP2 MSTORE PUSH1 0x20 ADD SWAP1 JUMP JUMPDEST PUSH1 0x40 DUP1 MLOAD PUSH1 0x1F NOT DUP2 DUP5 SUB ADD DUP2 MSTORE SWAP1 DUP3 SWAP1 MSTORE PUSH2 0x4135 SWAP2 PUSH2 0x5DA0 JUMP JUMPDEST PUSH1 0x20 PUSH1 0x40 MLOAD DUP1 DUP4 SUB DUP2 DUP6 GAS STATICCALL ISZERO DUP1 ISZERO PUSH2 0x4152 JUMPI RETURNDATASIZE PUSH1 0x0 DUP1 RETURNDATACOPY RETURNDATASIZE PUSH1 0x0 REVERT JUMPDEST POP POP POP PUSH1 0x40 MLOAD RETURNDATASIZE PUSH1 0x1F NOT PUSH1 0x1F DUP3 ADD AND DUP3 ADD DUP1 PUSH1 0x40 MSTORE POP DUP2 ADD SWAP1 PUSH2 0x1A33 SWAP2 SWAP1 PUSH2 0x5DBC JUMP JUMPDEST PUSH1 0x0 DUP1 DUP1 PUSH2 0x4185 PUSH1 0x33 PUSH1 0x2 PUSH2 0x5CB4 JUMP JUMPDEST PUSH1 0x1 PUSH1 0x1 PUSH1 0x80 SHL SUB DUP1 DUP7 AND SWAP1 SWAP2 SHR AND SWAP3 POP PUSH2 0x41A8 PUSH1 0x1 PUSH7 0x8000000000000 PUSH2 0x5CE1 JUMP JUMPDEST PUSH1 0x33 DUP6 SWAP1 SHR AND PUSH10 0x1FFFFFFFFFFFFFFFFFFF AND SWAP2 POP PUSH2 0x41CE PUSH1 0x1 PUSH7 0x8000000000000 PUSH2 0x5CE1 JUMP JUMPDEST DUP5 PUSH1 0x1 PUSH1 0x1 PUSH1 0x80 SHL SUB AND AND SWAP1 POP SWAP2 SWAP4 SWAP1 SWAP3 POP JUMP JUMPDEST PUSH1 0x0 DUP3 PUSH2 0x41EF DUP6 DUP5 PUSH2 0x4BFA JUMP JUMPDEST EQ SWAP5 SWAP4 POP POP POP POP JUMP JUMPDEST DUP2 MLOAD DUP2 MSTORE PUSH1 0x20 DUP1 DUP4 ADD MLOAD SWAP1 DUP3 ADD MSTORE PUSH1 0x40 DUP1 DUP4 ADD MLOAD SWAP1 DUP3 ADD MSTORE PUSH1 0x60 DUP1 DUP4 ADD MLOAD SWAP1 DUP3 ADD MSTORE PUSH1 0x80 DUP1 DUP4 ADD MLOAD SWAP1 DUP3 ADD MSTORE PUSH1 0xA0 DUP1 DUP4 ADD MLOAD SWAP1 DUP3 ADD MSTORE PUSH1 0xC0 DUP1 DUP4 ADD MLOAD PUSH5 0xFFFFFFFFFF AND SWAP1 DUP3 ADD MSTORE PUSH1 0xE0 DUP1 DUP4 ADD MLOAD SWAP1 DUP3 ADD MSTORE PUSH2 0x100 DUP1 DUP4 ADD MLOAD SWAP1 DUP3 ADD MSTORE PUSH2 0x120 SWAP2 DUP3 ADD MLOAD SWAP2 ADD MSTORE JUMP JUMPDEST PUSH1 0x0 DUP1 DUP1 PUSH2 0x426E DUP6 DUP9 PUSH2 0x5CF4 JUMP JUMPDEST SWAP1 POP PUSH1 0x0 PUSH1 0x2 PUSH2 0x427F DUP9 PUSH1 0x1 PUSH2 0x5CF4 JUMP JUMPDEST PUSH2 0x4289 SWAP2 SWAP1 PUSH2 0x5C92 JUMP JUMPDEST SWAP1 POP PUSH1 0x5A DUP2 LT ISZERO PUSH2 0x4298 JUMPI POP PUSH1 0x5A JUMPDEST DUP6 PUSH1 0x0 SUB PUSH2 0x42C3 JUMPI PUSH1 0x0 PUSH2 0x42AD DUP11 DUP8 DUP12 PUSH2 0x4C47 JUMP JUMPDEST SWAP1 POP PUSH2 0x42B9 DUP3 DUP3 PUSH2 0x5CB4 JUMP JUMPDEST SWAP4 POP POP POP POP PUSH2 0x4344 JUMP JUMPDEST DUP6 DUP2 LT ISZERO PUSH2 0x430C JUMPI PUSH1 0x0 PUSH2 0x42D7 DUP3 DUP11 PUSH2 0x5CF4 JUMP JUMPDEST SWAP1 POP PUSH2 0x42E5 DUP11 DUP8 DUP12 DUP5 PUSH2 0x434E JUMP JUMPDEST SWAP4 POP PUSH1 0x0 PUSH2 0x42F5 DUP12 DUP9 DUP5 DUP8 PUSH2 0x434E JUMP JUMPDEST SWAP1 POP PUSH2 0x4301 DUP2 DUP7 PUSH2 0x5CF4 JUMP JUMPDEST SWAP6 POP POP POP POP POP PUSH2 0x4344 JUMP JUMPDEST PUSH2 0x4318 DUP10 DUP7 DUP11 DUP6 PUSH2 0x434E JUMP JUMPDEST SWAP4 POP DUP6 DUP2 SUB PUSH2 0x4329 JUMPI DUP4 SWAP3 POP PUSH2 0x4341 JUMP JUMPDEST DUP6 PUSH2 0x4334 DUP3 DUP7 PUSH2 0x5CB4 JUMP JUMPDEST PUSH2 0x433E SWAP2 SWAP1 PUSH2 0x5C92 JUMP JUMPDEST SWAP3 POP JUMPDEST POP POP JUMPDEST SWAP6 POP SWAP6 SWAP4 POP POP POP POP JUMP JUMPDEST PUSH1 0x0 DUP3 JUMPDEST DUP3 DUP2 LT ISZERO PUSH2 0x43AF JUMPI PUSH1 0x0 DUP2 DUP2 MSTORE PUSH1 0x9 PUSH1 0x20 MSTORE PUSH1 0x40 SWAP1 KECCAK256 SLOAD PUSH1 0x1 PUSH1 0x1 PUSH1 0x48 SHL SUB PUSH1 0x1 PUSH1 0x48 SHL DUP3 DIV DUP2 AND SWAP2 PUSH2 0x4387 SWAP2 DUP9 SWAP2 AND PUSH2 0x5CB4 JUMP JUMPDEST PUSH2 0x4391 SWAP2 SWAP1 PUSH2 0x5C92 JUMP JUMPDEST PUSH2 0x439B SWAP1 DUP4 PUSH2 0x5CF4 JUMP JUMPDEST SWAP2 POP DUP1 PUSH2 0x43A7 DUP2 PUSH2 0x5D1E JUMP JUMPDEST SWAP2 POP POP PUSH2 0x4352 JUMP JUMPDEST POP PUSH2 0x43BC PUSH1 0x32 PUSH1 0x7 PUSH2 0x5CB4 JUMP JUMPDEST PUSH2 0x43C7 SWAP1 PUSH1 0x1 PUSH2 0x5CF4 JUMP JUMPDEST PUSH2 0x43D2 SWAP1 PUSH1 0x1 PUSH2 0x5CF4 JUMP JUMPDEST DUP4 GT ISZERO DUP1 ISZERO PUSH2 0x4401 JUMPI POP PUSH2 0x43E8 PUSH1 0x32 PUSH1 0x7 PUSH2 0x5CB4 JUMP JUMPDEST PUSH2 0x43F3 SWAP1 PUSH1 0x1 PUSH2 0x5CF4 JUMP JUMPDEST PUSH2 0x43FE SWAP1 PUSH1 0x1 PUSH2 0x5CF4 JUMP JUMPDEST DUP3 GT JUMPDEST ISZERO PUSH2 0xE3F JUMPI PUSH1 0x0 PUSH1 0x9 DUP2 PUSH2 0x4417 PUSH1 0x32 PUSH1 0x7 PUSH2 0x5CB4 JUMP JUMPDEST PUSH2 0x4422 SWAP1 PUSH1 0x1 PUSH2 0x5CF4 JUMP JUMPDEST PUSH2 0x442D SWAP1 PUSH1 0x1 PUSH2 0x5CF4 JUMP JUMPDEST DUP2 MSTORE PUSH1 0x20 DUP2 ADD SWAP2 SWAP1 SWAP2 MSTORE PUSH1 0x40 ADD PUSH1 0x0 KECCAK256 SLOAD PUSH1 0x1 PUSH1 0x48 SHL SWAP1 DIV PUSH1 0x1 PUSH1 0x1 PUSH1 0x48 SHL SUB AND DUP6 PUSH2 0x2710 PUSH4 0x5F5E100 PUSH2 0x4463 PUSH1 0x8 PUSH1 0xA PUSH2 0x5C86 JUMP JUMPDEST PUSH2 0x446D SWAP2 SWAP1 PUSH2 0x5C92 JUMP JUMPDEST PUSH2 0x4477 SWAP2 SWAP1 PUSH2 0x5CB4 JUMP JUMPDEST DUP9 PUSH1 0xE0 ADD MLOAD PUSH2 0x4486 SWAP2 SWAP1 PUSH2 0x5CB4 JUMP JUMPDEST PUSH2 0x4490 SWAP2 SWAP1 PUSH2 0x5CB4 JUMP JUMPDEST PUSH2 0x449A SWAP2 SWAP1 PUSH2 0x5C92 JUMP JUMPDEST SWAP1 POP PUSH2 0x44A6 DUP7 DUP3 PUSH2 0x4D7A JUMP JUMPDEST PUSH2 0x44B0 SWAP1 DUP3 PUSH2 0x5CF4 JUMP JUMPDEST PUSH2 0x1BC2 SWAP1 DUP4 PUSH2 0x5CF4 JUMP JUMPDEST PUSH1 0x0 DUP1 PUSH2 0x44C9 PUSH1 0x2 PUSH1 0x7 PUSH2 0x5CB4 JUMP JUMPDEST PUSH2 0x44D3 DUP7 DUP9 PUSH2 0x5CF4 JUMP JUMPDEST PUSH2 0x44DD SWAP2 SWAP1 PUSH2 0x5CF4 JUMP JUMPDEST SWAP1 POP DUP1 DUP5 GT PUSH2 0x44F0 JUMPI PUSH1 0x0 SWAP2 POP POP PUSH2 0xE3F JUMP JUMPDEST PUSH2 0x44FC PUSH1 0x64 PUSH1 0x7 PUSH2 0x5CB4 JUMP JUMPDEST PUSH2 0x4506 DUP3 DUP7 PUSH2 0x5CE1 JUMP JUMPDEST PUSH2 0x4510 SWAP1 DUP6 PUSH2 0x5CB4 JUMP JUMPDEST PUSH2 0x1BC2 SWAP2 SWAP1 PUSH2 0x5C92 JUMP JUMPDEST PUSH1 0x0 DUP1 PUSH1 0x1 DUP4 GT ISZERO PUSH2 0x458A JUMPI PUSH1 0x64 PUSH1 0xC8 PUSH2 0x4537 PUSH1 0x14 PUSH2 0x8E30 PUSH2 0x5C92 JUMP JUMPDEST PUSH2 0x4541 SWAP2 SWAP1 PUSH2 0x5CB4 JUMP JUMPDEST PUSH2 0x454B SWAP2 SWAP1 PUSH2 0x5C92 JUMP JUMPDEST DUP4 GT ISZERO PUSH2 0x457C JUMPI PUSH1 0x64 PUSH1 0xC8 PUSH2 0x4563 PUSH1 0x14 PUSH2 0x8E30 PUSH2 0x5C92 JUMP JUMPDEST PUSH2 0x456D SWAP2 SWAP1 PUSH2 0x5CB4 JUMP JUMPDEST PUSH2 0x4577 SWAP2 SWAP1 PUSH2 0x5C92 JUMP JUMPDEST PUSH2 0x4587 JUMP JUMPDEST PUSH2 0x4587 PUSH1 0x1 DUP5 PUSH2 0x5CE1 JUMP JUMPDEST SWAP1 POP JUMPDEST PUSH1 0x0 PUSH2 0x4598 PUSH1 0x8 PUSH1 0xA PUSH2 0x5C86 JUMP JUMPDEST PUSH2 0x45A6 SWAP1 PUSH4 0x8F0D180 PUSH2 0x5CB4 JUMP JUMPDEST DUP6 GT ISZERO PUSH2 0x45CC JUMPI PUSH2 0x45B9 PUSH1 0x8 PUSH1 0xA PUSH2 0x5C86 JUMP JUMPDEST PUSH2 0x45C7 SWAP1 PUSH4 0x8F0D180 PUSH2 0x5CB4 JUMP JUMPDEST PUSH2 0x45CE JUMP JUMPDEST DUP5 JUMPDEST SWAP1 POP PUSH2 0x45DD PUSH1 0x14 PUSH2 0x8E30 PUSH2 0x5C92 JUMP JUMPDEST PUSH2 0x45E7 SWAP1 DUP3 PUSH2 0x5CB4 JUMP JUMPDEST PUSH1 0xA PUSH2 0x45F4 PUSH1 0x8 DUP3 PUSH2 0x5C86 JUMP JUMPDEST PUSH2 0x4602 SWAP1 PUSH4 0x8F0D180 PUSH2 0x5CB4 JUMP JUMPDEST PUSH2 0x460D SWAP1 PUSH1 0x64 PUSH2 0x5CB4 JUMP JUMPDEST PUSH2 0x4617 SWAP2 SWAP1 PUSH2 0x5C92 JUMP JUMPDEST PUSH2 0x4621 SWAP1 DUP5 PUSH2 0x5CB4 JUMP JUMPDEST PUSH2 0x462B SWAP2 SWAP1 PUSH2 0x5CF4 JUMP JUMPDEST SWAP3 POP PUSH1 0xA PUSH2 0x463A PUSH1 0x8 DUP3 PUSH2 0x5C86 JUMP JUMPDEST PUSH2 0x4648 SWAP1 PUSH4 0x8F0D180 PUSH2 0x5CB4 JUMP JUMPDEST PUSH2 0x4653 SWAP1 PUSH1 0x64 PUSH2 0x5CB4 JUMP JUMPDEST PUSH2 0x465D SWAP2 SWAP1 PUSH2 0x5C92 JUMP JUMPDEST PUSH2 0x466A PUSH1 0x14 PUSH2 0x8E30 PUSH2 0x5C92 JUMP JUMPDEST PUSH2 0x4674 SWAP2 SWAP1 PUSH2 0x5CB4 JUMP JUMPDEST PUSH2 0x467E DUP5 DUP8 PUSH2 0x5CB4 JUMP JUMPDEST PUSH2 0x27F4 SWAP2 SWAP1 PUSH2 0x5C92 JUMP JUMPDEST DUP1 PUSH5 0xFFFFFFFFFF AND PUSH32 0x9861FA0ED101659F7A59B4583FCC798DFA4F3B419BEA371C8EE2AD0FFE13A31E PUSH1 0x28 DUP5 PUSH5 0xFFFFFFFFFF AND SWAP1 SHL TIMESTAMP PUSH5 0xFFFFFFFFFF AND OR PUSH1 0x40 MLOAD PUSH2 0x46D5 SWAP2 DUP2 MSTORE PUSH1 0x20 ADD SWAP1 JUMP JUMPDEST PUSH1 0x40 MLOAD DUP1 SWAP2 SUB SWAP1 LOG2 POP POP JUMP JUMPDEST PUSH1 0x0 DUP1 PUSH2 0x46F0 PUSH1 0x33 PUSH1 0x2 PUSH2 0x5CB4 JUMP JUMPDEST SWAP5 SWAP1 SWAP5 SHL PUSH1 0x33 SWAP4 SWAP1 SWAP4 SHL SWAP3 SWAP1 SWAP3 OR OR SWAP3 SWAP2 POP POP JUMP JUMPDEST PUSH5 0xFFFFFFFFFF DUP6 AND CALLER PUSH32 0x14872DC760F33532684E68E1B6D5FD3F71BA7B07DEE76BDB2B084F28B74233EF DUP4 PUSH2 0x473B JUMPI PUSH1 0x0 PUSH2 0x4741 JUMP JUMPDEST PUSH1 0x1 PUSH1 0xC8 SHL JUMPDEST PUSH1 0x1 PUSH1 0x1 PUSH1 0xD0 SHL SUB AND PUSH1 0xB8 DUP7 PUSH2 0xFFFF AND SWAP1 SHL PUSH1 0x70 DUP9 PUSH1 0x1 PUSH1 0x1 PUSH1 0x48 SHL SUB AND SWAP1 SHL PUSH1 0x28 DUP11 PUSH1 0x1 PUSH1 0x1 PUSH1 0x48 SHL SUB AND SWAP1 SHL TIMESTAMP PUSH5 0xFFFFFFFFFF AND OR OR OR OR PUSH1 0x40 MLOAD PUSH2 0x478A SWAP2 DUP2 MSTORE PUSH1 0x20 ADD SWAP1 JUMP JUMPDEST PUSH1 0x40 MLOAD DUP1 SWAP2 SUB SWAP1 LOG3 POP POP POP POP POP JUMP JUMPDEST PUSH2 0x3087 DUP2 PUSH2 0x4DD0 JUMP JUMPDEST PUSH2 0x47AD DUP4 DUP4 DUP4 PUSH2 0x4DF1 JUMP JUMPDEST PUSH1 0x40 SWAP2 DUP3 ADD MLOAD PUSH1 0x0 SWAP2 DUP3 MSTORE PUSH1 0x9 PUSH1 0x20 MSTORE SWAP2 SWAP1 KECCAK256 DUP1 SLOAD PUSH1 0xA0 DUP5 ADD MLOAD PUSH1 0xE0 SWAP1 SWAP5 ADD MLOAD PUSH7 0xFFFFFFFFFFFFFF AND PUSH1 0x1 PUSH1 0x90 SHL MUL PUSH7 0xFFFFFFFFFFFFFF PUSH1 0x90 SHL NOT PUSH1 0x1 PUSH1 0x1 PUSH1 0x48 SHL SUB SWAP6 DUP7 AND PUSH1 0x1 PUSH1 0x48 SHL MUL PUSH1 0x1 PUSH1 0x1 PUSH1 0x90 SHL SUB NOT SWAP1 SWAP4 AND SWAP6 SWAP1 SWAP5 AND SWAP5 SWAP1 SWAP5 OR OR SWAP2 SWAP1 SWAP2 AND SWAP2 SWAP1 SWAP2 OR SWAP1 SSTORE JUMP JUMPDEST CALLER PUSH32 0xB8D6EB541DED1720CC657B719F57ABCB1FE4711CB7EAD82751B135F5D94BC944 DUP3 PUSH2 0x4848 JUMPI PUSH1 0x0 PUSH2 0x484E JUMP JUMPDEST PUSH1 0x1 PUSH1 0x48 SHL JUMPDEST PUSH10 0xFFFFFFFFFFFFFFFFFFFF AND PUSH1 0x38 DUP6 PUSH2 0xFFFF AND SWAP1 SHL PUSH1 0x28 DUP8 PUSH2 0xFFFF AND SWAP1 SHL TIMESTAMP PUSH5 0xFFFFFFFFFF AND OR OR OR PUSH1 0x40 MLOAD PUSH2 0x4886 SWAP2 DUP2 MSTORE PUSH1 0x20 ADD SWAP1 JUMP JUMPDEST PUSH1 0x40 MLOAD DUP1 SWAP2 SUB SWAP1 LOG2 POP POP POP JUMP JUMPDEST PUSH1 0x0 PUSH1 0x1 DUP9 PUSH2 0x140 ADD MLOAD LT ISZERO PUSH2 0x48BB JUMPI PUSH1 0x40 MLOAD PUSH3 0x461BCD PUSH1 0xE5 SHL DUP2 MSTORE PUSH1 0x4 ADD PUSH2 0xC9C SWAP1 PUSH2 0x5D37 JUMP JUMPDEST PUSH2 0x48C7 PUSH1 0x32 PUSH1 0x7 PUSH2 0x5CB4 JUMP JUMPDEST PUSH2 0x48D2 SWAP1 PUSH1 0x1 PUSH2 0x5CF4 JUMP JUMPDEST DUP9 PUSH2 0x140 ADD MLOAD LT PUSH2 0x4925 JUMPI PUSH1 0x40 MLOAD PUSH3 0x461BCD PUSH1 0xE5 SHL DUP2 MSTORE PUSH1 0x20 PUSH1 0x4 DUP3 ADD MSTORE PUSH1 0x1B PUSH1 0x24 DUP3 ADD MSTORE PUSH32 0x4D594E543A20436C61696D2070686173652068617320656E6465640000000000 PUSH1 0x44 DUP3 ADD MSTORE PUSH1 0x64 ADD PUSH2 0xC9C JUMP JUMPDEST PUSH2 0x492E DUP9 PUSH2 0x3076 JUMP JUMPDEST PUSH4 0x1AB362E DUP9 PUSH2 0x120 ADD MLOAD LT PUSH2 0x4986 JUMPI PUSH1 0x40 MLOAD PUSH3 0x461BCD PUSH1 0xE5 SHL DUP2 MSTORE PUSH1 0x20 PUSH1 0x4 DUP3 ADD MSTORE PUSH1 0x1F PUSH1 0x24 DUP3 ADD MSTORE PUSH32 0x4D594E543A2043484B3A205F636C61696D656442746341646472436F756E7400 PUSH1 0x44 DUP3 ADD MSTORE PUSH1 0x64 ADD PUSH2 0xC9C JUMP JUMPDEST PUSH1 0x0 DUP1 PUSH1 0x0 PUSH2 0x4995 DUP12 DUP12 PUSH2 0x4F29 JUMP JUMPDEST PUSH2 0x120 DUP15 ADD DUP1 MLOAD SWAP4 SWAP7 POP SWAP2 SWAP5 POP SWAP3 POP PUSH2 0x49AD DUP3 PUSH2 0x5D1E JUMP JUMPDEST SWAP1 MSTORE POP PUSH2 0x49C0 DUP10 DUP10 DUP10 DUP14 DUP8 DUP8 DUP8 DUP13 PUSH2 0x504B JUMP JUMPDEST SWAP4 POP PUSH1 0x0 PUSH1 0x64 PUSH2 0x49D1 PUSH1 0x5A DUP8 PUSH2 0x5CB4 JUMP JUMPDEST PUSH2 0x49DB SWAP2 SWAP1 PUSH2 0x5C92 JUMP JUMPDEST SWAP1 POP PUSH2 0x49EA DUP13 DUP3 DUP10 PUSH1 0x1 PUSH2 0x36B3 JUMP JUMPDEST PUSH2 0x49FD DUP11 PUSH2 0x49F8 DUP4 DUP9 PUSH2 0x5CE1 JUMP JUMPDEST PUSH2 0x2B49 JUMP JUMPDEST POP POP POP POP SWAP8 SWAP7 POP POP POP POP POP POP POP JUMP JUMPDEST PUSH1 0x60 PUSH2 0x4A1A PUSH1 0x14 PUSH1 0x2 PUSH2 0x5E0D JUMP JUMPDEST PUSH1 0xFF AND PUSH8 0xFFFFFFFFFFFFFFFF DUP2 GT ISZERO PUSH2 0x4A35 JUMPI PUSH2 0x4A35 PUSH2 0x57D0 JUMP JUMPDEST PUSH1 0x40 MLOAD SWAP1 DUP1 DUP3 MSTORE DUP1 PUSH1 0x1F ADD PUSH1 0x1F NOT AND PUSH1 0x20 ADD DUP3 ADD PUSH1 0x40 MSTORE DUP1 ISZERO PUSH2 0x4A5F JUMPI PUSH1 0x20 DUP3 ADD DUP2 DUP1 CALLDATASIZE DUP4 CALLDATACOPY ADD SWAP1 POP JUMPDEST POP SWAP1 POP PUSH2 0x4A7C DUP2 PUSH1 0x1 PUSH1 0x1 PUSH1 0x60 SHL SUB NOT PUSH1 0x60 DUP7 SWAP1 SHL AND PUSH1 0x14 PUSH2 0x4AFF JUMP JUMPDEST DUP2 ISZERO PUSH2 0xC3D JUMPI DUP1 MLOAD PUSH1 0x20 DUP3 ADD KECCAK256 PUSH1 0x0 DUP1 JUMPDEST PUSH1 0x14 DUP2 LT ISZERO PUSH2 0x4AF6 JUMPI PUSH1 0x0 DUP4 DUP3 PUSH1 0x20 DUP2 LT PUSH2 0x4AAA JUMPI PUSH2 0x4AAA PUSH2 0x5CCB JUMP JUMPDEST BYTE SWAP1 POP PUSH2 0x4ACA DUP6 DUP5 PUSH2 0x4ABB DUP2 PUSH2 0x5D1E JUMP JUMPDEST SWAP6 POP PUSH1 0x4 DUP5 PUSH1 0xFF AND SWAP1 SHR PUSH2 0x513C JUMP JUMPDEST PUSH2 0x4AE3 DUP6 DUP5 PUSH2 0x4AD8 DUP2 PUSH2 0x5D1E JUMP JUMPDEST SWAP6 POP DUP4 PUSH1 0xF AND PUSH2 0x513C JUMP JUMPDEST POP DUP1 PUSH2 0x4AEE DUP2 PUSH2 0x5D1E JUMP JUMPDEST SWAP2 POP POP PUSH2 0x4A8D JUMP JUMPDEST POP POP POP SWAP3 SWAP2 POP POP JUMP JUMPDEST PUSH1 0x0 DUP1 JUMPDEST DUP3 DUP2 LT ISZERO PUSH2 0x2668 JUMPI PUSH1 0x0 DUP5 DUP3 PUSH1 0x20 DUP2 LT PUSH2 0x4B1F JUMPI PUSH2 0x4B1F PUSH2 0x5CCB JUMP JUMPDEST BYTE SWAP1 POP PUSH16 0x181899199A1A9B1B9C1CB0B131B232B3 PUSH1 0x81 SHL PUSH1 0x4 DUP3 SWAP1 SHR PUSH1 0xFF AND PUSH1 0x10 DUP2 LT PUSH2 0x4B4E JUMPI PUSH2 0x4B4E PUSH2 0x5CCB JUMP JUMPDEST BYTE PUSH1 0xF8 SHL DUP7 DUP5 PUSH2 0x4B5D DUP2 PUSH2 0x5D1E JUMP JUMPDEST SWAP6 POP DUP2 MLOAD DUP2 LT PUSH2 0x4B6F JUMPI PUSH2 0x4B6F PUSH2 0x5CCB JUMP JUMPDEST PUSH1 0x20 ADD ADD SWAP1 PUSH1 0x1 PUSH1 0x1 PUSH1 0xF8 SHL SUB NOT AND SWAP1 DUP2 PUSH1 0x0 BYTE SWAP1 MSTORE8 POP PUSH16 0x181899199A1A9B1B9C1CB0B131B232B3 PUSH1 0x81 SHL PUSH1 0xF DUP3 AND PUSH1 0x10 DUP2 LT PUSH2 0x4BAE JUMPI PUSH2 0x4BAE PUSH2 0x5CCB JUMP JUMPDEST BYTE PUSH1 0xF8 SHL DUP7 DUP5 PUSH2 0x4BBD DUP2 PUSH2 0x5D1E JUMP JUMPDEST SWAP6 POP DUP2 MLOAD DUP2 LT PUSH2 0x4BCF JUMPI PUSH2 0x4BCF PUSH2 0x5CCB JUMP JUMPDEST PUSH1 0x20 ADD ADD SWAP1 PUSH1 0x1 PUSH1 0x1 PUSH1 0xF8 SHL SUB NOT AND SWAP1 DUP2 PUSH1 0x0 BYTE SWAP1 MSTORE8 POP POP DUP1 DUP1 PUSH2 0x4BF2 SWAP1 PUSH2 0x5D1E JUMP JUMPDEST SWAP2 POP POP PUSH2 0x4B03 JUMP JUMPDEST PUSH1 0x0 DUP2 DUP2 JUMPDEST DUP5 MLOAD DUP2 LT ISZERO PUSH2 0x4C3F JUMPI PUSH2 0x4C2B DUP3 DUP7 DUP4 DUP2 MLOAD DUP2 LT PUSH2 0x4C1E JUMPI PUSH2 0x4C1E PUSH2 0x5CCB JUMP JUMPDEST PUSH1 0x20 MUL PUSH1 0x20 ADD ADD MLOAD PUSH2 0x51B4 JUMP JUMPDEST SWAP2 POP DUP1 PUSH2 0x4C37 DUP2 PUSH2 0x5D1E JUMP JUMPDEST SWAP2 POP POP PUSH2 0x4BFF JUMP JUMPDEST POP SWAP4 SWAP3 POP POP POP JUMP JUMPDEST PUSH1 0x0 PUSH2 0x4C51 PUSH2 0x5406 JUMP JUMPDEST PUSH2 0x4C5B DUP6 DUP3 PUSH2 0x41F8 JUMP JUMPDEST PUSH2 0x4C7F PUSH1 0x40 MLOAD DUP1 PUSH1 0x60 ADD PUSH1 0x40 MSTORE DUP1 PUSH1 0x0 DUP2 MSTORE PUSH1 0x20 ADD PUSH1 0x0 DUP2 MSTORE PUSH1 0x20 ADD PUSH1 0x0 DUP2 MSTORE POP SWAP1 JUMP JUMPDEST DUP6 MLOAD PUSH1 0x2 SLOAD PUSH2 0x4C8E SWAP2 SWAP1 PUSH2 0x5CF4 JUMP JUMPDEST DUP2 MSTORE PUSH2 0x4C9B DUP3 DUP3 DUP7 PUSH2 0x4DF1 JUMP JUMPDEST DUP5 DUP3 PUSH1 0xA0 ADD DUP2 DUP2 MLOAD PUSH2 0x4CAD SWAP2 SWAP1 PUSH2 0x5CF4 JUMP JUMPDEST SWAP1 MSTORE POP PUSH1 0xA0 DUP3 ADD MLOAD PUSH1 0x40 DUP3 ADD MLOAD PUSH2 0x4CC5 SWAP1 DUP8 SWAP1 PUSH2 0x5CB4 JUMP JUMPDEST PUSH2 0x4CCF SWAP2 SWAP1 PUSH2 0x5C92 JUMP JUMPDEST SWAP3 POP PUSH2 0x4CDD PUSH1 0x32 PUSH1 0x7 PUSH2 0x5CB4 JUMP JUMPDEST PUSH2 0x4CE8 SWAP1 PUSH1 0x1 PUSH2 0x5CF4 JUMP JUMPDEST PUSH2 0x4CF3 SWAP1 PUSH1 0x1 PUSH2 0x5CF4 JUMP JUMPDEST DUP5 SUB PUSH2 0x4D71 JUMPI PUSH1 0xA0 DUP3 ADD MLOAD PUSH1 0x0 SWAP1 DUP7 PUSH2 0x2710 PUSH4 0x5F5E100 PUSH2 0x4D16 PUSH1 0x8 PUSH1 0xA PUSH2 0x5C86 JUMP JUMPDEST PUSH2 0x4D20 SWAP2 SWAP1 PUSH2 0x5C92 JUMP JUMPDEST PUSH2 0x4D2A SWAP2 SWAP1 PUSH2 0x5CB4 JUMP JUMPDEST DUP6 PUSH1 0xE0 ADD MLOAD PUSH2 0x4D39 SWAP2 SWAP1 PUSH2 0x5CB4 JUMP JUMPDEST PUSH2 0x4D43 SWAP2 SWAP1 PUSH2 0x5CB4 JUMP JUMPDEST PUSH2 0x4D4D SWAP2 SWAP1 PUSH2 0x5C92 JUMP JUMPDEST SWAP1 POP PUSH2 0x4D59 DUP4 DUP3 PUSH2 0x4D7A JUMP JUMPDEST PUSH2 0x4D63 SWAP1 DUP3 PUSH2 0x5CF4 JUMP JUMPDEST PUSH2 0x4D6D SWAP1 DUP6 PUSH2 0x5CF4 JUMP JUMPDEST SWAP4 POP POP JUMPDEST POP POP SWAP4 SWAP3 POP POP POP JUMP JUMPDEST PUSH1 0x0 DUP1 PUSH4 0x1AB362E DUP5 PUSH2 0x120 ADD MLOAD DUP5 PUSH2 0x4D93 SWAP2 SWAP1 PUSH2 0x5CB4 JUMP JUMPDEST PUSH2 0x4D9D SWAP2 SWAP1 PUSH2 0x5C92 JUMP JUMPDEST SWAP1 POP PUSH1 0x0 PUSH7 0x33BB85FC52D99 DUP6 PUSH2 0x100 ADD MLOAD DUP6 PUSH2 0x4DBA SWAP2 SWAP1 PUSH2 0x5CB4 JUMP JUMPDEST PUSH2 0x4DC4 SWAP2 SWAP1 PUSH2 0x5C92 JUMP JUMPDEST SWAP1 POP PUSH2 0x27F4 DUP2 DUP4 PUSH2 0x5CF4 JUMP JUMPDEST PUSH1 0x0 PUSH11 0x636F6E736F6C652E6C6F67 SWAP1 POP PUSH1 0x0 DUP1 DUP4 MLOAD PUSH1 0x20 DUP6 ADD DUP5 GAS STATICCALL POP POP POP JUMP JUMPDEST DUP2 MLOAD PUSH4 0x5FCBAE3 SWAP1 PUSH2 0x4E05 SWAP1 PUSH2 0x2710 PUSH2 0x5CB4 JUMP JUMPDEST PUSH2 0x4E0F SWAP2 SWAP1 PUSH2 0x5C92 JUMP JUMPDEST PUSH1 0x40 DUP4 ADD MSTORE PUSH2 0x4E20 PUSH1 0x32 PUSH1 0x7 PUSH2 0x5CB4 JUMP JUMPDEST PUSH2 0x4E2B SWAP1 PUSH1 0x1 PUSH2 0x5CF4 JUMP JUMPDEST DUP2 LT ISZERO PUSH2 0x4EFA JUMPI PUSH1 0x0 PUSH2 0x4E40 PUSH1 0x32 PUSH1 0x7 PUSH2 0x5CB4 JUMP JUMPDEST PUSH2 0x2710 PUSH4 0x5F5E100 PUSH2 0x4E54 PUSH1 0x8 PUSH1 0xA PUSH2 0x5C86 JUMP JUMPDEST PUSH2 0x4E5E SWAP2 SWAP1 PUSH2 0x5C92 JUMP JUMPDEST PUSH2 0x4E68 SWAP2 SWAP1 PUSH2 0x5CB4 JUMP JUMPDEST DUP6 PUSH1 0xE0 ADD MLOAD PUSH2 0x4E77 SWAP2 SWAP1 PUSH2 0x5CB4 JUMP JUMPDEST PUSH2 0x4E81 SWAP2 SWAP1 PUSH2 0x5C92 JUMP JUMPDEST SWAP1 POP PUSH1 0x0 PUSH2 0x4E9E DUP6 DUP4 DUP7 PUSH1 0x40 ADD MLOAD PUSH2 0x4E99 SWAP2 SWAP1 PUSH2 0x5CF4 JUMP JUMPDEST PUSH2 0x4D7A JUMP JUMPDEST PUSH2 0x4EA8 SWAP1 DUP4 PUSH2 0x5CF4 JUMP JUMPDEST SWAP1 POP DUP1 DUP5 PUSH1 0x20 ADD DUP2 DUP2 MLOAD PUSH2 0x4EBC SWAP2 SWAP1 PUSH2 0x5CF4 JUMP JUMPDEST SWAP1 MSTORE POP DUP4 MLOAD DUP2 SWAP1 DUP6 SWAP1 PUSH2 0x4ED0 SWAP1 DUP4 SWAP1 PUSH2 0x5CF4 JUMP JUMPDEST SWAP1 MSTORE POP PUSH1 0x40 DUP5 ADD MLOAD PUSH2 0x4EE3 SWAP1 DUP7 SWAP1 PUSH2 0x4D7A JUMP JUMPDEST DUP5 PUSH1 0x40 ADD DUP2 DUP2 MLOAD PUSH2 0x4EF4 SWAP2 SWAP1 PUSH2 0x5CF4 JUMP JUMPDEST SWAP1 MSTORE POP POP POP JUMPDEST PUSH1 0x60 DUP4 ADD MLOAD ISZERO PUSH2 0xCAF JUMPI DUP3 PUSH1 0x60 ADD MLOAD DUP3 PUSH1 0x40 ADD DUP2 DUP2 MLOAD PUSH2 0x4F1A SWAP2 SWAP1 PUSH2 0x5CF4 JUMP JUMPDEST SWAP1 MSTORE POP PUSH1 0x0 PUSH1 0x60 DUP5 ADD MSTORE POP POP POP JUMP JUMPDEST PUSH1 0x0 DUP1 PUSH1 0x0 PUSH2 0x4F37 DUP5 PUSH2 0x51E3 JUMP JUMPDEST SWAP3 POP PUSH7 0x33BB85FC52D99 DUP4 DUP7 PUSH2 0x100 ADD MLOAD PUSH2 0x4F52 SWAP2 SWAP1 PUSH2 0x5CF4 JUMP JUMPDEST GT ISZERO PUSH2 0x4FA0 JUMPI PUSH1 0x40 MLOAD PUSH3 0x461BCD PUSH1 0xE5 SHL DUP2 MSTORE PUSH1 0x20 PUSH1 0x4 DUP3 ADD DUP2 SWAP1 MSTORE PUSH1 0x24 DUP3 ADD MSTORE PUSH32 0x4D594E543A2043484B3A205F636C61696D65645361746F73686973546F74616C PUSH1 0x44 DUP3 ADD MSTORE PUSH1 0x64 ADD PUSH2 0xC9C JUMP JUMPDEST DUP3 DUP6 PUSH2 0x100 ADD DUP2 DUP2 MLOAD PUSH2 0x4FB3 SWAP2 SWAP1 PUSH2 0x5CF4 JUMP JUMPDEST SWAP1 MSTORE POP PUSH2 0x140 DUP6 ADD MLOAD PUSH1 0x0 SWAP1 PUSH2 0x4FCB PUSH1 0x32 PUSH1 0x7 PUSH2 0x5CB4 JUMP JUMPDEST PUSH2 0x4FD6 SWAP1 PUSH1 0x1 PUSH2 0x5CF4 JUMP JUMPDEST PUSH2 0x4FE0 SWAP2 SWAP1 PUSH2 0x5CE1 JUMP JUMPDEST SWAP1 POP PUSH2 0x4FEC DUP5 DUP3 PUSH2 0x5238 JUMP JUMPDEST SWAP4 POP DUP4 DUP7 PUSH1 0xE0 ADD DUP2 DUP2 MLOAD PUSH2 0x5000 SWAP2 SWAP1 PUSH2 0x5CE1 JUMP JUMPDEST SWAP1 MSTORE POP PUSH2 0x2710 PUSH4 0x5F5E100 PUSH2 0x5017 PUSH1 0x8 PUSH1 0xA PUSH2 0x5C86 JUMP JUMPDEST PUSH2 0x5021 SWAP2 SWAP1 PUSH2 0x5C92 JUMP JUMPDEST PUSH2 0x502B SWAP2 SWAP1 PUSH2 0x5CB4 JUMP JUMPDEST PUSH2 0x5035 SWAP1 DUP6 PUSH2 0x5CB4 JUMP JUMPDEST SWAP3 POP PUSH2 0x5041 DUP4 DUP3 PUSH2 0x525A JUMP JUMPDEST SWAP2 POP POP SWAP3 POP SWAP3 POP SWAP3 JUMP JUMPDEST PUSH1 0x0 PUSH2 0x5057 DUP4 DUP6 PUSH2 0x5CF4 JUMP JUMPDEST SWAP1 POP DUP3 PUSH1 0x1 PUSH1 0x1 PUSH1 0xA0 SHL SUB DUP4 AND PUSH2 0x507C JUMPI PUSH2 0x5077 DUP11 DUP11 DUP11 DUP11 DUP11 DUP8 DUP10 PUSH2 0x5294 JUMP JUMPDEST PUSH2 0x5111 JUMP JUMPDEST PUSH1 0x0 PUSH2 0x5089 PUSH1 0xA DUP5 PUSH2 0x5C92 JUMP JUMPDEST SWAP1 POP PUSH2 0x5095 DUP2 DUP5 PUSH2 0x5CF4 JUMP JUMPDEST SWAP3 POP PUSH1 0x0 PUSH2 0x50A4 PUSH1 0x5 DUP6 PUSH2 0x5C92 JUMP JUMPDEST SWAP1 POP PUSH2 0x50B0 DUP2 DUP4 PUSH2 0x5CF4 JUMP JUMPDEST PUSH2 0x50BA SWAP1 DUP5 PUSH2 0x5CF4 JUMP JUMPDEST SWAP3 POP DUP12 PUSH1 0x1 PUSH1 0x1 PUSH1 0xA0 SHL SUB AND DUP6 PUSH1 0x1 PUSH1 0x1 PUSH1 0xA0 SHL SUB AND SUB PUSH2 0x50F5 JUMPI PUSH2 0x50DF DUP2 DUP6 PUSH2 0x5CF4 JUMP JUMPDEST SWAP4 POP PUSH2 0x50F0 DUP13 DUP13 DUP13 DUP13 DUP13 DUP10 DUP12 PUSH2 0x5294 JUMP JUMPDEST PUSH2 0x510E JUMP JUMPDEST PUSH2 0x5104 DUP13 DUP13 DUP13 DUP13 DUP13 DUP10 DUP12 PUSH2 0x5294 JUMP JUMPDEST PUSH2 0x510E DUP6 DUP3 PUSH2 0x2B49 JUMP JUMPDEST POP POP JUMPDEST PUSH2 0x512F PUSH20 0x9A6A414D6F3497C05E3B1DE90520765FA1E07C03 DUP3 PUSH2 0x2B49 JUMP JUMPDEST POP SWAP9 SWAP8 POP POP POP POP POP POP POP POP JUMP JUMPDEST PUSH1 0x0 DUP4 DUP4 DUP2 MLOAD DUP2 LT PUSH2 0x5150 JUMPI PUSH2 0x5150 PUSH2 0x5CCB JUMP JUMPDEST ADD PUSH1 0x20 ADD MLOAD PUSH1 0x1 PUSH1 0x1 PUSH1 0xF8 SHL SUB NOT AND SWAP1 POP PUSH1 0x61 PUSH1 0xF8 SHL DUP2 LT DUP1 ISZERO SWAP1 PUSH2 0x5179 JUMPI POP PUSH1 0x8 DUP3 PUSH1 0xFF AND LT ISZERO JUMPDEST ISZERO PUSH2 0x14A2 JUMPI DUP1 PUSH1 0x20 PUSH1 0xF8 SHL XOR DUP5 DUP5 DUP2 MLOAD DUP2 LT PUSH2 0x5197 JUMPI PUSH2 0x5197 PUSH2 0x5CCB JUMP JUMPDEST PUSH1 0x20 ADD ADD SWAP1 PUSH1 0x1 PUSH1 0x1 PUSH1 0xF8 SHL SUB NOT AND SWAP1 DUP2 PUSH1 0x0 BYTE SWAP1 MSTORE8 POP POP POP POP POP JUMP JUMPDEST PUSH1 0x0 DUP2 DUP4 LT PUSH2 0x51D0 JUMPI PUSH1 0x0 DUP3 DUP2 MSTORE PUSH1 0x20 DUP5 SWAP1 MSTORE PUSH1 0x40 SWAP1 KECCAK256 PUSH2 0xD7D JUMP JUMPDEST PUSH1 0x0 DUP4 DUP2 MSTORE PUSH1 0x20 DUP4 SWAP1 MSTORE PUSH1 0x40 SWAP1 KECCAK256 PUSH2 0xD7D JUMP JUMPDEST PUSH1 0x0 PUSH5 0x174876E800 DUP3 LT ISZERO PUSH2 0x51F6 JUMPI POP SWAP1 JUMP JUMPDEST PUSH5 0xE8D4A51000 DUP3 LT PUSH2 0x520D JUMPI PUSH2 0x1A33 PUSH1 0x4 DUP4 PUSH2 0x5C92 JUMP JUMPDEST PUSH6 0x34630B8A000 PUSH2 0x5224 DUP4 PUSH6 0x1BA60D33800 PUSH2 0x5CE1 JUMP JUMPDEST PUSH2 0x522E SWAP1 DUP5 PUSH2 0x5CB4 JUMP JUMPDEST PUSH2 0x1A33 SWAP2 SWAP1 PUSH2 0x5C92 JUMP JUMPDEST PUSH1 0x0 PUSH2 0x5246 PUSH1 0x32 PUSH1 0x7 PUSH2 0x5CB4 JUMP JUMPDEST PUSH2 0x5250 DUP4 DUP6 PUSH2 0x5CB4 JUMP JUMPDEST PUSH2 0xD7D SWAP2 SWAP1 PUSH2 0x5C92 JUMP JUMPDEST PUSH1 0x0 PUSH1 0x1 PUSH2 0x526A PUSH1 0x32 PUSH1 0x7 PUSH2 0x5CB4 JUMP JUMPDEST PUSH2 0x5274 SWAP2 SWAP1 PUSH2 0x5CE1 JUMP JUMPDEST PUSH2 0x527F SWAP1 PUSH1 0x5 PUSH2 0x5CB4 JUMP JUMPDEST PUSH2 0x528A PUSH1 0x1 DUP5 PUSH2 0x5CE1 JUMP JUMPDEST PUSH2 0x5250 SWAP1 DUP6 PUSH2 0x5CB4 JUMP JUMPDEST PUSH1 0x40 DUP1 MLOAD PUSH5 0xFFFFFFFFFF TIMESTAMP AND PUSH12 0xFFFFFFFFFFFFFF0000000000 PUSH1 0x28 DUP9 SWAP1 SHL AND OR PUSH7 0xFFFFFFFFFFFFFF PUSH1 0x60 SHL PUSH1 0x60 DUP8 SWAP1 SHL AND OR PUSH1 0xFF PUSH1 0x98 SHL PUSH1 0x98 DUP10 SWAP1 SHL AND OR PUSH9 0xFFFFFFFFFFFFFFFFFF PUSH1 0xA0 SHL PUSH1 0xA0 DUP7 SWAP1 SHL AND OR DUP2 MSTORE CALLER PUSH1 0x20 DUP3 ADD MSTORE PUSH1 0x1 PUSH1 0x1 PUSH1 0xA0 SHL SUB DUP1 DUP5 AND SWAP3 SWAP1 DUP11 AND SWAP2 PUSH1 0x1 PUSH1 0x1 PUSH1 0x60 SHL SUB NOT DUP11 AND SWAP2 PUSH32 0x41E3C7DC6EEBC97A48A437FF2AFDC629613F12C48BA37A2C94563F80ACBA9725 SWAP2 ADD PUSH1 0x40 MLOAD DUP1 SWAP2 SUB SWAP1 LOG4 PUSH1 0x1 PUSH1 0x1 PUSH1 0xA0 SHL SUB DUP8 AND CALLER EQ PUSH2 0x53FD JUMPI CALLER PUSH1 0x1 PUSH1 0x1 PUSH1 0xA0 SHL SUB AND PUSH32 0x3A84B2D9DAC24683628D63034C6949797F15FAB735E16232518EE4E753FD49B7 PUSH1 0xC8 DUP7 PUSH7 0xFFFFFFFFFFFFFF AND SWAP1 SHL PUSH1 0x28 DUP10 PUSH1 0x60 SHR PUSH1 0x1 PUSH1 0x1 PUSH1 0xA0 SHL SUB AND SWAP1 SHL TIMESTAMP PUSH5 0xFFFFFFFFFF AND OR OR PUSH1 0xD8 DUP9 PUSH1 0xFF AND SWAP1 SHL PUSH1 0x38 DUP12 PUSH1 0x1 PUSH1 0x1 PUSH1 0xA0 SHL SUB AND SWAP1 SHL DUP8 PUSH7 0xFFFFFFFFFFFFFF AND OR OR PUSH1 0x48 DUP6 PUSH1 0x1 PUSH1 0x1 PUSH1 0xA0 SHL SUB AND SWAP1 SHL DUP7 PUSH1 0x1 PUSH1 0x1 PUSH1 0x48 SHL SUB AND OR PUSH1 0x40 MLOAD PUSH2 0x53F4 SWAP4 SWAP3 SWAP2 SWAP1 SWAP3 DUP4 MSTORE PUSH1 0x20 DUP4 ADD SWAP2 SWAP1 SWAP2 MSTORE PUSH1 0x40 DUP3 ADD MSTORE PUSH1 0x60 ADD SWAP1 JUMP JUMPDEST PUSH1 0x40 MLOAD DUP1 SWAP2 SUB SWAP1 LOG2 JUMPDEST POP POP POP POP POP POP POP JUMP JUMPDEST PUSH1 0x40 MLOAD DUP1 PUSH2 0x160 ADD PUSH1 0x40 MSTORE DUP1 PUSH1 0x0 DUP2 MSTORE PUSH1 0x20 ADD PUSH1 0x0 DUP2 MSTORE PUSH1 0x20 ADD PUSH1 0x0 DUP2 MSTORE PUSH1 0x20 ADD PUSH1 0x0 DUP2 MSTORE PUSH1 0x20 ADD PUSH1 0x0 DUP2 MSTORE PUSH1 0x20 ADD PUSH1 0x0 DUP2 MSTORE PUSH1 0x20 ADD PUSH1 0x0 PUSH5 0xFFFFFFFFFF AND DUP2 MSTORE PUSH1 0x20 ADD PUSH1 0x0 DUP2 MSTORE PUSH1 0x20 ADD PUSH1 0x0 DUP2 MSTORE PUSH1 0x20 ADD PUSH1 0x0 DUP2 MSTORE PUSH1 0x20 ADD PUSH1 0x0 DUP2 MSTORE POP SWAP1 JUMP JUMPDEST PUSH1 0x40 MLOAD DUP1 PUSH1 0xE0 ADD PUSH1 0x40 MSTORE DUP1 PUSH1 0x0 PUSH5 0xFFFFFFFFFF AND DUP2 MSTORE PUSH1 0x20 ADD PUSH1 0x0 DUP2 MSTORE PUSH1 0x20 ADD PUSH1 0x0 DUP2 MSTORE PUSH1 0x20 ADD PUSH1 0x0 DUP2 MSTORE PUSH1 0x20 ADD PUSH1 0x0 DUP2 MSTORE PUSH1 0x20 ADD PUSH1 0x0 DUP2 MSTORE PUSH1 0x20 ADD PUSH1 0x0 ISZERO ISZERO DUP2 MSTORE POP SWAP1 JUMP JUMPDEST PUSH1 0x40 MLOAD DUP1 PUSH1 0x40 ADD PUSH1 0x40 MSTORE DUP1 PUSH1 0x2 SWAP1 PUSH1 0x20 DUP3 MUL DUP1 CALLDATASIZE DUP4 CALLDATACOPY POP SWAP2 SWAP3 SWAP2 POP POP JUMP JUMPDEST PUSH1 0x40 MLOAD DUP1 PUSH2 0x1A0 ADD PUSH1 0x40 MSTORE DUP1 PUSH1 0xD SWAP1 PUSH1 0x20 DUP3 MUL DUP1 CALLDATASIZE DUP4 CALLDATACOPY POP SWAP2 SWAP3 SWAP2 POP POP JUMP JUMPDEST PUSH1 0x0 JUMPDEST DUP4 DUP2 LT ISZERO PUSH2 0x5505 JUMPI DUP2 DUP2 ADD MLOAD DUP4 DUP3 ADD MSTORE PUSH1 0x20 ADD PUSH2 0x54ED JUMP JUMPDEST POP POP PUSH1 0x0 SWAP2 ADD MSTORE JUMP JUMPDEST PUSH1 0x0 DUP2 MLOAD DUP1 DUP5 MSTORE PUSH2 0x5526 DUP2 PUSH1 0x20 DUP7 ADD PUSH1 0x20 DUP7 ADD PUSH2 0x54EA JUMP JUMPDEST PUSH1 0x1F ADD PUSH1 0x1F NOT AND SWAP3 SWAP1 SWAP3 ADD PUSH1 0x20 ADD SWAP3 SWAP2 POP POP JUMP JUMPDEST PUSH1 0x20 DUP2 MSTORE PUSH1 0x0 PUSH2 0xD7D PUSH1 0x20 DUP4 ADD DUP5 PUSH2 0x550E JUMP JUMPDEST DUP1 CALLDATALOAD PUSH1 0x1 PUSH1 0x1 PUSH1 0xA0 SHL SUB DUP2 AND DUP2 EQ PUSH2 0x1A36 JUMPI PUSH1 0x0 DUP1 REVERT JUMPDEST PUSH1 0x0 DUP1 PUSH1 0x40 DUP4 DUP6 SUB SLT ISZERO PUSH2 0x5577 JUMPI PUSH1 0x0 DUP1 REVERT JUMPDEST PUSH2 0x5580 DUP4 PUSH2 0x554D JUMP JUMPDEST SWAP5 PUSH1 0x20 SWAP4 SWAP1 SWAP4 ADD CALLDATALOAD SWAP4 POP POP POP JUMP JUMPDEST PUSH1 0x0 DUP1 PUSH1 0x0 PUSH1 0x60 DUP5 DUP7 SUB SLT ISZERO PUSH2 0x55A3 JUMPI PUSH1 0x0 DUP1 REVERT JUMPDEST PUSH2 0x55AC DUP5 PUSH2 0x554D JUMP JUMPDEST SWAP3 POP PUSH1 0x20 DUP5 ADD CALLDATALOAD SWAP2 POP PUSH2 0x55C1 PUSH1 0x40 DUP6 ADD PUSH2 0x554D JUMP JUMPDEST SWAP1 POP SWAP3 POP SWAP3 POP SWAP3 JUMP JUMPDEST PUSH1 0x0 DUP1 PUSH1 0x0 PUSH1 0x60 DUP5 DUP7 SUB SLT ISZERO PUSH2 0x55DF JUMPI PUSH1 0x0 DUP1 REVERT JUMPDEST PUSH2 0x55E8 DUP5 PUSH2 0x554D JUMP JUMPDEST SWAP3 POP PUSH2 0x55F6 PUSH1 0x20 DUP6 ADD PUSH2 0x554D JUMP JUMPDEST SWAP2 POP PUSH1 0x40 DUP5 ADD CALLDATALOAD SWAP1 POP SWAP3 POP SWAP3 POP SWAP3 JUMP JUMPDEST PUSH1 0x0 DUP1 DUP4 PUSH1 0x1F DUP5 ADD SLT PUSH2 0x5618 JUMPI PUSH1 0x0 DUP1 REVERT JUMPDEST POP DUP2 CALLDATALOAD PUSH8 0xFFFFFFFFFFFFFFFF DUP2 GT ISZERO PUSH2 0x5630 JUMPI PUSH1 0x0 DUP1 REVERT JUMPDEST PUSH1 0x20 DUP4 ADD SWAP2 POP DUP4 PUSH1 0x20 DUP3 PUSH1 0x5 SHL DUP6 ADD ADD GT ISZERO PUSH2 0x21BF JUMPI PUSH1 0x0 DUP1 REVERT JUMPDEST PUSH1 0x0 DUP1 PUSH1 0x0 PUSH1 0x40 DUP5 DUP7 SUB SLT ISZERO PUSH2 0x5660 JUMPI PUSH1 0x0 DUP1 REVERT JUMPDEST DUP4 CALLDATALOAD SWAP3 POP PUSH1 0x20 DUP5 ADD CALLDATALOAD PUSH8 0xFFFFFFFFFFFFFFFF DUP2 GT ISZERO PUSH2 0x567E JUMPI PUSH1 0x0 DUP1 REVERT JUMPDEST PUSH2 0x568A DUP7 DUP3 DUP8 ADD PUSH2 0x5606 JUMP JUMPDEST SWAP5 SWAP8 SWAP1 SWAP7 POP SWAP4 SWAP5 POP POP POP POP JUMP JUMPDEST DUP1 CALLDATALOAD PUSH1 0xFF DUP2 AND DUP2 EQ PUSH2 0x1A36 JUMPI PUSH1 0x0 DUP1 REVERT JUMPDEST PUSH1 0x0 DUP1 PUSH1 0x0 PUSH1 0x60 DUP5 DUP7 SUB SLT ISZERO PUSH2 0x56BD JUMPI PUSH1 0x0 DUP1 REVERT JUMPDEST DUP4 CALLDATALOAD SWAP3 POP PUSH1 0x20 DUP5 ADD CALLDATALOAD SWAP2 POP PUSH2 0x55C1 PUSH1 0x40 DUP6 ADD PUSH2 0x5697 JUMP JUMPDEST PUSH1 0x0 DUP1 PUSH1 0x40 DUP4 DUP6 SUB SLT ISZERO PUSH2 0x56E7 JUMPI PUSH1 0x0 DUP1 REVERT JUMPDEST POP POP DUP1 CALLDATALOAD SWAP3 PUSH1 0x20 SWAP1 SWAP2 ADD CALLDATALOAD SWAP2 POP JUMP JUMPDEST PUSH1 0x0 PUSH1 0x20 DUP3 DUP5 SUB SLT ISZERO PUSH2 0x5708 JUMPI PUSH1 0x0 DUP1 REVERT JUMPDEST PUSH2 0xD7D DUP3 PUSH2 0x554D JUMP JUMPDEST DUP1 CALLDATALOAD PUSH5 0xFFFFFFFFFF DUP2 AND DUP2 EQ PUSH2 0x1A36 JUMPI PUSH1 0x0 DUP1 REVERT JUMPDEST PUSH1 0x0 DUP1 PUSH1 0x40 DUP4 DUP6 SUB SLT ISZERO PUSH2 0x5739 JUMPI PUSH1 0x0 DUP1 REVERT JUMPDEST DUP3 CALLDATALOAD SWAP2 POP PUSH2 0x5749 PUSH1 0x20 DUP5 ADD PUSH2 0x5711 JUMP JUMPDEST SWAP1 POP SWAP3 POP SWAP3 SWAP1 POP JUMP JUMPDEST PUSH1 0x0 DUP1 PUSH1 0x40 DUP4 DUP6 SUB SLT ISZERO PUSH2 0x5765 JUMPI PUSH1 0x0 DUP1 REVERT JUMPDEST DUP3 CALLDATALOAD SWAP2 POP PUSH2 0x5749 PUSH1 0x20 DUP5 ADD PUSH2 0x554D JUMP JUMPDEST PUSH1 0x40 DUP2 ADD DUP2 DUP4 PUSH1 0x0 JUMPDEST PUSH1 0x2 DUP2 LT ISZERO PUSH2 0x4AF6 JUMPI DUP2 MLOAD DUP4 MSTORE PUSH1 0x20 SWAP3 DUP4 ADD SWAP3 SWAP1 SWAP2 ADD SWAP1 PUSH1 0x1 ADD PUSH2 0x577E JUMP JUMPDEST PUSH1 0x0 DUP1 PUSH1 0x0 PUSH1 0x60 DUP5 DUP7 SUB SLT ISZERO PUSH2 0x57B2 JUMPI PUSH1 0x0 DUP1 REVERT JUMPDEST PUSH2 0x57BB DUP5 PUSH2 0x554D JUMP JUMPDEST SWAP3 POP PUSH1 0x20 DUP5 ADD CALLDATALOAD SWAP2 POP PUSH2 0x55C1 PUSH1 0x40 DUP6 ADD PUSH2 0x5711 JUMP JUMPDEST PUSH4 0x4E487B71 PUSH1 0xE0 SHL PUSH1 0x0 MSTORE PUSH1 0x41 PUSH1 0x4 MSTORE PUSH1 0x24 PUSH1 0x0 REVERT JUMPDEST PUSH1 0x40 MLOAD PUSH2 0x160 DUP2 ADD PUSH8 0xFFFFFFFFFFFFFFFF DUP2 GT DUP3 DUP3 LT OR ISZERO PUSH2 0x5818 JUMPI PUSH4 0x4E487B71 PUSH1 0xE0 SHL PUSH1 0x0 MSTORE PUSH1 0x41 PUSH1 0x4 MSTORE PUSH1 0x24 PUSH1 0x0 REVERT JUMPDEST PUSH1 0x40 MSTORE SWAP1 JUMP JUMPDEST PUSH1 0x0 PUSH2 0x160 DUP3 DUP5 SUB SLT ISZERO PUSH2 0x5831 JUMPI PUSH1 0x0 DUP1 REVERT JUMPDEST PUSH2 0x5839 PUSH2 0x57E6 JUMP JUMPDEST SWAP1 POP DUP2 CALLDATALOAD DUP2 MSTORE PUSH1 0x20 DUP3 ADD CALLDATALOAD PUSH1 0x20 DUP3 ADD MSTORE PUSH1 0x40 DUP3 ADD CALLDATALOAD PUSH1 0x40 DUP3 ADD MSTORE PUSH1 0x60 DUP3 ADD CALLDATALOAD PUSH1 0x60 DUP3 ADD MSTORE PUSH1 0x80 DUP3 ADD CALLDATALOAD PUSH1 0x80 DUP3 ADD MSTORE PUSH1 0xA0 DUP3 ADD CALLDATALOAD PUSH1 0xA0 DUP3 ADD MSTORE PUSH2 0x587D PUSH1 0xC0 DUP4 ADD PUSH2 0x5711 JUMP JUMPDEST PUSH1 0xC0 DUP3 ADD MSTORE PUSH1 0xE0 DUP3 ADD CALLDATALOAD PUSH1 0xE0 DUP3 ADD MSTORE PUSH2 0x100 DUP1 DUP4 ADD CALLDATALOAD DUP2 DUP4 ADD MSTORE POP PUSH2 0x120 DUP1 DUP4 ADD CALLDATALOAD DUP2 DUP4 ADD MSTORE POP PUSH2 0x140 DUP1 DUP4 ADD CALLDATALOAD DUP2 DUP4 ADD MSTORE POP SWAP3 SWAP2 POP POP JUMP JUMPDEST PUSH1 0x0 DUP1 PUSH2 0x2C0 DUP4 DUP6 SUB SLT ISZERO PUSH2 0x58CA JUMPI PUSH1 0x0 DUP1 REVERT JUMPDEST PUSH2 0x58D4 DUP5 DUP5 PUSH2 0x581E JUMP JUMPDEST SWAP2 POP PUSH2 0x5749 DUP5 PUSH2 0x160 DUP6 ADD PUSH2 0x581E JUMP JUMPDEST PUSH1 0x20 DUP1 DUP3 MSTORE DUP3 MLOAD DUP3 DUP3 ADD DUP2 SWAP1 MSTORE PUSH1 0x0 SWAP2 SWAP1 DUP5 DUP3 ADD SWAP1 PUSH1 0x40 DUP6 ADD SWAP1 DUP5 JUMPDEST DUP2 DUP2 LT ISZERO PUSH2 0x591C JUMPI DUP4 MLOAD DUP4 MSTORE SWAP3 DUP5 ADD SWAP3 SWAP2 DUP5 ADD SWAP2 PUSH1 0x1 ADD PUSH2 0x5900 JUMP JUMPDEST POP SWAP1 SWAP7 SWAP6 POP POP POP POP POP POP JUMP JUMPDEST DUP1 CALLDATALOAD PUSH1 0x1 PUSH1 0x1 PUSH1 0x60 SHL SUB NOT DUP2 AND DUP2 EQ PUSH2 0x1A36 JUMPI PUSH1 0x0 DUP1 REVERT JUMPDEST PUSH1 0x0 PUSH1 0x20 DUP3 DUP5 SUB SLT ISZERO PUSH2 0x5952 JUMPI PUSH1 0x0 DUP1 REVERT JUMPDEST PUSH2 0xD7D DUP3 PUSH2 0x5928 JUMP JUMPDEST PUSH1 0x0 PUSH1 0x20 DUP3 DUP5 SUB SLT ISZERO PUSH2 0x596D JUMPI PUSH1 0x0 DUP1 REVERT JUMPDEST POP CALLDATALOAD SWAP2 SWAP1 POP JUMP JUMPDEST PUSH1 0x0 DUP1 PUSH1 0x0 DUP1 PUSH1 0x60 DUP6 DUP8 SUB SLT ISZERO PUSH2 0x598A JUMPI PUSH1 0x0 DUP1 REVERT JUMPDEST PUSH2 0x5993 DUP6 PUSH2 0x5928 JUMP JUMPDEST SWAP4 POP PUSH1 0x20 DUP6 ADD CALLDATALOAD SWAP3 POP PUSH1 0x40 DUP6 ADD CALLDATALOAD PUSH8 0xFFFFFFFFFFFFFFFF DUP2 GT ISZERO PUSH2 0x59B6 JUMPI PUSH1 0x0 DUP1 REVERT JUMPDEST PUSH2 0x59C2 DUP8 DUP3 DUP9 ADD PUSH2 0x5606 JUMP JUMPDEST SWAP6 SWAP9 SWAP5 SWAP8 POP SWAP6 POP POP POP POP JUMP JUMPDEST PUSH1 0x0 DUP1 PUSH1 0x0 DUP1 PUSH1 0x0 DUP1 PUSH1 0x0 DUP1 PUSH1 0x0 DUP1 PUSH1 0x0 DUP1 PUSH2 0x160 DUP14 DUP16 SUB SLT ISZERO PUSH2 0x59F1 JUMPI PUSH1 0x0 DUP1 REVERT JUMPDEST DUP13 CALLDATALOAD SWAP12 POP PUSH8 0xFFFFFFFFFFFFFFFF PUSH1 0x20 DUP15 ADD CALLDATALOAD GT ISZERO PUSH2 0x5A0E JUMPI PUSH1 0x0 DUP1 REVERT JUMPDEST PUSH2 0x5A1E DUP15 PUSH1 0x20 DUP16 ADD CALLDATALOAD DUP16 ADD PUSH2 0x5606 JUMP JUMPDEST SWAP1 SWAP12 POP SWAP10 POP PUSH2 0x5A2F PUSH1 0x40 DUP15 ADD PUSH2 0x554D JUMP JUMPDEST SWAP9 POP PUSH1 0x60 DUP14 ADD CALLDATALOAD SWAP8 POP PUSH1 0x80 DUP14 ADD CALLDATALOAD SWAP7 POP PUSH2 0x5A4B PUSH1 0xA0 DUP15 ADD PUSH2 0x5697 JUMP JUMPDEST SWAP6 POP PUSH2 0x5A59 PUSH1 0xC0 DUP15 ADD PUSH2 0x5697 JUMP JUMPDEST SWAP5 POP PUSH1 0xE0 DUP14 ADD CALLDATALOAD SWAP4 POP PUSH2 0x100 DUP14 ADD CALLDATALOAD SWAP3 POP PUSH2 0x120 DUP14 ADD CALLDATALOAD SWAP2 POP PUSH2 0x5A7F PUSH2 0x140 DUP15 ADD PUSH2 0x554D JUMP JUMPDEST SWAP1 POP SWAP3 SWAP6 SWAP9 SWAP12 POP SWAP3 SWAP6 SWAP9 SWAP12 POP SWAP3 SWAP6 SWAP9 SWAP12 JUMP JUMPDEST PUSH1 0x0 DUP1 PUSH1 0x0 DUP1 PUSH1 0x0 DUP1 PUSH1 0x0 DUP1 PUSH2 0x100 DUP10 DUP12 SUB SLT ISZERO PUSH2 0x5AAE JUMPI PUSH1 0x0 DUP1 REVERT JUMPDEST PUSH2 0x5AB7 DUP10 PUSH2 0x554D JUMP JUMPDEST SWAP8 POP PUSH1 0x20 DUP10 ADD CALLDATALOAD SWAP7 POP PUSH1 0x40 DUP10 ADD CALLDATALOAD SWAP6 POP PUSH1 0x60 DUP10 ADD CALLDATALOAD SWAP5 POP PUSH2 0x5ADA PUSH1 0x80 DUP11 ADD PUSH2 0x5697 JUMP JUMPDEST SWAP4 POP PUSH2 0x5AE8 PUSH1 0xA0 DUP11 ADD PUSH2 0x5697 JUMP JUMPDEST SWAP3 POP PUSH1 0xC0 DUP10 ADD CALLDATALOAD SWAP2 POP PUSH1 0xE0 DUP10 ADD CALLDATALOAD SWAP1 POP SWAP3 SWAP6 SWAP9 POP SWAP3 SWAP6 SWAP9 SWAP1 SWAP4 SWAP7 POP JUMP JUMPDEST PUSH1 0x0 DUP1 PUSH1 0x40 DUP4 DUP6 SUB SLT ISZERO PUSH2 0x5B18 JUMPI PUSH1 0x0 DUP1 REVERT JUMPDEST PUSH2 0x5B21 DUP4 PUSH2 0x554D JUMP JUMPDEST SWAP2 POP PUSH2 0x5749 PUSH1 0x20 DUP5 ADD PUSH2 0x554D JUMP JUMPDEST PUSH2 0x1A0 DUP2 ADD DUP2 DUP4 PUSH1 0x0 JUMPDEST PUSH1 0xD DUP2 LT ISZERO PUSH2 0x4AF6 JUMPI DUP2 MLOAD DUP4 MSTORE PUSH1 0x20 SWAP3 DUP4 ADD SWAP3 SWAP1 SWAP2 ADD SWAP1 PUSH1 0x1 ADD PUSH2 0x5B39 JUMP JUMPDEST PUSH1 0x1 DUP2 DUP2 SHR SWAP1 DUP3 AND DUP1 PUSH2 0x5B6C JUMPI PUSH1 0x7F DUP3 AND SWAP2 POP JUMPDEST PUSH1 0x20 DUP3 LT DUP2 SUB PUSH2 0x13F8 JUMPI PUSH4 0x4E487B71 PUSH1 0xE0 SHL PUSH1 0x0 MSTORE PUSH1 0x22 PUSH1 0x4 MSTORE PUSH1 0x24 PUSH1 0x0 REVERT JUMPDEST PUSH4 0x4E487B71 PUSH1 0xE0 SHL PUSH1 0x0 MSTORE PUSH1 0x11 PUSH1 0x4 MSTORE PUSH1 0x24 PUSH1 0x0 REVERT JUMPDEST PUSH1 0x1 DUP2 DUP2 JUMPDEST DUP1 DUP6 GT ISZERO PUSH2 0x5BDD JUMPI DUP2 PUSH1 0x0 NOT DIV DUP3 GT ISZERO PUSH2 0x5BC3 JUMPI PUSH2 0x5BC3 PUSH2 0x5B8C JUMP JUMPDEST DUP1 DUP6 AND ISZERO PUSH2 0x5BD0 JUMPI SWAP2 DUP2 MUL SWAP2 JUMPDEST SWAP4 DUP5 SHR SWAP4 SWAP1 DUP1 MUL SWAP1 PUSH2 0x5BA7 JUMP JUMPDEST POP SWAP3 POP SWAP3 SWAP1 POP JUMP JUMPDEST PUSH1 0x0 DUP3 PUSH2 0x5BF4 JUMPI POP PUSH1 0x1 PUSH2 0xC3D JUMP JUMPDEST DUP2 PUSH2 0x5C01 JUMPI POP PUSH1 0x0 PUSH2 0xC3D JUMP JUMPDEST DUP2 PUSH1 0x1 DUP2 EQ PUSH2 0x5C17 JUMPI PUSH1 0x2 DUP2 EQ PUSH2 0x5C21 JUMPI PUSH2 0x5C3D JUMP JUMPDEST PUSH1 0x1 SWAP2 POP POP PUSH2 0xC3D JUMP JUMPDEST PUSH1 0xFF DUP5 GT ISZERO PUSH2 0x5C32 JUMPI PUSH2 0x5C32 PUSH2 0x5B8C JUMP JUMPDEST POP POP PUSH1 0x1 DUP3 SHL PUSH2 0xC3D JUMP JUMPDEST POP PUSH1 0x20 DUP4 LT PUSH2 0x133 DUP4 LT AND PUSH1 0x4E DUP5 LT PUSH1 0xB DUP5 LT AND OR ISZERO PUSH2 0x5C60 JUMPI POP DUP2 DUP2 EXP PUSH2 0xC3D JUMP JUMPDEST PUSH2 0x5C6A DUP4 DUP4 PUSH2 0x5BA2 JUMP JUMPDEST DUP1 PUSH1 0x0 NOT DIV DUP3 GT ISZERO PUSH2 0x5C7E JUMPI PUSH2 0x5C7E PUSH2 0x5B8C JUMP JUMPDEST MUL SWAP4 SWAP3 POP POP POP JUMP JUMPDEST PUSH1 0x0 PUSH2 0xD7D DUP4 DUP4 PUSH2 0x5BE5 JUMP JUMPDEST PUSH1 0x0 DUP3 PUSH2 0x5CAF JUMPI PUSH4 0x4E487B71 PUSH1 0xE0 SHL PUSH1 0x0 MSTORE PUSH1 0x12 PUSH1 0x4 MSTORE PUSH1 0x24 PUSH1 0x0 REVERT JUMPDEST POP DIV SWAP1 JUMP JUMPDEST DUP1 DUP3 MUL DUP2 ISZERO DUP3 DUP3 DIV DUP5 EQ OR PUSH2 0xC3D JUMPI PUSH2 0xC3D PUSH2 0x5B8C JUMP JUMPDEST PUSH4 0x4E487B71 PUSH1 0xE0 SHL PUSH1 0x0 MSTORE PUSH1 0x32 PUSH1 0x4 MSTORE PUSH1 0x24 PUSH1 0x0 REVERT JUMPDEST DUP2 DUP2 SUB DUP2 DUP2 GT ISZERO PUSH2 0xC3D JUMPI PUSH2 0xC3D PUSH2 0x5B8C JUMP JUMPDEST DUP1 DUP3 ADD DUP1 DUP3 GT ISZERO PUSH2 0xC3D JUMPI PUSH2 0xC3D PUSH2 0x5B8C JUMP JUMPDEST PUSH1 0x0 DUP2 PUSH2 0x5D16 JUMPI PUSH2 0x5D16 PUSH2 0x5B8C JUMP JUMPDEST POP PUSH1 0x0 NOT ADD SWAP1 JUMP JUMPDEST PUSH1 0x0 PUSH1 0x1 DUP3 ADD PUSH2 0x5D30 JUMPI PUSH2 0x5D30 PUSH2 0x5B8C JUMP JUMPDEST POP PUSH1 0x1 ADD SWAP1 JUMP JUMPDEST PUSH1 0x20 DUP1 DUP3 MSTORE PUSH1 0x25 SWAP1 DUP3 ADD MSTORE PUSH32 0x4D594E543A20436C61696D20706861736520686173206E6F7420796574207374 PUSH1 0x40 DUP3 ADD MSTORE PUSH5 0x185C9D1959 PUSH1 0xDA SHL PUSH1 0x60 DUP3 ADD MSTORE PUSH1 0x80 ADD SWAP1 JUMP JUMPDEST PUSH1 0x0 PUSH5 0xFFFFFFFFFF DUP1 DUP4 AND DUP2 DUP2 SUB PUSH2 0x5D96 JUMPI PUSH2 0x5D96 PUSH2 0x5B8C JUMP JUMPDEST PUSH1 0x1 ADD SWAP4 SWAP3 POP POP POP JUMP JUMPDEST PUSH1 0x0 DUP3 MLOAD PUSH2 0x5DB2 DUP2 DUP5 PUSH1 0x20 DUP8 ADD PUSH2 0x54EA JUMP JUMPDEST SWAP2 SWAP1 SWAP2 ADD SWAP3 SWAP2 POP POP JUMP JUMPDEST PUSH1 0x0 PUSH1 0x20 DUP3 DUP5 SUB SLT ISZERO PUSH2 0x5DCE JUMPI PUSH1 0x0 DUP1 REVERT JUMPDEST POP MLOAD SWAP2 SWAP1 POP JUMP JUMPDEST PUSH4 0x4E487B71 PUSH1 0xE0 SHL PUSH1 0x0 MSTORE PUSH1 0x31 PUSH1 0x4 MSTORE PUSH1 0x24 PUSH1 0x0 REVERT JUMPDEST PUSH1 0x40 DUP2 MSTORE PUSH1 0x0 PUSH2 0x5DFE PUSH1 0x40 DUP4 ADD DUP6 PUSH2 0x550E JUMP JUMPDEST SWAP1 POP DUP3 PUSH1 0x20 DUP4 ADD MSTORE SWAP4 SWAP3 POP POP POP JUMP JUMPDEST PUSH1 0xFF DUP2 DUP2 AND DUP4 DUP3 AND MUL SWAP1 DUP2 AND SWAP1 DUP2 DUP2 EQ PUSH2 0x5E29 JUMPI PUSH2 0x5E29 PUSH2 0x5B8C JUMP JUMPDEST POP SWAP3 SWAP2 POP POP JUMP JUMPDEST PUSH1 0xFF DUP2 DUP2 AND DUP4 DUP3 AND ADD SWAP1 DUP2 GT ISZERO PUSH2 0xC3D JUMPI PUSH2 0xC3D PUSH2 0x5B8C JUMP JUMPDEST PUSH1 0x1 PUSH1 0x1 PUSH1 0xF8 SHL SUB NOT PUSH1 0xF8 DUP8 DUP2 SHL DUP3 AND DUP4 MSTORE PUSH8 0xFFFFFFFFFFFFFFFF NOT DUP8 AND PUSH1 0x1 DUP5 ADD MSTORE DUP6 SWAP1 SHL AND PUSH1 0x19 DUP3 ADD MSTORE DUP3 MLOAD PUSH1 0x0 SWAP1 PUSH2 0x5E8B DUP2 PUSH1 0x1A DUP6 ADD PUSH1 0x20 DUP9 ADD PUSH2 0x54EA JUMP JUMPDEST DUP4 MLOAD SWAP1 DUP4 ADD SWAP1 PUSH2 0x5EA2 DUP2 PUSH1 0x1A DUP5 ADD PUSH1 0x20 DUP9 ADD PUSH2 0x54EA JUMP JUMPDEST ADD PUSH1 0x1A ADD SWAP8 SWAP7 POP POP POP POP POP POP POP JUMP JUMPDEST PUSH1 0x1 PUSH1 0x1 PUSH1 0xF8 SHL SUB NOT PUSH1 0xF8 DUP9 DUP2 SHL DUP3 AND DUP4 MSTORE PUSH8 0xFFFFFFFFFFFFFFFF NOT DUP9 AND PUSH1 0x1 DUP5 ADD MSTORE DUP7 SWAP1 SHL AND PUSH1 0x19 DUP3 ADD MSTORE DUP4 MLOAD PUSH1 0x0 SWAP1 PUSH2 0x5EF3 DUP2 PUSH1 0x1A DUP6 ADD PUSH1 0x20 DUP10 ADD PUSH2 0x54EA JUMP JUMPDEST DUP5 MLOAD SWAP1 DUP4 ADD SWAP1 PUSH2 0x5F0A DUP2 PUSH1 0x1A DUP5 ADD PUSH1 0x20 DUP10 ADD PUSH2 0x54EA JUMP JUMPDEST PUSH1 0x5F PUSH1 0xF8 SHL PUSH1 0x1A SWAP3 SWAP1 SWAP2 ADD SWAP2 DUP3 ADD MSTORE DUP4 MLOAD PUSH2 0x5F2C DUP2 PUSH1 0x1B DUP5 ADD PUSH1 0x20 DUP9 ADD PUSH2 0x54EA JUMP JUMPDEST ADD PUSH1 0x1B ADD SWAP9 SWAP8 POP POP POP POP POP POP POP POP JUMP INVALID LOG2 PUSH5 0x6970667358 0x22 SLT KECCAK256 MOD 0xD CALLDATASIZE PUSH27 0x92489049E2D15B03728D4068E38B8E1B0AD61ADC014792833B9C15 0x49 PUSH5 0x736F6C6343 STOP ADDMOD SGT STOP CALLER "
		},
		"gasEstimates": {
			"creation": {
				"codeDepositCost": "4886800",
				"executionCost": "infinite",
				"totalCost": "infinite"
			},
			"external": {
				"CLAIM_PHASE_DAYS()": "363",
				"FLUSH_ADDR()": "373",
				"HEARTS_PER_SATOSHI()": "infinite",
				"_waasLobby(uint256)": "infinite",
				"allocatedSupply()": "4597",
				"allowance(address,address)": "infinite",
				"approve(address,uint256)": "24674",
				"balanceOf(address)": "2608",
				"btcAddressClaim(uint256,bytes32[],address,bytes32,bytes32,uint8,uint8,bytes32,bytes32,uint256,address)": "infinite",
				"btcAddressClaims(bytes20)": "2624",
				"btcAddressIsClaimable(bytes20,uint256,bytes32[])": "infinite",
				"btcAddressIsValid(bytes20,uint256,bytes32[])": "infinite",
				"calculateEntryId(uint256,uint256)": "567",
				"claimMessageMatchesSignature(address,bytes32,bytes32,bytes32,uint8,uint8,bytes32,bytes32)": "infinite",
				"contractOwner()": "infinite",
				"currentDay()": "infinite",
				"dailyData(uint256)": "2678",
				"dailyDataRange(uint256,uint256)": "infinite",
				"dailyDataUpdate(uint256)": "infinite",
				"decimals()": "223",
				"decreaseAllowance(address,uint256)": "26995",
				"getGlobalsLoad((uint256,uint256,uint256,uint256,uint256,uint256,uint40,uint256,uint256,uint256,uint256),(uint256,uint256,uint256,uint256,uint256,uint256,uint40,uint256,uint256,uint256,uint256))": "infinite",
				"getTreasureBoxAddress()": "2465",
				"globalInfo()": "infinite",
				"globals()": "4948",
				"increaseAllowance(address,uint256)": "infinite",
				"merkleProofIsValid(bytes32,bytes32[])": "infinite",
				"mint(address,uint256,address)": "infinite",
				"name()": "infinite",
				"pubKeyToBtcAddress(bytes32,bytes32,uint8)": "infinite",
				"pubKeyToEthAddress(bytes32,bytes32)": "631",
				"setTreasureBoxAddress(address)": "infinite",
				"stakeCount(address)": "2627",
				"stakeEnd(uint256,uint40)": "infinite",
				"stakeGoodAccounting(address,uint256,uint40)": "infinite",
				"stakeLists(address,uint256)": "5186",
				"stakeStart(uint256,uint256)": "infinite",
				"symbol()": "infinite",
				"totalSupply()": "2338",
				"transfer(address,uint256)": "51117",
				"transferFrom(address,address,uint256)": "infinite",
				"transferKeeper(address,uint256)": "infinite",
				"treasureBoxAddress()": "2426",
				"xfLobby(uint256)": "2550",
				"xfLobbyEnter(address)": "infinite",
				"xfLobbyEntry(address,uint256)": "5211",
				"xfLobbyExit(uint256,uint256)": "infinite",
				"xfLobbyMembers(uint256,address)": "2778",
				"xfLobbyPendingDays(address)": "infinite",
				"xfLobbyRange(uint256,uint256)": "infinite"
			}
		},
		"methodIdentifiers": {
			"CLAIM_PHASE_DAYS()": "319e74f6",
			"FLUSH_ADDR()": "13c5c2c7",
			"HEARTS_PER_SATOSHI()": "1285b047",
			"_waasLobby(uint256)": "8c84a47b",
			"allocatedSupply()": "3a70a5ca",
			"allowance(address,address)": "dd62ed3e",
			"approve(address,uint256)": "095ea7b3",
			"balanceOf(address)": "70a08231",
			"btcAddressClaim(uint256,bytes32[],address,bytes32,bytes32,uint8,uint8,bytes32,bytes32,uint256,address)": "96f62b9d",
			"btcAddressClaims(bytes20)": "7c426620",
			"btcAddressIsClaimable(bytes20,uint256,bytes32[])": "8e21aa01",
			"btcAddressIsValid(bytes20,uint256,bytes32[])": "ec9a1917",
			"calculateEntryId(uint256,uint256)": "a042b1b6",
			"claimMessageMatchesSignature(address,bytes32,bytes32,bytes32,uint8,uint8,bytes32,bytes32)": "d5a373ff",
			"contractOwner()": "ce606ee0",
			"currentDay()": "5c9302c9",
			"dailyData(uint256)": "90de6871",
			"dailyDataRange(uint256,uint256)": "6a210a0e",
			"dailyDataUpdate(uint256)": "8f1c65c0",
			"decimals()": "313ce567",
			"decreaseAllowance(address,uint256)": "a457c2d7",
			"getGlobalsLoad((uint256,uint256,uint256,uint256,uint256,uint256,uint40,uint256,uint256,uint256,uint256),(uint256,uint256,uint256,uint256,uint256,uint256,uint40,uint256,uint256,uint256,uint256))": "65d2a557",
			"getTreasureBoxAddress()": "34dc8bb5",
			"globalInfo()": "f04b5fa0",
			"globals()": "c3124525",
			"increaseAllowance(address,uint256)": "39509351",
			"merkleProofIsValid(bytes32,bytes32[])": "27aa6018",
			"mint(address,uint256,address)": "0d4d1513",
			"name()": "06fdde03",
			"pubKeyToBtcAddress(bytes32,bytes32,uint8)": "283a5baf",
			"pubKeyToEthAddress(bytes32,bytes32)": "30c1a785",
			"setTreasureBoxAddress(address)": "8cba2842",
			"stakeCount(address)": "33060d90",
			"stakeEnd(uint256,uint40)": "343009a2",
			"stakeGoodAccounting(address,uint256,uint40)": "65cf71b2",
			"stakeLists(address,uint256)": "2607443b",
			"stakeStart(uint256,uint256)": "52a438b8",
			"symbol()": "95d89b41",
			"totalSupply()": "18160ddd",
			"transfer(address,uint256)": "a9059cbb",
			"transferFrom(address,address,uint256)": "23b872dd",
			"transferKeeper(address,uint256)": "112beab5",
			"treasureBoxAddress()": "b626d6fc",
			"xfLobby(uint256)": "87a0f31c",
			"xfLobbyEnter(address)": "ce7d1f77",
			"xfLobbyEntry(address,uint256)": "bd926ed3",
			"xfLobbyExit(uint256,uint256)": "cbb151d3",
			"xfLobbyMembers(uint256,address)": "44203faf",
			"xfLobbyPendingDays(address)": "44f0de75",
			"xfLobbyRange(uint256,uint256)": "f57a1b3c"
		}
	},
	"abi": [
		{
			"inputs": [],
			"stateMutability": "nonpayable",
			"type": "constructor"
		},
		{
			"anonymous": false,
			"inputs": [
				{
					"indexed": true,
					"internalType": "address",
					"name": "owner",
					"type": "address"
				},
				{
					"indexed": true,
					"internalType": "address",
					"name": "spender",
					"type": "address"
				},
				{
					"indexed": false,
					"internalType": "uint256",
					"name": "value",
					"type": "uint256"
				}
			],
			"name": "Approval",
			"type": "event"
		},
		{
			"anonymous": false,
			"inputs": [
				{
					"indexed": false,
					"internalType": "uint256",
					"name": "data0",
					"type": "uint256"
				},
				{
					"indexed": false,
					"internalType": "uint256",
					"name": "data1",
					"type": "uint256"
				},
				{
					"indexed": true,
					"internalType": "bytes20",
					"name": "btcAddr",
					"type": "bytes20"
				},
				{
					"indexed": true,
					"internalType": "address",
					"name": "claimToAddr",
					"type": "address"
				},
				{
					"indexed": true,
					"internalType": "address",
					"name": "referrerAddr",
					"type": "address"
				}
			],
			"name": "Claim",
			"type": "event"
		},
		{
			"anonymous": false,
			"inputs": [
				{
					"indexed": false,
					"internalType": "uint256",
					"name": "data0",
					"type": "uint256"
				},
				{
					"indexed": false,
					"internalType": "uint256",
					"name": "data1",
					"type": "uint256"
				},
				{
					"indexed": false,
					"internalType": "uint256",
					"name": "data2",
					"type": "uint256"
				},
				{
					"indexed": true,
					"internalType": "address",
					"name": "senderAddr",
					"type": "address"
				}
			],
			"name": "ClaimAssist",
			"type": "event"
		},
		{
			"anonymous": false,
			"inputs": [
				{
					"indexed": false,
					"internalType": "uint256",
					"name": "data0",
					"type": "uint256"
				},
				{
					"indexed": true,
					"internalType": "address",
					"name": "updaterAddr",
					"type": "address"
				}
			],
			"name": "DailyDataUpdate",
			"type": "event"
		},
		{
			"anonymous": false,
			"inputs": [
				{
					"indexed": false,
					"internalType": "uint256",
					"name": "data0",
					"type": "uint256"
				},
				{
					"indexed": true,
					"internalType": "uint40",
					"name": "stakeId",
					"type": "uint40"
				}
			],
			"name": "ShareRateChange",
			"type": "event"
		},
		{
			"anonymous": false,
			"inputs": [
				{
					"indexed": false,
					"internalType": "uint256",
					"name": "data0",
					"type": "uint256"
				},
				{
					"indexed": false,
					"internalType": "uint256",
					"name": "data1",
					"type": "uint256"
				},
				{
					"indexed": true,
					"internalType": "address",
					"name": "stakerAddr",
					"type": "address"
				},
				{
					"indexed": true,
					"internalType": "uint40",
					"name": "stakeId",
					"type": "uint40"
				}
			],
			"name": "StakeEnd",
			"type": "event"
		},
		{
			"anonymous": false,
			"inputs": [
				{
					"indexed": false,
					"internalType": "uint256",
					"name": "data0",
					"type": "uint256"
				},
				{
					"indexed": false,
					"internalType": "uint256",
					"name": "data1",
					"type": "uint256"
				},
				{
					"indexed": true,
					"internalType": "address",
					"name": "stakerAddr",
					"type": "address"
				},
				{
					"indexed": true,
					"internalType": "uint40",
					"name": "stakeId",
					"type": "uint40"
				},
				{
					"indexed": true,
					"internalType": "address",
					"name": "senderAddr",
					"type": "address"
				}
			],
			"name": "StakeGoodAccounting",
			"type": "event"
		},
		{
			"anonymous": false,
			"inputs": [
				{
					"indexed": false,
					"internalType": "uint256",
					"name": "data0",
					"type": "uint256"
				},
				{
					"indexed": true,
					"internalType": "address",
					"name": "stakerAddr",
					"type": "address"
				},
				{
					"indexed": true,
					"internalType": "uint40",
					"name": "stakeId",
					"type": "uint40"
				}
			],
			"name": "StakeStart",
			"type": "event"
		},
		{
			"anonymous": false,
			"inputs": [
				{
					"indexed": true,
					"internalType": "address",
					"name": "from",
					"type": "address"
				},
				{
					"indexed": true,
					"internalType": "address",
					"name": "to",
					"type": "address"
				},
				{
					"indexed": false,
					"internalType": "uint256",
					"name": "value",
					"type": "uint256"
				}
			],
			"name": "Transfer",
			"type": "event"
		},
		{
			"anonymous": false,
			"inputs": [
				{
					"indexed": false,
					"internalType": "uint256",
					"name": "data0",
					"type": "uint256"
				},
				{
					"indexed": true,
					"internalType": "address",
					"name": "memberAddr",
					"type": "address"
				},
				{
					"indexed": true,
					"internalType": "uint256",
					"name": "entryId",
					"type": "uint256"
				},
				{
					"indexed": true,
					"internalType": "address",
					"name": "referrerAddr",
					"type": "address"
				}
			],
			"name": "XfLobbyEnter",
			"type": "event"
		},
		{
			"anonymous": false,
			"inputs": [
				{
					"indexed": false,
					"internalType": "uint256",
					"name": "data0",
					"type": "uint256"
				},
				{
					"indexed": true,
					"internalType": "address",
					"name": "memberAddr",
					"type": "address"
				},
				{
					"indexed": true,
					"internalType": "uint256",
					"name": "entryId",
					"type": "uint256"
				},
				{
					"indexed": true,
					"internalType": "address",
					"name": "referrerAddr",
					"type": "address"
				}
			],
			"name": "XfLobbyExit",
			"type": "event"
		},
		{
			"inputs": [],
			"name": "CLAIM_PHASE_DAYS",
			"outputs": [
				{
					"internalType": "uint256",
					"name": "",
					"type": "uint256"
				}
			],
			"stateMutability": "view",
			"type": "function"
		},
		{
			"inputs": [],
			"name": "FLUSH_ADDR",
			"outputs": [
				{
					"internalType": "address payable",
					"name": "",
					"type": "address"
				}
			],
			"stateMutability": "view",
			"type": "function"
		},
		{
			"inputs": [],
			"name": "HEARTS_PER_SATOSHI",
			"outputs": [
				{
					"internalType": "uint256",
					"name": "",
					"type": "uint256"
				}
			],
			"stateMutability": "view",
			"type": "function"
		},
		{
			"inputs": [
				{
					"internalType": "uint256",
					"name": "enterDay",
					"type": "uint256"
				}
			],
			"name": "_waasLobby",
			"outputs": [
				{
					"internalType": "uint256",
					"name": "waasLobby",
					"type": "uint256"
				}
			],
			"stateMutability": "nonpayable",
			"type": "function"
		},
		{
			"inputs": [],
			"name": "allocatedSupply",
			"outputs": [
				{
					"internalType": "uint256",
					"name": "",
					"type": "uint256"
				}
			],
			"stateMutability": "view",
			"type": "function"
		},
		{
			"inputs": [
				{
					"internalType": "address",
					"name": "owner",
					"type": "address"
				},
				{
					"internalType": "address",
					"name": "spender",
					"type": "address"
				}
			],
			"name": "allowance",
			"outputs": [
				{
					"internalType": "uint256",
					"name": "",
					"type": "uint256"
				}
			],
			"stateMutability": "view",
			"type": "function"
		},
		{
			"inputs": [
				{
					"internalType": "address",
					"name": "spender",
					"type": "address"
				},
				{
					"internalType": "uint256",
					"name": "amount",
					"type": "uint256"
				}
			],
			"name": "approve",
			"outputs": [
				{
					"internalType": "bool",
					"name": "",
					"type": "bool"
				}
			],
			"stateMutability": "nonpayable",
			"type": "function"
		},
		{
			"inputs": [
				{
					"internalType": "address",
					"name": "account",
					"type": "address"
				}
			],
			"name": "balanceOf",
			"outputs": [
				{
					"internalType": "uint256",
					"name": "",
					"type": "uint256"
				}
			],
			"stateMutability": "view",
			"type": "function"
		},
		{
			"inputs": [
				{
					"internalType": "uint256",
					"name": "rawSatoshis",
					"type": "uint256"
				},
				{
					"internalType": "bytes32[]",
					"name": "proof",
					"type": "bytes32[]"
				},
				{
					"internalType": "address",
					"name": "claimToAddr",
					"type": "address"
				},
				{
					"internalType": "bytes32",
					"name": "pubKeyX",
					"type": "bytes32"
				},
				{
					"internalType": "bytes32",
					"name": "pubKeyY",
					"type": "bytes32"
				},
				{
					"internalType": "uint8",
					"name": "claimFlags",
					"type": "uint8"
				},
				{
					"internalType": "uint8",
					"name": "v",
					"type": "uint8"
				},
				{
					"internalType": "bytes32",
					"name": "r",
					"type": "bytes32"
				},
				{
					"internalType": "bytes32",
					"name": "s",
					"type": "bytes32"
				},
				{
					"internalType": "uint256",
					"name": "autoStakeDays",
					"type": "uint256"
				},
				{
					"internalType": "address",
					"name": "referrerAddr",
					"type": "address"
				}
			],
			"name": "btcAddressClaim",
			"outputs": [
				{
					"internalType": "uint256",
					"name": "",
					"type": "uint256"
				}
			],
			"stateMutability": "nonpayable",
			"type": "function"
		},
		{
			"inputs": [
				{
					"internalType": "bytes20",
					"name": "",
					"type": "bytes20"
				}
			],
			"name": "btcAddressClaims",
			"outputs": [
				{
					"internalType": "bool",
					"name": "",
					"type": "bool"
				}
			],
			"stateMutability": "view",
			"type": "function"
		},
		{
			"inputs": [
				{
					"internalType": "bytes20",
					"name": "btcAddr",
					"type": "bytes20"
				},
				{
					"internalType": "uint256",
					"name": "rawSatoshis",
					"type": "uint256"
				},
				{
					"internalType": "bytes32[]",
					"name": "proof",
					"type": "bytes32[]"
				}
			],
			"name": "btcAddressIsClaimable",
			"outputs": [
				{
					"internalType": "bool",
					"name": "",
					"type": "bool"
				}
			],
			"stateMutability": "view",
			"type": "function"
		},
		{
			"inputs": [
				{
					"internalType": "bytes20",
					"name": "btcAddr",
					"type": "bytes20"
				},
				{
					"internalType": "uint256",
					"name": "rawSatoshis",
					"type": "uint256"
				},
				{
					"internalType": "bytes32[]",
					"name": "proof",
					"type": "bytes32[]"
				}
			],
			"name": "btcAddressIsValid",
			"outputs": [
				{
					"internalType": "bool",
					"name": "",
					"type": "bool"
				}
			],
			"stateMutability": "pure",
			"type": "function"
		},
		{
			"inputs": [
				{
					"internalType": "uint256",
					"name": "enterDay",
					"type": "uint256"
				},
				{
					"internalType": "uint256",
					"name": "entryIndex",
					"type": "uint256"
				}
			],
			"name": "calculateEntryId",
			"outputs": [
				{
					"internalType": "uint256",
					"name": "entryId",
					"type": "uint256"
				}
			],
			"stateMutability": "pure",
			"type": "function"
		},
		{
			"inputs": [
				{
					"internalType": "address",
					"name": "claimToAddr",
					"type": "address"
				},
				{
					"internalType": "bytes32",
					"name": "claimParamHash",
					"type": "bytes32"
				},
				{
					"internalType": "bytes32",
					"name": "pubKeyX",
					"type": "bytes32"
				},
				{
					"internalType": "bytes32",
					"name": "pubKeyY",
					"type": "bytes32"
				},
				{
					"internalType": "uint8",
					"name": "claimFlags",
					"type": "uint8"
				},
				{
					"internalType": "uint8",
					"name": "v",
					"type": "uint8"
				},
				{
					"internalType": "bytes32",
					"name": "r",
					"type": "bytes32"
				},
				{
					"internalType": "bytes32",
					"name": "s",
					"type": "bytes32"
				}
			],
			"name": "claimMessageMatchesSignature",
			"outputs": [
				{
					"internalType": "bool",
					"name": "",
					"type": "bool"
				}
			],
			"stateMutability": "pure",
			"type": "function"
		},
		{
			"inputs": [],
			"name": "contractOwner",
			"outputs": [
				{
					"internalType": "address",
					"name": "",
					"type": "address"
				}
			],
			"stateMutability": "view",
			"type": "function"
		},
		{
			"inputs": [],
			"name": "currentDay",
			"outputs": [
				{
					"internalType": "uint256",
					"name": "",
					"type": "uint256"
				}
			],
			"stateMutability": "view",
			"type": "function"
		},
		{
			"inputs": [
				{
					"internalType": "uint256",
					"name": "",
					"type": "uint256"
				}
			],
			"name": "dailyData",
			"outputs": [
				{
					"internalType": "uint72",
					"name": "dayPayoutTotal",
					"type": "uint72"
				},
				{
					"internalType": "uint72",
					"name": "dayStakeSharesTotal",
					"type": "uint72"
				},
				{
					"internalType": "uint56",
					"name": "dayUnclaimedSatoshisTotal",
					"type": "uint56"
				}
			],
			"stateMutability": "view",
			"type": "function"
		},
		{
			"inputs": [
				{
					"internalType": "uint256",
					"name": "beginDay",
					"type": "uint256"
				},
				{
					"internalType": "uint256",
					"name": "endDay",
					"type": "uint256"
				}
			],
			"name": "dailyDataRange",
			"outputs": [
				{
					"internalType": "uint256[]",
					"name": "list",
					"type": "uint256[]"
				}
			],
			"stateMutability": "view",
			"type": "function"
		},
		{
			"inputs": [
				{
					"internalType": "uint256",
					"name": "beforeDay",
					"type": "uint256"
				}
			],
			"name": "dailyDataUpdate",
			"outputs": [],
			"stateMutability": "nonpayable",
			"type": "function"
		},
		{
			"inputs": [],
			"name": "decimals",
			"outputs": [
				{
					"internalType": "uint8",
					"name": "",
					"type": "uint8"
				}
			],
			"stateMutability": "view",
			"type": "function"
		},
		{
			"inputs": [
				{
					"internalType": "address",
					"name": "spender",
					"type": "address"
				},
				{
					"internalType": "uint256",
					"name": "subtractedValue",
					"type": "uint256"
				}
			],
			"name": "decreaseAllowance",
			"outputs": [
				{
					"internalType": "bool",
					"name": "",
					"type": "bool"
				}
			],
			"stateMutability": "nonpayable",
			"type": "function"
		},
		{
			"inputs": [
				{
					"components": [
						{
							"internalType": "uint256",
							"name": "_lockedHeartsTotal",
							"type": "uint256"
						},
						{
							"internalType": "uint256",
							"name": "_nextStakeSharesTotal",
							"type": "uint256"
						},
						{
							"internalType": "uint256",
							"name": "_shareRate",
							"type": "uint256"
						},
						{
							"internalType": "uint256",
							"name": "_stakePenaltyTotal",
							"type": "uint256"
						},
						{
							"internalType": "uint256",
							"name": "_dailyDataCount",
							"type": "uint256"
						},
						{
							"internalType": "uint256",
							"name": "_stakeSharesTotal",
							"type": "uint256"
						},
						{
							"internalType": "uint40",
							"name": "_latestStakeId",
							"type": "uint40"
						},
						{
							"internalType": "uint256",
							"name": "_unclaimedSatoshisTotal",
							"type": "uint256"
						},
						{
							"internalType": "uint256",
							"name": "_claimedSatoshisTotal",
							"type": "uint256"
						},
						{
							"internalType": "uint256",
							"name": "_claimedBtcAddrCount",
							"type": "uint256"
						},
						{
							"internalType": "uint256",
							"name": "_currentDay",
							"type": "uint256"
						}
					],
					"internalType": "struct IGlobals.GlobalsCache",
					"name": "g",
					"type": "tuple"
				},
				{
					"components": [
						{
							"internalType": "uint256",
							"name": "_lockedHeartsTotal",
							"type": "uint256"
						},
						{
							"internalType": "uint256",
							"name": "_nextStakeSharesTotal",
							"type": "uint256"
						},
						{
							"internalType": "uint256",
							"name": "_shareRate",
							"type": "uint256"
						},
						{
							"internalType": "uint256",
							"name": "_stakePenaltyTotal",
							"type": "uint256"
						},
						{
							"internalType": "uint256",
							"name": "_dailyDataCount",
							"type": "uint256"
						},
						{
							"internalType": "uint256",
							"name": "_stakeSharesTotal",
							"type": "uint256"
						},
						{
							"internalType": "uint40",
							"name": "_latestStakeId",
							"type": "uint40"
						},
						{
							"internalType": "uint256",
							"name": "_unclaimedSatoshisTotal",
							"type": "uint256"
						},
						{
							"internalType": "uint256",
							"name": "_claimedSatoshisTotal",
							"type": "uint256"
						},
						{
							"internalType": "uint256",
							"name": "_claimedBtcAddrCount",
							"type": "uint256"
						},
						{
							"internalType": "uint256",
							"name": "_currentDay",
							"type": "uint256"
						}
					],
					"internalType": "struct IGlobals.GlobalsCache",
					"name": "gSnapshot",
					"type": "tuple"
				}
			],
			"name": "getGlobalsLoad",
			"outputs": [],
			"stateMutability": "view",
			"type": "function"
		},
		{
			"inputs": [],
			"name": "getTreasureBoxAddress",
			"outputs": [
				{
					"internalType": "address",
					"name": "",
					"type": "address"
				}
			],
			"stateMutability": "view",
			"type": "function"
		},
		{
			"inputs": [],
			"name": "globalInfo",
			"outputs": [
				{
					"internalType": "uint256[13]",
					"name": "",
					"type": "uint256[13]"
				}
			],
			"stateMutability": "view",
			"type": "function"
		},
		{
			"inputs": [],
			"name": "globals",
			"outputs": [
				{
					"internalType": "uint72",
					"name": "lockedHeartsTotal",
					"type": "uint72"
				},
				{
					"internalType": "uint72",
					"name": "nextStakeSharesTotal",
					"type": "uint72"
				},
				{
					"internalType": "uint40",
					"name": "shareRate",
					"type": "uint40"
				},
				{
					"internalType": "uint72",
					"name": "stakePenaltyTotal",
					"type": "uint72"
				},
				{
					"internalType": "uint16",
					"name": "dailyDataCount",
					"type": "uint16"
				},
				{
					"internalType": "uint72",
					"name": "stakeSharesTotal",
					"type": "uint72"
				},
				{
					"internalType": "uint40",
					"name": "latestStakeId",
					"type": "uint40"
				},
				{
					"internalType": "uint128",
					"name": "claimStats",
					"type": "uint128"
				}
			],
			"stateMutability": "view",
			"type": "function"
		},
		{
			"inputs": [
				{
					"internalType": "address",
					"name": "spender",
					"type": "address"
				},
				{
					"internalType": "uint256",
					"name": "addedValue",
					"type": "uint256"
				}
			],
			"name": "increaseAllowance",
			"outputs": [
				{
					"internalType": "bool",
					"name": "",
					"type": "bool"
				}
			],
			"stateMutability": "nonpayable",
			"type": "function"
		},
		{
			"inputs": [
				{
					"internalType": "bytes32",
					"name": "merkleLeaf",
					"type": "bytes32"
				},
				{
					"internalType": "bytes32[]",
					"name": "proof",
					"type": "bytes32[]"
				}
			],
			"name": "merkleProofIsValid",
			"outputs": [
				{
					"internalType": "bool",
					"name": "",
					"type": "bool"
				}
			],
			"stateMutability": "pure",
			"type": "function"
		},
		{
			"inputs": [
				{
					"internalType": "address",
					"name": "_receiver",
					"type": "address"
				},
				{
					"internalType": "uint256",
					"name": "_amount",
					"type": "uint256"
				},
				{
					"internalType": "address",
					"name": "_contractAddress",
					"type": "address"
				}
			],
			"name": "mint",
			"outputs": [],
			"stateMutability": "nonpayable",
			"type": "function"
		},
		{
			"inputs": [],
			"name": "name",
			"outputs": [
				{
					"internalType": "string",
					"name": "",
					"type": "string"
				}
			],
			"stateMutability": "view",
			"type": "function"
		},
		{
			"inputs": [
				{
					"internalType": "bytes32",
					"name": "pubKeyX",
					"type": "bytes32"
				},
				{
					"internalType": "bytes32",
					"name": "pubKeyY",
					"type": "bytes32"
				},
				{
					"internalType": "uint8",
					"name": "claimFlags",
					"type": "uint8"
				}
			],
			"name": "pubKeyToBtcAddress",
			"outputs": [
				{
					"internalType": "bytes20",
					"name": "",
					"type": "bytes20"
				}
			],
			"stateMutability": "pure",
			"type": "function"
		},
		{
			"inputs": [
				{
					"internalType": "bytes32",
					"name": "pubKeyX",
					"type": "bytes32"
				},
				{
					"internalType": "bytes32",
					"name": "pubKeyY",
					"type": "bytes32"
				}
			],
			"name": "pubKeyToEthAddress",
			"outputs": [
				{
					"internalType": "address",
					"name": "",
					"type": "address"
				}
			],
			"stateMutability": "pure",
			"type": "function"
		},
		{
			"inputs": [
				{
					"internalType": "address",
					"name": "_treasureBoxAddress",
					"type": "address"
				}
			],
			"name": "setTreasureBoxAddress",
			"outputs": [],
			"stateMutability": "nonpayable",
			"type": "function"
		},
		{
			"inputs": [
				{
					"internalType": "address",
					"name": "stakerAddr",
					"type": "address"
				}
			],
			"name": "stakeCount",
			"outputs": [
				{
					"internalType": "uint256",
					"name": "",
					"type": "uint256"
				}
			],
			"stateMutability": "view",
			"type": "function"
		},
		{
			"inputs": [
				{
					"internalType": "uint256",
					"name": "stakeIndex",
					"type": "uint256"
				},
				{
					"internalType": "uint40",
					"name": "stakeIdParam",
					"type": "uint40"
				}
			],
			"name": "stakeEnd",
			"outputs": [],
			"stateMutability": "nonpayable",
			"type": "function"
		},
		{
			"inputs": [
				{
					"internalType": "address",
					"name": "stakerAddr",
					"type": "address"
				},
				{
					"internalType": "uint256",
					"name": "stakeIndex",
					"type": "uint256"
				},
				{
					"internalType": "uint40",
					"name": "stakeIdParam",
					"type": "uint40"
				}
			],
			"name": "stakeGoodAccounting",
			"outputs": [],
			"stateMutability": "nonpayable",
			"type": "function"
		},
		{
			"inputs": [
				{
					"internalType": "address",
					"name": "",
					"type": "address"
				},
				{
					"internalType": "uint256",
					"name": "",
					"type": "uint256"
				}
			],
			"name": "stakeLists",
			"outputs": [
				{
					"internalType": "uint40",
					"name": "stakeId",
					"type": "uint40"
				},
				{
					"internalType": "uint72",
					"name": "stakedHearts",
					"type": "uint72"
				},
				{
					"internalType": "uint72",
					"name": "stakeShares",
					"type": "uint72"
				},
				{
					"internalType": "uint16",
					"name": "lockedDay",
					"type": "uint16"
				},
				{
					"internalType": "uint16",
					"name": "stakedDays",
					"type": "uint16"
				},
				{
					"internalType": "uint16",
					"name": "unlockedDay",
					"type": "uint16"
				},
				{
					"internalType": "bool",
					"name": "isAutoStake",
					"type": "bool"
				}
			],
			"stateMutability": "view",
			"type": "function"
		},
		{
			"inputs": [
				{
					"internalType": "uint256",
					"name": "newStakedHearts",
					"type": "uint256"
				},
				{
					"internalType": "uint256",
					"name": "newStakedDays",
					"type": "uint256"
				}
			],
			"name": "stakeStart",
			"outputs": [],
			"stateMutability": "nonpayable",
			"type": "function"
		},
		{
			"inputs": [],
			"name": "symbol",
			"outputs": [
				{
					"internalType": "string",
					"name": "",
					"type": "string"
				}
			],
			"stateMutability": "view",
			"type": "function"
		},
		{
			"inputs": [],
			"name": "totalSupply",
			"outputs": [
				{
					"internalType": "uint256",
					"name": "",
					"type": "uint256"
				}
			],
			"stateMutability": "view",
			"type": "function"
		},
		{
			"inputs": [
				{
					"internalType": "address",
					"name": "to",
					"type": "address"
				},
				{
					"internalType": "uint256",
					"name": "amount",
					"type": "uint256"
				}
			],
			"name": "transfer",
			"outputs": [
				{
					"internalType": "bool",
					"name": "",
					"type": "bool"
				}
			],
			"stateMutability": "nonpayable",
			"type": "function"
		},
		{
			"inputs": [
				{
					"internalType": "address",
					"name": "from",
					"type": "address"
				},
				{
					"internalType": "address",
					"name": "to",
					"type": "address"
				},
				{
					"internalType": "uint256",
					"name": "amount",
					"type": "uint256"
				}
			],
			"name": "transferFrom",
			"outputs": [
				{
					"internalType": "bool",
					"name": "",
					"type": "bool"
				}
			],
			"stateMutability": "nonpayable",
			"type": "function"
		},
		{
			"inputs": [
				{
					"internalType": "address",
					"name": "to",
					"type": "address"
				},
				{
					"internalType": "uint256",
					"name": "amount",
					"type": "uint256"
				}
			],
			"name": "transferKeeper",
			"outputs": [],
			"stateMutability": "nonpayable",
			"type": "function"
		},
		{
			"inputs": [],
			"name": "treasureBoxAddress",
			"outputs": [
				{
					"internalType": "address",
					"name": "",
					"type": "address"
				}
			],
			"stateMutability": "view",
			"type": "function"
		},
		{
			"inputs": [
				{
					"internalType": "uint256",
					"name": "",
					"type": "uint256"
				}
			],
			"name": "xfLobby",
			"outputs": [
				{
					"internalType": "uint256",
					"name": "",
					"type": "uint256"
				}
			],
			"stateMutability": "view",
			"type": "function"
		},
		{
			"inputs": [
				{
					"internalType": "address",
					"name": "referrerAddr",
					"type": "address"
				}
			],
			"name": "xfLobbyEnter",
			"outputs": [],
			"stateMutability": "payable",
			"type": "function"
		},
		{
			"inputs": [
				{
					"internalType": "address",
					"name": "memberAddr",
					"type": "address"
				},
				{
					"internalType": "uint256",
					"name": "entryId",
					"type": "uint256"
				}
			],
			"name": "xfLobbyEntry",
			"outputs": [
				{
					"internalType": "uint256",
					"name": "rawAmount",
					"type": "uint256"
				},
				{
					"internalType": "address",
					"name": "referrerAddr",
					"type": "address"
				}
			],
			"stateMutability": "view",
			"type": "function"
		},
		{
			"inputs": [
				{
					"internalType": "uint256",
					"name": "enterDay",
					"type": "uint256"
				},
				{
					"internalType": "uint256",
					"name": "count",
					"type": "uint256"
				}
			],
			"name": "xfLobbyExit",
			"outputs": [],
			"stateMutability": "nonpayable",
			"type": "function"
		},
		{
			"inputs": [
				{
					"internalType": "uint256",
					"name": "",
					"type": "uint256"
				},
				{
					"internalType": "address",
					"name": "",
					"type": "address"
				}
			],
			"name": "xfLobbyMembers",
			"outputs": [
				{
					"internalType": "uint40",
					"name": "headIndex",
					"type": "uint40"
				},
				{
					"internalType": "uint40",
					"name": "tailIndex",
					"type": "uint40"
				}
			],
			"stateMutability": "view",
			"type": "function"
		},
		{
			"inputs": [
				{
					"internalType": "address",
					"name": "memberAddr",
					"type": "address"
				}
			],
			"name": "xfLobbyPendingDays",
			"outputs": [
				{
					"internalType": "uint256[2]",
					"name": "words",
					"type": "uint256[2]"
				}
			],
			"stateMutability": "view",
			"type": "function"
		},
		{
			"inputs": [
				{
					"internalType": "uint256",
					"name": "beginDay",
					"type": "uint256"
				},
				{
					"internalType": "uint256",
					"name": "endDay",
					"type": "uint256"
				}
			],
			"name": "xfLobbyRange",
			"outputs": [
				{
					"internalType": "uint256[]",
					"name": "list",
					"type": "uint256[]"
				}
			],
			"stateMutability": "view",
			"type": "function"
		},
		{
			"stateMutability": "payable",
			"type": "receive"
		}
	]
}