{
	"data": {
		"bytecode": {
			"linkReferences": {},
			"object": "608060405234801561001057600080fd5b506040516200173c3803806200173c8339810160408190526100319161007e565b600080546001600160a01b039384166001600160a01b031991821617909155600280549290931691161790556100b1565b80516001600160a01b038116811461007957600080fd5b919050565b6000806040838503121561009157600080fd5b61009a83610062565b91506100a860208401610062565b90509250929050565b61167b80620000c16000396000f3fe6080604052600436106100dd5760003560e01c80636dc584901161007f578063bb02f7c611610059578063bb02f7c614610275578063c06c15d31461028a578063dd5967c31461029d578063f8665205146102ba57600080fd5b80636dc584901461022c5780637fa99bdf146102425780638a5c300a1461025557600080fd5b806327fac763116100bb57806327fac7631461019457806330cfcbd1146101cc578063417ae5d6146101ec57806366a027701461020c57600080fd5b806314a8bd0d146100e257806321cb5acc1461011157806326ae233f14610133575b600080fd5b3480156100ee57600080fd5b506100fe670de0b6b3a764000081565b6040519081526020015b60405180910390f35b34801561011d57600080fd5b5061013161012c3660046113dc565b6102da565b005b34801561013f57600080fd5b5061015361014e366004611411565b6104b0565b604080516001600160a01b0390981688526020880196909652948601939093526060850191909152608084015260a0830152151560c082015260e001610108565b3480156101a057600080fd5b506002546101b4906001600160a01b031681565b6040516001600160a01b039091168152602001610108565b3480156101d857600080fd5b506100fe6101e736600461143d565b610517565b3480156101f857600080fd5b506101316102073660046113dc565b610531565b34801561021857600080fd5b506000546101b4906001600160a01b031681565b34801561023857600080fd5b506100fe60035481565b610131610250366004611456565b610904565b34801561026157600080fd5b506001546101b4906001600160a01b031681565b34801561028157600080fd5b50610131610cfd565b610131610298366004611411565b610de9565b3480156102a957600080fd5b506100fe68056bc75e2d6310000081565b3480156102c657600080fd5b506100fe6102d536600461143d565b610fe1565b6001600160a01b03831660009081526004602052604081206102fd6001856114eb565b8154811061030d5761030d6114fe565b90600052602060002090600902019050600082116103725760405162461bcd60e51b815260206004820152601860248201527f496e73756666696369656e74204d796e7420546f6b656e73000000000000000060448201526064015b60405180910390fd5b6001600160a01b0384166000908152600460205260409020546103a75760405162461bcd60e51b815260040161036990611514565b6000831180156103cf57506001600160a01b0384166000908152600460205260409020548311155b61040c5760405162461bcd60e51b815260206004820152600e60248201526d125b9d985b1a5908109bde08125160921b6044820152606401610369565b8060030154421061045f5760405162461bcd60e51b815260206004820152601a60248201527f43616e6e6f742046756e64204166746572204d617475726974790000000000006044820152606401610369565b604080516001600160a01b0386168152602081018490524281830152905133917f4e65b2a4889afad0f8034888d199ad98e45c044185a9adf55aa062affa418dd5919081900360600190a250505050565b600460205281600052604060002081815481106104cc57600080fd5b600091825260209091206009909102018054600182015460028301546003840154600485015460078601546008909601546001600160a01b0390951697509295509093909260ff1687565b600061052b670de0b6b3a76400008361154b565b92915050565b6001600160a01b0383166000908152600460205260409020546105665760405162461bcd60e51b815260040161036990611514565b60008211801561058e57506001600160a01b0383166000908152600460205260409020548211155b6105cb5760405162461bcd60e51b815260206004820152600e60248201526d125b9d985b1a5908189bde08125160921b6044820152606401610369565b6105d481610ff5565b6001600160a01b0316336001600160a01b0316146106345760405162461bcd60e51b815260206004820152601c60248201527f43616c6c657220646f6573206e6f74206f776e20746865204e465473000000006044820152606401610369565b6001600160a01b03831660009081526004602052604081206106576001856114eb565b81548110610667576106676114fe565b600091825260208083208584526006600990930201918201905260408220805491935091036106d85760405162461bcd60e51b815260206004820181905260248201527f4e4654204944204e6f7420666f756e6420696e20547265617375726520426f786044820152606401610369565b6000838152600583016020908152604080832054925481516334dc8bb560e01b815291516001600160a01b0390911692630d4d1513923392869286926334dc8bb592600480830193928290030181865afa15801561073a573d6000803e3d6000fd5b505050506040513d601f19601f8201168201806040525081019061075e9190611562565b60405160e085901b6001600160e01b03191681526001600160a01b03938416600482015260248101929092529091166044820152606401600060405180830381600087803b1580156107af57600080fd5b505af11580156107c3573d6000803e3d6000fd5b505050506001830154156107e75782546107e7906001600160a01b03168686611063565b600084815260068401602090815260408083208381556001908101849055600587019092528220829055600785018054919290916108269084906114eb565b909155505060078301546000036108b7576001600160a01b038616600090815260046020526040902061085a6001876114eb565b8154811061086a5761086a6114fe565b60009182526020822060099091020180546001600160a01b0319168155600181018290556002810182905560038101829055600481018290556007810191909155600801805460ff191690555b8385336001600160a01b03167f812be816db82c66cd18ca8457005cd84689642d8ac4d38599cc6af444a2dc72a846040516108f491815260200190565b60405180910390a4505050505050565b4283116109535760405162461bcd60e51b815260206004820181905260248201527f436c61696d2064617465206d75737420626520696e20746865206675747572656044820152606401610369565b806109a05760405162461bcd60e51b815260206004820152601a60248201527f4d757374206c696e6b206174206c65617374206f6e65204e46540000000000006044820152606401610369565b6000341180156109b9575068056bc75e2d631000003411155b610a055760405162461bcd60e51b815260206004820181905260248201527f496e76616c6964206465706f736974206f72206f7574206f662072616e67652e6044820152606401610369565b3360008181526004602081815260408320805460018181018355918552918420600990920290910180546001600160a01b0319169094178455349084015560038301869055429083015560088201805460ff19169055600782018390556402540be400600283018190559190610a7c858585611192565b905060005b84811015610c9b576000868683818110610a9d57610a9d6114fe565b90506040020160000135118015610acf57506000868683818110610ac357610ac36114fe565b90506040020160200135115b610b2f5760405162461bcd60e51b815260206004820152602b60248201527f4e465420494420616e642076616c7565206d757374206265206772656174657260448201526a103a3430b7103d32b9379760a91b6064820152608401610369565b610b53868683818110610b4457610b446114fe565b90506040020160000135610ff5565b6001600160a01b0316336001600160a01b031614610bb35760405162461bcd60e51b815260206004820152601c60248201527f43616c6c657220646f6573206e6f74206f776e20746865204e465473000000006044820152606401610369565b818181518110610bc557610bc56114fe565b6020026020010151836005016000888885818110610be557610be56114fe565b905060400201600001358152602001908152602001600020819055506040518060400160405280878784818110610c1e57610c1e6114fe565b905060400201600001358152602001878784818110610c3f57610c3f6114fe565b90506040020160200135815250836006016000888885818110610c6457610c646114fe565b604090810292909201358352506020808301939093520160002082518155910151600190910155610c9481611586565b9050610a81565b503460036000828254610cae919061159f565b909155505060405133907f283aff829750cc641d36855d7f58af384b56c01bbea998be8e956710ac029d5790610ced9089908990899034908a906115b2565b60405180910390a2505050505050565b610d05611295565b600060035447610d1591906114eb565b90504715801590610d2557508015155b610d715760405162461bcd60e51b815260206004820152601760248201527f4d594e543a204e6f2056616c756520746f20666c7573680000000000000000006044820152606401610369565b600054604080516313c5c2c760e01b81529051610de6926001600160a01b0316916313c5c2c79160048083019260209291908290030181865afa158015610dbc573d6000803e3d6000fd5b505050506040513d601f19601f82011682018060405250810190610de09190611562565b82611329565b50565b6001600160a01b0382166000908152600460205260408120610e0c6001846114eb565b81548110610e1c57610e1c6114fe565b9060005260206000209060090201905060003411610e735760405162461bcd60e51b815260206004820152601460248201527324b739bab33334b1b4b2b73a1022aa2417a1272160611b6044820152606401610369565b6001600160a01b038316600090815260046020526040902054610ea85760405162461bcd60e51b815260040161036990611514565b600082118015610ed057506001600160a01b0383166000908152600460205260409020548211155b610f0d5760405162461bcd60e51b815260206004820152600e60248201526d125b9d985b1a5908109bde08125160921b6044820152606401610369565b80600301544210610f605760405162461bcd60e51b815260206004820152601a60248201527f43616e6e6f742046756e64204166746572204d617475726974790000000000006044820152606401610369565b34816001016000828254610f74919061159f565b925050819055503460036000828254610f8d919061159f565b9091555050604080516001600160a01b03851681523460208201524281830152905133917f4e65b2a4889afad0f8034888d199ad98e45c044185a9adf55aa062affa418dd5919081900360600190a2505050565b600061052b670de0b6b3a76400008361160d565b6002546040516331a9108f60e11b8152600481018390526000916001600160a01b031690636352211e90602401602060405180830381865afa15801561103f573d6000803e3d6000fd5b505050506040513d601f19601f8201168201806040525081019061052b9190611562565b6001600160a01b03831660009081526004602052604081206110866001856114eb565b81548110611096576110966114fe565b906000526020600020906009020190506000600382600101546110b9919061160d565b6001549091506110d2906001600160a01b031682611329565b6110dc8582611329565b6110e781600361154b565b8260010160008282546110fa91906114eb565b9091555050600182015461110f82600361154b565b611119919061159f565b6003600082825461112a91906114eb565b9091555050600060018381019190915560088301805460ff19169091179055604051818152839085906001600160a01b038816907f629619dcb6f24a8ec69629be52d11da4d21d1eec45880eaf28cf7034e347d3f69060200160405180910390a45050505050565b60606000808467ffffffffffffffff8111156111b0576111b061162f565b6040519080825280602002602001820160405280156111d9578160200160208202803683370190505b50905060005b85811015611220578686828181106111f9576111f96114fe565b905060400201602001358361120e919061159f565b925061121981611586565b90506111df565b5060005b8581101561128b578287878381811061123f5761123f6114fe565b9050604002016020013586611254919061154b565b61125e919061160d565b828281518110611270576112706114fe565b602090810291909101015261128481611586565b9050611224565b5095945050505050565b60008054906101000a90046001600160a01b03166001600160a01b031663ce606ee06040518163ffffffff1660e01b8152600401602060405180830381865afa1580156112e6573d6000803e3d6000fd5b505050506040513d601f19601f8201168201806040525081019061130a9190611562565b6001600160a01b0316336001600160a01b03161461132757600080fd5b565b6000826001600160a01b03168260405160006040518083038185875af1925050503d8060008114611376576040519150601f19603f3d011682016040523d82523d6000602084013e61137b565b606091505b50509050806113c25760405162461bcd60e51b8152602060048201526013602482015272151c985b9cd9995c881999594819985a5b1959606a1b6044820152606401610369565b505050565b6001600160a01b0381168114610de657600080fd5b6000806000606084860312156113f157600080fd5b83356113fc816113c7565b95602085013595506040909401359392505050565b6000806040838503121561142457600080fd5b823561142f816113c7565b946020939093013593505050565b60006020828403121561144f57600080fd5b5035919050565b60008060006040848603121561146b57600080fd5b83359250602084013567ffffffffffffffff8082111561148a57600080fd5b818601915086601f83011261149e57600080fd5b8135818111156114ad57600080fd5b8760208260061b85010111156114c257600080fd5b6020830194508093505050509250925092565b634e487b7160e01b600052601160045260246000fd5b8181038181111561052b5761052b6114d5565b634e487b7160e01b600052603260045260246000fd5b60208082526017908201527f496e76616c69642043726561746f722041646472657373000000000000000000604082015260600190565b808202811582820484141761052b5761052b6114d5565b60006020828403121561157457600080fd5b815161157f816113c7565b9392505050565b600060018201611598576115986114d5565b5060010190565b8082018082111561052b5761052b6114d5565b85815260806020808301829052908201859052600090869060a08401835b888110156115f657833582528284013583830152604093840193909101906001016115d0565b506040850196909652505050606001529392505050565b60008261162a57634e487b7160e01b600052601260045260246000fd5b500490565b634e487b7160e01b600052604160045260246000fdfea2646970667358221220841deac0dbb16e543d3291bff90fc081abc0a68f87de0efa82bc8a80b3d5b6a564736f6c63430008130033",
			"opcodes": "PUSH1 0x80 PUSH1 0x40 MSTORE CALLVALUE DUP1 ISZERO PUSH2 0x10 JUMPI PUSH1 0x0 DUP1 REVERT JUMPDEST POP PUSH1 0x40 MLOAD PUSH3 0x173C CODESIZE SUB DUP1 PUSH3 0x173C DUP4 CODECOPY DUP2 ADD PUSH1 0x40 DUP2 SWAP1 MSTORE PUSH2 0x31 SWAP2 PUSH2 0x7E JUMP JUMPDEST PUSH1 0x0 DUP1 SLOAD PUSH1 0x1 PUSH1 0x1 PUSH1 0xA0 SHL SUB SWAP4 DUP5 AND PUSH1 0x1 PUSH1 0x1 PUSH1 0xA0 SHL SUB NOT SWAP2 DUP3 AND OR SWAP1 SWAP2 SSTORE PUSH1 0x2 DUP1 SLOAD SWAP3 SWAP1 SWAP4 AND SWAP2 AND OR SWAP1 SSTORE PUSH2 0xB1 JUMP JUMPDEST DUP1 MLOAD PUSH1 0x1 PUSH1 0x1 PUSH1 0xA0 SHL SUB DUP2 AND DUP2 EQ PUSH2 0x79 JUMPI PUSH1 0x0 DUP1 REVERT JUMPDEST SWAP2 SWAP1 POP JUMP JUMPDEST PUSH1 0x0 DUP1 PUSH1 0x40 DUP4 DUP6 SUB SLT ISZERO PUSH2 0x91 JUMPI PUSH1 0x0 DUP1 REVERT JUMPDEST PUSH2 0x9A DUP4 PUSH2 0x62 JUMP JUMPDEST SWAP2 POP PUSH2 0xA8 PUSH1 0x20 DUP5 ADD PUSH2 0x62 JUMP JUMPDEST SWAP1 POP SWAP3 POP SWAP3 SWAP1 POP JUMP JUMPDEST PUSH2 0x167B DUP1 PUSH3 0xC1 PUSH1 0x0 CODECOPY PUSH1 0x0 RETURN INVALID PUSH1 0x80 PUSH1 0x40 MSTORE PUSH1 0x4 CALLDATASIZE LT PUSH2 0xDD JUMPI PUSH1 0x0 CALLDATALOAD PUSH1 0xE0 SHR DUP1 PUSH4 0x6DC58490 GT PUSH2 0x7F JUMPI DUP1 PUSH4 0xBB02F7C6 GT PUSH2 0x59 JUMPI DUP1 PUSH4 0xBB02F7C6 EQ PUSH2 0x275 JUMPI DUP1 PUSH4 0xC06C15D3 EQ PUSH2 0x28A JUMPI DUP1 PUSH4 0xDD5967C3 EQ PUSH2 0x29D JUMPI DUP1 PUSH4 0xF8665205 EQ PUSH2 0x2BA JUMPI PUSH1 0x0 DUP1 REVERT JUMPDEST DUP1 PUSH4 0x6DC58490 EQ PUSH2 0x22C JUMPI DUP1 PUSH4 0x7FA99BDF EQ PUSH2 0x242 JUMPI DUP1 PUSH4 0x8A5C300A EQ PUSH2 0x255 JUMPI PUSH1 0x0 DUP1 REVERT JUMPDEST DUP1 PUSH4 0x27FAC763 GT PUSH2 0xBB JUMPI DUP1 PUSH4 0x27FAC763 EQ PUSH2 0x194 JUMPI DUP1 PUSH4 0x30CFCBD1 EQ PUSH2 0x1CC JUMPI DUP1 PUSH4 0x417AE5D6 EQ PUSH2 0x1EC JUMPI DUP1 PUSH4 0x66A02770 EQ PUSH2 0x20C JUMPI PUSH1 0x0 DUP1 REVERT JUMPDEST DUP1 PUSH4 0x14A8BD0D EQ PUSH2 0xE2 JUMPI DUP1 PUSH4 0x21CB5ACC EQ PUSH2 0x111 JUMPI DUP1 PUSH4 0x26AE233F EQ PUSH2 0x133 JUMPI JUMPDEST PUSH1 0x0 DUP1 REVERT JUMPDEST CALLVALUE DUP1 ISZERO PUSH2 0xEE JUMPI PUSH1 0x0 DUP1 REVERT JUMPDEST POP PUSH2 0xFE PUSH8 0xDE0B6B3A7640000 DUP2 JUMP JUMPDEST PUSH1 0x40 MLOAD SWAP1 DUP2 MSTORE PUSH1 0x20 ADD JUMPDEST PUSH1 0x40 MLOAD DUP1 SWAP2 SUB SWAP1 RETURN JUMPDEST CALLVALUE DUP1 ISZERO PUSH2 0x11D JUMPI PUSH1 0x0 DUP1 REVERT JUMPDEST POP PUSH2 0x131 PUSH2 0x12C CALLDATASIZE PUSH1 0x4 PUSH2 0x13DC JUMP JUMPDEST PUSH2 0x2DA JUMP JUMPDEST STOP JUMPDEST CALLVALUE DUP1 ISZERO PUSH2 0x13F JUMPI PUSH1 0x0 DUP1 REVERT JUMPDEST POP PUSH2 0x153 PUSH2 0x14E CALLDATASIZE PUSH1 0x4 PUSH2 0x1411 JUMP JUMPDEST PUSH2 0x4B0 JUMP JUMPDEST PUSH1 0x40 DUP1 MLOAD PUSH1 0x1 PUSH1 0x1 PUSH1 0xA0 SHL SUB SWAP1 SWAP9 AND DUP9 MSTORE PUSH1 0x20 DUP9 ADD SWAP7 SWAP1 SWAP7 MSTORE SWAP5 DUP7 ADD SWAP4 SWAP1 SWAP4 MSTORE PUSH1 0x60 DUP6 ADD SWAP2 SWAP1 SWAP2 MSTORE PUSH1 0x80 DUP5 ADD MSTORE PUSH1 0xA0 DUP4 ADD MSTORE ISZERO ISZERO PUSH1 0xC0 DUP3 ADD MSTORE PUSH1 0xE0 ADD PUSH2 0x108 JUMP JUMPDEST CALLVALUE DUP1 ISZERO PUSH2 0x1A0 JUMPI PUSH1 0x0 DUP1 REVERT JUMPDEST POP PUSH1 0x2 SLOAD PUSH2 0x1B4 SWAP1 PUSH1 0x1 PUSH1 0x1 PUSH1 0xA0 SHL SUB AND DUP2 JUMP JUMPDEST PUSH1 0x40 MLOAD PUSH1 0x1 PUSH1 0x1 PUSH1 0xA0 SHL SUB SWAP1 SWAP2 AND DUP2 MSTORE PUSH1 0x20 ADD PUSH2 0x108 JUMP JUMPDEST CALLVALUE DUP1 ISZERO PUSH2 0x1D8 JUMPI PUSH1 0x0 DUP1 REVERT JUMPDEST POP PUSH2 0xFE PUSH2 0x1E7 CALLDATASIZE PUSH1 0x4 PUSH2 0x143D JUMP JUMPDEST PUSH2 0x517 JUMP JUMPDEST CALLVALUE DUP1 ISZERO PUSH2 0x1F8 JUMPI PUSH1 0x0 DUP1 REVERT JUMPDEST POP PUSH2 0x131 PUSH2 0x207 CALLDATASIZE PUSH1 0x4 PUSH2 0x13DC JUMP JUMPDEST PUSH2 0x531 JUMP JUMPDEST CALLVALUE DUP1 ISZERO PUSH2 0x218 JUMPI PUSH1 0x0 DUP1 REVERT JUMPDEST POP PUSH1 0x0 SLOAD PUSH2 0x1B4 SWAP1 PUSH1 0x1 PUSH1 0x1 PUSH1 0xA0 SHL SUB AND DUP2 JUMP JUMPDEST CALLVALUE DUP1 ISZERO PUSH2 0x238 JUMPI PUSH1 0x0 DUP1 REVERT JUMPDEST POP PUSH2 0xFE PUSH1 0x3 SLOAD DUP2 JUMP JUMPDEST PUSH2 0x131 PUSH2 0x250 CALLDATASIZE PUSH1 0x4 PUSH2 0x1456 JUMP JUMPDEST PUSH2 0x904 JUMP JUMPDEST CALLVALUE DUP1 ISZERO PUSH2 0x261 JUMPI PUSH1 0x0 DUP1 REVERT JUMPDEST POP PUSH1 0x1 SLOAD PUSH2 0x1B4 SWAP1 PUSH1 0x1 PUSH1 0x1 PUSH1 0xA0 SHL SUB AND DUP2 JUMP JUMPDEST CALLVALUE DUP1 ISZERO PUSH2 0x281 JUMPI PUSH1 0x0 DUP1 REVERT JUMPDEST POP PUSH2 0x131 PUSH2 0xCFD JUMP JUMPDEST PUSH2 0x131 PUSH2 0x298 CALLDATASIZE PUSH1 0x4 PUSH2 0x1411 JUMP JUMPDEST PUSH2 0xDE9 JUMP JUMPDEST CALLVALUE DUP1 ISZERO PUSH2 0x2A9 JUMPI PUSH1 0x0 DUP1 REVERT JUMPDEST POP PUSH2 0xFE PUSH9 0x56BC75E2D63100000 DUP2 JUMP JUMPDEST CALLVALUE DUP1 ISZERO PUSH2 0x2C6 JUMPI PUSH1 0x0 DUP1 REVERT JUMPDEST POP PUSH2 0xFE PUSH2 0x2D5 CALLDATASIZE PUSH1 0x4 PUSH2 0x143D JUMP JUMPDEST PUSH2 0xFE1 JUMP JUMPDEST PUSH1 0x1 PUSH1 0x1 PUSH1 0xA0 SHL SUB DUP4 AND PUSH1 0x0 SWAP1 DUP2 MSTORE PUSH1 0x4 PUSH1 0x20 MSTORE PUSH1 0x40 DUP2 KECCAK256 PUSH2 0x2FD PUSH1 0x1 DUP6 PUSH2 0x14EB JUMP JUMPDEST DUP2 SLOAD DUP2 LT PUSH2 0x30D JUMPI PUSH2 0x30D PUSH2 0x14FE JUMP JUMPDEST SWAP1 PUSH1 0x0 MSTORE PUSH1 0x20 PUSH1 0x0 KECCAK256 SWAP1 PUSH1 0x9 MUL ADD SWAP1 POP PUSH1 0x0 DUP3 GT PUSH2 0x372 JUMPI PUSH1 0x40 MLOAD PUSH3 0x461BCD PUSH1 0xE5 SHL DUP2 MSTORE PUSH1 0x20 PUSH1 0x4 DUP3 ADD MSTORE PUSH1 0x18 PUSH1 0x24 DUP3 ADD MSTORE PUSH32 0x496E73756666696369656E74204D796E7420546F6B656E730000000000000000 PUSH1 0x44 DUP3 ADD MSTORE PUSH1 0x64 ADD JUMPDEST PUSH1 0x40 MLOAD DUP1 SWAP2 SUB SWAP1 REVERT JUMPDEST PUSH1 0x1 PUSH1 0x1 PUSH1 0xA0 SHL SUB DUP5 AND PUSH1 0x0 SWAP1 DUP2 MSTORE PUSH1 0x4 PUSH1 0x20 MSTORE PUSH1 0x40 SWAP1 KECCAK256 SLOAD PUSH2 0x3A7 JUMPI PUSH1 0x40 MLOAD PUSH3 0x461BCD PUSH1 0xE5 SHL DUP2 MSTORE PUSH1 0x4 ADD PUSH2 0x369 SWAP1 PUSH2 0x1514 JUMP JUMPDEST PUSH1 0x0 DUP4 GT DUP1 ISZERO PUSH2 0x3CF JUMPI POP PUSH1 0x1 PUSH1 0x1 PUSH1 0xA0 SHL SUB DUP5 AND PUSH1 0x0 SWAP1 DUP2 MSTORE PUSH1 0x4 PUSH1 0x20 MSTORE PUSH1 0x40 SWAP1 KECCAK256 SLOAD DUP4 GT ISZERO JUMPDEST PUSH2 0x40C JUMPI PUSH1 0x40 MLOAD PUSH3 0x461BCD PUSH1 0xE5 SHL DUP2 MSTORE PUSH1 0x20 PUSH1 0x4 DUP3 ADD MSTORE PUSH1 0xE PUSH1 0x24 DUP3 ADD MSTORE PUSH14 0x125B9D985B1A5908109BDE081251 PUSH1 0x92 SHL PUSH1 0x44 DUP3 ADD MSTORE PUSH1 0x64 ADD PUSH2 0x369 JUMP JUMPDEST DUP1 PUSH1 0x3 ADD SLOAD TIMESTAMP LT PUSH2 0x45F JUMPI PUSH1 0x40 MLOAD PUSH3 0x461BCD PUSH1 0xE5 SHL DUP2 MSTORE PUSH1 0x20 PUSH1 0x4 DUP3 ADD MSTORE PUSH1 0x1A PUSH1 0x24 DUP3 ADD MSTORE PUSH32 0x43616E6E6F742046756E64204166746572204D61747572697479000000000000 PUSH1 0x44 DUP3 ADD MSTORE PUSH1 0x64 ADD PUSH2 0x369 JUMP JUMPDEST PUSH1 0x40 DUP1 MLOAD PUSH1 0x1 PUSH1 0x1 PUSH1 0xA0 SHL SUB DUP7 AND DUP2 MSTORE PUSH1 0x20 DUP2 ADD DUP5 SWAP1 MSTORE TIMESTAMP DUP2 DUP4 ADD MSTORE SWAP1 MLOAD CALLER SWAP2 PUSH32 0x4E65B2A4889AFAD0F8034888D199AD98E45C044185A9ADF55AA062AFFA418DD5 SWAP2 SWAP1 DUP2 SWAP1 SUB PUSH1 0x60 ADD SWAP1 LOG2 POP POP POP POP JUMP JUMPDEST PUSH1 0x4 PUSH1 0x20 MSTORE DUP2 PUSH1 0x0 MSTORE PUSH1 0x40 PUSH1 0x0 KECCAK256 DUP2 DUP2 SLOAD DUP2 LT PUSH2 0x4CC JUMPI PUSH1 0x0 DUP1 REVERT JUMPDEST PUSH1 0x0 SWAP2 DUP3 MSTORE PUSH1 0x20 SWAP1 SWAP2 KECCAK256 PUSH1 0x9 SWAP1 SWAP2 MUL ADD DUP1 SLOAD PUSH1 0x1 DUP3 ADD SLOAD PUSH1 0x2 DUP4 ADD SLOAD PUSH1 0x3 DUP5 ADD SLOAD PUSH1 0x4 DUP6 ADD SLOAD PUSH1 0x7 DUP7 ADD SLOAD PUSH1 0x8 SWAP1 SWAP7 ADD SLOAD PUSH1 0x1 PUSH1 0x1 PUSH1 0xA0 SHL SUB SWAP1 SWAP6 AND SWAP8 POP SWAP3 SWAP6 POP SWAP1 SWAP4 SWAP1 SWAP3 PUSH1 0xFF AND DUP8 JUMP JUMPDEST PUSH1 0x0 PUSH2 0x52B PUSH8 0xDE0B6B3A7640000 DUP4 PUSH2 0x154B JUMP JUMPDEST SWAP3 SWAP2 POP POP JUMP JUMPDEST PUSH1 0x1 PUSH1 0x1 PUSH1 0xA0 SHL SUB DUP4 AND PUSH1 0x0 SWAP1 DUP2 MSTORE PUSH1 0x4 PUSH1 0x20 MSTORE PUSH1 0x40 SWAP1 KECCAK256 SLOAD PUSH2 0x566 JUMPI PUSH1 0x40 MLOAD PUSH3 0x461BCD PUSH1 0xE5 SHL DUP2 MSTORE PUSH1 0x4 ADD PUSH2 0x369 SWAP1 PUSH2 0x1514 JUMP JUMPDEST PUSH1 0x0 DUP3 GT DUP1 ISZERO PUSH2 0x58E JUMPI POP PUSH1 0x1 PUSH1 0x1 PUSH1 0xA0 SHL SUB DUP4 AND PUSH1 0x0 SWAP1 DUP2 MSTORE PUSH1 0x4 PUSH1 0x20 MSTORE PUSH1 0x40 SWAP1 KECCAK256 SLOAD DUP3 GT ISZERO JUMPDEST PUSH2 0x5CB JUMPI PUSH1 0x40 MLOAD PUSH3 0x461BCD PUSH1 0xE5 SHL DUP2 MSTORE PUSH1 0x20 PUSH1 0x4 DUP3 ADD MSTORE PUSH1 0xE PUSH1 0x24 DUP3 ADD MSTORE PUSH14 0x125B9D985B1A5908189BDE081251 PUSH1 0x92 SHL PUSH1 0x44 DUP3 ADD MSTORE PUSH1 0x64 ADD PUSH2 0x369 JUMP JUMPDEST PUSH2 0x5D4 DUP2 PUSH2 0xFF5 JUMP JUMPDEST PUSH1 0x1 PUSH1 0x1 PUSH1 0xA0 SHL SUB AND CALLER PUSH1 0x1 PUSH1 0x1 PUSH1 0xA0 SHL SUB AND EQ PUSH2 0x634 JUMPI PUSH1 0x40 MLOAD PUSH3 0x461BCD PUSH1 0xE5 SHL DUP2 MSTORE PUSH1 0x20 PUSH1 0x4 DUP3 ADD MSTORE PUSH1 0x1C PUSH1 0x24 DUP3 ADD MSTORE PUSH32 0x43616C6C657220646F6573206E6F74206F776E20746865204E46547300000000 PUSH1 0x44 DUP3 ADD MSTORE PUSH1 0x64 ADD PUSH2 0x369 JUMP JUMPDEST PUSH1 0x1 PUSH1 0x1 PUSH1 0xA0 SHL SUB DUP4 AND PUSH1 0x0 SWAP1 DUP2 MSTORE PUSH1 0x4 PUSH1 0x20 MSTORE PUSH1 0x40 DUP2 KECCAK256 PUSH2 0x657 PUSH1 0x1 DUP6 PUSH2 0x14EB JUMP JUMPDEST DUP2 SLOAD DUP2 LT PUSH2 0x667 JUMPI PUSH2 0x667 PUSH2 0x14FE JUMP JUMPDEST PUSH1 0x0 SWAP2 DUP3 MSTORE PUSH1 0x20 DUP1 DUP4 KECCAK256 DUP6 DUP5 MSTORE PUSH1 0x6 PUSH1 0x9 SWAP1 SWAP4 MUL ADD SWAP2 DUP3 ADD SWAP1 MSTORE PUSH1 0x40 DUP3 KECCAK256 DUP1 SLOAD SWAP2 SWAP4 POP SWAP2 SUB PUSH2 0x6D8 JUMPI PUSH1 0x40 MLOAD PUSH3 0x461BCD PUSH1 0xE5 SHL DUP2 MSTORE PUSH1 0x20 PUSH1 0x4 DUP3 ADD DUP2 SWAP1 MSTORE PUSH1 0x24 DUP3 ADD MSTORE PUSH32 0x4E4654204944204E6F7420666F756E6420696E20547265617375726520426F78 PUSH1 0x44 DUP3 ADD MSTORE PUSH1 0x64 ADD PUSH2 0x369 JUMP JUMPDEST PUSH1 0x0 DUP4 DUP2 MSTORE PUSH1 0x5 DUP4 ADD PUSH1 0x20 SWAP1 DUP2 MSTORE PUSH1 0x40 DUP1 DUP4 KECCAK256 SLOAD SWAP3 SLOAD DUP2 MLOAD PUSH4 0x34DC8BB5 PUSH1 0xE0 SHL DUP2 MSTORE SWAP2 MLOAD PUSH1 0x1 PUSH1 0x1 PUSH1 0xA0 SHL SUB SWAP1 SWAP2 AND SWAP3 PUSH4 0xD4D1513 SWAP3 CALLER SWAP3 DUP7 SWAP3 DUP7 SWAP3 PUSH4 0x34DC8BB5 SWAP3 PUSH1 0x4 DUP1 DUP4 ADD SWAP4 SWAP3 DUP3 SWAP1 SUB ADD DUP2 DUP7 GAS STATICCALL ISZERO DUP1 ISZERO PUSH2 0x73A JUMPI RETURNDATASIZE PUSH1 0x0 DUP1 RETURNDATACOPY RETURNDATASIZE PUSH1 0x0 REVERT JUMPDEST POP POP POP POP PUSH1 0x40 MLOAD RETURNDATASIZE PUSH1 0x1F NOT PUSH1 0x1F DUP3 ADD AND DUP3 ADD DUP1 PUSH1 0x40 MSTORE POP DUP2 ADD SWAP1 PUSH2 0x75E SWAP2 SWAP1 PUSH2 0x1562 JUMP JUMPDEST PUSH1 0x40 MLOAD PUSH1 0xE0 DUP6 SWAP1 SHL PUSH1 0x1 PUSH1 0x1 PUSH1 0xE0 SHL SUB NOT AND DUP2 MSTORE PUSH1 0x1 PUSH1 0x1 PUSH1 0xA0 SHL SUB SWAP4 DUP5 AND PUSH1 0x4 DUP3 ADD MSTORE PUSH1 0x24 DUP2 ADD SWAP3 SWAP1 SWAP3 MSTORE SWAP1 SWAP2 AND PUSH1 0x44 DUP3 ADD MSTORE PUSH1 0x64 ADD PUSH1 0x0 PUSH1 0x40 MLOAD DUP1 DUP4 SUB DUP2 PUSH1 0x0 DUP8 DUP1 EXTCODESIZE ISZERO DUP1 ISZERO PUSH2 0x7AF JUMPI PUSH1 0x0 DUP1 REVERT JUMPDEST POP GAS CALL ISZERO DUP1 ISZERO PUSH2 0x7C3 JUMPI RETURNDATASIZE PUSH1 0x0 DUP1 RETURNDATACOPY RETURNDATASIZE PUSH1 0x0 REVERT JUMPDEST POP POP POP POP PUSH1 0x1 DUP4 ADD SLOAD ISZERO PUSH2 0x7E7 JUMPI DUP3 SLOAD PUSH2 0x7E7 SWAP1 PUSH1 0x1 PUSH1 0x1 PUSH1 0xA0 SHL SUB AND DUP7 DUP7 PUSH2 0x1063 JUMP JUMPDEST PUSH1 0x0 DUP5 DUP2 MSTORE PUSH1 0x6 DUP5 ADD PUSH1 0x20 SWAP1 DUP2 MSTORE PUSH1 0x40 DUP1 DUP4 KECCAK256 DUP4 DUP2 SSTORE PUSH1 0x1 SWAP1 DUP2 ADD DUP5 SWAP1 SSTORE PUSH1 0x5 DUP8 ADD SWAP1 SWAP3 MSTORE DUP3 KECCAK256 DUP3 SWAP1 SSTORE PUSH1 0x7 DUP6 ADD DUP1 SLOAD SWAP2 SWAP3 SWAP1 SWAP2 PUSH2 0x826 SWAP1 DUP5 SWAP1 PUSH2 0x14EB JUMP JUMPDEST SWAP1 SWAP2 SSTORE POP POP PUSH1 0x7 DUP4 ADD SLOAD PUSH1 0x0 SUB PUSH2 0x8B7 JUMPI PUSH1 0x1 PUSH1 0x1 PUSH1 0xA0 SHL SUB DUP7 AND PUSH1 0x0 SWAP1 DUP2 MSTORE PUSH1 0x4 PUSH1 0x20 MSTORE PUSH1 0x40 SWAP1 KECCAK256 PUSH2 0x85A PUSH1 0x1 DUP8 PUSH2 0x14EB JUMP JUMPDEST DUP2 SLOAD DUP2 LT PUSH2 0x86A JUMPI PUSH2 0x86A PUSH2 0x14FE JUMP JUMPDEST PUSH1 0x0 SWAP2 DUP3 MSTORE PUSH1 0x20 DUP3 KECCAK256 PUSH1 0x9 SWAP1 SWAP2 MUL ADD DUP1 SLOAD PUSH1 0x1 PUSH1 0x1 PUSH1 0xA0 SHL SUB NOT AND DUP2 SSTORE PUSH1 0x1 DUP2 ADD DUP3 SWAP1 SSTORE PUSH1 0x2 DUP2 ADD DUP3 SWAP1 SSTORE PUSH1 0x3 DUP2 ADD DUP3 SWAP1 SSTORE PUSH1 0x4 DUP2 ADD DUP3 SWAP1 SSTORE PUSH1 0x7 DUP2 ADD SWAP2 SWAP1 SWAP2 SSTORE PUSH1 0x8 ADD DUP1 SLOAD PUSH1 0xFF NOT AND SWAP1 SSTORE JUMPDEST DUP4 DUP6 CALLER PUSH1 0x1 PUSH1 0x1 PUSH1 0xA0 SHL SUB AND PUSH32 0x812BE816DB82C66CD18CA8457005CD84689642D8AC4D38599CC6AF444A2DC72A DUP5 PUSH1 0x40 MLOAD PUSH2 0x8F4 SWAP2 DUP2 MSTORE PUSH1 0x20 ADD SWAP1 JUMP JUMPDEST PUSH1 0x40 MLOAD DUP1 SWAP2 SUB SWAP1 LOG4 POP POP POP POP POP POP JUMP JUMPDEST TIMESTAMP DUP4 GT PUSH2 0x953 JUMPI PUSH1 0x40 MLOAD PUSH3 0x461BCD PUSH1 0xE5 SHL DUP2 MSTORE PUSH1 0x20 PUSH1 0x4 DUP3 ADD DUP2 SWAP1 MSTORE PUSH1 0x24 DUP3 ADD MSTORE PUSH32 0x436C61696D2064617465206D75737420626520696E2074686520667574757265 PUSH1 0x44 DUP3 ADD MSTORE PUSH1 0x64 ADD PUSH2 0x369 JUMP JUMPDEST DUP1 PUSH2 0x9A0 JUMPI PUSH1 0x40 MLOAD PUSH3 0x461BCD PUSH1 0xE5 SHL DUP2 MSTORE PUSH1 0x20 PUSH1 0x4 DUP3 ADD MSTORE PUSH1 0x1A PUSH1 0x24 DUP3 ADD MSTORE PUSH32 0x4D757374206C696E6B206174206C65617374206F6E65204E4654000000000000 PUSH1 0x44 DUP3 ADD MSTORE PUSH1 0x64 ADD PUSH2 0x369 JUMP JUMPDEST PUSH1 0x0 CALLVALUE GT DUP1 ISZERO PUSH2 0x9B9 JUMPI POP PUSH9 0x56BC75E2D63100000 CALLVALUE GT ISZERO JUMPDEST PUSH2 0xA05 JUMPI PUSH1 0x40 MLOAD PUSH3 0x461BCD PUSH1 0xE5 SHL DUP2 MSTORE PUSH1 0x20 PUSH1 0x4 DUP3 ADD DUP2 SWAP1 MSTORE PUSH1 0x24 DUP3 ADD MSTORE PUSH32 0x496E76616C6964206465706F736974206F72206F7574206F662072616E67652E PUSH1 0x44 DUP3 ADD MSTORE PUSH1 0x64 ADD PUSH2 0x369 JUMP JUMPDEST CALLER PUSH1 0x0 DUP2 DUP2 MSTORE PUSH1 0x4 PUSH1 0x20 DUP2 DUP2 MSTORE PUSH1 0x40 DUP4 KECCAK256 DUP1 SLOAD PUSH1 0x1 DUP2 DUP2 ADD DUP4 SSTORE SWAP2 DUP6 MSTORE SWAP2 DUP5 KECCAK256 PUSH1 0x9 SWAP1 SWAP3 MUL SWAP1 SWAP2 ADD DUP1 SLOAD PUSH1 0x1 PUSH1 0x1 PUSH1 0xA0 SHL SUB NOT AND SWAP1 SWAP5 OR DUP5 SSTORE CALLVALUE SWAP1 DUP5 ADD SSTORE PUSH1 0x3 DUP4 ADD DUP7 SWAP1 SSTORE TIMESTAMP SWAP1 DUP4 ADD SSTORE PUSH1 0x8 DUP3 ADD DUP1 SLOAD PUSH1 0xFF NOT AND SWAP1 SSTORE PUSH1 0x7 DUP3 ADD DUP4 SWAP1 SSTORE PUSH5 0x2540BE400 PUSH1 0x2 DUP4 ADD DUP2 SWAP1 SSTORE SWAP2 SWAP1 PUSH2 0xA7C DUP6 DUP6 DUP6 PUSH2 0x1192 JUMP JUMPDEST SWAP1 POP PUSH1 0x0 JUMPDEST DUP5 DUP2 LT ISZERO PUSH2 0xC9B JUMPI PUSH1 0x0 DUP7 DUP7 DUP4 DUP2 DUP2 LT PUSH2 0xA9D JUMPI PUSH2 0xA9D PUSH2 0x14FE JUMP JUMPDEST SWAP1 POP PUSH1 0x40 MUL ADD PUSH1 0x0 ADD CALLDATALOAD GT DUP1 ISZERO PUSH2 0xACF JUMPI POP PUSH1 0x0 DUP7 DUP7 DUP4 DUP2 DUP2 LT PUSH2 0xAC3 JUMPI PUSH2 0xAC3 PUSH2 0x14FE JUMP JUMPDEST SWAP1 POP PUSH1 0x40 MUL ADD PUSH1 0x20 ADD CALLDATALOAD GT JUMPDEST PUSH2 0xB2F JUMPI PUSH1 0x40 MLOAD PUSH3 0x461BCD PUSH1 0xE5 SHL DUP2 MSTORE PUSH1 0x20 PUSH1 0x4 DUP3 ADD MSTORE PUSH1 0x2B PUSH1 0x24 DUP3 ADD MSTORE PUSH32 0x4E465420494420616E642076616C7565206D7573742062652067726561746572 PUSH1 0x44 DUP3 ADD MSTORE PUSH11 0x103A3430B7103D32B93797 PUSH1 0xA9 SHL PUSH1 0x64 DUP3 ADD MSTORE PUSH1 0x84 ADD PUSH2 0x369 JUMP JUMPDEST PUSH2 0xB53 DUP7 DUP7 DUP4 DUP2 DUP2 LT PUSH2 0xB44 JUMPI PUSH2 0xB44 PUSH2 0x14FE JUMP JUMPDEST SWAP1 POP PUSH1 0x40 MUL ADD PUSH1 0x0 ADD CALLDATALOAD PUSH2 0xFF5 JUMP JUMPDEST PUSH1 0x1 PUSH1 0x1 PUSH1 0xA0 SHL SUB AND CALLER PUSH1 0x1 PUSH1 0x1 PUSH1 0xA0 SHL SUB AND EQ PUSH2 0xBB3 JUMPI PUSH1 0x40 MLOAD PUSH3 0x461BCD PUSH1 0xE5 SHL DUP2 MSTORE PUSH1 0x20 PUSH1 0x4 DUP3 ADD MSTORE PUSH1 0x1C PUSH1 0x24 DUP3 ADD MSTORE PUSH32 0x43616C6C657220646F6573206E6F74206F776E20746865204E46547300000000 PUSH1 0x44 DUP3 ADD MSTORE PUSH1 0x64 ADD PUSH2 0x369 JUMP JUMPDEST DUP2 DUP2 DUP2 MLOAD DUP2 LT PUSH2 0xBC5 JUMPI PUSH2 0xBC5 PUSH2 0x14FE JUMP JUMPDEST PUSH1 0x20 MUL PUSH1 0x20 ADD ADD MLOAD DUP4 PUSH1 0x5 ADD PUSH1 0x0 DUP9 DUP9 DUP6 DUP2 DUP2 LT PUSH2 0xBE5 JUMPI PUSH2 0xBE5 PUSH2 0x14FE JUMP JUMPDEST SWAP1 POP PUSH1 0x40 MUL ADD PUSH1 0x0 ADD CALLDATALOAD DUP2 MSTORE PUSH1 0x20 ADD SWAP1 DUP2 MSTORE PUSH1 0x20 ADD PUSH1 0x0 KECCAK256 DUP2 SWAP1 SSTORE POP PUSH1 0x40 MLOAD DUP1 PUSH1 0x40 ADD PUSH1 0x40 MSTORE DUP1 DUP8 DUP8 DUP5 DUP2 DUP2 LT PUSH2 0xC1E JUMPI PUSH2 0xC1E PUSH2 0x14FE JUMP JUMPDEST SWAP1 POP PUSH1 0x40 MUL ADD PUSH1 0x0 ADD CALLDATALOAD DUP2 MSTORE PUSH1 0x20 ADD DUP8 DUP8 DUP5 DUP2 DUP2 LT PUSH2 0xC3F JUMPI PUSH2 0xC3F PUSH2 0x14FE JUMP JUMPDEST SWAP1 POP PUSH1 0x40 MUL ADD PUSH1 0x20 ADD CALLDATALOAD DUP2 MSTORE POP DUP4 PUSH1 0x6 ADD PUSH1 0x0 DUP9 DUP9 DUP6 DUP2 DUP2 LT PUSH2 0xC64 JUMPI PUSH2 0xC64 PUSH2 0x14FE JUMP JUMPDEST PUSH1 0x40 SWAP1 DUP2 MUL SWAP3 SWAP1 SWAP3 ADD CALLDATALOAD DUP4 MSTORE POP PUSH1 0x20 DUP1 DUP4 ADD SWAP4 SWAP1 SWAP4 MSTORE ADD PUSH1 0x0 KECCAK256 DUP3 MLOAD DUP2 SSTORE SWAP2 ADD MLOAD PUSH1 0x1 SWAP1 SWAP2 ADD SSTORE PUSH2 0xC94 DUP2 PUSH2 0x1586 JUMP JUMPDEST SWAP1 POP PUSH2 0xA81 JUMP JUMPDEST POP CALLVALUE PUSH1 0x3 PUSH1 0x0 DUP3 DUP3 SLOAD PUSH2 0xCAE SWAP2 SWAP1 PUSH2 0x159F JUMP JUMPDEST SWAP1 SWAP2 SSTORE POP POP PUSH1 0x40 MLOAD CALLER SWAP1 PUSH32 0x283AFF829750CC641D36855D7F58AF384B56C01BBEA998BE8E956710AC029D57 SWAP1 PUSH2 0xCED SWAP1 DUP10 SWAP1 DUP10 SWAP1 DUP10 SWAP1 CALLVALUE SWAP1 DUP11 SWAP1 PUSH2 0x15B2 JUMP JUMPDEST PUSH1 0x40 MLOAD DUP1 SWAP2 SUB SWAP1 LOG2 POP POP POP POP POP POP JUMP JUMPDEST PUSH2 0xD05 PUSH2 0x1295 JUMP JUMPDEST PUSH1 0x0 PUSH1 0x3 SLOAD SELFBALANCE PUSH2 0xD15 SWAP2 SWAP1 PUSH2 0x14EB JUMP JUMPDEST SWAP1 POP SELFBALANCE ISZERO DUP1 ISZERO SWAP1 PUSH2 0xD25 JUMPI POP DUP1 ISZERO ISZERO JUMPDEST PUSH2 0xD71 JUMPI PUSH1 0x40 MLOAD PUSH3 0x461BCD PUSH1 0xE5 SHL DUP2 MSTORE PUSH1 0x20 PUSH1 0x4 DUP3 ADD MSTORE PUSH1 0x17 PUSH1 0x24 DUP3 ADD MSTORE PUSH32 0x4D594E543A204E6F2056616C756520746F20666C757368000000000000000000 PUSH1 0x44 DUP3 ADD MSTORE PUSH1 0x64 ADD PUSH2 0x369 JUMP JUMPDEST PUSH1 0x0 SLOAD PUSH1 0x40 DUP1 MLOAD PUSH4 0x13C5C2C7 PUSH1 0xE0 SHL DUP2 MSTORE SWAP1 MLOAD PUSH2 0xDE6 SWAP3 PUSH1 0x1 PUSH1 0x1 PUSH1 0xA0 SHL SUB AND SWAP2 PUSH4 0x13C5C2C7 SWAP2 PUSH1 0x4 DUP1 DUP4 ADD SWAP3 PUSH1 0x20 SWAP3 SWAP2 SWAP1 DUP3 SWAP1 SUB ADD DUP2 DUP7 GAS STATICCALL ISZERO DUP1 ISZERO PUSH2 0xDBC JUMPI RETURNDATASIZE PUSH1 0x0 DUP1 RETURNDATACOPY RETURNDATASIZE PUSH1 0x0 REVERT JUMPDEST POP POP POP POP PUSH1 0x40 MLOAD RETURNDATASIZE PUSH1 0x1F NOT PUSH1 0x1F DUP3 ADD AND DUP3 ADD DUP1 PUSH1 0x40 MSTORE POP DUP2 ADD SWAP1 PUSH2 0xDE0 SWAP2 SWAP1 PUSH2 0x1562 JUMP JUMPDEST DUP3 PUSH2 0x1329 JUMP JUMPDEST POP JUMP JUMPDEST PUSH1 0x1 PUSH1 0x1 PUSH1 0xA0 SHL SUB DUP3 AND PUSH1 0x0 SWAP1 DUP2 MSTORE PUSH1 0x4 PUSH1 0x20 MSTORE PUSH1 0x40 DUP2 KECCAK256 PUSH2 0xE0C PUSH1 0x1 DUP5 PUSH2 0x14EB JUMP JUMPDEST DUP2 SLOAD DUP2 LT PUSH2 0xE1C JUMPI PUSH2 0xE1C PUSH2 0x14FE JUMP JUMPDEST SWAP1 PUSH1 0x0 MSTORE PUSH1 0x20 PUSH1 0x0 KECCAK256 SWAP1 PUSH1 0x9 MUL ADD SWAP1 POP PUSH1 0x0 CALLVALUE GT PUSH2 0xE73 JUMPI PUSH1 0x40 MLOAD PUSH3 0x461BCD PUSH1 0xE5 SHL DUP2 MSTORE PUSH1 0x20 PUSH1 0x4 DUP3 ADD MSTORE PUSH1 0x14 PUSH1 0x24 DUP3 ADD MSTORE PUSH20 0x24B739BAB33334B1B4B2B73A1022AA2417A12721 PUSH1 0x61 SHL PUSH1 0x44 DUP3 ADD MSTORE PUSH1 0x64 ADD PUSH2 0x369 JUMP JUMPDEST PUSH1 0x1 PUSH1 0x1 PUSH1 0xA0 SHL SUB DUP4 AND PUSH1 0x0 SWAP1 DUP2 MSTORE PUSH1 0x4 PUSH1 0x20 MSTORE PUSH1 0x40 SWAP1 KECCAK256 SLOAD PUSH2 0xEA8 JUMPI PUSH1 0x40 MLOAD PUSH3 0x461BCD PUSH1 0xE5 SHL DUP2 MSTORE PUSH1 0x4 ADD PUSH2 0x369 SWAP1 PUSH2 0x1514 JUMP JUMPDEST PUSH1 0x0 DUP3 GT DUP1 ISZERO PUSH2 0xED0 JUMPI POP PUSH1 0x1 PUSH1 0x1 PUSH1 0xA0 SHL SUB DUP4 AND PUSH1 0x0 SWAP1 DUP2 MSTORE PUSH1 0x4 PUSH1 0x20 MSTORE PUSH1 0x40 SWAP1 KECCAK256 SLOAD DUP3 GT ISZERO JUMPDEST PUSH2 0xF0D JUMPI PUSH1 0x40 MLOAD PUSH3 0x461BCD PUSH1 0xE5 SHL DUP2 MSTORE PUSH1 0x20 PUSH1 0x4 DUP3 ADD MSTORE PUSH1 0xE PUSH1 0x24 DUP3 ADD MSTORE PUSH14 0x125B9D985B1A5908109BDE081251 PUSH1 0x92 SHL PUSH1 0x44 DUP3 ADD MSTORE PUSH1 0x64 ADD PUSH2 0x369 JUMP JUMPDEST DUP1 PUSH1 0x3 ADD SLOAD TIMESTAMP LT PUSH2 0xF60 JUMPI PUSH1 0x40 MLOAD PUSH3 0x461BCD PUSH1 0xE5 SHL DUP2 MSTORE PUSH1 0x20 PUSH1 0x4 DUP3 ADD MSTORE PUSH1 0x1A PUSH1 0x24 DUP3 ADD MSTORE PUSH32 0x43616E6E6F742046756E64204166746572204D61747572697479000000000000 PUSH1 0x44 DUP3 ADD MSTORE PUSH1 0x64 ADD PUSH2 0x369 JUMP JUMPDEST CALLVALUE DUP2 PUSH1 0x1 ADD PUSH1 0x0 DUP3 DUP3 SLOAD PUSH2 0xF74 SWAP2 SWAP1 PUSH2 0x159F JUMP JUMPDEST SWAP3 POP POP DUP2 SWAP1 SSTORE POP CALLVALUE PUSH1 0x3 PUSH1 0x0 DUP3 DUP3 SLOAD PUSH2 0xF8D SWAP2 SWAP1 PUSH2 0x159F JUMP JUMPDEST SWAP1 SWAP2 SSTORE POP POP PUSH1 0x40 DUP1 MLOAD PUSH1 0x1 PUSH1 0x1 PUSH1 0xA0 SHL SUB DUP6 AND DUP2 MSTORE CALLVALUE PUSH1 0x20 DUP3 ADD MSTORE TIMESTAMP DUP2 DUP4 ADD MSTORE SWAP1 MLOAD CALLER SWAP2 PUSH32 0x4E65B2A4889AFAD0F8034888D199AD98E45C044185A9ADF55AA062AFFA418DD5 SWAP2 SWAP1 DUP2 SWAP1 SUB PUSH1 0x60 ADD SWAP1 LOG2 POP POP POP JUMP JUMPDEST PUSH1 0x0 PUSH2 0x52B PUSH8 0xDE0B6B3A7640000 DUP4 PUSH2 0x160D JUMP JUMPDEST PUSH1 0x2 SLOAD PUSH1 0x40 MLOAD PUSH4 0x31A9108F PUSH1 0xE1 SHL DUP2 MSTORE PUSH1 0x4 DUP2 ADD DUP4 SWAP1 MSTORE PUSH1 0x0 SWAP2 PUSH1 0x1 PUSH1 0x1 PUSH1 0xA0 SHL SUB AND SWAP1 PUSH4 0x6352211E SWAP1 PUSH1 0x24 ADD PUSH1 0x20 PUSH1 0x40 MLOAD DUP1 DUP4 SUB DUP2 DUP7 GAS STATICCALL ISZERO DUP1 ISZERO PUSH2 0x103F JUMPI RETURNDATASIZE PUSH1 0x0 DUP1 RETURNDATACOPY RETURNDATASIZE PUSH1 0x0 REVERT JUMPDEST POP POP POP POP PUSH1 0x40 MLOAD RETURNDATASIZE PUSH1 0x1F NOT PUSH1 0x1F DUP3 ADD AND DUP3 ADD DUP1 PUSH1 0x40 MSTORE POP DUP2 ADD SWAP1 PUSH2 0x52B SWAP2 SWAP1 PUSH2 0x1562 JUMP JUMPDEST PUSH1 0x1 PUSH1 0x1 PUSH1 0xA0 SHL SUB DUP4 AND PUSH1 0x0 SWAP1 DUP2 MSTORE PUSH1 0x4 PUSH1 0x20 MSTORE PUSH1 0x40 DUP2 KECCAK256 PUSH2 0x1086 PUSH1 0x1 DUP6 PUSH2 0x14EB JUMP JUMPDEST DUP2 SLOAD DUP2 LT PUSH2 0x1096 JUMPI PUSH2 0x1096 PUSH2 0x14FE JUMP JUMPDEST SWAP1 PUSH1 0x0 MSTORE PUSH1 0x20 PUSH1 0x0 KECCAK256 SWAP1 PUSH1 0x9 MUL ADD SWAP1 POP PUSH1 0x0 PUSH1 0x3 DUP3 PUSH1 0x1 ADD SLOAD PUSH2 0x10B9 SWAP2 SWAP1 PUSH2 0x160D JUMP JUMPDEST PUSH1 0x1 SLOAD SWAP1 SWAP2 POP PUSH2 0x10D2 SWAP1 PUSH1 0x1 PUSH1 0x1 PUSH1 0xA0 SHL SUB AND DUP3 PUSH2 0x1329 JUMP JUMPDEST PUSH2 0x10DC DUP6 DUP3 PUSH2 0x1329 JUMP JUMPDEST PUSH2 0x10E7 DUP2 PUSH1 0x3 PUSH2 0x154B JUMP JUMPDEST DUP3 PUSH1 0x1 ADD PUSH1 0x0 DUP3 DUP3 SLOAD PUSH2 0x10FA SWAP2 SWAP1 PUSH2 0x14EB JUMP JUMPDEST SWAP1 SWAP2 SSTORE POP POP PUSH1 0x1 DUP3 ADD SLOAD PUSH2 0x110F DUP3 PUSH1 0x3 PUSH2 0x154B JUMP JUMPDEST PUSH2 0x1119 SWAP2 SWAP1 PUSH2 0x159F JUMP JUMPDEST PUSH1 0x3 PUSH1 0x0 DUP3 DUP3 SLOAD PUSH2 0x112A SWAP2 SWAP1 PUSH2 0x14EB JUMP JUMPDEST SWAP1 SWAP2 SSTORE POP POP PUSH1 0x0 PUSH1 0x1 DUP4 DUP2 ADD SWAP2 SWAP1 SWAP2 SSTORE PUSH1 0x8 DUP4 ADD DUP1 SLOAD PUSH1 0xFF NOT AND SWAP1 SWAP2 OR SWAP1 SSTORE PUSH1 0x40 MLOAD DUP2 DUP2 MSTORE DUP4 SWAP1 DUP6 SWAP1 PUSH1 0x1 PUSH1 0x1 PUSH1 0xA0 SHL SUB DUP9 AND SWAP1 PUSH32 0x629619DCB6F24A8EC69629BE52D11DA4D21D1EEC45880EAF28CF7034E347D3F6 SWAP1 PUSH1 0x20 ADD PUSH1 0x40 MLOAD DUP1 SWAP2 SUB SWAP1 LOG4 POP POP POP POP POP JUMP JUMPDEST PUSH1 0x60 PUSH1 0x0 DUP1 DUP5 PUSH8 0xFFFFFFFFFFFFFFFF DUP2 GT ISZERO PUSH2 0x11B0 JUMPI PUSH2 0x11B0 PUSH2 0x162F JUMP JUMPDEST PUSH1 0x40 MLOAD SWAP1 DUP1 DUP3 MSTORE DUP1 PUSH1 0x20 MUL PUSH1 0x20 ADD DUP3 ADD PUSH1 0x40 MSTORE DUP1 ISZERO PUSH2 0x11D9 JUMPI DUP2 PUSH1 0x20 ADD PUSH1 0x20 DUP3 MUL DUP1 CALLDATASIZE DUP4 CALLDATACOPY ADD SWAP1 POP JUMPDEST POP SWAP1 POP PUSH1 0x0 JUMPDEST DUP6 DUP2 LT ISZERO PUSH2 0x1220 JUMPI DUP7 DUP7 DUP3 DUP2 DUP2 LT PUSH2 0x11F9 JUMPI PUSH2 0x11F9 PUSH2 0x14FE JUMP JUMPDEST SWAP1 POP PUSH1 0x40 MUL ADD PUSH1 0x20 ADD CALLDATALOAD DUP4 PUSH2 0x120E SWAP2 SWAP1 PUSH2 0x159F JUMP JUMPDEST SWAP3 POP PUSH2 0x1219 DUP2 PUSH2 0x1586 JUMP JUMPDEST SWAP1 POP PUSH2 0x11DF JUMP JUMPDEST POP PUSH1 0x0 JUMPDEST DUP6 DUP2 LT ISZERO PUSH2 0x128B JUMPI DUP3 DUP8 DUP8 DUP4 DUP2 DUP2 LT PUSH2 0x123F JUMPI PUSH2 0x123F PUSH2 0x14FE JUMP JUMPDEST SWAP1 POP PUSH1 0x40 MUL ADD PUSH1 0x20 ADD CALLDATALOAD DUP7 PUSH2 0x1254 SWAP2 SWAP1 PUSH2 0x154B JUMP JUMPDEST PUSH2 0x125E SWAP2 SWAP1 PUSH2 0x160D JUMP JUMPDEST DUP3 DUP3 DUP2 MLOAD DUP2 LT PUSH2 0x1270 JUMPI PUSH2 0x1270 PUSH2 0x14FE JUMP JUMPDEST PUSH1 0x20 SWAP1 DUP2 MUL SWAP2 SWAP1 SWAP2 ADD ADD MSTORE PUSH2 0x1284 DUP2 PUSH2 0x1586 JUMP JUMPDEST SWAP1 POP PUSH2 0x1224 JUMP JUMPDEST POP SWAP6 SWAP5 POP POP POP POP POP JUMP JUMPDEST PUSH1 0x0 DUP1 SLOAD SWAP1 PUSH2 0x100 EXP SWAP1 DIV PUSH1 0x1 PUSH1 0x1 PUSH1 0xA0 SHL SUB AND PUSH1 0x1 PUSH1 0x1 PUSH1 0xA0 SHL SUB AND PUSH4 0xCE606EE0 PUSH1 0x40 MLOAD DUP2 PUSH4 0xFFFFFFFF AND PUSH1 0xE0 SHL DUP2 MSTORE PUSH1 0x4 ADD PUSH1 0x20 PUSH1 0x40 MLOAD DUP1 DUP4 SUB DUP2 DUP7 GAS STATICCALL ISZERO DUP1 ISZERO PUSH2 0x12E6 JUMPI RETURNDATASIZE PUSH1 0x0 DUP1 RETURNDATACOPY RETURNDATASIZE PUSH1 0x0 REVERT JUMPDEST POP POP POP POP PUSH1 0x40 MLOAD RETURNDATASIZE PUSH1 0x1F NOT PUSH1 0x1F DUP3 ADD AND DUP3 ADD DUP1 PUSH1 0x40 MSTORE POP DUP2 ADD SWAP1 PUSH2 0x130A SWAP2 SWAP1 PUSH2 0x1562 JUMP JUMPDEST PUSH1 0x1 PUSH1 0x1 PUSH1 0xA0 SHL SUB AND CALLER PUSH1 0x1 PUSH1 0x1 PUSH1 0xA0 SHL SUB AND EQ PUSH2 0x1327 JUMPI PUSH1 0x0 DUP1 REVERT JUMPDEST JUMP JUMPDEST PUSH1 0x0 DUP3 PUSH1 0x1 PUSH1 0x1 PUSH1 0xA0 SHL SUB AND DUP3 PUSH1 0x40 MLOAD PUSH1 0x0 PUSH1 0x40 MLOAD DUP1 DUP4 SUB DUP2 DUP6 DUP8 GAS CALL SWAP3 POP POP POP RETURNDATASIZE DUP1 PUSH1 0x0 DUP2 EQ PUSH2 0x1376 JUMPI PUSH1 0x40 MLOAD SWAP2 POP PUSH1 0x1F NOT PUSH1 0x3F RETURNDATASIZE ADD AND DUP3 ADD PUSH1 0x40 MSTORE RETURNDATASIZE DUP3 MSTORE RETURNDATASIZE PUSH1 0x0 PUSH1 0x20 DUP5 ADD RETURNDATACOPY PUSH2 0x137B JUMP JUMPDEST PUSH1 0x60 SWAP2 POP JUMPDEST POP POP SWAP1 POP DUP1 PUSH2 0x13C2 JUMPI PUSH1 0x40 MLOAD PUSH3 0x461BCD PUSH1 0xE5 SHL DUP2 MSTORE PUSH1 0x20 PUSH1 0x4 DUP3 ADD MSTORE PUSH1 0x13 PUSH1 0x24 DUP3 ADD MSTORE PUSH19 0x151C985B9CD9995C881999594819985A5B1959 PUSH1 0x6A SHL PUSH1 0x44 DUP3 ADD MSTORE PUSH1 0x64 ADD PUSH2 0x369 JUMP JUMPDEST POP POP POP JUMP JUMPDEST PUSH1 0x1 PUSH1 0x1 PUSH1 0xA0 SHL SUB DUP2 AND DUP2 EQ PUSH2 0xDE6 JUMPI PUSH1 0x0 DUP1 REVERT JUMPDEST PUSH1 0x0 DUP1 PUSH1 0x0 PUSH1 0x60 DUP5 DUP7 SUB SLT ISZERO PUSH2 0x13F1 JUMPI PUSH1 0x0 DUP1 REVERT JUMPDEST DUP4 CALLDATALOAD PUSH2 0x13FC DUP2 PUSH2 0x13C7 JUMP JUMPDEST SWAP6 PUSH1 0x20 DUP6 ADD CALLDATALOAD SWAP6 POP PUSH1 0x40 SWAP1 SWAP5 ADD CALLDATALOAD SWAP4 SWAP3 POP POP POP JUMP JUMPDEST PUSH1 0x0 DUP1 PUSH1 0x40 DUP4 DUP6 SUB SLT ISZERO PUSH2 0x1424 JUMPI PUSH1 0x0 DUP1 REVERT JUMPDEST DUP3 CALLDATALOAD PUSH2 0x142F DUP2 PUSH2 0x13C7 JUMP JUMPDEST SWAP5 PUSH1 0x20 SWAP4 SWAP1 SWAP4 ADD CALLDATALOAD SWAP4 POP POP POP JUMP JUMPDEST PUSH1 0x0 PUSH1 0x20 DUP3 DUP5 SUB SLT ISZERO PUSH2 0x144F JUMPI PUSH1 0x0 DUP1 REVERT JUMPDEST POP CALLDATALOAD SWAP2 SWAP1 POP JUMP JUMPDEST PUSH1 0x0 DUP1 PUSH1 0x0 PUSH1 0x40 DUP5 DUP7 SUB SLT ISZERO PUSH2 0x146B JUMPI PUSH1 0x0 DUP1 REVERT JUMPDEST DUP4 CALLDATALOAD SWAP3 POP PUSH1 0x20 DUP5 ADD CALLDATALOAD PUSH8 0xFFFFFFFFFFFFFFFF DUP1 DUP3 GT ISZERO PUSH2 0x148A JUMPI PUSH1 0x0 DUP1 REVERT JUMPDEST DUP2 DUP7 ADD SWAP2 POP DUP7 PUSH1 0x1F DUP4 ADD SLT PUSH2 0x149E JUMPI PUSH1 0x0 DUP1 REVERT JUMPDEST DUP2 CALLDATALOAD DUP2 DUP2 GT ISZERO PUSH2 0x14AD JUMPI PUSH1 0x0 DUP1 REVERT JUMPDEST DUP8 PUSH1 0x20 DUP3 PUSH1 0x6 SHL DUP6 ADD ADD GT ISZERO PUSH2 0x14C2 JUMPI PUSH1 0x0 DUP1 REVERT JUMPDEST PUSH1 0x20 DUP4 ADD SWAP5 POP DUP1 SWAP4 POP POP POP POP SWAP3 POP SWAP3 POP SWAP3 JUMP JUMPDEST PUSH4 0x4E487B71 PUSH1 0xE0 SHL PUSH1 0x0 MSTORE PUSH1 0x11 PUSH1 0x4 MSTORE PUSH1 0x24 PUSH1 0x0 REVERT JUMPDEST DUP2 DUP2 SUB DUP2 DUP2 GT ISZERO PUSH2 0x52B JUMPI PUSH2 0x52B PUSH2 0x14D5 JUMP JUMPDEST PUSH4 0x4E487B71 PUSH1 0xE0 SHL PUSH1 0x0 MSTORE PUSH1 0x32 PUSH1 0x4 MSTORE PUSH1 0x24 PUSH1 0x0 REVERT JUMPDEST PUSH1 0x20 DUP1 DUP3 MSTORE PUSH1 0x17 SWAP1 DUP3 ADD MSTORE PUSH32 0x496E76616C69642043726561746F722041646472657373000000000000000000 PUSH1 0x40 DUP3 ADD MSTORE PUSH1 0x60 ADD SWAP1 JUMP JUMPDEST DUP1 DUP3 MUL DUP2 ISZERO DUP3 DUP3 DIV DUP5 EQ OR PUSH2 0x52B JUMPI PUSH2 0x52B PUSH2 0x14D5 JUMP JUMPDEST PUSH1 0x0 PUSH1 0x20 DUP3 DUP5 SUB SLT ISZERO PUSH2 0x1574 JUMPI PUSH1 0x0 DUP1 REVERT JUMPDEST DUP2 MLOAD PUSH2 0x157F DUP2 PUSH2 0x13C7 JUMP JUMPDEST SWAP4 SWAP3 POP POP POP JUMP JUMPDEST PUSH1 0x0 PUSH1 0x1 DUP3 ADD PUSH2 0x1598 JUMPI PUSH2 0x1598 PUSH2 0x14D5 JUMP JUMPDEST POP PUSH1 0x1 ADD SWAP1 JUMP JUMPDEST DUP1 DUP3 ADD DUP1 DUP3 GT ISZERO PUSH2 0x52B JUMPI PUSH2 0x52B PUSH2 0x14D5 JUMP JUMPDEST DUP6 DUP2 MSTORE PUSH1 0x80 PUSH1 0x20 DUP1 DUP4 ADD DUP3 SWAP1 MSTORE SWAP1 DUP3 ADD DUP6 SWAP1 MSTORE PUSH1 0x0 SWAP1 DUP7 SWAP1 PUSH1 0xA0 DUP5 ADD DUP4 JUMPDEST DUP9 DUP2 LT ISZERO PUSH2 0x15F6 JUMPI DUP4 CALLDATALOAD DUP3 MSTORE DUP3 DUP5 ADD CALLDATALOAD DUP4 DUP4 ADD MSTORE PUSH1 0x40 SWAP4 DUP5 ADD SWAP4 SWAP1 SWAP2 ADD SWAP1 PUSH1 0x1 ADD PUSH2 0x15D0 JUMP JUMPDEST POP PUSH1 0x40 DUP6 ADD SWAP7 SWAP1 SWAP7 MSTORE POP POP POP PUSH1 0x60 ADD MSTORE SWAP4 SWAP3 POP POP POP JUMP JUMPDEST PUSH1 0x0 DUP3 PUSH2 0x162A JUMPI PUSH4 0x4E487B71 PUSH1 0xE0 SHL PUSH1 0x0 MSTORE PUSH1 0x12 PUSH1 0x4 MSTORE PUSH1 0x24 PUSH1 0x0 REVERT JUMPDEST POP DIV SWAP1 JUMP JUMPDEST PUSH4 0x4E487B71 PUSH1 0xE0 SHL PUSH1 0x0 MSTORE PUSH1 0x41 PUSH1 0x4 MSTORE PUSH1 0x24 PUSH1 0x0 REVERT INVALID LOG2 PUSH5 0x6970667358 0x22 SLT KECCAK256 DUP5 SAR 0xEA 0xC0 0xDB 0xB1 PUSH15 0x543D3291BFF90FC081ABC0A68F87DE 0xE STATICCALL DUP3 0xBC DUP11 DUP1 0xB3 0xD5 0xB6 0xA5 PUSH5 0x736F6C6343 STOP ADDMOD SGT STOP CALLER "
		},
		"gasEstimates": {
			"creation": {
				"codeDepositCost": "1151000",
				"executionCost": "infinite",
				"totalCost": "infinite"
			},
			"external": {
				"EXCHANGE_RATE()": "208",
				"GlobalsInstance()": "2426",
				"MAX_DEPOSIT()": "250",
				"NftAddress()": "2360",
				"claimTreasureBox(address,uint256,uint256)": "infinite",
				"createTreasureBox(uint256,(uint256,uint256)[])": "infinite",
				"ethToKeeper(uint256)": "428",
				"flushContractBalanceToOwner()": "infinite",
				"fundEthToTreasureBox(address,uint256)": "infinite",
				"fundTokensToTreasureBox(address,uint256,uint256)": "11359",
				"myntToEth(uint256)": "infinite",
				"myntistPlatformAddress()": "2404",
				"nonFlushableAmount()": "2307",
				"treasureBoxes(address,uint256)": "17673"
			},
			"internal": {
				"_onlyOwner()": "infinite",
				"checkOwnership(uint256)": "infinite",
				"distributeRaisedCoins(address,uint256,uint256)": "infinite",
				"distributeRewardToNFTOwner(struct KeeperTreasureBox.NftInfo calldata[] calldata,uint256)": "infinite",
				"transferFunds(address,uint256)": "infinite"
			}
		},
		"methodIdentifiers": {
			"EXCHANGE_RATE()": "14a8bd0d",
			"GlobalsInstance()": "66a02770",
			"MAX_DEPOSIT()": "dd5967c3",
			"NftAddress()": "27fac763",
			"claimTreasureBox(address,uint256,uint256)": "417ae5d6",
			"createTreasureBox(uint256,(uint256,uint256)[])": "7fa99bdf",
			"ethToKeeper(uint256)": "f8665205",
			"flushContractBalanceToOwner()": "bb02f7c6",
			"fundEthToTreasureBox(address,uint256)": "c06c15d3",
			"fundTokensToTreasureBox(address,uint256,uint256)": "21cb5acc",
			"myntToEth(uint256)": "30cfcbd1",
			"myntistPlatformAddress()": "8a5c300a",
			"nonFlushableAmount()": "6dc58490",
			"treasureBoxes(address,uint256)": "26ae233f"
		}
	},
	"abi": [
		{
			"inputs": [
				{
					"internalType": "address",
					"name": "_myntContractAddress",
					"type": "address"
				},
				{
					"internalType": "address",
					"name": "_MYTNFTAddress",
					"type": "address"
				}
			],
			"stateMutability": "nonpayable",
			"type": "constructor"
		},
		{
			"anonymous": false,
			"inputs": [
				{
					"indexed": true,
					"internalType": "address",
					"name": "treasureBoxOwner",
					"type": "address"
				},
				{
					"indexed": true,
					"internalType": "uint256",
					"name": "boxId",
					"type": "uint256"
				},
				{
					"indexed": true,
					"internalType": "uint256",
					"name": "_nftId",
					"type": "uint256"
				},
				{
					"indexed": false,
					"internalType": "uint256",
					"name": "distributionAmount",
					"type": "uint256"
				}
			],
			"name": "CoinsDistributed",
			"type": "event"
		},
		{
			"anonymous": false,
			"inputs": [
				{
					"indexed": true,
					"internalType": "address",
					"name": "funder",
					"type": "address"
				},
				{
					"indexed": false,
					"internalType": "uint256",
					"name": "amount",
					"type": "uint256"
				},
				{
					"indexed": false,
					"internalType": "uint256",
					"name": "fundedAt",
					"type": "uint256"
				}
			],
			"name": "FundsReceived",
			"type": "event"
		},
		{
			"anonymous": false,
			"inputs": [
				{
					"indexed": true,
					"internalType": "address",
					"name": "claimer",
					"type": "address"
				},
				{
					"indexed": true,
					"internalType": "uint256",
					"name": "boxId",
					"type": "uint256"
				},
				{
					"indexed": true,
					"internalType": "uint256",
					"name": "nftId",
					"type": "uint256"
				},
				{
					"indexed": false,
					"internalType": "uint256",
					"name": "rewardAmount",
					"type": "uint256"
				}
			],
			"name": "RewardClaimed",
			"type": "event"
		},
		{
			"anonymous": false,
			"inputs": [
				{
					"indexed": true,
					"internalType": "address",
					"name": "creator",
					"type": "address"
				},
				{
					"indexed": false,
					"internalType": "uint256",
					"name": "claimDate",
					"type": "uint256"
				},
				{
					"components": [
						{
							"internalType": "uint256",
							"name": "nftId",
							"type": "uint256"
						},
						{
							"internalType": "uint256",
							"name": "nftValue",
							"type": "uint256"
						}
					],
					"indexed": false,
					"internalType": "struct KeeperTreasureBox.NftInfo[]",
					"name": "nftInfo",
					"type": "tuple[]"
				},
				{
					"indexed": false,
					"internalType": "uint256",
					"name": "depositAmount",
					"type": "uint256"
				},
				{
					"indexed": false,
					"internalType": "uint256",
					"name": "totalReward",
					"type": "uint256"
				}
			],
			"name": "TreasureBoxCreated",
			"type": "event"
		},
		{
			"anonymous": false,
			"inputs": [
				{
					"indexed": true,
					"internalType": "address",
					"name": "funder",
					"type": "address"
				},
				{
					"indexed": false,
					"internalType": "address",
					"name": "creator",
					"type": "address"
				},
				{
					"indexed": false,
					"internalType": "uint256",
					"name": "amount",
					"type": "uint256"
				},
				{
					"indexed": false,
					"internalType": "uint256",
					"name": "fundedAt",
					"type": "uint256"
				}
			],
			"name": "TreasureBoxFunded",
			"type": "event"
		},
		{
			"inputs": [],
			"name": "EXCHANGE_RATE",
			"outputs": [
				{
					"internalType": "uint256",
					"name": "",
					"type": "uint256"
				}
			],
			"stateMutability": "view",
			"type": "function"
		},
		{
			"inputs": [],
			"name": "GlobalsInstance",
			"outputs": [
				{
					"internalType": "contract IGlobals",
					"name": "",
					"type": "address"
				}
			],
			"stateMutability": "view",
			"type": "function"
		},
		{
			"inputs": [],
			"name": "MAX_DEPOSIT",
			"outputs": [
				{
					"internalType": "uint256",
					"name": "",
					"type": "uint256"
				}
			],
			"stateMutability": "view",
			"type": "function"
		},
		{
			"inputs": [],
			"name": "NftAddress",
			"outputs": [
				{
					"internalType": "contract IERC721",
					"name": "",
					"type": "address"
				}
			],
			"stateMutability": "view",
			"type": "function"
		},
		{
			"inputs": [
				{
					"internalType": "address",
					"name": "_creator",
					"type": "address"
				},
				{
					"internalType": "uint256",
					"name": "_boxId",
					"type": "uint256"
				},
				{
					"internalType": "uint256",
					"name": "_nftId",
					"type": "uint256"
				}
			],
			"name": "claimTreasureBox",
			"outputs": [],
			"stateMutability": "nonpayable",
			"type": "function"
		},
		{
			"inputs": [
				{
					"internalType": "uint256",
					"name": "_claimDate",
					"type": "uint256"
				},
				{
					"components": [
						{
							"internalType": "uint256",
							"name": "nftId",
							"type": "uint256"
						},
						{
							"internalType": "uint256",
							"name": "nftValue",
							"type": "uint256"
						}
					],
					"internalType": "struct KeeperTreasureBox.NftInfo[]",
					"name": "_nftInfos",
					"type": "tuple[]"
				}
			],
			"name": "createTreasureBox",
			"outputs": [],
			"stateMutability": "payable",
			"type": "function"
		},
		{
			"inputs": [
				{
					"internalType": "uint256",
					"name": "_depositAmount",
					"type": "uint256"
				}
			],
			"name": "ethToKeeper",
			"outputs": [
				{
					"internalType": "uint256",
					"name": "",
					"type": "uint256"
				}
			],
			"stateMutability": "pure",
			"type": "function"
		},
		{
			"inputs": [],
			"name": "flushContractBalanceToOwner",
			"outputs": [],
			"stateMutability": "nonpayable",
			"type": "function"
		},
		{
			"inputs": [
				{
					"internalType": "address",
					"name": "_creator",
					"type": "address"
				},
				{
					"internalType": "uint256",
					"name": "_boxId",
					"type": "uint256"
				}
			],
			"name": "fundEthToTreasureBox",
			"outputs": [],
			"stateMutability": "payable",
			"type": "function"
		},
		{
			"inputs": [
				{
					"internalType": "address",
					"name": "_creator",
					"type": "address"
				},
				{
					"internalType": "uint256",
					"name": "_boxId",
					"type": "uint256"
				},
				{
					"internalType": "uint256",
					"name": "_myntTokens",
					"type": "uint256"
				}
			],
			"name": "fundTokensToTreasureBox",
			"outputs": [],
			"stateMutability": "nonpayable",
			"type": "function"
		},
		{
			"inputs": [
				{
					"internalType": "uint256",
					"name": "_amountInTokens",
					"type": "uint256"
				}
			],
			"name": "myntToEth",
			"outputs": [
				{
					"internalType": "uint256",
					"name": "",
					"type": "uint256"
				}
			],
			"stateMutability": "pure",
			"type": "function"
		},
		{
			"inputs": [],
			"name": "myntistPlatformAddress",
			"outputs": [
				{
					"internalType": "address",
					"name": "",
					"type": "address"
				}
			],
			"stateMutability": "view",
			"type": "function"
		},
		{
			"inputs": [],
			"name": "nonFlushableAmount",
			"outputs": [
				{
					"internalType": "uint256",
					"name": "",
					"type": "uint256"
				}
			],
			"stateMutability": "view",
			"type": "function"
		},
		{
			"inputs": [
				{
					"internalType": "address",
					"name": "",
					"type": "address"
				},
				{
					"internalType": "uint256",
					"name": "",
					"type": "uint256"
				}
			],
			"name": "treasureBoxes",
			"outputs": [
				{
					"internalType": "address",
					"name": "creator",
					"type": "address"
				},
				{
					"internalType": "uint256",
					"name": "depositAmount",
					"type": "uint256"
				},
				{
					"internalType": "uint256",
					"name": "totalKeeperReward",
					"type": "uint256"
				},
				{
					"internalType": "uint256",
					"name": "claimDate",
					"type": "uint256"
				},
				{
					"internalType": "uint256",
					"name": "createdAt",
					"type": "uint256"
				},
				{
					"internalType": "uint256",
					"name": "remainingNfts",
					"type": "uint256"
				},
				{
					"internalType": "bool",
					"name": "ethDistribution",
					"type": "bool"
				}
			],
			"stateMutability": "view",
			"type": "function"
		}
	]
}