{
	"data": {
		"bytecode": {
			"linkReferences": {},
			"object": "60a06040523480156200001157600080fd5b5060405180604001604052806007815260200166135e5b9d1a5cdd60ca1b815250604051806040016040528060048152602001631356539560e21b815250816003908162000060919062000121565b5060046200006f828262000121565b50503360805250620001ed565b634e487b7160e01b600052604160045260246000fd5b600181811c90821680620000a757607f821691505b602082108103620000c857634e487b7160e01b600052602260045260246000fd5b50919050565b601f8211156200011c57600081815260208120601f850160051c81016020861015620000f75750805b601f850160051c820191505b81811015620001185782815560010162000103565b5050505b505050565b81516001600160401b038111156200013d576200013d6200007c565b62000155816200014e845462000092565b84620000ce565b602080601f8311600181146200018d5760008415620001745750858301515b600019600386901b1c1916600185901b17855562000118565b600085815260208120601f198616915b82811015620001be578886015182559484019460019091019084016200019d565b5085821015620001dd5787850151600019600388901b60f8161c191681555b5050505050600190811b01905550565b60805161364a62000210600039600081816106860152611109015261364a6000f3fe608060405234801561001057600080fd5b50600436106102115760003560e01c80635c9302c91161012557806390de6871116100ad578063b626d6fc1161007c578063b626d6fc146105a6578063c3124525146105b9578063ce606ee014610681578063dd62ed3e146106a8578063f04b5fa0146106bb57600080fd5b806390de68711461050257806395d89b4114610578578063a457c2d714610580578063a9059cbb1461059357600080fd5b806370a08231116100f457806370a08231146104705780637c4266201461049957806387a0f31c146104bc5780638cba2842146104dc5780638f1c65c0146104ef57600080fd5b80635c9302c91461042257806365cf71b21461042a57806365d2a5571461043d5780636a210a0e1461045057600080fd5b8063313ce567116101a857806334dc8bb51161017757806334dc8bb51461038857806339509351146103995780633a70a5ca146103ac57806344203faf146103b457806352a438b81461040f57600080fd5b8063313ce56714610335578063319e74f61461034457806333060d901461034c578063343009a21461037557600080fd5b806313c5c2c7116101e457806313c5c2c71461028257806318160ddd146102b557806323b872dd146102bd5780632607443b146102d057600080fd5b806306fdde0314610216578063095ea7b3146102345780630d4d1513146102575780631285b0471461026c575b600080fd5b61021e6106d0565b60405161022b9190613029565b60405180910390f35b610247610242366004613093565b610762565b604051901515815260200161022b565b61026a6102653660046130bd565b61077c565b005b6102746107ed565b60405190815260200161022b565b61029d73dec9f2793e3c17cd26eefb21c4762fa5128e039981565b6040516001600160a01b03909116815260200161022b565b600254610274565b6102476102cb3660046130f9565b610818565b6102e36102de366004613093565b61083c565b6040805164ffffffffff9890981688526001600160481b039687166020890152949095169386019390935261ffff9182166060860152811660808501521660a0830152151560c082015260e00161022b565b6040516008815260200161022b565b6102746108b8565b61027461035a366004613135565b6001600160a01b03166000908152600a602052604090205490565b61026a61038336600461316c565b6108c4565b6005546001600160a01b031661029d565b6102476103a7366004613093565b610b9c565b610274610bbe565b6103f16103c2366004613198565b600c60209081526000928352604080842090915290825290205464ffffffffff80821691600160281b90041682565b6040805164ffffffffff93841681529290911660208301520161022b565b61026a61041d3660046131bb565b610be5565b610274610c8f565b61026a6104383660046131dd565b610c99565b61026a61044b3660046132f6565b610fa5565b61046361045e3660046131bb565b610fb3565b60405161022b9190613324565b61027461047e366004613135565b6001600160a01b031660009081526020819052604090205490565b6102476104a7366004613368565b60086020526000908152604090205460ff1681565b6102746104ca366004613397565b600b6020526000908152604090205481565b61026a6104ea366004613135565b6110fe565b61026a6104fd366004613397565b611188565b610549610510366004613397565b6009602052600090815260409020546001600160481b0380821691600160481b810490911690600160901b900466ffffffffffffff1683565b604080516001600160481b03948516815293909216602084015266ffffffffffffff169082015260600161022b565b61021e611280565b61024761058e366004613093565b61128f565b6102476105a1366004613093565b61130a565b60055461029d906001600160a01b031681565b60065460075461061f916001600160481b0380821692600160481b830482169264ffffffffff600160901b8204811693600160b81b90920482169261ffff8116926201000082041691600160581b820416906001600160801b03600160801b9091041688565b604080516001600160481b03998a168152978916602089015264ffffffffff96871690880152938716606087015261ffff90921660808601529490941660a0840152921660c08201526001600160801b0390911660e08201526101000161022b565b61029d7f000000000000000000000000000000000000000000000000000000000000000081565b6102746106b63660046133b0565b611318565b6106c3611343565b60405161022b91906133da565b6060600380546106df9061340c565b80601f016020809104026020016040519081016040528092919081815260200182805461070b9061340c565b80156107585780601f1061072d57610100808354040283529160200191610758565b820191906000526020600020905b81548152906001019060200180831161073b57829003601f168201915b5050505050905090565b600033610770818585611445565b60019150505b92915050565b6005546001600160a01b038281169116146107de5760405162461bcd60e51b815260206004820152601960248201527f43616c6c6572206973206e6f7420544220636f6e74726163740000000000000060448201526064015b60405180910390fd5b6107e88383611569565b505050565b6127106305f5e1006108016008600a613540565b61080b919061354c565b610815919061356e565b81565b600033610826858285611628565b61083185858561169c565b506001949350505050565b600a602052816000526040600020818154811061085857600080fd5b60009182526020909120015464ffffffffff811692506001600160481b03600160281b820481169250600160701b8204169061ffff600160b81b8204811691600160c81b8104821691600160d81b8204169060ff600160e81b9091041687565b6108156032600761356e565b6108cc612f63565b6108d4612f63565b6108de8282611840565b336000908152600a6020526040812080549091036109375760405162461bcd60e51b8152602060048201526016602482015275135653950e88115b5c1d1e481cdd185ad9481b1a5cdd60521b60448201526064016107d5565b805485106109825760405162461bcd60e51b8152602060048201526018602482015277135653950e881cdd185ad9525b99195e081a5b9d985b1a5960421b60448201526064016107d5565b61098a612fc4565b6109b082878154811061099f5761099f613585565b9060005260206000200186836118ee565b6109b9846119bc565b6000808260a001516000141590506000806000905060008086606001518a610140015110610aa25784156109f35786608001519550610a88565b6109fd8a886119d0565b86606001518a6101400151610a12919061359b565b95508660800151861115610a2c5786608001519550610a88565b61015e861015610a88578660c0015115610a885760405162461bcd60e51b815260206004820152601d60248201527f4d594e543a204175746f2d7374616b65207374696c6c206c6f636b656400000060448201526064016107d5565b610a938a88886119f8565b92965090945092509050610b15565b8660c0015115610af45760405162461bcd60e51b815260206004820152601d60248201527f4d594e543a204175746f2d7374616b65207374696c6c206c6f636b656400000060448201526064016107d5565b86604001518a602001818151610b0a919061359b565b905250602087015193505b610b2c8b8860200151896040015186868b8b611abc565b8015801590610b39575084155b15610b4857610b488a82611b81565b8315610b6357610b583385611569565b610b638a8886611bda565b60208701518a518b90610b7790839061359b565b905250610b84888d611c74565b610b8e8a8a611e09565b505050505050505050505050565b600033610770818585610baf8383611318565b610bb991906135ae565b611445565b6006546000906001600160481b0316610bd660025490565b610be091906135ae565b905090565b610bed612f63565b610bf5612f63565b610bff8282611840565b6001831015610c5f5760405162461bcd60e51b815260206004820152602660248201527f4d594e543a206e65775374616b656444617973206c6f776572207468616e206d604482015265696e696d756d60d01b60648201526084016107d5565b610c68826119bc565b610c758285856000611fe9565b610c7f33856122be565b610c898282611e09565b50505050565b6000610be06123f0565b610ca1612f63565b610ca9612f63565b610cb38282611840565b6001600160a01b0385166000908152600a60205260408120549003610d135760405162461bcd60e51b8152602060048201526016602482015275135653950e88115b5c1d1e481cdd185ad9481b1a5cdd60521b60448201526064016107d5565b6001600160a01b0385166000908152600a60205260409020548410610d755760405162461bcd60e51b8152602060048201526018602482015277135653950e881cdd185ad9525b99195e081a5b9d985b1a5960421b60448201526064016107d5565b6001600160a01b0385166000908152600a60205260408120805486908110610d9f57610d9f613585565b906000526020600020019050610db3612fc4565b610dbe8286836118ee565b80608001518160600151610dd291906135ae565b8461014001511015610e265760405162461bcd60e51b815260206004820152601c60248201527f4d594e543a205374616b65206e6f742066756c6c79207365727665640000000060448201526064016107d5565b60a081015115610e785760405162461bcd60e51b815260206004820152601c60248201527f4d594e543a205374616b6520616c726561647920756e6c6f636b65640000000060448201526064016107d5565b610e81846119bc565b610e8b84826119d0565b6000806000610e9f878586608001516119f8565b93509350935050610ebc8a8986602001518760400151878761240c565b8015610ecc57610ecc8782611b81565b83518554602086015160408701516060880151608089015160a08a015160c08b015164ffffffffff9097166001600160701b031990961695909517600160281b6001600160481b039586160217600160701b600160c81b031916600160701b949093169390930261ffff60b81b191691909117600160b81b61ffff928316021763ffffffff60c81b1916600160c81b9282169290920261ffff60d81b191691909117600160d81b91909216021760ff60e81b1916600160e81b91151591909102178555610f998787611e09565b50505050505050505050565b610faf8282611840565b5050565b60608183108015610fca575060075461ffff168211155b61100c5760405162461bcd60e51b8152602060048201526013602482015272135653950e881c985b99d9481a5b9d985b1a59606a1b60448201526064016107d5565b611016838361359b565b67ffffffffffffffff81111561102e5761102e613210565b604051908082528060200260200182016040528015611057578160200160208202803683370190505b509050826000805b61106b6048600261356e565b600084815260096020526040902054600160901b810466ffffffffffffff1690911b600160481b820460481b71ffffffffffffffffff00000000000000000016176001600160481b039091161790508084836110c6816135c1565b9450815181106110d8576110d8613585565b6020908102919091010152846110ed846135c1565b9350831061105f5750505092915050565b336001600160a01b037f000000000000000000000000000000000000000000000000000000000000000016146111665760405162461bcd60e51b815260206004820152600d60248201526c2737ba103a34329027bbb732b960991b60448201526064016107d5565b600580546001600160a01b0319166001600160a01b0392909216919091179055565b611190612f63565b611198612f63565b6111a28282611840565b6001826101400151116111e95760405162461bcd60e51b815260206004820152600f60248201526e4d594e543a20546f6f206561726c7960881b60448201526064016107d5565b8215611265578161014001518311156112545760405162461bcd60e51b815260206004820152602760248201527f4d594e543a206265666f72654461792063616e6e6f7420626520696e207468656044820152662066757475726560c81b60648201526084016107d5565b611260828460006124a9565b611276565b6112768283610140015160006124a9565b6107e88282611e09565b6060600480546106df9061340c565b6000338161129d8286611318565b9050838110156112fd5760405162461bcd60e51b815260206004820152602560248201527f45524332303a2064656372656173656420616c6c6f77616e63652062656c6f77604482015264207a65726f60d81b60648201526084016107d5565b6108318286868403611445565b60003361077081858561169c565b6001600160a01b03918216600090815260016020908152604080832093909416825291909152205490565b61134b61300a565b6007546000908190819061136e90600160801b90046001600160801b031661258e565b604080516101a0810182526006546001600160481b038082168352600160481b82048116602084015264ffffffffff600160901b8304811694840194909452600160b81b9091048116606083015260075461ffff8116608084015262010000810490911660a0830152600160581b900490911660c082015260e0810182905261010081018390526101208101849052426101408201529295509093509150610160810161141a60025490565b8152602001600b600061142b6123f0565b815260200190815260200160002054815250935050505090565b6001600160a01b0383166114a75760405162461bcd60e51b8152602060048201526024808201527f45524332303a20617070726f76652066726f6d20746865207a65726f206164646044820152637265737360e01b60648201526084016107d5565b6001600160a01b0382166115085760405162461bcd60e51b815260206004820152602260248201527f45524332303a20617070726f766520746f20746865207a65726f206164647265604482015261737360f01b60648201526084016107d5565b6001600160a01b0383811660008181526001602090815260408083209487168084529482529182902085905590518481527f8c5be1e5ebec7d5bd14f71427d1e84f3dd0314c0f7b2291e5b200ac8c7c3b925910160405180910390a3505050565b6001600160a01b0382166115bf5760405162461bcd60e51b815260206004820152601f60248201527f45524332303a206d696e7420746f20746865207a65726f20616464726573730060448201526064016107d5565b80600260008282546115d191906135ae565b90915550506001600160a01b038216600081815260208181526040808320805486019055518481527fddf252ad1be2c89b69c2b068fc378daa952ba7f163c4a11628f55a4df523b3ef910160405180910390a35050565b60006116348484611318565b90506000198114610c89578181101561168f5760405162461bcd60e51b815260206004820152601d60248201527f45524332303a20696e73756666696369656e7420616c6c6f77616e636500000060448201526064016107d5565b610c898484848403611445565b6001600160a01b0383166117005760405162461bcd60e51b815260206004820152602560248201527f45524332303a207472616e736665722066726f6d20746865207a65726f206164604482015264647265737360d81b60648201526084016107d5565b6001600160a01b0382166117625760405162461bcd60e51b815260206004820152602360248201527f45524332303a207472616e7366657220746f20746865207a65726f206164647260448201526265737360e81b60648201526084016107d5565b6001600160a01b038316600090815260208190526040902054818110156117da5760405162461bcd60e51b815260206004820152602660248201527f45524332303a207472616e7366657220616d6f756e7420657863656564732062604482015265616c616e636560d01b60648201526084016107d5565b6001600160a01b03848116600081815260208181526040808320878703905593871680835291849020805487019055925185815290927fddf252ad1be2c89b69c2b068fc378daa952ba7f163c4a11628f55a4df523b3ef910160405180910390a3610c89565b6006546001600160481b038082168452600160481b82048116602085015264ffffffffff600160901b830481166040860152600160b81b9092048116606085015260075461ffff8116608086015262010000810490911660a0850152600160581b810490911660c08401526118c5906001600160801b03600160801b9091041661258e565b60e08501526101008401526101208301526118de6123f0565b610140830152610faf82826125fb565b825464ffffffffff8381169116146119485760405162461bcd60e51b815260206004820152601f60248201527f4d594e543a207374616b654964506172616d206e6f7420696e207374616b650060448201526064016107d5565b915464ffffffffff811683526001600160481b03600160281b820481166020850152600160701b820416604084015261ffff600160b81b820481166060850152600160c81b820481166080850152600160d81b82041660a084015260ff600160e81b90910416151560c09092019190915250565b6119cd8182610140015160016124a9565b50565b80604001518260a0018181516119e6919061359b565b9052506101409091015160a090910152565b6000806000808560800151851015611a3f57611a238787606001518860800151888a60400151612663565b60208801519194509250611a389084906135ae565b9350611a8d565b60408601516060870151611a5e918991611a5989826135ae565b612751565b9250828660200151611a7091906135ae565b9350611a8a866060015187608001518860a00151876128c9565b91505b8115611ab35783821115611aa45750600092611ab3565b5080611ab0818561359b565b93505b93509350935093565b8664ffffffffff16336001600160a01b03167f72d9c5a7ab13846e08d9c838f9e866a1bb4a66a2fd3ba3c9e7da3cf9e394dfd760b8876001600160481b0316901b6070896001600160481b0316901b60288b6001600160481b0316901b4264ffffffffff1617171784611b30576000611b36565b600160581b5b6bffffffffffffffffffffffff1660488761ffff16901b886001600160481b03161717604051611b70929190918252602082015260400190565b60405180910390a350505050505050565b6000611b8e60028361354c565b90508015611bb457611bb4739a6a414d6f3497c05e3b1de90520765fa1e07c0382611569565b611bbe818361359b565b90508083606001818151611bd291906135ae565b905250505050565b81602001518111156107e8576000611bf6828460800151612929565b905060008360400151620186a08385611c0f91906135ae565b611c19919061356e565b611c23919061354c565b9050611c346001600160281b61359b565b811115611c4d57611c4a6001600160281b61359b565b90505b8460400151811115611c6d57604085018190528351611c6d908290612aa0565b5050505050565b8154600090611c859060019061359b565b9050808214611dd257828181548110611ca057611ca0613585565b90600052602060002001838381548110611cbc57611cbc613585565b6000918252602090912082549101805464ffffffffff19811664ffffffffff909316928317825583546001600160481b03600160281b9182900481169091026001600160701b0319909216909317178082558354600160701b9081900490931690920268ffffffffffffffffff60701b19831681178255835461ffff600160b81b91829004811690910261ffff60b81b19909216600160701b600160c81b031990941693909317178082558354600160c81b9081900484160261ffff60c81b198216811783558454600160d81b9081900490941690930261ffff60d81b1990931663ffffffff60c81b199091161791909117808255915460ff600160e81b918290041615150260ff60e81b199092169190911790555b82805480611de257611de26135da565b600082815260209020810160001990810180546001600160f01b0319169055019055505050565b80518251141580611e2257508060200151826020015114155b80611e3557508060400151826040015114155b80611e4857508060600151826060015114155b15611ecb578151600680546020850151604086015160608701516001600160481b03908116600160b81b026001600160b81b0364ffffffffff909316600160901b029290921671ffffffffffffffffffffffffffffffffffff938216600160481b026001600160901b031990951691909616179290921716929092179190911790555b80608001518260800151141580611eea57508060a001518260a0015114155b80611f0b57508060c0015164ffffffffff168260c0015164ffffffffff1614155b80611f1e57508060e001518260e0015114155b80611f33575080610100015182610100015114155b80611f48575080610120015182610120015114155b15610faf5760808201516007805460a085015160c086015164ffffffffff16600160581b0264ffffffffff60581b196001600160481b0390921662010000026affffffffffffffffffffff1990931661ffff90951694909417919091171691909117905561012082015161010083015160e0840151611fc8929190612af9565b600780546001600160801b03928316600160801b0292169190911790555050565b6115b382111561204b5760405162461bcd60e51b815260206004820152602760248201527f4d594e543a206e65775374616b65644461797320686967686572207468616e206044820152666d6178696d756d60c81b60648201526084016107d5565b60006120578484612929565b905060008560400151620186a0838761207091906135ae565b61207a919061356e565b612084919061354c565b9050806000036120fc5760405162461bcd60e51b815260206004820152603860248201527f4d594e543a206e65775374616b6564486561727473206d75737420626520617460448201527f206c65617374206d696e696d756d20736861726552617465000000000000000060648201526084016107d5565b60006001876101400151106121215761014087015161211c9060016135ae565b61212c565b61212c6001806135ae565b905060008760c001805161213f906135f0565b64ffffffffff1690819052336000908152600a6020526040902090915061227e90828986868b8b6040805160e08101825264ffffffffff97881681526001600160481b03968716602080830191825296881692820192835261ffff9586166060830190815294861660808301908152600060a0840181815295151560c085019081528c54600181018e559c8252989020925192909a0180549151935195519a51945197511515600160e81b0260ff60e81b19988816600160d81b0261ffff60d81b19968916600160c81b029690961663ffffffff60c81b199c909816600160b81b0261ffff60b81b19978b16600160701b0297909716600160701b600160c81b031995909a16600160281b026001600160701b031990931693909a16929092171791909116959095179190911795909516179390931792909216179055565b61228b8188858989612b1d565b828860200181815161229d91906135ae565b9052508751879089906122b19083906135ae565b9052505050505050505050565b6001600160a01b03821661231e5760405162461bcd60e51b815260206004820152602160248201527f45524332303a206275726e2066726f6d20746865207a65726f206164647265736044820152607360f81b60648201526084016107d5565b6001600160a01b038216600090815260208190526040902054818110156123925760405162461bcd60e51b815260206004820152602260248201527f45524332303a206275726e20616d6f756e7420657863656564732062616c616e604482015261636560f01b60648201526084016107d5565b6001600160a01b0383166000818152602081815260408083208686039055600280548790039055518581529192917fddf252ad1be2c89b69c2b068fc378daa952ba7f163c4a11628f55a4df523b3ef910160405180910390a3505050565b6000603c6124026365645b8f4261359b565b610be0919061354c565b604080514264ffffffffff9081166dffffffffffffffffff0000000000602889901b161768ffffffffffffffffff60701b607088901b16176001600160b81b031960b887901b161782526001600160481b03841660208301523392908816916001600160a01b038a16917fd824970a2cf19cc2b630c87ce5b00f67301cac3ac60513d027c7a39129f93b46910160405180910390a4505050505050565b818360800151106124b957505050565b6124dd60405180606001604052806000815260200160008152602001600081525090565b83516002546124ec91906135ae565b815260808401516124fe858383612bb1565b6020850151156125295784602001518560a00181815161251e91906135ae565b905250600060208601525b83612533826135c1565b915081101561254c57612547858383612bb1565b612529565b61255b85608001518285612c29565b60808501819052602082015115611c6d57611c6d739a6a414d6f3497c05e3b1de90520765fa1e07c038360200151611569565b6000808061259e6033600261356e565b6001600160801b0380861690911c1692506125c16001660800000000000061359b565b603385901c16691fffffffffffffffffff1691506125e76001660800000000000061359b565b846001600160801b03161690509193909250565b815181526020808301519082015260408083015190820152606080830151908201526080808301519082015260a0808301519082015260c08083015164ffffffffff169082015260e08083015190820152610100808301519082015261012091820151910152565b6000808061267185886135ae565b9050600060026126828860016135ae565b61268c919061354c565b9050605a81101561269b5750605a5b856000036126c65760006126b08a878b612ca2565b90506126bc828261356e565b9350505050612747565b8581101561270f5760006126da828a6135ae565b90506126e88a878b84612751565b935060006126f88b888487612751565b905061270481866135ae565b955050505050612747565b61271b89868a85612751565b935085810361272c57839250612744565b85612737828661356e565b612741919061354c565b92505b50505b9550959350505050565b6000825b828110156127b2576000818152600960205260409020546001600160481b03600160481b820481169161278a9188911661356e565b612794919061354c565b61279e90836135ae565b9150806127aa816135c1565b915050612755565b506127bf6032600761356e565b6127ca9060016135ae565b6127d59060016135ae565b831115801561280457506127eb6032600761356e565b6127f69060016135ae565b6128019060016135ae565b82115b156128c157600060098161281a6032600761356e565b6128259060016135ae565b6128309060016135ae565b8152602081019190915260400160002054600160481b90046001600160481b0316856127106305f5e1006128666008600a613540565b612870919061354c565b61287a919061356e565b8860e00151612889919061356e565b612893919061356e565b61289d919061354c565b90506128a98682612dd5565b6128b390826135ae565b6128bd90836135ae565b9150505b949350505050565b6000806128d86002600761356e565b6128e286886135ae565b6128ec91906135ae565b90508084116128ff5760009150506128c1565b61290b6064600761356e565b612915828661359b565b61291f908561356e565b6128bd919061354c565b600080600183111561299957606460c86129466014618e3061354c565b612950919061356e565b61295a919061354c565b83111561298b57606460c86129726014618e3061354c565b61297c919061356e565b612986919061354c565b612996565b61299660018461359b565b90505b60006129a76008600a613540565b6129b5906308f0d18061356e565b8511156129db576129c86008600a613540565b6129d6906308f0d18061356e565b6129dd565b845b90506129ec6014618e3061354c565b6129f6908261356e565b600a612a03600882613540565b612a11906308f0d18061356e565b612a1c90606461356e565b612a26919061354c565b612a30908461356e565b612a3a91906135ae565b9250600a612a49600882613540565b612a57906308f0d18061356e565b612a6290606461356e565b612a6c919061354c565b612a796014618e3061354c565b612a83919061356e565b612a8d848761356e565b612a97919061354c565b95945050505050565b8064ffffffffff167f9861fa0ed101659f7a59b4583fcc798dfa4f3b419bea371c8ee2ad0ffe13a31e60288464ffffffffff16901b4264ffffffffff1617604051612aed91815260200190565b60405180910390a25050565b600080612b086033600261356e565b9490941b60339390931b929092171792915050565b64ffffffffff8516337f14872dc760f33532684e68e1b6d5fd3f71ba7b07dee76bdb2b084f28b74233ef83612b53576000612b59565b600160c81b5b6001600160d01b031660b88661ffff16901b6070886001600160481b0316901b60288a6001600160481b0316901b4264ffffffffff1617171717604051612ba291815260200190565b60405180910390a35050505050565b612bbc838383612e2b565b60409182015160009182526009602052919020805460a084015160e09094015166ffffffffffffff16600160901b0266ffffffffffffff60901b196001600160481b03958616600160481b026001600160901b031990931695909416949094171791909116919091179055565b337fb8d6eb541ded1720cc657b719f57abcb1fe4711cb7ead82751b135f5d94bc94482612c57576000612c5d565b600160481b5b69ffffffffffffffffffff1660388561ffff16901b60288761ffff16901b4264ffffffffff16171717604051612c9591815260200190565b60405180910390a2505050565b6000612cac612f63565b612cb685826125fb565b612cda60405180606001604052806000815260200160008152602001600081525090565b8551600254612ce991906135ae565b8152612cf6828286612e2b565b848260a001818151612d0891906135ae565b90525060a08201516040820151612d2090879061356e565b612d2a919061354c565b9250612d386032600761356e565b612d439060016135ae565b612d4e9060016135ae565b8403612dcc5760a0820151600090866127106305f5e100612d716008600a613540565b612d7b919061354c565b612d85919061356e565b8560e00151612d94919061356e565b612d9e919061356e565b612da8919061354c565b9050612db48382612dd5565b612dbe90826135ae565b612dc890856135ae565b9350505b50509392505050565b6000806301ab362e84610120015184612dee919061356e565b612df8919061354c565b9050600066033bb85fc52d9985610100015185612e15919061356e565b612e1f919061354c565b9050612a9781836135ae565b81516305fcbae390612e3f9061271061356e565b612e49919061354c565b6040830152612e5a6032600761356e565b612e659060016135ae565b811015612f34576000612e7a6032600761356e565b6127106305f5e100612e8e6008600a613540565b612e98919061354c565b612ea2919061356e565b8560e00151612eb1919061356e565b612ebb919061354c565b90506000612ed885838660400151612ed391906135ae565b612dd5565b612ee290836135ae565b90508084602001818151612ef691906135ae565b905250835181908590612f0a9083906135ae565b9052506040840151612f1d908690612dd5565b84604001818151612f2e91906135ae565b90525050505b6060830151156107e857826060015182604001818151612f5491906135ae565b90525060006060840152505050565b604051806101600160405280600081526020016000815260200160008152602001600081526020016000815260200160008152602001600064ffffffffff168152602001600081526020016000815260200160008152602001600081525090565b6040518060e00160405280600064ffffffffff16815260200160008152602001600081526020016000815260200160008152602001600081526020016000151581525090565b604051806101a00160405280600d906020820280368337509192915050565b600060208083528351808285015260005b818110156130565785810183015185820160400152820161303a565b506000604082860101526040601f19601f8301168501019250505092915050565b80356001600160a01b038116811461308e57600080fd5b919050565b600080604083850312156130a657600080fd5b6130af83613077565b946020939093013593505050565b6000806000606084860312156130d257600080fd5b6130db84613077565b9250602084013591506130f060408501613077565b90509250925092565b60008060006060848603121561310e57600080fd5b61311784613077565b925061312560208501613077565b9150604084013590509250925092565b60006020828403121561314757600080fd5b61315082613077565b9392505050565b803564ffffffffff8116811461308e57600080fd5b6000806040838503121561317f57600080fd5b8235915061318f60208401613157565b90509250929050565b600080604083850312156131ab57600080fd5b8235915061318f60208401613077565b600080604083850312156131ce57600080fd5b50508035926020909101359150565b6000806000606084860312156131f257600080fd5b6131fb84613077565b9250602084013591506130f060408501613157565b634e487b7160e01b600052604160045260246000fd5b604051610160810167ffffffffffffffff8111828210171561325857634e487b7160e01b600052604160045260246000fd5b60405290565b6000610160828403121561327157600080fd5b613279613226565b9050813581526020820135602082015260408201356040820152606082013560608201526080820135608082015260a082013560a08201526132bd60c08301613157565b60c082015260e082013560e082015261010080830135818301525061012080830135818301525061014080830135818301525092915050565b6000806102c0838503121561330a57600080fd5b613314848461325e565b915061318f84610160850161325e565b6020808252825182820181905260009190848201906040850190845b8181101561335c57835183529284019291840191600101613340565b50909695505050505050565b60006020828403121561337a57600080fd5b81356bffffffffffffffffffffffff198116811461315057600080fd5b6000602082840312156133a957600080fd5b5035919050565b600080604083850312156133c357600080fd5b6133cc83613077565b915061318f60208401613077565b6101a08101818360005b600d8110156134035781518352602092830192909101906001016133e4565b50505092915050565b600181811c9082168061342057607f821691505b60208210810361344057634e487b7160e01b600052602260045260246000fd5b50919050565b634e487b7160e01b600052601160045260246000fd5b600181815b8085111561349757816000190482111561347d5761347d613446565b8085161561348a57918102915b93841c9390800290613461565b509250929050565b6000826134ae57506001610776565b816134bb57506000610776565b81600181146134d157600281146134db576134f7565b6001915050610776565b60ff8411156134ec576134ec613446565b50506001821b610776565b5060208310610133831016604e8410600b841016171561351a575081810a610776565b613524838361345c565b806000190482111561353857613538613446565b029392505050565b6000613150838361349f565b60008261356957634e487b7160e01b600052601260045260246000fd5b500490565b808202811582820484141761077657610776613446565b634e487b7160e01b600052603260045260246000fd5b8181038181111561077657610776613446565b8082018082111561077657610776613446565b6000600182016135d3576135d3613446565b5060010190565b634e487b7160e01b600052603160045260246000fd5b600064ffffffffff80831681810361360a5761360a613446565b600101939250505056fea2646970667358221220f6024aed4e661ff1e69f35c24ad3b7ccfb4482e105e2e4179b4cf0ac1f69f7eb64736f6c63430008130033",
			"opcodes": "PUSH1 0xA0 PUSH1 0x40 MSTORE CALLVALUE DUP1 ISZERO PUSH3 0x11 JUMPI PUSH1 0x0 DUP1 REVERT JUMPDEST POP PUSH1 0x40 MLOAD DUP1 PUSH1 0x40 ADD PUSH1 0x40 MSTORE DUP1 PUSH1 0x7 DUP2 MSTORE PUSH1 0x20 ADD PUSH7 0x135E5B9D1A5CDD PUSH1 0xCA SHL DUP2 MSTORE POP PUSH1 0x40 MLOAD DUP1 PUSH1 0x40 ADD PUSH1 0x40 MSTORE DUP1 PUSH1 0x4 DUP2 MSTORE PUSH1 0x20 ADD PUSH4 0x13565395 PUSH1 0xE2 SHL DUP2 MSTORE POP DUP2 PUSH1 0x3 SWAP1 DUP2 PUSH3 0x60 SWAP2 SWAP1 PUSH3 0x121 JUMP JUMPDEST POP PUSH1 0x4 PUSH3 0x6F DUP3 DUP3 PUSH3 0x121 JUMP JUMPDEST POP POP CALLER PUSH1 0x80 MSTORE POP PUSH3 0x1ED JUMP JUMPDEST PUSH4 0x4E487B71 PUSH1 0xE0 SHL PUSH1 0x0 MSTORE PUSH1 0x41 PUSH1 0x4 MSTORE PUSH1 0x24 PUSH1 0x0 REVERT JUMPDEST PUSH1 0x1 DUP2 DUP2 SHR SWAP1 DUP3 AND DUP1 PUSH3 0xA7 JUMPI PUSH1 0x7F DUP3 AND SWAP2 POP JUMPDEST PUSH1 0x20 DUP3 LT DUP2 SUB PUSH3 0xC8 JUMPI PUSH4 0x4E487B71 PUSH1 0xE0 SHL PUSH1 0x0 MSTORE PUSH1 0x22 PUSH1 0x4 MSTORE PUSH1 0x24 PUSH1 0x0 REVERT JUMPDEST POP SWAP2 SWAP1 POP JUMP JUMPDEST PUSH1 0x1F DUP3 GT ISZERO PUSH3 0x11C JUMPI PUSH1 0x0 DUP2 DUP2 MSTORE PUSH1 0x20 DUP2 KECCAK256 PUSH1 0x1F DUP6 ADD PUSH1 0x5 SHR DUP2 ADD PUSH1 0x20 DUP7 LT ISZERO PUSH3 0xF7 JUMPI POP DUP1 JUMPDEST PUSH1 0x1F DUP6 ADD PUSH1 0x5 SHR DUP3 ADD SWAP2 POP JUMPDEST DUP2 DUP2 LT ISZERO PUSH3 0x118 JUMPI DUP3 DUP2 SSTORE PUSH1 0x1 ADD PUSH3 0x103 JUMP JUMPDEST POP POP POP JUMPDEST POP POP POP JUMP JUMPDEST DUP2 MLOAD PUSH1 0x1 PUSH1 0x1 PUSH1 0x40 SHL SUB DUP2 GT ISZERO PUSH3 0x13D JUMPI PUSH3 0x13D PUSH3 0x7C JUMP JUMPDEST PUSH3 0x155 DUP2 PUSH3 0x14E DUP5 SLOAD PUSH3 0x92 JUMP JUMPDEST DUP5 PUSH3 0xCE JUMP JUMPDEST PUSH1 0x20 DUP1 PUSH1 0x1F DUP4 GT PUSH1 0x1 DUP2 EQ PUSH3 0x18D JUMPI PUSH1 0x0 DUP5 ISZERO PUSH3 0x174 JUMPI POP DUP6 DUP4 ADD MLOAD JUMPDEST PUSH1 0x0 NOT PUSH1 0x3 DUP7 SWAP1 SHL SHR NOT AND PUSH1 0x1 DUP6 SWAP1 SHL OR DUP6 SSTORE PUSH3 0x118 JUMP JUMPDEST PUSH1 0x0 DUP6 DUP2 MSTORE PUSH1 0x20 DUP2 KECCAK256 PUSH1 0x1F NOT DUP7 AND SWAP2 JUMPDEST DUP3 DUP2 LT ISZERO PUSH3 0x1BE JUMPI DUP9 DUP7 ADD MLOAD DUP3 SSTORE SWAP5 DUP5 ADD SWAP5 PUSH1 0x1 SWAP1 SWAP2 ADD SWAP1 DUP5 ADD PUSH3 0x19D JUMP JUMPDEST POP DUP6 DUP3 LT ISZERO PUSH3 0x1DD JUMPI DUP8 DUP6 ADD MLOAD PUSH1 0x0 NOT PUSH1 0x3 DUP9 SWAP1 SHL PUSH1 0xF8 AND SHR NOT AND DUP2 SSTORE JUMPDEST POP POP POP POP POP PUSH1 0x1 SWAP1 DUP2 SHL ADD SWAP1 SSTORE POP JUMP JUMPDEST PUSH1 0x80 MLOAD PUSH2 0x364A PUSH3 0x210 PUSH1 0x0 CODECOPY PUSH1 0x0 DUP2 DUP2 PUSH2 0x686 ADD MSTORE PUSH2 0x1109 ADD MSTORE PUSH2 0x364A PUSH1 0x0 RETURN INVALID PUSH1 0x80 PUSH1 0x40 MSTORE CALLVALUE DUP1 ISZERO PUSH2 0x10 JUMPI PUSH1 0x0 DUP1 REVERT JUMPDEST POP PUSH1 0x4 CALLDATASIZE LT PUSH2 0x211 JUMPI PUSH1 0x0 CALLDATALOAD PUSH1 0xE0 SHR DUP1 PUSH4 0x5C9302C9 GT PUSH2 0x125 JUMPI DUP1 PUSH4 0x90DE6871 GT PUSH2 0xAD JUMPI DUP1 PUSH4 0xB626D6FC GT PUSH2 0x7C JUMPI DUP1 PUSH4 0xB626D6FC EQ PUSH2 0x5A6 JUMPI DUP1 PUSH4 0xC3124525 EQ PUSH2 0x5B9 JUMPI DUP1 PUSH4 0xCE606EE0 EQ PUSH2 0x681 JUMPI DUP1 PUSH4 0xDD62ED3E EQ PUSH2 0x6A8 JUMPI DUP1 PUSH4 0xF04B5FA0 EQ PUSH2 0x6BB JUMPI PUSH1 0x0 DUP1 REVERT JUMPDEST DUP1 PUSH4 0x90DE6871 EQ PUSH2 0x502 JUMPI DUP1 PUSH4 0x95D89B41 EQ PUSH2 0x578 JUMPI DUP1 PUSH4 0xA457C2D7 EQ PUSH2 0x580 JUMPI DUP1 PUSH4 0xA9059CBB EQ PUSH2 0x593 JUMPI PUSH1 0x0 DUP1 REVERT JUMPDEST DUP1 PUSH4 0x70A08231 GT PUSH2 0xF4 JUMPI DUP1 PUSH4 0x70A08231 EQ PUSH2 0x470 JUMPI DUP1 PUSH4 0x7C426620 EQ PUSH2 0x499 JUMPI DUP1 PUSH4 0x87A0F31C EQ PUSH2 0x4BC JUMPI DUP1 PUSH4 0x8CBA2842 EQ PUSH2 0x4DC JUMPI DUP1 PUSH4 0x8F1C65C0 EQ PUSH2 0x4EF JUMPI PUSH1 0x0 DUP1 REVERT JUMPDEST DUP1 PUSH4 0x5C9302C9 EQ PUSH2 0x422 JUMPI DUP1 PUSH4 0x65CF71B2 EQ PUSH2 0x42A JUMPI DUP1 PUSH4 0x65D2A557 EQ PUSH2 0x43D JUMPI DUP1 PUSH4 0x6A210A0E EQ PUSH2 0x450 JUMPI PUSH1 0x0 DUP1 REVERT JUMPDEST DUP1 PUSH4 0x313CE567 GT PUSH2 0x1A8 JUMPI DUP1 PUSH4 0x34DC8BB5 GT PUSH2 0x177 JUMPI DUP1 PUSH4 0x34DC8BB5 EQ PUSH2 0x388 JUMPI DUP1 PUSH4 0x39509351 EQ PUSH2 0x399 JUMPI DUP1 PUSH4 0x3A70A5CA EQ PUSH2 0x3AC JUMPI DUP1 PUSH4 0x44203FAF EQ PUSH2 0x3B4 JUMPI DUP1 PUSH4 0x52A438B8 EQ PUSH2 0x40F JUMPI PUSH1 0x0 DUP1 REVERT JUMPDEST DUP1 PUSH4 0x313CE567 EQ PUSH2 0x335 JUMPI DUP1 PUSH4 0x319E74F6 EQ PUSH2 0x344 JUMPI DUP1 PUSH4 0x33060D90 EQ PUSH2 0x34C JUMPI DUP1 PUSH4 0x343009A2 EQ PUSH2 0x375 JUMPI PUSH1 0x0 DUP1 REVERT JUMPDEST DUP1 PUSH4 0x13C5C2C7 GT PUSH2 0x1E4 JUMPI DUP1 PUSH4 0x13C5C2C7 EQ PUSH2 0x282 JUMPI DUP1 PUSH4 0x18160DDD EQ PUSH2 0x2B5 JUMPI DUP1 PUSH4 0x23B872DD EQ PUSH2 0x2BD JUMPI DUP1 PUSH4 0x2607443B EQ PUSH2 0x2D0 JUMPI PUSH1 0x0 DUP1 REVERT JUMPDEST DUP1 PUSH4 0x6FDDE03 EQ PUSH2 0x216 JUMPI DUP1 PUSH4 0x95EA7B3 EQ PUSH2 0x234 JUMPI DUP1 PUSH4 0xD4D1513 EQ PUSH2 0x257 JUMPI DUP1 PUSH4 0x1285B047 EQ PUSH2 0x26C JUMPI JUMPDEST PUSH1 0x0 DUP1 REVERT JUMPDEST PUSH2 0x21E PUSH2 0x6D0 JUMP JUMPDEST PUSH1 0x40 MLOAD PUSH2 0x22B SWAP2 SWAP1 PUSH2 0x3029 JUMP JUMPDEST PUSH1 0x40 MLOAD DUP1 SWAP2 SUB SWAP1 RETURN JUMPDEST PUSH2 0x247 PUSH2 0x242 CALLDATASIZE PUSH1 0x4 PUSH2 0x3093 JUMP JUMPDEST PUSH2 0x762 JUMP JUMPDEST PUSH1 0x40 MLOAD SWAP1 ISZERO ISZERO DUP2 MSTORE PUSH1 0x20 ADD PUSH2 0x22B JUMP JUMPDEST PUSH2 0x26A PUSH2 0x265 CALLDATASIZE PUSH1 0x4 PUSH2 0x30BD JUMP JUMPDEST PUSH2 0x77C JUMP JUMPDEST STOP JUMPDEST PUSH2 0x274 PUSH2 0x7ED JUMP JUMPDEST PUSH1 0x40 MLOAD SWAP1 DUP2 MSTORE PUSH1 0x20 ADD PUSH2 0x22B JUMP JUMPDEST PUSH2 0x29D PUSH20 0xDEC9F2793E3C17CD26EEFB21C4762FA5128E0399 DUP2 JUMP JUMPDEST PUSH1 0x40 MLOAD PUSH1 0x1 PUSH1 0x1 PUSH1 0xA0 SHL SUB SWAP1 SWAP2 AND DUP2 MSTORE PUSH1 0x20 ADD PUSH2 0x22B JUMP JUMPDEST PUSH1 0x2 SLOAD PUSH2 0x274 JUMP JUMPDEST PUSH2 0x247 PUSH2 0x2CB CALLDATASIZE PUSH1 0x4 PUSH2 0x30F9 JUMP JUMPDEST PUSH2 0x818 JUMP JUMPDEST PUSH2 0x2E3 PUSH2 0x2DE CALLDATASIZE PUSH1 0x4 PUSH2 0x3093 JUMP JUMPDEST PUSH2 0x83C JUMP JUMPDEST PUSH1 0x40 DUP1 MLOAD PUSH5 0xFFFFFFFFFF SWAP9 SWAP1 SWAP9 AND DUP9 MSTORE PUSH1 0x1 PUSH1 0x1 PUSH1 0x48 SHL SUB SWAP7 DUP8 AND PUSH1 0x20 DUP10 ADD MSTORE SWAP5 SWAP1 SWAP6 AND SWAP4 DUP7 ADD SWAP4 SWAP1 SWAP4 MSTORE PUSH2 0xFFFF SWAP2 DUP3 AND PUSH1 0x60 DUP7 ADD MSTORE DUP2 AND PUSH1 0x80 DUP6 ADD MSTORE AND PUSH1 0xA0 DUP4 ADD MSTORE ISZERO ISZERO PUSH1 0xC0 DUP3 ADD MSTORE PUSH1 0xE0 ADD PUSH2 0x22B JUMP JUMPDEST PUSH1 0x40 MLOAD PUSH1 0x8 DUP2 MSTORE PUSH1 0x20 ADD PUSH2 0x22B JUMP JUMPDEST PUSH2 0x274 PUSH2 0x8B8 JUMP JUMPDEST PUSH2 0x274 PUSH2 0x35A CALLDATASIZE PUSH1 0x4 PUSH2 0x3135 JUMP JUMPDEST PUSH1 0x1 PUSH1 0x1 PUSH1 0xA0 SHL SUB AND PUSH1 0x0 SWAP1 DUP2 MSTORE PUSH1 0xA PUSH1 0x20 MSTORE PUSH1 0x40 SWAP1 KECCAK256 SLOAD SWAP1 JUMP JUMPDEST PUSH2 0x26A PUSH2 0x383 CALLDATASIZE PUSH1 0x4 PUSH2 0x316C JUMP JUMPDEST PUSH2 0x8C4 JUMP JUMPDEST PUSH1 0x5 SLOAD PUSH1 0x1 PUSH1 0x1 PUSH1 0xA0 SHL SUB AND PUSH2 0x29D JUMP JUMPDEST PUSH2 0x247 PUSH2 0x3A7 CALLDATASIZE PUSH1 0x4 PUSH2 0x3093 JUMP JUMPDEST PUSH2 0xB9C JUMP JUMPDEST PUSH2 0x274 PUSH2 0xBBE JUMP JUMPDEST PUSH2 0x3F1 PUSH2 0x3C2 CALLDATASIZE PUSH1 0x4 PUSH2 0x3198 JUMP JUMPDEST PUSH1 0xC PUSH1 0x20 SWAP1 DUP2 MSTORE PUSH1 0x0 SWAP3 DUP4 MSTORE PUSH1 0x40 DUP1 DUP5 KECCAK256 SWAP1 SWAP2 MSTORE SWAP1 DUP3 MSTORE SWAP1 KECCAK256 SLOAD PUSH5 0xFFFFFFFFFF DUP1 DUP3 AND SWAP2 PUSH1 0x1 PUSH1 0x28 SHL SWAP1 DIV AND DUP3 JUMP JUMPDEST PUSH1 0x40 DUP1 MLOAD PUSH5 0xFFFFFFFFFF SWAP4 DUP5 AND DUP2 MSTORE SWAP3 SWAP1 SWAP2 AND PUSH1 0x20 DUP4 ADD MSTORE ADD PUSH2 0x22B JUMP JUMPDEST PUSH2 0x26A PUSH2 0x41D CALLDATASIZE PUSH1 0x4 PUSH2 0x31BB JUMP JUMPDEST PUSH2 0xBE5 JUMP JUMPDEST PUSH2 0x274 PUSH2 0xC8F JUMP JUMPDEST PUSH2 0x26A PUSH2 0x438 CALLDATASIZE PUSH1 0x4 PUSH2 0x31DD JUMP JUMPDEST PUSH2 0xC99 JUMP JUMPDEST PUSH2 0x26A PUSH2 0x44B CALLDATASIZE PUSH1 0x4 PUSH2 0x32F6 JUMP JUMPDEST PUSH2 0xFA5 JUMP JUMPDEST PUSH2 0x463 PUSH2 0x45E CALLDATASIZE PUSH1 0x4 PUSH2 0x31BB JUMP JUMPDEST PUSH2 0xFB3 JUMP JUMPDEST PUSH1 0x40 MLOAD PUSH2 0x22B SWAP2 SWAP1 PUSH2 0x3324 JUMP JUMPDEST PUSH2 0x274 PUSH2 0x47E CALLDATASIZE PUSH1 0x4 PUSH2 0x3135 JUMP JUMPDEST PUSH1 0x1 PUSH1 0x1 PUSH1 0xA0 SHL SUB AND PUSH1 0x0 SWAP1 DUP2 MSTORE PUSH1 0x20 DUP2 SWAP1 MSTORE PUSH1 0x40 SWAP1 KECCAK256 SLOAD SWAP1 JUMP JUMPDEST PUSH2 0x247 PUSH2 0x4A7 CALLDATASIZE PUSH1 0x4 PUSH2 0x3368 JUMP JUMPDEST PUSH1 0x8 PUSH1 0x20 MSTORE PUSH1 0x0 SWAP1 DUP2 MSTORE PUSH1 0x40 SWAP1 KECCAK256 SLOAD PUSH1 0xFF AND DUP2 JUMP JUMPDEST PUSH2 0x274 PUSH2 0x4CA CALLDATASIZE PUSH1 0x4 PUSH2 0x3397 JUMP JUMPDEST PUSH1 0xB PUSH1 0x20 MSTORE PUSH1 0x0 SWAP1 DUP2 MSTORE PUSH1 0x40 SWAP1 KECCAK256 SLOAD DUP2 JUMP JUMPDEST PUSH2 0x26A PUSH2 0x4EA CALLDATASIZE PUSH1 0x4 PUSH2 0x3135 JUMP JUMPDEST PUSH2 0x10FE JUMP JUMPDEST PUSH2 0x26A PUSH2 0x4FD CALLDATASIZE PUSH1 0x4 PUSH2 0x3397 JUMP JUMPDEST PUSH2 0x1188 JUMP JUMPDEST PUSH2 0x549 PUSH2 0x510 CALLDATASIZE PUSH1 0x4 PUSH2 0x3397 JUMP JUMPDEST PUSH1 0x9 PUSH1 0x20 MSTORE PUSH1 0x0 SWAP1 DUP2 MSTORE PUSH1 0x40 SWAP1 KECCAK256 SLOAD PUSH1 0x1 PUSH1 0x1 PUSH1 0x48 SHL SUB DUP1 DUP3 AND SWAP2 PUSH1 0x1 PUSH1 0x48 SHL DUP2 DIV SWAP1 SWAP2 AND SWAP1 PUSH1 0x1 PUSH1 0x90 SHL SWAP1 DIV PUSH7 0xFFFFFFFFFFFFFF AND DUP4 JUMP JUMPDEST PUSH1 0x40 DUP1 MLOAD PUSH1 0x1 PUSH1 0x1 PUSH1 0x48 SHL SUB SWAP5 DUP6 AND DUP2 MSTORE SWAP4 SWAP1 SWAP3 AND PUSH1 0x20 DUP5 ADD MSTORE PUSH7 0xFFFFFFFFFFFFFF AND SWAP1 DUP3 ADD MSTORE PUSH1 0x60 ADD PUSH2 0x22B JUMP JUMPDEST PUSH2 0x21E PUSH2 0x1280 JUMP JUMPDEST PUSH2 0x247 PUSH2 0x58E CALLDATASIZE PUSH1 0x4 PUSH2 0x3093 JUMP JUMPDEST PUSH2 0x128F JUMP JUMPDEST PUSH2 0x247 PUSH2 0x5A1 CALLDATASIZE PUSH1 0x4 PUSH2 0x3093 JUMP JUMPDEST PUSH2 0x130A JUMP JUMPDEST PUSH1 0x5 SLOAD PUSH2 0x29D SWAP1 PUSH1 0x1 PUSH1 0x1 PUSH1 0xA0 SHL SUB AND DUP2 JUMP JUMPDEST PUSH1 0x6 SLOAD PUSH1 0x7 SLOAD PUSH2 0x61F SWAP2 PUSH1 0x1 PUSH1 0x1 PUSH1 0x48 SHL SUB DUP1 DUP3 AND SWAP3 PUSH1 0x1 PUSH1 0x48 SHL DUP4 DIV DUP3 AND SWAP3 PUSH5 0xFFFFFFFFFF PUSH1 0x1 PUSH1 0x90 SHL DUP3 DIV DUP2 AND SWAP4 PUSH1 0x1 PUSH1 0xB8 SHL SWAP1 SWAP3 DIV DUP3 AND SWAP3 PUSH2 0xFFFF DUP2 AND SWAP3 PUSH3 0x10000 DUP3 DIV AND SWAP2 PUSH1 0x1 PUSH1 0x58 SHL DUP3 DIV AND SWAP1 PUSH1 0x1 PUSH1 0x1 PUSH1 0x80 SHL SUB PUSH1 0x1 PUSH1 0x80 SHL SWAP1 SWAP2 DIV AND DUP9 JUMP JUMPDEST PUSH1 0x40 DUP1 MLOAD PUSH1 0x1 PUSH1 0x1 PUSH1 0x48 SHL SUB SWAP10 DUP11 AND DUP2 MSTORE SWAP8 DUP10 AND PUSH1 0x20 DUP10 ADD MSTORE PUSH5 0xFFFFFFFFFF SWAP7 DUP8 AND SWAP1 DUP9 ADD MSTORE SWAP4 DUP8 AND PUSH1 0x60 DUP8 ADD MSTORE PUSH2 0xFFFF SWAP1 SWAP3 AND PUSH1 0x80 DUP7 ADD MSTORE SWAP5 SWAP1 SWAP5 AND PUSH1 0xA0 DUP5 ADD MSTORE SWAP3 AND PUSH1 0xC0 DUP3 ADD MSTORE PUSH1 0x1 PUSH1 0x1 PUSH1 0x80 SHL SUB SWAP1 SWAP2 AND PUSH1 0xE0 DUP3 ADD MSTORE PUSH2 0x100 ADD PUSH2 0x22B JUMP JUMPDEST PUSH2 0x29D PUSH32 0x0 DUP2 JUMP JUMPDEST PUSH2 0x274 PUSH2 0x6B6 CALLDATASIZE PUSH1 0x4 PUSH2 0x33B0 JUMP JUMPDEST PUSH2 0x1318 JUMP JUMPDEST PUSH2 0x6C3 PUSH2 0x1343 JUMP JUMPDEST PUSH1 0x40 MLOAD PUSH2 0x22B SWAP2 SWAP1 PUSH2 0x33DA JUMP JUMPDEST PUSH1 0x60 PUSH1 0x3 DUP1 SLOAD PUSH2 0x6DF SWAP1 PUSH2 0x340C JUMP JUMPDEST DUP1 PUSH1 0x1F ADD PUSH1 0x20 DUP1 SWAP2 DIV MUL PUSH1 0x20 ADD PUSH1 0x40 MLOAD SWAP1 DUP2 ADD PUSH1 0x40 MSTORE DUP1 SWAP3 SWAP2 SWAP1 DUP2 DUP2 MSTORE PUSH1 0x20 ADD DUP3 DUP1 SLOAD PUSH2 0x70B SWAP1 PUSH2 0x340C JUMP JUMPDEST DUP1 ISZERO PUSH2 0x758 JUMPI DUP1 PUSH1 0x1F LT PUSH2 0x72D JUMPI PUSH2 0x100 DUP1 DUP4 SLOAD DIV MUL DUP4 MSTORE SWAP2 PUSH1 0x20 ADD SWAP2 PUSH2 0x758 JUMP JUMPDEST DUP3 ADD SWAP2 SWAP1 PUSH1 0x0 MSTORE PUSH1 0x20 PUSH1 0x0 KECCAK256 SWAP1 JUMPDEST DUP2 SLOAD DUP2 MSTORE SWAP1 PUSH1 0x1 ADD SWAP1 PUSH1 0x20 ADD DUP1 DUP4 GT PUSH2 0x73B JUMPI DUP3 SWAP1 SUB PUSH1 0x1F AND DUP3 ADD SWAP2 JUMPDEST POP POP POP POP POP SWAP1 POP SWAP1 JUMP JUMPDEST PUSH1 0x0 CALLER PUSH2 0x770 DUP2 DUP6 DUP6 PUSH2 0x1445 JUMP JUMPDEST PUSH1 0x1 SWAP2 POP POP JUMPDEST SWAP3 SWAP2 POP POP JUMP JUMPDEST PUSH1 0x5 SLOAD PUSH1 0x1 PUSH1 0x1 PUSH1 0xA0 SHL SUB DUP3 DUP2 AND SWAP2 AND EQ PUSH2 0x7DE JUMPI PUSH1 0x40 MLOAD PUSH3 0x461BCD PUSH1 0xE5 SHL DUP2 MSTORE PUSH1 0x20 PUSH1 0x4 DUP3 ADD MSTORE PUSH1 0x19 PUSH1 0x24 DUP3 ADD MSTORE PUSH32 0x43616C6C6572206973206E6F7420544220636F6E747261637400000000000000 PUSH1 0x44 DUP3 ADD MSTORE PUSH1 0x64 ADD JUMPDEST PUSH1 0x40 MLOAD DUP1 SWAP2 SUB SWAP1 REVERT JUMPDEST PUSH2 0x7E8 DUP4 DUP4 PUSH2 0x1569 JUMP JUMPDEST POP POP POP JUMP JUMPDEST PUSH2 0x2710 PUSH4 0x5F5E100 PUSH2 0x801 PUSH1 0x8 PUSH1 0xA PUSH2 0x3540 JUMP JUMPDEST PUSH2 0x80B SWAP2 SWAP1 PUSH2 0x354C JUMP JUMPDEST PUSH2 0x815 SWAP2 SWAP1 PUSH2 0x356E JUMP JUMPDEST DUP2 JUMP JUMPDEST PUSH1 0x0 CALLER PUSH2 0x826 DUP6 DUP3 DUP6 PUSH2 0x1628 JUMP JUMPDEST PUSH2 0x831 DUP6 DUP6 DUP6 PUSH2 0x169C JUMP JUMPDEST POP PUSH1 0x1 SWAP5 SWAP4 POP POP POP POP JUMP JUMPDEST PUSH1 0xA PUSH1 0x20 MSTORE DUP2 PUSH1 0x0 MSTORE PUSH1 0x40 PUSH1 0x0 KECCAK256 DUP2 DUP2 SLOAD DUP2 LT PUSH2 0x858 JUMPI PUSH1 0x0 DUP1 REVERT JUMPDEST PUSH1 0x0 SWAP2 DUP3 MSTORE PUSH1 0x20 SWAP1 SWAP2 KECCAK256 ADD SLOAD PUSH5 0xFFFFFFFFFF DUP2 AND SWAP3 POP PUSH1 0x1 PUSH1 0x1 PUSH1 0x48 SHL SUB PUSH1 0x1 PUSH1 0x28 SHL DUP3 DIV DUP2 AND SWAP3 POP PUSH1 0x1 PUSH1 0x70 SHL DUP3 DIV AND SWAP1 PUSH2 0xFFFF PUSH1 0x1 PUSH1 0xB8 SHL DUP3 DIV DUP2 AND SWAP2 PUSH1 0x1 PUSH1 0xC8 SHL DUP2 DIV DUP3 AND SWAP2 PUSH1 0x1 PUSH1 0xD8 SHL DUP3 DIV AND SWAP1 PUSH1 0xFF PUSH1 0x1 PUSH1 0xE8 SHL SWAP1 SWAP2 DIV AND DUP8 JUMP JUMPDEST PUSH2 0x815 PUSH1 0x32 PUSH1 0x7 PUSH2 0x356E JUMP JUMPDEST PUSH2 0x8CC PUSH2 0x2F63 JUMP JUMPDEST PUSH2 0x8D4 PUSH2 0x2F63 JUMP JUMPDEST PUSH2 0x8DE DUP3 DUP3 PUSH2 0x1840 JUMP JUMPDEST CALLER PUSH1 0x0 SWAP1 DUP2 MSTORE PUSH1 0xA PUSH1 0x20 MSTORE PUSH1 0x40 DUP2 KECCAK256 DUP1 SLOAD SWAP1 SWAP2 SUB PUSH2 0x937 JUMPI PUSH1 0x40 MLOAD PUSH3 0x461BCD PUSH1 0xE5 SHL DUP2 MSTORE PUSH1 0x20 PUSH1 0x4 DUP3 ADD MSTORE PUSH1 0x16 PUSH1 0x24 DUP3 ADD MSTORE PUSH22 0x135653950E88115B5C1D1E481CDD185AD9481B1A5CDD PUSH1 0x52 SHL PUSH1 0x44 DUP3 ADD MSTORE PUSH1 0x64 ADD PUSH2 0x7D5 JUMP JUMPDEST DUP1 SLOAD DUP6 LT PUSH2 0x982 JUMPI PUSH1 0x40 MLOAD PUSH3 0x461BCD PUSH1 0xE5 SHL DUP2 MSTORE PUSH1 0x20 PUSH1 0x4 DUP3 ADD MSTORE PUSH1 0x18 PUSH1 0x24 DUP3 ADD MSTORE PUSH24 0x135653950E881CDD185AD9525B99195E081A5B9D985B1A59 PUSH1 0x42 SHL PUSH1 0x44 DUP3 ADD MSTORE PUSH1 0x64 ADD PUSH2 0x7D5 JUMP JUMPDEST PUSH2 0x98A PUSH2 0x2FC4 JUMP JUMPDEST PUSH2 0x9B0 DUP3 DUP8 DUP2 SLOAD DUP2 LT PUSH2 0x99F JUMPI PUSH2 0x99F PUSH2 0x3585 JUMP JUMPDEST SWAP1 PUSH1 0x0 MSTORE PUSH1 0x20 PUSH1 0x0 KECCAK256 ADD DUP7 DUP4 PUSH2 0x18EE JUMP JUMPDEST PUSH2 0x9B9 DUP5 PUSH2 0x19BC JUMP JUMPDEST PUSH1 0x0 DUP1 DUP3 PUSH1 0xA0 ADD MLOAD PUSH1 0x0 EQ ISZERO SWAP1 POP PUSH1 0x0 DUP1 PUSH1 0x0 SWAP1 POP PUSH1 0x0 DUP1 DUP7 PUSH1 0x60 ADD MLOAD DUP11 PUSH2 0x140 ADD MLOAD LT PUSH2 0xAA2 JUMPI DUP5 ISZERO PUSH2 0x9F3 JUMPI DUP7 PUSH1 0x80 ADD MLOAD SWAP6 POP PUSH2 0xA88 JUMP JUMPDEST PUSH2 0x9FD DUP11 DUP9 PUSH2 0x19D0 JUMP JUMPDEST DUP7 PUSH1 0x60 ADD MLOAD DUP11 PUSH2 0x140 ADD MLOAD PUSH2 0xA12 SWAP2 SWAP1 PUSH2 0x359B JUMP JUMPDEST SWAP6 POP DUP7 PUSH1 0x80 ADD MLOAD DUP7 GT ISZERO PUSH2 0xA2C JUMPI DUP7 PUSH1 0x80 ADD MLOAD SWAP6 POP PUSH2 0xA88 JUMP JUMPDEST PUSH2 0x15E DUP7 LT ISZERO PUSH2 0xA88 JUMPI DUP7 PUSH1 0xC0 ADD MLOAD ISZERO PUSH2 0xA88 JUMPI PUSH1 0x40 MLOAD PUSH3 0x461BCD PUSH1 0xE5 SHL DUP2 MSTORE PUSH1 0x20 PUSH1 0x4 DUP3 ADD MSTORE PUSH1 0x1D PUSH1 0x24 DUP3 ADD MSTORE PUSH32 0x4D594E543A204175746F2D7374616B65207374696C6C206C6F636B6564000000 PUSH1 0x44 DUP3 ADD MSTORE PUSH1 0x64 ADD PUSH2 0x7D5 JUMP JUMPDEST PUSH2 0xA93 DUP11 DUP9 DUP9 PUSH2 0x19F8 JUMP JUMPDEST SWAP3 SWAP7 POP SWAP1 SWAP5 POP SWAP3 POP SWAP1 POP PUSH2 0xB15 JUMP JUMPDEST DUP7 PUSH1 0xC0 ADD MLOAD ISZERO PUSH2 0xAF4 JUMPI PUSH1 0x40 MLOAD PUSH3 0x461BCD PUSH1 0xE5 SHL DUP2 MSTORE PUSH1 0x20 PUSH1 0x4 DUP3 ADD MSTORE PUSH1 0x1D PUSH1 0x24 DUP3 ADD MSTORE PUSH32 0x4D594E543A204175746F2D7374616B65207374696C6C206C6F636B6564000000 PUSH1 0x44 DUP3 ADD MSTORE PUSH1 0x64 ADD PUSH2 0x7D5 JUMP JUMPDEST DUP7 PUSH1 0x40 ADD MLOAD DUP11 PUSH1 0x20 ADD DUP2 DUP2 MLOAD PUSH2 0xB0A SWAP2 SWAP1 PUSH2 0x359B JUMP JUMPDEST SWAP1 MSTORE POP PUSH1 0x20 DUP8 ADD MLOAD SWAP4 POP JUMPDEST PUSH2 0xB2C DUP12 DUP9 PUSH1 0x20 ADD MLOAD DUP10 PUSH1 0x40 ADD MLOAD DUP7 DUP7 DUP12 DUP12 PUSH2 0x1ABC JUMP JUMPDEST DUP1 ISZERO DUP1 ISZERO SWAP1 PUSH2 0xB39 JUMPI POP DUP5 ISZERO JUMPDEST ISZERO PUSH2 0xB48 JUMPI PUSH2 0xB48 DUP11 DUP3 PUSH2 0x1B81 JUMP JUMPDEST DUP4 ISZERO PUSH2 0xB63 JUMPI PUSH2 0xB58 CALLER DUP6 PUSH2 0x1569 JUMP JUMPDEST PUSH2 0xB63 DUP11 DUP9 DUP7 PUSH2 0x1BDA JUMP JUMPDEST PUSH1 0x20 DUP8 ADD MLOAD DUP11 MLOAD DUP12 SWAP1 PUSH2 0xB77 SWAP1 DUP4 SWAP1 PUSH2 0x359B JUMP JUMPDEST SWAP1 MSTORE POP PUSH2 0xB84 DUP9 DUP14 PUSH2 0x1C74 JUMP JUMPDEST PUSH2 0xB8E DUP11 DUP11 PUSH2 0x1E09 JUMP JUMPDEST POP POP POP POP POP POP POP POP POP POP POP POP JUMP JUMPDEST PUSH1 0x0 CALLER PUSH2 0x770 DUP2 DUP6 DUP6 PUSH2 0xBAF DUP4 DUP4 PUSH2 0x1318 JUMP JUMPDEST PUSH2 0xBB9 SWAP2 SWAP1 PUSH2 0x35AE JUMP JUMPDEST PUSH2 0x1445 JUMP JUMPDEST PUSH1 0x6 SLOAD PUSH1 0x0 SWAP1 PUSH1 0x1 PUSH1 0x1 PUSH1 0x48 SHL SUB AND PUSH2 0xBD6 PUSH1 0x2 SLOAD SWAP1 JUMP JUMPDEST PUSH2 0xBE0 SWAP2 SWAP1 PUSH2 0x35AE JUMP JUMPDEST SWAP1 POP SWAP1 JUMP JUMPDEST PUSH2 0xBED PUSH2 0x2F63 JUMP JUMPDEST PUSH2 0xBF5 PUSH2 0x2F63 JUMP JUMPDEST PUSH2 0xBFF DUP3 DUP3 PUSH2 0x1840 JUMP JUMPDEST PUSH1 0x1 DUP4 LT ISZERO PUSH2 0xC5F JUMPI PUSH1 0x40 MLOAD PUSH3 0x461BCD PUSH1 0xE5 SHL DUP2 MSTORE PUSH1 0x20 PUSH1 0x4 DUP3 ADD MSTORE PUSH1 0x26 PUSH1 0x24 DUP3 ADD MSTORE PUSH32 0x4D594E543A206E65775374616B656444617973206C6F776572207468616E206D PUSH1 0x44 DUP3 ADD MSTORE PUSH6 0x696E696D756D PUSH1 0xD0 SHL PUSH1 0x64 DUP3 ADD MSTORE PUSH1 0x84 ADD PUSH2 0x7D5 JUMP JUMPDEST PUSH2 0xC68 DUP3 PUSH2 0x19BC JUMP JUMPDEST PUSH2 0xC75 DUP3 DUP6 DUP6 PUSH1 0x0 PUSH2 0x1FE9 JUMP JUMPDEST PUSH2 0xC7F CALLER DUP6 PUSH2 0x22BE JUMP JUMPDEST PUSH2 0xC89 DUP3 DUP3 PUSH2 0x1E09 JUMP JUMPDEST POP POP POP POP JUMP JUMPDEST PUSH1 0x0 PUSH2 0xBE0 PUSH2 0x23F0 JUMP JUMPDEST PUSH2 0xCA1 PUSH2 0x2F63 JUMP JUMPDEST PUSH2 0xCA9 PUSH2 0x2F63 JUMP JUMPDEST PUSH2 0xCB3 DUP3 DUP3 PUSH2 0x1840 JUMP JUMPDEST PUSH1 0x1 PUSH1 0x1 PUSH1 0xA0 SHL SUB DUP6 AND PUSH1 0x0 SWAP1 DUP2 MSTORE PUSH1 0xA PUSH1 0x20 MSTORE PUSH1 0x40 DUP2 KECCAK256 SLOAD SWAP1 SUB PUSH2 0xD13 JUMPI PUSH1 0x40 MLOAD PUSH3 0x461BCD PUSH1 0xE5 SHL DUP2 MSTORE PUSH1 0x20 PUSH1 0x4 DUP3 ADD MSTORE PUSH1 0x16 PUSH1 0x24 DUP3 ADD MSTORE PUSH22 0x135653950E88115B5C1D1E481CDD185AD9481B1A5CDD PUSH1 0x52 SHL PUSH1 0x44 DUP3 ADD MSTORE PUSH1 0x64 ADD PUSH2 0x7D5 JUMP JUMPDEST PUSH1 0x1 PUSH1 0x1 PUSH1 0xA0 SHL SUB DUP6 AND PUSH1 0x0 SWAP1 DUP2 MSTORE PUSH1 0xA PUSH1 0x20 MSTORE PUSH1 0x40 SWAP1 KECCAK256 SLOAD DUP5 LT PUSH2 0xD75 JUMPI PUSH1 0x40 MLOAD PUSH3 0x461BCD PUSH1 0xE5 SHL DUP2 MSTORE PUSH1 0x20 PUSH1 0x4 DUP3 ADD MSTORE PUSH1 0x18 PUSH1 0x24 DUP3 ADD MSTORE PUSH24 0x135653950E881CDD185AD9525B99195E081A5B9D985B1A59 PUSH1 0x42 SHL PUSH1 0x44 DUP3 ADD MSTORE PUSH1 0x64 ADD PUSH2 0x7D5 JUMP JUMPDEST PUSH1 0x1 PUSH1 0x1 PUSH1 0xA0 SHL SUB DUP6 AND PUSH1 0x0 SWAP1 DUP2 MSTORE PUSH1 0xA PUSH1 0x20 MSTORE PUSH1 0x40 DUP2 KECCAK256 DUP1 SLOAD DUP7 SWAP1 DUP2 LT PUSH2 0xD9F JUMPI PUSH2 0xD9F PUSH2 0x3585 JUMP JUMPDEST SWAP1 PUSH1 0x0 MSTORE PUSH1 0x20 PUSH1 0x0 KECCAK256 ADD SWAP1 POP PUSH2 0xDB3 PUSH2 0x2FC4 JUMP JUMPDEST PUSH2 0xDBE DUP3 DUP7 DUP4 PUSH2 0x18EE JUMP JUMPDEST DUP1 PUSH1 0x80 ADD MLOAD DUP2 PUSH1 0x60 ADD MLOAD PUSH2 0xDD2 SWAP2 SWAP1 PUSH2 0x35AE JUMP JUMPDEST DUP5 PUSH2 0x140 ADD MLOAD LT ISZERO PUSH2 0xE26 JUMPI PUSH1 0x40 MLOAD PUSH3 0x461BCD PUSH1 0xE5 SHL DUP2 MSTORE PUSH1 0x20 PUSH1 0x4 DUP3 ADD MSTORE PUSH1 0x1C PUSH1 0x24 DUP3 ADD MSTORE PUSH32 0x4D594E543A205374616B65206E6F742066756C6C792073657276656400000000 PUSH1 0x44 DUP3 ADD MSTORE PUSH1 0x64 ADD PUSH2 0x7D5 JUMP JUMPDEST PUSH1 0xA0 DUP2 ADD MLOAD ISZERO PUSH2 0xE78 JUMPI PUSH1 0x40 MLOAD PUSH3 0x461BCD PUSH1 0xE5 SHL DUP2 MSTORE PUSH1 0x20 PUSH1 0x4 DUP3 ADD MSTORE PUSH1 0x1C PUSH1 0x24 DUP3 ADD MSTORE PUSH32 0x4D594E543A205374616B6520616C726561647920756E6C6F636B656400000000 PUSH1 0x44 DUP3 ADD MSTORE PUSH1 0x64 ADD PUSH2 0x7D5 JUMP JUMPDEST PUSH2 0xE81 DUP5 PUSH2 0x19BC JUMP JUMPDEST PUSH2 0xE8B DUP5 DUP3 PUSH2 0x19D0 JUMP JUMPDEST PUSH1 0x0 DUP1 PUSH1 0x0 PUSH2 0xE9F DUP8 DUP6 DUP7 PUSH1 0x80 ADD MLOAD PUSH2 0x19F8 JUMP JUMPDEST SWAP4 POP SWAP4 POP SWAP4 POP POP PUSH2 0xEBC DUP11 DUP10 DUP7 PUSH1 0x20 ADD MLOAD DUP8 PUSH1 0x40 ADD MLOAD DUP8 DUP8 PUSH2 0x240C JUMP JUMPDEST DUP1 ISZERO PUSH2 0xECC JUMPI PUSH2 0xECC DUP8 DUP3 PUSH2 0x1B81 JUMP JUMPDEST DUP4 MLOAD DUP6 SLOAD PUSH1 0x20 DUP7 ADD MLOAD PUSH1 0x40 DUP8 ADD MLOAD PUSH1 0x60 DUP9 ADD MLOAD PUSH1 0x80 DUP10 ADD MLOAD PUSH1 0xA0 DUP11 ADD MLOAD PUSH1 0xC0 DUP12 ADD MLOAD PUSH5 0xFFFFFFFFFF SWAP1 SWAP8 AND PUSH1 0x1 PUSH1 0x1 PUSH1 0x70 SHL SUB NOT SWAP1 SWAP7 AND SWAP6 SWAP1 SWAP6 OR PUSH1 0x1 PUSH1 0x28 SHL PUSH1 0x1 PUSH1 0x1 PUSH1 0x48 SHL SUB SWAP6 DUP7 AND MUL OR PUSH1 0x1 PUSH1 0x70 SHL PUSH1 0x1 PUSH1 0xC8 SHL SUB NOT AND PUSH1 0x1 PUSH1 0x70 SHL SWAP5 SWAP1 SWAP4 AND SWAP4 SWAP1 SWAP4 MUL PUSH2 0xFFFF PUSH1 0xB8 SHL NOT AND SWAP2 SWAP1 SWAP2 OR PUSH1 0x1 PUSH1 0xB8 SHL PUSH2 0xFFFF SWAP3 DUP4 AND MUL OR PUSH4 0xFFFFFFFF PUSH1 0xC8 SHL NOT AND PUSH1 0x1 PUSH1 0xC8 SHL SWAP3 DUP3 AND SWAP3 SWAP1 SWAP3 MUL PUSH2 0xFFFF PUSH1 0xD8 SHL NOT AND SWAP2 SWAP1 SWAP2 OR PUSH1 0x1 PUSH1 0xD8 SHL SWAP2 SWAP1 SWAP3 AND MUL OR PUSH1 0xFF PUSH1 0xE8 SHL NOT AND PUSH1 0x1 PUSH1 0xE8 SHL SWAP2 ISZERO ISZERO SWAP2 SWAP1 SWAP2 MUL OR DUP6 SSTORE PUSH2 0xF99 DUP8 DUP8 PUSH2 0x1E09 JUMP JUMPDEST POP POP POP POP POP POP POP POP POP POP JUMP JUMPDEST PUSH2 0xFAF DUP3 DUP3 PUSH2 0x1840 JUMP JUMPDEST POP POP JUMP JUMPDEST PUSH1 0x60 DUP2 DUP4 LT DUP1 ISZERO PUSH2 0xFCA JUMPI POP PUSH1 0x7 SLOAD PUSH2 0xFFFF AND DUP3 GT ISZERO JUMPDEST PUSH2 0x100C JUMPI PUSH1 0x40 MLOAD PUSH3 0x461BCD PUSH1 0xE5 SHL DUP2 MSTORE PUSH1 0x20 PUSH1 0x4 DUP3 ADD MSTORE PUSH1 0x13 PUSH1 0x24 DUP3 ADD MSTORE PUSH19 0x135653950E881C985B99D9481A5B9D985B1A59 PUSH1 0x6A SHL PUSH1 0x44 DUP3 ADD MSTORE PUSH1 0x64 ADD PUSH2 0x7D5 JUMP JUMPDEST PUSH2 0x1016 DUP4 DUP4 PUSH2 0x359B JUMP JUMPDEST PUSH8 0xFFFFFFFFFFFFFFFF DUP2 GT ISZERO PUSH2 0x102E JUMPI PUSH2 0x102E PUSH2 0x3210 JUMP JUMPDEST PUSH1 0x40 MLOAD SWAP1 DUP1 DUP3 MSTORE DUP1 PUSH1 0x20 MUL PUSH1 0x20 ADD DUP3 ADD PUSH1 0x40 MSTORE DUP1 ISZERO PUSH2 0x1057 JUMPI DUP2 PUSH1 0x20 ADD PUSH1 0x20 DUP3 MUL DUP1 CALLDATASIZE DUP4 CALLDATACOPY ADD SWAP1 POP JUMPDEST POP SWAP1 POP DUP3 PUSH1 0x0 DUP1 JUMPDEST PUSH2 0x106B PUSH1 0x48 PUSH1 0x2 PUSH2 0x356E JUMP JUMPDEST PUSH1 0x0 DUP5 DUP2 MSTORE PUSH1 0x9 PUSH1 0x20 MSTORE PUSH1 0x40 SWAP1 KECCAK256 SLOAD PUSH1 0x1 PUSH1 0x90 SHL DUP2 DIV PUSH7 0xFFFFFFFFFFFFFF AND SWAP1 SWAP2 SHL PUSH1 0x1 PUSH1 0x48 SHL DUP3 DIV PUSH1 0x48 SHL PUSH18 0xFFFFFFFFFFFFFFFFFF000000000000000000 AND OR PUSH1 0x1 PUSH1 0x1 PUSH1 0x48 SHL SUB SWAP1 SWAP2 AND OR SWAP1 POP DUP1 DUP5 DUP4 PUSH2 0x10C6 DUP2 PUSH2 0x35C1 JUMP JUMPDEST SWAP5 POP DUP2 MLOAD DUP2 LT PUSH2 0x10D8 JUMPI PUSH2 0x10D8 PUSH2 0x3585 JUMP JUMPDEST PUSH1 0x20 SWAP1 DUP2 MUL SWAP2 SWAP1 SWAP2 ADD ADD MSTORE DUP5 PUSH2 0x10ED DUP5 PUSH2 0x35C1 JUMP JUMPDEST SWAP4 POP DUP4 LT PUSH2 0x105F JUMPI POP POP POP SWAP3 SWAP2 POP POP JUMP JUMPDEST CALLER PUSH1 0x1 PUSH1 0x1 PUSH1 0xA0 SHL SUB PUSH32 0x0 AND EQ PUSH2 0x1166 JUMPI PUSH1 0x40 MLOAD PUSH3 0x461BCD PUSH1 0xE5 SHL DUP2 MSTORE PUSH1 0x20 PUSH1 0x4 DUP3 ADD MSTORE PUSH1 0xD PUSH1 0x24 DUP3 ADD MSTORE PUSH13 0x2737BA103A34329027BBB732B9 PUSH1 0x99 SHL PUSH1 0x44 DUP3 ADD MSTORE PUSH1 0x64 ADD PUSH2 0x7D5 JUMP JUMPDEST PUSH1 0x5 DUP1 SLOAD PUSH1 0x1 PUSH1 0x1 PUSH1 0xA0 SHL SUB NOT AND PUSH1 0x1 PUSH1 0x1 PUSH1 0xA0 SHL SUB SWAP3 SWAP1 SWAP3 AND SWAP2 SWAP1 SWAP2 OR SWAP1 SSTORE JUMP JUMPDEST PUSH2 0x1190 PUSH2 0x2F63 JUMP JUMPDEST PUSH2 0x1198 PUSH2 0x2F63 JUMP JUMPDEST PUSH2 0x11A2 DUP3 DUP3 PUSH2 0x1840 JUMP JUMPDEST PUSH1 0x1 DUP3 PUSH2 0x140 ADD MLOAD GT PUSH2 0x11E9 JUMPI PUSH1 0x40 MLOAD PUSH3 0x461BCD PUSH1 0xE5 SHL DUP2 MSTORE PUSH1 0x20 PUSH1 0x4 DUP3 ADD MSTORE PUSH1 0xF PUSH1 0x24 DUP3 ADD MSTORE PUSH15 0x4D594E543A20546F6F206561726C79 PUSH1 0x88 SHL PUSH1 0x44 DUP3 ADD MSTORE PUSH1 0x64 ADD PUSH2 0x7D5 JUMP JUMPDEST DUP3 ISZERO PUSH2 0x1265 JUMPI DUP2 PUSH2 0x140 ADD MLOAD DUP4 GT ISZERO PUSH2 0x1254 JUMPI PUSH1 0x40 MLOAD PUSH3 0x461BCD PUSH1 0xE5 SHL DUP2 MSTORE PUSH1 0x20 PUSH1 0x4 DUP3 ADD MSTORE PUSH1 0x27 PUSH1 0x24 DUP3 ADD MSTORE PUSH32 0x4D594E543A206265666F72654461792063616E6E6F7420626520696E20746865 PUSH1 0x44 DUP3 ADD MSTORE PUSH7 0x20667574757265 PUSH1 0xC8 SHL PUSH1 0x64 DUP3 ADD MSTORE PUSH1 0x84 ADD PUSH2 0x7D5 JUMP JUMPDEST PUSH2 0x1260 DUP3 DUP5 PUSH1 0x0 PUSH2 0x24A9 JUMP JUMPDEST PUSH2 0x1276 JUMP JUMPDEST PUSH2 0x1276 DUP3 DUP4 PUSH2 0x140 ADD MLOAD PUSH1 0x0 PUSH2 0x24A9 JUMP JUMPDEST PUSH2 0x7E8 DUP3 DUP3 PUSH2 0x1E09 JUMP JUMPDEST PUSH1 0x60 PUSH1 0x4 DUP1 SLOAD PUSH2 0x6DF SWAP1 PUSH2 0x340C JUMP JUMPDEST PUSH1 0x0 CALLER DUP2 PUSH2 0x129D DUP3 DUP7 PUSH2 0x1318 JUMP JUMPDEST SWAP1 POP DUP4 DUP2 LT ISZERO PUSH2 0x12FD JUMPI PUSH1 0x40 MLOAD PUSH3 0x461BCD PUSH1 0xE5 SHL DUP2 MSTORE PUSH1 0x20 PUSH1 0x4 DUP3 ADD MSTORE PUSH1 0x25 PUSH1 0x24 DUP3 ADD MSTORE PUSH32 0x45524332303A2064656372656173656420616C6C6F77616E63652062656C6F77 PUSH1 0x44 DUP3 ADD MSTORE PUSH5 0x207A65726F PUSH1 0xD8 SHL PUSH1 0x64 DUP3 ADD MSTORE PUSH1 0x84 ADD PUSH2 0x7D5 JUMP JUMPDEST PUSH2 0x831 DUP3 DUP7 DUP7 DUP5 SUB PUSH2 0x1445 JUMP JUMPDEST PUSH1 0x0 CALLER PUSH2 0x770 DUP2 DUP6 DUP6 PUSH2 0x169C JUMP JUMPDEST PUSH1 0x1 PUSH1 0x1 PUSH1 0xA0 SHL SUB SWAP2 DUP3 AND PUSH1 0x0 SWAP1 DUP2 MSTORE PUSH1 0x1 PUSH1 0x20 SWAP1 DUP2 MSTORE PUSH1 0x40 DUP1 DUP4 KECCAK256 SWAP4 SWAP1 SWAP5 AND DUP3 MSTORE SWAP2 SWAP1 SWAP2 MSTORE KECCAK256 SLOAD SWAP1 JUMP JUMPDEST PUSH2 0x134B PUSH2 0x300A JUMP JUMPDEST PUSH1 0x7 SLOAD PUSH1 0x0 SWAP1 DUP2 SWAP1 DUP2 SWAP1 PUSH2 0x136E SWAP1 PUSH1 0x1 PUSH1 0x80 SHL SWAP1 DIV PUSH1 0x1 PUSH1 0x1 PUSH1 0x80 SHL SUB AND PUSH2 0x258E JUMP JUMPDEST PUSH1 0x40 DUP1 MLOAD PUSH2 0x1A0 DUP2 ADD DUP3 MSTORE PUSH1 0x6 SLOAD PUSH1 0x1 PUSH1 0x1 PUSH1 0x48 SHL SUB DUP1 DUP3 AND DUP4 MSTORE PUSH1 0x1 PUSH1 0x48 SHL DUP3 DIV DUP2 AND PUSH1 0x20 DUP5 ADD MSTORE PUSH5 0xFFFFFFFFFF PUSH1 0x1 PUSH1 0x90 SHL DUP4 DIV DUP2 AND SWAP5 DUP5 ADD SWAP5 SWAP1 SWAP5 MSTORE PUSH1 0x1 PUSH1 0xB8 SHL SWAP1 SWAP2 DIV DUP2 AND PUSH1 0x60 DUP4 ADD MSTORE PUSH1 0x7 SLOAD PUSH2 0xFFFF DUP2 AND PUSH1 0x80 DUP5 ADD MSTORE PUSH3 0x10000 DUP2 DIV SWAP1 SWAP2 AND PUSH1 0xA0 DUP4 ADD MSTORE PUSH1 0x1 PUSH1 0x58 SHL SWAP1 DIV SWAP1 SWAP2 AND PUSH1 0xC0 DUP3 ADD MSTORE PUSH1 0xE0 DUP2 ADD DUP3 SWAP1 MSTORE PUSH2 0x100 DUP2 ADD DUP4 SWAP1 MSTORE PUSH2 0x120 DUP2 ADD DUP5 SWAP1 MSTORE TIMESTAMP PUSH2 0x140 DUP3 ADD MSTORE SWAP3 SWAP6 POP SWAP1 SWAP4 POP SWAP2 POP PUSH2 0x160 DUP2 ADD PUSH2 0x141A PUSH1 0x2 SLOAD SWAP1 JUMP JUMPDEST DUP2 MSTORE PUSH1 0x20 ADD PUSH1 0xB PUSH1 0x0 PUSH2 0x142B PUSH2 0x23F0 JUMP JUMPDEST DUP2 MSTORE PUSH1 0x20 ADD SWAP1 DUP2 MSTORE PUSH1 0x20 ADD PUSH1 0x0 KECCAK256 SLOAD DUP2 MSTORE POP SWAP4 POP POP POP POP SWAP1 JUMP JUMPDEST PUSH1 0x1 PUSH1 0x1 PUSH1 0xA0 SHL SUB DUP4 AND PUSH2 0x14A7 JUMPI PUSH1 0x40 MLOAD PUSH3 0x461BCD PUSH1 0xE5 SHL DUP2 MSTORE PUSH1 0x20 PUSH1 0x4 DUP3 ADD MSTORE PUSH1 0x24 DUP1 DUP3 ADD MSTORE PUSH32 0x45524332303A20617070726F76652066726F6D20746865207A65726F20616464 PUSH1 0x44 DUP3 ADD MSTORE PUSH4 0x72657373 PUSH1 0xE0 SHL PUSH1 0x64 DUP3 ADD MSTORE PUSH1 0x84 ADD PUSH2 0x7D5 JUMP JUMPDEST PUSH1 0x1 PUSH1 0x1 PUSH1 0xA0 SHL SUB DUP3 AND PUSH2 0x1508 JUMPI PUSH1 0x40 MLOAD PUSH3 0x461BCD PUSH1 0xE5 SHL DUP2 MSTORE PUSH1 0x20 PUSH1 0x4 DUP3 ADD MSTORE PUSH1 0x22 PUSH1 0x24 DUP3 ADD MSTORE PUSH32 0x45524332303A20617070726F766520746F20746865207A65726F206164647265 PUSH1 0x44 DUP3 ADD MSTORE PUSH2 0x7373 PUSH1 0xF0 SHL PUSH1 0x64 DUP3 ADD MSTORE PUSH1 0x84 ADD PUSH2 0x7D5 JUMP JUMPDEST PUSH1 0x1 PUSH1 0x1 PUSH1 0xA0 SHL SUB DUP4 DUP2 AND PUSH1 0x0 DUP2 DUP2 MSTORE PUSH1 0x1 PUSH1 0x20 SWAP1 DUP2 MSTORE PUSH1 0x40 DUP1 DUP4 KECCAK256 SWAP5 DUP8 AND DUP1 DUP5 MSTORE SWAP5 DUP3 MSTORE SWAP2 DUP3 SWAP1 KECCAK256 DUP6 SWAP1 SSTORE SWAP1 MLOAD DUP5 DUP2 MSTORE PUSH32 0x8C5BE1E5EBEC7D5BD14F71427D1E84F3DD0314C0F7B2291E5B200AC8C7C3B925 SWAP2 ADD PUSH1 0x40 MLOAD DUP1 SWAP2 SUB SWAP1 LOG3 POP POP POP JUMP JUMPDEST PUSH1 0x1 PUSH1 0x1 PUSH1 0xA0 SHL SUB DUP3 AND PUSH2 0x15BF JUMPI PUSH1 0x40 MLOAD PUSH3 0x461BCD PUSH1 0xE5 SHL DUP2 MSTORE PUSH1 0x20 PUSH1 0x4 DUP3 ADD MSTORE PUSH1 0x1F PUSH1 0x24 DUP3 ADD MSTORE PUSH32 0x45524332303A206D696E7420746F20746865207A65726F206164647265737300 PUSH1 0x44 DUP3 ADD MSTORE PUSH1 0x64 ADD PUSH2 0x7D5 JUMP JUMPDEST DUP1 PUSH1 0x2 PUSH1 0x0 DUP3 DUP3 SLOAD PUSH2 0x15D1 SWAP2 SWAP1 PUSH2 0x35AE JUMP JUMPDEST SWAP1 SWAP2 SSTORE POP POP PUSH1 0x1 PUSH1 0x1 PUSH1 0xA0 SHL SUB DUP3 AND PUSH1 0x0 DUP2 DUP2 MSTORE PUSH1 0x20 DUP2 DUP2 MSTORE PUSH1 0x40 DUP1 DUP4 KECCAK256 DUP1 SLOAD DUP7 ADD SWAP1 SSTORE MLOAD DUP5 DUP2 MSTORE PUSH32 0xDDF252AD1BE2C89B69C2B068FC378DAA952BA7F163C4A11628F55A4DF523B3EF SWAP2 ADD PUSH1 0x40 MLOAD DUP1 SWAP2 SUB SWAP1 LOG3 POP POP JUMP JUMPDEST PUSH1 0x0 PUSH2 0x1634 DUP5 DUP5 PUSH2 0x1318 JUMP JUMPDEST SWAP1 POP PUSH1 0x0 NOT DUP2 EQ PUSH2 0xC89 JUMPI DUP2 DUP2 LT ISZERO PUSH2 0x168F JUMPI PUSH1 0x40 MLOAD PUSH3 0x461BCD PUSH1 0xE5 SHL DUP2 MSTORE PUSH1 0x20 PUSH1 0x4 DUP3 ADD MSTORE PUSH1 0x1D PUSH1 0x24 DUP3 ADD MSTORE PUSH32 0x45524332303A20696E73756666696369656E7420616C6C6F77616E6365000000 PUSH1 0x44 DUP3 ADD MSTORE PUSH1 0x64 ADD PUSH2 0x7D5 JUMP JUMPDEST PUSH2 0xC89 DUP5 DUP5 DUP5 DUP5 SUB PUSH2 0x1445 JUMP JUMPDEST PUSH1 0x1 PUSH1 0x1 PUSH1 0xA0 SHL SUB DUP4 AND PUSH2 0x1700 JUMPI PUSH1 0x40 MLOAD PUSH3 0x461BCD PUSH1 0xE5 SHL DUP2 MSTORE PUSH1 0x20 PUSH1 0x4 DUP3 ADD MSTORE PUSH1 0x25 PUSH1 0x24 DUP3 ADD MSTORE PUSH32 0x45524332303A207472616E736665722066726F6D20746865207A65726F206164 PUSH1 0x44 DUP3 ADD MSTORE PUSH5 0x6472657373 PUSH1 0xD8 SHL PUSH1 0x64 DUP3 ADD MSTORE PUSH1 0x84 ADD PUSH2 0x7D5 JUMP JUMPDEST PUSH1 0x1 PUSH1 0x1 PUSH1 0xA0 SHL SUB DUP3 AND PUSH2 0x1762 JUMPI PUSH1 0x40 MLOAD PUSH3 0x461BCD PUSH1 0xE5 SHL DUP2 MSTORE PUSH1 0x20 PUSH1 0x4 DUP3 ADD MSTORE PUSH1 0x23 PUSH1 0x24 DUP3 ADD MSTORE PUSH32 0x45524332303A207472616E7366657220746F20746865207A65726F2061646472 PUSH1 0x44 DUP3 ADD MSTORE PUSH3 0x657373 PUSH1 0xE8 SHL PUSH1 0x64 DUP3 ADD MSTORE PUSH1 0x84 ADD PUSH2 0x7D5 JUMP JUMPDEST PUSH1 0x1 PUSH1 0x1 PUSH1 0xA0 SHL SUB DUP4 AND PUSH1 0x0 SWAP1 DUP2 MSTORE PUSH1 0x20 DUP2 SWAP1 MSTORE PUSH1 0x40 SWAP1 KECCAK256 SLOAD DUP2 DUP2 LT ISZERO PUSH2 0x17DA JUMPI PUSH1 0x40 MLOAD PUSH3 0x461BCD PUSH1 0xE5 SHL DUP2 MSTORE PUSH1 0x20 PUSH1 0x4 DUP3 ADD MSTORE PUSH1 0x26 PUSH1 0x24 DUP3 ADD MSTORE PUSH32 0x45524332303A207472616E7366657220616D6F756E7420657863656564732062 PUSH1 0x44 DUP3 ADD MSTORE PUSH6 0x616C616E6365 PUSH1 0xD0 SHL PUSH1 0x64 DUP3 ADD MSTORE PUSH1 0x84 ADD PUSH2 0x7D5 JUMP JUMPDEST PUSH1 0x1 PUSH1 0x1 PUSH1 0xA0 SHL SUB DUP5 DUP2 AND PUSH1 0x0 DUP2 DUP2 MSTORE PUSH1 0x20 DUP2 DUP2 MSTORE PUSH1 0x40 DUP1 DUP4 KECCAK256 DUP8 DUP8 SUB SWAP1 SSTORE SWAP4 DUP8 AND DUP1 DUP4 MSTORE SWAP2 DUP5 SWAP1 KECCAK256 DUP1 SLOAD DUP8 ADD SWAP1 SSTORE SWAP3 MLOAD DUP6 DUP2 MSTORE SWAP1 SWAP3 PUSH32 0xDDF252AD1BE2C89B69C2B068FC378DAA952BA7F163C4A11628F55A4DF523B3EF SWAP2 ADD PUSH1 0x40 MLOAD DUP1 SWAP2 SUB SWAP1 LOG3 PUSH2 0xC89 JUMP JUMPDEST PUSH1 0x6 SLOAD PUSH1 0x1 PUSH1 0x1 PUSH1 0x48 SHL SUB DUP1 DUP3 AND DUP5 MSTORE PUSH1 0x1 PUSH1 0x48 SHL DUP3 DIV DUP2 AND PUSH1 0x20 DUP6 ADD MSTORE PUSH5 0xFFFFFFFFFF PUSH1 0x1 PUSH1 0x90 SHL DUP4 DIV DUP2 AND PUSH1 0x40 DUP7 ADD MSTORE PUSH1 0x1 PUSH1 0xB8 SHL SWAP1 SWAP3 DIV DUP2 AND PUSH1 0x60 DUP6 ADD MSTORE PUSH1 0x7 SLOAD PUSH2 0xFFFF DUP2 AND PUSH1 0x80 DUP7 ADD MSTORE PUSH3 0x10000 DUP2 DIV SWAP1 SWAP2 AND PUSH1 0xA0 DUP6 ADD MSTORE PUSH1 0x1 PUSH1 0x58 SHL DUP2 DIV SWAP1 SWAP2 AND PUSH1 0xC0 DUP5 ADD MSTORE PUSH2 0x18C5 SWAP1 PUSH1 0x1 PUSH1 0x1 PUSH1 0x80 SHL SUB PUSH1 0x1 PUSH1 0x80 SHL SWAP1 SWAP2 DIV AND PUSH2 0x258E JUMP JUMPDEST PUSH1 0xE0 DUP6 ADD MSTORE PUSH2 0x100 DUP5 ADD MSTORE PUSH2 0x120 DUP4 ADD MSTORE PUSH2 0x18DE PUSH2 0x23F0 JUMP JUMPDEST PUSH2 0x140 DUP4 ADD MSTORE PUSH2 0xFAF DUP3 DUP3 PUSH2 0x25FB JUMP JUMPDEST DUP3 SLOAD PUSH5 0xFFFFFFFFFF DUP4 DUP2 AND SWAP2 AND EQ PUSH2 0x1948 JUMPI PUSH1 0x40 MLOAD PUSH3 0x461BCD PUSH1 0xE5 SHL DUP2 MSTORE PUSH1 0x20 PUSH1 0x4 DUP3 ADD MSTORE PUSH1 0x1F PUSH1 0x24 DUP3 ADD MSTORE PUSH32 0x4D594E543A207374616B654964506172616D206E6F7420696E207374616B6500 PUSH1 0x44 DUP3 ADD MSTORE PUSH1 0x64 ADD PUSH2 0x7D5 JUMP JUMPDEST SWAP2 SLOAD PUSH5 0xFFFFFFFFFF DUP2 AND DUP4 MSTORE PUSH1 0x1 PUSH1 0x1 PUSH1 0x48 SHL SUB PUSH1 0x1 PUSH1 0x28 SHL DUP3 DIV DUP2 AND PUSH1 0x20 DUP6 ADD MSTORE PUSH1 0x1 PUSH1 0x70 SHL DUP3 DIV AND PUSH1 0x40 DUP5 ADD MSTORE PUSH2 0xFFFF PUSH1 0x1 PUSH1 0xB8 SHL DUP3 DIV DUP2 AND PUSH1 0x60 DUP6 ADD MSTORE PUSH1 0x1 PUSH1 0xC8 SHL DUP3 DIV DUP2 AND PUSH1 0x80 DUP6 ADD MSTORE PUSH1 0x1 PUSH1 0xD8 SHL DUP3 DIV AND PUSH1 0xA0 DUP5 ADD MSTORE PUSH1 0xFF PUSH1 0x1 PUSH1 0xE8 SHL SWAP1 SWAP2 DIV AND ISZERO ISZERO PUSH1 0xC0 SWAP1 SWAP3 ADD SWAP2 SWAP1 SWAP2 MSTORE POP JUMP JUMPDEST PUSH2 0x19CD DUP2 DUP3 PUSH2 0x140 ADD MLOAD PUSH1 0x1 PUSH2 0x24A9 JUMP JUMPDEST POP JUMP JUMPDEST DUP1 PUSH1 0x40 ADD MLOAD DUP3 PUSH1 0xA0 ADD DUP2 DUP2 MLOAD PUSH2 0x19E6 SWAP2 SWAP1 PUSH2 0x359B JUMP JUMPDEST SWAP1 MSTORE POP PUSH2 0x140 SWAP1 SWAP2 ADD MLOAD PUSH1 0xA0 SWAP1 SWAP2 ADD MSTORE JUMP JUMPDEST PUSH1 0x0 DUP1 PUSH1 0x0 DUP1 DUP6 PUSH1 0x80 ADD MLOAD DUP6 LT ISZERO PUSH2 0x1A3F JUMPI PUSH2 0x1A23 DUP8 DUP8 PUSH1 0x60 ADD MLOAD DUP9 PUSH1 0x80 ADD MLOAD DUP9 DUP11 PUSH1 0x40 ADD MLOAD PUSH2 0x2663 JUMP JUMPDEST PUSH1 0x20 DUP9 ADD MLOAD SWAP2 SWAP5 POP SWAP3 POP PUSH2 0x1A38 SWAP1 DUP5 SWAP1 PUSH2 0x35AE JUMP JUMPDEST SWAP4 POP PUSH2 0x1A8D JUMP JUMPDEST PUSH1 0x40 DUP7 ADD MLOAD PUSH1 0x60 DUP8 ADD MLOAD PUSH2 0x1A5E SWAP2 DUP10 SWAP2 PUSH2 0x1A59 DUP10 DUP3 PUSH2 0x35AE JUMP JUMPDEST PUSH2 0x2751 JUMP JUMPDEST SWAP3 POP DUP3 DUP7 PUSH1 0x20 ADD MLOAD PUSH2 0x1A70 SWAP2 SWAP1 PUSH2 0x35AE JUMP JUMPDEST SWAP4 POP PUSH2 0x1A8A DUP7 PUSH1 0x60 ADD MLOAD DUP8 PUSH1 0x80 ADD MLOAD DUP9 PUSH1 0xA0 ADD MLOAD DUP8 PUSH2 0x28C9 JUMP JUMPDEST SWAP2 POP JUMPDEST DUP2 ISZERO PUSH2 0x1AB3 JUMPI DUP4 DUP3 GT ISZERO PUSH2 0x1AA4 JUMPI POP PUSH1 0x0 SWAP3 PUSH2 0x1AB3 JUMP JUMPDEST POP DUP1 PUSH2 0x1AB0 DUP2 DUP6 PUSH2 0x359B JUMP JUMPDEST SWAP4 POP JUMPDEST SWAP4 POP SWAP4 POP SWAP4 POP SWAP4 JUMP JUMPDEST DUP7 PUSH5 0xFFFFFFFFFF AND CALLER PUSH1 0x1 PUSH1 0x1 PUSH1 0xA0 SHL SUB AND PUSH32 0x72D9C5A7AB13846E08D9C838F9E866A1BB4A66A2FD3BA3C9E7DA3CF9E394DFD7 PUSH1 0xB8 DUP8 PUSH1 0x1 PUSH1 0x1 PUSH1 0x48 SHL SUB AND SWAP1 SHL PUSH1 0x70 DUP10 PUSH1 0x1 PUSH1 0x1 PUSH1 0x48 SHL SUB AND SWAP1 SHL PUSH1 0x28 DUP12 PUSH1 0x1 PUSH1 0x1 PUSH1 0x48 SHL SUB AND SWAP1 SHL TIMESTAMP PUSH5 0xFFFFFFFFFF AND OR OR OR DUP5 PUSH2 0x1B30 JUMPI PUSH1 0x0 PUSH2 0x1B36 JUMP JUMPDEST PUSH1 0x1 PUSH1 0x58 SHL JUMPDEST PUSH12 0xFFFFFFFFFFFFFFFFFFFFFFFF AND PUSH1 0x48 DUP8 PUSH2 0xFFFF AND SWAP1 SHL DUP9 PUSH1 0x1 PUSH1 0x1 PUSH1 0x48 SHL SUB AND OR OR PUSH1 0x40 MLOAD PUSH2 0x1B70 SWAP3 SWAP2 SWAP1 SWAP2 DUP3 MSTORE PUSH1 0x20 DUP3 ADD MSTORE PUSH1 0x40 ADD SWAP1 JUMP JUMPDEST PUSH1 0x40 MLOAD DUP1 SWAP2 SUB SWAP1 LOG3 POP POP POP POP POP POP POP JUMP JUMPDEST PUSH1 0x0 PUSH2 0x1B8E PUSH1 0x2 DUP4 PUSH2 0x354C JUMP JUMPDEST SWAP1 POP DUP1 ISZERO PUSH2 0x1BB4 JUMPI PUSH2 0x1BB4 PUSH20 0x9A6A414D6F3497C05E3B1DE90520765FA1E07C03 DUP3 PUSH2 0x1569 JUMP JUMPDEST PUSH2 0x1BBE DUP2 DUP4 PUSH2 0x359B JUMP JUMPDEST SWAP1 POP DUP1 DUP4 PUSH1 0x60 ADD DUP2 DUP2 MLOAD PUSH2 0x1BD2 SWAP2 SWAP1 PUSH2 0x35AE JUMP JUMPDEST SWAP1 MSTORE POP POP POP POP JUMP JUMPDEST DUP2 PUSH1 0x20 ADD MLOAD DUP2 GT ISZERO PUSH2 0x7E8 JUMPI PUSH1 0x0 PUSH2 0x1BF6 DUP3 DUP5 PUSH1 0x80 ADD MLOAD PUSH2 0x2929 JUMP JUMPDEST SWAP1 POP PUSH1 0x0 DUP4 PUSH1 0x40 ADD MLOAD PUSH3 0x186A0 DUP4 DUP6 PUSH2 0x1C0F SWAP2 SWAP1 PUSH2 0x35AE JUMP JUMPDEST PUSH2 0x1C19 SWAP2 SWAP1 PUSH2 0x356E JUMP JUMPDEST PUSH2 0x1C23 SWAP2 SWAP1 PUSH2 0x354C JUMP JUMPDEST SWAP1 POP PUSH2 0x1C34 PUSH1 0x1 PUSH1 0x1 PUSH1 0x28 SHL PUSH2 0x359B JUMP JUMPDEST DUP2 GT ISZERO PUSH2 0x1C4D JUMPI PUSH2 0x1C4A PUSH1 0x1 PUSH1 0x1 PUSH1 0x28 SHL PUSH2 0x359B JUMP JUMPDEST SWAP1 POP JUMPDEST DUP5 PUSH1 0x40 ADD MLOAD DUP2 GT ISZERO PUSH2 0x1C6D JUMPI PUSH1 0x40 DUP6 ADD DUP2 SWAP1 MSTORE DUP4 MLOAD PUSH2 0x1C6D SWAP1 DUP3 SWAP1 PUSH2 0x2AA0 JUMP JUMPDEST POP POP POP POP POP JUMP JUMPDEST DUP2 SLOAD PUSH1 0x0 SWAP1 PUSH2 0x1C85 SWAP1 PUSH1 0x1 SWAP1 PUSH2 0x359B JUMP JUMPDEST SWAP1 POP DUP1 DUP3 EQ PUSH2 0x1DD2 JUMPI DUP3 DUP2 DUP2 SLOAD DUP2 LT PUSH2 0x1CA0 JUMPI PUSH2 0x1CA0 PUSH2 0x3585 JUMP JUMPDEST SWAP1 PUSH1 0x0 MSTORE PUSH1 0x20 PUSH1 0x0 KECCAK256 ADD DUP4 DUP4 DUP2 SLOAD DUP2 LT PUSH2 0x1CBC JUMPI PUSH2 0x1CBC PUSH2 0x3585 JUMP JUMPDEST PUSH1 0x0 SWAP2 DUP3 MSTORE PUSH1 0x20 SWAP1 SWAP2 KECCAK256 DUP3 SLOAD SWAP2 ADD DUP1 SLOAD PUSH5 0xFFFFFFFFFF NOT DUP2 AND PUSH5 0xFFFFFFFFFF SWAP1 SWAP4 AND SWAP3 DUP4 OR DUP3 SSTORE DUP4 SLOAD PUSH1 0x1 PUSH1 0x1 PUSH1 0x48 SHL SUB PUSH1 0x1 PUSH1 0x28 SHL SWAP2 DUP3 SWAP1 DIV DUP2 AND SWAP1 SWAP2 MUL PUSH1 0x1 PUSH1 0x1 PUSH1 0x70 SHL SUB NOT SWAP1 SWAP3 AND SWAP1 SWAP4 OR OR DUP1 DUP3 SSTORE DUP4 SLOAD PUSH1 0x1 PUSH1 0x70 SHL SWAP1 DUP2 SWAP1 DIV SWAP1 SWAP4 AND SWAP1 SWAP3 MUL PUSH9 0xFFFFFFFFFFFFFFFFFF PUSH1 0x70 SHL NOT DUP4 AND DUP2 OR DUP3 SSTORE DUP4 SLOAD PUSH2 0xFFFF PUSH1 0x1 PUSH1 0xB8 SHL SWAP2 DUP3 SWAP1 DIV DUP2 AND SWAP1 SWAP2 MUL PUSH2 0xFFFF PUSH1 0xB8 SHL NOT SWAP1 SWAP3 AND PUSH1 0x1 PUSH1 0x70 SHL PUSH1 0x1 PUSH1 0xC8 SHL SUB NOT SWAP1 SWAP5 AND SWAP4 SWAP1 SWAP4 OR OR DUP1 DUP3 SSTORE DUP4 SLOAD PUSH1 0x1 PUSH1 0xC8 SHL SWAP1 DUP2 SWAP1 DIV DUP5 AND MUL PUSH2 0xFFFF PUSH1 0xC8 SHL NOT DUP3 AND DUP2 OR DUP4 SSTORE DUP5 SLOAD PUSH1 0x1 PUSH1 0xD8 SHL SWAP1 DUP2 SWAP1 DIV SWAP1 SWAP5 AND SWAP1 SWAP4 MUL PUSH2 0xFFFF PUSH1 0xD8 SHL NOT SWAP1 SWAP4 AND PUSH4 0xFFFFFFFF PUSH1 0xC8 SHL NOT SWAP1 SWAP2 AND OR SWAP2 SWAP1 SWAP2 OR DUP1 DUP3 SSTORE SWAP2 SLOAD PUSH1 0xFF PUSH1 0x1 PUSH1 0xE8 SHL SWAP2 DUP3 SWAP1 DIV AND ISZERO ISZERO MUL PUSH1 0xFF PUSH1 0xE8 SHL NOT SWAP1 SWAP3 AND SWAP2 SWAP1 SWAP2 OR SWAP1 SSTORE JUMPDEST DUP3 DUP1 SLOAD DUP1 PUSH2 0x1DE2 JUMPI PUSH2 0x1DE2 PUSH2 0x35DA JUMP JUMPDEST PUSH1 0x0 DUP3 DUP2 MSTORE PUSH1 0x20 SWAP1 KECCAK256 DUP2 ADD PUSH1 0x0 NOT SWAP1 DUP2 ADD DUP1 SLOAD PUSH1 0x1 PUSH1 0x1 PUSH1 0xF0 SHL SUB NOT AND SWAP1 SSTORE ADD SWAP1 SSTORE POP POP POP JUMP JUMPDEST DUP1 MLOAD DUP3 MLOAD EQ ISZERO DUP1 PUSH2 0x1E22 JUMPI POP DUP1 PUSH1 0x20 ADD MLOAD DUP3 PUSH1 0x20 ADD MLOAD EQ ISZERO JUMPDEST DUP1 PUSH2 0x1E35 JUMPI POP DUP1 PUSH1 0x40 ADD MLOAD DUP3 PUSH1 0x40 ADD MLOAD EQ ISZERO JUMPDEST DUP1 PUSH2 0x1E48 JUMPI POP DUP1 PUSH1 0x60 ADD MLOAD DUP3 PUSH1 0x60 ADD MLOAD EQ ISZERO JUMPDEST ISZERO PUSH2 0x1ECB JUMPI DUP2 MLOAD PUSH1 0x6 DUP1 SLOAD PUSH1 0x20 DUP6 ADD MLOAD PUSH1 0x40 DUP7 ADD MLOAD PUSH1 0x60 DUP8 ADD MLOAD PUSH1 0x1 PUSH1 0x1 PUSH1 0x48 SHL SUB SWAP1 DUP2 AND PUSH1 0x1 PUSH1 0xB8 SHL MUL PUSH1 0x1 PUSH1 0x1 PUSH1 0xB8 SHL SUB PUSH5 0xFFFFFFFFFF SWAP1 SWAP4 AND PUSH1 0x1 PUSH1 0x90 SHL MUL SWAP3 SWAP1 SWAP3 AND PUSH18 0xFFFFFFFFFFFFFFFFFFFFFFFFFFFFFFFFFFFF SWAP4 DUP3 AND PUSH1 0x1 PUSH1 0x48 SHL MUL PUSH1 0x1 PUSH1 0x1 PUSH1 0x90 SHL SUB NOT SWAP1 SWAP6 AND SWAP2 SWAP1 SWAP7 AND OR SWAP3 SWAP1 SWAP3 OR AND SWAP3 SWAP1 SWAP3 OR SWAP2 SWAP1 SWAP2 OR SWAP1 SSTORE JUMPDEST DUP1 PUSH1 0x80 ADD MLOAD DUP3 PUSH1 0x80 ADD MLOAD EQ ISZERO DUP1 PUSH2 0x1EEA JUMPI POP DUP1 PUSH1 0xA0 ADD MLOAD DUP3 PUSH1 0xA0 ADD MLOAD EQ ISZERO JUMPDEST DUP1 PUSH2 0x1F0B JUMPI POP DUP1 PUSH1 0xC0 ADD MLOAD PUSH5 0xFFFFFFFFFF AND DUP3 PUSH1 0xC0 ADD MLOAD PUSH5 0xFFFFFFFFFF AND EQ ISZERO JUMPDEST DUP1 PUSH2 0x1F1E JUMPI POP DUP1 PUSH1 0xE0 ADD MLOAD DUP3 PUSH1 0xE0 ADD MLOAD EQ ISZERO JUMPDEST DUP1 PUSH2 0x1F33 JUMPI POP DUP1 PUSH2 0x100 ADD MLOAD DUP3 PUSH2 0x100 ADD MLOAD EQ ISZERO JUMPDEST DUP1 PUSH2 0x1F48 JUMPI POP DUP1 PUSH2 0x120 ADD MLOAD DUP3 PUSH2 0x120 ADD MLOAD EQ ISZERO JUMPDEST ISZERO PUSH2 0xFAF JUMPI PUSH1 0x80 DUP3 ADD MLOAD PUSH1 0x7 DUP1 SLOAD PUSH1 0xA0 DUP6 ADD MLOAD PUSH1 0xC0 DUP7 ADD MLOAD PUSH5 0xFFFFFFFFFF AND PUSH1 0x1 PUSH1 0x58 SHL MUL PUSH5 0xFFFFFFFFFF PUSH1 0x58 SHL NOT PUSH1 0x1 PUSH1 0x1 PUSH1 0x48 SHL SUB SWAP1 SWAP3 AND PUSH3 0x10000 MUL PUSH11 0xFFFFFFFFFFFFFFFFFFFFFF NOT SWAP1 SWAP4 AND PUSH2 0xFFFF SWAP1 SWAP6 AND SWAP5 SWAP1 SWAP5 OR SWAP2 SWAP1 SWAP2 OR AND SWAP2 SWAP1 SWAP2 OR SWAP1 SSTORE PUSH2 0x120 DUP3 ADD MLOAD PUSH2 0x100 DUP4 ADD MLOAD PUSH1 0xE0 DUP5 ADD MLOAD PUSH2 0x1FC8 SWAP3 SWAP2 SWAP1 PUSH2 0x2AF9 JUMP JUMPDEST PUSH1 0x7 DUP1 SLOAD PUSH1 0x1 PUSH1 0x1 PUSH1 0x80 SHL SUB SWAP3 DUP4 AND PUSH1 0x1 PUSH1 0x80 SHL MUL SWAP3 AND SWAP2 SWAP1 SWAP2 OR SWAP1 SSTORE POP POP JUMP JUMPDEST PUSH2 0x15B3 DUP3 GT ISZERO PUSH2 0x204B JUMPI PUSH1 0x40 MLOAD PUSH3 0x461BCD PUSH1 0xE5 SHL DUP2 MSTORE PUSH1 0x20 PUSH1 0x4 DUP3 ADD MSTORE PUSH1 0x27 PUSH1 0x24 DUP3 ADD MSTORE PUSH32 0x4D594E543A206E65775374616B65644461797320686967686572207468616E20 PUSH1 0x44 DUP3 ADD MSTORE PUSH7 0x6D6178696D756D PUSH1 0xC8 SHL PUSH1 0x64 DUP3 ADD MSTORE PUSH1 0x84 ADD PUSH2 0x7D5 JUMP JUMPDEST PUSH1 0x0 PUSH2 0x2057 DUP5 DUP5 PUSH2 0x2929 JUMP JUMPDEST SWAP1 POP PUSH1 0x0 DUP6 PUSH1 0x40 ADD MLOAD PUSH3 0x186A0 DUP4 DUP8 PUSH2 0x2070 SWAP2 SWAP1 PUSH2 0x35AE JUMP JUMPDEST PUSH2 0x207A SWAP2 SWAP1 PUSH2 0x356E JUMP JUMPDEST PUSH2 0x2084 SWAP2 SWAP1 PUSH2 0x354C JUMP JUMPDEST SWAP1 POP DUP1 PUSH1 0x0 SUB PUSH2 0x20FC JUMPI PUSH1 0x40 MLOAD PUSH3 0x461BCD PUSH1 0xE5 SHL DUP2 MSTORE PUSH1 0x20 PUSH1 0x4 DUP3 ADD MSTORE PUSH1 0x38 PUSH1 0x24 DUP3 ADD MSTORE PUSH32 0x4D594E543A206E65775374616B6564486561727473206D757374206265206174 PUSH1 0x44 DUP3 ADD MSTORE PUSH32 0x206C65617374206D696E696D756D207368617265526174650000000000000000 PUSH1 0x64 DUP3 ADD MSTORE PUSH1 0x84 ADD PUSH2 0x7D5 JUMP JUMPDEST PUSH1 0x0 PUSH1 0x1 DUP8 PUSH2 0x140 ADD MLOAD LT PUSH2 0x2121 JUMPI PUSH2 0x140 DUP8 ADD MLOAD PUSH2 0x211C SWAP1 PUSH1 0x1 PUSH2 0x35AE JUMP JUMPDEST PUSH2 0x212C JUMP JUMPDEST PUSH2 0x212C PUSH1 0x1 DUP1 PUSH2 0x35AE JUMP JUMPDEST SWAP1 POP PUSH1 0x0 DUP8 PUSH1 0xC0 ADD DUP1 MLOAD PUSH2 0x213F SWAP1 PUSH2 0x35F0 JUMP JUMPDEST PUSH5 0xFFFFFFFFFF AND SWAP1 DUP2 SWAP1 MSTORE CALLER PUSH1 0x0 SWAP1 DUP2 MSTORE PUSH1 0xA PUSH1 0x20 MSTORE PUSH1 0x40 SWAP1 KECCAK256 SWAP1 SWAP2 POP PUSH2 0x227E SWAP1 DUP3 DUP10 DUP7 DUP7 DUP12 DUP12 PUSH1 0x40 DUP1 MLOAD PUSH1 0xE0 DUP2 ADD DUP3 MSTORE PUSH5 0xFFFFFFFFFF SWAP8 DUP9 AND DUP2 MSTORE PUSH1 0x1 PUSH1 0x1 PUSH1 0x48 SHL SUB SWAP7 DUP8 AND PUSH1 0x20 DUP1 DUP4 ADD SWAP2 DUP3 MSTORE SWAP7 DUP9 AND SWAP3 DUP3 ADD SWAP3 DUP4 MSTORE PUSH2 0xFFFF SWAP6 DUP7 AND PUSH1 0x60 DUP4 ADD SWAP1 DUP2 MSTORE SWAP5 DUP7 AND PUSH1 0x80 DUP4 ADD SWAP1 DUP2 MSTORE PUSH1 0x0 PUSH1 0xA0 DUP5 ADD DUP2 DUP2 MSTORE SWAP6 ISZERO ISZERO PUSH1 0xC0 DUP6 ADD SWAP1 DUP2 MSTORE DUP13 SLOAD PUSH1 0x1 DUP2 ADD DUP15 SSTORE SWAP13 DUP3 MSTORE SWAP9 SWAP1 KECCAK256 SWAP3 MLOAD SWAP3 SWAP1 SWAP11 ADD DUP1 SLOAD SWAP2 MLOAD SWAP4 MLOAD SWAP6 MLOAD SWAP11 MLOAD SWAP5 MLOAD SWAP8 MLOAD ISZERO ISZERO PUSH1 0x1 PUSH1 0xE8 SHL MUL PUSH1 0xFF PUSH1 0xE8 SHL NOT SWAP9 DUP9 AND PUSH1 0x1 PUSH1 0xD8 SHL MUL PUSH2 0xFFFF PUSH1 0xD8 SHL NOT SWAP7 DUP10 AND PUSH1 0x1 PUSH1 0xC8 SHL MUL SWAP7 SWAP1 SWAP7 AND PUSH4 0xFFFFFFFF PUSH1 0xC8 SHL NOT SWAP13 SWAP1 SWAP9 AND PUSH1 0x1 PUSH1 0xB8 SHL MUL PUSH2 0xFFFF PUSH1 0xB8 SHL NOT SWAP8 DUP12 AND PUSH1 0x1 PUSH1 0x70 SHL MUL SWAP8 SWAP1 SWAP8 AND PUSH1 0x1 PUSH1 0x70 SHL PUSH1 0x1 PUSH1 0xC8 SHL SUB NOT SWAP6 SWAP1 SWAP11 AND PUSH1 0x1 PUSH1 0x28 SHL MUL PUSH1 0x1 PUSH1 0x1 PUSH1 0x70 SHL SUB NOT SWAP1 SWAP4 AND SWAP4 SWAP1 SWAP11 AND SWAP3 SWAP1 SWAP3 OR OR SWAP2 SWAP1 SWAP2 AND SWAP6 SWAP1 SWAP6 OR SWAP2 SWAP1 SWAP2 OR SWAP6 SWAP1 SWAP6 AND OR SWAP4 SWAP1 SWAP4 OR SWAP3 SWAP1 SWAP3 AND OR SWAP1 SSTORE JUMP JUMPDEST PUSH2 0x228B DUP2 DUP9 DUP6 DUP10 DUP10 PUSH2 0x2B1D JUMP JUMPDEST DUP3 DUP9 PUSH1 0x20 ADD DUP2 DUP2 MLOAD PUSH2 0x229D SWAP2 SWAP1 PUSH2 0x35AE JUMP JUMPDEST SWAP1 MSTORE POP DUP8 MLOAD DUP8 SWAP1 DUP10 SWAP1 PUSH2 0x22B1 SWAP1 DUP4 SWAP1 PUSH2 0x35AE JUMP JUMPDEST SWAP1 MSTORE POP POP POP POP POP POP POP POP POP JUMP JUMPDEST PUSH1 0x1 PUSH1 0x1 PUSH1 0xA0 SHL SUB DUP3 AND PUSH2 0x231E JUMPI PUSH1 0x40 MLOAD PUSH3 0x461BCD PUSH1 0xE5 SHL DUP2 MSTORE PUSH1 0x20 PUSH1 0x4 DUP3 ADD MSTORE PUSH1 0x21 PUSH1 0x24 DUP3 ADD MSTORE PUSH32 0x45524332303A206275726E2066726F6D20746865207A65726F20616464726573 PUSH1 0x44 DUP3 ADD MSTORE PUSH1 0x73 PUSH1 0xF8 SHL PUSH1 0x64 DUP3 ADD MSTORE PUSH1 0x84 ADD PUSH2 0x7D5 JUMP JUMPDEST PUSH1 0x1 PUSH1 0x1 PUSH1 0xA0 SHL SUB DUP3 AND PUSH1 0x0 SWAP1 DUP2 MSTORE PUSH1 0x20 DUP2 SWAP1 MSTORE PUSH1 0x40 SWAP1 KECCAK256 SLOAD DUP2 DUP2 LT ISZERO PUSH2 0x2392 JUMPI PUSH1 0x40 MLOAD PUSH3 0x461BCD PUSH1 0xE5 SHL DUP2 MSTORE PUSH1 0x20 PUSH1 0x4 DUP3 ADD MSTORE PUSH1 0x22 PUSH1 0x24 DUP3 ADD MSTORE PUSH32 0x45524332303A206275726E20616D6F756E7420657863656564732062616C616E PUSH1 0x44 DUP3 ADD MSTORE PUSH2 0x6365 PUSH1 0xF0 SHL PUSH1 0x64 DUP3 ADD MSTORE PUSH1 0x84 ADD PUSH2 0x7D5 JUMP JUMPDEST PUSH1 0x1 PUSH1 0x1 PUSH1 0xA0 SHL SUB DUP4 AND PUSH1 0x0 DUP2 DUP2 MSTORE PUSH1 0x20 DUP2 DUP2 MSTORE PUSH1 0x40 DUP1 DUP4 KECCAK256 DUP7 DUP7 SUB SWAP1 SSTORE PUSH1 0x2 DUP1 SLOAD DUP8 SWAP1 SUB SWAP1 SSTORE MLOAD DUP6 DUP2 MSTORE SWAP2 SWAP3 SWAP2 PUSH32 0xDDF252AD1BE2C89B69C2B068FC378DAA952BA7F163C4A11628F55A4DF523B3EF SWAP2 ADD PUSH1 0x40 MLOAD DUP1 SWAP2 SUB SWAP1 LOG3 POP POP POP JUMP JUMPDEST PUSH1 0x0 PUSH1 0x3C PUSH2 0x2402 PUSH4 0x65645B8F TIMESTAMP PUSH2 0x359B JUMP JUMPDEST PUSH2 0xBE0 SWAP2 SWAP1 PUSH2 0x354C JUMP JUMPDEST PUSH1 0x40 DUP1 MLOAD TIMESTAMP PUSH5 0xFFFFFFFFFF SWAP1 DUP2 AND PUSH14 0xFFFFFFFFFFFFFFFFFF0000000000 PUSH1 0x28 DUP10 SWAP1 SHL AND OR PUSH9 0xFFFFFFFFFFFFFFFFFF PUSH1 0x70 SHL PUSH1 0x70 DUP9 SWAP1 SHL AND OR PUSH1 0x1 PUSH1 0x1 PUSH1 0xB8 SHL SUB NOT PUSH1 0xB8 DUP8 SWAP1 SHL AND OR DUP3 MSTORE PUSH1 0x1 PUSH1 0x1 PUSH1 0x48 SHL SUB DUP5 AND PUSH1 0x20 DUP4 ADD MSTORE CALLER SWAP3 SWAP1 DUP9 AND SWAP2 PUSH1 0x1 PUSH1 0x1 PUSH1 0xA0 SHL SUB DUP11 AND SWAP2 PUSH32 0xD824970A2CF19CC2B630C87CE5B00F67301CAC3AC60513D027C7A39129F93B46 SWAP2 ADD PUSH1 0x40 MLOAD DUP1 SWAP2 SUB SWAP1 LOG4 POP POP POP POP POP POP JUMP JUMPDEST DUP2 DUP4 PUSH1 0x80 ADD MLOAD LT PUSH2 0x24B9 JUMPI POP POP POP JUMP JUMPDEST PUSH2 0x24DD PUSH1 0x40 MLOAD DUP1 PUSH1 0x60 ADD PUSH1 0x40 MSTORE DUP1 PUSH1 0x0 DUP2 MSTORE PUSH1 0x20 ADD PUSH1 0x0 DUP2 MSTORE PUSH1 0x20 ADD PUSH1 0x0 DUP2 MSTORE POP SWAP1 JUMP JUMPDEST DUP4 MLOAD PUSH1 0x2 SLOAD PUSH2 0x24EC SWAP2 SWAP1 PUSH2 0x35AE JUMP JUMPDEST DUP2 MSTORE PUSH1 0x80 DUP5 ADD MLOAD PUSH2 0x24FE DUP6 DUP4 DUP4 PUSH2 0x2BB1 JUMP JUMPDEST PUSH1 0x20 DUP6 ADD MLOAD ISZERO PUSH2 0x2529 JUMPI DUP5 PUSH1 0x20 ADD MLOAD DUP6 PUSH1 0xA0 ADD DUP2 DUP2 MLOAD PUSH2 0x251E SWAP2 SWAP1 PUSH2 0x35AE JUMP JUMPDEST SWAP1 MSTORE POP PUSH1 0x0 PUSH1 0x20 DUP7 ADD MSTORE JUMPDEST DUP4 PUSH2 0x2533 DUP3 PUSH2 0x35C1 JUMP JUMPDEST SWAP2 POP DUP2 LT ISZERO PUSH2 0x254C JUMPI PUSH2 0x2547 DUP6 DUP4 DUP4 PUSH2 0x2BB1 JUMP JUMPDEST PUSH2 0x2529 JUMP JUMPDEST PUSH2 0x255B DUP6 PUSH1 0x80 ADD MLOAD DUP3 DUP6 PUSH2 0x2C29 JUMP JUMPDEST PUSH1 0x80 DUP6 ADD DUP2 SWAP1 MSTORE PUSH1 0x20 DUP3 ADD MLOAD ISZERO PUSH2 0x1C6D JUMPI PUSH2 0x1C6D PUSH20 0x9A6A414D6F3497C05E3B1DE90520765FA1E07C03 DUP4 PUSH1 0x20 ADD MLOAD PUSH2 0x1569 JUMP JUMPDEST PUSH1 0x0 DUP1 DUP1 PUSH2 0x259E PUSH1 0x33 PUSH1 0x2 PUSH2 0x356E JUMP JUMPDEST PUSH1 0x1 PUSH1 0x1 PUSH1 0x80 SHL SUB DUP1 DUP7 AND SWAP1 SWAP2 SHR AND SWAP3 POP PUSH2 0x25C1 PUSH1 0x1 PUSH7 0x8000000000000 PUSH2 0x359B JUMP JUMPDEST PUSH1 0x33 DUP6 SWAP1 SHR AND PUSH10 0x1FFFFFFFFFFFFFFFFFFF AND SWAP2 POP PUSH2 0x25E7 PUSH1 0x1 PUSH7 0x8000000000000 PUSH2 0x359B JUMP JUMPDEST DUP5 PUSH1 0x1 PUSH1 0x1 PUSH1 0x80 SHL SUB AND AND SWAP1 POP SWAP2 SWAP4 SWAP1 SWAP3 POP JUMP JUMPDEST DUP2 MLOAD DUP2 MSTORE PUSH1 0x20 DUP1 DUP4 ADD MLOAD SWAP1 DUP3 ADD MSTORE PUSH1 0x40 DUP1 DUP4 ADD MLOAD SWAP1 DUP3 ADD MSTORE PUSH1 0x60 DUP1 DUP4 ADD MLOAD SWAP1 DUP3 ADD MSTORE PUSH1 0x80 DUP1 DUP4 ADD MLOAD SWAP1 DUP3 ADD MSTORE PUSH1 0xA0 DUP1 DUP4 ADD MLOAD SWAP1 DUP3 ADD MSTORE PUSH1 0xC0 DUP1 DUP4 ADD MLOAD PUSH5 0xFFFFFFFFFF AND SWAP1 DUP3 ADD MSTORE PUSH1 0xE0 DUP1 DUP4 ADD MLOAD SWAP1 DUP3 ADD MSTORE PUSH2 0x100 DUP1 DUP4 ADD MLOAD SWAP1 DUP3 ADD MSTORE PUSH2 0x120 SWAP2 DUP3 ADD MLOAD SWAP2 ADD MSTORE JUMP JUMPDEST PUSH1 0x0 DUP1 DUP1 PUSH2 0x2671 DUP6 DUP9 PUSH2 0x35AE JUMP JUMPDEST SWAP1 POP PUSH1 0x0 PUSH1 0x2 PUSH2 0x2682 DUP9 PUSH1 0x1 PUSH2 0x35AE JUMP JUMPDEST PUSH2 0x268C SWAP2 SWAP1 PUSH2 0x354C JUMP JUMPDEST SWAP1 POP PUSH1 0x5A DUP2 LT ISZERO PUSH2 0x269B JUMPI POP PUSH1 0x5A JUMPDEST DUP6 PUSH1 0x0 SUB PUSH2 0x26C6 JUMPI PUSH1 0x0 PUSH2 0x26B0 DUP11 DUP8 DUP12 PUSH2 0x2CA2 JUMP JUMPDEST SWAP1 POP PUSH2 0x26BC DUP3 DUP3 PUSH2 0x356E JUMP JUMPDEST SWAP4 POP POP POP POP PUSH2 0x2747 JUMP JUMPDEST DUP6 DUP2 LT ISZERO PUSH2 0x270F JUMPI PUSH1 0x0 PUSH2 0x26DA DUP3 DUP11 PUSH2 0x35AE JUMP JUMPDEST SWAP1 POP PUSH2 0x26E8 DUP11 DUP8 DUP12 DUP5 PUSH2 0x2751 JUMP JUMPDEST SWAP4 POP PUSH1 0x0 PUSH2 0x26F8 DUP12 DUP9 DUP5 DUP8 PUSH2 0x2751 JUMP JUMPDEST SWAP1 POP PUSH2 0x2704 DUP2 DUP7 PUSH2 0x35AE JUMP JUMPDEST SWAP6 POP POP POP POP POP PUSH2 0x2747 JUMP JUMPDEST PUSH2 0x271B DUP10 DUP7 DUP11 DUP6 PUSH2 0x2751 JUMP JUMPDEST SWAP4 POP DUP6 DUP2 SUB PUSH2 0x272C JUMPI DUP4 SWAP3 POP PUSH2 0x2744 JUMP JUMPDEST DUP6 PUSH2 0x2737 DUP3 DUP7 PUSH2 0x356E JUMP JUMPDEST PUSH2 0x2741 SWAP2 SWAP1 PUSH2 0x354C JUMP JUMPDEST SWAP3 POP JUMPDEST POP POP JUMPDEST SWAP6 POP SWAP6 SWAP4 POP POP POP POP JUMP JUMPDEST PUSH1 0x0 DUP3 JUMPDEST DUP3 DUP2 LT ISZERO PUSH2 0x27B2 JUMPI PUSH1 0x0 DUP2 DUP2 MSTORE PUSH1 0x9 PUSH1 0x20 MSTORE PUSH1 0x40 SWAP1 KECCAK256 SLOAD PUSH1 0x1 PUSH1 0x1 PUSH1 0x48 SHL SUB PUSH1 0x1 PUSH1 0x48 SHL DUP3 DIV DUP2 AND SWAP2 PUSH2 0x278A SWAP2 DUP9 SWAP2 AND PUSH2 0x356E JUMP JUMPDEST PUSH2 0x2794 SWAP2 SWAP1 PUSH2 0x354C JUMP JUMPDEST PUSH2 0x279E SWAP1 DUP4 PUSH2 0x35AE JUMP JUMPDEST SWAP2 POP DUP1 PUSH2 0x27AA DUP2 PUSH2 0x35C1 JUMP JUMPDEST SWAP2 POP POP PUSH2 0x2755 JUMP JUMPDEST POP PUSH2 0x27BF PUSH1 0x32 PUSH1 0x7 PUSH2 0x356E JUMP JUMPDEST PUSH2 0x27CA SWAP1 PUSH1 0x1 PUSH2 0x35AE JUMP JUMPDEST PUSH2 0x27D5 SWAP1 PUSH1 0x1 PUSH2 0x35AE JUMP JUMPDEST DUP4 GT ISZERO DUP1 ISZERO PUSH2 0x2804 JUMPI POP PUSH2 0x27EB PUSH1 0x32 PUSH1 0x7 PUSH2 0x356E JUMP JUMPDEST PUSH2 0x27F6 SWAP1 PUSH1 0x1 PUSH2 0x35AE JUMP JUMPDEST PUSH2 0x2801 SWAP1 PUSH1 0x1 PUSH2 0x35AE JUMP JUMPDEST DUP3 GT JUMPDEST ISZERO PUSH2 0x28C1 JUMPI PUSH1 0x0 PUSH1 0x9 DUP2 PUSH2 0x281A PUSH1 0x32 PUSH1 0x7 PUSH2 0x356E JUMP JUMPDEST PUSH2 0x2825 SWAP1 PUSH1 0x1 PUSH2 0x35AE JUMP JUMPDEST PUSH2 0x2830 SWAP1 PUSH1 0x1 PUSH2 0x35AE JUMP JUMPDEST DUP2 MSTORE PUSH1 0x20 DUP2 ADD SWAP2 SWAP1 SWAP2 MSTORE PUSH1 0x40 ADD PUSH1 0x0 KECCAK256 SLOAD PUSH1 0x1 PUSH1 0x48 SHL SWAP1 DIV PUSH1 0x1 PUSH1 0x1 PUSH1 0x48 SHL SUB AND DUP6 PUSH2 0x2710 PUSH4 0x5F5E100 PUSH2 0x2866 PUSH1 0x8 PUSH1 0xA PUSH2 0x3540 JUMP JUMPDEST PUSH2 0x2870 SWAP2 SWAP1 PUSH2 0x354C JUMP JUMPDEST PUSH2 0x287A SWAP2 SWAP1 PUSH2 0x356E JUMP JUMPDEST DUP9 PUSH1 0xE0 ADD MLOAD PUSH2 0x2889 SWAP2 SWAP1 PUSH2 0x356E JUMP JUMPDEST PUSH2 0x2893 SWAP2 SWAP1 PUSH2 0x356E JUMP JUMPDEST PUSH2 0x289D SWAP2 SWAP1 PUSH2 0x354C JUMP JUMPDEST SWAP1 POP PUSH2 0x28A9 DUP7 DUP3 PUSH2 0x2DD5 JUMP JUMPDEST PUSH2 0x28B3 SWAP1 DUP3 PUSH2 0x35AE JUMP JUMPDEST PUSH2 0x28BD SWAP1 DUP4 PUSH2 0x35AE JUMP JUMPDEST SWAP2 POP POP JUMPDEST SWAP5 SWAP4 POP POP POP POP JUMP JUMPDEST PUSH1 0x0 DUP1 PUSH2 0x28D8 PUSH1 0x2 PUSH1 0x7 PUSH2 0x356E JUMP JUMPDEST PUSH2 0x28E2 DUP7 DUP9 PUSH2 0x35AE JUMP JUMPDEST PUSH2 0x28EC SWAP2 SWAP1 PUSH2 0x35AE JUMP JUMPDEST SWAP1 POP DUP1 DUP5 GT PUSH2 0x28FF JUMPI PUSH1 0x0 SWAP2 POP POP PUSH2 0x28C1 JUMP JUMPDEST PUSH2 0x290B PUSH1 0x64 PUSH1 0x7 PUSH2 0x356E JUMP JUMPDEST PUSH2 0x2915 DUP3 DUP7 PUSH2 0x359B JUMP JUMPDEST PUSH2 0x291F SWAP1 DUP6 PUSH2 0x356E JUMP JUMPDEST PUSH2 0x28BD SWAP2 SWAP1 PUSH2 0x354C JUMP JUMPDEST PUSH1 0x0 DUP1 PUSH1 0x1 DUP4 GT ISZERO PUSH2 0x2999 JUMPI PUSH1 0x64 PUSH1 0xC8 PUSH2 0x2946 PUSH1 0x14 PUSH2 0x8E30 PUSH2 0x354C JUMP JUMPDEST PUSH2 0x2950 SWAP2 SWAP1 PUSH2 0x356E JUMP JUMPDEST PUSH2 0x295A SWAP2 SWAP1 PUSH2 0x354C JUMP JUMPDEST DUP4 GT ISZERO PUSH2 0x298B JUMPI PUSH1 0x64 PUSH1 0xC8 PUSH2 0x2972 PUSH1 0x14 PUSH2 0x8E30 PUSH2 0x354C JUMP JUMPDEST PUSH2 0x297C SWAP2 SWAP1 PUSH2 0x356E JUMP JUMPDEST PUSH2 0x2986 SWAP2 SWAP1 PUSH2 0x354C JUMP JUMPDEST PUSH2 0x2996 JUMP JUMPDEST PUSH2 0x2996 PUSH1 0x1 DUP5 PUSH2 0x359B JUMP JUMPDEST SWAP1 POP JUMPDEST PUSH1 0x0 PUSH2 0x29A7 PUSH1 0x8 PUSH1 0xA PUSH2 0x3540 JUMP JUMPDEST PUSH2 0x29B5 SWAP1 PUSH4 0x8F0D180 PUSH2 0x356E JUMP JUMPDEST DUP6 GT ISZERO PUSH2 0x29DB JUMPI PUSH2 0x29C8 PUSH1 0x8 PUSH1 0xA PUSH2 0x3540 JUMP JUMPDEST PUSH2 0x29D6 SWAP1 PUSH4 0x8F0D180 PUSH2 0x356E JUMP JUMPDEST PUSH2 0x29DD JUMP JUMPDEST DUP5 JUMPDEST SWAP1 POP PUSH2 0x29EC PUSH1 0x14 PUSH2 0x8E30 PUSH2 0x354C JUMP JUMPDEST PUSH2 0x29F6 SWAP1 DUP3 PUSH2 0x356E JUMP JUMPDEST PUSH1 0xA PUSH2 0x2A03 PUSH1 0x8 DUP3 PUSH2 0x3540 JUMP JUMPDEST PUSH2 0x2A11 SWAP1 PUSH4 0x8F0D180 PUSH2 0x356E JUMP JUMPDEST PUSH2 0x2A1C SWAP1 PUSH1 0x64 PUSH2 0x356E JUMP JUMPDEST PUSH2 0x2A26 SWAP2 SWAP1 PUSH2 0x354C JUMP JUMPDEST PUSH2 0x2A30 SWAP1 DUP5 PUSH2 0x356E JUMP JUMPDEST PUSH2 0x2A3A SWAP2 SWAP1 PUSH2 0x35AE JUMP JUMPDEST SWAP3 POP PUSH1 0xA PUSH2 0x2A49 PUSH1 0x8 DUP3 PUSH2 0x3540 JUMP JUMPDEST PUSH2 0x2A57 SWAP1 PUSH4 0x8F0D180 PUSH2 0x356E JUMP JUMPDEST PUSH2 0x2A62 SWAP1 PUSH1 0x64 PUSH2 0x356E JUMP JUMPDEST PUSH2 0x2A6C SWAP2 SWAP1 PUSH2 0x354C JUMP JUMPDEST PUSH2 0x2A79 PUSH1 0x14 PUSH2 0x8E30 PUSH2 0x354C JUMP JUMPDEST PUSH2 0x2A83 SWAP2 SWAP1 PUSH2 0x356E JUMP JUMPDEST PUSH2 0x2A8D DUP5 DUP8 PUSH2 0x356E JUMP JUMPDEST PUSH2 0x2A97 SWAP2 SWAP1 PUSH2 0x354C JUMP JUMPDEST SWAP6 SWAP5 POP POP POP POP POP JUMP JUMPDEST DUP1 PUSH5 0xFFFFFFFFFF AND PUSH32 0x9861FA0ED101659F7A59B4583FCC798DFA4F3B419BEA371C8EE2AD0FFE13A31E PUSH1 0x28 DUP5 PUSH5 0xFFFFFFFFFF AND SWAP1 SHL TIMESTAMP PUSH5 0xFFFFFFFFFF AND OR PUSH1 0x40 MLOAD PUSH2 0x2AED SWAP2 DUP2 MSTORE PUSH1 0x20 ADD SWAP1 JUMP JUMPDEST PUSH1 0x40 MLOAD DUP1 SWAP2 SUB SWAP1 LOG2 POP POP JUMP JUMPDEST PUSH1 0x0 DUP1 PUSH2 0x2B08 PUSH1 0x33 PUSH1 0x2 PUSH2 0x356E JUMP JUMPDEST SWAP5 SWAP1 SWAP5 SHL PUSH1 0x33 SWAP4 SWAP1 SWAP4 SHL SWAP3 SWAP1 SWAP3 OR OR SWAP3 SWAP2 POP POP JUMP JUMPDEST PUSH5 0xFFFFFFFFFF DUP6 AND CALLER PUSH32 0x14872DC760F33532684E68E1B6D5FD3F71BA7B07DEE76BDB2B084F28B74233EF DUP4 PUSH2 0x2B53 JUMPI PUSH1 0x0 PUSH2 0x2B59 JUMP JUMPDEST PUSH1 0x1 PUSH1 0xC8 SHL JUMPDEST PUSH1 0x1 PUSH1 0x1 PUSH1 0xD0 SHL SUB AND PUSH1 0xB8 DUP7 PUSH2 0xFFFF AND SWAP1 SHL PUSH1 0x70 DUP9 PUSH1 0x1 PUSH1 0x1 PUSH1 0x48 SHL SUB AND SWAP1 SHL PUSH1 0x28 DUP11 PUSH1 0x1 PUSH1 0x1 PUSH1 0x48 SHL SUB AND SWAP1 SHL TIMESTAMP PUSH5 0xFFFFFFFFFF AND OR OR OR OR PUSH1 0x40 MLOAD PUSH2 0x2BA2 SWAP2 DUP2 MSTORE PUSH1 0x20 ADD SWAP1 JUMP JUMPDEST PUSH1 0x40 MLOAD DUP1 SWAP2 SUB SWAP1 LOG3 POP POP POP POP POP JUMP JUMPDEST PUSH2 0x2BBC DUP4 DUP4 DUP4 PUSH2 0x2E2B JUMP JUMPDEST PUSH1 0x40 SWAP2 DUP3 ADD MLOAD PUSH1 0x0 SWAP2 DUP3 MSTORE PUSH1 0x9 PUSH1 0x20 MSTORE SWAP2 SWAP1 KECCAK256 DUP1 SLOAD PUSH1 0xA0 DUP5 ADD MLOAD PUSH1 0xE0 SWAP1 SWAP5 ADD MLOAD PUSH7 0xFFFFFFFFFFFFFF AND PUSH1 0x1 PUSH1 0x90 SHL MUL PUSH7 0xFFFFFFFFFFFFFF PUSH1 0x90 SHL NOT PUSH1 0x1 PUSH1 0x1 PUSH1 0x48 SHL SUB SWAP6 DUP7 AND PUSH1 0x1 PUSH1 0x48 SHL MUL PUSH1 0x1 PUSH1 0x1 PUSH1 0x90 SHL SUB NOT SWAP1 SWAP4 AND SWAP6 SWAP1 SWAP5 AND SWAP5 SWAP1 SWAP5 OR OR SWAP2 SWAP1 SWAP2 AND SWAP2 SWAP1 SWAP2 OR SWAP1 SSTORE JUMP JUMPDEST CALLER PUSH32 0xB8D6EB541DED1720CC657B719F57ABCB1FE4711CB7EAD82751B135F5D94BC944 DUP3 PUSH2 0x2C57 JUMPI PUSH1 0x0 PUSH2 0x2C5D JUMP JUMPDEST PUSH1 0x1 PUSH1 0x48 SHL JUMPDEST PUSH10 0xFFFFFFFFFFFFFFFFFFFF AND PUSH1 0x38 DUP6 PUSH2 0xFFFF AND SWAP1 SHL PUSH1 0x28 DUP8 PUSH2 0xFFFF AND SWAP1 SHL TIMESTAMP PUSH5 0xFFFFFFFFFF AND OR OR OR PUSH1 0x40 MLOAD PUSH2 0x2C95 SWAP2 DUP2 MSTORE PUSH1 0x20 ADD SWAP1 JUMP JUMPDEST PUSH1 0x40 MLOAD DUP1 SWAP2 SUB SWAP1 LOG2 POP POP POP JUMP JUMPDEST PUSH1 0x0 PUSH2 0x2CAC PUSH2 0x2F63 JUMP JUMPDEST PUSH2 0x2CB6 DUP6 DUP3 PUSH2 0x25FB JUMP JUMPDEST PUSH2 0x2CDA PUSH1 0x40 MLOAD DUP1 PUSH1 0x60 ADD PUSH1 0x40 MSTORE DUP1 PUSH1 0x0 DUP2 MSTORE PUSH1 0x20 ADD PUSH1 0x0 DUP2 MSTORE PUSH1 0x20 ADD PUSH1 0x0 DUP2 MSTORE POP SWAP1 JUMP JUMPDEST DUP6 MLOAD PUSH1 0x2 SLOAD PUSH2 0x2CE9 SWAP2 SWAP1 PUSH2 0x35AE JUMP JUMPDEST DUP2 MSTORE PUSH2 0x2CF6 DUP3 DUP3 DUP7 PUSH2 0x2E2B JUMP JUMPDEST DUP5 DUP3 PUSH1 0xA0 ADD DUP2 DUP2 MLOAD PUSH2 0x2D08 SWAP2 SWAP1 PUSH2 0x35AE JUMP JUMPDEST SWAP1 MSTORE POP PUSH1 0xA0 DUP3 ADD MLOAD PUSH1 0x40 DUP3 ADD MLOAD PUSH2 0x2D20 SWAP1 DUP8 SWAP1 PUSH2 0x356E JUMP JUMPDEST PUSH2 0x2D2A SWAP2 SWAP1 PUSH2 0x354C JUMP JUMPDEST SWAP3 POP PUSH2 0x2D38 PUSH1 0x32 PUSH1 0x7 PUSH2 0x356E JUMP JUMPDEST PUSH2 0x2D43 SWAP1 PUSH1 0x1 PUSH2 0x35AE JUMP JUMPDEST PUSH2 0x2D4E SWAP1 PUSH1 0x1 PUSH2 0x35AE JUMP JUMPDEST DUP5 SUB PUSH2 0x2DCC JUMPI PUSH1 0xA0 DUP3 ADD MLOAD PUSH1 0x0 SWAP1 DUP7 PUSH2 0x2710 PUSH4 0x5F5E100 PUSH2 0x2D71 PUSH1 0x8 PUSH1 0xA PUSH2 0x3540 JUMP JUMPDEST PUSH2 0x2D7B SWAP2 SWAP1 PUSH2 0x354C JUMP JUMPDEST PUSH2 0x2D85 SWAP2 SWAP1 PUSH2 0x356E JUMP JUMPDEST DUP6 PUSH1 0xE0 ADD MLOAD PUSH2 0x2D94 SWAP2 SWAP1 PUSH2 0x356E JUMP JUMPDEST PUSH2 0x2D9E SWAP2 SWAP1 PUSH2 0x356E JUMP JUMPDEST PUSH2 0x2DA8 SWAP2 SWAP1 PUSH2 0x354C JUMP JUMPDEST SWAP1 POP PUSH2 0x2DB4 DUP4 DUP3 PUSH2 0x2DD5 JUMP JUMPDEST PUSH2 0x2DBE SWAP1 DUP3 PUSH2 0x35AE JUMP JUMPDEST PUSH2 0x2DC8 SWAP1 DUP6 PUSH2 0x35AE JUMP JUMPDEST SWAP4 POP POP JUMPDEST POP POP SWAP4 SWAP3 POP POP POP JUMP JUMPDEST PUSH1 0x0 DUP1 PUSH4 0x1AB362E DUP5 PUSH2 0x120 ADD MLOAD DUP5 PUSH2 0x2DEE SWAP2 SWAP1 PUSH2 0x356E JUMP JUMPDEST PUSH2 0x2DF8 SWAP2 SWAP1 PUSH2 0x354C JUMP JUMPDEST SWAP1 POP PUSH1 0x0 PUSH7 0x33BB85FC52D99 DUP6 PUSH2 0x100 ADD MLOAD DUP6 PUSH2 0x2E15 SWAP2 SWAP1 PUSH2 0x356E JUMP JUMPDEST PUSH2 0x2E1F SWAP2 SWAP1 PUSH2 0x354C JUMP JUMPDEST SWAP1 POP PUSH2 0x2A97 DUP2 DUP4 PUSH2 0x35AE JUMP JUMPDEST DUP2 MLOAD PUSH4 0x5FCBAE3 SWAP1 PUSH2 0x2E3F SWAP1 PUSH2 0x2710 PUSH2 0x356E JUMP JUMPDEST PUSH2 0x2E49 SWAP2 SWAP1 PUSH2 0x354C JUMP JUMPDEST PUSH1 0x40 DUP4 ADD MSTORE PUSH2 0x2E5A PUSH1 0x32 PUSH1 0x7 PUSH2 0x356E JUMP JUMPDEST PUSH2 0x2E65 SWAP1 PUSH1 0x1 PUSH2 0x35AE JUMP JUMPDEST DUP2 LT ISZERO PUSH2 0x2F34 JUMPI PUSH1 0x0 PUSH2 0x2E7A PUSH1 0x32 PUSH1 0x7 PUSH2 0x356E JUMP JUMPDEST PUSH2 0x2710 PUSH4 0x5F5E100 PUSH2 0x2E8E PUSH1 0x8 PUSH1 0xA PUSH2 0x3540 JUMP JUMPDEST PUSH2 0x2E98 SWAP2 SWAP1 PUSH2 0x354C JUMP JUMPDEST PUSH2 0x2EA2 SWAP2 SWAP1 PUSH2 0x356E JUMP JUMPDEST DUP6 PUSH1 0xE0 ADD MLOAD PUSH2 0x2EB1 SWAP2 SWAP1 PUSH2 0x356E JUMP JUMPDEST PUSH2 0x2EBB SWAP2 SWAP1 PUSH2 0x354C JUMP JUMPDEST SWAP1 POP PUSH1 0x0 PUSH2 0x2ED8 DUP6 DUP4 DUP7 PUSH1 0x40 ADD MLOAD PUSH2 0x2ED3 SWAP2 SWAP1 PUSH2 0x35AE JUMP JUMPDEST PUSH2 0x2DD5 JUMP JUMPDEST PUSH2 0x2EE2 SWAP1 DUP4 PUSH2 0x35AE JUMP JUMPDEST SWAP1 POP DUP1 DUP5 PUSH1 0x20 ADD DUP2 DUP2 MLOAD PUSH2 0x2EF6 SWAP2 SWAP1 PUSH2 0x35AE JUMP JUMPDEST SWAP1 MSTORE POP DUP4 MLOAD DUP2 SWAP1 DUP6 SWAP1 PUSH2 0x2F0A SWAP1 DUP4 SWAP1 PUSH2 0x35AE JUMP JUMPDEST SWAP1 MSTORE POP PUSH1 0x40 DUP5 ADD MLOAD PUSH2 0x2F1D SWAP1 DUP7 SWAP1 PUSH2 0x2DD5 JUMP JUMPDEST DUP5 PUSH1 0x40 ADD DUP2 DUP2 MLOAD PUSH2 0x2F2E SWAP2 SWAP1 PUSH2 0x35AE JUMP JUMPDEST SWAP1 MSTORE POP POP POP JUMPDEST PUSH1 0x60 DUP4 ADD MLOAD ISZERO PUSH2 0x7E8 JUMPI DUP3 PUSH1 0x60 ADD MLOAD DUP3 PUSH1 0x40 ADD DUP2 DUP2 MLOAD PUSH2 0x2F54 SWAP2 SWAP1 PUSH2 0x35AE JUMP JUMPDEST SWAP1 MSTORE POP PUSH1 0x0 PUSH1 0x60 DUP5 ADD MSTORE POP POP POP JUMP JUMPDEST PUSH1 0x40 MLOAD DUP1 PUSH2 0x160 ADD PUSH1 0x40 MSTORE DUP1 PUSH1 0x0 DUP2 MSTORE PUSH1 0x20 ADD PUSH1 0x0 DUP2 MSTORE PUSH1 0x20 ADD PUSH1 0x0 DUP2 MSTORE PUSH1 0x20 ADD PUSH1 0x0 DUP2 MSTORE PUSH1 0x20 ADD PUSH1 0x0 DUP2 MSTORE PUSH1 0x20 ADD PUSH1 0x0 DUP2 MSTORE PUSH1 0x20 ADD PUSH1 0x0 PUSH5 0xFFFFFFFFFF AND DUP2 MSTORE PUSH1 0x20 ADD PUSH1 0x0 DUP2 MSTORE PUSH1 0x20 ADD PUSH1 0x0 DUP2 MSTORE PUSH1 0x20 ADD PUSH1 0x0 DUP2 MSTORE PUSH1 0x20 ADD PUSH1 0x0 DUP2 MSTORE POP SWAP1 JUMP JUMPDEST PUSH1 0x40 MLOAD DUP1 PUSH1 0xE0 ADD PUSH1 0x40 MSTORE DUP1 PUSH1 0x0 PUSH5 0xFFFFFFFFFF AND DUP2 MSTORE PUSH1 0x20 ADD PUSH1 0x0 DUP2 MSTORE PUSH1 0x20 ADD PUSH1 0x0 DUP2 MSTORE PUSH1 0x20 ADD PUSH1 0x0 DUP2 MSTORE PUSH1 0x20 ADD PUSH1 0x0 DUP2 MSTORE PUSH1 0x20 ADD PUSH1 0x0 DUP2 MSTORE PUSH1 0x20 ADD PUSH1 0x0 ISZERO ISZERO DUP2 MSTORE POP SWAP1 JUMP JUMPDEST PUSH1 0x40 MLOAD DUP1 PUSH2 0x1A0 ADD PUSH1 0x40 MSTORE DUP1 PUSH1 0xD SWAP1 PUSH1 0x20 DUP3 MUL DUP1 CALLDATASIZE DUP4 CALLDATACOPY POP SWAP2 SWAP3 SWAP2 POP POP JUMP JUMPDEST PUSH1 0x0 PUSH1 0x20 DUP1 DUP4 MSTORE DUP4 MLOAD DUP1 DUP3 DUP6 ADD MSTORE PUSH1 0x0 JUMPDEST DUP2 DUP2 LT ISZERO PUSH2 0x3056 JUMPI DUP6 DUP2 ADD DUP4 ADD MLOAD DUP6 DUP3 ADD PUSH1 0x40 ADD MSTORE DUP3 ADD PUSH2 0x303A JUMP JUMPDEST POP PUSH1 0x0 PUSH1 0x40 DUP3 DUP7 ADD ADD MSTORE PUSH1 0x40 PUSH1 0x1F NOT PUSH1 0x1F DUP4 ADD AND DUP6 ADD ADD SWAP3 POP POP POP SWAP3 SWAP2 POP POP JUMP JUMPDEST DUP1 CALLDATALOAD PUSH1 0x1 PUSH1 0x1 PUSH1 0xA0 SHL SUB DUP2 AND DUP2 EQ PUSH2 0x308E JUMPI PUSH1 0x0 DUP1 REVERT JUMPDEST SWAP2 SWAP1 POP JUMP JUMPDEST PUSH1 0x0 DUP1 PUSH1 0x40 DUP4 DUP6 SUB SLT ISZERO PUSH2 0x30A6 JUMPI PUSH1 0x0 DUP1 REVERT JUMPDEST PUSH2 0x30AF DUP4 PUSH2 0x3077 JUMP JUMPDEST SWAP5 PUSH1 0x20 SWAP4 SWAP1 SWAP4 ADD CALLDATALOAD SWAP4 POP POP POP JUMP JUMPDEST PUSH1 0x0 DUP1 PUSH1 0x0 PUSH1 0x60 DUP5 DUP7 SUB SLT ISZERO PUSH2 0x30D2 JUMPI PUSH1 0x0 DUP1 REVERT JUMPDEST PUSH2 0x30DB DUP5 PUSH2 0x3077 JUMP JUMPDEST SWAP3 POP PUSH1 0x20 DUP5 ADD CALLDATALOAD SWAP2 POP PUSH2 0x30F0 PUSH1 0x40 DUP6 ADD PUSH2 0x3077 JUMP JUMPDEST SWAP1 POP SWAP3 POP SWAP3 POP SWAP3 JUMP JUMPDEST PUSH1 0x0 DUP1 PUSH1 0x0 PUSH1 0x60 DUP5 DUP7 SUB SLT ISZERO PUSH2 0x310E JUMPI PUSH1 0x0 DUP1 REVERT JUMPDEST PUSH2 0x3117 DUP5 PUSH2 0x3077 JUMP JUMPDEST SWAP3 POP PUSH2 0x3125 PUSH1 0x20 DUP6 ADD PUSH2 0x3077 JUMP JUMPDEST SWAP2 POP PUSH1 0x40 DUP5 ADD CALLDATALOAD SWAP1 POP SWAP3 POP SWAP3 POP SWAP3 JUMP JUMPDEST PUSH1 0x0 PUSH1 0x20 DUP3 DUP5 SUB SLT ISZERO PUSH2 0x3147 JUMPI PUSH1 0x0 DUP1 REVERT JUMPDEST PUSH2 0x3150 DUP3 PUSH2 0x3077 JUMP JUMPDEST SWAP4 SWAP3 POP POP POP JUMP JUMPDEST DUP1 CALLDATALOAD PUSH5 0xFFFFFFFFFF DUP2 AND DUP2 EQ PUSH2 0x308E JUMPI PUSH1 0x0 DUP1 REVERT JUMPDEST PUSH1 0x0 DUP1 PUSH1 0x40 DUP4 DUP6 SUB SLT ISZERO PUSH2 0x317F JUMPI PUSH1 0x0 DUP1 REVERT JUMPDEST DUP3 CALLDATALOAD SWAP2 POP PUSH2 0x318F PUSH1 0x20 DUP5 ADD PUSH2 0x3157 JUMP JUMPDEST SWAP1 POP SWAP3 POP SWAP3 SWAP1 POP JUMP JUMPDEST PUSH1 0x0 DUP1 PUSH1 0x40 DUP4 DUP6 SUB SLT ISZERO PUSH2 0x31AB JUMPI PUSH1 0x0 DUP1 REVERT JUMPDEST DUP3 CALLDATALOAD SWAP2 POP PUSH2 0x318F PUSH1 0x20 DUP5 ADD PUSH2 0x3077 JUMP JUMPDEST PUSH1 0x0 DUP1 PUSH1 0x40 DUP4 DUP6 SUB SLT ISZERO PUSH2 0x31CE JUMPI PUSH1 0x0 DUP1 REVERT JUMPDEST POP POP DUP1 CALLDATALOAD SWAP3 PUSH1 0x20 SWAP1 SWAP2 ADD CALLDATALOAD SWAP2 POP JUMP JUMPDEST PUSH1 0x0 DUP1 PUSH1 0x0 PUSH1 0x60 DUP5 DUP7 SUB SLT ISZERO PUSH2 0x31F2 JUMPI PUSH1 0x0 DUP1 REVERT JUMPDEST PUSH2 0x31FB DUP5 PUSH2 0x3077 JUMP JUMPDEST SWAP3 POP PUSH1 0x20 DUP5 ADD CALLDATALOAD SWAP2 POP PUSH2 0x30F0 PUSH1 0x40 DUP6 ADD PUSH2 0x3157 JUMP JUMPDEST PUSH4 0x4E487B71 PUSH1 0xE0 SHL PUSH1 0x0 MSTORE PUSH1 0x41 PUSH1 0x4 MSTORE PUSH1 0x24 PUSH1 0x0 REVERT JUMPDEST PUSH1 0x40 MLOAD PUSH2 0x160 DUP2 ADD PUSH8 0xFFFFFFFFFFFFFFFF DUP2 GT DUP3 DUP3 LT OR ISZERO PUSH2 0x3258 JUMPI PUSH4 0x4E487B71 PUSH1 0xE0 SHL PUSH1 0x0 MSTORE PUSH1 0x41 PUSH1 0x4 MSTORE PUSH1 0x24 PUSH1 0x0 REVERT JUMPDEST PUSH1 0x40 MSTORE SWAP1 JUMP JUMPDEST PUSH1 0x0 PUSH2 0x160 DUP3 DUP5 SUB SLT ISZERO PUSH2 0x3271 JUMPI PUSH1 0x0 DUP1 REVERT JUMPDEST PUSH2 0x3279 PUSH2 0x3226 JUMP JUMPDEST SWAP1 POP DUP2 CALLDATALOAD DUP2 MSTORE PUSH1 0x20 DUP3 ADD CALLDATALOAD PUSH1 0x20 DUP3 ADD MSTORE PUSH1 0x40 DUP3 ADD CALLDATALOAD PUSH1 0x40 DUP3 ADD MSTORE PUSH1 0x60 DUP3 ADD CALLDATALOAD PUSH1 0x60 DUP3 ADD MSTORE PUSH1 0x80 DUP3 ADD CALLDATALOAD PUSH1 0x80 DUP3 ADD MSTORE PUSH1 0xA0 DUP3 ADD CALLDATALOAD PUSH1 0xA0 DUP3 ADD MSTORE PUSH2 0x32BD PUSH1 0xC0 DUP4 ADD PUSH2 0x3157 JUMP JUMPDEST PUSH1 0xC0 DUP3 ADD MSTORE PUSH1 0xE0 DUP3 ADD CALLDATALOAD PUSH1 0xE0 DUP3 ADD MSTORE PUSH2 0x100 DUP1 DUP4 ADD CALLDATALOAD DUP2 DUP4 ADD MSTORE POP PUSH2 0x120 DUP1 DUP4 ADD CALLDATALOAD DUP2 DUP4 ADD MSTORE POP PUSH2 0x140 DUP1 DUP4 ADD CALLDATALOAD DUP2 DUP4 ADD MSTORE POP SWAP3 SWAP2 POP POP JUMP JUMPDEST PUSH1 0x0 DUP1 PUSH2 0x2C0 DUP4 DUP6 SUB SLT ISZERO PUSH2 0x330A JUMPI PUSH1 0x0 DUP1 REVERT JUMPDEST PUSH2 0x3314 DUP5 DUP5 PUSH2 0x325E JUMP JUMPDEST SWAP2 POP PUSH2 0x318F DUP5 PUSH2 0x160 DUP6 ADD PUSH2 0x325E JUMP JUMPDEST PUSH1 0x20 DUP1 DUP3 MSTORE DUP3 MLOAD DUP3 DUP3 ADD DUP2 SWAP1 MSTORE PUSH1 0x0 SWAP2 SWAP1 DUP5 DUP3 ADD SWAP1 PUSH1 0x40 DUP6 ADD SWAP1 DUP5 JUMPDEST DUP2 DUP2 LT ISZERO PUSH2 0x335C JUMPI DUP4 MLOAD DUP4 MSTORE SWAP3 DUP5 ADD SWAP3 SWAP2 DUP5 ADD SWAP2 PUSH1 0x1 ADD PUSH2 0x3340 JUMP JUMPDEST POP SWAP1 SWAP7 SWAP6 POP POP POP POP POP POP JUMP JUMPDEST PUSH1 0x0 PUSH1 0x20 DUP3 DUP5 SUB SLT ISZERO PUSH2 0x337A JUMPI PUSH1 0x0 DUP1 REVERT JUMPDEST DUP2 CALLDATALOAD PUSH12 0xFFFFFFFFFFFFFFFFFFFFFFFF NOT DUP2 AND DUP2 EQ PUSH2 0x3150 JUMPI PUSH1 0x0 DUP1 REVERT JUMPDEST PUSH1 0x0 PUSH1 0x20 DUP3 DUP5 SUB SLT ISZERO PUSH2 0x33A9 JUMPI PUSH1 0x0 DUP1 REVERT JUMPDEST POP CALLDATALOAD SWAP2 SWAP1 POP JUMP JUMPDEST PUSH1 0x0 DUP1 PUSH1 0x40 DUP4 DUP6 SUB SLT ISZERO PUSH2 0x33C3 JUMPI PUSH1 0x0 DUP1 REVERT JUMPDEST PUSH2 0x33CC DUP4 PUSH2 0x3077 JUMP JUMPDEST SWAP2 POP PUSH2 0x318F PUSH1 0x20 DUP5 ADD PUSH2 0x3077 JUMP JUMPDEST PUSH2 0x1A0 DUP2 ADD DUP2 DUP4 PUSH1 0x0 JUMPDEST PUSH1 0xD DUP2 LT ISZERO PUSH2 0x3403 JUMPI DUP2 MLOAD DUP4 MSTORE PUSH1 0x20 SWAP3 DUP4 ADD SWAP3 SWAP1 SWAP2 ADD SWAP1 PUSH1 0x1 ADD PUSH2 0x33E4 JUMP JUMPDEST POP POP POP SWAP3 SWAP2 POP POP JUMP JUMPDEST PUSH1 0x1 DUP2 DUP2 SHR SWAP1 DUP3 AND DUP1 PUSH2 0x3420 JUMPI PUSH1 0x7F DUP3 AND SWAP2 POP JUMPDEST PUSH1 0x20 DUP3 LT DUP2 SUB PUSH2 0x3440 JUMPI PUSH4 0x4E487B71 PUSH1 0xE0 SHL PUSH1 0x0 MSTORE PUSH1 0x22 PUSH1 0x4 MSTORE PUSH1 0x24 PUSH1 0x0 REVERT JUMPDEST POP SWAP2 SWAP1 POP JUMP JUMPDEST PUSH4 0x4E487B71 PUSH1 0xE0 SHL PUSH1 0x0 MSTORE PUSH1 0x11 PUSH1 0x4 MSTORE PUSH1 0x24 PUSH1 0x0 REVERT JUMPDEST PUSH1 0x1 DUP2 DUP2 JUMPDEST DUP1 DUP6 GT ISZERO PUSH2 0x3497 JUMPI DUP2 PUSH1 0x0 NOT DIV DUP3 GT ISZERO PUSH2 0x347D JUMPI PUSH2 0x347D PUSH2 0x3446 JUMP JUMPDEST DUP1 DUP6 AND ISZERO PUSH2 0x348A JUMPI SWAP2 DUP2 MUL SWAP2 JUMPDEST SWAP4 DUP5 SHR SWAP4 SWAP1 DUP1 MUL SWAP1 PUSH2 0x3461 JUMP JUMPDEST POP SWAP3 POP SWAP3 SWAP1 POP JUMP JUMPDEST PUSH1 0x0 DUP3 PUSH2 0x34AE JUMPI POP PUSH1 0x1 PUSH2 0x776 JUMP JUMPDEST DUP2 PUSH2 0x34BB JUMPI POP PUSH1 0x0 PUSH2 0x776 JUMP JUMPDEST DUP2 PUSH1 0x1 DUP2 EQ PUSH2 0x34D1 JUMPI PUSH1 0x2 DUP2 EQ PUSH2 0x34DB JUMPI PUSH2 0x34F7 JUMP JUMPDEST PUSH1 0x1 SWAP2 POP POP PUSH2 0x776 JUMP JUMPDEST PUSH1 0xFF DUP5 GT ISZERO PUSH2 0x34EC JUMPI PUSH2 0x34EC PUSH2 0x3446 JUMP JUMPDEST POP POP PUSH1 0x1 DUP3 SHL PUSH2 0x776 JUMP JUMPDEST POP PUSH1 0x20 DUP4 LT PUSH2 0x133 DUP4 LT AND PUSH1 0x4E DUP5 LT PUSH1 0xB DUP5 LT AND OR ISZERO PUSH2 0x351A JUMPI POP DUP2 DUP2 EXP PUSH2 0x776 JUMP JUMPDEST PUSH2 0x3524 DUP4 DUP4 PUSH2 0x345C JUMP JUMPDEST DUP1 PUSH1 0x0 NOT DIV DUP3 GT ISZERO PUSH2 0x3538 JUMPI PUSH2 0x3538 PUSH2 0x3446 JUMP JUMPDEST MUL SWAP4 SWAP3 POP POP POP JUMP JUMPDEST PUSH1 0x0 PUSH2 0x3150 DUP4 DUP4 PUSH2 0x349F JUMP JUMPDEST PUSH1 0x0 DUP3 PUSH2 0x3569 JUMPI PUSH4 0x4E487B71 PUSH1 0xE0 SHL PUSH1 0x0 MSTORE PUSH1 0x12 PUSH1 0x4 MSTORE PUSH1 0x24 PUSH1 0x0 REVERT JUMPDEST POP DIV SWAP1 JUMP JUMPDEST DUP1 DUP3 MUL DUP2 ISZERO DUP3 DUP3 DIV DUP5 EQ OR PUSH2 0x776 JUMPI PUSH2 0x776 PUSH2 0x3446 JUMP JUMPDEST PUSH4 0x4E487B71 PUSH1 0xE0 SHL PUSH1 0x0 MSTORE PUSH1 0x32 PUSH1 0x4 MSTORE PUSH1 0x24 PUSH1 0x0 REVERT JUMPDEST DUP2 DUP2 SUB DUP2 DUP2 GT ISZERO PUSH2 0x776 JUMPI PUSH2 0x776 PUSH2 0x3446 JUMP JUMPDEST DUP1 DUP3 ADD DUP1 DUP3 GT ISZERO PUSH2 0x776 JUMPI PUSH2 0x776 PUSH2 0x3446 JUMP JUMPDEST PUSH1 0x0 PUSH1 0x1 DUP3 ADD PUSH2 0x35D3 JUMPI PUSH2 0x35D3 PUSH2 0x3446 JUMP JUMPDEST POP PUSH1 0x1 ADD SWAP1 JUMP JUMPDEST PUSH4 0x4E487B71 PUSH1 0xE0 SHL PUSH1 0x0 MSTORE PUSH1 0x31 PUSH1 0x4 MSTORE PUSH1 0x24 PUSH1 0x0 REVERT JUMPDEST PUSH1 0x0 PUSH5 0xFFFFFFFFFF DUP1 DUP4 AND DUP2 DUP2 SUB PUSH2 0x360A JUMPI PUSH2 0x360A PUSH2 0x3446 JUMP JUMPDEST PUSH1 0x1 ADD SWAP4 SWAP3 POP POP POP JUMP INVALID LOG2 PUSH5 0x6970667358 0x22 SLT KECCAK256 0xF6 MUL 0x4A 0xED 0x4E PUSH7 0x1FF1E69F35C24A 0xD3 0xB7 0xCC 0xFB PREVRANDAO DUP3 0xE1 SDIV 0xE2 0xE4 OR SWAP12 0x4C CREATE 0xAC 0x1F PUSH10 0xF7EB64736F6C63430008 SGT STOP CALLER "
		},
		"gasEstimates": {
			"creation": {
				"codeDepositCost": "2779600",
				"executionCost": "infinite",
				"totalCost": "infinite"
			},
			"external": {
				"CLAIM_PHASE_DAYS()": "363",
				"FLUSH_ADDR()": "262",
				"HEARTS_PER_SATOSHI()": "infinite",
				"allocatedSupply()": "4618",
				"allowance(address,address)": "infinite",
				"approve(address,uint256)": "24674",
				"balanceOf(address)": "2585",
				"btcAddressClaims(bytes20)": "2554",
				"contractOwner()": "infinite",
				"currentDay()": "infinite",
				"dailyData(uint256)": "2634",
				"dailyDataRange(uint256,uint256)": "infinite",
				"dailyDataUpdate(uint256)": "infinite",
				"decimals()": "223",
				"decreaseAllowance(address,uint256)": "27039",
				"getGlobalsLoad((uint256,uint256,uint256,uint256,uint256,uint256,uint40,uint256,uint256,uint256,uint256),(uint256,uint256,uint256,uint256,uint256,uint256,uint40,uint256,uint256,uint256,uint256))": "infinite",
				"getTreasureBoxAddress()": "2376",
				"globalInfo()": "infinite",
				"globals()": "4881",
				"increaseAllowance(address,uint256)": "infinite",
				"mint(address,uint256,address)": "infinite",
				"name()": "infinite",
				"setTreasureBoxAddress(address)": "infinite",
				"stakeCount(address)": "2627",
				"stakeEnd(uint256,uint40)": "infinite",
				"stakeGoodAccounting(address,uint256,uint40)": "infinite",
				"stakeLists(address,uint256)": "5208",
				"stakeStart(uint256,uint256)": "infinite",
				"symbol()": "infinite",
				"totalSupply()": "2360",
				"transfer(address,uint256)": "51161",
				"transferFrom(address,address,uint256)": "infinite",
				"treasureBoxAddress()": "2381",
				"xfLobby(uint256)": "2527",
				"xfLobbyMembers(uint256,address)": "2799"
			},
			"internal": {
				"_calcLatePenalty(uint256,uint256,uint256,uint256)": "infinite",
				"_calcPayoutAndEarlyPenalty(struct IGlobals.GlobalsCache memory,uint256,uint256,uint256,uint256)": "infinite",
				"_calcPayoutRewards(struct IGlobals.GlobalsCache memory,uint256,uint256,uint256)": "infinite",
				"_emitShareRateChange(uint256,uint40)": "infinite",
				"_emitStakeEnd(uint40,uint256,uint256,uint256,uint256,uint256,bool)": "infinite",
				"_emitStakeGoodAccounting(address,uint40,uint256,uint256,uint256,uint256)": "infinite",
				"_emitStakeStart(uint40,uint256,uint256,uint256,bool)": "infinite",
				"_shareRateUpdate(struct IGlobals.GlobalsCache memory,struct GlobalsAndUtility.StakeCache memory,uint256)": "infinite",
				"_splitPenaltyProceeds(struct IGlobals.GlobalsCache memory,uint256)": "infinite",
				"_stakePerformance(struct IGlobals.GlobalsCache memory,struct GlobalsAndUtility.StakeCache memory,uint256)": "infinite",
				"_stakeStart(struct IGlobals.GlobalsCache memory,uint256,uint256,bool)": "infinite",
				"_stakeStartBonusHearts(uint256,uint256)": "infinite",
				"_stakeUnlock(struct IGlobals.GlobalsCache memory,struct GlobalsAndUtility.StakeCache memory)": "infinite"
			}
		},
		"methodIdentifiers": {
			"CLAIM_PHASE_DAYS()": "319e74f6",
			"FLUSH_ADDR()": "13c5c2c7",
			"HEARTS_PER_SATOSHI()": "1285b047",
			"allocatedSupply()": "3a70a5ca",
			"allowance(address,address)": "dd62ed3e",
			"approve(address,uint256)": "095ea7b3",
			"balanceOf(address)": "70a08231",
			"btcAddressClaims(bytes20)": "7c426620",
			"contractOwner()": "ce606ee0",
			"currentDay()": "5c9302c9",
			"dailyData(uint256)": "90de6871",
			"dailyDataRange(uint256,uint256)": "6a210a0e",
			"dailyDataUpdate(uint256)": "8f1c65c0",
			"decimals()": "313ce567",
			"decreaseAllowance(address,uint256)": "a457c2d7",
			"getGlobalsLoad((uint256,uint256,uint256,uint256,uint256,uint256,uint40,uint256,uint256,uint256,uint256),(uint256,uint256,uint256,uint256,uint256,uint256,uint40,uint256,uint256,uint256,uint256))": "65d2a557",
			"getTreasureBoxAddress()": "34dc8bb5",
			"globalInfo()": "f04b5fa0",
			"globals()": "c3124525",
			"increaseAllowance(address,uint256)": "39509351",
			"mint(address,uint256,address)": "0d4d1513",
			"name()": "06fdde03",
			"setTreasureBoxAddress(address)": "8cba2842",
			"stakeCount(address)": "33060d90",
			"stakeEnd(uint256,uint40)": "343009a2",
			"stakeGoodAccounting(address,uint256,uint40)": "65cf71b2",
			"stakeLists(address,uint256)": "2607443b",
			"stakeStart(uint256,uint256)": "52a438b8",
			"symbol()": "95d89b41",
			"totalSupply()": "18160ddd",
			"transfer(address,uint256)": "a9059cbb",
			"transferFrom(address,address,uint256)": "23b872dd",
			"treasureBoxAddress()": "b626d6fc",
			"xfLobby(uint256)": "87a0f31c",
			"xfLobbyMembers(uint256,address)": "44203faf"
		}
	},
	"abi": [
		{
			"anonymous": false,
			"inputs": [
				{
					"indexed": true,
					"internalType": "address",
					"name": "owner",
					"type": "address"
				},
				{
					"indexed": true,
					"internalType": "address",
					"name": "spender",
					"type": "address"
				},
				{
					"indexed": false,
					"internalType": "uint256",
					"name": "value",
					"type": "uint256"
				}
			],
			"name": "Approval",
			"type": "event"
		},
		{
			"anonymous": false,
			"inputs": [
				{
					"indexed": false,
					"internalType": "uint256",
					"name": "data0",
					"type": "uint256"
				},
				{
					"indexed": false,
					"internalType": "uint256",
					"name": "data1",
					"type": "uint256"
				},
				{
					"indexed": true,
					"internalType": "bytes20",
					"name": "btcAddr",
					"type": "bytes20"
				},
				{
					"indexed": true,
					"internalType": "address",
					"name": "claimToAddr",
					"type": "address"
				},
				{
					"indexed": true,
					"internalType": "address",
					"name": "referrerAddr",
					"type": "address"
				}
			],
			"name": "Claim",
			"type": "event"
		},
		{
			"anonymous": false,
			"inputs": [
				{
					"indexed": false,
					"internalType": "uint256",
					"name": "data0",
					"type": "uint256"
				},
				{
					"indexed": false,
					"internalType": "uint256",
					"name": "data1",
					"type": "uint256"
				},
				{
					"indexed": false,
					"internalType": "uint256",
					"name": "data2",
					"type": "uint256"
				},
				{
					"indexed": true,
					"internalType": "address",
					"name": "senderAddr",
					"type": "address"
				}
			],
			"name": "ClaimAssist",
			"type": "event"
		},
		{
			"anonymous": false,
			"inputs": [
				{
					"indexed": false,
					"internalType": "uint256",
					"name": "data0",
					"type": "uint256"
				},
				{
					"indexed": true,
					"internalType": "address",
					"name": "updaterAddr",
					"type": "address"
				}
			],
			"name": "DailyDataUpdate",
			"type": "event"
		},
		{
			"anonymous": false,
			"inputs": [
				{
					"indexed": false,
					"internalType": "uint256",
					"name": "data0",
					"type": "uint256"
				},
				{
					"indexed": true,
					"internalType": "uint40",
					"name": "stakeId",
					"type": "uint40"
				}
			],
			"name": "ShareRateChange",
			"type": "event"
		},
		{
			"anonymous": false,
			"inputs": [
				{
					"indexed": false,
					"internalType": "uint256",
					"name": "data0",
					"type": "uint256"
				},
				{
					"indexed": false,
					"internalType": "uint256",
					"name": "data1",
					"type": "uint256"
				},
				{
					"indexed": true,
					"internalType": "address",
					"name": "stakerAddr",
					"type": "address"
				},
				{
					"indexed": true,
					"internalType": "uint40",
					"name": "stakeId",
					"type": "uint40"
				}
			],
			"name": "StakeEnd",
			"type": "event"
		},
		{
			"anonymous": false,
			"inputs": [
				{
					"indexed": false,
					"internalType": "uint256",
					"name": "data0",
					"type": "uint256"
				},
				{
					"indexed": false,
					"internalType": "uint256",
					"name": "data1",
					"type": "uint256"
				},
				{
					"indexed": true,
					"internalType": "address",
					"name": "stakerAddr",
					"type": "address"
				},
				{
					"indexed": true,
					"internalType": "uint40",
					"name": "stakeId",
					"type": "uint40"
				},
				{
					"indexed": true,
					"internalType": "address",
					"name": "senderAddr",
					"type": "address"
				}
			],
			"name": "StakeGoodAccounting",
			"type": "event"
		},
		{
			"anonymous": false,
			"inputs": [
				{
					"indexed": false,
					"internalType": "uint256",
					"name": "data0",
					"type": "uint256"
				},
				{
					"indexed": true,
					"internalType": "address",
					"name": "stakerAddr",
					"type": "address"
				},
				{
					"indexed": true,
					"internalType": "uint40",
					"name": "stakeId",
					"type": "uint40"
				}
			],
			"name": "StakeStart",
			"type": "event"
		},
		{
			"anonymous": false,
			"inputs": [
				{
					"indexed": true,
					"internalType": "address",
					"name": "from",
					"type": "address"
				},
				{
					"indexed": true,
					"internalType": "address",
					"name": "to",
					"type": "address"
				},
				{
					"indexed": false,
					"internalType": "uint256",
					"name": "value",
					"type": "uint256"
				}
			],
			"name": "Transfer",
			"type": "event"
		},
		{
			"anonymous": false,
			"inputs": [
				{
					"indexed": false,
					"internalType": "uint256",
					"name": "data0",
					"type": "uint256"
				},
				{
					"indexed": true,
					"internalType": "address",
					"name": "memberAddr",
					"type": "address"
				},
				{
					"indexed": true,
					"internalType": "uint256",
					"name": "entryId",
					"type": "uint256"
				},
				{
					"indexed": true,
					"internalType": "address",
					"name": "referrerAddr",
					"type": "address"
				}
			],
			"name": "XfLobbyEnter",
			"type": "event"
		},
		{
			"anonymous": false,
			"inputs": [
				{
					"indexed": false,
					"internalType": "uint256",
					"name": "data0",
					"type": "uint256"
				},
				{
					"indexed": true,
					"internalType": "address",
					"name": "memberAddr",
					"type": "address"
				},
				{
					"indexed": true,
					"internalType": "uint256",
					"name": "entryId",
					"type": "uint256"
				},
				{
					"indexed": true,
					"internalType": "address",
					"name": "referrerAddr",
					"type": "address"
				}
			],
			"name": "XfLobbyExit",
			"type": "event"
		},
		{
			"inputs": [],
			"name": "CLAIM_PHASE_DAYS",
			"outputs": [
				{
					"internalType": "uint256",
					"name": "",
					"type": "uint256"
				}
			],
			"stateMutability": "view",
			"type": "function"
		},
		{
			"inputs": [],
			"name": "FLUSH_ADDR",
			"outputs": [
				{
					"internalType": "address payable",
					"name": "",
					"type": "address"
				}
			],
			"stateMutability": "view",
			"type": "function"
		},
		{
			"inputs": [],
			"name": "HEARTS_PER_SATOSHI",
			"outputs": [
				{
					"internalType": "uint256",
					"name": "",
					"type": "uint256"
				}
			],
			"stateMutability": "view",
			"type": "function"
		},
		{
			"inputs": [],
			"name": "allocatedSupply",
			"outputs": [
				{
					"internalType": "uint256",
					"name": "",
					"type": "uint256"
				}
			],
			"stateMutability": "view",
			"type": "function"
		},
		{
			"inputs": [
				{
					"internalType": "address",
					"name": "owner",
					"type": "address"
				},
				{
					"internalType": "address",
					"name": "spender",
					"type": "address"
				}
			],
			"name": "allowance",
			"outputs": [
				{
					"internalType": "uint256",
					"name": "",
					"type": "uint256"
				}
			],
			"stateMutability": "view",
			"type": "function"
		},
		{
			"inputs": [
				{
					"internalType": "address",
					"name": "spender",
					"type": "address"
				},
				{
					"internalType": "uint256",
					"name": "amount",
					"type": "uint256"
				}
			],
			"name": "approve",
			"outputs": [
				{
					"internalType": "bool",
					"name": "",
					"type": "bool"
				}
			],
			"stateMutability": "nonpayable",
			"type": "function"
		},
		{
			"inputs": [
				{
					"internalType": "address",
					"name": "account",
					"type": "address"
				}
			],
			"name": "balanceOf",
			"outputs": [
				{
					"internalType": "uint256",
					"name": "",
					"type": "uint256"
				}
			],
			"stateMutability": "view",
			"type": "function"
		},
		{
			"inputs": [
				{
					"internalType": "bytes20",
					"name": "",
					"type": "bytes20"
				}
			],
			"name": "btcAddressClaims",
			"outputs": [
				{
					"internalType": "bool",
					"name": "",
					"type": "bool"
				}
			],
			"stateMutability": "view",
			"type": "function"
		},
		{
			"inputs": [],
			"name": "contractOwner",
			"outputs": [
				{
					"internalType": "address",
					"name": "",
					"type": "address"
				}
			],
			"stateMutability": "view",
			"type": "function"
		},
		{
			"inputs": [],
			"name": "currentDay",
			"outputs": [
				{
					"internalType": "uint256",
					"name": "",
					"type": "uint256"
				}
			],
			"stateMutability": "view",
			"type": "function"
		},
		{
			"inputs": [
				{
					"internalType": "uint256",
					"name": "",
					"type": "uint256"
				}
			],
			"name": "dailyData",
			"outputs": [
				{
					"internalType": "uint72",
					"name": "dayPayoutTotal",
					"type": "uint72"
				},
				{
					"internalType": "uint72",
					"name": "dayStakeSharesTotal",
					"type": "uint72"
				},
				{
					"internalType": "uint56",
					"name": "dayUnclaimedSatoshisTotal",
					"type": "uint56"
				}
			],
			"stateMutability": "view",
			"type": "function"
		},
		{
			"inputs": [
				{
					"internalType": "uint256",
					"name": "beginDay",
					"type": "uint256"
				},
				{
					"internalType": "uint256",
					"name": "endDay",
					"type": "uint256"
				}
			],
			"name": "dailyDataRange",
			"outputs": [
				{
					"internalType": "uint256[]",
					"name": "list",
					"type": "uint256[]"
				}
			],
			"stateMutability": "view",
			"type": "function"
		},
		{
			"inputs": [
				{
					"internalType": "uint256",
					"name": "beforeDay",
					"type": "uint256"
				}
			],
			"name": "dailyDataUpdate",
			"outputs": [],
			"stateMutability": "nonpayable",
			"type": "function"
		},
		{
			"inputs": [],
			"name": "decimals",
			"outputs": [
				{
					"internalType": "uint8",
					"name": "",
					"type": "uint8"
				}
			],
			"stateMutability": "view",
			"type": "function"
		},
		{
			"inputs": [
				{
					"internalType": "address",
					"name": "spender",
					"type": "address"
				},
				{
					"internalType": "uint256",
					"name": "subtractedValue",
					"type": "uint256"
				}
			],
			"name": "decreaseAllowance",
			"outputs": [
				{
					"internalType": "bool",
					"name": "",
					"type": "bool"
				}
			],
			"stateMutability": "nonpayable",
			"type": "function"
		},
		{
			"inputs": [
				{
					"components": [
						{
							"internalType": "uint256",
							"name": "_lockedHeartsTotal",
							"type": "uint256"
						},
						{
							"internalType": "uint256",
							"name": "_nextStakeSharesTotal",
							"type": "uint256"
						},
						{
							"internalType": "uint256",
							"name": "_shareRate",
							"type": "uint256"
						},
						{
							"internalType": "uint256",
							"name": "_stakePenaltyTotal",
							"type": "uint256"
						},
						{
							"internalType": "uint256",
							"name": "_dailyDataCount",
							"type": "uint256"
						},
						{
							"internalType": "uint256",
							"name": "_stakeSharesTotal",
							"type": "uint256"
						},
						{
							"internalType": "uint40",
							"name": "_latestStakeId",
							"type": "uint40"
						},
						{
							"internalType": "uint256",
							"name": "_unclaimedSatoshisTotal",
							"type": "uint256"
						},
						{
							"internalType": "uint256",
							"name": "_claimedSatoshisTotal",
							"type": "uint256"
						},
						{
							"internalType": "uint256",
							"name": "_claimedBtcAddrCount",
							"type": "uint256"
						},
						{
							"internalType": "uint256",
							"name": "_currentDay",
							"type": "uint256"
						}
					],
					"internalType": "struct IGlobals.GlobalsCache",
					"name": "g",
					"type": "tuple"
				},
				{
					"components": [
						{
							"internalType": "uint256",
							"name": "_lockedHeartsTotal",
							"type": "uint256"
						},
						{
							"internalType": "uint256",
							"name": "_nextStakeSharesTotal",
							"type": "uint256"
						},
						{
							"internalType": "uint256",
							"name": "_shareRate",
							"type": "uint256"
						},
						{
							"internalType": "uint256",
							"name": "_stakePenaltyTotal",
							"type": "uint256"
						},
						{
							"internalType": "uint256",
							"name": "_dailyDataCount",
							"type": "uint256"
						},
						{
							"internalType": "uint256",
							"name": "_stakeSharesTotal",
							"type": "uint256"
						},
						{
							"internalType": "uint40",
							"name": "_latestStakeId",
							"type": "uint40"
						},
						{
							"internalType": "uint256",
							"name": "_unclaimedSatoshisTotal",
							"type": "uint256"
						},
						{
							"internalType": "uint256",
							"name": "_claimedSatoshisTotal",
							"type": "uint256"
						},
						{
							"internalType": "uint256",
							"name": "_claimedBtcAddrCount",
							"type": "uint256"
						},
						{
							"internalType": "uint256",
							"name": "_currentDay",
							"type": "uint256"
						}
					],
					"internalType": "struct IGlobals.GlobalsCache",
					"name": "gSnapshot",
					"type": "tuple"
				}
			],
			"name": "getGlobalsLoad",
			"outputs": [],
			"stateMutability": "view",
			"type": "function"
		},
		{
			"inputs": [],
			"name": "getTreasureBoxAddress",
			"outputs": [
				{
					"internalType": "address",
					"name": "",
					"type": "address"
				}
			],
			"stateMutability": "view",
			"type": "function"
		},
		{
			"inputs": [],
			"name": "globalInfo",
			"outputs": [
				{
					"internalType": "uint256[13]",
					"name": "",
					"type": "uint256[13]"
				}
			],
			"stateMutability": "view",
			"type": "function"
		},
		{
			"inputs": [],
			"name": "globals",
			"outputs": [
				{
					"internalType": "uint72",
					"name": "lockedHeartsTotal",
					"type": "uint72"
				},
				{
					"internalType": "uint72",
					"name": "nextStakeSharesTotal",
					"type": "uint72"
				},
				{
					"internalType": "uint40",
					"name": "shareRate",
					"type": "uint40"
				},
				{
					"internalType": "uint72",
					"name": "stakePenaltyTotal",
					"type": "uint72"
				},
				{
					"internalType": "uint16",
					"name": "dailyDataCount",
					"type": "uint16"
				},
				{
					"internalType": "uint72",
					"name": "stakeSharesTotal",
					"type": "uint72"
				},
				{
					"internalType": "uint40",
					"name": "latestStakeId",
					"type": "uint40"
				},
				{
					"internalType": "uint128",
					"name": "claimStats",
					"type": "uint128"
				}
			],
			"stateMutability": "view",
			"type": "function"
		},
		{
			"inputs": [
				{
					"internalType": "address",
					"name": "spender",
					"type": "address"
				},
				{
					"internalType": "uint256",
					"name": "addedValue",
					"type": "uint256"
				}
			],
			"name": "increaseAllowance",
			"outputs": [
				{
					"internalType": "bool",
					"name": "",
					"type": "bool"
				}
			],
			"stateMutability": "nonpayable",
			"type": "function"
		},
		{
			"inputs": [
				{
					"internalType": "address",
					"name": "_receiver",
					"type": "address"
				},
				{
					"internalType": "uint256",
					"name": "_amount",
					"type": "uint256"
				},
				{
					"internalType": "address",
					"name": "_contractAddress",
					"type": "address"
				}
			],
			"name": "mint",
			"outputs": [],
			"stateMutability": "nonpayable",
			"type": "function"
		},
		{
			"inputs": [],
			"name": "name",
			"outputs": [
				{
					"internalType": "string",
					"name": "",
					"type": "string"
				}
			],
			"stateMutability": "view",
			"type": "function"
		},
		{
			"inputs": [
				{
					"internalType": "address",
					"name": "_treasureBoxAddress",
					"type": "address"
				}
			],
			"name": "setTreasureBoxAddress",
			"outputs": [],
			"stateMutability": "nonpayable",
			"type": "function"
		},
		{
			"inputs": [
				{
					"internalType": "address",
					"name": "stakerAddr",
					"type": "address"
				}
			],
			"name": "stakeCount",
			"outputs": [
				{
					"internalType": "uint256",
					"name": "",
					"type": "uint256"
				}
			],
			"stateMutability": "view",
			"type": "function"
		},
		{
			"inputs": [
				{
					"internalType": "uint256",
					"name": "stakeIndex",
					"type": "uint256"
				},
				{
					"internalType": "uint40",
					"name": "stakeIdParam",
					"type": "uint40"
				}
			],
			"name": "stakeEnd",
			"outputs": [],
			"stateMutability": "nonpayable",
			"type": "function"
		},
		{
			"inputs": [
				{
					"internalType": "address",
					"name": "stakerAddr",
					"type": "address"
				},
				{
					"internalType": "uint256",
					"name": "stakeIndex",
					"type": "uint256"
				},
				{
					"internalType": "uint40",
					"name": "stakeIdParam",
					"type": "uint40"
				}
			],
			"name": "stakeGoodAccounting",
			"outputs": [],
			"stateMutability": "nonpayable",
			"type": "function"
		},
		{
			"inputs": [
				{
					"internalType": "address",
					"name": "",
					"type": "address"
				},
				{
					"internalType": "uint256",
					"name": "",
					"type": "uint256"
				}
			],
			"name": "stakeLists",
			"outputs": [
				{
					"internalType": "uint40",
					"name": "stakeId",
					"type": "uint40"
				},
				{
					"internalType": "uint72",
					"name": "stakedHearts",
					"type": "uint72"
				},
				{
					"internalType": "uint72",
					"name": "stakeShares",
					"type": "uint72"
				},
				{
					"internalType": "uint16",
					"name": "lockedDay",
					"type": "uint16"
				},
				{
					"internalType": "uint16",
					"name": "stakedDays",
					"type": "uint16"
				},
				{
					"internalType": "uint16",
					"name": "unlockedDay",
					"type": "uint16"
				},
				{
					"internalType": "bool",
					"name": "isAutoStake",
					"type": "bool"
				}
			],
			"stateMutability": "view",
			"type": "function"
		},
		{
			"inputs": [
				{
					"internalType": "uint256",
					"name": "newStakedHearts",
					"type": "uint256"
				},
				{
					"internalType": "uint256",
					"name": "newStakedDays",
					"type": "uint256"
				}
			],
			"name": "stakeStart",
			"outputs": [],
			"stateMutability": "nonpayable",
			"type": "function"
		},
		{
			"inputs": [],
			"name": "symbol",
			"outputs": [
				{
					"internalType": "string",
					"name": "",
					"type": "string"
				}
			],
			"stateMutability": "view",
			"type": "function"
		},
		{
			"inputs": [],
			"name": "totalSupply",
			"outputs": [
				{
					"internalType": "uint256",
					"name": "",
					"type": "uint256"
				}
			],
			"stateMutability": "view",
			"type": "function"
		},
		{
			"inputs": [
				{
					"internalType": "address",
					"name": "to",
					"type": "address"
				},
				{
					"internalType": "uint256",
					"name": "amount",
					"type": "uint256"
				}
			],
			"name": "transfer",
			"outputs": [
				{
					"internalType": "bool",
					"name": "",
					"type": "bool"
				}
			],
			"stateMutability": "nonpayable",
			"type": "function"
		},
		{
			"inputs": [
				{
					"internalType": "address",
					"name": "from",
					"type": "address"
				},
				{
					"internalType": "address",
					"name": "to",
					"type": "address"
				},
				{
					"internalType": "uint256",
					"name": "amount",
					"type": "uint256"
				}
			],
			"name": "transferFrom",
			"outputs": [
				{
					"internalType": "bool",
					"name": "",
					"type": "bool"
				}
			],
			"stateMutability": "nonpayable",
			"type": "function"
		},
		{
			"inputs": [],
			"name": "treasureBoxAddress",
			"outputs": [
				{
					"internalType": "address",
					"name": "",
					"type": "address"
				}
			],
			"stateMutability": "view",
			"type": "function"
		},
		{
			"inputs": [
				{
					"internalType": "uint256",
					"name": "",
					"type": "uint256"
				}
			],
			"name": "xfLobby",
			"outputs": [
				{
					"internalType": "uint256",
					"name": "",
					"type": "uint256"
				}
			],
			"stateMutability": "view",
			"type": "function"
		},
		{
			"inputs": [
				{
					"internalType": "uint256",
					"name": "",
					"type": "uint256"
				},
				{
					"internalType": "address",
					"name": "",
					"type": "address"
				}
			],
			"name": "xfLobbyMembers",
			"outputs": [
				{
					"internalType": "uint40",
					"name": "headIndex",
					"type": "uint40"
				},
				{
					"internalType": "uint40",
					"name": "tailIndex",
					"type": "uint40"
				}
			],
			"stateMutability": "view",
			"type": "function"
		}
	]
}