{
	"data": {
		"bytecode": {
			"linkReferences": {},
			"object": "60a06040523480156200001157600080fd5b5060405180604001604052806007815260200166135e5b9d1a5cdd60ca1b815250604051806040016040528060048152602001631356539560e21b815250816003908162000060919062000121565b5060046200006f828262000121565b50503360805250620001ed565b634e487b7160e01b600052604160045260246000fd5b600181811c90821680620000a757607f821691505b602082108103620000c857634e487b7160e01b600052602260045260246000fd5b50919050565b601f8211156200011c57600081815260208120601f850160051c81016020861015620000f75750805b601f850160051c820191505b81811015620001185782815560010162000103565b5050505b505050565b81516001600160401b038111156200013d576200013d6200007c565b62000155816200014e845462000092565b84620000ce565b602080601f8311600181146200018d5760008415620001745750858301515b600019600386901b1c1916600185901b17855562000118565b600085815260208120601f198616915b82811015620001be578886015182559484019460019091019084016200019d565b5085821015620001dd5787850151600019600388901b60f8161c191681555b5050505050600190811b01905550565b608051615eb16200021060003960008181610a7a01526119850152615eb16000f3fe6080604052600436106102ae5760003560e01c80636a210a0e11610175578063a457c2d7116100dc578063ce606ee011610095578063dd62ed3e1161006f578063dd62ed3e14610acf578063ec9a191714610aef578063f04b5fa014610b0f578063f57a1b3c14610b3157600080fd5b8063ce606ee014610a68578063ce7d1f7714610a9c578063d5a373ff14610aaf57600080fd5b8063a457c2d7146108d6578063a9059cbb146108f6578063b626d6fc14610916578063bd926ed314610936578063c312452514610973578063cbb151d314610a4857600080fd5b80638e21aa011161012e5780638e21aa01146107be5780638f1c65c0146107de57806390de6871146107fe57806395d89b411461088157806396f62b9d14610896578063a042b1b6146108b657600080fd5b80636a210a0e146106be57806370a08231146106eb5780637c4266201461072157806387a0f31c146107515780638c84a47b1461077e5780638cba28421461079e57600080fd5b8063319e74f61161021957806344203faf116101d257806344203faf146105b457806344f0de751461061c57806352a438b8146106495780635c9302c91461066957806365cf71b21461067e57806365d2a5571461069e57600080fd5b8063319e74f6146104f657806333060d901461050b578063343009a21461054157806334dc8bb514610561578063395093511461057f5780633a70a5ca1461059f57600080fd5b806323b872dd1161026b57806323b872dd146103a85780632607443b146103c857806327aa60181461043a578063283a5baf1461045a57806330c1a78514610493578063313ce567146104da57600080fd5b806306fdde03146102b3578063095ea7b3146102de5780630d4d15131461030e5780631285b0471461033057806313c5c2c71461035357806318160ddd14610393575b600080fd5b3480156102bf57600080fd5b506102c8610b51565b6040516102d59190615479565b60405180910390f35b3480156102ea57600080fd5b506102fe6102f93660046154a3565b610be3565b60405190151581526020016102d5565b34801561031a57600080fd5b5061032e6103293660046154cd565b610bfd565b005b34801561033c57600080fd5b50610345610c6e565b6040519081526020016102d5565b34801561035f57600080fd5b5061037b73dec9f2793e3c17cd26eefb21c4762fa5128e039981565b6040516001600160a01b0390911681526020016102d5565b34801561039f57600080fd5b50600254610345565b3480156103b457600080fd5b506102fe6103c3366004615509565b610c99565b3480156103d457600080fd5b506103e86103e33660046154a3565b610cbf565b6040805164ffffffffff9890981688526001600160481b039687166020890152949095169386019390935261ffff9182166060860152811660808501521660a0830152151560c082015260e0016102d5565b34801561044657600080fd5b506102fe61045536600461558a565b610d3b565b34801561046657600080fd5b5061047a6104753660046155e7565b610d82565b6040516001600160601b031990911681526020016102d5565b34801561049f57600080fd5b5061037b6104ae366004615613565b604080516020808201949094528082019290925280518083038201815260609092019052805191012090565b3480156104e657600080fd5b50604051600881526020016102d5565b34801561050257600080fd5b50610345610f33565b34801561051757600080fd5b50610345610526366004615635565b6001600160a01b03166000908152600a602052604090205490565b34801561054d57600080fd5b5061032e61055c366004615665565b610f3f565b34801561056d57600080fd5b506005546001600160a01b031661037b565b34801561058b57600080fd5b506102fe61059a3660046154a3565b611217565b3480156105ab57600080fd5b50610345611239565b3480156105c057600080fd5b506105fe6105cf366004615691565b600c60209081526000928352604080842090915290825290205464ffffffffff80821691600160281b90041682565b6040805164ffffffffff9384168152929091166020830152016102d5565b34801561062857600080fd5b5061063c610637366004615635565b611260565b6040516102d591906156b4565b34801561065557600080fd5b5061032e610664366004615613565b611339565b34801561067557600080fd5b506103456113e3565b34801561068a57600080fd5b5061032e6106993660046156dc565b6113ed565b3480156106aa57600080fd5b5061032e6106b93660046157f5565b6116f9565b3480156106ca57600080fd5b506106de6106d9366004615613565b611707565b6040516102d59190615823565b3480156106f757600080fd5b50610345610706366004615635565b6001600160a01b031660009081526020819052604090205490565b34801561072d57600080fd5b506102fe61073c36600461587f565b60086020526000908152604090205460ff1681565b34801561075d57600080fd5b5061034561076c36600461589a565b600b6020526000908152604090205481565b34801561078a57600080fd5b5061034561079936600461589a565b611852565b3480156107aa57600080fd5b5061032e6107b9366004615635565b61197a565b3480156107ca57600080fd5b506102fe6107d93660046158b3565b611a04565b3480156107ea57600080fd5b5061032e6107f936600461589a565b611b0b565b34801561080a57600080fd5b5061085261081936600461589a565b6009602052600090815260409020546001600160481b0380821691600160481b810490911690600160901b900466ffffffffffffff1683565b604080516001600160481b03948516815293909216602084015266ffffffffffffff16908201526060016102d5565b34801561088d57600080fd5b506102c8611c03565b3480156108a257600080fd5b506103456108b136600461590d565b611c12565b3480156108c257600080fd5b506103456108d1366004615613565b611ef8565b3480156108e257600080fd5b506102fe6108f13660046154a3565b611fab565b34801561090257600080fd5b506102fe6109113660046154a3565b612031565b34801561092257600080fd5b5060055461037b906001600160a01b031681565b34801561094257600080fd5b506109566109513660046154a3565b61203f565b604080519283526001600160a01b039091166020830152016102d5565b34801561097f57600080fd5b506006546007546109e6916001600160481b0380821692600160481b830482169264ffffffffff600160901b8204811693600160b81b90920482169261ffff8116926201000082041691600160581b820416906001600160801b03600160801b9091041688565b604080516001600160481b03998a168152978916602089015264ffffffffff96871690880152938716606087015261ffff90921660808601529490941660a0840152921660c08201526001600160801b0390911660e0820152610100016102d5565b348015610a5457600080fd5b5061032e610a63366004615613565b612105565b348015610a7457600080fd5b5061037b7f000000000000000000000000000000000000000000000000000000000000000081565b61032e610aaa366004615635565b612412565b348015610abb57600080fd5b506102fe610aca3660046159d0565b6125ae565b348015610adb57600080fd5b50610345610aea366004615a44565b6126c8565b348015610afb57600080fd5b506102fe610b0a3660046158b3565b6126f3565b348015610b1b57600080fd5b50610b2461273c565b6040516102d59190615a6e565b348015610b3d57600080fd5b506106de610b4c366004615613565b61283e565b606060038054610b6090615a97565b80601f0160208091040260200160405190810160405280929190818152602001828054610b8c90615a97565b8015610bd95780601f10610bae57610100808354040283529160200191610bd9565b820191906000526020600020905b815481529060010190602001808311610bbc57829003601f168201915b5050505050905090565b600033610bf1818585612964565b60019150505b92915050565b6005546001600160a01b03828116911614610c5f5760405162461bcd60e51b815260206004820152601960248201527f43616c6c6572206973206e6f7420544220636f6e74726163740000000000000060448201526064015b60405180910390fd5b610c698383612a88565b505050565b6127106305f5e100610c826008600a615bc5565b610c8c9190615bd1565b610c969190615bf3565b81565b600033610ca7858285612b47565b610cb2858585612bbb565b60019150505b9392505050565b600a6020528160005260406000208181548110610cdb57600080fd5b60009182526020909120015464ffffffffff811692506001600160481b03600160281b820481169250600160701b8204169061ffff600160b81b8204811691600160c81b8104821691600160d81b8204169060ff600160e81b9091041687565b6000610d7a84848480806020026020016040519081016040528093929190818152602001838360200280828437600092019190915250612d5f92505050565b949350505050565b600080606060028416158015906004861615159060088716151590610e4757818015610dab5750805b15610df35760405162461bcd60e51b8152602060048201526018602482015277135653950e8818db185a5b519b1859dcc81a5b9d985b1a5960421b6044820152606401610c56565b600160f81b60f889901b1615610e0a576003610e0d565b60025b6040516001600160f81b031960f883901b166020820152602181018b90529095506041016040516020818303038152906040529350610ece565b81158015610e53575080155b610e9a5760405162461bcd60e51b8152602060048201526018602482015277135653950e8818db185a5b519b1859dcc81a5b9d985b1a5960421b6044820152606401610c56565b604051600160fa1b6020820152602181018a9052604181018990526004955060610160405160208183030381529060405293505b6000610ed985612d8c565b90508215610f2657604051600560f21b60208201526001600160601b031982166022820152610f1990603601604051602081830303815290604052612d8c565b9650505050505050610cb8565b9998505050505050505050565b610c9660326007615bf3565b610f47615345565b610f4f615345565b610f598282612e39565b336000908152600a602052604081208054909103610fb25760405162461bcd60e51b8152602060048201526016602482015275135653950e88115b5c1d1e481cdd185ad9481b1a5cdd60521b6044820152606401610c56565b80548510610ffd5760405162461bcd60e51b8152602060048201526018602482015277135653950e881cdd185ad9525b99195e081a5b9d985b1a5960421b6044820152606401610c56565b6110056153a6565b61102b82878154811061101a5761101a615c0a565b906000526020600020018683612ee7565b61103484612fb5565b6000808260a001516000141590506000806000905060008086606001518a61014001511061111d57841561106e5786608001519550611103565b6110788a88612fc9565b86606001518a610140015161108d9190615c20565b955086608001518611156110a75786608001519550611103565b61015e861015611103578660c00151156111035760405162461bcd60e51b815260206004820152601d60248201527f4d594e543a204175746f2d7374616b65207374696c6c206c6f636b65640000006044820152606401610c56565b61110e8a8888612ff1565b92965090945092509050611190565b8660c001511561116f5760405162461bcd60e51b815260206004820152601d60248201527f4d594e543a204175746f2d7374616b65207374696c6c206c6f636b65640000006044820152606401610c56565b86604001518a6020018181516111859190615c20565b905250602087015193505b6111a78b8860200151896040015186868b8b6130b5565b80158015906111b4575084155b156111c3576111c38a82613175565b83156111de576111d33385612a88565b6111de8a88866131ce565b60208701518a518b906111f2908390615c20565b9052506111ff888d613261565b6112098a8a6133f6565b505050505050505050505050565b600033610bf181858561122a83836126c8565b6112349190615c33565b612964565b6006546000906001600160481b031661125160025490565b61125b9190615c33565b905090565b6112686153ec565b60006112726135d6565b61127d906001615c33565b905061128b60326007615bf3565b611296906001615c33565b8111156112b7576112a960326007615bf3565b6112b4906001615c33565b90505b8015611333576000818152600c602090815260408083206001600160a01b038716845290915290205464ffffffffff808216600160281b90920416111561132157600160ff82161b82600883901c6002811061131557611315615c0a565b60200201805190911790525b8061132b81615c46565b9150506112b7565b50919050565b611341615345565b611349615345565b6113538282612e39565b60018310156113b35760405162461bcd60e51b815260206004820152602660248201527f4d594e543a206e65775374616b656444617973206c6f776572207468616e206d604482015265696e696d756d60d01b6064820152608401610c56565b6113bc82612fb5565b6113c982858560006135f2565b6113d333856138c7565b6113dd82826133f6565b50505050565b600061125b6135d6565b6113f5615345565b6113fd615345565b6114078282612e39565b6001600160a01b0385166000908152600a602052604081205490036114675760405162461bcd60e51b8152602060048201526016602482015275135653950e88115b5c1d1e481cdd185ad9481b1a5cdd60521b6044820152606401610c56565b6001600160a01b0385166000908152600a602052604090205484106114c95760405162461bcd60e51b8152602060048201526018602482015277135653950e881cdd185ad9525b99195e081a5b9d985b1a5960421b6044820152606401610c56565b6001600160a01b0385166000908152600a602052604081208054869081106114f3576114f3615c0a565b9060005260206000200190506115076153a6565b611512828683612ee7565b806080015181606001516115269190615c33565b846101400151101561157a5760405162461bcd60e51b815260206004820152601c60248201527f4d594e543a205374616b65206e6f742066756c6c7920736572766564000000006044820152606401610c56565b60a0810151156115cc5760405162461bcd60e51b815260206004820152601c60248201527f4d594e543a205374616b6520616c726561647920756e6c6f636b6564000000006044820152606401610c56565b6115d584612fb5565b6115df8482612fc9565b60008060006115f387858660800151612ff1565b935093509350506116108a898660200151876040015187876139f9565b8015611620576116208782613175565b83518554602086015160408701516060880151608089015160a08a015160c08b015164ffffffffff9097166001600160701b031990961695909517600160281b6001600160481b039586160217600160701b600160c81b031916600160701b949093169390930261ffff60b81b191691909117600160b81b61ffff928316021763ffffffff60c81b1916600160c81b9282169290920261ffff60d81b191691909117600160d81b91909216021760ff60e81b1916600160e81b911515919091021785556116ed87876133f6565b50505050505050505050565b6117038282612e39565b5050565b6060818310801561171e575060075461ffff168211155b6117605760405162461bcd60e51b8152602060048201526013602482015272135653950e881c985b99d9481a5b9d985b1a59606a1b6044820152606401610c56565b61176a8383615c20565b67ffffffffffffffff8111156117825761178261570f565b6040519080825280602002602001820160405280156117ab578160200160208202803683370190505b509050826000805b6117bf60486002615bf3565b600084815260096020526040902054600160901b810466ffffffffffffff1690911b600160481b820460481b71ffffffffffffffffff00000000000000000016176001600160481b0390911617905080848361181a81615c5d565b94508151811061182c5761182c615c0a565b60209081029190910101528461184184615c5d565b935083106117b35750505092915050565b60006001821061195857611864615345565b61186c615345565b6118768282612e39565b61187f82612fb5565b600084815260096020908152604091829020548251808401909352600b83526a03ab731b630b4b6b2b21d160ad1b91830191909152600160901b900466ffffffffffffff16906118cf9082613a96565b6118db60326007615bf3565b6127106305f5e1006118ef6008600a615bc5565b6118f99190615bd1565b6119039190615bf3565b61190d9083615bf3565b6119179190615bd1565b93506119466040518060400160405280600b81526020016a03bb0b0b9a637b1313c9d160ad1b81525085613a96565b61195083836133f6565b505050919050565b6119646008600a615bc5565b61197290633b9aca00615bf3565b90505b919050565b336001600160a01b037f000000000000000000000000000000000000000000000000000000000000000016146119e25760405162461bcd60e51b815260206004820152600d60248201526c2737ba103a34329027bbb732b960991b6044820152606401610c56565b600580546001600160a01b0319166001600160a01b0392909216919091179055565b600080611a0f6135d6565b90506001811015611a325760405162461bcd60e51b8152600401610c5690615c76565b611a3e60326007615bf3565b611a49906001615c33565b8110611a975760405162461bcd60e51b815260206004820152601b60248201527f4d594e543a20436c61696d2070686173652068617320656e64656400000000006044820152606401610c56565b6001600160601b0319861660009081526008602052604090205460ff1615611ac3576000915050610d7a565b611b018686868680806020026020016040519081016040528093929190818152602001838360200280828437600092019190915250613adb92505050565b9695505050505050565b611b13615345565b611b1b615345565b611b258282612e39565b600182610140015111611b6c5760405162461bcd60e51b815260206004820152600f60248201526e4d594e543a20546f6f206561726c7960881b6044820152606401610c56565b8215611be857816101400151831115611bd75760405162461bcd60e51b815260206004820152602760248201527f4d594e543a206265666f72654461792063616e6e6f7420626520696e207468656044820152662066757475726560c81b6064820152608401610c56565b611be382846000613c18565b611bf9565b611bf9828361014001516000613c18565b610c6982826133f6565b606060048054610b6090615a97565b600065173cdf6f6e318d1115611c635760405162461bcd60e51b81526020600482015260166024820152754d594e543a2043484b3a207261775361746f7368697360501b6044820152606401610c56565b61015e831015611cc45760405162461bcd60e51b815260206004820152602660248201527f4d594e543a206175746f5374616b6544617973206c6f776572207468616e206d604482015265696e696d756d60d01b6064820152608401610c56565b60006001600160a01b038b163314611d3557604080517f4e831acb4223b66de3b3d2e54a2edeefb0de3d7916e2886a4b134d9764d41bec6020820152908101859052606084811b6001600160601b031916908201526074016040516020818303038152906040528051906020012090505b611d458b828c8c8c8c8c8c6125ae565b611d915760405162461bcd60e51b815260206004820152601860248201527f4d594e543a205369676e6174757265206d69736d6174636800000000000000006044820152606401610c56565b506000611d9f8a8a8a610d82565b6001600160601b0319811660009081526008602052604090205490915060ff1615611e1e5760405162461bcd60e51b815260206004820152602960248201527f4d594e543a2042544320616464726573732062616c616e636520616c726561646044820152681e4818db185a5b595960ba1b6064820152608401610c56565b611e5c818f8f8f80806020026020016040519081016040528093929190818152602001838360200280828437600092019190915250613adb92505050565b611eb45760405162461bcd60e51b8152602060048201526024808201527f4d594e543a204254432061646472657373206f722062616c616e636520756e6b6044820152633737bbb760e11b6064820152608401610c56565b6001600160601b031981166000908152600860205260409020805460ff19166001179055611ee68e8c838b8888613cfd565b9e9d5050505050505050505050505050565b6000600160801b8310611f4d5760405162461bcd60e51b815260206004820152601960248201527f656e7465724461792065786365656473203132382062697473000000000000006044820152606401610c56565b600160281b8210611fa05760405162461bcd60e51b815260206004820152601a60248201527f656e747279496e646578206578636565647320343020626974730000000000006044820152606401610c56565b5060289190911b1790565b60003381611fb982866126c8565b9050838110156120195760405162461bcd60e51b815260206004820152602560248201527f45524332303a2064656372656173656420616c6c6f77616e63652062656c6f77604482015264207a65726f60d81b6064820152608401610c56565b6120268286868403612964565b506001949350505050565b600033610bf1818585612bbb565b600080602883901c816120576001600160281b615c20565b6000838152600c602090815260408083206001600160a01b038b1684528252808320938916808452600190940190915281208054929350916001600160601b031690036120dc5760405162461bcd60e51b8152602060048201526013602482015272135653950e8814185c985b481a5b9d985b1a59606a1b6044820152606401610c56565b546001600160601b0381169450600160601b90046001600160a01b0316925050505b9250929050565b61210d6135d6565b821061215b5760405162461bcd60e51b815260206004820152601b60248201527f4d594e543a20526f756e64206973206e6f7420636f6d706c65746500000000006044820152606401610c56565b6000828152600c6020908152604080832033845290915281208054909164ffffffffff9091169083156121f95782546121a3908390600160281b900464ffffffffff16615c20565b8411156121e85760405162461bcd60e51b8152602060048201526013602482015272135653950e8818dbdd5b9d081a5b9d985b1a59606a1b6044820152606401610c56565b6121f28483615c33565b905061224f565b508154600160281b900464ffffffffff1680821061224f5760405162461bcd60e51b8152602060048201526013602482015272135653950e8818dbdd5b9d081a5b9d985b1a59606a1b6044820152606401610c56565b600061225a86611852565b90506000600b60008881526020019081526020016000205490506122a960405180604001604052806013815260200172032b73a32b92230bc902fbc332637b1313c9d1606d1b81525082613a96565b6000805b600086815260018801602052604081208054908290556001600160601b03811691600160601b9091046001600160a01b031690856122eb8489615bf3565b6122f59190615bd1565b90506001600160a01b038216612316576123118c8a8385613d40565b61239c565b6000612323600a83615bd1565b905061232f8183615c33565b9150600061233e600584615bd1565b9050336001600160a01b0385160361236d5761235a8184615c33565b92506123688e8c8587613d40565b612383565b6123798e8c8587613d40565b6123838482612a88565b61238d8183615c33565b6123979087615c33565b955050505b6123a68186615c33565b945050505084866123b690615c5d565b965086106122ad57865464ffffffffff191664ffffffffff871617875580156123f7576123f7739a6a414d6f3497c05e3b1de90520765fa1e07c0382612a88565b8115612407576124073383612a88565b505050505050505050565b600061241c6135d6565b905061242a60326007615bf3565b612435906001615c33565b81106124835760405162461bcd60e51b815260206004820152601860248201527f4d594e543a204c6f6262696573206861766520656e64656400000000000000006044820152606401610c56565b3460008190036124cd5760405162461bcd60e51b8152602060048201526015602482015274135653950e88105b5bdd5b9d081c995c5d5a5c9959605a1b6044820152606401610c56565b6000828152600c6020908152604080832033845290915281208054909190600160281b900464ffffffffff1682600561250583615cbb565b82546101009290920a64ffffffffff8181021990931691831602179091556040805180820182526001600160601b0387811682526001600160a01b038a8116602080850191825296909516600081815260018a0188528581209451965196909316600160601b969092169590950217909155878152600b9093528220805491935085929091612595908490615c33565b909155506125a7905084828588613db0565b5050505050565b6000601b8460ff16101580156125c85750601e8460ff1611155b6126065760405162461bcd60e51b815260206004820152600f60248201526e135653950e881d881a5b9d985b1a59608a1b6044820152606401610c56565b6040805160208082018a905281830189905282518083038401815260609092019092528051910120600061264361263e8c8c8a613e12565b613ff5565b60408051600081526020810180835283905260ff89169181019190915260608101879052608081018690529091506001600160a01b0383169060019060a0016020604051602081039080840390855afa1580156126a4573d6000803e3d6000fd5b505050602060405103516001600160a01b0316149250505098975050505050505050565b6001600160a01b03918216600090815260016020908152604080832093909416825291909152205490565b60006127338585858580806020026020016040519081016040528093929190818152602001838360200280828437600092019190915250613adb92505050565b95945050505050565b61274461540a565b6007546000908190819061276790600160801b90046001600160801b03166140b4565b604080516101a0810182526006546001600160481b038082168352600160481b82048116602084015264ffffffffff600160901b8304811694840194909452600160b81b9091048116606083015260075461ffff8116608084015262010000810490911660a0830152600160581b900490911660c082015260e0810182905261010081018390526101208101849052426101408201529295509093509150610160810161281360025490565b8152602001600b60006128246135d6565b815260200190815260200160002054815250935050505090565b60608183108015612865575061285660326007615bf3565b612861906001615c33565b8211155b801561287857506128746135d6565b8211155b6128ba5760405162461bcd60e51b81526020600482015260136024820152724d594e543a20696e76616c69642072616e676560681b6044820152606401610c56565b6128c48383615c20565b67ffffffffffffffff8111156128dc576128dc61570f565b604051908082528060200260200182016040528015612905578160200160208202803683370190505b5090508260005b600b60008361291a81615c5d565b945081526020019081526020016000205483828061293790615c5d565b93508151811061294957612949615c0a565b60200260200101818152505083821061290c57505092915050565b6001600160a01b0383166129c65760405162461bcd60e51b8152602060048201526024808201527f45524332303a20617070726f76652066726f6d20746865207a65726f206164646044820152637265737360e01b6064820152608401610c56565b6001600160a01b038216612a275760405162461bcd60e51b815260206004820152602260248201527f45524332303a20617070726f766520746f20746865207a65726f206164647265604482015261737360f01b6064820152608401610c56565b6001600160a01b0383811660008181526001602090815260408083209487168084529482529182902085905590518481527f8c5be1e5ebec7d5bd14f71427d1e84f3dd0314c0f7b2291e5b200ac8c7c3b925910160405180910390a3505050565b6001600160a01b038216612ade5760405162461bcd60e51b815260206004820152601f60248201527f45524332303a206d696e7420746f20746865207a65726f2061646472657373006044820152606401610c56565b8060026000828254612af09190615c33565b90915550506001600160a01b038216600081815260208181526040808320805486019055518481527fddf252ad1be2c89b69c2b068fc378daa952ba7f163c4a11628f55a4df523b3ef910160405180910390a35050565b6000612b5384846126c8565b905060001981146113dd5781811015612bae5760405162461bcd60e51b815260206004820152601d60248201527f45524332303a20696e73756666696369656e7420616c6c6f77616e63650000006044820152606401610c56565b6113dd8484848403612964565b6001600160a01b038316612c1f5760405162461bcd60e51b815260206004820152602560248201527f45524332303a207472616e736665722066726f6d20746865207a65726f206164604482015264647265737360d81b6064820152608401610c56565b6001600160a01b038216612c815760405162461bcd60e51b815260206004820152602360248201527f45524332303a207472616e7366657220746f20746865207a65726f206164647260448201526265737360e81b6064820152608401610c56565b6001600160a01b03831660009081526020819052604090205481811015612cf95760405162461bcd60e51b815260206004820152602660248201527f45524332303a207472616e7366657220616d6f756e7420657863656564732062604482015265616c616e636560d01b6064820152608401610c56565b6001600160a01b03848116600081815260208181526040808320878703905593871680835291849020805487019055925185815290927fddf252ad1be2c89b69c2b068fc378daa952ba7f163c4a11628f55a4df523b3ef910160405180910390a36113dd565b6000610cb8827f4e831acb4223b66de3b3d2e54a2edeefb0de3d7916e2886a4b134d9764d41bec85614121565b60006003600283604051612da09190615cdf565b602060405180830381855afa158015612dbd573d6000803e3d6000fd5b5050506040513d601f19601f82011682018060405250810190612de09190615cfb565b604051602001612df291815260200190565b60408051601f1981840301815290829052612e0c91615cdf565b602060405180830381855afa158015612e29573d6000803e3d6000fd5b50506040515160601b9392505050565b6006546001600160481b038082168452600160481b82048116602085015264ffffffffff600160901b830481166040860152600160b81b9092048116606085015260075461ffff8116608086015262010000810490911660a0850152600160581b810490911660c0840152612ebe906001600160801b03600160801b909104166140b4565b60e0850152610100840152610120830152612ed76135d6565b6101408301526117038282614137565b825464ffffffffff838116911614612f415760405162461bcd60e51b815260206004820152601f60248201527f4d594e543a207374616b654964506172616d206e6f7420696e207374616b65006044820152606401610c56565b915464ffffffffff811683526001600160481b03600160281b820481166020850152600160701b820416604084015261ffff600160b81b820481166060850152600160c81b820481166080850152600160d81b82041660a084015260ff600160e81b90910416151560c09092019190915250565b612fc6818261014001516001613c18565b50565b80604001518260a001818151612fdf9190615c20565b9052506101409091015160a090910152565b60008060008085608001518510156130385761301c8787606001518860800151888a6040015161419f565b60208801519194509250613031908490615c33565b9350613086565b604086015160608701516130579189916130528982615c33565b61428d565b92508286602001516130699190615c33565b9350613083866060015187608001518860a00151876143f9565b91505b81156130ac578382111561309d57506000926130ac565b50806130a98185615c20565b93505b93509350935093565b8664ffffffffff16336001600160a01b03167f72d9c5a7ab13846e08d9c838f9e866a1bb4a66a2fd3ba3c9e7da3cf9e394dfd760b8876001600160481b0316901b6070896001600160481b0316901b60288b6001600160481b0316901b4264ffffffffff161717178461312957600061312f565b600160581b5b6001600160601b031660488761ffff16901b886001600160481b03161717604051613164929190918252602082015260400190565b60405180910390a350505050505050565b6000613182600283615bd1565b905080156131a8576131a8739a6a414d6f3497c05e3b1de90520765fa1e07c0382612a88565b6131b28183615c20565b905080836060018181516131c69190615c33565b905250505050565b8160200151811115610c695760006131ea828460800151614459565b905060008360400151620186a083856132039190615c33565b61320d9190615bf3565b6132179190615bd1565b90506132286001600160281b615c20565b8111156132415761323e6001600160281b615c20565b90505b84604001518111156125a7576040850181905283516125a79082906145c7565b815460009061327290600190615c20565b90508082146133bf5782818154811061328d5761328d615c0a565b906000526020600020018383815481106132a9576132a9615c0a565b6000918252602090912082549101805464ffffffffff19811664ffffffffff909316928317825583546001600160481b03600160281b9182900481169091026001600160701b0319909216909317178082558354600160701b9081900490931690920268ffffffffffffffffff60701b19831681178255835461ffff600160b81b91829004811690910261ffff60b81b19909216600160701b600160c81b031990941693909317178082558354600160c81b9081900484160261ffff60c81b198216811783558454600160d81b9081900490941690930261ffff60d81b1990931663ffffffff60c81b199091161791909117808255915460ff600160e81b918290041615150260ff60e81b199092169190911790555b828054806133cf576133cf615d14565b600082815260209020810160001990810180546001600160f01b0319169055019055505050565b8051825114158061340f57508060200151826020015114155b8061342257508060400151826040015114155b8061343557508060600151826060015114155b156134b8578151600680546020850151604086015160608701516001600160481b03908116600160b81b026001600160b81b0364ffffffffff909316600160901b029290921671ffffffffffffffffffffffffffffffffffff938216600160481b026001600160901b031990951691909616179290921716929092179190911790555b806080015182608001511415806134d757508060a001518260a0015114155b806134f857508060c0015164ffffffffff168260c0015164ffffffffff1614155b8061350b57508060e001518260e0015114155b80613520575080610100015182610100015114155b80613535575080610120015182610120015114155b156117035760808201516007805460a085015160c086015164ffffffffff16600160581b0264ffffffffff60581b196001600160481b0390921662010000026affffffffffffffffffffff1990931661ffff90951694909417919091171691909117905561012082015161010083015160e08401516135b5929190614620565b600780546001600160801b03928316600160801b0292169190911790555050565b6000603c6135e86365645b8f42615c20565b61125b9190615bd1565b6115b38211156136545760405162461bcd60e51b815260206004820152602760248201527f4d594e543a206e65775374616b65644461797320686967686572207468616e206044820152666d6178696d756d60c81b6064820152608401610c56565b60006136608484614459565b905060008560400151620186a083876136799190615c33565b6136839190615bf3565b61368d9190615bd1565b9050806000036137055760405162461bcd60e51b815260206004820152603860248201527f4d594e543a206e65775374616b6564486561727473206d75737420626520617460448201527f206c65617374206d696e696d756d2073686172655261746500000000000000006064820152608401610c56565b600060018761014001511061372a57610140870151613725906001615c33565b613735565b613735600180615c33565b905060008760c001805161374890615cbb565b64ffffffffff1690819052336000908152600a6020526040902090915061388790828986868b8b6040805160e08101825264ffffffffff97881681526001600160481b03968716602080830191825296881692820192835261ffff9586166060830190815294861660808301908152600060a0840181815295151560c085019081528c54600181018e559c8252989020925192909a0180549151935195519a51945197511515600160e81b0260ff60e81b19988816600160d81b0261ffff60d81b19968916600160c81b029690961663ffffffff60c81b199c909816600160b81b0261ffff60b81b19978b16600160701b0297909716600160701b600160c81b031995909a16600160281b026001600160701b031990931693909a16929092171791909116959095179190911795909516179390931792909216179055565b6138948188858989614644565b82886020018181516138a69190615c33565b9052508751879089906138ba908390615c33565b9052505050505050505050565b6001600160a01b0382166139275760405162461bcd60e51b815260206004820152602160248201527f45524332303a206275726e2066726f6d20746865207a65726f206164647265736044820152607360f81b6064820152608401610c56565b6001600160a01b0382166000908152602081905260409020548181101561399b5760405162461bcd60e51b815260206004820152602260248201527f45524332303a206275726e20616d6f756e7420657863656564732062616c616e604482015261636560f01b6064820152608401610c56565b6001600160a01b0383166000818152602081815260408083208686039055600280548790039055518581529192917fddf252ad1be2c89b69c2b068fc378daa952ba7f163c4a11628f55a4df523b3ef910160405180910390a3505050565b604080514264ffffffffff9081166dffffffffffffffffff0000000000602889901b161768ffffffffffffffffff60701b607088901b16176001600160b81b031960b887901b161782526001600160481b03841660208301523392908816916001600160a01b038a16917fd824970a2cf19cc2b630c87ce5b00f67301cac3ac60513d027c7a39129f93b46910160405180910390a4505050505050565b6117038282604051602401613aac929190615d2a565b60408051601f198184030181529190526020810180516001600160e01b0316632d839cb360e21b1790526146d8565b6000602d6001613aec826060615c20565b6001901b613afa9190615c20565b901b82600081518110613b0f57613b0f615c0a565b602002602001015160001c16600014613b605760405162461bcd60e51b8152602060048201526013602482015272135653950e881c1c9bdbd9881a5b9d985b1a59606a1b6044820152606401610c56565b60015b8251811015613c0057602d6001613b7b826060615c20565b6001901b613b899190615c20565b901b838281518110613b9d57613b9d615c0a565b602002602001015160001c16600003613bee5760405162461bcd60e51b8152602060048201526013602482015272135653950e881c1c9bdbd9881a5b9d985b1a59606a1b6044820152606401610c56565b80613bf881615c5d565b915050613b63565b506001600160601b0319841683176127338184612d5f565b81836080015110613c2857505050565b613c4c60405180606001604052806000815260200160008152602001600081525090565b8351600254613c5b9190615c33565b81526080840151613c6d8583836146e1565b602085015115613c985784602001518560a001818151613c8d9190615c33565b905250600060208601525b83613ca282615c5d565b9150811015613cbb57613cb68583836146e1565b613c98565b613cca85608001518285614759565b608085018190526020820151156125a7576125a7739a6a414d6f3497c05e3b1de90520765fa1e07c038360200151612a88565b6000613d07615345565b613d0f615345565b613d198282612e39565b613d28828a8a8a8a8a8a6147d2565b9250613d3482826133f6565b50509695505050505050565b806001600160a01b031683602886901b17336001600160a01b03167fa6b19fa7f41317a186e1d58e9d81f86a52f1102b6bce10b4eca83f37aaa584686028866001600160481b0316901b4264ffffffffff1617604051613da291815260200190565b60405180910390a450505050565b806001600160a01b031683602886901b17336001600160a01b03167f25ecdb937d5c5cc78f0d18dfb1ac82c44086b5dc608380ba357d06c9868f0b1d6028866001600160601b0316901b4264ffffffffff1617604051613da291815260200190565b60606000600183168103613e4e576040518060400160405280601081526020016f086d8c2d2dabe9ab29ca8bee8debe60f60831b815250613e85565b6040518060400160405280601781526020017f436c61696d5f426974636f696e4d594e545f746f5f30780000000000000000008152505b905060108316156000613e98878361494b565b90506000869003613f08576018772134ba31b7b4b71029b4b3b732b21026b2b9b9b0b3b29d0560411b613ecd60146002615d4c565b8551613ed99190615d6f565b8584604051602001613eef959493929190615d88565b6040516020818303038152906040529350505050610cb8565b6000613f16600c6002615d4c565b60ff1667ffffffffffffffff811115613f3157613f3161570f565b6040519080825280601f01601f191660200182016040528015613f5b576020820181803683370190505b509050613f6a8188600c614a3e565b6018772134ba31b7b4b71029b4b3b732b21026b2b9b9b0b3b29d0560411b613f94600c6002615d4c565b613fa060146002615d4c565b8751613fac9190615d6f565b613fb7906001615d6f565b613fc19190615d6f565b868585604051602001613fd996959493929190615df0565b6040516020818303038152906040529450505050509392505050565b6000600280836040516140089190615cdf565b602060405180830381855afa158015614025573d6000803e3d6000fd5b5050506040513d601f19601f820116820180604052508101906140489190615cfb565b60405160200161405a91815260200190565b60408051601f198184030181529082905261407491615cdf565b602060405180830381855afa158015614091573d6000803e3d6000fd5b5050506040513d601f19601f820116820180604052508101906119729190615cfb565b600080806140c460336002615bf3565b6001600160801b0380861690911c1692506140e760016608000000000000615c20565b603385901c16691fffffffffffffffffff16915061410d60016608000000000000615c20565b846001600160801b03161690509193909250565b60008261412e8584614b39565b14949350505050565b815181526020808301519082015260408083015190820152606080830151908201526080808301519082015260a0808301519082015260c08083015164ffffffffff169082015260e08083015190820152610100808301519082015261012091820151910152565b600080806141ad8588615c33565b9050600060026141be886001615c33565b6141c89190615bd1565b9050605a8110156141d75750605a5b856000036142025760006141ec8a878b614b86565b90506141f88282615bf3565b9350505050614283565b8581101561424b576000614216828a615c33565b90506142248a878b8461428d565b935060006142348b88848761428d565b90506142408186615c33565b955050505050614283565b61425789868a8561428d565b935085810361426857839250614280565b856142738286615bf3565b61427d9190615bd1565b92505b50505b9550959350505050565b6000825b828110156142ee576000818152600960205260409020546001600160481b03600160481b82048116916142c691889116615bf3565b6142d09190615bd1565b6142da9083615c33565b9150806142e681615c5d565b915050614291565b506142fb60326007615bf3565b614306906001615c33565b614311906001615c33565b8311158015614340575061432760326007615bf3565b614332906001615c33565b61433d906001615c33565b82115b15610d7a57600060098161435660326007615bf3565b614361906001615c33565b61436c906001615c33565b8152602081019190915260400160002054600160481b90046001600160481b0316856127106305f5e1006143a26008600a615bc5565b6143ac9190615bd1565b6143b69190615bf3565b8860e001516143c59190615bf3565b6143cf9190615bf3565b6143d99190615bd1565b90506143e58682614cb9565b6143ef9082615c33565b611b019083615c33565b60008061440860026007615bf3565b6144128688615c33565b61441c9190615c33565b905080841161442f576000915050610d7a565b61443b60646007615bf3565b6144458286615c20565b61444f9085615bf3565b611b019190615bd1565b60008060018311156144c957606460c86144766014618e30615bd1565b6144809190615bf3565b61448a9190615bd1565b8311156144bb57606460c86144a26014618e30615bd1565b6144ac9190615bf3565b6144b69190615bd1565b6144c6565b6144c6600184615c20565b90505b60006144d76008600a615bc5565b6144e5906308f0d180615bf3565b85111561450b576144f86008600a615bc5565b614506906308f0d180615bf3565b61450d565b845b905061451c6014618e30615bd1565b6145269082615bf3565b600a614533600882615bc5565b614541906308f0d180615bf3565b61454c906064615bf3565b6145569190615bd1565b6145609084615bf3565b61456a9190615c33565b9250600a614579600882615bc5565b614587906308f0d180615bf3565b614592906064615bf3565b61459c9190615bd1565b6145a96014618e30615bd1565b6145b39190615bf3565b6145bd8487615bf3565b6127339190615bd1565b8064ffffffffff167f9861fa0ed101659f7a59b4583fcc798dfa4f3b419bea371c8ee2ad0ffe13a31e60288464ffffffffff16901b4264ffffffffff161760405161461491815260200190565b60405180910390a25050565b60008061462f60336002615bf3565b9490941b60339390931b929092171792915050565b64ffffffffff8516337f14872dc760f33532684e68e1b6d5fd3f71ba7b07dee76bdb2b084f28b74233ef8361467a576000614680565b600160c81b5b6001600160d01b031660b88661ffff16901b6070886001600160481b0316901b60288a6001600160481b0316901b4264ffffffffff16171717176040516146c991815260200190565b60405180910390a35050505050565b612fc681614d0f565b6146ec838383614d30565b60409182015160009182526009602052919020805460a084015160e09094015166ffffffffffffff16600160901b0266ffffffffffffff60901b196001600160481b03958616600160481b026001600160901b031990931695909416949094171791909116919091179055565b337fb8d6eb541ded1720cc657b719f57abcb1fe4711cb7ead82751b135f5d94bc9448261478757600061478d565b600160481b5b69ffffffffffffffffffff1660388561ffff16901b60288761ffff16901b4264ffffffffff161717176040516147c591815260200190565b60405180910390a2505050565b6000600188610140015110156147fa5760405162461bcd60e51b8152600401610c5690615c76565b61480660326007615bf3565b614811906001615c33565b886101400151106148645760405162461bcd60e51b815260206004820152601b60248201527f4d594e543a20436c61696d2070686173652068617320656e64656400000000006044820152606401610c56565b61486d88612fb5565b6301ab362e886101200151106148c55760405162461bcd60e51b815260206004820152601f60248201527f4d594e543a2043484b3a205f636c61696d656442746341646472436f756e74006044820152606401610c56565b60008060006148d48b8b614e68565b6101208e01805193965091945092506148ec82615c5d565b9052506148ff8989898d8787878c614f8a565b935060006064614910605a87615bf3565b61491a9190615bd1565b90506149298c828960016135f2565b61493c8a6149378388615c20565b612a88565b50505050979650505050505050565b606061495960146002615d4c565b60ff1667ffffffffffffffff8111156149745761497461570f565b6040519080825280601f01601f19166020018201604052801561499e576020820181803683370190505b5090506149bb816001600160601b0319606086901b166014614a3e565b8115610bf757805160208201206000805b6014811015614a355760008382602081106149e9576149e9615c0a565b1a9050614a0985846149fa81615c5d565b955060048460ff16901c61507b565b614a228584614a1781615c5d565b955083600f1661507b565b5080614a2d81615c5d565b9150506149cc565b50505092915050565b6000805b828110156125a7576000848260208110614a5e57614a5e615c0a565b1a90506f181899199a1a9b1b9c1cb0b131b232b360811b600482901c60ff1660108110614a8d57614a8d615c0a565b1a60f81b8684614a9c81615c5d565b955081518110614aae57614aae615c0a565b60200101906001600160f81b031916908160001a9053506f181899199a1a9b1b9c1cb0b131b232b360811b600f821660108110614aed57614aed615c0a565b1a60f81b8684614afc81615c5d565b955081518110614b0e57614b0e615c0a565b60200101906001600160f81b031916908160001a905350508080614b3190615c5d565b915050614a42565b600081815b8451811015614b7e57614b6a82868381518110614b5d57614b5d615c0a565b60200260200101516150f3565b915080614b7681615c5d565b915050614b3e565b509392505050565b6000614b90615345565b614b9a8582614137565b614bbe60405180606001604052806000815260200160008152602001600081525090565b8551600254614bcd9190615c33565b8152614bda828286614d30565b848260a001818151614bec9190615c33565b90525060a08201516040820151614c04908790615bf3565b614c0e9190615bd1565b9250614c1c60326007615bf3565b614c27906001615c33565b614c32906001615c33565b8403614cb05760a0820151600090866127106305f5e100614c556008600a615bc5565b614c5f9190615bd1565b614c699190615bf3565b8560e00151614c789190615bf3565b614c829190615bf3565b614c8c9190615bd1565b9050614c988382614cb9565b614ca29082615c33565b614cac9085615c33565b9350505b50509392505050565b6000806301ab362e84610120015184614cd29190615bf3565b614cdc9190615bd1565b9050600066033bb85fc52d9985610100015185614cf99190615bf3565b614d039190615bd1565b90506127338183615c33565b60006a636f6e736f6c652e6c6f679050600080835160208501845afa505050565b81516305fcbae390614d4490612710615bf3565b614d4e9190615bd1565b6040830152614d5f60326007615bf3565b614d6a906001615c33565b811015614e39576000614d7f60326007615bf3565b6127106305f5e100614d936008600a615bc5565b614d9d9190615bd1565b614da79190615bf3565b8560e00151614db69190615bf3565b614dc09190615bd1565b90506000614ddd85838660400151614dd89190615c33565b614cb9565b614de79083615c33565b90508084602001818151614dfb9190615c33565b905250835181908590614e0f908390615c33565b9052506040840151614e22908690614cb9565b84604001818151614e339190615c33565b90525050505b606083015115610c6957826060015182604001818151614e599190615c33565b90525060006060840152505050565b6000806000614e7684615122565b925066033bb85fc52d9983866101000151614e919190615c33565b1115614edf5760405162461bcd60e51b815260206004820181905260248201527f4d594e543a2043484b3a205f636c61696d65645361746f73686973546f74616c6044820152606401610c56565b828561010001818151614ef29190615c33565b905250610140850151600090614f0a60326007615bf3565b614f15906001615c33565b614f1f9190615c20565b9050614f2b8482615177565b9350838660e001818151614f3f9190615c20565b9052506127106305f5e100614f566008600a615bc5565b614f609190615bd1565b614f6a9190615bf3565b614f749085615bf3565b9250614f808382615199565b9150509250925092565b6000614f968385615c33565b9050826001600160a01b038316614fbb57614fb68a8a8a8a8a87896151d3565b615050565b6000614fc8600a84615bd1565b9050614fd48184615c33565b92506000614fe3600585615bd1565b9050614fef8183615c33565b614ff99084615c33565b92508b6001600160a01b0316856001600160a01b0316036150345761501e8185615c33565b935061502f8c8c8c8c8c898b6151d3565b61504d565b6150438c8c8c8c8c898b6151d3565b61504d8582612a88565b50505b61506e739a6a414d6f3497c05e3b1de90520765fa1e07c0382612a88565b5098975050505050505050565b600083838151811061508f5761508f615c0a565b01602001516001600160f81b0319169050606160f81b81108015906150b8575060088260ff1610155b156113dd5780602060f81b188484815181106150d6576150d6615c0a565b60200101906001600160f81b031916908160001a90535050505050565b600081831061510f576000828152602084905260409020610cb8565b6000838152602083905260409020610cb8565b600064174876e800821015615135575090565b64e8d4a51000821061514c57611972600483615bd1565b65034630b8a000615163836501ba60d33800615c20565b61516d9084615bf3565b6119729190615bd1565b600061518560326007615bf3565b61518f8385615bf3565b610cb89190615bd1565b600060016151a960326007615bf3565b6151b39190615c20565b6151be906005615bf3565b6151c9600184615c20565b61518f9085615bf3565b6040805164ffffffffff42166bffffffffffffff0000000000602888901b161766ffffffffffffff60601b606087901b161760ff60981b609889901b161768ffffffffffffffffff60a01b60a086901b161781523360208201526001600160a01b0380841692908a16916001600160601b03198a16917f41e3c7dc6eebc97a48a437ff2afdc629613f12c48ba37a2c94563f80acba9725910160405180910390a46001600160a01b038716331461533c57336001600160a01b03167f3a84b2d9dac24683628d63034c6949797f15fab735e16232518ee4e753fd49b760c88666ffffffffffffff16901b60288960601c6001600160a01b0316901b4264ffffffffff16171760d88860ff16901b60388b6001600160a01b0316901b8766ffffffffffffff1617176048856001600160a01b0316901b866001600160481b031617604051615333939291909283526020830191909152604082015260600190565b60405180910390a25b50505050505050565b604051806101600160405280600081526020016000815260200160008152602001600081526020016000815260200160008152602001600064ffffffffff168152602001600081526020016000815260200160008152602001600081525090565b6040518060e00160405280600064ffffffffff16815260200160008152602001600081526020016000815260200160008152602001600081526020016000151581525090565b60405180604001604052806002906020820280368337509192915050565b604051806101a00160405280600d906020820280368337509192915050565b60005b8381101561544457818101518382015260200161542c565b50506000910152565b60008151808452615465816020860160208601615429565b601f01601f19169290920160200192915050565b602081526000610cb8602083018461544d565b80356001600160a01b038116811461197557600080fd5b600080604083850312156154b657600080fd5b6154bf8361548c565b946020939093013593505050565b6000806000606084860312156154e257600080fd5b6154eb8461548c565b9250602084013591506155006040850161548c565b90509250925092565b60008060006060848603121561551e57600080fd5b6155278461548c565b92506155356020850161548c565b9150604084013590509250925092565b60008083601f84011261555757600080fd5b50813567ffffffffffffffff81111561556f57600080fd5b6020830191508360208260051b85010111156120fe57600080fd5b60008060006040848603121561559f57600080fd5b83359250602084013567ffffffffffffffff8111156155bd57600080fd5b6155c986828701615545565b9497909650939450505050565b803560ff8116811461197557600080fd5b6000806000606084860312156155fc57600080fd5b8335925060208401359150615500604085016155d6565b6000806040838503121561562657600080fd5b50508035926020909101359150565b60006020828403121561564757600080fd5b610cb88261548c565b803564ffffffffff8116811461197557600080fd5b6000806040838503121561567857600080fd5b8235915061568860208401615650565b90509250929050565b600080604083850312156156a457600080fd5b823591506156886020840161548c565b60408101818360005b6002811015614a355781518352602092830192909101906001016156bd565b6000806000606084860312156156f157600080fd5b6156fa8461548c565b92506020840135915061550060408501615650565b634e487b7160e01b600052604160045260246000fd5b604051610160810167ffffffffffffffff8111828210171561575757634e487b7160e01b600052604160045260246000fd5b60405290565b6000610160828403121561577057600080fd5b615778615725565b9050813581526020820135602082015260408201356040820152606082013560608201526080820135608082015260a082013560a08201526157bc60c08301615650565b60c082015260e082013560e082015261010080830135818301525061012080830135818301525061014080830135818301525092915050565b6000806102c0838503121561580957600080fd5b615813848461575d565b915061568884610160850161575d565b6020808252825182820181905260009190848201906040850190845b8181101561585b5783518352928401929184019160010161583f565b50909695505050505050565b80356001600160601b03198116811461197557600080fd5b60006020828403121561589157600080fd5b610cb882615867565b6000602082840312156158ac57600080fd5b5035919050565b600080600080606085870312156158c957600080fd5b6158d285615867565b935060208501359250604085013567ffffffffffffffff8111156158f557600080fd5b61590187828801615545565b95989497509550505050565b6000806000806000806000806000806000806101608d8f03121561593057600080fd5b8c359b5067ffffffffffffffff60208e0135111561594d57600080fd5b61595d8e60208f01358f01615545565b909b50995061596e60408e0161548c565b985060608d0135975060808d0135965061598a60a08e016155d6565b955061599860c08e016155d6565b945060e08d013593506101008d013592506101208d013591506159be6101408e0161548c565b90509295989b509295989b509295989b565b600080600080600080600080610100898b0312156159ed57600080fd5b6159f68961548c565b9750602089013596506040890135955060608901359450615a1960808a016155d6565b9350615a2760a08a016155d6565b925060c0890135915060e089013590509295985092959890939650565b60008060408385031215615a5757600080fd5b615a608361548c565b91506156886020840161548c565b6101a08101818360005b600d811015614a35578151835260209283019290910190600101615a78565b600181811c90821680615aab57607f821691505b60208210810361133357634e487b7160e01b600052602260045260246000fd5b634e487b7160e01b600052601160045260246000fd5b600181815b80851115615b1c578160001904821115615b0257615b02615acb565b80851615615b0f57918102915b93841c9390800290615ae6565b509250929050565b600082615b3357506001610bf7565b81615b4057506000610bf7565b8160018114615b565760028114615b6057615b7c565b6001915050610bf7565b60ff841115615b7157615b71615acb565b50506001821b610bf7565b5060208310610133831016604e8410600b8410161715615b9f575081810a610bf7565b615ba98383615ae1565b8060001904821115615bbd57615bbd615acb565b029392505050565b6000610cb88383615b24565b600082615bee57634e487b7160e01b600052601260045260246000fd5b500490565b8082028115828204841417610bf757610bf7615acb565b634e487b7160e01b600052603260045260246000fd5b81810381811115610bf757610bf7615acb565b80820180821115610bf757610bf7615acb565b600081615c5557615c55615acb565b506000190190565b600060018201615c6f57615c6f615acb565b5060010190565b60208082526025908201527f4d594e543a20436c61696d20706861736520686173206e6f7420796574207374604082015264185c9d195960da1b606082015260800190565b600064ffffffffff808316818103615cd557615cd5615acb565b6001019392505050565b60008251615cf1818460208701615429565b9190910192915050565b600060208284031215615d0d57600080fd5b5051919050565b634e487b7160e01b600052603160045260246000fd5b604081526000615d3d604083018561544d565b90508260208301529392505050565b60ff8181168382160290811690818114615d6857615d68615acb565b5092915050565b60ff8181168382160190811115610bf757610bf7615acb565b6001600160f81b031960f887811b8216835267ffffffffffffffff198716600184015285901b1660198201528251600090615dca81601a850160208801615429565b835190830190615de181601a840160208801615429565b01601a01979650505050505050565b6001600160f81b031960f888811b8216835267ffffffffffffffff198816600184015286901b1660198201528351600090615e3281601a850160208901615429565b845190830190615e4981601a840160208901615429565b605f60f81b601a92909101918201528351615e6b81601b840160208801615429565b01601b019897505050505050505056fea264697066735822122083d3cb6c58b69c463de050c20008c7c26dedcdf9fb0f3a95c46032f1a3454b2164736f6c63430008130033",
			"opcodes": "PUSH1 0xA0 PUSH1 0x40 MSTORE CALLVALUE DUP1 ISZERO PUSH3 0x11 JUMPI PUSH1 0x0 DUP1 REVERT JUMPDEST POP PUSH1 0x40 MLOAD DUP1 PUSH1 0x40 ADD PUSH1 0x40 MSTORE DUP1 PUSH1 0x7 DUP2 MSTORE PUSH1 0x20 ADD PUSH7 0x135E5B9D1A5CDD PUSH1 0xCA SHL DUP2 MSTORE POP PUSH1 0x40 MLOAD DUP1 PUSH1 0x40 ADD PUSH1 0x40 MSTORE DUP1 PUSH1 0x4 DUP2 MSTORE PUSH1 0x20 ADD PUSH4 0x13565395 PUSH1 0xE2 SHL DUP2 MSTORE POP DUP2 PUSH1 0x3 SWAP1 DUP2 PUSH3 0x60 SWAP2 SWAP1 PUSH3 0x121 JUMP JUMPDEST POP PUSH1 0x4 PUSH3 0x6F DUP3 DUP3 PUSH3 0x121 JUMP JUMPDEST POP POP CALLER PUSH1 0x80 MSTORE POP PUSH3 0x1ED JUMP JUMPDEST PUSH4 0x4E487B71 PUSH1 0xE0 SHL PUSH1 0x0 MSTORE PUSH1 0x41 PUSH1 0x4 MSTORE PUSH1 0x24 PUSH1 0x0 REVERT JUMPDEST PUSH1 0x1 DUP2 DUP2 SHR SWAP1 DUP3 AND DUP1 PUSH3 0xA7 JUMPI PUSH1 0x7F DUP3 AND SWAP2 POP JUMPDEST PUSH1 0x20 DUP3 LT DUP2 SUB PUSH3 0xC8 JUMPI PUSH4 0x4E487B71 PUSH1 0xE0 SHL PUSH1 0x0 MSTORE PUSH1 0x22 PUSH1 0x4 MSTORE PUSH1 0x24 PUSH1 0x0 REVERT JUMPDEST POP SWAP2 SWAP1 POP JUMP JUMPDEST PUSH1 0x1F DUP3 GT ISZERO PUSH3 0x11C JUMPI PUSH1 0x0 DUP2 DUP2 MSTORE PUSH1 0x20 DUP2 KECCAK256 PUSH1 0x1F DUP6 ADD PUSH1 0x5 SHR DUP2 ADD PUSH1 0x20 DUP7 LT ISZERO PUSH3 0xF7 JUMPI POP DUP1 JUMPDEST PUSH1 0x1F DUP6 ADD PUSH1 0x5 SHR DUP3 ADD SWAP2 POP JUMPDEST DUP2 DUP2 LT ISZERO PUSH3 0x118 JUMPI DUP3 DUP2 SSTORE PUSH1 0x1 ADD PUSH3 0x103 JUMP JUMPDEST POP POP POP JUMPDEST POP POP POP JUMP JUMPDEST DUP2 MLOAD PUSH1 0x1 PUSH1 0x1 PUSH1 0x40 SHL SUB DUP2 GT ISZERO PUSH3 0x13D JUMPI PUSH3 0x13D PUSH3 0x7C JUMP JUMPDEST PUSH3 0x155 DUP2 PUSH3 0x14E DUP5 SLOAD PUSH3 0x92 JUMP JUMPDEST DUP5 PUSH3 0xCE JUMP JUMPDEST PUSH1 0x20 DUP1 PUSH1 0x1F DUP4 GT PUSH1 0x1 DUP2 EQ PUSH3 0x18D JUMPI PUSH1 0x0 DUP5 ISZERO PUSH3 0x174 JUMPI POP DUP6 DUP4 ADD MLOAD JUMPDEST PUSH1 0x0 NOT PUSH1 0x3 DUP7 SWAP1 SHL SHR NOT AND PUSH1 0x1 DUP6 SWAP1 SHL OR DUP6 SSTORE PUSH3 0x118 JUMP JUMPDEST PUSH1 0x0 DUP6 DUP2 MSTORE PUSH1 0x20 DUP2 KECCAK256 PUSH1 0x1F NOT DUP7 AND SWAP2 JUMPDEST DUP3 DUP2 LT ISZERO PUSH3 0x1BE JUMPI DUP9 DUP7 ADD MLOAD DUP3 SSTORE SWAP5 DUP5 ADD SWAP5 PUSH1 0x1 SWAP1 SWAP2 ADD SWAP1 DUP5 ADD PUSH3 0x19D JUMP JUMPDEST POP DUP6 DUP3 LT ISZERO PUSH3 0x1DD JUMPI DUP8 DUP6 ADD MLOAD PUSH1 0x0 NOT PUSH1 0x3 DUP9 SWAP1 SHL PUSH1 0xF8 AND SHR NOT AND DUP2 SSTORE JUMPDEST POP POP POP POP POP PUSH1 0x1 SWAP1 DUP2 SHL ADD SWAP1 SSTORE POP JUMP JUMPDEST PUSH1 0x80 MLOAD PUSH2 0x5EB1 PUSH3 0x210 PUSH1 0x0 CODECOPY PUSH1 0x0 DUP2 DUP2 PUSH2 0xA7A ADD MSTORE PUSH2 0x1985 ADD MSTORE PUSH2 0x5EB1 PUSH1 0x0 RETURN INVALID PUSH1 0x80 PUSH1 0x40 MSTORE PUSH1 0x4 CALLDATASIZE LT PUSH2 0x2AE JUMPI PUSH1 0x0 CALLDATALOAD PUSH1 0xE0 SHR DUP1 PUSH4 0x6A210A0E GT PUSH2 0x175 JUMPI DUP1 PUSH4 0xA457C2D7 GT PUSH2 0xDC JUMPI DUP1 PUSH4 0xCE606EE0 GT PUSH2 0x95 JUMPI DUP1 PUSH4 0xDD62ED3E GT PUSH2 0x6F JUMPI DUP1 PUSH4 0xDD62ED3E EQ PUSH2 0xACF JUMPI DUP1 PUSH4 0xEC9A1917 EQ PUSH2 0xAEF JUMPI DUP1 PUSH4 0xF04B5FA0 EQ PUSH2 0xB0F JUMPI DUP1 PUSH4 0xF57A1B3C EQ PUSH2 0xB31 JUMPI PUSH1 0x0 DUP1 REVERT JUMPDEST DUP1 PUSH4 0xCE606EE0 EQ PUSH2 0xA68 JUMPI DUP1 PUSH4 0xCE7D1F77 EQ PUSH2 0xA9C JUMPI DUP1 PUSH4 0xD5A373FF EQ PUSH2 0xAAF JUMPI PUSH1 0x0 DUP1 REVERT JUMPDEST DUP1 PUSH4 0xA457C2D7 EQ PUSH2 0x8D6 JUMPI DUP1 PUSH4 0xA9059CBB EQ PUSH2 0x8F6 JUMPI DUP1 PUSH4 0xB626D6FC EQ PUSH2 0x916 JUMPI DUP1 PUSH4 0xBD926ED3 EQ PUSH2 0x936 JUMPI DUP1 PUSH4 0xC3124525 EQ PUSH2 0x973 JUMPI DUP1 PUSH4 0xCBB151D3 EQ PUSH2 0xA48 JUMPI PUSH1 0x0 DUP1 REVERT JUMPDEST DUP1 PUSH4 0x8E21AA01 GT PUSH2 0x12E JUMPI DUP1 PUSH4 0x8E21AA01 EQ PUSH2 0x7BE JUMPI DUP1 PUSH4 0x8F1C65C0 EQ PUSH2 0x7DE JUMPI DUP1 PUSH4 0x90DE6871 EQ PUSH2 0x7FE JUMPI DUP1 PUSH4 0x95D89B41 EQ PUSH2 0x881 JUMPI DUP1 PUSH4 0x96F62B9D EQ PUSH2 0x896 JUMPI DUP1 PUSH4 0xA042B1B6 EQ PUSH2 0x8B6 JUMPI PUSH1 0x0 DUP1 REVERT JUMPDEST DUP1 PUSH4 0x6A210A0E EQ PUSH2 0x6BE JUMPI DUP1 PUSH4 0x70A08231 EQ PUSH2 0x6EB JUMPI DUP1 PUSH4 0x7C426620 EQ PUSH2 0x721 JUMPI DUP1 PUSH4 0x87A0F31C EQ PUSH2 0x751 JUMPI DUP1 PUSH4 0x8C84A47B EQ PUSH2 0x77E JUMPI DUP1 PUSH4 0x8CBA2842 EQ PUSH2 0x79E JUMPI PUSH1 0x0 DUP1 REVERT JUMPDEST DUP1 PUSH4 0x319E74F6 GT PUSH2 0x219 JUMPI DUP1 PUSH4 0x44203FAF GT PUSH2 0x1D2 JUMPI DUP1 PUSH4 0x44203FAF EQ PUSH2 0x5B4 JUMPI DUP1 PUSH4 0x44F0DE75 EQ PUSH2 0x61C JUMPI DUP1 PUSH4 0x52A438B8 EQ PUSH2 0x649 JUMPI DUP1 PUSH4 0x5C9302C9 EQ PUSH2 0x669 JUMPI DUP1 PUSH4 0x65CF71B2 EQ PUSH2 0x67E JUMPI DUP1 PUSH4 0x65D2A557 EQ PUSH2 0x69E JUMPI PUSH1 0x0 DUP1 REVERT JUMPDEST DUP1 PUSH4 0x319E74F6 EQ PUSH2 0x4F6 JUMPI DUP1 PUSH4 0x33060D90 EQ PUSH2 0x50B JUMPI DUP1 PUSH4 0x343009A2 EQ PUSH2 0x541 JUMPI DUP1 PUSH4 0x34DC8BB5 EQ PUSH2 0x561 JUMPI DUP1 PUSH4 0x39509351 EQ PUSH2 0x57F JUMPI DUP1 PUSH4 0x3A70A5CA EQ PUSH2 0x59F JUMPI PUSH1 0x0 DUP1 REVERT JUMPDEST DUP1 PUSH4 0x23B872DD GT PUSH2 0x26B JUMPI DUP1 PUSH4 0x23B872DD EQ PUSH2 0x3A8 JUMPI DUP1 PUSH4 0x2607443B EQ PUSH2 0x3C8 JUMPI DUP1 PUSH4 0x27AA6018 EQ PUSH2 0x43A JUMPI DUP1 PUSH4 0x283A5BAF EQ PUSH2 0x45A JUMPI DUP1 PUSH4 0x30C1A785 EQ PUSH2 0x493 JUMPI DUP1 PUSH4 0x313CE567 EQ PUSH2 0x4DA JUMPI PUSH1 0x0 DUP1 REVERT JUMPDEST DUP1 PUSH4 0x6FDDE03 EQ PUSH2 0x2B3 JUMPI DUP1 PUSH4 0x95EA7B3 EQ PUSH2 0x2DE JUMPI DUP1 PUSH4 0xD4D1513 EQ PUSH2 0x30E JUMPI DUP1 PUSH4 0x1285B047 EQ PUSH2 0x330 JUMPI DUP1 PUSH4 0x13C5C2C7 EQ PUSH2 0x353 JUMPI DUP1 PUSH4 0x18160DDD EQ PUSH2 0x393 JUMPI JUMPDEST PUSH1 0x0 DUP1 REVERT JUMPDEST CALLVALUE DUP1 ISZERO PUSH2 0x2BF JUMPI PUSH1 0x0 DUP1 REVERT JUMPDEST POP PUSH2 0x2C8 PUSH2 0xB51 JUMP JUMPDEST PUSH1 0x40 MLOAD PUSH2 0x2D5 SWAP2 SWAP1 PUSH2 0x5479 JUMP JUMPDEST PUSH1 0x40 MLOAD DUP1 SWAP2 SUB SWAP1 RETURN JUMPDEST CALLVALUE DUP1 ISZERO PUSH2 0x2EA JUMPI PUSH1 0x0 DUP1 REVERT JUMPDEST POP PUSH2 0x2FE PUSH2 0x2F9 CALLDATASIZE PUSH1 0x4 PUSH2 0x54A3 JUMP JUMPDEST PUSH2 0xBE3 JUMP JUMPDEST PUSH1 0x40 MLOAD SWAP1 ISZERO ISZERO DUP2 MSTORE PUSH1 0x20 ADD PUSH2 0x2D5 JUMP JUMPDEST CALLVALUE DUP1 ISZERO PUSH2 0x31A JUMPI PUSH1 0x0 DUP1 REVERT JUMPDEST POP PUSH2 0x32E PUSH2 0x329 CALLDATASIZE PUSH1 0x4 PUSH2 0x54CD JUMP JUMPDEST PUSH2 0xBFD JUMP JUMPDEST STOP JUMPDEST CALLVALUE DUP1 ISZERO PUSH2 0x33C JUMPI PUSH1 0x0 DUP1 REVERT JUMPDEST POP PUSH2 0x345 PUSH2 0xC6E JUMP JUMPDEST PUSH1 0x40 MLOAD SWAP1 DUP2 MSTORE PUSH1 0x20 ADD PUSH2 0x2D5 JUMP JUMPDEST CALLVALUE DUP1 ISZERO PUSH2 0x35F JUMPI PUSH1 0x0 DUP1 REVERT JUMPDEST POP PUSH2 0x37B PUSH20 0xDEC9F2793E3C17CD26EEFB21C4762FA5128E0399 DUP2 JUMP JUMPDEST PUSH1 0x40 MLOAD PUSH1 0x1 PUSH1 0x1 PUSH1 0xA0 SHL SUB SWAP1 SWAP2 AND DUP2 MSTORE PUSH1 0x20 ADD PUSH2 0x2D5 JUMP JUMPDEST CALLVALUE DUP1 ISZERO PUSH2 0x39F JUMPI PUSH1 0x0 DUP1 REVERT JUMPDEST POP PUSH1 0x2 SLOAD PUSH2 0x345 JUMP JUMPDEST CALLVALUE DUP1 ISZERO PUSH2 0x3B4 JUMPI PUSH1 0x0 DUP1 REVERT JUMPDEST POP PUSH2 0x2FE PUSH2 0x3C3 CALLDATASIZE PUSH1 0x4 PUSH2 0x5509 JUMP JUMPDEST PUSH2 0xC99 JUMP JUMPDEST CALLVALUE DUP1 ISZERO PUSH2 0x3D4 JUMPI PUSH1 0x0 DUP1 REVERT JUMPDEST POP PUSH2 0x3E8 PUSH2 0x3E3 CALLDATASIZE PUSH1 0x4 PUSH2 0x54A3 JUMP JUMPDEST PUSH2 0xCBF JUMP JUMPDEST PUSH1 0x40 DUP1 MLOAD PUSH5 0xFFFFFFFFFF SWAP9 SWAP1 SWAP9 AND DUP9 MSTORE PUSH1 0x1 PUSH1 0x1 PUSH1 0x48 SHL SUB SWAP7 DUP8 AND PUSH1 0x20 DUP10 ADD MSTORE SWAP5 SWAP1 SWAP6 AND SWAP4 DUP7 ADD SWAP4 SWAP1 SWAP4 MSTORE PUSH2 0xFFFF SWAP2 DUP3 AND PUSH1 0x60 DUP7 ADD MSTORE DUP2 AND PUSH1 0x80 DUP6 ADD MSTORE AND PUSH1 0xA0 DUP4 ADD MSTORE ISZERO ISZERO PUSH1 0xC0 DUP3 ADD MSTORE PUSH1 0xE0 ADD PUSH2 0x2D5 JUMP JUMPDEST CALLVALUE DUP1 ISZERO PUSH2 0x446 JUMPI PUSH1 0x0 DUP1 REVERT JUMPDEST POP PUSH2 0x2FE PUSH2 0x455 CALLDATASIZE PUSH1 0x4 PUSH2 0x558A JUMP JUMPDEST PUSH2 0xD3B JUMP JUMPDEST CALLVALUE DUP1 ISZERO PUSH2 0x466 JUMPI PUSH1 0x0 DUP1 REVERT JUMPDEST POP PUSH2 0x47A PUSH2 0x475 CALLDATASIZE PUSH1 0x4 PUSH2 0x55E7 JUMP JUMPDEST PUSH2 0xD82 JUMP JUMPDEST PUSH1 0x40 MLOAD PUSH1 0x1 PUSH1 0x1 PUSH1 0x60 SHL SUB NOT SWAP1 SWAP2 AND DUP2 MSTORE PUSH1 0x20 ADD PUSH2 0x2D5 JUMP JUMPDEST CALLVALUE DUP1 ISZERO PUSH2 0x49F JUMPI PUSH1 0x0 DUP1 REVERT JUMPDEST POP PUSH2 0x37B PUSH2 0x4AE CALLDATASIZE PUSH1 0x4 PUSH2 0x5613 JUMP JUMPDEST PUSH1 0x40 DUP1 MLOAD PUSH1 0x20 DUP1 DUP3 ADD SWAP5 SWAP1 SWAP5 MSTORE DUP1 DUP3 ADD SWAP3 SWAP1 SWAP3 MSTORE DUP1 MLOAD DUP1 DUP4 SUB DUP3 ADD DUP2 MSTORE PUSH1 0x60 SWAP1 SWAP3 ADD SWAP1 MSTORE DUP1 MLOAD SWAP2 ADD KECCAK256 SWAP1 JUMP JUMPDEST CALLVALUE DUP1 ISZERO PUSH2 0x4E6 JUMPI PUSH1 0x0 DUP1 REVERT JUMPDEST POP PUSH1 0x40 MLOAD PUSH1 0x8 DUP2 MSTORE PUSH1 0x20 ADD PUSH2 0x2D5 JUMP JUMPDEST CALLVALUE DUP1 ISZERO PUSH2 0x502 JUMPI PUSH1 0x0 DUP1 REVERT JUMPDEST POP PUSH2 0x345 PUSH2 0xF33 JUMP JUMPDEST CALLVALUE DUP1 ISZERO PUSH2 0x517 JUMPI PUSH1 0x0 DUP1 REVERT JUMPDEST POP PUSH2 0x345 PUSH2 0x526 CALLDATASIZE PUSH1 0x4 PUSH2 0x5635 JUMP JUMPDEST PUSH1 0x1 PUSH1 0x1 PUSH1 0xA0 SHL SUB AND PUSH1 0x0 SWAP1 DUP2 MSTORE PUSH1 0xA PUSH1 0x20 MSTORE PUSH1 0x40 SWAP1 KECCAK256 SLOAD SWAP1 JUMP JUMPDEST CALLVALUE DUP1 ISZERO PUSH2 0x54D JUMPI PUSH1 0x0 DUP1 REVERT JUMPDEST POP PUSH2 0x32E PUSH2 0x55C CALLDATASIZE PUSH1 0x4 PUSH2 0x5665 JUMP JUMPDEST PUSH2 0xF3F JUMP JUMPDEST CALLVALUE DUP1 ISZERO PUSH2 0x56D JUMPI PUSH1 0x0 DUP1 REVERT JUMPDEST POP PUSH1 0x5 SLOAD PUSH1 0x1 PUSH1 0x1 PUSH1 0xA0 SHL SUB AND PUSH2 0x37B JUMP JUMPDEST CALLVALUE DUP1 ISZERO PUSH2 0x58B JUMPI PUSH1 0x0 DUP1 REVERT JUMPDEST POP PUSH2 0x2FE PUSH2 0x59A CALLDATASIZE PUSH1 0x4 PUSH2 0x54A3 JUMP JUMPDEST PUSH2 0x1217 JUMP JUMPDEST CALLVALUE DUP1 ISZERO PUSH2 0x5AB JUMPI PUSH1 0x0 DUP1 REVERT JUMPDEST POP PUSH2 0x345 PUSH2 0x1239 JUMP JUMPDEST CALLVALUE DUP1 ISZERO PUSH2 0x5C0 JUMPI PUSH1 0x0 DUP1 REVERT JUMPDEST POP PUSH2 0x5FE PUSH2 0x5CF CALLDATASIZE PUSH1 0x4 PUSH2 0x5691 JUMP JUMPDEST PUSH1 0xC PUSH1 0x20 SWAP1 DUP2 MSTORE PUSH1 0x0 SWAP3 DUP4 MSTORE PUSH1 0x40 DUP1 DUP5 KECCAK256 SWAP1 SWAP2 MSTORE SWAP1 DUP3 MSTORE SWAP1 KECCAK256 SLOAD PUSH5 0xFFFFFFFFFF DUP1 DUP3 AND SWAP2 PUSH1 0x1 PUSH1 0x28 SHL SWAP1 DIV AND DUP3 JUMP JUMPDEST PUSH1 0x40 DUP1 MLOAD PUSH5 0xFFFFFFFFFF SWAP4 DUP5 AND DUP2 MSTORE SWAP3 SWAP1 SWAP2 AND PUSH1 0x20 DUP4 ADD MSTORE ADD PUSH2 0x2D5 JUMP JUMPDEST CALLVALUE DUP1 ISZERO PUSH2 0x628 JUMPI PUSH1 0x0 DUP1 REVERT JUMPDEST POP PUSH2 0x63C PUSH2 0x637 CALLDATASIZE PUSH1 0x4 PUSH2 0x5635 JUMP JUMPDEST PUSH2 0x1260 JUMP JUMPDEST PUSH1 0x40 MLOAD PUSH2 0x2D5 SWAP2 SWAP1 PUSH2 0x56B4 JUMP JUMPDEST CALLVALUE DUP1 ISZERO PUSH2 0x655 JUMPI PUSH1 0x0 DUP1 REVERT JUMPDEST POP PUSH2 0x32E PUSH2 0x664 CALLDATASIZE PUSH1 0x4 PUSH2 0x5613 JUMP JUMPDEST PUSH2 0x1339 JUMP JUMPDEST CALLVALUE DUP1 ISZERO PUSH2 0x675 JUMPI PUSH1 0x0 DUP1 REVERT JUMPDEST POP PUSH2 0x345 PUSH2 0x13E3 JUMP JUMPDEST CALLVALUE DUP1 ISZERO PUSH2 0x68A JUMPI PUSH1 0x0 DUP1 REVERT JUMPDEST POP PUSH2 0x32E PUSH2 0x699 CALLDATASIZE PUSH1 0x4 PUSH2 0x56DC JUMP JUMPDEST PUSH2 0x13ED JUMP JUMPDEST CALLVALUE DUP1 ISZERO PUSH2 0x6AA JUMPI PUSH1 0x0 DUP1 REVERT JUMPDEST POP PUSH2 0x32E PUSH2 0x6B9 CALLDATASIZE PUSH1 0x4 PUSH2 0x57F5 JUMP JUMPDEST PUSH2 0x16F9 JUMP JUMPDEST CALLVALUE DUP1 ISZERO PUSH2 0x6CA JUMPI PUSH1 0x0 DUP1 REVERT JUMPDEST POP PUSH2 0x6DE PUSH2 0x6D9 CALLDATASIZE PUSH1 0x4 PUSH2 0x5613 JUMP JUMPDEST PUSH2 0x1707 JUMP JUMPDEST PUSH1 0x40 MLOAD PUSH2 0x2D5 SWAP2 SWAP1 PUSH2 0x5823 JUMP JUMPDEST CALLVALUE DUP1 ISZERO PUSH2 0x6F7 JUMPI PUSH1 0x0 DUP1 REVERT JUMPDEST POP PUSH2 0x345 PUSH2 0x706 CALLDATASIZE PUSH1 0x4 PUSH2 0x5635 JUMP JUMPDEST PUSH1 0x1 PUSH1 0x1 PUSH1 0xA0 SHL SUB AND PUSH1 0x0 SWAP1 DUP2 MSTORE PUSH1 0x20 DUP2 SWAP1 MSTORE PUSH1 0x40 SWAP1 KECCAK256 SLOAD SWAP1 JUMP JUMPDEST CALLVALUE DUP1 ISZERO PUSH2 0x72D JUMPI PUSH1 0x0 DUP1 REVERT JUMPDEST POP PUSH2 0x2FE PUSH2 0x73C CALLDATASIZE PUSH1 0x4 PUSH2 0x587F JUMP JUMPDEST PUSH1 0x8 PUSH1 0x20 MSTORE PUSH1 0x0 SWAP1 DUP2 MSTORE PUSH1 0x40 SWAP1 KECCAK256 SLOAD PUSH1 0xFF AND DUP2 JUMP JUMPDEST CALLVALUE DUP1 ISZERO PUSH2 0x75D JUMPI PUSH1 0x0 DUP1 REVERT JUMPDEST POP PUSH2 0x345 PUSH2 0x76C CALLDATASIZE PUSH1 0x4 PUSH2 0x589A JUMP JUMPDEST PUSH1 0xB PUSH1 0x20 MSTORE PUSH1 0x0 SWAP1 DUP2 MSTORE PUSH1 0x40 SWAP1 KECCAK256 SLOAD DUP2 JUMP JUMPDEST CALLVALUE DUP1 ISZERO PUSH2 0x78A JUMPI PUSH1 0x0 DUP1 REVERT JUMPDEST POP PUSH2 0x345 PUSH2 0x799 CALLDATASIZE PUSH1 0x4 PUSH2 0x589A JUMP JUMPDEST PUSH2 0x1852 JUMP JUMPDEST CALLVALUE DUP1 ISZERO PUSH2 0x7AA JUMPI PUSH1 0x0 DUP1 REVERT JUMPDEST POP PUSH2 0x32E PUSH2 0x7B9 CALLDATASIZE PUSH1 0x4 PUSH2 0x5635 JUMP JUMPDEST PUSH2 0x197A JUMP JUMPDEST CALLVALUE DUP1 ISZERO PUSH2 0x7CA JUMPI PUSH1 0x0 DUP1 REVERT JUMPDEST POP PUSH2 0x2FE PUSH2 0x7D9 CALLDATASIZE PUSH1 0x4 PUSH2 0x58B3 JUMP JUMPDEST PUSH2 0x1A04 JUMP JUMPDEST CALLVALUE DUP1 ISZERO PUSH2 0x7EA JUMPI PUSH1 0x0 DUP1 REVERT JUMPDEST POP PUSH2 0x32E PUSH2 0x7F9 CALLDATASIZE PUSH1 0x4 PUSH2 0x589A JUMP JUMPDEST PUSH2 0x1B0B JUMP JUMPDEST CALLVALUE DUP1 ISZERO PUSH2 0x80A JUMPI PUSH1 0x0 DUP1 REVERT JUMPDEST POP PUSH2 0x852 PUSH2 0x819 CALLDATASIZE PUSH1 0x4 PUSH2 0x589A JUMP JUMPDEST PUSH1 0x9 PUSH1 0x20 MSTORE PUSH1 0x0 SWAP1 DUP2 MSTORE PUSH1 0x40 SWAP1 KECCAK256 SLOAD PUSH1 0x1 PUSH1 0x1 PUSH1 0x48 SHL SUB DUP1 DUP3 AND SWAP2 PUSH1 0x1 PUSH1 0x48 SHL DUP2 DIV SWAP1 SWAP2 AND SWAP1 PUSH1 0x1 PUSH1 0x90 SHL SWAP1 DIV PUSH7 0xFFFFFFFFFFFFFF AND DUP4 JUMP JUMPDEST PUSH1 0x40 DUP1 MLOAD PUSH1 0x1 PUSH1 0x1 PUSH1 0x48 SHL SUB SWAP5 DUP6 AND DUP2 MSTORE SWAP4 SWAP1 SWAP3 AND PUSH1 0x20 DUP5 ADD MSTORE PUSH7 0xFFFFFFFFFFFFFF AND SWAP1 DUP3 ADD MSTORE PUSH1 0x60 ADD PUSH2 0x2D5 JUMP JUMPDEST CALLVALUE DUP1 ISZERO PUSH2 0x88D JUMPI PUSH1 0x0 DUP1 REVERT JUMPDEST POP PUSH2 0x2C8 PUSH2 0x1C03 JUMP JUMPDEST CALLVALUE DUP1 ISZERO PUSH2 0x8A2 JUMPI PUSH1 0x0 DUP1 REVERT JUMPDEST POP PUSH2 0x345 PUSH2 0x8B1 CALLDATASIZE PUSH1 0x4 PUSH2 0x590D JUMP JUMPDEST PUSH2 0x1C12 JUMP JUMPDEST CALLVALUE DUP1 ISZERO PUSH2 0x8C2 JUMPI PUSH1 0x0 DUP1 REVERT JUMPDEST POP PUSH2 0x345 PUSH2 0x8D1 CALLDATASIZE PUSH1 0x4 PUSH2 0x5613 JUMP JUMPDEST PUSH2 0x1EF8 JUMP JUMPDEST CALLVALUE DUP1 ISZERO PUSH2 0x8E2 JUMPI PUSH1 0x0 DUP1 REVERT JUMPDEST POP PUSH2 0x2FE PUSH2 0x8F1 CALLDATASIZE PUSH1 0x4 PUSH2 0x54A3 JUMP JUMPDEST PUSH2 0x1FAB JUMP JUMPDEST CALLVALUE DUP1 ISZERO PUSH2 0x902 JUMPI PUSH1 0x0 DUP1 REVERT JUMPDEST POP PUSH2 0x2FE PUSH2 0x911 CALLDATASIZE PUSH1 0x4 PUSH2 0x54A3 JUMP JUMPDEST PUSH2 0x2031 JUMP JUMPDEST CALLVALUE DUP1 ISZERO PUSH2 0x922 JUMPI PUSH1 0x0 DUP1 REVERT JUMPDEST POP PUSH1 0x5 SLOAD PUSH2 0x37B SWAP1 PUSH1 0x1 PUSH1 0x1 PUSH1 0xA0 SHL SUB AND DUP2 JUMP JUMPDEST CALLVALUE DUP1 ISZERO PUSH2 0x942 JUMPI PUSH1 0x0 DUP1 REVERT JUMPDEST POP PUSH2 0x956 PUSH2 0x951 CALLDATASIZE PUSH1 0x4 PUSH2 0x54A3 JUMP JUMPDEST PUSH2 0x203F JUMP JUMPDEST PUSH1 0x40 DUP1 MLOAD SWAP3 DUP4 MSTORE PUSH1 0x1 PUSH1 0x1 PUSH1 0xA0 SHL SUB SWAP1 SWAP2 AND PUSH1 0x20 DUP4 ADD MSTORE ADD PUSH2 0x2D5 JUMP JUMPDEST CALLVALUE DUP1 ISZERO PUSH2 0x97F JUMPI PUSH1 0x0 DUP1 REVERT JUMPDEST POP PUSH1 0x6 SLOAD PUSH1 0x7 SLOAD PUSH2 0x9E6 SWAP2 PUSH1 0x1 PUSH1 0x1 PUSH1 0x48 SHL SUB DUP1 DUP3 AND SWAP3 PUSH1 0x1 PUSH1 0x48 SHL DUP4 DIV DUP3 AND SWAP3 PUSH5 0xFFFFFFFFFF PUSH1 0x1 PUSH1 0x90 SHL DUP3 DIV DUP2 AND SWAP4 PUSH1 0x1 PUSH1 0xB8 SHL SWAP1 SWAP3 DIV DUP3 AND SWAP3 PUSH2 0xFFFF DUP2 AND SWAP3 PUSH3 0x10000 DUP3 DIV AND SWAP2 PUSH1 0x1 PUSH1 0x58 SHL DUP3 DIV AND SWAP1 PUSH1 0x1 PUSH1 0x1 PUSH1 0x80 SHL SUB PUSH1 0x1 PUSH1 0x80 SHL SWAP1 SWAP2 DIV AND DUP9 JUMP JUMPDEST PUSH1 0x40 DUP1 MLOAD PUSH1 0x1 PUSH1 0x1 PUSH1 0x48 SHL SUB SWAP10 DUP11 AND DUP2 MSTORE SWAP8 DUP10 AND PUSH1 0x20 DUP10 ADD MSTORE PUSH5 0xFFFFFFFFFF SWAP7 DUP8 AND SWAP1 DUP9 ADD MSTORE SWAP4 DUP8 AND PUSH1 0x60 DUP8 ADD MSTORE PUSH2 0xFFFF SWAP1 SWAP3 AND PUSH1 0x80 DUP7 ADD MSTORE SWAP5 SWAP1 SWAP5 AND PUSH1 0xA0 DUP5 ADD MSTORE SWAP3 AND PUSH1 0xC0 DUP3 ADD MSTORE PUSH1 0x1 PUSH1 0x1 PUSH1 0x80 SHL SUB SWAP1 SWAP2 AND PUSH1 0xE0 DUP3 ADD MSTORE PUSH2 0x100 ADD PUSH2 0x2D5 JUMP JUMPDEST CALLVALUE DUP1 ISZERO PUSH2 0xA54 JUMPI PUSH1 0x0 DUP1 REVERT JUMPDEST POP PUSH2 0x32E PUSH2 0xA63 CALLDATASIZE PUSH1 0x4 PUSH2 0x5613 JUMP JUMPDEST PUSH2 0x2105 JUMP JUMPDEST CALLVALUE DUP1 ISZERO PUSH2 0xA74 JUMPI PUSH1 0x0 DUP1 REVERT JUMPDEST POP PUSH2 0x37B PUSH32 0x0 DUP2 JUMP JUMPDEST PUSH2 0x32E PUSH2 0xAAA CALLDATASIZE PUSH1 0x4 PUSH2 0x5635 JUMP JUMPDEST PUSH2 0x2412 JUMP JUMPDEST CALLVALUE DUP1 ISZERO PUSH2 0xABB JUMPI PUSH1 0x0 DUP1 REVERT JUMPDEST POP PUSH2 0x2FE PUSH2 0xACA CALLDATASIZE PUSH1 0x4 PUSH2 0x59D0 JUMP JUMPDEST PUSH2 0x25AE JUMP JUMPDEST CALLVALUE DUP1 ISZERO PUSH2 0xADB JUMPI PUSH1 0x0 DUP1 REVERT JUMPDEST POP PUSH2 0x345 PUSH2 0xAEA CALLDATASIZE PUSH1 0x4 PUSH2 0x5A44 JUMP JUMPDEST PUSH2 0x26C8 JUMP JUMPDEST CALLVALUE DUP1 ISZERO PUSH2 0xAFB JUMPI PUSH1 0x0 DUP1 REVERT JUMPDEST POP PUSH2 0x2FE PUSH2 0xB0A CALLDATASIZE PUSH1 0x4 PUSH2 0x58B3 JUMP JUMPDEST PUSH2 0x26F3 JUMP JUMPDEST CALLVALUE DUP1 ISZERO PUSH2 0xB1B JUMPI PUSH1 0x0 DUP1 REVERT JUMPDEST POP PUSH2 0xB24 PUSH2 0x273C JUMP JUMPDEST PUSH1 0x40 MLOAD PUSH2 0x2D5 SWAP2 SWAP1 PUSH2 0x5A6E JUMP JUMPDEST CALLVALUE DUP1 ISZERO PUSH2 0xB3D JUMPI PUSH1 0x0 DUP1 REVERT JUMPDEST POP PUSH2 0x6DE PUSH2 0xB4C CALLDATASIZE PUSH1 0x4 PUSH2 0x5613 JUMP JUMPDEST PUSH2 0x283E JUMP JUMPDEST PUSH1 0x60 PUSH1 0x3 DUP1 SLOAD PUSH2 0xB60 SWAP1 PUSH2 0x5A97 JUMP JUMPDEST DUP1 PUSH1 0x1F ADD PUSH1 0x20 DUP1 SWAP2 DIV MUL PUSH1 0x20 ADD PUSH1 0x40 MLOAD SWAP1 DUP2 ADD PUSH1 0x40 MSTORE DUP1 SWAP3 SWAP2 SWAP1 DUP2 DUP2 MSTORE PUSH1 0x20 ADD DUP3 DUP1 SLOAD PUSH2 0xB8C SWAP1 PUSH2 0x5A97 JUMP JUMPDEST DUP1 ISZERO PUSH2 0xBD9 JUMPI DUP1 PUSH1 0x1F LT PUSH2 0xBAE JUMPI PUSH2 0x100 DUP1 DUP4 SLOAD DIV MUL DUP4 MSTORE SWAP2 PUSH1 0x20 ADD SWAP2 PUSH2 0xBD9 JUMP JUMPDEST DUP3 ADD SWAP2 SWAP1 PUSH1 0x0 MSTORE PUSH1 0x20 PUSH1 0x0 KECCAK256 SWAP1 JUMPDEST DUP2 SLOAD DUP2 MSTORE SWAP1 PUSH1 0x1 ADD SWAP1 PUSH1 0x20 ADD DUP1 DUP4 GT PUSH2 0xBBC JUMPI DUP3 SWAP1 SUB PUSH1 0x1F AND DUP3 ADD SWAP2 JUMPDEST POP POP POP POP POP SWAP1 POP SWAP1 JUMP JUMPDEST PUSH1 0x0 CALLER PUSH2 0xBF1 DUP2 DUP6 DUP6 PUSH2 0x2964 JUMP JUMPDEST PUSH1 0x1 SWAP2 POP POP JUMPDEST SWAP3 SWAP2 POP POP JUMP JUMPDEST PUSH1 0x5 SLOAD PUSH1 0x1 PUSH1 0x1 PUSH1 0xA0 SHL SUB DUP3 DUP2 AND SWAP2 AND EQ PUSH2 0xC5F JUMPI PUSH1 0x40 MLOAD PUSH3 0x461BCD PUSH1 0xE5 SHL DUP2 MSTORE PUSH1 0x20 PUSH1 0x4 DUP3 ADD MSTORE PUSH1 0x19 PUSH1 0x24 DUP3 ADD MSTORE PUSH32 0x43616C6C6572206973206E6F7420544220636F6E747261637400000000000000 PUSH1 0x44 DUP3 ADD MSTORE PUSH1 0x64 ADD JUMPDEST PUSH1 0x40 MLOAD DUP1 SWAP2 SUB SWAP1 REVERT JUMPDEST PUSH2 0xC69 DUP4 DUP4 PUSH2 0x2A88 JUMP JUMPDEST POP POP POP JUMP JUMPDEST PUSH2 0x2710 PUSH4 0x5F5E100 PUSH2 0xC82 PUSH1 0x8 PUSH1 0xA PUSH2 0x5BC5 JUMP JUMPDEST PUSH2 0xC8C SWAP2 SWAP1 PUSH2 0x5BD1 JUMP JUMPDEST PUSH2 0xC96 SWAP2 SWAP1 PUSH2 0x5BF3 JUMP JUMPDEST DUP2 JUMP JUMPDEST PUSH1 0x0 CALLER PUSH2 0xCA7 DUP6 DUP3 DUP6 PUSH2 0x2B47 JUMP JUMPDEST PUSH2 0xCB2 DUP6 DUP6 DUP6 PUSH2 0x2BBB JUMP JUMPDEST PUSH1 0x1 SWAP2 POP POP JUMPDEST SWAP4 SWAP3 POP POP POP JUMP JUMPDEST PUSH1 0xA PUSH1 0x20 MSTORE DUP2 PUSH1 0x0 MSTORE PUSH1 0x40 PUSH1 0x0 KECCAK256 DUP2 DUP2 SLOAD DUP2 LT PUSH2 0xCDB JUMPI PUSH1 0x0 DUP1 REVERT JUMPDEST PUSH1 0x0 SWAP2 DUP3 MSTORE PUSH1 0x20 SWAP1 SWAP2 KECCAK256 ADD SLOAD PUSH5 0xFFFFFFFFFF DUP2 AND SWAP3 POP PUSH1 0x1 PUSH1 0x1 PUSH1 0x48 SHL SUB PUSH1 0x1 PUSH1 0x28 SHL DUP3 DIV DUP2 AND SWAP3 POP PUSH1 0x1 PUSH1 0x70 SHL DUP3 DIV AND SWAP1 PUSH2 0xFFFF PUSH1 0x1 PUSH1 0xB8 SHL DUP3 DIV DUP2 AND SWAP2 PUSH1 0x1 PUSH1 0xC8 SHL DUP2 DIV DUP3 AND SWAP2 PUSH1 0x1 PUSH1 0xD8 SHL DUP3 DIV AND SWAP1 PUSH1 0xFF PUSH1 0x1 PUSH1 0xE8 SHL SWAP1 SWAP2 DIV AND DUP8 JUMP JUMPDEST PUSH1 0x0 PUSH2 0xD7A DUP5 DUP5 DUP5 DUP1 DUP1 PUSH1 0x20 MUL PUSH1 0x20 ADD PUSH1 0x40 MLOAD SWAP1 DUP2 ADD PUSH1 0x40 MSTORE DUP1 SWAP4 SWAP3 SWAP2 SWAP1 DUP2 DUP2 MSTORE PUSH1 0x20 ADD DUP4 DUP4 PUSH1 0x20 MUL DUP1 DUP3 DUP5 CALLDATACOPY PUSH1 0x0 SWAP3 ADD SWAP2 SWAP1 SWAP2 MSTORE POP PUSH2 0x2D5F SWAP3 POP POP POP JUMP JUMPDEST SWAP5 SWAP4 POP POP POP POP JUMP JUMPDEST PUSH1 0x0 DUP1 PUSH1 0x60 PUSH1 0x2 DUP5 AND ISZERO DUP1 ISZERO SWAP1 PUSH1 0x4 DUP7 AND ISZERO ISZERO SWAP1 PUSH1 0x8 DUP8 AND ISZERO ISZERO SWAP1 PUSH2 0xE47 JUMPI DUP2 DUP1 ISZERO PUSH2 0xDAB JUMPI POP DUP1 JUMPDEST ISZERO PUSH2 0xDF3 JUMPI PUSH1 0x40 MLOAD PUSH3 0x461BCD PUSH1 0xE5 SHL DUP2 MSTORE PUSH1 0x20 PUSH1 0x4 DUP3 ADD MSTORE PUSH1 0x18 PUSH1 0x24 DUP3 ADD MSTORE PUSH24 0x135653950E8818DB185A5B519B1859DCC81A5B9D985B1A59 PUSH1 0x42 SHL PUSH1 0x44 DUP3 ADD MSTORE PUSH1 0x64 ADD PUSH2 0xC56 JUMP JUMPDEST PUSH1 0x1 PUSH1 0xF8 SHL PUSH1 0xF8 DUP10 SWAP1 SHL AND ISZERO PUSH2 0xE0A JUMPI PUSH1 0x3 PUSH2 0xE0D JUMP JUMPDEST PUSH1 0x2 JUMPDEST PUSH1 0x40 MLOAD PUSH1 0x1 PUSH1 0x1 PUSH1 0xF8 SHL SUB NOT PUSH1 0xF8 DUP4 SWAP1 SHL AND PUSH1 0x20 DUP3 ADD MSTORE PUSH1 0x21 DUP2 ADD DUP12 SWAP1 MSTORE SWAP1 SWAP6 POP PUSH1 0x41 ADD PUSH1 0x40 MLOAD PUSH1 0x20 DUP2 DUP4 SUB SUB DUP2 MSTORE SWAP1 PUSH1 0x40 MSTORE SWAP4 POP PUSH2 0xECE JUMP JUMPDEST DUP2 ISZERO DUP1 ISZERO PUSH2 0xE53 JUMPI POP DUP1 ISZERO JUMPDEST PUSH2 0xE9A JUMPI PUSH1 0x40 MLOAD PUSH3 0x461BCD PUSH1 0xE5 SHL DUP2 MSTORE PUSH1 0x20 PUSH1 0x4 DUP3 ADD MSTORE PUSH1 0x18 PUSH1 0x24 DUP3 ADD MSTORE PUSH24 0x135653950E8818DB185A5B519B1859DCC81A5B9D985B1A59 PUSH1 0x42 SHL PUSH1 0x44 DUP3 ADD MSTORE PUSH1 0x64 ADD PUSH2 0xC56 JUMP JUMPDEST PUSH1 0x40 MLOAD PUSH1 0x1 PUSH1 0xFA SHL PUSH1 0x20 DUP3 ADD MSTORE PUSH1 0x21 DUP2 ADD DUP11 SWAP1 MSTORE PUSH1 0x41 DUP2 ADD DUP10 SWAP1 MSTORE PUSH1 0x4 SWAP6 POP PUSH1 0x61 ADD PUSH1 0x40 MLOAD PUSH1 0x20 DUP2 DUP4 SUB SUB DUP2 MSTORE SWAP1 PUSH1 0x40 MSTORE SWAP4 POP JUMPDEST PUSH1 0x0 PUSH2 0xED9 DUP6 PUSH2 0x2D8C JUMP JUMPDEST SWAP1 POP DUP3 ISZERO PUSH2 0xF26 JUMPI PUSH1 0x40 MLOAD PUSH1 0x5 PUSH1 0xF2 SHL PUSH1 0x20 DUP3 ADD MSTORE PUSH1 0x1 PUSH1 0x1 PUSH1 0x60 SHL SUB NOT DUP3 AND PUSH1 0x22 DUP3 ADD MSTORE PUSH2 0xF19 SWAP1 PUSH1 0x36 ADD PUSH1 0x40 MLOAD PUSH1 0x20 DUP2 DUP4 SUB SUB DUP2 MSTORE SWAP1 PUSH1 0x40 MSTORE PUSH2 0x2D8C JUMP JUMPDEST SWAP7 POP POP POP POP POP POP POP PUSH2 0xCB8 JUMP JUMPDEST SWAP10 SWAP9 POP POP POP POP POP POP POP POP POP JUMP JUMPDEST PUSH2 0xC96 PUSH1 0x32 PUSH1 0x7 PUSH2 0x5BF3 JUMP JUMPDEST PUSH2 0xF47 PUSH2 0x5345 JUMP JUMPDEST PUSH2 0xF4F PUSH2 0x5345 JUMP JUMPDEST PUSH2 0xF59 DUP3 DUP3 PUSH2 0x2E39 JUMP JUMPDEST CALLER PUSH1 0x0 SWAP1 DUP2 MSTORE PUSH1 0xA PUSH1 0x20 MSTORE PUSH1 0x40 DUP2 KECCAK256 DUP1 SLOAD SWAP1 SWAP2 SUB PUSH2 0xFB2 JUMPI PUSH1 0x40 MLOAD PUSH3 0x461BCD PUSH1 0xE5 SHL DUP2 MSTORE PUSH1 0x20 PUSH1 0x4 DUP3 ADD MSTORE PUSH1 0x16 PUSH1 0x24 DUP3 ADD MSTORE PUSH22 0x135653950E88115B5C1D1E481CDD185AD9481B1A5CDD PUSH1 0x52 SHL PUSH1 0x44 DUP3 ADD MSTORE PUSH1 0x64 ADD PUSH2 0xC56 JUMP JUMPDEST DUP1 SLOAD DUP6 LT PUSH2 0xFFD JUMPI PUSH1 0x40 MLOAD PUSH3 0x461BCD PUSH1 0xE5 SHL DUP2 MSTORE PUSH1 0x20 PUSH1 0x4 DUP3 ADD MSTORE PUSH1 0x18 PUSH1 0x24 DUP3 ADD MSTORE PUSH24 0x135653950E881CDD185AD9525B99195E081A5B9D985B1A59 PUSH1 0x42 SHL PUSH1 0x44 DUP3 ADD MSTORE PUSH1 0x64 ADD PUSH2 0xC56 JUMP JUMPDEST PUSH2 0x1005 PUSH2 0x53A6 JUMP JUMPDEST PUSH2 0x102B DUP3 DUP8 DUP2 SLOAD DUP2 LT PUSH2 0x101A JUMPI PUSH2 0x101A PUSH2 0x5C0A JUMP JUMPDEST SWAP1 PUSH1 0x0 MSTORE PUSH1 0x20 PUSH1 0x0 KECCAK256 ADD DUP7 DUP4 PUSH2 0x2EE7 JUMP JUMPDEST PUSH2 0x1034 DUP5 PUSH2 0x2FB5 JUMP JUMPDEST PUSH1 0x0 DUP1 DUP3 PUSH1 0xA0 ADD MLOAD PUSH1 0x0 EQ ISZERO SWAP1 POP PUSH1 0x0 DUP1 PUSH1 0x0 SWAP1 POP PUSH1 0x0 DUP1 DUP7 PUSH1 0x60 ADD MLOAD DUP11 PUSH2 0x140 ADD MLOAD LT PUSH2 0x111D JUMPI DUP5 ISZERO PUSH2 0x106E JUMPI DUP7 PUSH1 0x80 ADD MLOAD SWAP6 POP PUSH2 0x1103 JUMP JUMPDEST PUSH2 0x1078 DUP11 DUP9 PUSH2 0x2FC9 JUMP JUMPDEST DUP7 PUSH1 0x60 ADD MLOAD DUP11 PUSH2 0x140 ADD MLOAD PUSH2 0x108D SWAP2 SWAP1 PUSH2 0x5C20 JUMP JUMPDEST SWAP6 POP DUP7 PUSH1 0x80 ADD MLOAD DUP7 GT ISZERO PUSH2 0x10A7 JUMPI DUP7 PUSH1 0x80 ADD MLOAD SWAP6 POP PUSH2 0x1103 JUMP JUMPDEST PUSH2 0x15E DUP7 LT ISZERO PUSH2 0x1103 JUMPI DUP7 PUSH1 0xC0 ADD MLOAD ISZERO PUSH2 0x1103 JUMPI PUSH1 0x40 MLOAD PUSH3 0x461BCD PUSH1 0xE5 SHL DUP2 MSTORE PUSH1 0x20 PUSH1 0x4 DUP3 ADD MSTORE PUSH1 0x1D PUSH1 0x24 DUP3 ADD MSTORE PUSH32 0x4D594E543A204175746F2D7374616B65207374696C6C206C6F636B6564000000 PUSH1 0x44 DUP3 ADD MSTORE PUSH1 0x64 ADD PUSH2 0xC56 JUMP JUMPDEST PUSH2 0x110E DUP11 DUP9 DUP9 PUSH2 0x2FF1 JUMP JUMPDEST SWAP3 SWAP7 POP SWAP1 SWAP5 POP SWAP3 POP SWAP1 POP PUSH2 0x1190 JUMP JUMPDEST DUP7 PUSH1 0xC0 ADD MLOAD ISZERO PUSH2 0x116F JUMPI PUSH1 0x40 MLOAD PUSH3 0x461BCD PUSH1 0xE5 SHL DUP2 MSTORE PUSH1 0x20 PUSH1 0x4 DUP3 ADD MSTORE PUSH1 0x1D PUSH1 0x24 DUP3 ADD MSTORE PUSH32 0x4D594E543A204175746F2D7374616B65207374696C6C206C6F636B6564000000 PUSH1 0x44 DUP3 ADD MSTORE PUSH1 0x64 ADD PUSH2 0xC56 JUMP JUMPDEST DUP7 PUSH1 0x40 ADD MLOAD DUP11 PUSH1 0x20 ADD DUP2 DUP2 MLOAD PUSH2 0x1185 SWAP2 SWAP1 PUSH2 0x5C20 JUMP JUMPDEST SWAP1 MSTORE POP PUSH1 0x20 DUP8 ADD MLOAD SWAP4 POP JUMPDEST PUSH2 0x11A7 DUP12 DUP9 PUSH1 0x20 ADD MLOAD DUP10 PUSH1 0x40 ADD MLOAD DUP7 DUP7 DUP12 DUP12 PUSH2 0x30B5 JUMP JUMPDEST DUP1 ISZERO DUP1 ISZERO SWAP1 PUSH2 0x11B4 JUMPI POP DUP5 ISZERO JUMPDEST ISZERO PUSH2 0x11C3 JUMPI PUSH2 0x11C3 DUP11 DUP3 PUSH2 0x3175 JUMP JUMPDEST DUP4 ISZERO PUSH2 0x11DE JUMPI PUSH2 0x11D3 CALLER DUP6 PUSH2 0x2A88 JUMP JUMPDEST PUSH2 0x11DE DUP11 DUP9 DUP7 PUSH2 0x31CE JUMP JUMPDEST PUSH1 0x20 DUP8 ADD MLOAD DUP11 MLOAD DUP12 SWAP1 PUSH2 0x11F2 SWAP1 DUP4 SWAP1 PUSH2 0x5C20 JUMP JUMPDEST SWAP1 MSTORE POP PUSH2 0x11FF DUP9 DUP14 PUSH2 0x3261 JUMP JUMPDEST PUSH2 0x1209 DUP11 DUP11 PUSH2 0x33F6 JUMP JUMPDEST POP POP POP POP POP POP POP POP POP POP POP POP JUMP JUMPDEST PUSH1 0x0 CALLER PUSH2 0xBF1 DUP2 DUP6 DUP6 PUSH2 0x122A DUP4 DUP4 PUSH2 0x26C8 JUMP JUMPDEST PUSH2 0x1234 SWAP2 SWAP1 PUSH2 0x5C33 JUMP JUMPDEST PUSH2 0x2964 JUMP JUMPDEST PUSH1 0x6 SLOAD PUSH1 0x0 SWAP1 PUSH1 0x1 PUSH1 0x1 PUSH1 0x48 SHL SUB AND PUSH2 0x1251 PUSH1 0x2 SLOAD SWAP1 JUMP JUMPDEST PUSH2 0x125B SWAP2 SWAP1 PUSH2 0x5C33 JUMP JUMPDEST SWAP1 POP SWAP1 JUMP JUMPDEST PUSH2 0x1268 PUSH2 0x53EC JUMP JUMPDEST PUSH1 0x0 PUSH2 0x1272 PUSH2 0x35D6 JUMP JUMPDEST PUSH2 0x127D SWAP1 PUSH1 0x1 PUSH2 0x5C33 JUMP JUMPDEST SWAP1 POP PUSH2 0x128B PUSH1 0x32 PUSH1 0x7 PUSH2 0x5BF3 JUMP JUMPDEST PUSH2 0x1296 SWAP1 PUSH1 0x1 PUSH2 0x5C33 JUMP JUMPDEST DUP2 GT ISZERO PUSH2 0x12B7 JUMPI PUSH2 0x12A9 PUSH1 0x32 PUSH1 0x7 PUSH2 0x5BF3 JUMP JUMPDEST PUSH2 0x12B4 SWAP1 PUSH1 0x1 PUSH2 0x5C33 JUMP JUMPDEST SWAP1 POP JUMPDEST DUP1 ISZERO PUSH2 0x1333 JUMPI PUSH1 0x0 DUP2 DUP2 MSTORE PUSH1 0xC PUSH1 0x20 SWAP1 DUP2 MSTORE PUSH1 0x40 DUP1 DUP4 KECCAK256 PUSH1 0x1 PUSH1 0x1 PUSH1 0xA0 SHL SUB DUP8 AND DUP5 MSTORE SWAP1 SWAP2 MSTORE SWAP1 KECCAK256 SLOAD PUSH5 0xFFFFFFFFFF DUP1 DUP3 AND PUSH1 0x1 PUSH1 0x28 SHL SWAP1 SWAP3 DIV AND GT ISZERO PUSH2 0x1321 JUMPI PUSH1 0x1 PUSH1 0xFF DUP3 AND SHL DUP3 PUSH1 0x8 DUP4 SWAP1 SHR PUSH1 0x2 DUP2 LT PUSH2 0x1315 JUMPI PUSH2 0x1315 PUSH2 0x5C0A JUMP JUMPDEST PUSH1 0x20 MUL ADD DUP1 MLOAD SWAP1 SWAP2 OR SWAP1 MSTORE JUMPDEST DUP1 PUSH2 0x132B DUP2 PUSH2 0x5C46 JUMP JUMPDEST SWAP2 POP POP PUSH2 0x12B7 JUMP JUMPDEST POP SWAP2 SWAP1 POP JUMP JUMPDEST PUSH2 0x1341 PUSH2 0x5345 JUMP JUMPDEST PUSH2 0x1349 PUSH2 0x5345 JUMP JUMPDEST PUSH2 0x1353 DUP3 DUP3 PUSH2 0x2E39 JUMP JUMPDEST PUSH1 0x1 DUP4 LT ISZERO PUSH2 0x13B3 JUMPI PUSH1 0x40 MLOAD PUSH3 0x461BCD PUSH1 0xE5 SHL DUP2 MSTORE PUSH1 0x20 PUSH1 0x4 DUP3 ADD MSTORE PUSH1 0x26 PUSH1 0x24 DUP3 ADD MSTORE PUSH32 0x4D594E543A206E65775374616B656444617973206C6F776572207468616E206D PUSH1 0x44 DUP3 ADD MSTORE PUSH6 0x696E696D756D PUSH1 0xD0 SHL PUSH1 0x64 DUP3 ADD MSTORE PUSH1 0x84 ADD PUSH2 0xC56 JUMP JUMPDEST PUSH2 0x13BC DUP3 PUSH2 0x2FB5 JUMP JUMPDEST PUSH2 0x13C9 DUP3 DUP6 DUP6 PUSH1 0x0 PUSH2 0x35F2 JUMP JUMPDEST PUSH2 0x13D3 CALLER DUP6 PUSH2 0x38C7 JUMP JUMPDEST PUSH2 0x13DD DUP3 DUP3 PUSH2 0x33F6 JUMP JUMPDEST POP POP POP POP JUMP JUMPDEST PUSH1 0x0 PUSH2 0x125B PUSH2 0x35D6 JUMP JUMPDEST PUSH2 0x13F5 PUSH2 0x5345 JUMP JUMPDEST PUSH2 0x13FD PUSH2 0x5345 JUMP JUMPDEST PUSH2 0x1407 DUP3 DUP3 PUSH2 0x2E39 JUMP JUMPDEST PUSH1 0x1 PUSH1 0x1 PUSH1 0xA0 SHL SUB DUP6 AND PUSH1 0x0 SWAP1 DUP2 MSTORE PUSH1 0xA PUSH1 0x20 MSTORE PUSH1 0x40 DUP2 KECCAK256 SLOAD SWAP1 SUB PUSH2 0x1467 JUMPI PUSH1 0x40 MLOAD PUSH3 0x461BCD PUSH1 0xE5 SHL DUP2 MSTORE PUSH1 0x20 PUSH1 0x4 DUP3 ADD MSTORE PUSH1 0x16 PUSH1 0x24 DUP3 ADD MSTORE PUSH22 0x135653950E88115B5C1D1E481CDD185AD9481B1A5CDD PUSH1 0x52 SHL PUSH1 0x44 DUP3 ADD MSTORE PUSH1 0x64 ADD PUSH2 0xC56 JUMP JUMPDEST PUSH1 0x1 PUSH1 0x1 PUSH1 0xA0 SHL SUB DUP6 AND PUSH1 0x0 SWAP1 DUP2 MSTORE PUSH1 0xA PUSH1 0x20 MSTORE PUSH1 0x40 SWAP1 KECCAK256 SLOAD DUP5 LT PUSH2 0x14C9 JUMPI PUSH1 0x40 MLOAD PUSH3 0x461BCD PUSH1 0xE5 SHL DUP2 MSTORE PUSH1 0x20 PUSH1 0x4 DUP3 ADD MSTORE PUSH1 0x18 PUSH1 0x24 DUP3 ADD MSTORE PUSH24 0x135653950E881CDD185AD9525B99195E081A5B9D985B1A59 PUSH1 0x42 SHL PUSH1 0x44 DUP3 ADD MSTORE PUSH1 0x64 ADD PUSH2 0xC56 JUMP JUMPDEST PUSH1 0x1 PUSH1 0x1 PUSH1 0xA0 SHL SUB DUP6 AND PUSH1 0x0 SWAP1 DUP2 MSTORE PUSH1 0xA PUSH1 0x20 MSTORE PUSH1 0x40 DUP2 KECCAK256 DUP1 SLOAD DUP7 SWAP1 DUP2 LT PUSH2 0x14F3 JUMPI PUSH2 0x14F3 PUSH2 0x5C0A JUMP JUMPDEST SWAP1 PUSH1 0x0 MSTORE PUSH1 0x20 PUSH1 0x0 KECCAK256 ADD SWAP1 POP PUSH2 0x1507 PUSH2 0x53A6 JUMP JUMPDEST PUSH2 0x1512 DUP3 DUP7 DUP4 PUSH2 0x2EE7 JUMP JUMPDEST DUP1 PUSH1 0x80 ADD MLOAD DUP2 PUSH1 0x60 ADD MLOAD PUSH2 0x1526 SWAP2 SWAP1 PUSH2 0x5C33 JUMP JUMPDEST DUP5 PUSH2 0x140 ADD MLOAD LT ISZERO PUSH2 0x157A JUMPI PUSH1 0x40 MLOAD PUSH3 0x461BCD PUSH1 0xE5 SHL DUP2 MSTORE PUSH1 0x20 PUSH1 0x4 DUP3 ADD MSTORE PUSH1 0x1C PUSH1 0x24 DUP3 ADD MSTORE PUSH32 0x4D594E543A205374616B65206E6F742066756C6C792073657276656400000000 PUSH1 0x44 DUP3 ADD MSTORE PUSH1 0x64 ADD PUSH2 0xC56 JUMP JUMPDEST PUSH1 0xA0 DUP2 ADD MLOAD ISZERO PUSH2 0x15CC JUMPI PUSH1 0x40 MLOAD PUSH3 0x461BCD PUSH1 0xE5 SHL DUP2 MSTORE PUSH1 0x20 PUSH1 0x4 DUP3 ADD MSTORE PUSH1 0x1C PUSH1 0x24 DUP3 ADD MSTORE PUSH32 0x4D594E543A205374616B6520616C726561647920756E6C6F636B656400000000 PUSH1 0x44 DUP3 ADD MSTORE PUSH1 0x64 ADD PUSH2 0xC56 JUMP JUMPDEST PUSH2 0x15D5 DUP5 PUSH2 0x2FB5 JUMP JUMPDEST PUSH2 0x15DF DUP5 DUP3 PUSH2 0x2FC9 JUMP JUMPDEST PUSH1 0x0 DUP1 PUSH1 0x0 PUSH2 0x15F3 DUP8 DUP6 DUP7 PUSH1 0x80 ADD MLOAD PUSH2 0x2FF1 JUMP JUMPDEST SWAP4 POP SWAP4 POP SWAP4 POP POP PUSH2 0x1610 DUP11 DUP10 DUP7 PUSH1 0x20 ADD MLOAD DUP8 PUSH1 0x40 ADD MLOAD DUP8 DUP8 PUSH2 0x39F9 JUMP JUMPDEST DUP1 ISZERO PUSH2 0x1620 JUMPI PUSH2 0x1620 DUP8 DUP3 PUSH2 0x3175 JUMP JUMPDEST DUP4 MLOAD DUP6 SLOAD PUSH1 0x20 DUP7 ADD MLOAD PUSH1 0x40 DUP8 ADD MLOAD PUSH1 0x60 DUP9 ADD MLOAD PUSH1 0x80 DUP10 ADD MLOAD PUSH1 0xA0 DUP11 ADD MLOAD PUSH1 0xC0 DUP12 ADD MLOAD PUSH5 0xFFFFFFFFFF SWAP1 SWAP8 AND PUSH1 0x1 PUSH1 0x1 PUSH1 0x70 SHL SUB NOT SWAP1 SWAP7 AND SWAP6 SWAP1 SWAP6 OR PUSH1 0x1 PUSH1 0x28 SHL PUSH1 0x1 PUSH1 0x1 PUSH1 0x48 SHL SUB SWAP6 DUP7 AND MUL OR PUSH1 0x1 PUSH1 0x70 SHL PUSH1 0x1 PUSH1 0xC8 SHL SUB NOT AND PUSH1 0x1 PUSH1 0x70 SHL SWAP5 SWAP1 SWAP4 AND SWAP4 SWAP1 SWAP4 MUL PUSH2 0xFFFF PUSH1 0xB8 SHL NOT AND SWAP2 SWAP1 SWAP2 OR PUSH1 0x1 PUSH1 0xB8 SHL PUSH2 0xFFFF SWAP3 DUP4 AND MUL OR PUSH4 0xFFFFFFFF PUSH1 0xC8 SHL NOT AND PUSH1 0x1 PUSH1 0xC8 SHL SWAP3 DUP3 AND SWAP3 SWAP1 SWAP3 MUL PUSH2 0xFFFF PUSH1 0xD8 SHL NOT AND SWAP2 SWAP1 SWAP2 OR PUSH1 0x1 PUSH1 0xD8 SHL SWAP2 SWAP1 SWAP3 AND MUL OR PUSH1 0xFF PUSH1 0xE8 SHL NOT AND PUSH1 0x1 PUSH1 0xE8 SHL SWAP2 ISZERO ISZERO SWAP2 SWAP1 SWAP2 MUL OR DUP6 SSTORE PUSH2 0x16ED DUP8 DUP8 PUSH2 0x33F6 JUMP JUMPDEST POP POP POP POP POP POP POP POP POP POP JUMP JUMPDEST PUSH2 0x1703 DUP3 DUP3 PUSH2 0x2E39 JUMP JUMPDEST POP POP JUMP JUMPDEST PUSH1 0x60 DUP2 DUP4 LT DUP1 ISZERO PUSH2 0x171E JUMPI POP PUSH1 0x7 SLOAD PUSH2 0xFFFF AND DUP3 GT ISZERO JUMPDEST PUSH2 0x1760 JUMPI PUSH1 0x40 MLOAD PUSH3 0x461BCD PUSH1 0xE5 SHL DUP2 MSTORE PUSH1 0x20 PUSH1 0x4 DUP3 ADD MSTORE PUSH1 0x13 PUSH1 0x24 DUP3 ADD MSTORE PUSH19 0x135653950E881C985B99D9481A5B9D985B1A59 PUSH1 0x6A SHL PUSH1 0x44 DUP3 ADD MSTORE PUSH1 0x64 ADD PUSH2 0xC56 JUMP JUMPDEST PUSH2 0x176A DUP4 DUP4 PUSH2 0x5C20 JUMP JUMPDEST PUSH8 0xFFFFFFFFFFFFFFFF DUP2 GT ISZERO PUSH2 0x1782 JUMPI PUSH2 0x1782 PUSH2 0x570F JUMP JUMPDEST PUSH1 0x40 MLOAD SWAP1 DUP1 DUP3 MSTORE DUP1 PUSH1 0x20 MUL PUSH1 0x20 ADD DUP3 ADD PUSH1 0x40 MSTORE DUP1 ISZERO PUSH2 0x17AB JUMPI DUP2 PUSH1 0x20 ADD PUSH1 0x20 DUP3 MUL DUP1 CALLDATASIZE DUP4 CALLDATACOPY ADD SWAP1 POP JUMPDEST POP SWAP1 POP DUP3 PUSH1 0x0 DUP1 JUMPDEST PUSH2 0x17BF PUSH1 0x48 PUSH1 0x2 PUSH2 0x5BF3 JUMP JUMPDEST PUSH1 0x0 DUP5 DUP2 MSTORE PUSH1 0x9 PUSH1 0x20 MSTORE PUSH1 0x40 SWAP1 KECCAK256 SLOAD PUSH1 0x1 PUSH1 0x90 SHL DUP2 DIV PUSH7 0xFFFFFFFFFFFFFF AND SWAP1 SWAP2 SHL PUSH1 0x1 PUSH1 0x48 SHL DUP3 DIV PUSH1 0x48 SHL PUSH18 0xFFFFFFFFFFFFFFFFFF000000000000000000 AND OR PUSH1 0x1 PUSH1 0x1 PUSH1 0x48 SHL SUB SWAP1 SWAP2 AND OR SWAP1 POP DUP1 DUP5 DUP4 PUSH2 0x181A DUP2 PUSH2 0x5C5D JUMP JUMPDEST SWAP5 POP DUP2 MLOAD DUP2 LT PUSH2 0x182C JUMPI PUSH2 0x182C PUSH2 0x5C0A JUMP JUMPDEST PUSH1 0x20 SWAP1 DUP2 MUL SWAP2 SWAP1 SWAP2 ADD ADD MSTORE DUP5 PUSH2 0x1841 DUP5 PUSH2 0x5C5D JUMP JUMPDEST SWAP4 POP DUP4 LT PUSH2 0x17B3 JUMPI POP POP POP SWAP3 SWAP2 POP POP JUMP JUMPDEST PUSH1 0x0 PUSH1 0x1 DUP3 LT PUSH2 0x1958 JUMPI PUSH2 0x1864 PUSH2 0x5345 JUMP JUMPDEST PUSH2 0x186C PUSH2 0x5345 JUMP JUMPDEST PUSH2 0x1876 DUP3 DUP3 PUSH2 0x2E39 JUMP JUMPDEST PUSH2 0x187F DUP3 PUSH2 0x2FB5 JUMP JUMPDEST PUSH1 0x0 DUP5 DUP2 MSTORE PUSH1 0x9 PUSH1 0x20 SWAP1 DUP2 MSTORE PUSH1 0x40 SWAP2 DUP3 SWAP1 KECCAK256 SLOAD DUP3 MLOAD DUP1 DUP5 ADD SWAP1 SWAP4 MSTORE PUSH1 0xB DUP4 MSTORE PUSH11 0x3AB731B630B4B6B2B21D1 PUSH1 0xAD SHL SWAP2 DUP4 ADD SWAP2 SWAP1 SWAP2 MSTORE PUSH1 0x1 PUSH1 0x90 SHL SWAP1 DIV PUSH7 0xFFFFFFFFFFFFFF AND SWAP1 PUSH2 0x18CF SWAP1 DUP3 PUSH2 0x3A96 JUMP JUMPDEST PUSH2 0x18DB PUSH1 0x32 PUSH1 0x7 PUSH2 0x5BF3 JUMP JUMPDEST PUSH2 0x2710 PUSH4 0x5F5E100 PUSH2 0x18EF PUSH1 0x8 PUSH1 0xA PUSH2 0x5BC5 JUMP JUMPDEST PUSH2 0x18F9 SWAP2 SWAP1 PUSH2 0x5BD1 JUMP JUMPDEST PUSH2 0x1903 SWAP2 SWAP1 PUSH2 0x5BF3 JUMP JUMPDEST PUSH2 0x190D SWAP1 DUP4 PUSH2 0x5BF3 JUMP JUMPDEST PUSH2 0x1917 SWAP2 SWAP1 PUSH2 0x5BD1 JUMP JUMPDEST SWAP4 POP PUSH2 0x1946 PUSH1 0x40 MLOAD DUP1 PUSH1 0x40 ADD PUSH1 0x40 MSTORE DUP1 PUSH1 0xB DUP2 MSTORE PUSH1 0x20 ADD PUSH11 0x3BB0B0B9A637B1313C9D1 PUSH1 0xAD SHL DUP2 MSTORE POP DUP6 PUSH2 0x3A96 JUMP JUMPDEST PUSH2 0x1950 DUP4 DUP4 PUSH2 0x33F6 JUMP JUMPDEST POP POP POP SWAP2 SWAP1 POP JUMP JUMPDEST PUSH2 0x1964 PUSH1 0x8 PUSH1 0xA PUSH2 0x5BC5 JUMP JUMPDEST PUSH2 0x1972 SWAP1 PUSH4 0x3B9ACA00 PUSH2 0x5BF3 JUMP JUMPDEST SWAP1 POP JUMPDEST SWAP2 SWAP1 POP JUMP JUMPDEST CALLER PUSH1 0x1 PUSH1 0x1 PUSH1 0xA0 SHL SUB PUSH32 0x0 AND EQ PUSH2 0x19E2 JUMPI PUSH1 0x40 MLOAD PUSH3 0x461BCD PUSH1 0xE5 SHL DUP2 MSTORE PUSH1 0x20 PUSH1 0x4 DUP3 ADD MSTORE PUSH1 0xD PUSH1 0x24 DUP3 ADD MSTORE PUSH13 0x2737BA103A34329027BBB732B9 PUSH1 0x99 SHL PUSH1 0x44 DUP3 ADD MSTORE PUSH1 0x64 ADD PUSH2 0xC56 JUMP JUMPDEST PUSH1 0x5 DUP1 SLOAD PUSH1 0x1 PUSH1 0x1 PUSH1 0xA0 SHL SUB NOT AND PUSH1 0x1 PUSH1 0x1 PUSH1 0xA0 SHL SUB SWAP3 SWAP1 SWAP3 AND SWAP2 SWAP1 SWAP2 OR SWAP1 SSTORE JUMP JUMPDEST PUSH1 0x0 DUP1 PUSH2 0x1A0F PUSH2 0x35D6 JUMP JUMPDEST SWAP1 POP PUSH1 0x1 DUP2 LT ISZERO PUSH2 0x1A32 JUMPI PUSH1 0x40 MLOAD PUSH3 0x461BCD PUSH1 0xE5 SHL DUP2 MSTORE PUSH1 0x4 ADD PUSH2 0xC56 SWAP1 PUSH2 0x5C76 JUMP JUMPDEST PUSH2 0x1A3E PUSH1 0x32 PUSH1 0x7 PUSH2 0x5BF3 JUMP JUMPDEST PUSH2 0x1A49 SWAP1 PUSH1 0x1 PUSH2 0x5C33 JUMP JUMPDEST DUP2 LT PUSH2 0x1A97 JUMPI PUSH1 0x40 MLOAD PUSH3 0x461BCD PUSH1 0xE5 SHL DUP2 MSTORE PUSH1 0x20 PUSH1 0x4 DUP3 ADD MSTORE PUSH1 0x1B PUSH1 0x24 DUP3 ADD MSTORE PUSH32 0x4D594E543A20436C61696D2070686173652068617320656E6465640000000000 PUSH1 0x44 DUP3 ADD MSTORE PUSH1 0x64 ADD PUSH2 0xC56 JUMP JUMPDEST PUSH1 0x1 PUSH1 0x1 PUSH1 0x60 SHL SUB NOT DUP7 AND PUSH1 0x0 SWAP1 DUP2 MSTORE PUSH1 0x8 PUSH1 0x20 MSTORE PUSH1 0x40 SWAP1 KECCAK256 SLOAD PUSH1 0xFF AND ISZERO PUSH2 0x1AC3 JUMPI PUSH1 0x0 SWAP2 POP POP PUSH2 0xD7A JUMP JUMPDEST PUSH2 0x1B01 DUP7 DUP7 DUP7 DUP7 DUP1 DUP1 PUSH1 0x20 MUL PUSH1 0x20 ADD PUSH1 0x40 MLOAD SWAP1 DUP2 ADD PUSH1 0x40 MSTORE DUP1 SWAP4 SWAP3 SWAP2 SWAP1 DUP2 DUP2 MSTORE PUSH1 0x20 ADD DUP4 DUP4 PUSH1 0x20 MUL DUP1 DUP3 DUP5 CALLDATACOPY PUSH1 0x0 SWAP3 ADD SWAP2 SWAP1 SWAP2 MSTORE POP PUSH2 0x3ADB SWAP3 POP POP POP JUMP JUMPDEST SWAP7 SWAP6 POP POP POP POP POP POP JUMP JUMPDEST PUSH2 0x1B13 PUSH2 0x5345 JUMP JUMPDEST PUSH2 0x1B1B PUSH2 0x5345 JUMP JUMPDEST PUSH2 0x1B25 DUP3 DUP3 PUSH2 0x2E39 JUMP JUMPDEST PUSH1 0x1 DUP3 PUSH2 0x140 ADD MLOAD GT PUSH2 0x1B6C JUMPI PUSH1 0x40 MLOAD PUSH3 0x461BCD PUSH1 0xE5 SHL DUP2 MSTORE PUSH1 0x20 PUSH1 0x4 DUP3 ADD MSTORE PUSH1 0xF PUSH1 0x24 DUP3 ADD MSTORE PUSH15 0x4D594E543A20546F6F206561726C79 PUSH1 0x88 SHL PUSH1 0x44 DUP3 ADD MSTORE PUSH1 0x64 ADD PUSH2 0xC56 JUMP JUMPDEST DUP3 ISZERO PUSH2 0x1BE8 JUMPI DUP2 PUSH2 0x140 ADD MLOAD DUP4 GT ISZERO PUSH2 0x1BD7 JUMPI PUSH1 0x40 MLOAD PUSH3 0x461BCD PUSH1 0xE5 SHL DUP2 MSTORE PUSH1 0x20 PUSH1 0x4 DUP3 ADD MSTORE PUSH1 0x27 PUSH1 0x24 DUP3 ADD MSTORE PUSH32 0x4D594E543A206265666F72654461792063616E6E6F7420626520696E20746865 PUSH1 0x44 DUP3 ADD MSTORE PUSH7 0x20667574757265 PUSH1 0xC8 SHL PUSH1 0x64 DUP3 ADD MSTORE PUSH1 0x84 ADD PUSH2 0xC56 JUMP JUMPDEST PUSH2 0x1BE3 DUP3 DUP5 PUSH1 0x0 PUSH2 0x3C18 JUMP JUMPDEST PUSH2 0x1BF9 JUMP JUMPDEST PUSH2 0x1BF9 DUP3 DUP4 PUSH2 0x140 ADD MLOAD PUSH1 0x0 PUSH2 0x3C18 JUMP JUMPDEST PUSH2 0xC69 DUP3 DUP3 PUSH2 0x33F6 JUMP JUMPDEST PUSH1 0x60 PUSH1 0x4 DUP1 SLOAD PUSH2 0xB60 SWAP1 PUSH2 0x5A97 JUMP JUMPDEST PUSH1 0x0 PUSH6 0x173CDF6F6E31 DUP14 GT ISZERO PUSH2 0x1C63 JUMPI PUSH1 0x40 MLOAD PUSH3 0x461BCD PUSH1 0xE5 SHL DUP2 MSTORE PUSH1 0x20 PUSH1 0x4 DUP3 ADD MSTORE PUSH1 0x16 PUSH1 0x24 DUP3 ADD MSTORE PUSH22 0x4D594E543A2043484B3A207261775361746F73686973 PUSH1 0x50 SHL PUSH1 0x44 DUP3 ADD MSTORE PUSH1 0x64 ADD PUSH2 0xC56 JUMP JUMPDEST PUSH2 0x15E DUP4 LT ISZERO PUSH2 0x1CC4 JUMPI PUSH1 0x40 MLOAD PUSH3 0x461BCD PUSH1 0xE5 SHL DUP2 MSTORE PUSH1 0x20 PUSH1 0x4 DUP3 ADD MSTORE PUSH1 0x26 PUSH1 0x24 DUP3 ADD MSTORE PUSH32 0x4D594E543A206175746F5374616B6544617973206C6F776572207468616E206D PUSH1 0x44 DUP3 ADD MSTORE PUSH6 0x696E696D756D PUSH1 0xD0 SHL PUSH1 0x64 DUP3 ADD MSTORE PUSH1 0x84 ADD PUSH2 0xC56 JUMP JUMPDEST PUSH1 0x0 PUSH1 0x1 PUSH1 0x1 PUSH1 0xA0 SHL SUB DUP12 AND CALLER EQ PUSH2 0x1D35 JUMPI PUSH1 0x40 DUP1 MLOAD PUSH32 0x4E831ACB4223B66DE3B3D2E54A2EDEEFB0DE3D7916E2886A4B134D9764D41BEC PUSH1 0x20 DUP3 ADD MSTORE SWAP1 DUP2 ADD DUP6 SWAP1 MSTORE PUSH1 0x60 DUP5 DUP2 SHL PUSH1 0x1 PUSH1 0x1 PUSH1 0x60 SHL SUB NOT AND SWAP1 DUP3 ADD MSTORE PUSH1 0x74 ADD PUSH1 0x40 MLOAD PUSH1 0x20 DUP2 DUP4 SUB SUB DUP2 MSTORE SWAP1 PUSH1 0x40 MSTORE DUP1 MLOAD SWAP1 PUSH1 0x20 ADD KECCAK256 SWAP1 POP JUMPDEST PUSH2 0x1D45 DUP12 DUP3 DUP13 DUP13 DUP13 DUP13 DUP13 DUP13 PUSH2 0x25AE JUMP JUMPDEST PUSH2 0x1D91 JUMPI PUSH1 0x40 MLOAD PUSH3 0x461BCD PUSH1 0xE5 SHL DUP2 MSTORE PUSH1 0x20 PUSH1 0x4 DUP3 ADD MSTORE PUSH1 0x18 PUSH1 0x24 DUP3 ADD MSTORE PUSH32 0x4D594E543A205369676E6174757265206D69736D617463680000000000000000 PUSH1 0x44 DUP3 ADD MSTORE PUSH1 0x64 ADD PUSH2 0xC56 JUMP JUMPDEST POP PUSH1 0x0 PUSH2 0x1D9F DUP11 DUP11 DUP11 PUSH2 0xD82 JUMP JUMPDEST PUSH1 0x1 PUSH1 0x1 PUSH1 0x60 SHL SUB NOT DUP2 AND PUSH1 0x0 SWAP1 DUP2 MSTORE PUSH1 0x8 PUSH1 0x20 MSTORE PUSH1 0x40 SWAP1 KECCAK256 SLOAD SWAP1 SWAP2 POP PUSH1 0xFF AND ISZERO PUSH2 0x1E1E JUMPI PUSH1 0x40 MLOAD PUSH3 0x461BCD PUSH1 0xE5 SHL DUP2 MSTORE PUSH1 0x20 PUSH1 0x4 DUP3 ADD MSTORE PUSH1 0x29 PUSH1 0x24 DUP3 ADD MSTORE PUSH32 0x4D594E543A2042544320616464726573732062616C616E636520616C72656164 PUSH1 0x44 DUP3 ADD MSTORE PUSH9 0x1E4818DB185A5B5959 PUSH1 0xBA SHL PUSH1 0x64 DUP3 ADD MSTORE PUSH1 0x84 ADD PUSH2 0xC56 JUMP JUMPDEST PUSH2 0x1E5C DUP2 DUP16 DUP16 DUP16 DUP1 DUP1 PUSH1 0x20 MUL PUSH1 0x20 ADD PUSH1 0x40 MLOAD SWAP1 DUP2 ADD PUSH1 0x40 MSTORE DUP1 SWAP4 SWAP3 SWAP2 SWAP1 DUP2 DUP2 MSTORE PUSH1 0x20 ADD DUP4 DUP4 PUSH1 0x20 MUL DUP1 DUP3 DUP5 CALLDATACOPY PUSH1 0x0 SWAP3 ADD SWAP2 SWAP1 SWAP2 MSTORE POP PUSH2 0x3ADB SWAP3 POP POP POP JUMP JUMPDEST PUSH2 0x1EB4 JUMPI PUSH1 0x40 MLOAD PUSH3 0x461BCD PUSH1 0xE5 SHL DUP2 MSTORE PUSH1 0x20 PUSH1 0x4 DUP3 ADD MSTORE PUSH1 0x24 DUP1 DUP3 ADD MSTORE PUSH32 0x4D594E543A204254432061646472657373206F722062616C616E636520756E6B PUSH1 0x44 DUP3 ADD MSTORE PUSH4 0x3737BBB7 PUSH1 0xE1 SHL PUSH1 0x64 DUP3 ADD MSTORE PUSH1 0x84 ADD PUSH2 0xC56 JUMP JUMPDEST PUSH1 0x1 PUSH1 0x1 PUSH1 0x60 SHL SUB NOT DUP2 AND PUSH1 0x0 SWAP1 DUP2 MSTORE PUSH1 0x8 PUSH1 0x20 MSTORE PUSH1 0x40 SWAP1 KECCAK256 DUP1 SLOAD PUSH1 0xFF NOT AND PUSH1 0x1 OR SWAP1 SSTORE PUSH2 0x1EE6 DUP15 DUP13 DUP4 DUP12 DUP9 DUP9 PUSH2 0x3CFD JUMP JUMPDEST SWAP15 SWAP14 POP POP POP POP POP POP POP POP POP POP POP POP POP POP JUMP JUMPDEST PUSH1 0x0 PUSH1 0x1 PUSH1 0x80 SHL DUP4 LT PUSH2 0x1F4D JUMPI PUSH1 0x40 MLOAD PUSH3 0x461BCD PUSH1 0xE5 SHL DUP2 MSTORE PUSH1 0x20 PUSH1 0x4 DUP3 ADD MSTORE PUSH1 0x19 PUSH1 0x24 DUP3 ADD MSTORE PUSH32 0x656E746572446179206578636565647320313238206269747300000000000000 PUSH1 0x44 DUP3 ADD MSTORE PUSH1 0x64 ADD PUSH2 0xC56 JUMP JUMPDEST PUSH1 0x1 PUSH1 0x28 SHL DUP3 LT PUSH2 0x1FA0 JUMPI PUSH1 0x40 MLOAD PUSH3 0x461BCD PUSH1 0xE5 SHL DUP2 MSTORE PUSH1 0x20 PUSH1 0x4 DUP3 ADD MSTORE PUSH1 0x1A PUSH1 0x24 DUP3 ADD MSTORE PUSH32 0x656E747279496E64657820657863656564732034302062697473000000000000 PUSH1 0x44 DUP3 ADD MSTORE PUSH1 0x64 ADD PUSH2 0xC56 JUMP JUMPDEST POP PUSH1 0x28 SWAP2 SWAP1 SWAP2 SHL OR SWAP1 JUMP JUMPDEST PUSH1 0x0 CALLER DUP2 PUSH2 0x1FB9 DUP3 DUP7 PUSH2 0x26C8 JUMP JUMPDEST SWAP1 POP DUP4 DUP2 LT ISZERO PUSH2 0x2019 JUMPI PUSH1 0x40 MLOAD PUSH3 0x461BCD PUSH1 0xE5 SHL DUP2 MSTORE PUSH1 0x20 PUSH1 0x4 DUP3 ADD MSTORE PUSH1 0x25 PUSH1 0x24 DUP3 ADD MSTORE PUSH32 0x45524332303A2064656372656173656420616C6C6F77616E63652062656C6F77 PUSH1 0x44 DUP3 ADD MSTORE PUSH5 0x207A65726F PUSH1 0xD8 SHL PUSH1 0x64 DUP3 ADD MSTORE PUSH1 0x84 ADD PUSH2 0xC56 JUMP JUMPDEST PUSH2 0x2026 DUP3 DUP7 DUP7 DUP5 SUB PUSH2 0x2964 JUMP JUMPDEST POP PUSH1 0x1 SWAP5 SWAP4 POP POP POP POP JUMP JUMPDEST PUSH1 0x0 CALLER PUSH2 0xBF1 DUP2 DUP6 DUP6 PUSH2 0x2BBB JUMP JUMPDEST PUSH1 0x0 DUP1 PUSH1 0x28 DUP4 SWAP1 SHR DUP2 PUSH2 0x2057 PUSH1 0x1 PUSH1 0x1 PUSH1 0x28 SHL PUSH2 0x5C20 JUMP JUMPDEST PUSH1 0x0 DUP4 DUP2 MSTORE PUSH1 0xC PUSH1 0x20 SWAP1 DUP2 MSTORE PUSH1 0x40 DUP1 DUP4 KECCAK256 PUSH1 0x1 PUSH1 0x1 PUSH1 0xA0 SHL SUB DUP12 AND DUP5 MSTORE DUP3 MSTORE DUP1 DUP4 KECCAK256 SWAP4 DUP10 AND DUP1 DUP5 MSTORE PUSH1 0x1 SWAP1 SWAP5 ADD SWAP1 SWAP2 MSTORE DUP2 KECCAK256 DUP1 SLOAD SWAP3 SWAP4 POP SWAP2 PUSH1 0x1 PUSH1 0x1 PUSH1 0x60 SHL SUB AND SWAP1 SUB PUSH2 0x20DC JUMPI PUSH1 0x40 MLOAD PUSH3 0x461BCD PUSH1 0xE5 SHL DUP2 MSTORE PUSH1 0x20 PUSH1 0x4 DUP3 ADD MSTORE PUSH1 0x13 PUSH1 0x24 DUP3 ADD MSTORE PUSH19 0x135653950E8814185C985B481A5B9D985B1A59 PUSH1 0x6A SHL PUSH1 0x44 DUP3 ADD MSTORE PUSH1 0x64 ADD PUSH2 0xC56 JUMP JUMPDEST SLOAD PUSH1 0x1 PUSH1 0x1 PUSH1 0x60 SHL SUB DUP2 AND SWAP5 POP PUSH1 0x1 PUSH1 0x60 SHL SWAP1 DIV PUSH1 0x1 PUSH1 0x1 PUSH1 0xA0 SHL SUB AND SWAP3 POP POP POP JUMPDEST SWAP3 POP SWAP3 SWAP1 POP JUMP JUMPDEST PUSH2 0x210D PUSH2 0x35D6 JUMP JUMPDEST DUP3 LT PUSH2 0x215B JUMPI PUSH1 0x40 MLOAD PUSH3 0x461BCD PUSH1 0xE5 SHL DUP2 MSTORE PUSH1 0x20 PUSH1 0x4 DUP3 ADD MSTORE PUSH1 0x1B PUSH1 0x24 DUP3 ADD MSTORE PUSH32 0x4D594E543A20526F756E64206973206E6F7420636F6D706C6574650000000000 PUSH1 0x44 DUP3 ADD MSTORE PUSH1 0x64 ADD PUSH2 0xC56 JUMP JUMPDEST PUSH1 0x0 DUP3 DUP2 MSTORE PUSH1 0xC PUSH1 0x20 SWAP1 DUP2 MSTORE PUSH1 0x40 DUP1 DUP4 KECCAK256 CALLER DUP5 MSTORE SWAP1 SWAP2 MSTORE DUP2 KECCAK256 DUP1 SLOAD SWAP1 SWAP2 PUSH5 0xFFFFFFFFFF SWAP1 SWAP2 AND SWAP1 DUP4 ISZERO PUSH2 0x21F9 JUMPI DUP3 SLOAD PUSH2 0x21A3 SWAP1 DUP4 SWAP1 PUSH1 0x1 PUSH1 0x28 SHL SWAP1 DIV PUSH5 0xFFFFFFFFFF AND PUSH2 0x5C20 JUMP JUMPDEST DUP5 GT ISZERO PUSH2 0x21E8 JUMPI PUSH1 0x40 MLOAD PUSH3 0x461BCD PUSH1 0xE5 SHL DUP2 MSTORE PUSH1 0x20 PUSH1 0x4 DUP3 ADD MSTORE PUSH1 0x13 PUSH1 0x24 DUP3 ADD MSTORE PUSH19 0x135653950E8818DBDD5B9D081A5B9D985B1A59 PUSH1 0x6A SHL PUSH1 0x44 DUP3 ADD MSTORE PUSH1 0x64 ADD PUSH2 0xC56 JUMP JUMPDEST PUSH2 0x21F2 DUP5 DUP4 PUSH2 0x5C33 JUMP JUMPDEST SWAP1 POP PUSH2 0x224F JUMP JUMPDEST POP DUP2 SLOAD PUSH1 0x1 PUSH1 0x28 SHL SWAP1 DIV PUSH5 0xFFFFFFFFFF AND DUP1 DUP3 LT PUSH2 0x224F JUMPI PUSH1 0x40 MLOAD PUSH3 0x461BCD PUSH1 0xE5 SHL DUP2 MSTORE PUSH1 0x20 PUSH1 0x4 DUP3 ADD MSTORE PUSH1 0x13 PUSH1 0x24 DUP3 ADD MSTORE PUSH19 0x135653950E8818DBDD5B9D081A5B9D985B1A59 PUSH1 0x6A SHL PUSH1 0x44 DUP3 ADD MSTORE PUSH1 0x64 ADD PUSH2 0xC56 JUMP JUMPDEST PUSH1 0x0 PUSH2 0x225A DUP7 PUSH2 0x1852 JUMP JUMPDEST SWAP1 POP PUSH1 0x0 PUSH1 0xB PUSH1 0x0 DUP9 DUP2 MSTORE PUSH1 0x20 ADD SWAP1 DUP2 MSTORE PUSH1 0x20 ADD PUSH1 0x0 KECCAK256 SLOAD SWAP1 POP PUSH2 0x22A9 PUSH1 0x40 MLOAD DUP1 PUSH1 0x40 ADD PUSH1 0x40 MSTORE DUP1 PUSH1 0x13 DUP2 MSTORE PUSH1 0x20 ADD PUSH19 0x32B73A32B92230BC902FBC332637B1313C9D1 PUSH1 0x6D SHL DUP2 MSTORE POP DUP3 PUSH2 0x3A96 JUMP JUMPDEST PUSH1 0x0 DUP1 JUMPDEST PUSH1 0x0 DUP7 DUP2 MSTORE PUSH1 0x1 DUP9 ADD PUSH1 0x20 MSTORE PUSH1 0x40 DUP2 KECCAK256 DUP1 SLOAD SWAP1 DUP3 SWAP1 SSTORE PUSH1 0x1 PUSH1 0x1 PUSH1 0x60 SHL SUB DUP2 AND SWAP2 PUSH1 0x1 PUSH1 0x60 SHL SWAP1 SWAP2 DIV PUSH1 0x1 PUSH1 0x1 PUSH1 0xA0 SHL SUB AND SWAP1 DUP6 PUSH2 0x22EB DUP5 DUP10 PUSH2 0x5BF3 JUMP JUMPDEST PUSH2 0x22F5 SWAP2 SWAP1 PUSH2 0x5BD1 JUMP JUMPDEST SWAP1 POP PUSH1 0x1 PUSH1 0x1 PUSH1 0xA0 SHL SUB DUP3 AND PUSH2 0x2316 JUMPI PUSH2 0x2311 DUP13 DUP11 DUP4 DUP6 PUSH2 0x3D40 JUMP JUMPDEST PUSH2 0x239C JUMP JUMPDEST PUSH1 0x0 PUSH2 0x2323 PUSH1 0xA DUP4 PUSH2 0x5BD1 JUMP JUMPDEST SWAP1 POP PUSH2 0x232F DUP2 DUP4 PUSH2 0x5C33 JUMP JUMPDEST SWAP2 POP PUSH1 0x0 PUSH2 0x233E PUSH1 0x5 DUP5 PUSH2 0x5BD1 JUMP JUMPDEST SWAP1 POP CALLER PUSH1 0x1 PUSH1 0x1 PUSH1 0xA0 SHL SUB DUP6 AND SUB PUSH2 0x236D JUMPI PUSH2 0x235A DUP2 DUP5 PUSH2 0x5C33 JUMP JUMPDEST SWAP3 POP PUSH2 0x2368 DUP15 DUP13 DUP6 DUP8 PUSH2 0x3D40 JUMP JUMPDEST PUSH2 0x2383 JUMP JUMPDEST PUSH2 0x2379 DUP15 DUP13 DUP6 DUP8 PUSH2 0x3D40 JUMP JUMPDEST PUSH2 0x2383 DUP5 DUP3 PUSH2 0x2A88 JUMP JUMPDEST PUSH2 0x238D DUP2 DUP4 PUSH2 0x5C33 JUMP JUMPDEST PUSH2 0x2397 SWAP1 DUP8 PUSH2 0x5C33 JUMP JUMPDEST SWAP6 POP POP POP JUMPDEST PUSH2 0x23A6 DUP2 DUP7 PUSH2 0x5C33 JUMP JUMPDEST SWAP5 POP POP POP POP DUP5 DUP7 PUSH2 0x23B6 SWAP1 PUSH2 0x5C5D JUMP JUMPDEST SWAP7 POP DUP7 LT PUSH2 0x22AD JUMPI DUP7 SLOAD PUSH5 0xFFFFFFFFFF NOT AND PUSH5 0xFFFFFFFFFF DUP8 AND OR DUP8 SSTORE DUP1 ISZERO PUSH2 0x23F7 JUMPI PUSH2 0x23F7 PUSH20 0x9A6A414D6F3497C05E3B1DE90520765FA1E07C03 DUP3 PUSH2 0x2A88 JUMP JUMPDEST DUP2 ISZERO PUSH2 0x2407 JUMPI PUSH2 0x2407 CALLER DUP4 PUSH2 0x2A88 JUMP JUMPDEST POP POP POP POP POP POP POP POP POP JUMP JUMPDEST PUSH1 0x0 PUSH2 0x241C PUSH2 0x35D6 JUMP JUMPDEST SWAP1 POP PUSH2 0x242A PUSH1 0x32 PUSH1 0x7 PUSH2 0x5BF3 JUMP JUMPDEST PUSH2 0x2435 SWAP1 PUSH1 0x1 PUSH2 0x5C33 JUMP JUMPDEST DUP2 LT PUSH2 0x2483 JUMPI PUSH1 0x40 MLOAD PUSH3 0x461BCD PUSH1 0xE5 SHL DUP2 MSTORE PUSH1 0x20 PUSH1 0x4 DUP3 ADD MSTORE PUSH1 0x18 PUSH1 0x24 DUP3 ADD MSTORE PUSH32 0x4D594E543A204C6F6262696573206861766520656E6465640000000000000000 PUSH1 0x44 DUP3 ADD MSTORE PUSH1 0x64 ADD PUSH2 0xC56 JUMP JUMPDEST CALLVALUE PUSH1 0x0 DUP2 SWAP1 SUB PUSH2 0x24CD JUMPI PUSH1 0x40 MLOAD PUSH3 0x461BCD PUSH1 0xE5 SHL DUP2 MSTORE PUSH1 0x20 PUSH1 0x4 DUP3 ADD MSTORE PUSH1 0x15 PUSH1 0x24 DUP3 ADD MSTORE PUSH21 0x135653950E88105B5BDD5B9D081C995C5D5A5C9959 PUSH1 0x5A SHL PUSH1 0x44 DUP3 ADD MSTORE PUSH1 0x64 ADD PUSH2 0xC56 JUMP JUMPDEST PUSH1 0x0 DUP3 DUP2 MSTORE PUSH1 0xC PUSH1 0x20 SWAP1 DUP2 MSTORE PUSH1 0x40 DUP1 DUP4 KECCAK256 CALLER DUP5 MSTORE SWAP1 SWAP2 MSTORE DUP2 KECCAK256 DUP1 SLOAD SWAP1 SWAP2 SWAP1 PUSH1 0x1 PUSH1 0x28 SHL SWAP1 DIV PUSH5 0xFFFFFFFFFF AND DUP3 PUSH1 0x5 PUSH2 0x2505 DUP4 PUSH2 0x5CBB JUMP JUMPDEST DUP3 SLOAD PUSH2 0x100 SWAP3 SWAP1 SWAP3 EXP PUSH5 0xFFFFFFFFFF DUP2 DUP2 MUL NOT SWAP1 SWAP4 AND SWAP2 DUP4 AND MUL OR SWAP1 SWAP2 SSTORE PUSH1 0x40 DUP1 MLOAD DUP1 DUP3 ADD DUP3 MSTORE PUSH1 0x1 PUSH1 0x1 PUSH1 0x60 SHL SUB DUP8 DUP2 AND DUP3 MSTORE PUSH1 0x1 PUSH1 0x1 PUSH1 0xA0 SHL SUB DUP11 DUP2 AND PUSH1 0x20 DUP1 DUP6 ADD SWAP2 DUP3 MSTORE SWAP7 SWAP1 SWAP6 AND PUSH1 0x0 DUP2 DUP2 MSTORE PUSH1 0x1 DUP11 ADD DUP9 MSTORE DUP6 DUP2 KECCAK256 SWAP5 MLOAD SWAP7 MLOAD SWAP7 SWAP1 SWAP4 AND PUSH1 0x1 PUSH1 0x60 SHL SWAP7 SWAP1 SWAP3 AND SWAP6 SWAP1 SWAP6 MUL OR SWAP1 SWAP2 SSTORE DUP8 DUP2 MSTORE PUSH1 0xB SWAP1 SWAP4 MSTORE DUP3 KECCAK256 DUP1 SLOAD SWAP2 SWAP4 POP DUP6 SWAP3 SWAP1 SWAP2 PUSH2 0x2595 SWAP1 DUP5 SWAP1 PUSH2 0x5C33 JUMP JUMPDEST SWAP1 SWAP2 SSTORE POP PUSH2 0x25A7 SWAP1 POP DUP5 DUP3 DUP6 DUP9 PUSH2 0x3DB0 JUMP JUMPDEST POP POP POP POP POP JUMP JUMPDEST PUSH1 0x0 PUSH1 0x1B DUP5 PUSH1 0xFF AND LT ISZERO DUP1 ISZERO PUSH2 0x25C8 JUMPI POP PUSH1 0x1E DUP5 PUSH1 0xFF AND GT ISZERO JUMPDEST PUSH2 0x2606 JUMPI PUSH1 0x40 MLOAD PUSH3 0x461BCD PUSH1 0xE5 SHL DUP2 MSTORE PUSH1 0x20 PUSH1 0x4 DUP3 ADD MSTORE PUSH1 0xF PUSH1 0x24 DUP3 ADD MSTORE PUSH15 0x135653950E881D881A5B9D985B1A59 PUSH1 0x8A SHL PUSH1 0x44 DUP3 ADD MSTORE PUSH1 0x64 ADD PUSH2 0xC56 JUMP JUMPDEST PUSH1 0x40 DUP1 MLOAD PUSH1 0x20 DUP1 DUP3 ADD DUP11 SWAP1 MSTORE DUP2 DUP4 ADD DUP10 SWAP1 MSTORE DUP3 MLOAD DUP1 DUP4 SUB DUP5 ADD DUP2 MSTORE PUSH1 0x60 SWAP1 SWAP3 ADD SWAP1 SWAP3 MSTORE DUP1 MLOAD SWAP2 ADD KECCAK256 PUSH1 0x0 PUSH2 0x2643 PUSH2 0x263E DUP13 DUP13 DUP11 PUSH2 0x3E12 JUMP JUMPDEST PUSH2 0x3FF5 JUMP JUMPDEST PUSH1 0x40 DUP1 MLOAD PUSH1 0x0 DUP2 MSTORE PUSH1 0x20 DUP2 ADD DUP1 DUP4 MSTORE DUP4 SWAP1 MSTORE PUSH1 0xFF DUP10 AND SWAP2 DUP2 ADD SWAP2 SWAP1 SWAP2 MSTORE PUSH1 0x60 DUP2 ADD DUP8 SWAP1 MSTORE PUSH1 0x80 DUP2 ADD DUP7 SWAP1 MSTORE SWAP1 SWAP2 POP PUSH1 0x1 PUSH1 0x1 PUSH1 0xA0 SHL SUB DUP4 AND SWAP1 PUSH1 0x1 SWAP1 PUSH1 0xA0 ADD PUSH1 0x20 PUSH1 0x40 MLOAD PUSH1 0x20 DUP2 SUB SWAP1 DUP1 DUP5 SUB SWAP1 DUP6 GAS STATICCALL ISZERO DUP1 ISZERO PUSH2 0x26A4 JUMPI RETURNDATASIZE PUSH1 0x0 DUP1 RETURNDATACOPY RETURNDATASIZE PUSH1 0x0 REVERT JUMPDEST POP POP POP PUSH1 0x20 PUSH1 0x40 MLOAD SUB MLOAD PUSH1 0x1 PUSH1 0x1 PUSH1 0xA0 SHL SUB AND EQ SWAP3 POP POP POP SWAP9 SWAP8 POP POP POP POP POP POP POP POP JUMP JUMPDEST PUSH1 0x1 PUSH1 0x1 PUSH1 0xA0 SHL SUB SWAP2 DUP3 AND PUSH1 0x0 SWAP1 DUP2 MSTORE PUSH1 0x1 PUSH1 0x20 SWAP1 DUP2 MSTORE PUSH1 0x40 DUP1 DUP4 KECCAK256 SWAP4 SWAP1 SWAP5 AND DUP3 MSTORE SWAP2 SWAP1 SWAP2 MSTORE KECCAK256 SLOAD SWAP1 JUMP JUMPDEST PUSH1 0x0 PUSH2 0x2733 DUP6 DUP6 DUP6 DUP6 DUP1 DUP1 PUSH1 0x20 MUL PUSH1 0x20 ADD PUSH1 0x40 MLOAD SWAP1 DUP2 ADD PUSH1 0x40 MSTORE DUP1 SWAP4 SWAP3 SWAP2 SWAP1 DUP2 DUP2 MSTORE PUSH1 0x20 ADD DUP4 DUP4 PUSH1 0x20 MUL DUP1 DUP3 DUP5 CALLDATACOPY PUSH1 0x0 SWAP3 ADD SWAP2 SWAP1 SWAP2 MSTORE POP PUSH2 0x3ADB SWAP3 POP POP POP JUMP JUMPDEST SWAP6 SWAP5 POP POP POP POP POP JUMP JUMPDEST PUSH2 0x2744 PUSH2 0x540A JUMP JUMPDEST PUSH1 0x7 SLOAD PUSH1 0x0 SWAP1 DUP2 SWAP1 DUP2 SWAP1 PUSH2 0x2767 SWAP1 PUSH1 0x1 PUSH1 0x80 SHL SWAP1 DIV PUSH1 0x1 PUSH1 0x1 PUSH1 0x80 SHL SUB AND PUSH2 0x40B4 JUMP JUMPDEST PUSH1 0x40 DUP1 MLOAD PUSH2 0x1A0 DUP2 ADD DUP3 MSTORE PUSH1 0x6 SLOAD PUSH1 0x1 PUSH1 0x1 PUSH1 0x48 SHL SUB DUP1 DUP3 AND DUP4 MSTORE PUSH1 0x1 PUSH1 0x48 SHL DUP3 DIV DUP2 AND PUSH1 0x20 DUP5 ADD MSTORE PUSH5 0xFFFFFFFFFF PUSH1 0x1 PUSH1 0x90 SHL DUP4 DIV DUP2 AND SWAP5 DUP5 ADD SWAP5 SWAP1 SWAP5 MSTORE PUSH1 0x1 PUSH1 0xB8 SHL SWAP1 SWAP2 DIV DUP2 AND PUSH1 0x60 DUP4 ADD MSTORE PUSH1 0x7 SLOAD PUSH2 0xFFFF DUP2 AND PUSH1 0x80 DUP5 ADD MSTORE PUSH3 0x10000 DUP2 DIV SWAP1 SWAP2 AND PUSH1 0xA0 DUP4 ADD MSTORE PUSH1 0x1 PUSH1 0x58 SHL SWAP1 DIV SWAP1 SWAP2 AND PUSH1 0xC0 DUP3 ADD MSTORE PUSH1 0xE0 DUP2 ADD DUP3 SWAP1 MSTORE PUSH2 0x100 DUP2 ADD DUP4 SWAP1 MSTORE PUSH2 0x120 DUP2 ADD DUP5 SWAP1 MSTORE TIMESTAMP PUSH2 0x140 DUP3 ADD MSTORE SWAP3 SWAP6 POP SWAP1 SWAP4 POP SWAP2 POP PUSH2 0x160 DUP2 ADD PUSH2 0x2813 PUSH1 0x2 SLOAD SWAP1 JUMP JUMPDEST DUP2 MSTORE PUSH1 0x20 ADD PUSH1 0xB PUSH1 0x0 PUSH2 0x2824 PUSH2 0x35D6 JUMP JUMPDEST DUP2 MSTORE PUSH1 0x20 ADD SWAP1 DUP2 MSTORE PUSH1 0x20 ADD PUSH1 0x0 KECCAK256 SLOAD DUP2 MSTORE POP SWAP4 POP POP POP POP SWAP1 JUMP JUMPDEST PUSH1 0x60 DUP2 DUP4 LT DUP1 ISZERO PUSH2 0x2865 JUMPI POP PUSH2 0x2856 PUSH1 0x32 PUSH1 0x7 PUSH2 0x5BF3 JUMP JUMPDEST PUSH2 0x2861 SWAP1 PUSH1 0x1 PUSH2 0x5C33 JUMP JUMPDEST DUP3 GT ISZERO JUMPDEST DUP1 ISZERO PUSH2 0x2878 JUMPI POP PUSH2 0x2874 PUSH2 0x35D6 JUMP JUMPDEST DUP3 GT ISZERO JUMPDEST PUSH2 0x28BA JUMPI PUSH1 0x40 MLOAD PUSH3 0x461BCD PUSH1 0xE5 SHL DUP2 MSTORE PUSH1 0x20 PUSH1 0x4 DUP3 ADD MSTORE PUSH1 0x13 PUSH1 0x24 DUP3 ADD MSTORE PUSH19 0x4D594E543A20696E76616C69642072616E6765 PUSH1 0x68 SHL PUSH1 0x44 DUP3 ADD MSTORE PUSH1 0x64 ADD PUSH2 0xC56 JUMP JUMPDEST PUSH2 0x28C4 DUP4 DUP4 PUSH2 0x5C20 JUMP JUMPDEST PUSH8 0xFFFFFFFFFFFFFFFF DUP2 GT ISZERO PUSH2 0x28DC JUMPI PUSH2 0x28DC PUSH2 0x570F JUMP JUMPDEST PUSH1 0x40 MLOAD SWAP1 DUP1 DUP3 MSTORE DUP1 PUSH1 0x20 MUL PUSH1 0x20 ADD DUP3 ADD PUSH1 0x40 MSTORE DUP1 ISZERO PUSH2 0x2905 JUMPI DUP2 PUSH1 0x20 ADD PUSH1 0x20 DUP3 MUL DUP1 CALLDATASIZE DUP4 CALLDATACOPY ADD SWAP1 POP JUMPDEST POP SWAP1 POP DUP3 PUSH1 0x0 JUMPDEST PUSH1 0xB PUSH1 0x0 DUP4 PUSH2 0x291A DUP2 PUSH2 0x5C5D JUMP JUMPDEST SWAP5 POP DUP2 MSTORE PUSH1 0x20 ADD SWAP1 DUP2 MSTORE PUSH1 0x20 ADD PUSH1 0x0 KECCAK256 SLOAD DUP4 DUP3 DUP1 PUSH2 0x2937 SWAP1 PUSH2 0x5C5D JUMP JUMPDEST SWAP4 POP DUP2 MLOAD DUP2 LT PUSH2 0x2949 JUMPI PUSH2 0x2949 PUSH2 0x5C0A JUMP JUMPDEST PUSH1 0x20 MUL PUSH1 0x20 ADD ADD DUP2 DUP2 MSTORE POP POP DUP4 DUP3 LT PUSH2 0x290C JUMPI POP POP SWAP3 SWAP2 POP POP JUMP JUMPDEST PUSH1 0x1 PUSH1 0x1 PUSH1 0xA0 SHL SUB DUP4 AND PUSH2 0x29C6 JUMPI PUSH1 0x40 MLOAD PUSH3 0x461BCD PUSH1 0xE5 SHL DUP2 MSTORE PUSH1 0x20 PUSH1 0x4 DUP3 ADD MSTORE PUSH1 0x24 DUP1 DUP3 ADD MSTORE PUSH32 0x45524332303A20617070726F76652066726F6D20746865207A65726F20616464 PUSH1 0x44 DUP3 ADD MSTORE PUSH4 0x72657373 PUSH1 0xE0 SHL PUSH1 0x64 DUP3 ADD MSTORE PUSH1 0x84 ADD PUSH2 0xC56 JUMP JUMPDEST PUSH1 0x1 PUSH1 0x1 PUSH1 0xA0 SHL SUB DUP3 AND PUSH2 0x2A27 JUMPI PUSH1 0x40 MLOAD PUSH3 0x461BCD PUSH1 0xE5 SHL DUP2 MSTORE PUSH1 0x20 PUSH1 0x4 DUP3 ADD MSTORE PUSH1 0x22 PUSH1 0x24 DUP3 ADD MSTORE PUSH32 0x45524332303A20617070726F766520746F20746865207A65726F206164647265 PUSH1 0x44 DUP3 ADD MSTORE PUSH2 0x7373 PUSH1 0xF0 SHL PUSH1 0x64 DUP3 ADD MSTORE PUSH1 0x84 ADD PUSH2 0xC56 JUMP JUMPDEST PUSH1 0x1 PUSH1 0x1 PUSH1 0xA0 SHL SUB DUP4 DUP2 AND PUSH1 0x0 DUP2 DUP2 MSTORE PUSH1 0x1 PUSH1 0x20 SWAP1 DUP2 MSTORE PUSH1 0x40 DUP1 DUP4 KECCAK256 SWAP5 DUP8 AND DUP1 DUP5 MSTORE SWAP5 DUP3 MSTORE SWAP2 DUP3 SWAP1 KECCAK256 DUP6 SWAP1 SSTORE SWAP1 MLOAD DUP5 DUP2 MSTORE PUSH32 0x8C5BE1E5EBEC7D5BD14F71427D1E84F3DD0314C0F7B2291E5B200AC8C7C3B925 SWAP2 ADD PUSH1 0x40 MLOAD DUP1 SWAP2 SUB SWAP1 LOG3 POP POP POP JUMP JUMPDEST PUSH1 0x1 PUSH1 0x1 PUSH1 0xA0 SHL SUB DUP3 AND PUSH2 0x2ADE JUMPI PUSH1 0x40 MLOAD PUSH3 0x461BCD PUSH1 0xE5 SHL DUP2 MSTORE PUSH1 0x20 PUSH1 0x4 DUP3 ADD MSTORE PUSH1 0x1F PUSH1 0x24 DUP3 ADD MSTORE PUSH32 0x45524332303A206D696E7420746F20746865207A65726F206164647265737300 PUSH1 0x44 DUP3 ADD MSTORE PUSH1 0x64 ADD PUSH2 0xC56 JUMP JUMPDEST DUP1 PUSH1 0x2 PUSH1 0x0 DUP3 DUP3 SLOAD PUSH2 0x2AF0 SWAP2 SWAP1 PUSH2 0x5C33 JUMP JUMPDEST SWAP1 SWAP2 SSTORE POP POP PUSH1 0x1 PUSH1 0x1 PUSH1 0xA0 SHL SUB DUP3 AND PUSH1 0x0 DUP2 DUP2 MSTORE PUSH1 0x20 DUP2 DUP2 MSTORE PUSH1 0x40 DUP1 DUP4 KECCAK256 DUP1 SLOAD DUP7 ADD SWAP1 SSTORE MLOAD DUP5 DUP2 MSTORE PUSH32 0xDDF252AD1BE2C89B69C2B068FC378DAA952BA7F163C4A11628F55A4DF523B3EF SWAP2 ADD PUSH1 0x40 MLOAD DUP1 SWAP2 SUB SWAP1 LOG3 POP POP JUMP JUMPDEST PUSH1 0x0 PUSH2 0x2B53 DUP5 DUP5 PUSH2 0x26C8 JUMP JUMPDEST SWAP1 POP PUSH1 0x0 NOT DUP2 EQ PUSH2 0x13DD JUMPI DUP2 DUP2 LT ISZERO PUSH2 0x2BAE JUMPI PUSH1 0x40 MLOAD PUSH3 0x461BCD PUSH1 0xE5 SHL DUP2 MSTORE PUSH1 0x20 PUSH1 0x4 DUP3 ADD MSTORE PUSH1 0x1D PUSH1 0x24 DUP3 ADD MSTORE PUSH32 0x45524332303A20696E73756666696369656E7420616C6C6F77616E6365000000 PUSH1 0x44 DUP3 ADD MSTORE PUSH1 0x64 ADD PUSH2 0xC56 JUMP JUMPDEST PUSH2 0x13DD DUP5 DUP5 DUP5 DUP5 SUB PUSH2 0x2964 JUMP JUMPDEST PUSH1 0x1 PUSH1 0x1 PUSH1 0xA0 SHL SUB DUP4 AND PUSH2 0x2C1F JUMPI PUSH1 0x40 MLOAD PUSH3 0x461BCD PUSH1 0xE5 SHL DUP2 MSTORE PUSH1 0x20 PUSH1 0x4 DUP3 ADD MSTORE PUSH1 0x25 PUSH1 0x24 DUP3 ADD MSTORE PUSH32 0x45524332303A207472616E736665722066726F6D20746865207A65726F206164 PUSH1 0x44 DUP3 ADD MSTORE PUSH5 0x6472657373 PUSH1 0xD8 SHL PUSH1 0x64 DUP3 ADD MSTORE PUSH1 0x84 ADD PUSH2 0xC56 JUMP JUMPDEST PUSH1 0x1 PUSH1 0x1 PUSH1 0xA0 SHL SUB DUP3 AND PUSH2 0x2C81 JUMPI PUSH1 0x40 MLOAD PUSH3 0x461BCD PUSH1 0xE5 SHL DUP2 MSTORE PUSH1 0x20 PUSH1 0x4 DUP3 ADD MSTORE PUSH1 0x23 PUSH1 0x24 DUP3 ADD MSTORE PUSH32 0x45524332303A207472616E7366657220746F20746865207A65726F2061646472 PUSH1 0x44 DUP3 ADD MSTORE PUSH3 0x657373 PUSH1 0xE8 SHL PUSH1 0x64 DUP3 ADD MSTORE PUSH1 0x84 ADD PUSH2 0xC56 JUMP JUMPDEST PUSH1 0x1 PUSH1 0x1 PUSH1 0xA0 SHL SUB DUP4 AND PUSH1 0x0 SWAP1 DUP2 MSTORE PUSH1 0x20 DUP2 SWAP1 MSTORE PUSH1 0x40 SWAP1 KECCAK256 SLOAD DUP2 DUP2 LT ISZERO PUSH2 0x2CF9 JUMPI PUSH1 0x40 MLOAD PUSH3 0x461BCD PUSH1 0xE5 SHL DUP2 MSTORE PUSH1 0x20 PUSH1 0x4 DUP3 ADD MSTORE PUSH1 0x26 PUSH1 0x24 DUP3 ADD MSTORE PUSH32 0x45524332303A207472616E7366657220616D6F756E7420657863656564732062 PUSH1 0x44 DUP3 ADD MSTORE PUSH6 0x616C616E6365 PUSH1 0xD0 SHL PUSH1 0x64 DUP3 ADD MSTORE PUSH1 0x84 ADD PUSH2 0xC56 JUMP JUMPDEST PUSH1 0x1 PUSH1 0x1 PUSH1 0xA0 SHL SUB DUP5 DUP2 AND PUSH1 0x0 DUP2 DUP2 MSTORE PUSH1 0x20 DUP2 DUP2 MSTORE PUSH1 0x40 DUP1 DUP4 KECCAK256 DUP8 DUP8 SUB SWAP1 SSTORE SWAP4 DUP8 AND DUP1 DUP4 MSTORE SWAP2 DUP5 SWAP1 KECCAK256 DUP1 SLOAD DUP8 ADD SWAP1 SSTORE SWAP3 MLOAD DUP6 DUP2 MSTORE SWAP1 SWAP3 PUSH32 0xDDF252AD1BE2C89B69C2B068FC378DAA952BA7F163C4A11628F55A4DF523B3EF SWAP2 ADD PUSH1 0x40 MLOAD DUP1 SWAP2 SUB SWAP1 LOG3 PUSH2 0x13DD JUMP JUMPDEST PUSH1 0x0 PUSH2 0xCB8 DUP3 PUSH32 0x4E831ACB4223B66DE3B3D2E54A2EDEEFB0DE3D7916E2886A4B134D9764D41BEC DUP6 PUSH2 0x4121 JUMP JUMPDEST PUSH1 0x0 PUSH1 0x3 PUSH1 0x2 DUP4 PUSH1 0x40 MLOAD PUSH2 0x2DA0 SWAP2 SWAP1 PUSH2 0x5CDF JUMP JUMPDEST PUSH1 0x20 PUSH1 0x40 MLOAD DUP1 DUP4 SUB DUP2 DUP6 GAS STATICCALL ISZERO DUP1 ISZERO PUSH2 0x2DBD JUMPI RETURNDATASIZE PUSH1 0x0 DUP1 RETURNDATACOPY RETURNDATASIZE PUSH1 0x0 REVERT JUMPDEST POP POP POP PUSH1 0x40 MLOAD RETURNDATASIZE PUSH1 0x1F NOT PUSH1 0x1F DUP3 ADD AND DUP3 ADD DUP1 PUSH1 0x40 MSTORE POP DUP2 ADD SWAP1 PUSH2 0x2DE0 SWAP2 SWAP1 PUSH2 0x5CFB JUMP JUMPDEST PUSH1 0x40 MLOAD PUSH1 0x20 ADD PUSH2 0x2DF2 SWAP2 DUP2 MSTORE PUSH1 0x20 ADD SWAP1 JUMP JUMPDEST PUSH1 0x40 DUP1 MLOAD PUSH1 0x1F NOT DUP2 DUP5 SUB ADD DUP2 MSTORE SWAP1 DUP3 SWAP1 MSTORE PUSH2 0x2E0C SWAP2 PUSH2 0x5CDF JUMP JUMPDEST PUSH1 0x20 PUSH1 0x40 MLOAD DUP1 DUP4 SUB DUP2 DUP6 GAS STATICCALL ISZERO DUP1 ISZERO PUSH2 0x2E29 JUMPI RETURNDATASIZE PUSH1 0x0 DUP1 RETURNDATACOPY RETURNDATASIZE PUSH1 0x0 REVERT JUMPDEST POP POP PUSH1 0x40 MLOAD MLOAD PUSH1 0x60 SHL SWAP4 SWAP3 POP POP POP JUMP JUMPDEST PUSH1 0x6 SLOAD PUSH1 0x1 PUSH1 0x1 PUSH1 0x48 SHL SUB DUP1 DUP3 AND DUP5 MSTORE PUSH1 0x1 PUSH1 0x48 SHL DUP3 DIV DUP2 AND PUSH1 0x20 DUP6 ADD MSTORE PUSH5 0xFFFFFFFFFF PUSH1 0x1 PUSH1 0x90 SHL DUP4 DIV DUP2 AND PUSH1 0x40 DUP7 ADD MSTORE PUSH1 0x1 PUSH1 0xB8 SHL SWAP1 SWAP3 DIV DUP2 AND PUSH1 0x60 DUP6 ADD MSTORE PUSH1 0x7 SLOAD PUSH2 0xFFFF DUP2 AND PUSH1 0x80 DUP7 ADD MSTORE PUSH3 0x10000 DUP2 DIV SWAP1 SWAP2 AND PUSH1 0xA0 DUP6 ADD MSTORE PUSH1 0x1 PUSH1 0x58 SHL DUP2 DIV SWAP1 SWAP2 AND PUSH1 0xC0 DUP5 ADD MSTORE PUSH2 0x2EBE SWAP1 PUSH1 0x1 PUSH1 0x1 PUSH1 0x80 SHL SUB PUSH1 0x1 PUSH1 0x80 SHL SWAP1 SWAP2 DIV AND PUSH2 0x40B4 JUMP JUMPDEST PUSH1 0xE0 DUP6 ADD MSTORE PUSH2 0x100 DUP5 ADD MSTORE PUSH2 0x120 DUP4 ADD MSTORE PUSH2 0x2ED7 PUSH2 0x35D6 JUMP JUMPDEST PUSH2 0x140 DUP4 ADD MSTORE PUSH2 0x1703 DUP3 DUP3 PUSH2 0x4137 JUMP JUMPDEST DUP3 SLOAD PUSH5 0xFFFFFFFFFF DUP4 DUP2 AND SWAP2 AND EQ PUSH2 0x2F41 JUMPI PUSH1 0x40 MLOAD PUSH3 0x461BCD PUSH1 0xE5 SHL DUP2 MSTORE PUSH1 0x20 PUSH1 0x4 DUP3 ADD MSTORE PUSH1 0x1F PUSH1 0x24 DUP3 ADD MSTORE PUSH32 0x4D594E543A207374616B654964506172616D206E6F7420696E207374616B6500 PUSH1 0x44 DUP3 ADD MSTORE PUSH1 0x64 ADD PUSH2 0xC56 JUMP JUMPDEST SWAP2 SLOAD PUSH5 0xFFFFFFFFFF DUP2 AND DUP4 MSTORE PUSH1 0x1 PUSH1 0x1 PUSH1 0x48 SHL SUB PUSH1 0x1 PUSH1 0x28 SHL DUP3 DIV DUP2 AND PUSH1 0x20 DUP6 ADD MSTORE PUSH1 0x1 PUSH1 0x70 SHL DUP3 DIV AND PUSH1 0x40 DUP5 ADD MSTORE PUSH2 0xFFFF PUSH1 0x1 PUSH1 0xB8 SHL DUP3 DIV DUP2 AND PUSH1 0x60 DUP6 ADD MSTORE PUSH1 0x1 PUSH1 0xC8 SHL DUP3 DIV DUP2 AND PUSH1 0x80 DUP6 ADD MSTORE PUSH1 0x1 PUSH1 0xD8 SHL DUP3 DIV AND PUSH1 0xA0 DUP5 ADD MSTORE PUSH1 0xFF PUSH1 0x1 PUSH1 0xE8 SHL SWAP1 SWAP2 DIV AND ISZERO ISZERO PUSH1 0xC0 SWAP1 SWAP3 ADD SWAP2 SWAP1 SWAP2 MSTORE POP JUMP JUMPDEST PUSH2 0x2FC6 DUP2 DUP3 PUSH2 0x140 ADD MLOAD PUSH1 0x1 PUSH2 0x3C18 JUMP JUMPDEST POP JUMP JUMPDEST DUP1 PUSH1 0x40 ADD MLOAD DUP3 PUSH1 0xA0 ADD DUP2 DUP2 MLOAD PUSH2 0x2FDF SWAP2 SWAP1 PUSH2 0x5C20 JUMP JUMPDEST SWAP1 MSTORE POP PUSH2 0x140 SWAP1 SWAP2 ADD MLOAD PUSH1 0xA0 SWAP1 SWAP2 ADD MSTORE JUMP JUMPDEST PUSH1 0x0 DUP1 PUSH1 0x0 DUP1 DUP6 PUSH1 0x80 ADD MLOAD DUP6 LT ISZERO PUSH2 0x3038 JUMPI PUSH2 0x301C DUP8 DUP8 PUSH1 0x60 ADD MLOAD DUP9 PUSH1 0x80 ADD MLOAD DUP9 DUP11 PUSH1 0x40 ADD MLOAD PUSH2 0x419F JUMP JUMPDEST PUSH1 0x20 DUP9 ADD MLOAD SWAP2 SWAP5 POP SWAP3 POP PUSH2 0x3031 SWAP1 DUP5 SWAP1 PUSH2 0x5C33 JUMP JUMPDEST SWAP4 POP PUSH2 0x3086 JUMP JUMPDEST PUSH1 0x40 DUP7 ADD MLOAD PUSH1 0x60 DUP8 ADD MLOAD PUSH2 0x3057 SWAP2 DUP10 SWAP2 PUSH2 0x3052 DUP10 DUP3 PUSH2 0x5C33 JUMP JUMPDEST PUSH2 0x428D JUMP JUMPDEST SWAP3 POP DUP3 DUP7 PUSH1 0x20 ADD MLOAD PUSH2 0x3069 SWAP2 SWAP1 PUSH2 0x5C33 JUMP JUMPDEST SWAP4 POP PUSH2 0x3083 DUP7 PUSH1 0x60 ADD MLOAD DUP8 PUSH1 0x80 ADD MLOAD DUP9 PUSH1 0xA0 ADD MLOAD DUP8 PUSH2 0x43F9 JUMP JUMPDEST SWAP2 POP JUMPDEST DUP2 ISZERO PUSH2 0x30AC JUMPI DUP4 DUP3 GT ISZERO PUSH2 0x309D JUMPI POP PUSH1 0x0 SWAP3 PUSH2 0x30AC JUMP JUMPDEST POP DUP1 PUSH2 0x30A9 DUP2 DUP6 PUSH2 0x5C20 JUMP JUMPDEST SWAP4 POP JUMPDEST SWAP4 POP SWAP4 POP SWAP4 POP SWAP4 JUMP JUMPDEST DUP7 PUSH5 0xFFFFFFFFFF AND CALLER PUSH1 0x1 PUSH1 0x1 PUSH1 0xA0 SHL SUB AND PUSH32 0x72D9C5A7AB13846E08D9C838F9E866A1BB4A66A2FD3BA3C9E7DA3CF9E394DFD7 PUSH1 0xB8 DUP8 PUSH1 0x1 PUSH1 0x1 PUSH1 0x48 SHL SUB AND SWAP1 SHL PUSH1 0x70 DUP10 PUSH1 0x1 PUSH1 0x1 PUSH1 0x48 SHL SUB AND SWAP1 SHL PUSH1 0x28 DUP12 PUSH1 0x1 PUSH1 0x1 PUSH1 0x48 SHL SUB AND SWAP1 SHL TIMESTAMP PUSH5 0xFFFFFFFFFF AND OR OR OR DUP5 PUSH2 0x3129 JUMPI PUSH1 0x0 PUSH2 0x312F JUMP JUMPDEST PUSH1 0x1 PUSH1 0x58 SHL JUMPDEST PUSH1 0x1 PUSH1 0x1 PUSH1 0x60 SHL SUB AND PUSH1 0x48 DUP8 PUSH2 0xFFFF AND SWAP1 SHL DUP9 PUSH1 0x1 PUSH1 0x1 PUSH1 0x48 SHL SUB AND OR OR PUSH1 0x40 MLOAD PUSH2 0x3164 SWAP3 SWAP2 SWAP1 SWAP2 DUP3 MSTORE PUSH1 0x20 DUP3 ADD MSTORE PUSH1 0x40 ADD SWAP1 JUMP JUMPDEST PUSH1 0x40 MLOAD DUP1 SWAP2 SUB SWAP1 LOG3 POP POP POP POP POP POP POP JUMP JUMPDEST PUSH1 0x0 PUSH2 0x3182 PUSH1 0x2 DUP4 PUSH2 0x5BD1 JUMP JUMPDEST SWAP1 POP DUP1 ISZERO PUSH2 0x31A8 JUMPI PUSH2 0x31A8 PUSH20 0x9A6A414D6F3497C05E3B1DE90520765FA1E07C03 DUP3 PUSH2 0x2A88 JUMP JUMPDEST PUSH2 0x31B2 DUP2 DUP4 PUSH2 0x5C20 JUMP JUMPDEST SWAP1 POP DUP1 DUP4 PUSH1 0x60 ADD DUP2 DUP2 MLOAD PUSH2 0x31C6 SWAP2 SWAP1 PUSH2 0x5C33 JUMP JUMPDEST SWAP1 MSTORE POP POP POP POP JUMP JUMPDEST DUP2 PUSH1 0x20 ADD MLOAD DUP2 GT ISZERO PUSH2 0xC69 JUMPI PUSH1 0x0 PUSH2 0x31EA DUP3 DUP5 PUSH1 0x80 ADD MLOAD PUSH2 0x4459 JUMP JUMPDEST SWAP1 POP PUSH1 0x0 DUP4 PUSH1 0x40 ADD MLOAD PUSH3 0x186A0 DUP4 DUP6 PUSH2 0x3203 SWAP2 SWAP1 PUSH2 0x5C33 JUMP JUMPDEST PUSH2 0x320D SWAP2 SWAP1 PUSH2 0x5BF3 JUMP JUMPDEST PUSH2 0x3217 SWAP2 SWAP1 PUSH2 0x5BD1 JUMP JUMPDEST SWAP1 POP PUSH2 0x3228 PUSH1 0x1 PUSH1 0x1 PUSH1 0x28 SHL PUSH2 0x5C20 JUMP JUMPDEST DUP2 GT ISZERO PUSH2 0x3241 JUMPI PUSH2 0x323E PUSH1 0x1 PUSH1 0x1 PUSH1 0x28 SHL PUSH2 0x5C20 JUMP JUMPDEST SWAP1 POP JUMPDEST DUP5 PUSH1 0x40 ADD MLOAD DUP2 GT ISZERO PUSH2 0x25A7 JUMPI PUSH1 0x40 DUP6 ADD DUP2 SWAP1 MSTORE DUP4 MLOAD PUSH2 0x25A7 SWAP1 DUP3 SWAP1 PUSH2 0x45C7 JUMP JUMPDEST DUP2 SLOAD PUSH1 0x0 SWAP1 PUSH2 0x3272 SWAP1 PUSH1 0x1 SWAP1 PUSH2 0x5C20 JUMP JUMPDEST SWAP1 POP DUP1 DUP3 EQ PUSH2 0x33BF JUMPI DUP3 DUP2 DUP2 SLOAD DUP2 LT PUSH2 0x328D JUMPI PUSH2 0x328D PUSH2 0x5C0A JUMP JUMPDEST SWAP1 PUSH1 0x0 MSTORE PUSH1 0x20 PUSH1 0x0 KECCAK256 ADD DUP4 DUP4 DUP2 SLOAD DUP2 LT PUSH2 0x32A9 JUMPI PUSH2 0x32A9 PUSH2 0x5C0A JUMP JUMPDEST PUSH1 0x0 SWAP2 DUP3 MSTORE PUSH1 0x20 SWAP1 SWAP2 KECCAK256 DUP3 SLOAD SWAP2 ADD DUP1 SLOAD PUSH5 0xFFFFFFFFFF NOT DUP2 AND PUSH5 0xFFFFFFFFFF SWAP1 SWAP4 AND SWAP3 DUP4 OR DUP3 SSTORE DUP4 SLOAD PUSH1 0x1 PUSH1 0x1 PUSH1 0x48 SHL SUB PUSH1 0x1 PUSH1 0x28 SHL SWAP2 DUP3 SWAP1 DIV DUP2 AND SWAP1 SWAP2 MUL PUSH1 0x1 PUSH1 0x1 PUSH1 0x70 SHL SUB NOT SWAP1 SWAP3 AND SWAP1 SWAP4 OR OR DUP1 DUP3 SSTORE DUP4 SLOAD PUSH1 0x1 PUSH1 0x70 SHL SWAP1 DUP2 SWAP1 DIV SWAP1 SWAP4 AND SWAP1 SWAP3 MUL PUSH9 0xFFFFFFFFFFFFFFFFFF PUSH1 0x70 SHL NOT DUP4 AND DUP2 OR DUP3 SSTORE DUP4 SLOAD PUSH2 0xFFFF PUSH1 0x1 PUSH1 0xB8 SHL SWAP2 DUP3 SWAP1 DIV DUP2 AND SWAP1 SWAP2 MUL PUSH2 0xFFFF PUSH1 0xB8 SHL NOT SWAP1 SWAP3 AND PUSH1 0x1 PUSH1 0x70 SHL PUSH1 0x1 PUSH1 0xC8 SHL SUB NOT SWAP1 SWAP5 AND SWAP4 SWAP1 SWAP4 OR OR DUP1 DUP3 SSTORE DUP4 SLOAD PUSH1 0x1 PUSH1 0xC8 SHL SWAP1 DUP2 SWAP1 DIV DUP5 AND MUL PUSH2 0xFFFF PUSH1 0xC8 SHL NOT DUP3 AND DUP2 OR DUP4 SSTORE DUP5 SLOAD PUSH1 0x1 PUSH1 0xD8 SHL SWAP1 DUP2 SWAP1 DIV SWAP1 SWAP5 AND SWAP1 SWAP4 MUL PUSH2 0xFFFF PUSH1 0xD8 SHL NOT SWAP1 SWAP4 AND PUSH4 0xFFFFFFFF PUSH1 0xC8 SHL NOT SWAP1 SWAP2 AND OR SWAP2 SWAP1 SWAP2 OR DUP1 DUP3 SSTORE SWAP2 SLOAD PUSH1 0xFF PUSH1 0x1 PUSH1 0xE8 SHL SWAP2 DUP3 SWAP1 DIV AND ISZERO ISZERO MUL PUSH1 0xFF PUSH1 0xE8 SHL NOT SWAP1 SWAP3 AND SWAP2 SWAP1 SWAP2 OR SWAP1 SSTORE JUMPDEST DUP3 DUP1 SLOAD DUP1 PUSH2 0x33CF JUMPI PUSH2 0x33CF PUSH2 0x5D14 JUMP JUMPDEST PUSH1 0x0 DUP3 DUP2 MSTORE PUSH1 0x20 SWAP1 KECCAK256 DUP2 ADD PUSH1 0x0 NOT SWAP1 DUP2 ADD DUP1 SLOAD PUSH1 0x1 PUSH1 0x1 PUSH1 0xF0 SHL SUB NOT AND SWAP1 SSTORE ADD SWAP1 SSTORE POP POP POP JUMP JUMPDEST DUP1 MLOAD DUP3 MLOAD EQ ISZERO DUP1 PUSH2 0x340F JUMPI POP DUP1 PUSH1 0x20 ADD MLOAD DUP3 PUSH1 0x20 ADD MLOAD EQ ISZERO JUMPDEST DUP1 PUSH2 0x3422 JUMPI POP DUP1 PUSH1 0x40 ADD MLOAD DUP3 PUSH1 0x40 ADD MLOAD EQ ISZERO JUMPDEST DUP1 PUSH2 0x3435 JUMPI POP DUP1 PUSH1 0x60 ADD MLOAD DUP3 PUSH1 0x60 ADD MLOAD EQ ISZERO JUMPDEST ISZERO PUSH2 0x34B8 JUMPI DUP2 MLOAD PUSH1 0x6 DUP1 SLOAD PUSH1 0x20 DUP6 ADD MLOAD PUSH1 0x40 DUP7 ADD MLOAD PUSH1 0x60 DUP8 ADD MLOAD PUSH1 0x1 PUSH1 0x1 PUSH1 0x48 SHL SUB SWAP1 DUP2 AND PUSH1 0x1 PUSH1 0xB8 SHL MUL PUSH1 0x1 PUSH1 0x1 PUSH1 0xB8 SHL SUB PUSH5 0xFFFFFFFFFF SWAP1 SWAP4 AND PUSH1 0x1 PUSH1 0x90 SHL MUL SWAP3 SWAP1 SWAP3 AND PUSH18 0xFFFFFFFFFFFFFFFFFFFFFFFFFFFFFFFFFFFF SWAP4 DUP3 AND PUSH1 0x1 PUSH1 0x48 SHL MUL PUSH1 0x1 PUSH1 0x1 PUSH1 0x90 SHL SUB NOT SWAP1 SWAP6 AND SWAP2 SWAP1 SWAP7 AND OR SWAP3 SWAP1 SWAP3 OR AND SWAP3 SWAP1 SWAP3 OR SWAP2 SWAP1 SWAP2 OR SWAP1 SSTORE JUMPDEST DUP1 PUSH1 0x80 ADD MLOAD DUP3 PUSH1 0x80 ADD MLOAD EQ ISZERO DUP1 PUSH2 0x34D7 JUMPI POP DUP1 PUSH1 0xA0 ADD MLOAD DUP3 PUSH1 0xA0 ADD MLOAD EQ ISZERO JUMPDEST DUP1 PUSH2 0x34F8 JUMPI POP DUP1 PUSH1 0xC0 ADD MLOAD PUSH5 0xFFFFFFFFFF AND DUP3 PUSH1 0xC0 ADD MLOAD PUSH5 0xFFFFFFFFFF AND EQ ISZERO JUMPDEST DUP1 PUSH2 0x350B JUMPI POP DUP1 PUSH1 0xE0 ADD MLOAD DUP3 PUSH1 0xE0 ADD MLOAD EQ ISZERO JUMPDEST DUP1 PUSH2 0x3520 JUMPI POP DUP1 PUSH2 0x100 ADD MLOAD DUP3 PUSH2 0x100 ADD MLOAD EQ ISZERO JUMPDEST DUP1 PUSH2 0x3535 JUMPI POP DUP1 PUSH2 0x120 ADD MLOAD DUP3 PUSH2 0x120 ADD MLOAD EQ ISZERO JUMPDEST ISZERO PUSH2 0x1703 JUMPI PUSH1 0x80 DUP3 ADD MLOAD PUSH1 0x7 DUP1 SLOAD PUSH1 0xA0 DUP6 ADD MLOAD PUSH1 0xC0 DUP7 ADD MLOAD PUSH5 0xFFFFFFFFFF AND PUSH1 0x1 PUSH1 0x58 SHL MUL PUSH5 0xFFFFFFFFFF PUSH1 0x58 SHL NOT PUSH1 0x1 PUSH1 0x1 PUSH1 0x48 SHL SUB SWAP1 SWAP3 AND PUSH3 0x10000 MUL PUSH11 0xFFFFFFFFFFFFFFFFFFFFFF NOT SWAP1 SWAP4 AND PUSH2 0xFFFF SWAP1 SWAP6 AND SWAP5 SWAP1 SWAP5 OR SWAP2 SWAP1 SWAP2 OR AND SWAP2 SWAP1 SWAP2 OR SWAP1 SSTORE PUSH2 0x120 DUP3 ADD MLOAD PUSH2 0x100 DUP4 ADD MLOAD PUSH1 0xE0 DUP5 ADD MLOAD PUSH2 0x35B5 SWAP3 SWAP2 SWAP1 PUSH2 0x4620 JUMP JUMPDEST PUSH1 0x7 DUP1 SLOAD PUSH1 0x1 PUSH1 0x1 PUSH1 0x80 SHL SUB SWAP3 DUP4 AND PUSH1 0x1 PUSH1 0x80 SHL MUL SWAP3 AND SWAP2 SWAP1 SWAP2 OR SWAP1 SSTORE POP POP JUMP JUMPDEST PUSH1 0x0 PUSH1 0x3C PUSH2 0x35E8 PUSH4 0x65645B8F TIMESTAMP PUSH2 0x5C20 JUMP JUMPDEST PUSH2 0x125B SWAP2 SWAP1 PUSH2 0x5BD1 JUMP JUMPDEST PUSH2 0x15B3 DUP3 GT ISZERO PUSH2 0x3654 JUMPI PUSH1 0x40 MLOAD PUSH3 0x461BCD PUSH1 0xE5 SHL DUP2 MSTORE PUSH1 0x20 PUSH1 0x4 DUP3 ADD MSTORE PUSH1 0x27 PUSH1 0x24 DUP3 ADD MSTORE PUSH32 0x4D594E543A206E65775374616B65644461797320686967686572207468616E20 PUSH1 0x44 DUP3 ADD MSTORE PUSH7 0x6D6178696D756D PUSH1 0xC8 SHL PUSH1 0x64 DUP3 ADD MSTORE PUSH1 0x84 ADD PUSH2 0xC56 JUMP JUMPDEST PUSH1 0x0 PUSH2 0x3660 DUP5 DUP5 PUSH2 0x4459 JUMP JUMPDEST SWAP1 POP PUSH1 0x0 DUP6 PUSH1 0x40 ADD MLOAD PUSH3 0x186A0 DUP4 DUP8 PUSH2 0x3679 SWAP2 SWAP1 PUSH2 0x5C33 JUMP JUMPDEST PUSH2 0x3683 SWAP2 SWAP1 PUSH2 0x5BF3 JUMP JUMPDEST PUSH2 0x368D SWAP2 SWAP1 PUSH2 0x5BD1 JUMP JUMPDEST SWAP1 POP DUP1 PUSH1 0x0 SUB PUSH2 0x3705 JUMPI PUSH1 0x40 MLOAD PUSH3 0x461BCD PUSH1 0xE5 SHL DUP2 MSTORE PUSH1 0x20 PUSH1 0x4 DUP3 ADD MSTORE PUSH1 0x38 PUSH1 0x24 DUP3 ADD MSTORE PUSH32 0x4D594E543A206E65775374616B6564486561727473206D757374206265206174 PUSH1 0x44 DUP3 ADD MSTORE PUSH32 0x206C65617374206D696E696D756D207368617265526174650000000000000000 PUSH1 0x64 DUP3 ADD MSTORE PUSH1 0x84 ADD PUSH2 0xC56 JUMP JUMPDEST PUSH1 0x0 PUSH1 0x1 DUP8 PUSH2 0x140 ADD MLOAD LT PUSH2 0x372A JUMPI PUSH2 0x140 DUP8 ADD MLOAD PUSH2 0x3725 SWAP1 PUSH1 0x1 PUSH2 0x5C33 JUMP JUMPDEST PUSH2 0x3735 JUMP JUMPDEST PUSH2 0x3735 PUSH1 0x1 DUP1 PUSH2 0x5C33 JUMP JUMPDEST SWAP1 POP PUSH1 0x0 DUP8 PUSH1 0xC0 ADD DUP1 MLOAD PUSH2 0x3748 SWAP1 PUSH2 0x5CBB JUMP JUMPDEST PUSH5 0xFFFFFFFFFF AND SWAP1 DUP2 SWAP1 MSTORE CALLER PUSH1 0x0 SWAP1 DUP2 MSTORE PUSH1 0xA PUSH1 0x20 MSTORE PUSH1 0x40 SWAP1 KECCAK256 SWAP1 SWAP2 POP PUSH2 0x3887 SWAP1 DUP3 DUP10 DUP7 DUP7 DUP12 DUP12 PUSH1 0x40 DUP1 MLOAD PUSH1 0xE0 DUP2 ADD DUP3 MSTORE PUSH5 0xFFFFFFFFFF SWAP8 DUP9 AND DUP2 MSTORE PUSH1 0x1 PUSH1 0x1 PUSH1 0x48 SHL SUB SWAP7 DUP8 AND PUSH1 0x20 DUP1 DUP4 ADD SWAP2 DUP3 MSTORE SWAP7 DUP9 AND SWAP3 DUP3 ADD SWAP3 DUP4 MSTORE PUSH2 0xFFFF SWAP6 DUP7 AND PUSH1 0x60 DUP4 ADD SWAP1 DUP2 MSTORE SWAP5 DUP7 AND PUSH1 0x80 DUP4 ADD SWAP1 DUP2 MSTORE PUSH1 0x0 PUSH1 0xA0 DUP5 ADD DUP2 DUP2 MSTORE SWAP6 ISZERO ISZERO PUSH1 0xC0 DUP6 ADD SWAP1 DUP2 MSTORE DUP13 SLOAD PUSH1 0x1 DUP2 ADD DUP15 SSTORE SWAP13 DUP3 MSTORE SWAP9 SWAP1 KECCAK256 SWAP3 MLOAD SWAP3 SWAP1 SWAP11 ADD DUP1 SLOAD SWAP2 MLOAD SWAP4 MLOAD SWAP6 MLOAD SWAP11 MLOAD SWAP5 MLOAD SWAP8 MLOAD ISZERO ISZERO PUSH1 0x1 PUSH1 0xE8 SHL MUL PUSH1 0xFF PUSH1 0xE8 SHL NOT SWAP9 DUP9 AND PUSH1 0x1 PUSH1 0xD8 SHL MUL PUSH2 0xFFFF PUSH1 0xD8 SHL NOT SWAP7 DUP10 AND PUSH1 0x1 PUSH1 0xC8 SHL MUL SWAP7 SWAP1 SWAP7 AND PUSH4 0xFFFFFFFF PUSH1 0xC8 SHL NOT SWAP13 SWAP1 SWAP9 AND PUSH1 0x1 PUSH1 0xB8 SHL MUL PUSH2 0xFFFF PUSH1 0xB8 SHL NOT SWAP8 DUP12 AND PUSH1 0x1 PUSH1 0x70 SHL MUL SWAP8 SWAP1 SWAP8 AND PUSH1 0x1 PUSH1 0x70 SHL PUSH1 0x1 PUSH1 0xC8 SHL SUB NOT SWAP6 SWAP1 SWAP11 AND PUSH1 0x1 PUSH1 0x28 SHL MUL PUSH1 0x1 PUSH1 0x1 PUSH1 0x70 SHL SUB NOT SWAP1 SWAP4 AND SWAP4 SWAP1 SWAP11 AND SWAP3 SWAP1 SWAP3 OR OR SWAP2 SWAP1 SWAP2 AND SWAP6 SWAP1 SWAP6 OR SWAP2 SWAP1 SWAP2 OR SWAP6 SWAP1 SWAP6 AND OR SWAP4 SWAP1 SWAP4 OR SWAP3 SWAP1 SWAP3 AND OR SWAP1 SSTORE JUMP JUMPDEST PUSH2 0x3894 DUP2 DUP9 DUP6 DUP10 DUP10 PUSH2 0x4644 JUMP JUMPDEST DUP3 DUP9 PUSH1 0x20 ADD DUP2 DUP2 MLOAD PUSH2 0x38A6 SWAP2 SWAP1 PUSH2 0x5C33 JUMP JUMPDEST SWAP1 MSTORE POP DUP8 MLOAD DUP8 SWAP1 DUP10 SWAP1 PUSH2 0x38BA SWAP1 DUP4 SWAP1 PUSH2 0x5C33 JUMP JUMPDEST SWAP1 MSTORE POP POP POP POP POP POP POP POP POP JUMP JUMPDEST PUSH1 0x1 PUSH1 0x1 PUSH1 0xA0 SHL SUB DUP3 AND PUSH2 0x3927 JUMPI PUSH1 0x40 MLOAD PUSH3 0x461BCD PUSH1 0xE5 SHL DUP2 MSTORE PUSH1 0x20 PUSH1 0x4 DUP3 ADD MSTORE PUSH1 0x21 PUSH1 0x24 DUP3 ADD MSTORE PUSH32 0x45524332303A206275726E2066726F6D20746865207A65726F20616464726573 PUSH1 0x44 DUP3 ADD MSTORE PUSH1 0x73 PUSH1 0xF8 SHL PUSH1 0x64 DUP3 ADD MSTORE PUSH1 0x84 ADD PUSH2 0xC56 JUMP JUMPDEST PUSH1 0x1 PUSH1 0x1 PUSH1 0xA0 SHL SUB DUP3 AND PUSH1 0x0 SWAP1 DUP2 MSTORE PUSH1 0x20 DUP2 SWAP1 MSTORE PUSH1 0x40 SWAP1 KECCAK256 SLOAD DUP2 DUP2 LT ISZERO PUSH2 0x399B JUMPI PUSH1 0x40 MLOAD PUSH3 0x461BCD PUSH1 0xE5 SHL DUP2 MSTORE PUSH1 0x20 PUSH1 0x4 DUP3 ADD MSTORE PUSH1 0x22 PUSH1 0x24 DUP3 ADD MSTORE PUSH32 0x45524332303A206275726E20616D6F756E7420657863656564732062616C616E PUSH1 0x44 DUP3 ADD MSTORE PUSH2 0x6365 PUSH1 0xF0 SHL PUSH1 0x64 DUP3 ADD MSTORE PUSH1 0x84 ADD PUSH2 0xC56 JUMP JUMPDEST PUSH1 0x1 PUSH1 0x1 PUSH1 0xA0 SHL SUB DUP4 AND PUSH1 0x0 DUP2 DUP2 MSTORE PUSH1 0x20 DUP2 DUP2 MSTORE PUSH1 0x40 DUP1 DUP4 KECCAK256 DUP7 DUP7 SUB SWAP1 SSTORE PUSH1 0x2 DUP1 SLOAD DUP8 SWAP1 SUB SWAP1 SSTORE MLOAD DUP6 DUP2 MSTORE SWAP2 SWAP3 SWAP2 PUSH32 0xDDF252AD1BE2C89B69C2B068FC378DAA952BA7F163C4A11628F55A4DF523B3EF SWAP2 ADD PUSH1 0x40 MLOAD DUP1 SWAP2 SUB SWAP1 LOG3 POP POP POP JUMP JUMPDEST PUSH1 0x40 DUP1 MLOAD TIMESTAMP PUSH5 0xFFFFFFFFFF SWAP1 DUP2 AND PUSH14 0xFFFFFFFFFFFFFFFFFF0000000000 PUSH1 0x28 DUP10 SWAP1 SHL AND OR PUSH9 0xFFFFFFFFFFFFFFFFFF PUSH1 0x70 SHL PUSH1 0x70 DUP9 SWAP1 SHL AND OR PUSH1 0x1 PUSH1 0x1 PUSH1 0xB8 SHL SUB NOT PUSH1 0xB8 DUP8 SWAP1 SHL AND OR DUP3 MSTORE PUSH1 0x1 PUSH1 0x1 PUSH1 0x48 SHL SUB DUP5 AND PUSH1 0x20 DUP4 ADD MSTORE CALLER SWAP3 SWAP1 DUP9 AND SWAP2 PUSH1 0x1 PUSH1 0x1 PUSH1 0xA0 SHL SUB DUP11 AND SWAP2 PUSH32 0xD824970A2CF19CC2B630C87CE5B00F67301CAC3AC60513D027C7A39129F93B46 SWAP2 ADD PUSH1 0x40 MLOAD DUP1 SWAP2 SUB SWAP1 LOG4 POP POP POP POP POP POP JUMP JUMPDEST PUSH2 0x1703 DUP3 DUP3 PUSH1 0x40 MLOAD PUSH1 0x24 ADD PUSH2 0x3AAC SWAP3 SWAP2 SWAP1 PUSH2 0x5D2A JUMP JUMPDEST PUSH1 0x40 DUP1 MLOAD PUSH1 0x1F NOT DUP2 DUP5 SUB ADD DUP2 MSTORE SWAP2 SWAP1 MSTORE PUSH1 0x20 DUP2 ADD DUP1 MLOAD PUSH1 0x1 PUSH1 0x1 PUSH1 0xE0 SHL SUB AND PUSH4 0x2D839CB3 PUSH1 0xE2 SHL OR SWAP1 MSTORE PUSH2 0x46D8 JUMP JUMPDEST PUSH1 0x0 PUSH1 0x2D PUSH1 0x1 PUSH2 0x3AEC DUP3 PUSH1 0x60 PUSH2 0x5C20 JUMP JUMPDEST PUSH1 0x1 SWAP1 SHL PUSH2 0x3AFA SWAP2 SWAP1 PUSH2 0x5C20 JUMP JUMPDEST SWAP1 SHL DUP3 PUSH1 0x0 DUP2 MLOAD DUP2 LT PUSH2 0x3B0F JUMPI PUSH2 0x3B0F PUSH2 0x5C0A JUMP JUMPDEST PUSH1 0x20 MUL PUSH1 0x20 ADD ADD MLOAD PUSH1 0x0 SHR AND PUSH1 0x0 EQ PUSH2 0x3B60 JUMPI PUSH1 0x40 MLOAD PUSH3 0x461BCD PUSH1 0xE5 SHL DUP2 MSTORE PUSH1 0x20 PUSH1 0x4 DUP3 ADD MSTORE PUSH1 0x13 PUSH1 0x24 DUP3 ADD MSTORE PUSH19 0x135653950E881C1C9BDBD9881A5B9D985B1A59 PUSH1 0x6A SHL PUSH1 0x44 DUP3 ADD MSTORE PUSH1 0x64 ADD PUSH2 0xC56 JUMP JUMPDEST PUSH1 0x1 JUMPDEST DUP3 MLOAD DUP2 LT ISZERO PUSH2 0x3C00 JUMPI PUSH1 0x2D PUSH1 0x1 PUSH2 0x3B7B DUP3 PUSH1 0x60 PUSH2 0x5C20 JUMP JUMPDEST PUSH1 0x1 SWAP1 SHL PUSH2 0x3B89 SWAP2 SWAP1 PUSH2 0x5C20 JUMP JUMPDEST SWAP1 SHL DUP4 DUP3 DUP2 MLOAD DUP2 LT PUSH2 0x3B9D JUMPI PUSH2 0x3B9D PUSH2 0x5C0A JUMP JUMPDEST PUSH1 0x20 MUL PUSH1 0x20 ADD ADD MLOAD PUSH1 0x0 SHR AND PUSH1 0x0 SUB PUSH2 0x3BEE JUMPI PUSH1 0x40 MLOAD PUSH3 0x461BCD PUSH1 0xE5 SHL DUP2 MSTORE PUSH1 0x20 PUSH1 0x4 DUP3 ADD MSTORE PUSH1 0x13 PUSH1 0x24 DUP3 ADD MSTORE PUSH19 0x135653950E881C1C9BDBD9881A5B9D985B1A59 PUSH1 0x6A SHL PUSH1 0x44 DUP3 ADD MSTORE PUSH1 0x64 ADD PUSH2 0xC56 JUMP JUMPDEST DUP1 PUSH2 0x3BF8 DUP2 PUSH2 0x5C5D JUMP JUMPDEST SWAP2 POP POP PUSH2 0x3B63 JUMP JUMPDEST POP PUSH1 0x1 PUSH1 0x1 PUSH1 0x60 SHL SUB NOT DUP5 AND DUP4 OR PUSH2 0x2733 DUP2 DUP5 PUSH2 0x2D5F JUMP JUMPDEST DUP2 DUP4 PUSH1 0x80 ADD MLOAD LT PUSH2 0x3C28 JUMPI POP POP POP JUMP JUMPDEST PUSH2 0x3C4C PUSH1 0x40 MLOAD DUP1 PUSH1 0x60 ADD PUSH1 0x40 MSTORE DUP1 PUSH1 0x0 DUP2 MSTORE PUSH1 0x20 ADD PUSH1 0x0 DUP2 MSTORE PUSH1 0x20 ADD PUSH1 0x0 DUP2 MSTORE POP SWAP1 JUMP JUMPDEST DUP4 MLOAD PUSH1 0x2 SLOAD PUSH2 0x3C5B SWAP2 SWAP1 PUSH2 0x5C33 JUMP JUMPDEST DUP2 MSTORE PUSH1 0x80 DUP5 ADD MLOAD PUSH2 0x3C6D DUP6 DUP4 DUP4 PUSH2 0x46E1 JUMP JUMPDEST PUSH1 0x20 DUP6 ADD MLOAD ISZERO PUSH2 0x3C98 JUMPI DUP5 PUSH1 0x20 ADD MLOAD DUP6 PUSH1 0xA0 ADD DUP2 DUP2 MLOAD PUSH2 0x3C8D SWAP2 SWAP1 PUSH2 0x5C33 JUMP JUMPDEST SWAP1 MSTORE POP PUSH1 0x0 PUSH1 0x20 DUP7 ADD MSTORE JUMPDEST DUP4 PUSH2 0x3CA2 DUP3 PUSH2 0x5C5D JUMP JUMPDEST SWAP2 POP DUP2 LT ISZERO PUSH2 0x3CBB JUMPI PUSH2 0x3CB6 DUP6 DUP4 DUP4 PUSH2 0x46E1 JUMP JUMPDEST PUSH2 0x3C98 JUMP JUMPDEST PUSH2 0x3CCA DUP6 PUSH1 0x80 ADD MLOAD DUP3 DUP6 PUSH2 0x4759 JUMP JUMPDEST PUSH1 0x80 DUP6 ADD DUP2 SWAP1 MSTORE PUSH1 0x20 DUP3 ADD MLOAD ISZERO PUSH2 0x25A7 JUMPI PUSH2 0x25A7 PUSH20 0x9A6A414D6F3497C05E3B1DE90520765FA1E07C03 DUP4 PUSH1 0x20 ADD MLOAD PUSH2 0x2A88 JUMP JUMPDEST PUSH1 0x0 PUSH2 0x3D07 PUSH2 0x5345 JUMP JUMPDEST PUSH2 0x3D0F PUSH2 0x5345 JUMP JUMPDEST PUSH2 0x3D19 DUP3 DUP3 PUSH2 0x2E39 JUMP JUMPDEST PUSH2 0x3D28 DUP3 DUP11 DUP11 DUP11 DUP11 DUP11 DUP11 PUSH2 0x47D2 JUMP JUMPDEST SWAP3 POP PUSH2 0x3D34 DUP3 DUP3 PUSH2 0x33F6 JUMP JUMPDEST POP POP SWAP7 SWAP6 POP POP POP POP POP POP JUMP JUMPDEST DUP1 PUSH1 0x1 PUSH1 0x1 PUSH1 0xA0 SHL SUB AND DUP4 PUSH1 0x28 DUP7 SWAP1 SHL OR CALLER PUSH1 0x1 PUSH1 0x1 PUSH1 0xA0 SHL SUB AND PUSH32 0xA6B19FA7F41317A186E1D58E9D81F86A52F1102B6BCE10B4ECA83F37AAA58468 PUSH1 0x28 DUP7 PUSH1 0x1 PUSH1 0x1 PUSH1 0x48 SHL SUB AND SWAP1 SHL TIMESTAMP PUSH5 0xFFFFFFFFFF AND OR PUSH1 0x40 MLOAD PUSH2 0x3DA2 SWAP2 DUP2 MSTORE PUSH1 0x20 ADD SWAP1 JUMP JUMPDEST PUSH1 0x40 MLOAD DUP1 SWAP2 SUB SWAP1 LOG4 POP POP POP POP JUMP JUMPDEST DUP1 PUSH1 0x1 PUSH1 0x1 PUSH1 0xA0 SHL SUB AND DUP4 PUSH1 0x28 DUP7 SWAP1 SHL OR CALLER PUSH1 0x1 PUSH1 0x1 PUSH1 0xA0 SHL SUB AND PUSH32 0x25ECDB937D5C5CC78F0D18DFB1AC82C44086B5DC608380BA357D06C9868F0B1D PUSH1 0x28 DUP7 PUSH1 0x1 PUSH1 0x1 PUSH1 0x60 SHL SUB AND SWAP1 SHL TIMESTAMP PUSH5 0xFFFFFFFFFF AND OR PUSH1 0x40 MLOAD PUSH2 0x3DA2 SWAP2 DUP2 MSTORE PUSH1 0x20 ADD SWAP1 JUMP JUMPDEST PUSH1 0x60 PUSH1 0x0 PUSH1 0x1 DUP4 AND DUP2 SUB PUSH2 0x3E4E JUMPI PUSH1 0x40 MLOAD DUP1 PUSH1 0x40 ADD PUSH1 0x40 MSTORE DUP1 PUSH1 0x10 DUP2 MSTORE PUSH1 0x20 ADD PUSH16 0x86D8C2D2DABE9AB29CA8BEE8DEBE60F PUSH1 0x83 SHL DUP2 MSTORE POP PUSH2 0x3E85 JUMP JUMPDEST PUSH1 0x40 MLOAD DUP1 PUSH1 0x40 ADD PUSH1 0x40 MSTORE DUP1 PUSH1 0x17 DUP2 MSTORE PUSH1 0x20 ADD PUSH32 0x436C61696D5F426974636F696E4D594E545F746F5F3078000000000000000000 DUP2 MSTORE POP JUMPDEST SWAP1 POP PUSH1 0x10 DUP4 AND ISZERO PUSH1 0x0 PUSH2 0x3E98 DUP8 DUP4 PUSH2 0x494B JUMP JUMPDEST SWAP1 POP PUSH1 0x0 DUP7 SWAP1 SUB PUSH2 0x3F08 JUMPI PUSH1 0x18 PUSH24 0x2134BA31B7B4B71029B4B3B732B21026B2B9B9B0B3B29D05 PUSH1 0x41 SHL PUSH2 0x3ECD PUSH1 0x14 PUSH1 0x2 PUSH2 0x5D4C JUMP JUMPDEST DUP6 MLOAD PUSH2 0x3ED9 SWAP2 SWAP1 PUSH2 0x5D6F JUMP JUMPDEST DUP6 DUP5 PUSH1 0x40 MLOAD PUSH1 0x20 ADD PUSH2 0x3EEF SWAP6 SWAP5 SWAP4 SWAP3 SWAP2 SWAP1 PUSH2 0x5D88 JUMP JUMPDEST PUSH1 0x40 MLOAD PUSH1 0x20 DUP2 DUP4 SUB SUB DUP2 MSTORE SWAP1 PUSH1 0x40 MSTORE SWAP4 POP POP POP POP PUSH2 0xCB8 JUMP JUMPDEST PUSH1 0x0 PUSH2 0x3F16 PUSH1 0xC PUSH1 0x2 PUSH2 0x5D4C JUMP JUMPDEST PUSH1 0xFF AND PUSH8 0xFFFFFFFFFFFFFFFF DUP2 GT ISZERO PUSH2 0x3F31 JUMPI PUSH2 0x3F31 PUSH2 0x570F JUMP JUMPDEST PUSH1 0x40 MLOAD SWAP1 DUP1 DUP3 MSTORE DUP1 PUSH1 0x1F ADD PUSH1 0x1F NOT AND PUSH1 0x20 ADD DUP3 ADD PUSH1 0x40 MSTORE DUP1 ISZERO PUSH2 0x3F5B JUMPI PUSH1 0x20 DUP3 ADD DUP2 DUP1 CALLDATASIZE DUP4 CALLDATACOPY ADD SWAP1 POP JUMPDEST POP SWAP1 POP PUSH2 0x3F6A DUP2 DUP9 PUSH1 0xC PUSH2 0x4A3E JUMP JUMPDEST PUSH1 0x18 PUSH24 0x2134BA31B7B4B71029B4B3B732B21026B2B9B9B0B3B29D05 PUSH1 0x41 SHL PUSH2 0x3F94 PUSH1 0xC PUSH1 0x2 PUSH2 0x5D4C JUMP JUMPDEST PUSH2 0x3FA0 PUSH1 0x14 PUSH1 0x2 PUSH2 0x5D4C JUMP JUMPDEST DUP8 MLOAD PUSH2 0x3FAC SWAP2 SWAP1 PUSH2 0x5D6F JUMP JUMPDEST PUSH2 0x3FB7 SWAP1 PUSH1 0x1 PUSH2 0x5D6F JUMP JUMPDEST PUSH2 0x3FC1 SWAP2 SWAP1 PUSH2 0x5D6F JUMP JUMPDEST DUP7 DUP6 DUP6 PUSH1 0x40 MLOAD PUSH1 0x20 ADD PUSH2 0x3FD9 SWAP7 SWAP6 SWAP5 SWAP4 SWAP3 SWAP2 SWAP1 PUSH2 0x5DF0 JUMP JUMPDEST PUSH1 0x40 MLOAD PUSH1 0x20 DUP2 DUP4 SUB SUB DUP2 MSTORE SWAP1 PUSH1 0x40 MSTORE SWAP5 POP POP POP POP POP SWAP4 SWAP3 POP POP POP JUMP JUMPDEST PUSH1 0x0 PUSH1 0x2 DUP1 DUP4 PUSH1 0x40 MLOAD PUSH2 0x4008 SWAP2 SWAP1 PUSH2 0x5CDF JUMP JUMPDEST PUSH1 0x20 PUSH1 0x40 MLOAD DUP1 DUP4 SUB DUP2 DUP6 GAS STATICCALL ISZERO DUP1 ISZERO PUSH2 0x4025 JUMPI RETURNDATASIZE PUSH1 0x0 DUP1 RETURNDATACOPY RETURNDATASIZE PUSH1 0x0 REVERT JUMPDEST POP POP POP PUSH1 0x40 MLOAD RETURNDATASIZE PUSH1 0x1F NOT PUSH1 0x1F DUP3 ADD AND DUP3 ADD DUP1 PUSH1 0x40 MSTORE POP DUP2 ADD SWAP1 PUSH2 0x4048 SWAP2 SWAP1 PUSH2 0x5CFB JUMP JUMPDEST PUSH1 0x40 MLOAD PUSH1 0x20 ADD PUSH2 0x405A SWAP2 DUP2 MSTORE PUSH1 0x20 ADD SWAP1 JUMP JUMPDEST PUSH1 0x40 DUP1 MLOAD PUSH1 0x1F NOT DUP2 DUP5 SUB ADD DUP2 MSTORE SWAP1 DUP3 SWAP1 MSTORE PUSH2 0x4074 SWAP2 PUSH2 0x5CDF JUMP JUMPDEST PUSH1 0x20 PUSH1 0x40 MLOAD DUP1 DUP4 SUB DUP2 DUP6 GAS STATICCALL ISZERO DUP1 ISZERO PUSH2 0x4091 JUMPI RETURNDATASIZE PUSH1 0x0 DUP1 RETURNDATACOPY RETURNDATASIZE PUSH1 0x0 REVERT JUMPDEST POP POP POP PUSH1 0x40 MLOAD RETURNDATASIZE PUSH1 0x1F NOT PUSH1 0x1F DUP3 ADD AND DUP3 ADD DUP1 PUSH1 0x40 MSTORE POP DUP2 ADD SWAP1 PUSH2 0x1972 SWAP2 SWAP1 PUSH2 0x5CFB JUMP JUMPDEST PUSH1 0x0 DUP1 DUP1 PUSH2 0x40C4 PUSH1 0x33 PUSH1 0x2 PUSH2 0x5BF3 JUMP JUMPDEST PUSH1 0x1 PUSH1 0x1 PUSH1 0x80 SHL SUB DUP1 DUP7 AND SWAP1 SWAP2 SHR AND SWAP3 POP PUSH2 0x40E7 PUSH1 0x1 PUSH7 0x8000000000000 PUSH2 0x5C20 JUMP JUMPDEST PUSH1 0x33 DUP6 SWAP1 SHR AND PUSH10 0x1FFFFFFFFFFFFFFFFFFF AND SWAP2 POP PUSH2 0x410D PUSH1 0x1 PUSH7 0x8000000000000 PUSH2 0x5C20 JUMP JUMPDEST DUP5 PUSH1 0x1 PUSH1 0x1 PUSH1 0x80 SHL SUB AND AND SWAP1 POP SWAP2 SWAP4 SWAP1 SWAP3 POP JUMP JUMPDEST PUSH1 0x0 DUP3 PUSH2 0x412E DUP6 DUP5 PUSH2 0x4B39 JUMP JUMPDEST EQ SWAP5 SWAP4 POP POP POP POP JUMP JUMPDEST DUP2 MLOAD DUP2 MSTORE PUSH1 0x20 DUP1 DUP4 ADD MLOAD SWAP1 DUP3 ADD MSTORE PUSH1 0x40 DUP1 DUP4 ADD MLOAD SWAP1 DUP3 ADD MSTORE PUSH1 0x60 DUP1 DUP4 ADD MLOAD SWAP1 DUP3 ADD MSTORE PUSH1 0x80 DUP1 DUP4 ADD MLOAD SWAP1 DUP3 ADD MSTORE PUSH1 0xA0 DUP1 DUP4 ADD MLOAD SWAP1 DUP3 ADD MSTORE PUSH1 0xC0 DUP1 DUP4 ADD MLOAD PUSH5 0xFFFFFFFFFF AND SWAP1 DUP3 ADD MSTORE PUSH1 0xE0 DUP1 DUP4 ADD MLOAD SWAP1 DUP3 ADD MSTORE PUSH2 0x100 DUP1 DUP4 ADD MLOAD SWAP1 DUP3 ADD MSTORE PUSH2 0x120 SWAP2 DUP3 ADD MLOAD SWAP2 ADD MSTORE JUMP JUMPDEST PUSH1 0x0 DUP1 DUP1 PUSH2 0x41AD DUP6 DUP9 PUSH2 0x5C33 JUMP JUMPDEST SWAP1 POP PUSH1 0x0 PUSH1 0x2 PUSH2 0x41BE DUP9 PUSH1 0x1 PUSH2 0x5C33 JUMP JUMPDEST PUSH2 0x41C8 SWAP2 SWAP1 PUSH2 0x5BD1 JUMP JUMPDEST SWAP1 POP PUSH1 0x5A DUP2 LT ISZERO PUSH2 0x41D7 JUMPI POP PUSH1 0x5A JUMPDEST DUP6 PUSH1 0x0 SUB PUSH2 0x4202 JUMPI PUSH1 0x0 PUSH2 0x41EC DUP11 DUP8 DUP12 PUSH2 0x4B86 JUMP JUMPDEST SWAP1 POP PUSH2 0x41F8 DUP3 DUP3 PUSH2 0x5BF3 JUMP JUMPDEST SWAP4 POP POP POP POP PUSH2 0x4283 JUMP JUMPDEST DUP6 DUP2 LT ISZERO PUSH2 0x424B JUMPI PUSH1 0x0 PUSH2 0x4216 DUP3 DUP11 PUSH2 0x5C33 JUMP JUMPDEST SWAP1 POP PUSH2 0x4224 DUP11 DUP8 DUP12 DUP5 PUSH2 0x428D JUMP JUMPDEST SWAP4 POP PUSH1 0x0 PUSH2 0x4234 DUP12 DUP9 DUP5 DUP8 PUSH2 0x428D JUMP JUMPDEST SWAP1 POP PUSH2 0x4240 DUP2 DUP7 PUSH2 0x5C33 JUMP JUMPDEST SWAP6 POP POP POP POP POP PUSH2 0x4283 JUMP JUMPDEST PUSH2 0x4257 DUP10 DUP7 DUP11 DUP6 PUSH2 0x428D JUMP JUMPDEST SWAP4 POP DUP6 DUP2 SUB PUSH2 0x4268 JUMPI DUP4 SWAP3 POP PUSH2 0x4280 JUMP JUMPDEST DUP6 PUSH2 0x4273 DUP3 DUP7 PUSH2 0x5BF3 JUMP JUMPDEST PUSH2 0x427D SWAP2 SWAP1 PUSH2 0x5BD1 JUMP JUMPDEST SWAP3 POP JUMPDEST POP POP JUMPDEST SWAP6 POP SWAP6 SWAP4 POP POP POP POP JUMP JUMPDEST PUSH1 0x0 DUP3 JUMPDEST DUP3 DUP2 LT ISZERO PUSH2 0x42EE JUMPI PUSH1 0x0 DUP2 DUP2 MSTORE PUSH1 0x9 PUSH1 0x20 MSTORE PUSH1 0x40 SWAP1 KECCAK256 SLOAD PUSH1 0x1 PUSH1 0x1 PUSH1 0x48 SHL SUB PUSH1 0x1 PUSH1 0x48 SHL DUP3 DIV DUP2 AND SWAP2 PUSH2 0x42C6 SWAP2 DUP9 SWAP2 AND PUSH2 0x5BF3 JUMP JUMPDEST PUSH2 0x42D0 SWAP2 SWAP1 PUSH2 0x5BD1 JUMP JUMPDEST PUSH2 0x42DA SWAP1 DUP4 PUSH2 0x5C33 JUMP JUMPDEST SWAP2 POP DUP1 PUSH2 0x42E6 DUP2 PUSH2 0x5C5D JUMP JUMPDEST SWAP2 POP POP PUSH2 0x4291 JUMP JUMPDEST POP PUSH2 0x42FB PUSH1 0x32 PUSH1 0x7 PUSH2 0x5BF3 JUMP JUMPDEST PUSH2 0x4306 SWAP1 PUSH1 0x1 PUSH2 0x5C33 JUMP JUMPDEST PUSH2 0x4311 SWAP1 PUSH1 0x1 PUSH2 0x5C33 JUMP JUMPDEST DUP4 GT ISZERO DUP1 ISZERO PUSH2 0x4340 JUMPI POP PUSH2 0x4327 PUSH1 0x32 PUSH1 0x7 PUSH2 0x5BF3 JUMP JUMPDEST PUSH2 0x4332 SWAP1 PUSH1 0x1 PUSH2 0x5C33 JUMP JUMPDEST PUSH2 0x433D SWAP1 PUSH1 0x1 PUSH2 0x5C33 JUMP JUMPDEST DUP3 GT JUMPDEST ISZERO PUSH2 0xD7A JUMPI PUSH1 0x0 PUSH1 0x9 DUP2 PUSH2 0x4356 PUSH1 0x32 PUSH1 0x7 PUSH2 0x5BF3 JUMP JUMPDEST PUSH2 0x4361 SWAP1 PUSH1 0x1 PUSH2 0x5C33 JUMP JUMPDEST PUSH2 0x436C SWAP1 PUSH1 0x1 PUSH2 0x5C33 JUMP JUMPDEST DUP2 MSTORE PUSH1 0x20 DUP2 ADD SWAP2 SWAP1 SWAP2 MSTORE PUSH1 0x40 ADD PUSH1 0x0 KECCAK256 SLOAD PUSH1 0x1 PUSH1 0x48 SHL SWAP1 DIV PUSH1 0x1 PUSH1 0x1 PUSH1 0x48 SHL SUB AND DUP6 PUSH2 0x2710 PUSH4 0x5F5E100 PUSH2 0x43A2 PUSH1 0x8 PUSH1 0xA PUSH2 0x5BC5 JUMP JUMPDEST PUSH2 0x43AC SWAP2 SWAP1 PUSH2 0x5BD1 JUMP JUMPDEST PUSH2 0x43B6 SWAP2 SWAP1 PUSH2 0x5BF3 JUMP JUMPDEST DUP9 PUSH1 0xE0 ADD MLOAD PUSH2 0x43C5 SWAP2 SWAP1 PUSH2 0x5BF3 JUMP JUMPDEST PUSH2 0x43CF SWAP2 SWAP1 PUSH2 0x5BF3 JUMP JUMPDEST PUSH2 0x43D9 SWAP2 SWAP1 PUSH2 0x5BD1 JUMP JUMPDEST SWAP1 POP PUSH2 0x43E5 DUP7 DUP3 PUSH2 0x4CB9 JUMP JUMPDEST PUSH2 0x43EF SWAP1 DUP3 PUSH2 0x5C33 JUMP JUMPDEST PUSH2 0x1B01 SWAP1 DUP4 PUSH2 0x5C33 JUMP JUMPDEST PUSH1 0x0 DUP1 PUSH2 0x4408 PUSH1 0x2 PUSH1 0x7 PUSH2 0x5BF3 JUMP JUMPDEST PUSH2 0x4412 DUP7 DUP9 PUSH2 0x5C33 JUMP JUMPDEST PUSH2 0x441C SWAP2 SWAP1 PUSH2 0x5C33 JUMP JUMPDEST SWAP1 POP DUP1 DUP5 GT PUSH2 0x442F JUMPI PUSH1 0x0 SWAP2 POP POP PUSH2 0xD7A JUMP JUMPDEST PUSH2 0x443B PUSH1 0x64 PUSH1 0x7 PUSH2 0x5BF3 JUMP JUMPDEST PUSH2 0x4445 DUP3 DUP7 PUSH2 0x5C20 JUMP JUMPDEST PUSH2 0x444F SWAP1 DUP6 PUSH2 0x5BF3 JUMP JUMPDEST PUSH2 0x1B01 SWAP2 SWAP1 PUSH2 0x5BD1 JUMP JUMPDEST PUSH1 0x0 DUP1 PUSH1 0x1 DUP4 GT ISZERO PUSH2 0x44C9 JUMPI PUSH1 0x64 PUSH1 0xC8 PUSH2 0x4476 PUSH1 0x14 PUSH2 0x8E30 PUSH2 0x5BD1 JUMP JUMPDEST PUSH2 0x4480 SWAP2 SWAP1 PUSH2 0x5BF3 JUMP JUMPDEST PUSH2 0x448A SWAP2 SWAP1 PUSH2 0x5BD1 JUMP JUMPDEST DUP4 GT ISZERO PUSH2 0x44BB JUMPI PUSH1 0x64 PUSH1 0xC8 PUSH2 0x44A2 PUSH1 0x14 PUSH2 0x8E30 PUSH2 0x5BD1 JUMP JUMPDEST PUSH2 0x44AC SWAP2 SWAP1 PUSH2 0x5BF3 JUMP JUMPDEST PUSH2 0x44B6 SWAP2 SWAP1 PUSH2 0x5BD1 JUMP JUMPDEST PUSH2 0x44C6 JUMP JUMPDEST PUSH2 0x44C6 PUSH1 0x1 DUP5 PUSH2 0x5C20 JUMP JUMPDEST SWAP1 POP JUMPDEST PUSH1 0x0 PUSH2 0x44D7 PUSH1 0x8 PUSH1 0xA PUSH2 0x5BC5 JUMP JUMPDEST PUSH2 0x44E5 SWAP1 PUSH4 0x8F0D180 PUSH2 0x5BF3 JUMP JUMPDEST DUP6 GT ISZERO PUSH2 0x450B JUMPI PUSH2 0x44F8 PUSH1 0x8 PUSH1 0xA PUSH2 0x5BC5 JUMP JUMPDEST PUSH2 0x4506 SWAP1 PUSH4 0x8F0D180 PUSH2 0x5BF3 JUMP JUMPDEST PUSH2 0x450D JUMP JUMPDEST DUP5 JUMPDEST SWAP1 POP PUSH2 0x451C PUSH1 0x14 PUSH2 0x8E30 PUSH2 0x5BD1 JUMP JUMPDEST PUSH2 0x4526 SWAP1 DUP3 PUSH2 0x5BF3 JUMP JUMPDEST PUSH1 0xA PUSH2 0x4533 PUSH1 0x8 DUP3 PUSH2 0x5BC5 JUMP JUMPDEST PUSH2 0x4541 SWAP1 PUSH4 0x8F0D180 PUSH2 0x5BF3 JUMP JUMPDEST PUSH2 0x454C SWAP1 PUSH1 0x64 PUSH2 0x5BF3 JUMP JUMPDEST PUSH2 0x4556 SWAP2 SWAP1 PUSH2 0x5BD1 JUMP JUMPDEST PUSH2 0x4560 SWAP1 DUP5 PUSH2 0x5BF3 JUMP JUMPDEST PUSH2 0x456A SWAP2 SWAP1 PUSH2 0x5C33 JUMP JUMPDEST SWAP3 POP PUSH1 0xA PUSH2 0x4579 PUSH1 0x8 DUP3 PUSH2 0x5BC5 JUMP JUMPDEST PUSH2 0x4587 SWAP1 PUSH4 0x8F0D180 PUSH2 0x5BF3 JUMP JUMPDEST PUSH2 0x4592 SWAP1 PUSH1 0x64 PUSH2 0x5BF3 JUMP JUMPDEST PUSH2 0x459C SWAP2 SWAP1 PUSH2 0x5BD1 JUMP JUMPDEST PUSH2 0x45A9 PUSH1 0x14 PUSH2 0x8E30 PUSH2 0x5BD1 JUMP JUMPDEST PUSH2 0x45B3 SWAP2 SWAP1 PUSH2 0x5BF3 JUMP JUMPDEST PUSH2 0x45BD DUP5 DUP8 PUSH2 0x5BF3 JUMP JUMPDEST PUSH2 0x2733 SWAP2 SWAP1 PUSH2 0x5BD1 JUMP JUMPDEST DUP1 PUSH5 0xFFFFFFFFFF AND PUSH32 0x9861FA0ED101659F7A59B4583FCC798DFA4F3B419BEA371C8EE2AD0FFE13A31E PUSH1 0x28 DUP5 PUSH5 0xFFFFFFFFFF AND SWAP1 SHL TIMESTAMP PUSH5 0xFFFFFFFFFF AND OR PUSH1 0x40 MLOAD PUSH2 0x4614 SWAP2 DUP2 MSTORE PUSH1 0x20 ADD SWAP1 JUMP JUMPDEST PUSH1 0x40 MLOAD DUP1 SWAP2 SUB SWAP1 LOG2 POP POP JUMP JUMPDEST PUSH1 0x0 DUP1 PUSH2 0x462F PUSH1 0x33 PUSH1 0x2 PUSH2 0x5BF3 JUMP JUMPDEST SWAP5 SWAP1 SWAP5 SHL PUSH1 0x33 SWAP4 SWAP1 SWAP4 SHL SWAP3 SWAP1 SWAP3 OR OR SWAP3 SWAP2 POP POP JUMP JUMPDEST PUSH5 0xFFFFFFFFFF DUP6 AND CALLER PUSH32 0x14872DC760F33532684E68E1B6D5FD3F71BA7B07DEE76BDB2B084F28B74233EF DUP4 PUSH2 0x467A JUMPI PUSH1 0x0 PUSH2 0x4680 JUMP JUMPDEST PUSH1 0x1 PUSH1 0xC8 SHL JUMPDEST PUSH1 0x1 PUSH1 0x1 PUSH1 0xD0 SHL SUB AND PUSH1 0xB8 DUP7 PUSH2 0xFFFF AND SWAP1 SHL PUSH1 0x70 DUP9 PUSH1 0x1 PUSH1 0x1 PUSH1 0x48 SHL SUB AND SWAP1 SHL PUSH1 0x28 DUP11 PUSH1 0x1 PUSH1 0x1 PUSH1 0x48 SHL SUB AND SWAP1 SHL TIMESTAMP PUSH5 0xFFFFFFFFFF AND OR OR OR OR PUSH1 0x40 MLOAD PUSH2 0x46C9 SWAP2 DUP2 MSTORE PUSH1 0x20 ADD SWAP1 JUMP JUMPDEST PUSH1 0x40 MLOAD DUP1 SWAP2 SUB SWAP1 LOG3 POP POP POP POP POP JUMP JUMPDEST PUSH2 0x2FC6 DUP2 PUSH2 0x4D0F JUMP JUMPDEST PUSH2 0x46EC DUP4 DUP4 DUP4 PUSH2 0x4D30 JUMP JUMPDEST PUSH1 0x40 SWAP2 DUP3 ADD MLOAD PUSH1 0x0 SWAP2 DUP3 MSTORE PUSH1 0x9 PUSH1 0x20 MSTORE SWAP2 SWAP1 KECCAK256 DUP1 SLOAD PUSH1 0xA0 DUP5 ADD MLOAD PUSH1 0xE0 SWAP1 SWAP5 ADD MLOAD PUSH7 0xFFFFFFFFFFFFFF AND PUSH1 0x1 PUSH1 0x90 SHL MUL PUSH7 0xFFFFFFFFFFFFFF PUSH1 0x90 SHL NOT PUSH1 0x1 PUSH1 0x1 PUSH1 0x48 SHL SUB SWAP6 DUP7 AND PUSH1 0x1 PUSH1 0x48 SHL MUL PUSH1 0x1 PUSH1 0x1 PUSH1 0x90 SHL SUB NOT SWAP1 SWAP4 AND SWAP6 SWAP1 SWAP5 AND SWAP5 SWAP1 SWAP5 OR OR SWAP2 SWAP1 SWAP2 AND SWAP2 SWAP1 SWAP2 OR SWAP1 SSTORE JUMP JUMPDEST CALLER PUSH32 0xB8D6EB541DED1720CC657B719F57ABCB1FE4711CB7EAD82751B135F5D94BC944 DUP3 PUSH2 0x4787 JUMPI PUSH1 0x0 PUSH2 0x478D JUMP JUMPDEST PUSH1 0x1 PUSH1 0x48 SHL JUMPDEST PUSH10 0xFFFFFFFFFFFFFFFFFFFF AND PUSH1 0x38 DUP6 PUSH2 0xFFFF AND SWAP1 SHL PUSH1 0x28 DUP8 PUSH2 0xFFFF AND SWAP1 SHL TIMESTAMP PUSH5 0xFFFFFFFFFF AND OR OR OR PUSH1 0x40 MLOAD PUSH2 0x47C5 SWAP2 DUP2 MSTORE PUSH1 0x20 ADD SWAP1 JUMP JUMPDEST PUSH1 0x40 MLOAD DUP1 SWAP2 SUB SWAP1 LOG2 POP POP POP JUMP JUMPDEST PUSH1 0x0 PUSH1 0x1 DUP9 PUSH2 0x140 ADD MLOAD LT ISZERO PUSH2 0x47FA JUMPI PUSH1 0x40 MLOAD PUSH3 0x461BCD PUSH1 0xE5 SHL DUP2 MSTORE PUSH1 0x4 ADD PUSH2 0xC56 SWAP1 PUSH2 0x5C76 JUMP JUMPDEST PUSH2 0x4806 PUSH1 0x32 PUSH1 0x7 PUSH2 0x5BF3 JUMP JUMPDEST PUSH2 0x4811 SWAP1 PUSH1 0x1 PUSH2 0x5C33 JUMP JUMPDEST DUP9 PUSH2 0x140 ADD MLOAD LT PUSH2 0x4864 JUMPI PUSH1 0x40 MLOAD PUSH3 0x461BCD PUSH1 0xE5 SHL DUP2 MSTORE PUSH1 0x20 PUSH1 0x4 DUP3 ADD MSTORE PUSH1 0x1B PUSH1 0x24 DUP3 ADD MSTORE PUSH32 0x4D594E543A20436C61696D2070686173652068617320656E6465640000000000 PUSH1 0x44 DUP3 ADD MSTORE PUSH1 0x64 ADD PUSH2 0xC56 JUMP JUMPDEST PUSH2 0x486D DUP9 PUSH2 0x2FB5 JUMP JUMPDEST PUSH4 0x1AB362E DUP9 PUSH2 0x120 ADD MLOAD LT PUSH2 0x48C5 JUMPI PUSH1 0x40 MLOAD PUSH3 0x461BCD PUSH1 0xE5 SHL DUP2 MSTORE PUSH1 0x20 PUSH1 0x4 DUP3 ADD MSTORE PUSH1 0x1F PUSH1 0x24 DUP3 ADD MSTORE PUSH32 0x4D594E543A2043484B3A205F636C61696D656442746341646472436F756E7400 PUSH1 0x44 DUP3 ADD MSTORE PUSH1 0x64 ADD PUSH2 0xC56 JUMP JUMPDEST PUSH1 0x0 DUP1 PUSH1 0x0 PUSH2 0x48D4 DUP12 DUP12 PUSH2 0x4E68 JUMP JUMPDEST PUSH2 0x120 DUP15 ADD DUP1 MLOAD SWAP4 SWAP7 POP SWAP2 SWAP5 POP SWAP3 POP PUSH2 0x48EC DUP3 PUSH2 0x5C5D JUMP JUMPDEST SWAP1 MSTORE POP PUSH2 0x48FF DUP10 DUP10 DUP10 DUP14 DUP8 DUP8 DUP8 DUP13 PUSH2 0x4F8A JUMP JUMPDEST SWAP4 POP PUSH1 0x0 PUSH1 0x64 PUSH2 0x4910 PUSH1 0x5A DUP8 PUSH2 0x5BF3 JUMP JUMPDEST PUSH2 0x491A SWAP2 SWAP1 PUSH2 0x5BD1 JUMP JUMPDEST SWAP1 POP PUSH2 0x4929 DUP13 DUP3 DUP10 PUSH1 0x1 PUSH2 0x35F2 JUMP JUMPDEST PUSH2 0x493C DUP11 PUSH2 0x4937 DUP4 DUP9 PUSH2 0x5C20 JUMP JUMPDEST PUSH2 0x2A88 JUMP JUMPDEST POP POP POP POP SWAP8 SWAP7 POP POP POP POP POP POP POP JUMP JUMPDEST PUSH1 0x60 PUSH2 0x4959 PUSH1 0x14 PUSH1 0x2 PUSH2 0x5D4C JUMP JUMPDEST PUSH1 0xFF AND PUSH8 0xFFFFFFFFFFFFFFFF DUP2 GT ISZERO PUSH2 0x4974 JUMPI PUSH2 0x4974 PUSH2 0x570F JUMP JUMPDEST PUSH1 0x40 MLOAD SWAP1 DUP1 DUP3 MSTORE DUP1 PUSH1 0x1F ADD PUSH1 0x1F NOT AND PUSH1 0x20 ADD DUP3 ADD PUSH1 0x40 MSTORE DUP1 ISZERO PUSH2 0x499E JUMPI PUSH1 0x20 DUP3 ADD DUP2 DUP1 CALLDATASIZE DUP4 CALLDATACOPY ADD SWAP1 POP JUMPDEST POP SWAP1 POP PUSH2 0x49BB DUP2 PUSH1 0x1 PUSH1 0x1 PUSH1 0x60 SHL SUB NOT PUSH1 0x60 DUP7 SWAP1 SHL AND PUSH1 0x14 PUSH2 0x4A3E JUMP JUMPDEST DUP2 ISZERO PUSH2 0xBF7 JUMPI DUP1 MLOAD PUSH1 0x20 DUP3 ADD KECCAK256 PUSH1 0x0 DUP1 JUMPDEST PUSH1 0x14 DUP2 LT ISZERO PUSH2 0x4A35 JUMPI PUSH1 0x0 DUP4 DUP3 PUSH1 0x20 DUP2 LT PUSH2 0x49E9 JUMPI PUSH2 0x49E9 PUSH2 0x5C0A JUMP JUMPDEST BYTE SWAP1 POP PUSH2 0x4A09 DUP6 DUP5 PUSH2 0x49FA DUP2 PUSH2 0x5C5D JUMP JUMPDEST SWAP6 POP PUSH1 0x4 DUP5 PUSH1 0xFF AND SWAP1 SHR PUSH2 0x507B JUMP JUMPDEST PUSH2 0x4A22 DUP6 DUP5 PUSH2 0x4A17 DUP2 PUSH2 0x5C5D JUMP JUMPDEST SWAP6 POP DUP4 PUSH1 0xF AND PUSH2 0x507B JUMP JUMPDEST POP DUP1 PUSH2 0x4A2D DUP2 PUSH2 0x5C5D JUMP JUMPDEST SWAP2 POP POP PUSH2 0x49CC JUMP JUMPDEST POP POP POP SWAP3 SWAP2 POP POP JUMP JUMPDEST PUSH1 0x0 DUP1 JUMPDEST DUP3 DUP2 LT ISZERO PUSH2 0x25A7 JUMPI PUSH1 0x0 DUP5 DUP3 PUSH1 0x20 DUP2 LT PUSH2 0x4A5E JUMPI PUSH2 0x4A5E PUSH2 0x5C0A JUMP JUMPDEST BYTE SWAP1 POP PUSH16 0x181899199A1A9B1B9C1CB0B131B232B3 PUSH1 0x81 SHL PUSH1 0x4 DUP3 SWAP1 SHR PUSH1 0xFF AND PUSH1 0x10 DUP2 LT PUSH2 0x4A8D JUMPI PUSH2 0x4A8D PUSH2 0x5C0A JUMP JUMPDEST BYTE PUSH1 0xF8 SHL DUP7 DUP5 PUSH2 0x4A9C DUP2 PUSH2 0x5C5D JUMP JUMPDEST SWAP6 POP DUP2 MLOAD DUP2 LT PUSH2 0x4AAE JUMPI PUSH2 0x4AAE PUSH2 0x5C0A JUMP JUMPDEST PUSH1 0x20 ADD ADD SWAP1 PUSH1 0x1 PUSH1 0x1 PUSH1 0xF8 SHL SUB NOT AND SWAP1 DUP2 PUSH1 0x0 BYTE SWAP1 MSTORE8 POP PUSH16 0x181899199A1A9B1B9C1CB0B131B232B3 PUSH1 0x81 SHL PUSH1 0xF DUP3 AND PUSH1 0x10 DUP2 LT PUSH2 0x4AED JUMPI PUSH2 0x4AED PUSH2 0x5C0A JUMP JUMPDEST BYTE PUSH1 0xF8 SHL DUP7 DUP5 PUSH2 0x4AFC DUP2 PUSH2 0x5C5D JUMP JUMPDEST SWAP6 POP DUP2 MLOAD DUP2 LT PUSH2 0x4B0E JUMPI PUSH2 0x4B0E PUSH2 0x5C0A JUMP JUMPDEST PUSH1 0x20 ADD ADD SWAP1 PUSH1 0x1 PUSH1 0x1 PUSH1 0xF8 SHL SUB NOT AND SWAP1 DUP2 PUSH1 0x0 BYTE SWAP1 MSTORE8 POP POP DUP1 DUP1 PUSH2 0x4B31 SWAP1 PUSH2 0x5C5D JUMP JUMPDEST SWAP2 POP POP PUSH2 0x4A42 JUMP JUMPDEST PUSH1 0x0 DUP2 DUP2 JUMPDEST DUP5 MLOAD DUP2 LT ISZERO PUSH2 0x4B7E JUMPI PUSH2 0x4B6A DUP3 DUP7 DUP4 DUP2 MLOAD DUP2 LT PUSH2 0x4B5D JUMPI PUSH2 0x4B5D PUSH2 0x5C0A JUMP JUMPDEST PUSH1 0x20 MUL PUSH1 0x20 ADD ADD MLOAD PUSH2 0x50F3 JUMP JUMPDEST SWAP2 POP DUP1 PUSH2 0x4B76 DUP2 PUSH2 0x5C5D JUMP JUMPDEST SWAP2 POP POP PUSH2 0x4B3E JUMP JUMPDEST POP SWAP4 SWAP3 POP POP POP JUMP JUMPDEST PUSH1 0x0 PUSH2 0x4B90 PUSH2 0x5345 JUMP JUMPDEST PUSH2 0x4B9A DUP6 DUP3 PUSH2 0x4137 JUMP JUMPDEST PUSH2 0x4BBE PUSH1 0x40 MLOAD DUP1 PUSH1 0x60 ADD PUSH1 0x40 MSTORE DUP1 PUSH1 0x0 DUP2 MSTORE PUSH1 0x20 ADD PUSH1 0x0 DUP2 MSTORE PUSH1 0x20 ADD PUSH1 0x0 DUP2 MSTORE POP SWAP1 JUMP JUMPDEST DUP6 MLOAD PUSH1 0x2 SLOAD PUSH2 0x4BCD SWAP2 SWAP1 PUSH2 0x5C33 JUMP JUMPDEST DUP2 MSTORE PUSH2 0x4BDA DUP3 DUP3 DUP7 PUSH2 0x4D30 JUMP JUMPDEST DUP5 DUP3 PUSH1 0xA0 ADD DUP2 DUP2 MLOAD PUSH2 0x4BEC SWAP2 SWAP1 PUSH2 0x5C33 JUMP JUMPDEST SWAP1 MSTORE POP PUSH1 0xA0 DUP3 ADD MLOAD PUSH1 0x40 DUP3 ADD MLOAD PUSH2 0x4C04 SWAP1 DUP8 SWAP1 PUSH2 0x5BF3 JUMP JUMPDEST PUSH2 0x4C0E SWAP2 SWAP1 PUSH2 0x5BD1 JUMP JUMPDEST SWAP3 POP PUSH2 0x4C1C PUSH1 0x32 PUSH1 0x7 PUSH2 0x5BF3 JUMP JUMPDEST PUSH2 0x4C27 SWAP1 PUSH1 0x1 PUSH2 0x5C33 JUMP JUMPDEST PUSH2 0x4C32 SWAP1 PUSH1 0x1 PUSH2 0x5C33 JUMP JUMPDEST DUP5 SUB PUSH2 0x4CB0 JUMPI PUSH1 0xA0 DUP3 ADD MLOAD PUSH1 0x0 SWAP1 DUP7 PUSH2 0x2710 PUSH4 0x5F5E100 PUSH2 0x4C55 PUSH1 0x8 PUSH1 0xA PUSH2 0x5BC5 JUMP JUMPDEST PUSH2 0x4C5F SWAP2 SWAP1 PUSH2 0x5BD1 JUMP JUMPDEST PUSH2 0x4C69 SWAP2 SWAP1 PUSH2 0x5BF3 JUMP JUMPDEST DUP6 PUSH1 0xE0 ADD MLOAD PUSH2 0x4C78 SWAP2 SWAP1 PUSH2 0x5BF3 JUMP JUMPDEST PUSH2 0x4C82 SWAP2 SWAP1 PUSH2 0x5BF3 JUMP JUMPDEST PUSH2 0x4C8C SWAP2 SWAP1 PUSH2 0x5BD1 JUMP JUMPDEST SWAP1 POP PUSH2 0x4C98 DUP4 DUP3 PUSH2 0x4CB9 JUMP JUMPDEST PUSH2 0x4CA2 SWAP1 DUP3 PUSH2 0x5C33 JUMP JUMPDEST PUSH2 0x4CAC SWAP1 DUP6 PUSH2 0x5C33 JUMP JUMPDEST SWAP4 POP POP JUMPDEST POP POP SWAP4 SWAP3 POP POP POP JUMP JUMPDEST PUSH1 0x0 DUP1 PUSH4 0x1AB362E DUP5 PUSH2 0x120 ADD MLOAD DUP5 PUSH2 0x4CD2 SWAP2 SWAP1 PUSH2 0x5BF3 JUMP JUMPDEST PUSH2 0x4CDC SWAP2 SWAP1 PUSH2 0x5BD1 JUMP JUMPDEST SWAP1 POP PUSH1 0x0 PUSH7 0x33BB85FC52D99 DUP6 PUSH2 0x100 ADD MLOAD DUP6 PUSH2 0x4CF9 SWAP2 SWAP1 PUSH2 0x5BF3 JUMP JUMPDEST PUSH2 0x4D03 SWAP2 SWAP1 PUSH2 0x5BD1 JUMP JUMPDEST SWAP1 POP PUSH2 0x2733 DUP2 DUP4 PUSH2 0x5C33 JUMP JUMPDEST PUSH1 0x0 PUSH11 0x636F6E736F6C652E6C6F67 SWAP1 POP PUSH1 0x0 DUP1 DUP4 MLOAD PUSH1 0x20 DUP6 ADD DUP5 GAS STATICCALL POP POP POP JUMP JUMPDEST DUP2 MLOAD PUSH4 0x5FCBAE3 SWAP1 PUSH2 0x4D44 SWAP1 PUSH2 0x2710 PUSH2 0x5BF3 JUMP JUMPDEST PUSH2 0x4D4E SWAP2 SWAP1 PUSH2 0x5BD1 JUMP JUMPDEST PUSH1 0x40 DUP4 ADD MSTORE PUSH2 0x4D5F PUSH1 0x32 PUSH1 0x7 PUSH2 0x5BF3 JUMP JUMPDEST PUSH2 0x4D6A SWAP1 PUSH1 0x1 PUSH2 0x5C33 JUMP JUMPDEST DUP2 LT ISZERO PUSH2 0x4E39 JUMPI PUSH1 0x0 PUSH2 0x4D7F PUSH1 0x32 PUSH1 0x7 PUSH2 0x5BF3 JUMP JUMPDEST PUSH2 0x2710 PUSH4 0x5F5E100 PUSH2 0x4D93 PUSH1 0x8 PUSH1 0xA PUSH2 0x5BC5 JUMP JUMPDEST PUSH2 0x4D9D SWAP2 SWAP1 PUSH2 0x5BD1 JUMP JUMPDEST PUSH2 0x4DA7 SWAP2 SWAP1 PUSH2 0x5BF3 JUMP JUMPDEST DUP6 PUSH1 0xE0 ADD MLOAD PUSH2 0x4DB6 SWAP2 SWAP1 PUSH2 0x5BF3 JUMP JUMPDEST PUSH2 0x4DC0 SWAP2 SWAP1 PUSH2 0x5BD1 JUMP JUMPDEST SWAP1 POP PUSH1 0x0 PUSH2 0x4DDD DUP6 DUP4 DUP7 PUSH1 0x40 ADD MLOAD PUSH2 0x4DD8 SWAP2 SWAP1 PUSH2 0x5C33 JUMP JUMPDEST PUSH2 0x4CB9 JUMP JUMPDEST PUSH2 0x4DE7 SWAP1 DUP4 PUSH2 0x5C33 JUMP JUMPDEST SWAP1 POP DUP1 DUP5 PUSH1 0x20 ADD DUP2 DUP2 MLOAD PUSH2 0x4DFB SWAP2 SWAP1 PUSH2 0x5C33 JUMP JUMPDEST SWAP1 MSTORE POP DUP4 MLOAD DUP2 SWAP1 DUP6 SWAP1 PUSH2 0x4E0F SWAP1 DUP4 SWAP1 PUSH2 0x5C33 JUMP JUMPDEST SWAP1 MSTORE POP PUSH1 0x40 DUP5 ADD MLOAD PUSH2 0x4E22 SWAP1 DUP7 SWAP1 PUSH2 0x4CB9 JUMP JUMPDEST DUP5 PUSH1 0x40 ADD DUP2 DUP2 MLOAD PUSH2 0x4E33 SWAP2 SWAP1 PUSH2 0x5C33 JUMP JUMPDEST SWAP1 MSTORE POP POP POP JUMPDEST PUSH1 0x60 DUP4 ADD MLOAD ISZERO PUSH2 0xC69 JUMPI DUP3 PUSH1 0x60 ADD MLOAD DUP3 PUSH1 0x40 ADD DUP2 DUP2 MLOAD PUSH2 0x4E59 SWAP2 SWAP1 PUSH2 0x5C33 JUMP JUMPDEST SWAP1 MSTORE POP PUSH1 0x0 PUSH1 0x60 DUP5 ADD MSTORE POP POP POP JUMP JUMPDEST PUSH1 0x0 DUP1 PUSH1 0x0 PUSH2 0x4E76 DUP5 PUSH2 0x5122 JUMP JUMPDEST SWAP3 POP PUSH7 0x33BB85FC52D99 DUP4 DUP7 PUSH2 0x100 ADD MLOAD PUSH2 0x4E91 SWAP2 SWAP1 PUSH2 0x5C33 JUMP JUMPDEST GT ISZERO PUSH2 0x4EDF JUMPI PUSH1 0x40 MLOAD PUSH3 0x461BCD PUSH1 0xE5 SHL DUP2 MSTORE PUSH1 0x20 PUSH1 0x4 DUP3 ADD DUP2 SWAP1 MSTORE PUSH1 0x24 DUP3 ADD MSTORE PUSH32 0x4D594E543A2043484B3A205F636C61696D65645361746F73686973546F74616C PUSH1 0x44 DUP3 ADD MSTORE PUSH1 0x64 ADD PUSH2 0xC56 JUMP JUMPDEST DUP3 DUP6 PUSH2 0x100 ADD DUP2 DUP2 MLOAD PUSH2 0x4EF2 SWAP2 SWAP1 PUSH2 0x5C33 JUMP JUMPDEST SWAP1 MSTORE POP PUSH2 0x140 DUP6 ADD MLOAD PUSH1 0x0 SWAP1 PUSH2 0x4F0A PUSH1 0x32 PUSH1 0x7 PUSH2 0x5BF3 JUMP JUMPDEST PUSH2 0x4F15 SWAP1 PUSH1 0x1 PUSH2 0x5C33 JUMP JUMPDEST PUSH2 0x4F1F SWAP2 SWAP1 PUSH2 0x5C20 JUMP JUMPDEST SWAP1 POP PUSH2 0x4F2B DUP5 DUP3 PUSH2 0x5177 JUMP JUMPDEST SWAP4 POP DUP4 DUP7 PUSH1 0xE0 ADD DUP2 DUP2 MLOAD PUSH2 0x4F3F SWAP2 SWAP1 PUSH2 0x5C20 JUMP JUMPDEST SWAP1 MSTORE POP PUSH2 0x2710 PUSH4 0x5F5E100 PUSH2 0x4F56 PUSH1 0x8 PUSH1 0xA PUSH2 0x5BC5 JUMP JUMPDEST PUSH2 0x4F60 SWAP2 SWAP1 PUSH2 0x5BD1 JUMP JUMPDEST PUSH2 0x4F6A SWAP2 SWAP1 PUSH2 0x5BF3 JUMP JUMPDEST PUSH2 0x4F74 SWAP1 DUP6 PUSH2 0x5BF3 JUMP JUMPDEST SWAP3 POP PUSH2 0x4F80 DUP4 DUP3 PUSH2 0x5199 JUMP JUMPDEST SWAP2 POP POP SWAP3 POP SWAP3 POP SWAP3 JUMP JUMPDEST PUSH1 0x0 PUSH2 0x4F96 DUP4 DUP6 PUSH2 0x5C33 JUMP JUMPDEST SWAP1 POP DUP3 PUSH1 0x1 PUSH1 0x1 PUSH1 0xA0 SHL SUB DUP4 AND PUSH2 0x4FBB JUMPI PUSH2 0x4FB6 DUP11 DUP11 DUP11 DUP11 DUP11 DUP8 DUP10 PUSH2 0x51D3 JUMP JUMPDEST PUSH2 0x5050 JUMP JUMPDEST PUSH1 0x0 PUSH2 0x4FC8 PUSH1 0xA DUP5 PUSH2 0x5BD1 JUMP JUMPDEST SWAP1 POP PUSH2 0x4FD4 DUP2 DUP5 PUSH2 0x5C33 JUMP JUMPDEST SWAP3 POP PUSH1 0x0 PUSH2 0x4FE3 PUSH1 0x5 DUP6 PUSH2 0x5BD1 JUMP JUMPDEST SWAP1 POP PUSH2 0x4FEF DUP2 DUP4 PUSH2 0x5C33 JUMP JUMPDEST PUSH2 0x4FF9 SWAP1 DUP5 PUSH2 0x5C33 JUMP JUMPDEST SWAP3 POP DUP12 PUSH1 0x1 PUSH1 0x1 PUSH1 0xA0 SHL SUB AND DUP6 PUSH1 0x1 PUSH1 0x1 PUSH1 0xA0 SHL SUB AND SUB PUSH2 0x5034 JUMPI PUSH2 0x501E DUP2 DUP6 PUSH2 0x5C33 JUMP JUMPDEST SWAP4 POP PUSH2 0x502F DUP13 DUP13 DUP13 DUP13 DUP13 DUP10 DUP12 PUSH2 0x51D3 JUMP JUMPDEST PUSH2 0x504D JUMP JUMPDEST PUSH2 0x5043 DUP13 DUP13 DUP13 DUP13 DUP13 DUP10 DUP12 PUSH2 0x51D3 JUMP JUMPDEST PUSH2 0x504D DUP6 DUP3 PUSH2 0x2A88 JUMP JUMPDEST POP POP JUMPDEST PUSH2 0x506E PUSH20 0x9A6A414D6F3497C05E3B1DE90520765FA1E07C03 DUP3 PUSH2 0x2A88 JUMP JUMPDEST POP SWAP9 SWAP8 POP POP POP POP POP POP POP POP JUMP JUMPDEST PUSH1 0x0 DUP4 DUP4 DUP2 MLOAD DUP2 LT PUSH2 0x508F JUMPI PUSH2 0x508F PUSH2 0x5C0A JUMP JUMPDEST ADD PUSH1 0x20 ADD MLOAD PUSH1 0x1 PUSH1 0x1 PUSH1 0xF8 SHL SUB NOT AND SWAP1 POP PUSH1 0x61 PUSH1 0xF8 SHL DUP2 LT DUP1 ISZERO SWAP1 PUSH2 0x50B8 JUMPI POP PUSH1 0x8 DUP3 PUSH1 0xFF AND LT ISZERO JUMPDEST ISZERO PUSH2 0x13DD JUMPI DUP1 PUSH1 0x20 PUSH1 0xF8 SHL XOR DUP5 DUP5 DUP2 MLOAD DUP2 LT PUSH2 0x50D6 JUMPI PUSH2 0x50D6 PUSH2 0x5C0A JUMP JUMPDEST PUSH1 0x20 ADD ADD SWAP1 PUSH1 0x1 PUSH1 0x1 PUSH1 0xF8 SHL SUB NOT AND SWAP1 DUP2 PUSH1 0x0 BYTE SWAP1 MSTORE8 POP POP POP POP POP JUMP JUMPDEST PUSH1 0x0 DUP2 DUP4 LT PUSH2 0x510F JUMPI PUSH1 0x0 DUP3 DUP2 MSTORE PUSH1 0x20 DUP5 SWAP1 MSTORE PUSH1 0x40 SWAP1 KECCAK256 PUSH2 0xCB8 JUMP JUMPDEST PUSH1 0x0 DUP4 DUP2 MSTORE PUSH1 0x20 DUP4 SWAP1 MSTORE PUSH1 0x40 SWAP1 KECCAK256 PUSH2 0xCB8 JUMP JUMPDEST PUSH1 0x0 PUSH5 0x174876E800 DUP3 LT ISZERO PUSH2 0x5135 JUMPI POP SWAP1 JUMP JUMPDEST PUSH5 0xE8D4A51000 DUP3 LT PUSH2 0x514C JUMPI PUSH2 0x1972 PUSH1 0x4 DUP4 PUSH2 0x5BD1 JUMP JUMPDEST PUSH6 0x34630B8A000 PUSH2 0x5163 DUP4 PUSH6 0x1BA60D33800 PUSH2 0x5C20 JUMP JUMPDEST PUSH2 0x516D SWAP1 DUP5 PUSH2 0x5BF3 JUMP JUMPDEST PUSH2 0x1972 SWAP2 SWAP1 PUSH2 0x5BD1 JUMP JUMPDEST PUSH1 0x0 PUSH2 0x5185 PUSH1 0x32 PUSH1 0x7 PUSH2 0x5BF3 JUMP JUMPDEST PUSH2 0x518F DUP4 DUP6 PUSH2 0x5BF3 JUMP JUMPDEST PUSH2 0xCB8 SWAP2 SWAP1 PUSH2 0x5BD1 JUMP JUMPDEST PUSH1 0x0 PUSH1 0x1 PUSH2 0x51A9 PUSH1 0x32 PUSH1 0x7 PUSH2 0x5BF3 JUMP JUMPDEST PUSH2 0x51B3 SWAP2 SWAP1 PUSH2 0x5C20 JUMP JUMPDEST PUSH2 0x51BE SWAP1 PUSH1 0x5 PUSH2 0x5BF3 JUMP JUMPDEST PUSH2 0x51C9 PUSH1 0x1 DUP5 PUSH2 0x5C20 JUMP JUMPDEST PUSH2 0x518F SWAP1 DUP6 PUSH2 0x5BF3 JUMP JUMPDEST PUSH1 0x40 DUP1 MLOAD PUSH5 0xFFFFFFFFFF TIMESTAMP AND PUSH12 0xFFFFFFFFFFFFFF0000000000 PUSH1 0x28 DUP9 SWAP1 SHL AND OR PUSH7 0xFFFFFFFFFFFFFF PUSH1 0x60 SHL PUSH1 0x60 DUP8 SWAP1 SHL AND OR PUSH1 0xFF PUSH1 0x98 SHL PUSH1 0x98 DUP10 SWAP1 SHL AND OR PUSH9 0xFFFFFFFFFFFFFFFFFF PUSH1 0xA0 SHL PUSH1 0xA0 DUP7 SWAP1 SHL AND OR DUP2 MSTORE CALLER PUSH1 0x20 DUP3 ADD MSTORE PUSH1 0x1 PUSH1 0x1 PUSH1 0xA0 SHL SUB DUP1 DUP5 AND SWAP3 SWAP1 DUP11 AND SWAP2 PUSH1 0x1 PUSH1 0x1 PUSH1 0x60 SHL SUB NOT DUP11 AND SWAP2 PUSH32 0x41E3C7DC6EEBC97A48A437FF2AFDC629613F12C48BA37A2C94563F80ACBA9725 SWAP2 ADD PUSH1 0x40 MLOAD DUP1 SWAP2 SUB SWAP1 LOG4 PUSH1 0x1 PUSH1 0x1 PUSH1 0xA0 SHL SUB DUP8 AND CALLER EQ PUSH2 0x533C JUMPI CALLER PUSH1 0x1 PUSH1 0x1 PUSH1 0xA0 SHL SUB AND PUSH32 0x3A84B2D9DAC24683628D63034C6949797F15FAB735E16232518EE4E753FD49B7 PUSH1 0xC8 DUP7 PUSH7 0xFFFFFFFFFFFFFF AND SWAP1 SHL PUSH1 0x28 DUP10 PUSH1 0x60 SHR PUSH1 0x1 PUSH1 0x1 PUSH1 0xA0 SHL SUB AND SWAP1 SHL TIMESTAMP PUSH5 0xFFFFFFFFFF AND OR OR PUSH1 0xD8 DUP9 PUSH1 0xFF AND SWAP1 SHL PUSH1 0x38 DUP12 PUSH1 0x1 PUSH1 0x1 PUSH1 0xA0 SHL SUB AND SWAP1 SHL DUP8 PUSH7 0xFFFFFFFFFFFFFF AND OR OR PUSH1 0x48 DUP6 PUSH1 0x1 PUSH1 0x1 PUSH1 0xA0 SHL SUB AND SWAP1 SHL DUP7 PUSH1 0x1 PUSH1 0x1 PUSH1 0x48 SHL SUB AND OR PUSH1 0x40 MLOAD PUSH2 0x5333 SWAP4 SWAP3 SWAP2 SWAP1 SWAP3 DUP4 MSTORE PUSH1 0x20 DUP4 ADD SWAP2 SWAP1 SWAP2 MSTORE PUSH1 0x40 DUP3 ADD MSTORE PUSH1 0x60 ADD SWAP1 JUMP JUMPDEST PUSH1 0x40 MLOAD DUP1 SWAP2 SUB SWAP1 LOG2 JUMPDEST POP POP POP POP POP POP POP JUMP JUMPDEST PUSH1 0x40 MLOAD DUP1 PUSH2 0x160 ADD PUSH1 0x40 MSTORE DUP1 PUSH1 0x0 DUP2 MSTORE PUSH1 0x20 ADD PUSH1 0x0 DUP2 MSTORE PUSH1 0x20 ADD PUSH1 0x0 DUP2 MSTORE PUSH1 0x20 ADD PUSH1 0x0 DUP2 MSTORE PUSH1 0x20 ADD PUSH1 0x0 DUP2 MSTORE PUSH1 0x20 ADD PUSH1 0x0 DUP2 MSTORE PUSH1 0x20 ADD PUSH1 0x0 PUSH5 0xFFFFFFFFFF AND DUP2 MSTORE PUSH1 0x20 ADD PUSH1 0x0 DUP2 MSTORE PUSH1 0x20 ADD PUSH1 0x0 DUP2 MSTORE PUSH1 0x20 ADD PUSH1 0x0 DUP2 MSTORE PUSH1 0x20 ADD PUSH1 0x0 DUP2 MSTORE POP SWAP1 JUMP JUMPDEST PUSH1 0x40 MLOAD DUP1 PUSH1 0xE0 ADD PUSH1 0x40 MSTORE DUP1 PUSH1 0x0 PUSH5 0xFFFFFFFFFF AND DUP2 MSTORE PUSH1 0x20 ADD PUSH1 0x0 DUP2 MSTORE PUSH1 0x20 ADD PUSH1 0x0 DUP2 MSTORE PUSH1 0x20 ADD PUSH1 0x0 DUP2 MSTORE PUSH1 0x20 ADD PUSH1 0x0 DUP2 MSTORE PUSH1 0x20 ADD PUSH1 0x0 DUP2 MSTORE PUSH1 0x20 ADD PUSH1 0x0 ISZERO ISZERO DUP2 MSTORE POP SWAP1 JUMP JUMPDEST PUSH1 0x40 MLOAD DUP1 PUSH1 0x40 ADD PUSH1 0x40 MSTORE DUP1 PUSH1 0x2 SWAP1 PUSH1 0x20 DUP3 MUL DUP1 CALLDATASIZE DUP4 CALLDATACOPY POP SWAP2 SWAP3 SWAP2 POP POP JUMP JUMPDEST PUSH1 0x40 MLOAD DUP1 PUSH2 0x1A0 ADD PUSH1 0x40 MSTORE DUP1 PUSH1 0xD SWAP1 PUSH1 0x20 DUP3 MUL DUP1 CALLDATASIZE DUP4 CALLDATACOPY POP SWAP2 SWAP3 SWAP2 POP POP JUMP JUMPDEST PUSH1 0x0 JUMPDEST DUP4 DUP2 LT ISZERO PUSH2 0x5444 JUMPI DUP2 DUP2 ADD MLOAD DUP4 DUP3 ADD MSTORE PUSH1 0x20 ADD PUSH2 0x542C JUMP JUMPDEST POP POP PUSH1 0x0 SWAP2 ADD MSTORE JUMP JUMPDEST PUSH1 0x0 DUP2 MLOAD DUP1 DUP5 MSTORE PUSH2 0x5465 DUP2 PUSH1 0x20 DUP7 ADD PUSH1 0x20 DUP7 ADD PUSH2 0x5429 JUMP JUMPDEST PUSH1 0x1F ADD PUSH1 0x1F NOT AND SWAP3 SWAP1 SWAP3 ADD PUSH1 0x20 ADD SWAP3 SWAP2 POP POP JUMP JUMPDEST PUSH1 0x20 DUP2 MSTORE PUSH1 0x0 PUSH2 0xCB8 PUSH1 0x20 DUP4 ADD DUP5 PUSH2 0x544D JUMP JUMPDEST DUP1 CALLDATALOAD PUSH1 0x1 PUSH1 0x1 PUSH1 0xA0 SHL SUB DUP2 AND DUP2 EQ PUSH2 0x1975 JUMPI PUSH1 0x0 DUP1 REVERT JUMPDEST PUSH1 0x0 DUP1 PUSH1 0x40 DUP4 DUP6 SUB SLT ISZERO PUSH2 0x54B6 JUMPI PUSH1 0x0 DUP1 REVERT JUMPDEST PUSH2 0x54BF DUP4 PUSH2 0x548C JUMP JUMPDEST SWAP5 PUSH1 0x20 SWAP4 SWAP1 SWAP4 ADD CALLDATALOAD SWAP4 POP POP POP JUMP JUMPDEST PUSH1 0x0 DUP1 PUSH1 0x0 PUSH1 0x60 DUP5 DUP7 SUB SLT ISZERO PUSH2 0x54E2 JUMPI PUSH1 0x0 DUP1 REVERT JUMPDEST PUSH2 0x54EB DUP5 PUSH2 0x548C JUMP JUMPDEST SWAP3 POP PUSH1 0x20 DUP5 ADD CALLDATALOAD SWAP2 POP PUSH2 0x5500 PUSH1 0x40 DUP6 ADD PUSH2 0x548C JUMP JUMPDEST SWAP1 POP SWAP3 POP SWAP3 POP SWAP3 JUMP JUMPDEST PUSH1 0x0 DUP1 PUSH1 0x0 PUSH1 0x60 DUP5 DUP7 SUB SLT ISZERO PUSH2 0x551E JUMPI PUSH1 0x0 DUP1 REVERT JUMPDEST PUSH2 0x5527 DUP5 PUSH2 0x548C JUMP JUMPDEST SWAP3 POP PUSH2 0x5535 PUSH1 0x20 DUP6 ADD PUSH2 0x548C JUMP JUMPDEST SWAP2 POP PUSH1 0x40 DUP5 ADD CALLDATALOAD SWAP1 POP SWAP3 POP SWAP3 POP SWAP3 JUMP JUMPDEST PUSH1 0x0 DUP1 DUP4 PUSH1 0x1F DUP5 ADD SLT PUSH2 0x5557 JUMPI PUSH1 0x0 DUP1 REVERT JUMPDEST POP DUP2 CALLDATALOAD PUSH8 0xFFFFFFFFFFFFFFFF DUP2 GT ISZERO PUSH2 0x556F JUMPI PUSH1 0x0 DUP1 REVERT JUMPDEST PUSH1 0x20 DUP4 ADD SWAP2 POP DUP4 PUSH1 0x20 DUP3 PUSH1 0x5 SHL DUP6 ADD ADD GT ISZERO PUSH2 0x20FE JUMPI PUSH1 0x0 DUP1 REVERT JUMPDEST PUSH1 0x0 DUP1 PUSH1 0x0 PUSH1 0x40 DUP5 DUP7 SUB SLT ISZERO PUSH2 0x559F JUMPI PUSH1 0x0 DUP1 REVERT JUMPDEST DUP4 CALLDATALOAD SWAP3 POP PUSH1 0x20 DUP5 ADD CALLDATALOAD PUSH8 0xFFFFFFFFFFFFFFFF DUP2 GT ISZERO PUSH2 0x55BD JUMPI PUSH1 0x0 DUP1 REVERT JUMPDEST PUSH2 0x55C9 DUP7 DUP3 DUP8 ADD PUSH2 0x5545 JUMP JUMPDEST SWAP5 SWAP8 SWAP1 SWAP7 POP SWAP4 SWAP5 POP POP POP POP JUMP JUMPDEST DUP1 CALLDATALOAD PUSH1 0xFF DUP2 AND DUP2 EQ PUSH2 0x1975 JUMPI PUSH1 0x0 DUP1 REVERT JUMPDEST PUSH1 0x0 DUP1 PUSH1 0x0 PUSH1 0x60 DUP5 DUP7 SUB SLT ISZERO PUSH2 0x55FC JUMPI PUSH1 0x0 DUP1 REVERT JUMPDEST DUP4 CALLDATALOAD SWAP3 POP PUSH1 0x20 DUP5 ADD CALLDATALOAD SWAP2 POP PUSH2 0x5500 PUSH1 0x40 DUP6 ADD PUSH2 0x55D6 JUMP JUMPDEST PUSH1 0x0 DUP1 PUSH1 0x40 DUP4 DUP6 SUB SLT ISZERO PUSH2 0x5626 JUMPI PUSH1 0x0 DUP1 REVERT JUMPDEST POP POP DUP1 CALLDATALOAD SWAP3 PUSH1 0x20 SWAP1 SWAP2 ADD CALLDATALOAD SWAP2 POP JUMP JUMPDEST PUSH1 0x0 PUSH1 0x20 DUP3 DUP5 SUB SLT ISZERO PUSH2 0x5647 JUMPI PUSH1 0x0 DUP1 REVERT JUMPDEST PUSH2 0xCB8 DUP3 PUSH2 0x548C JUMP JUMPDEST DUP1 CALLDATALOAD PUSH5 0xFFFFFFFFFF DUP2 AND DUP2 EQ PUSH2 0x1975 JUMPI PUSH1 0x0 DUP1 REVERT JUMPDEST PUSH1 0x0 DUP1 PUSH1 0x40 DUP4 DUP6 SUB SLT ISZERO PUSH2 0x5678 JUMPI PUSH1 0x0 DUP1 REVERT JUMPDEST DUP3 CALLDATALOAD SWAP2 POP PUSH2 0x5688 PUSH1 0x20 DUP5 ADD PUSH2 0x5650 JUMP JUMPDEST SWAP1 POP SWAP3 POP SWAP3 SWAP1 POP JUMP JUMPDEST PUSH1 0x0 DUP1 PUSH1 0x40 DUP4 DUP6 SUB SLT ISZERO PUSH2 0x56A4 JUMPI PUSH1 0x0 DUP1 REVERT JUMPDEST DUP3 CALLDATALOAD SWAP2 POP PUSH2 0x5688 PUSH1 0x20 DUP5 ADD PUSH2 0x548C JUMP JUMPDEST PUSH1 0x40 DUP2 ADD DUP2 DUP4 PUSH1 0x0 JUMPDEST PUSH1 0x2 DUP2 LT ISZERO PUSH2 0x4A35 JUMPI DUP2 MLOAD DUP4 MSTORE PUSH1 0x20 SWAP3 DUP4 ADD SWAP3 SWAP1 SWAP2 ADD SWAP1 PUSH1 0x1 ADD PUSH2 0x56BD JUMP JUMPDEST PUSH1 0x0 DUP1 PUSH1 0x0 PUSH1 0x60 DUP5 DUP7 SUB SLT ISZERO PUSH2 0x56F1 JUMPI PUSH1 0x0 DUP1 REVERT JUMPDEST PUSH2 0x56FA DUP5 PUSH2 0x548C JUMP JUMPDEST SWAP3 POP PUSH1 0x20 DUP5 ADD CALLDATALOAD SWAP2 POP PUSH2 0x5500 PUSH1 0x40 DUP6 ADD PUSH2 0x5650 JUMP JUMPDEST PUSH4 0x4E487B71 PUSH1 0xE0 SHL PUSH1 0x0 MSTORE PUSH1 0x41 PUSH1 0x4 MSTORE PUSH1 0x24 PUSH1 0x0 REVERT JUMPDEST PUSH1 0x40 MLOAD PUSH2 0x160 DUP2 ADD PUSH8 0xFFFFFFFFFFFFFFFF DUP2 GT DUP3 DUP3 LT OR ISZERO PUSH2 0x5757 JUMPI PUSH4 0x4E487B71 PUSH1 0xE0 SHL PUSH1 0x0 MSTORE PUSH1 0x41 PUSH1 0x4 MSTORE PUSH1 0x24 PUSH1 0x0 REVERT JUMPDEST PUSH1 0x40 MSTORE SWAP1 JUMP JUMPDEST PUSH1 0x0 PUSH2 0x160 DUP3 DUP5 SUB SLT ISZERO PUSH2 0x5770 JUMPI PUSH1 0x0 DUP1 REVERT JUMPDEST PUSH2 0x5778 PUSH2 0x5725 JUMP JUMPDEST SWAP1 POP DUP2 CALLDATALOAD DUP2 MSTORE PUSH1 0x20 DUP3 ADD CALLDATALOAD PUSH1 0x20 DUP3 ADD MSTORE PUSH1 0x40 DUP3 ADD CALLDATALOAD PUSH1 0x40 DUP3 ADD MSTORE PUSH1 0x60 DUP3 ADD CALLDATALOAD PUSH1 0x60 DUP3 ADD MSTORE PUSH1 0x80 DUP3 ADD CALLDATALOAD PUSH1 0x80 DUP3 ADD MSTORE PUSH1 0xA0 DUP3 ADD CALLDATALOAD PUSH1 0xA0 DUP3 ADD MSTORE PUSH2 0x57BC PUSH1 0xC0 DUP4 ADD PUSH2 0x5650 JUMP JUMPDEST PUSH1 0xC0 DUP3 ADD MSTORE PUSH1 0xE0 DUP3 ADD CALLDATALOAD PUSH1 0xE0 DUP3 ADD MSTORE PUSH2 0x100 DUP1 DUP4 ADD CALLDATALOAD DUP2 DUP4 ADD MSTORE POP PUSH2 0x120 DUP1 DUP4 ADD CALLDATALOAD DUP2 DUP4 ADD MSTORE POP PUSH2 0x140 DUP1 DUP4 ADD CALLDATALOAD DUP2 DUP4 ADD MSTORE POP SWAP3 SWAP2 POP POP JUMP JUMPDEST PUSH1 0x0 DUP1 PUSH2 0x2C0 DUP4 DUP6 SUB SLT ISZERO PUSH2 0x5809 JUMPI PUSH1 0x0 DUP1 REVERT JUMPDEST PUSH2 0x5813 DUP5 DUP5 PUSH2 0x575D JUMP JUMPDEST SWAP2 POP PUSH2 0x5688 DUP5 PUSH2 0x160 DUP6 ADD PUSH2 0x575D JUMP JUMPDEST PUSH1 0x20 DUP1 DUP3 MSTORE DUP3 MLOAD DUP3 DUP3 ADD DUP2 SWAP1 MSTORE PUSH1 0x0 SWAP2 SWAP1 DUP5 DUP3 ADD SWAP1 PUSH1 0x40 DUP6 ADD SWAP1 DUP5 JUMPDEST DUP2 DUP2 LT ISZERO PUSH2 0x585B JUMPI DUP4 MLOAD DUP4 MSTORE SWAP3 DUP5 ADD SWAP3 SWAP2 DUP5 ADD SWAP2 PUSH1 0x1 ADD PUSH2 0x583F JUMP JUMPDEST POP SWAP1 SWAP7 SWAP6 POP POP POP POP POP POP JUMP JUMPDEST DUP1 CALLDATALOAD PUSH1 0x1 PUSH1 0x1 PUSH1 0x60 SHL SUB NOT DUP2 AND DUP2 EQ PUSH2 0x1975 JUMPI PUSH1 0x0 DUP1 REVERT JUMPDEST PUSH1 0x0 PUSH1 0x20 DUP3 DUP5 SUB SLT ISZERO PUSH2 0x5891 JUMPI PUSH1 0x0 DUP1 REVERT JUMPDEST PUSH2 0xCB8 DUP3 PUSH2 0x5867 JUMP JUMPDEST PUSH1 0x0 PUSH1 0x20 DUP3 DUP5 SUB SLT ISZERO PUSH2 0x58AC JUMPI PUSH1 0x0 DUP1 REVERT JUMPDEST POP CALLDATALOAD SWAP2 SWAP1 POP JUMP JUMPDEST PUSH1 0x0 DUP1 PUSH1 0x0 DUP1 PUSH1 0x60 DUP6 DUP8 SUB SLT ISZERO PUSH2 0x58C9 JUMPI PUSH1 0x0 DUP1 REVERT JUMPDEST PUSH2 0x58D2 DUP6 PUSH2 0x5867 JUMP JUMPDEST SWAP4 POP PUSH1 0x20 DUP6 ADD CALLDATALOAD SWAP3 POP PUSH1 0x40 DUP6 ADD CALLDATALOAD PUSH8 0xFFFFFFFFFFFFFFFF DUP2 GT ISZERO PUSH2 0x58F5 JUMPI PUSH1 0x0 DUP1 REVERT JUMPDEST PUSH2 0x5901 DUP8 DUP3 DUP9 ADD PUSH2 0x5545 JUMP JUMPDEST SWAP6 SWAP9 SWAP5 SWAP8 POP SWAP6 POP POP POP POP JUMP JUMPDEST PUSH1 0x0 DUP1 PUSH1 0x0 DUP1 PUSH1 0x0 DUP1 PUSH1 0x0 DUP1 PUSH1 0x0 DUP1 PUSH1 0x0 DUP1 PUSH2 0x160 DUP14 DUP16 SUB SLT ISZERO PUSH2 0x5930 JUMPI PUSH1 0x0 DUP1 REVERT JUMPDEST DUP13 CALLDATALOAD SWAP12 POP PUSH8 0xFFFFFFFFFFFFFFFF PUSH1 0x20 DUP15 ADD CALLDATALOAD GT ISZERO PUSH2 0x594D JUMPI PUSH1 0x0 DUP1 REVERT JUMPDEST PUSH2 0x595D DUP15 PUSH1 0x20 DUP16 ADD CALLDATALOAD DUP16 ADD PUSH2 0x5545 JUMP JUMPDEST SWAP1 SWAP12 POP SWAP10 POP PUSH2 0x596E PUSH1 0x40 DUP15 ADD PUSH2 0x548C JUMP JUMPDEST SWAP9 POP PUSH1 0x60 DUP14 ADD CALLDATALOAD SWAP8 POP PUSH1 0x80 DUP14 ADD CALLDATALOAD SWAP7 POP PUSH2 0x598A PUSH1 0xA0 DUP15 ADD PUSH2 0x55D6 JUMP JUMPDEST SWAP6 POP PUSH2 0x5998 PUSH1 0xC0 DUP15 ADD PUSH2 0x55D6 JUMP JUMPDEST SWAP5 POP PUSH1 0xE0 DUP14 ADD CALLDATALOAD SWAP4 POP PUSH2 0x100 DUP14 ADD CALLDATALOAD SWAP3 POP PUSH2 0x120 DUP14 ADD CALLDATALOAD SWAP2 POP PUSH2 0x59BE PUSH2 0x140 DUP15 ADD PUSH2 0x548C JUMP JUMPDEST SWAP1 POP SWAP3 SWAP6 SWAP9 SWAP12 POP SWAP3 SWAP6 SWAP9 SWAP12 POP SWAP3 SWAP6 SWAP9 SWAP12 JUMP JUMPDEST PUSH1 0x0 DUP1 PUSH1 0x0 DUP1 PUSH1 0x0 DUP1 PUSH1 0x0 DUP1 PUSH2 0x100 DUP10 DUP12 SUB SLT ISZERO PUSH2 0x59ED JUMPI PUSH1 0x0 DUP1 REVERT JUMPDEST PUSH2 0x59F6 DUP10 PUSH2 0x548C JUMP JUMPDEST SWAP8 POP PUSH1 0x20 DUP10 ADD CALLDATALOAD SWAP7 POP PUSH1 0x40 DUP10 ADD CALLDATALOAD SWAP6 POP PUSH1 0x60 DUP10 ADD CALLDATALOAD SWAP5 POP PUSH2 0x5A19 PUSH1 0x80 DUP11 ADD PUSH2 0x55D6 JUMP JUMPDEST SWAP4 POP PUSH2 0x5A27 PUSH1 0xA0 DUP11 ADD PUSH2 0x55D6 JUMP JUMPDEST SWAP3 POP PUSH1 0xC0 DUP10 ADD CALLDATALOAD SWAP2 POP PUSH1 0xE0 DUP10 ADD CALLDATALOAD SWAP1 POP SWAP3 SWAP6 SWAP9 POP SWAP3 SWAP6 SWAP9 SWAP1 SWAP4 SWAP7 POP JUMP JUMPDEST PUSH1 0x0 DUP1 PUSH1 0x40 DUP4 DUP6 SUB SLT ISZERO PUSH2 0x5A57 JUMPI PUSH1 0x0 DUP1 REVERT JUMPDEST PUSH2 0x5A60 DUP4 PUSH2 0x548C JUMP JUMPDEST SWAP2 POP PUSH2 0x5688 PUSH1 0x20 DUP5 ADD PUSH2 0x548C JUMP JUMPDEST PUSH2 0x1A0 DUP2 ADD DUP2 DUP4 PUSH1 0x0 JUMPDEST PUSH1 0xD DUP2 LT ISZERO PUSH2 0x4A35 JUMPI DUP2 MLOAD DUP4 MSTORE PUSH1 0x20 SWAP3 DUP4 ADD SWAP3 SWAP1 SWAP2 ADD SWAP1 PUSH1 0x1 ADD PUSH2 0x5A78 JUMP JUMPDEST PUSH1 0x1 DUP2 DUP2 SHR SWAP1 DUP3 AND DUP1 PUSH2 0x5AAB JUMPI PUSH1 0x7F DUP3 AND SWAP2 POP JUMPDEST PUSH1 0x20 DUP3 LT DUP2 SUB PUSH2 0x1333 JUMPI PUSH4 0x4E487B71 PUSH1 0xE0 SHL PUSH1 0x0 MSTORE PUSH1 0x22 PUSH1 0x4 MSTORE PUSH1 0x24 PUSH1 0x0 REVERT JUMPDEST PUSH4 0x4E487B71 PUSH1 0xE0 SHL PUSH1 0x0 MSTORE PUSH1 0x11 PUSH1 0x4 MSTORE PUSH1 0x24 PUSH1 0x0 REVERT JUMPDEST PUSH1 0x1 DUP2 DUP2 JUMPDEST DUP1 DUP6 GT ISZERO PUSH2 0x5B1C JUMPI DUP2 PUSH1 0x0 NOT DIV DUP3 GT ISZERO PUSH2 0x5B02 JUMPI PUSH2 0x5B02 PUSH2 0x5ACB JUMP JUMPDEST DUP1 DUP6 AND ISZERO PUSH2 0x5B0F JUMPI SWAP2 DUP2 MUL SWAP2 JUMPDEST SWAP4 DUP5 SHR SWAP4 SWAP1 DUP1 MUL SWAP1 PUSH2 0x5AE6 JUMP JUMPDEST POP SWAP3 POP SWAP3 SWAP1 POP JUMP JUMPDEST PUSH1 0x0 DUP3 PUSH2 0x5B33 JUMPI POP PUSH1 0x1 PUSH2 0xBF7 JUMP JUMPDEST DUP2 PUSH2 0x5B40 JUMPI POP PUSH1 0x0 PUSH2 0xBF7 JUMP JUMPDEST DUP2 PUSH1 0x1 DUP2 EQ PUSH2 0x5B56 JUMPI PUSH1 0x2 DUP2 EQ PUSH2 0x5B60 JUMPI PUSH2 0x5B7C JUMP JUMPDEST PUSH1 0x1 SWAP2 POP POP PUSH2 0xBF7 JUMP JUMPDEST PUSH1 0xFF DUP5 GT ISZERO PUSH2 0x5B71 JUMPI PUSH2 0x5B71 PUSH2 0x5ACB JUMP JUMPDEST POP POP PUSH1 0x1 DUP3 SHL PUSH2 0xBF7 JUMP JUMPDEST POP PUSH1 0x20 DUP4 LT PUSH2 0x133 DUP4 LT AND PUSH1 0x4E DUP5 LT PUSH1 0xB DUP5 LT AND OR ISZERO PUSH2 0x5B9F JUMPI POP DUP2 DUP2 EXP PUSH2 0xBF7 JUMP JUMPDEST PUSH2 0x5BA9 DUP4 DUP4 PUSH2 0x5AE1 JUMP JUMPDEST DUP1 PUSH1 0x0 NOT DIV DUP3 GT ISZERO PUSH2 0x5BBD JUMPI PUSH2 0x5BBD PUSH2 0x5ACB JUMP JUMPDEST MUL SWAP4 SWAP3 POP POP POP JUMP JUMPDEST PUSH1 0x0 PUSH2 0xCB8 DUP4 DUP4 PUSH2 0x5B24 JUMP JUMPDEST PUSH1 0x0 DUP3 PUSH2 0x5BEE JUMPI PUSH4 0x4E487B71 PUSH1 0xE0 SHL PUSH1 0x0 MSTORE PUSH1 0x12 PUSH1 0x4 MSTORE PUSH1 0x24 PUSH1 0x0 REVERT JUMPDEST POP DIV SWAP1 JUMP JUMPDEST DUP1 DUP3 MUL DUP2 ISZERO DUP3 DUP3 DIV DUP5 EQ OR PUSH2 0xBF7 JUMPI PUSH2 0xBF7 PUSH2 0x5ACB JUMP JUMPDEST PUSH4 0x4E487B71 PUSH1 0xE0 SHL PUSH1 0x0 MSTORE PUSH1 0x32 PUSH1 0x4 MSTORE PUSH1 0x24 PUSH1 0x0 REVERT JUMPDEST DUP2 DUP2 SUB DUP2 DUP2 GT ISZERO PUSH2 0xBF7 JUMPI PUSH2 0xBF7 PUSH2 0x5ACB JUMP JUMPDEST DUP1 DUP3 ADD DUP1 DUP3 GT ISZERO PUSH2 0xBF7 JUMPI PUSH2 0xBF7 PUSH2 0x5ACB JUMP JUMPDEST PUSH1 0x0 DUP2 PUSH2 0x5C55 JUMPI PUSH2 0x5C55 PUSH2 0x5ACB JUMP JUMPDEST POP PUSH1 0x0 NOT ADD SWAP1 JUMP JUMPDEST PUSH1 0x0 PUSH1 0x1 DUP3 ADD PUSH2 0x5C6F JUMPI PUSH2 0x5C6F PUSH2 0x5ACB JUMP JUMPDEST POP PUSH1 0x1 ADD SWAP1 JUMP JUMPDEST PUSH1 0x20 DUP1 DUP3 MSTORE PUSH1 0x25 SWAP1 DUP3 ADD MSTORE PUSH32 0x4D594E543A20436C61696D20706861736520686173206E6F7420796574207374 PUSH1 0x40 DUP3 ADD MSTORE PUSH5 0x185C9D1959 PUSH1 0xDA SHL PUSH1 0x60 DUP3 ADD MSTORE PUSH1 0x80 ADD SWAP1 JUMP JUMPDEST PUSH1 0x0 PUSH5 0xFFFFFFFFFF DUP1 DUP4 AND DUP2 DUP2 SUB PUSH2 0x5CD5 JUMPI PUSH2 0x5CD5 PUSH2 0x5ACB JUMP JUMPDEST PUSH1 0x1 ADD SWAP4 SWAP3 POP POP POP JUMP JUMPDEST PUSH1 0x0 DUP3 MLOAD PUSH2 0x5CF1 DUP2 DUP5 PUSH1 0x20 DUP8 ADD PUSH2 0x5429 JUMP JUMPDEST SWAP2 SWAP1 SWAP2 ADD SWAP3 SWAP2 POP POP JUMP JUMPDEST PUSH1 0x0 PUSH1 0x20 DUP3 DUP5 SUB SLT ISZERO PUSH2 0x5D0D JUMPI PUSH1 0x0 DUP1 REVERT JUMPDEST POP MLOAD SWAP2 SWAP1 POP JUMP JUMPDEST PUSH4 0x4E487B71 PUSH1 0xE0 SHL PUSH1 0x0 MSTORE PUSH1 0x31 PUSH1 0x4 MSTORE PUSH1 0x24 PUSH1 0x0 REVERT JUMPDEST PUSH1 0x40 DUP2 MSTORE PUSH1 0x0 PUSH2 0x5D3D PUSH1 0x40 DUP4 ADD DUP6 PUSH2 0x544D JUMP JUMPDEST SWAP1 POP DUP3 PUSH1 0x20 DUP4 ADD MSTORE SWAP4 SWAP3 POP POP POP JUMP JUMPDEST PUSH1 0xFF DUP2 DUP2 AND DUP4 DUP3 AND MUL SWAP1 DUP2 AND SWAP1 DUP2 DUP2 EQ PUSH2 0x5D68 JUMPI PUSH2 0x5D68 PUSH2 0x5ACB JUMP JUMPDEST POP SWAP3 SWAP2 POP POP JUMP JUMPDEST PUSH1 0xFF DUP2 DUP2 AND DUP4 DUP3 AND ADD SWAP1 DUP2 GT ISZERO PUSH2 0xBF7 JUMPI PUSH2 0xBF7 PUSH2 0x5ACB JUMP JUMPDEST PUSH1 0x1 PUSH1 0x1 PUSH1 0xF8 SHL SUB NOT PUSH1 0xF8 DUP8 DUP2 SHL DUP3 AND DUP4 MSTORE PUSH8 0xFFFFFFFFFFFFFFFF NOT DUP8 AND PUSH1 0x1 DUP5 ADD MSTORE DUP6 SWAP1 SHL AND PUSH1 0x19 DUP3 ADD MSTORE DUP3 MLOAD PUSH1 0x0 SWAP1 PUSH2 0x5DCA DUP2 PUSH1 0x1A DUP6 ADD PUSH1 0x20 DUP9 ADD PUSH2 0x5429 JUMP JUMPDEST DUP4 MLOAD SWAP1 DUP4 ADD SWAP1 PUSH2 0x5DE1 DUP2 PUSH1 0x1A DUP5 ADD PUSH1 0x20 DUP9 ADD PUSH2 0x5429 JUMP JUMPDEST ADD PUSH1 0x1A ADD SWAP8 SWAP7 POP POP POP POP POP POP POP JUMP JUMPDEST PUSH1 0x1 PUSH1 0x1 PUSH1 0xF8 SHL SUB NOT PUSH1 0xF8 DUP9 DUP2 SHL DUP3 AND DUP4 MSTORE PUSH8 0xFFFFFFFFFFFFFFFF NOT DUP9 AND PUSH1 0x1 DUP5 ADD MSTORE DUP7 SWAP1 SHL AND PUSH1 0x19 DUP3 ADD MSTORE DUP4 MLOAD PUSH1 0x0 SWAP1 PUSH2 0x5E32 DUP2 PUSH1 0x1A DUP6 ADD PUSH1 0x20 DUP10 ADD PUSH2 0x5429 JUMP JUMPDEST DUP5 MLOAD SWAP1 DUP4 ADD SWAP1 PUSH2 0x5E49 DUP2 PUSH1 0x1A DUP5 ADD PUSH1 0x20 DUP10 ADD PUSH2 0x5429 JUMP JUMPDEST PUSH1 0x5F PUSH1 0xF8 SHL PUSH1 0x1A SWAP3 SWAP1 SWAP2 ADD SWAP2 DUP3 ADD MSTORE DUP4 MLOAD PUSH2 0x5E6B DUP2 PUSH1 0x1B DUP5 ADD PUSH1 0x20 DUP9 ADD PUSH2 0x5429 JUMP JUMPDEST ADD PUSH1 0x1B ADD SWAP9 SWAP8 POP POP POP POP POP POP POP POP JUMP INVALID LOG2 PUSH5 0x6970667358 0x22 SLT KECCAK256 DUP4 0xD3 0xCB PUSH13 0x58B69C463DE050C20008C7C26D 0xED 0xCD 0xF9 0xFB 0xF GASPRICE SWAP6 0xC4 PUSH1 0x32 CALL LOG3 GASLIMIT 0x4B 0x21 PUSH5 0x736F6C6343 STOP ADDMOD SGT STOP CALLER "
		},
		"gasEstimates": {
			"creation": {
				"codeDepositCost": "4848200",
				"executionCost": "infinite",
				"totalCost": "infinite"
			},
			"external": {
				"CLAIM_PHASE_DAYS()": "341",
				"FLUSH_ADDR()": "351",
				"HEARTS_PER_SATOSHI()": "infinite",
				"_waasLobby(uint256)": "infinite",
				"allocatedSupply()": "4685",
				"allowance(address,address)": "infinite",
				"approve(address,uint256)": "24674",
				"balanceOf(address)": "2608",
				"btcAddressClaim(uint256,bytes32[],address,bytes32,bytes32,uint8,uint8,bytes32,bytes32,uint256,address)": "infinite",
				"btcAddressClaims(bytes20)": "2624",
				"btcAddressIsClaimable(bytes20,uint256,bytes32[])": "infinite",
				"btcAddressIsValid(bytes20,uint256,bytes32[])": "infinite",
				"calculateEntryId(uint256,uint256)": "567",
				"claimMessageMatchesSignature(address,bytes32,bytes32,bytes32,uint8,uint8,bytes32,bytes32)": "infinite",
				"contractOwner()": "infinite",
				"currentDay()": "infinite",
				"dailyData(uint256)": "2678",
				"dailyDataRange(uint256,uint256)": "infinite",
				"dailyDataUpdate(uint256)": "infinite",
				"decimals()": "333",
				"decreaseAllowance(address,uint256)": "26995",
				"getGlobalsLoad((uint256,uint256,uint256,uint256,uint256,uint256,uint40,uint256,uint256,uint256,uint256),(uint256,uint256,uint256,uint256,uint256,uint256,uint40,uint256,uint256,uint256,uint256))": "infinite",
				"getTreasureBoxAddress()": "2443",
				"globalInfo()": "infinite",
				"globals()": "4948",
				"increaseAllowance(address,uint256)": "infinite",
				"merkleProofIsValid(bytes32,bytes32[])": "infinite",
				"mint(address,uint256,address)": "infinite",
				"name()": "infinite",
				"pubKeyToBtcAddress(bytes32,bytes32,uint8)": "infinite",
				"pubKeyToEthAddress(bytes32,bytes32)": "609",
				"setTreasureBoxAddress(address)": "infinite",
				"stakeCount(address)": "2605",
				"stakeEnd(uint256,uint40)": "infinite",
				"stakeGoodAccounting(address,uint256,uint40)": "infinite",
				"stakeLists(address,uint256)": "5164",
				"stakeStart(uint256,uint256)": "infinite",
				"symbol()": "infinite",
				"totalSupply()": "2449",
				"transfer(address,uint256)": "51117",
				"transferFrom(address,address,uint256)": "infinite",
				"treasureBoxAddress()": "2426",
				"xfLobby(uint256)": "2550",
				"xfLobbyEnter(address)": "infinite",
				"xfLobbyEntry(address,uint256)": "5211",
				"xfLobbyExit(uint256,uint256)": "infinite",
				"xfLobbyMembers(uint256,address)": "2733",
				"xfLobbyPendingDays(address)": "infinite",
				"xfLobbyRange(uint256,uint256)": "infinite"
			},
			"internal": {
				"_emitXfLobbyEnter(uint256,uint256,uint256,address)": "infinite",
				"_emitXfLobbyExit(uint256,uint256,uint256,address)": "infinite"
			}
		},
		"methodIdentifiers": {
			"CLAIM_PHASE_DAYS()": "319e74f6",
			"FLUSH_ADDR()": "13c5c2c7",
			"HEARTS_PER_SATOSHI()": "1285b047",
			"_waasLobby(uint256)": "8c84a47b",
			"allocatedSupply()": "3a70a5ca",
			"allowance(address,address)": "dd62ed3e",
			"approve(address,uint256)": "095ea7b3",
			"balanceOf(address)": "70a08231",
			"btcAddressClaim(uint256,bytes32[],address,bytes32,bytes32,uint8,uint8,bytes32,bytes32,uint256,address)": "96f62b9d",
			"btcAddressClaims(bytes20)": "7c426620",
			"btcAddressIsClaimable(bytes20,uint256,bytes32[])": "8e21aa01",
			"btcAddressIsValid(bytes20,uint256,bytes32[])": "ec9a1917",
			"calculateEntryId(uint256,uint256)": "a042b1b6",
			"claimMessageMatchesSignature(address,bytes32,bytes32,bytes32,uint8,uint8,bytes32,bytes32)": "d5a373ff",
			"contractOwner()": "ce606ee0",
			"currentDay()": "5c9302c9",
			"dailyData(uint256)": "90de6871",
			"dailyDataRange(uint256,uint256)": "6a210a0e",
			"dailyDataUpdate(uint256)": "8f1c65c0",
			"decimals()": "313ce567",
			"decreaseAllowance(address,uint256)": "a457c2d7",
			"getGlobalsLoad((uint256,uint256,uint256,uint256,uint256,uint256,uint40,uint256,uint256,uint256,uint256),(uint256,uint256,uint256,uint256,uint256,uint256,uint40,uint256,uint256,uint256,uint256))": "65d2a557",
			"getTreasureBoxAddress()": "34dc8bb5",
			"globalInfo()": "f04b5fa0",
			"globals()": "c3124525",
			"increaseAllowance(address,uint256)": "39509351",
			"merkleProofIsValid(bytes32,bytes32[])": "27aa6018",
			"mint(address,uint256,address)": "0d4d1513",
			"name()": "06fdde03",
			"pubKeyToBtcAddress(bytes32,bytes32,uint8)": "283a5baf",
			"pubKeyToEthAddress(bytes32,bytes32)": "30c1a785",
			"setTreasureBoxAddress(address)": "8cba2842",
			"stakeCount(address)": "33060d90",
			"stakeEnd(uint256,uint40)": "343009a2",
			"stakeGoodAccounting(address,uint256,uint40)": "65cf71b2",
			"stakeLists(address,uint256)": "2607443b",
			"stakeStart(uint256,uint256)": "52a438b8",
			"symbol()": "95d89b41",
			"totalSupply()": "18160ddd",
			"transfer(address,uint256)": "a9059cbb",
			"transferFrom(address,address,uint256)": "23b872dd",
			"treasureBoxAddress()": "b626d6fc",
			"xfLobby(uint256)": "87a0f31c",
			"xfLobbyEnter(address)": "ce7d1f77",
			"xfLobbyEntry(address,uint256)": "bd926ed3",
			"xfLobbyExit(uint256,uint256)": "cbb151d3",
			"xfLobbyMembers(uint256,address)": "44203faf",
			"xfLobbyPendingDays(address)": "44f0de75",
			"xfLobbyRange(uint256,uint256)": "f57a1b3c"
		}
	},
	"abi": [
		{
			"anonymous": false,
			"inputs": [
				{
					"indexed": true,
					"internalType": "address",
					"name": "owner",
					"type": "address"
				},
				{
					"indexed": true,
					"internalType": "address",
					"name": "spender",
					"type": "address"
				},
				{
					"indexed": false,
					"internalType": "uint256",
					"name": "value",
					"type": "uint256"
				}
			],
			"name": "Approval",
			"type": "event"
		},
		{
			"anonymous": false,
			"inputs": [
				{
					"indexed": false,
					"internalType": "uint256",
					"name": "data0",
					"type": "uint256"
				},
				{
					"indexed": false,
					"internalType": "uint256",
					"name": "data1",
					"type": "uint256"
				},
				{
					"indexed": true,
					"internalType": "bytes20",
					"name": "btcAddr",
					"type": "bytes20"
				},
				{
					"indexed": true,
					"internalType": "address",
					"name": "claimToAddr",
					"type": "address"
				},
				{
					"indexed": true,
					"internalType": "address",
					"name": "referrerAddr",
					"type": "address"
				}
			],
			"name": "Claim",
			"type": "event"
		},
		{
			"anonymous": false,
			"inputs": [
				{
					"indexed": false,
					"internalType": "uint256",
					"name": "data0",
					"type": "uint256"
				},
				{
					"indexed": false,
					"internalType": "uint256",
					"name": "data1",
					"type": "uint256"
				},
				{
					"indexed": false,
					"internalType": "uint256",
					"name": "data2",
					"type": "uint256"
				},
				{
					"indexed": true,
					"internalType": "address",
					"name": "senderAddr",
					"type": "address"
				}
			],
			"name": "ClaimAssist",
			"type": "event"
		},
		{
			"anonymous": false,
			"inputs": [
				{
					"indexed": false,
					"internalType": "uint256",
					"name": "data0",
					"type": "uint256"
				},
				{
					"indexed": true,
					"internalType": "address",
					"name": "updaterAddr",
					"type": "address"
				}
			],
			"name": "DailyDataUpdate",
			"type": "event"
		},
		{
			"anonymous": false,
			"inputs": [
				{
					"indexed": false,
					"internalType": "uint256",
					"name": "data0",
					"type": "uint256"
				},
				{
					"indexed": true,
					"internalType": "uint40",
					"name": "stakeId",
					"type": "uint40"
				}
			],
			"name": "ShareRateChange",
			"type": "event"
		},
		{
			"anonymous": false,
			"inputs": [
				{
					"indexed": false,
					"internalType": "uint256",
					"name": "data0",
					"type": "uint256"
				},
				{
					"indexed": false,
					"internalType": "uint256",
					"name": "data1",
					"type": "uint256"
				},
				{
					"indexed": true,
					"internalType": "address",
					"name": "stakerAddr",
					"type": "address"
				},
				{
					"indexed": true,
					"internalType": "uint40",
					"name": "stakeId",
					"type": "uint40"
				}
			],
			"name": "StakeEnd",
			"type": "event"
		},
		{
			"anonymous": false,
			"inputs": [
				{
					"indexed": false,
					"internalType": "uint256",
					"name": "data0",
					"type": "uint256"
				},
				{
					"indexed": false,
					"internalType": "uint256",
					"name": "data1",
					"type": "uint256"
				},
				{
					"indexed": true,
					"internalType": "address",
					"name": "stakerAddr",
					"type": "address"
				},
				{
					"indexed": true,
					"internalType": "uint40",
					"name": "stakeId",
					"type": "uint40"
				},
				{
					"indexed": true,
					"internalType": "address",
					"name": "senderAddr",
					"type": "address"
				}
			],
			"name": "StakeGoodAccounting",
			"type": "event"
		},
		{
			"anonymous": false,
			"inputs": [
				{
					"indexed": false,
					"internalType": "uint256",
					"name": "data0",
					"type": "uint256"
				},
				{
					"indexed": true,
					"internalType": "address",
					"name": "stakerAddr",
					"type": "address"
				},
				{
					"indexed": true,
					"internalType": "uint40",
					"name": "stakeId",
					"type": "uint40"
				}
			],
			"name": "StakeStart",
			"type": "event"
		},
		{
			"anonymous": false,
			"inputs": [
				{
					"indexed": true,
					"internalType": "address",
					"name": "from",
					"type": "address"
				},
				{
					"indexed": true,
					"internalType": "address",
					"name": "to",
					"type": "address"
				},
				{
					"indexed": false,
					"internalType": "uint256",
					"name": "value",
					"type": "uint256"
				}
			],
			"name": "Transfer",
			"type": "event"
		},
		{
			"anonymous": false,
			"inputs": [
				{
					"indexed": false,
					"internalType": "uint256",
					"name": "data0",
					"type": "uint256"
				},
				{
					"indexed": true,
					"internalType": "address",
					"name": "memberAddr",
					"type": "address"
				},
				{
					"indexed": true,
					"internalType": "uint256",
					"name": "entryId",
					"type": "uint256"
				},
				{
					"indexed": true,
					"internalType": "address",
					"name": "referrerAddr",
					"type": "address"
				}
			],
			"name": "XfLobbyEnter",
			"type": "event"
		},
		{
			"anonymous": false,
			"inputs": [
				{
					"indexed": false,
					"internalType": "uint256",
					"name": "data0",
					"type": "uint256"
				},
				{
					"indexed": true,
					"internalType": "address",
					"name": "memberAddr",
					"type": "address"
				},
				{
					"indexed": true,
					"internalType": "uint256",
					"name": "entryId",
					"type": "uint256"
				},
				{
					"indexed": true,
					"internalType": "address",
					"name": "referrerAddr",
					"type": "address"
				}
			],
			"name": "XfLobbyExit",
			"type": "event"
		},
		{
			"inputs": [],
			"name": "CLAIM_PHASE_DAYS",
			"outputs": [
				{
					"internalType": "uint256",
					"name": "",
					"type": "uint256"
				}
			],
			"stateMutability": "view",
			"type": "function"
		},
		{
			"inputs": [],
			"name": "FLUSH_ADDR",
			"outputs": [
				{
					"internalType": "address payable",
					"name": "",
					"type": "address"
				}
			],
			"stateMutability": "view",
			"type": "function"
		},
		{
			"inputs": [],
			"name": "HEARTS_PER_SATOSHI",
			"outputs": [
				{
					"internalType": "uint256",
					"name": "",
					"type": "uint256"
				}
			],
			"stateMutability": "view",
			"type": "function"
		},
		{
			"inputs": [
				{
					"internalType": "uint256",
					"name": "enterDay",
					"type": "uint256"
				}
			],
			"name": "_waasLobby",
			"outputs": [
				{
					"internalType": "uint256",
					"name": "waasLobby",
					"type": "uint256"
				}
			],
			"stateMutability": "nonpayable",
			"type": "function"
		},
		{
			"inputs": [],
			"name": "allocatedSupply",
			"outputs": [
				{
					"internalType": "uint256",
					"name": "",
					"type": "uint256"
				}
			],
			"stateMutability": "view",
			"type": "function"
		},
		{
			"inputs": [
				{
					"internalType": "address",
					"name": "owner",
					"type": "address"
				},
				{
					"internalType": "address",
					"name": "spender",
					"type": "address"
				}
			],
			"name": "allowance",
			"outputs": [
				{
					"internalType": "uint256",
					"name": "",
					"type": "uint256"
				}
			],
			"stateMutability": "view",
			"type": "function"
		},
		{
			"inputs": [
				{
					"internalType": "address",
					"name": "spender",
					"type": "address"
				},
				{
					"internalType": "uint256",
					"name": "amount",
					"type": "uint256"
				}
			],
			"name": "approve",
			"outputs": [
				{
					"internalType": "bool",
					"name": "",
					"type": "bool"
				}
			],
			"stateMutability": "nonpayable",
			"type": "function"
		},
		{
			"inputs": [
				{
					"internalType": "address",
					"name": "account",
					"type": "address"
				}
			],
			"name": "balanceOf",
			"outputs": [
				{
					"internalType": "uint256",
					"name": "",
					"type": "uint256"
				}
			],
			"stateMutability": "view",
			"type": "function"
		},
		{
			"inputs": [
				{
					"internalType": "uint256",
					"name": "rawSatoshis",
					"type": "uint256"
				},
				{
					"internalType": "bytes32[]",
					"name": "proof",
					"type": "bytes32[]"
				},
				{
					"internalType": "address",
					"name": "claimToAddr",
					"type": "address"
				},
				{
					"internalType": "bytes32",
					"name": "pubKeyX",
					"type": "bytes32"
				},
				{
					"internalType": "bytes32",
					"name": "pubKeyY",
					"type": "bytes32"
				},
				{
					"internalType": "uint8",
					"name": "claimFlags",
					"type": "uint8"
				},
				{
					"internalType": "uint8",
					"name": "v",
					"type": "uint8"
				},
				{
					"internalType": "bytes32",
					"name": "r",
					"type": "bytes32"
				},
				{
					"internalType": "bytes32",
					"name": "s",
					"type": "bytes32"
				},
				{
					"internalType": "uint256",
					"name": "autoStakeDays",
					"type": "uint256"
				},
				{
					"internalType": "address",
					"name": "referrerAddr",
					"type": "address"
				}
			],
			"name": "btcAddressClaim",
			"outputs": [
				{
					"internalType": "uint256",
					"name": "",
					"type": "uint256"
				}
			],
			"stateMutability": "nonpayable",
			"type": "function"
		},
		{
			"inputs": [
				{
					"internalType": "bytes20",
					"name": "",
					"type": "bytes20"
				}
			],
			"name": "btcAddressClaims",
			"outputs": [
				{
					"internalType": "bool",
					"name": "",
					"type": "bool"
				}
			],
			"stateMutability": "view",
			"type": "function"
		},
		{
			"inputs": [
				{
					"internalType": "bytes20",
					"name": "btcAddr",
					"type": "bytes20"
				},
				{
					"internalType": "uint256",
					"name": "rawSatoshis",
					"type": "uint256"
				},
				{
					"internalType": "bytes32[]",
					"name": "proof",
					"type": "bytes32[]"
				}
			],
			"name": "btcAddressIsClaimable",
			"outputs": [
				{
					"internalType": "bool",
					"name": "",
					"type": "bool"
				}
			],
			"stateMutability": "view",
			"type": "function"
		},
		{
			"inputs": [
				{
					"internalType": "bytes20",
					"name": "btcAddr",
					"type": "bytes20"
				},
				{
					"internalType": "uint256",
					"name": "rawSatoshis",
					"type": "uint256"
				},
				{
					"internalType": "bytes32[]",
					"name": "proof",
					"type": "bytes32[]"
				}
			],
			"name": "btcAddressIsValid",
			"outputs": [
				{
					"internalType": "bool",
					"name": "",
					"type": "bool"
				}
			],
			"stateMutability": "pure",
			"type": "function"
		},
		{
			"inputs": [
				{
					"internalType": "uint256",
					"name": "enterDay",
					"type": "uint256"
				},
				{
					"internalType": "uint256",
					"name": "entryIndex",
					"type": "uint256"
				}
			],
			"name": "calculateEntryId",
			"outputs": [
				{
					"internalType": "uint256",
					"name": "entryId",
					"type": "uint256"
				}
			],
			"stateMutability": "pure",
			"type": "function"
		},
		{
			"inputs": [
				{
					"internalType": "address",
					"name": "claimToAddr",
					"type": "address"
				},
				{
					"internalType": "bytes32",
					"name": "claimParamHash",
					"type": "bytes32"
				},
				{
					"internalType": "bytes32",
					"name": "pubKeyX",
					"type": "bytes32"
				},
				{
					"internalType": "bytes32",
					"name": "pubKeyY",
					"type": "bytes32"
				},
				{
					"internalType": "uint8",
					"name": "claimFlags",
					"type": "uint8"
				},
				{
					"internalType": "uint8",
					"name": "v",
					"type": "uint8"
				},
				{
					"internalType": "bytes32",
					"name": "r",
					"type": "bytes32"
				},
				{
					"internalType": "bytes32",
					"name": "s",
					"type": "bytes32"
				}
			],
			"name": "claimMessageMatchesSignature",
			"outputs": [
				{
					"internalType": "bool",
					"name": "",
					"type": "bool"
				}
			],
			"stateMutability": "pure",
			"type": "function"
		},
		{
			"inputs": [],
			"name": "contractOwner",
			"outputs": [
				{
					"internalType": "address",
					"name": "",
					"type": "address"
				}
			],
			"stateMutability": "view",
			"type": "function"
		},
		{
			"inputs": [],
			"name": "currentDay",
			"outputs": [
				{
					"internalType": "uint256",
					"name": "",
					"type": "uint256"
				}
			],
			"stateMutability": "view",
			"type": "function"
		},
		{
			"inputs": [
				{
					"internalType": "uint256",
					"name": "",
					"type": "uint256"
				}
			],
			"name": "dailyData",
			"outputs": [
				{
					"internalType": "uint72",
					"name": "dayPayoutTotal",
					"type": "uint72"
				},
				{
					"internalType": "uint72",
					"name": "dayStakeSharesTotal",
					"type": "uint72"
				},
				{
					"internalType": "uint56",
					"name": "dayUnclaimedSatoshisTotal",
					"type": "uint56"
				}
			],
			"stateMutability": "view",
			"type": "function"
		},
		{
			"inputs": [
				{
					"internalType": "uint256",
					"name": "beginDay",
					"type": "uint256"
				},
				{
					"internalType": "uint256",
					"name": "endDay",
					"type": "uint256"
				}
			],
			"name": "dailyDataRange",
			"outputs": [
				{
					"internalType": "uint256[]",
					"name": "list",
					"type": "uint256[]"
				}
			],
			"stateMutability": "view",
			"type": "function"
		},
		{
			"inputs": [
				{
					"internalType": "uint256",
					"name": "beforeDay",
					"type": "uint256"
				}
			],
			"name": "dailyDataUpdate",
			"outputs": [],
			"stateMutability": "nonpayable",
			"type": "function"
		},
		{
			"inputs": [],
			"name": "decimals",
			"outputs": [
				{
					"internalType": "uint8",
					"name": "",
					"type": "uint8"
				}
			],
			"stateMutability": "view",
			"type": "function"
		},
		{
			"inputs": [
				{
					"internalType": "address",
					"name": "spender",
					"type": "address"
				},
				{
					"internalType": "uint256",
					"name": "subtractedValue",
					"type": "uint256"
				}
			],
			"name": "decreaseAllowance",
			"outputs": [
				{
					"internalType": "bool",
					"name": "",
					"type": "bool"
				}
			],
			"stateMutability": "nonpayable",
			"type": "function"
		},
		{
			"inputs": [
				{
					"components": [
						{
							"internalType": "uint256",
							"name": "_lockedHeartsTotal",
							"type": "uint256"
						},
						{
							"internalType": "uint256",
							"name": "_nextStakeSharesTotal",
							"type": "uint256"
						},
						{
							"internalType": "uint256",
							"name": "_shareRate",
							"type": "uint256"
						},
						{
							"internalType": "uint256",
							"name": "_stakePenaltyTotal",
							"type": "uint256"
						},
						{
							"internalType": "uint256",
							"name": "_dailyDataCount",
							"type": "uint256"
						},
						{
							"internalType": "uint256",
							"name": "_stakeSharesTotal",
							"type": "uint256"
						},
						{
							"internalType": "uint40",
							"name": "_latestStakeId",
							"type": "uint40"
						},
						{
							"internalType": "uint256",
							"name": "_unclaimedSatoshisTotal",
							"type": "uint256"
						},
						{
							"internalType": "uint256",
							"name": "_claimedSatoshisTotal",
							"type": "uint256"
						},
						{
							"internalType": "uint256",
							"name": "_claimedBtcAddrCount",
							"type": "uint256"
						},
						{
							"internalType": "uint256",
							"name": "_currentDay",
							"type": "uint256"
						}
					],
					"internalType": "struct IGlobals.GlobalsCache",
					"name": "g",
					"type": "tuple"
				},
				{
					"components": [
						{
							"internalType": "uint256",
							"name": "_lockedHeartsTotal",
							"type": "uint256"
						},
						{
							"internalType": "uint256",
							"name": "_nextStakeSharesTotal",
							"type": "uint256"
						},
						{
							"internalType": "uint256",
							"name": "_shareRate",
							"type": "uint256"
						},
						{
							"internalType": "uint256",
							"name": "_stakePenaltyTotal",
							"type": "uint256"
						},
						{
							"internalType": "uint256",
							"name": "_dailyDataCount",
							"type": "uint256"
						},
						{
							"internalType": "uint256",
							"name": "_stakeSharesTotal",
							"type": "uint256"
						},
						{
							"internalType": "uint40",
							"name": "_latestStakeId",
							"type": "uint40"
						},
						{
							"internalType": "uint256",
							"name": "_unclaimedSatoshisTotal",
							"type": "uint256"
						},
						{
							"internalType": "uint256",
							"name": "_claimedSatoshisTotal",
							"type": "uint256"
						},
						{
							"internalType": "uint256",
							"name": "_claimedBtcAddrCount",
							"type": "uint256"
						},
						{
							"internalType": "uint256",
							"name": "_currentDay",
							"type": "uint256"
						}
					],
					"internalType": "struct IGlobals.GlobalsCache",
					"name": "gSnapshot",
					"type": "tuple"
				}
			],
			"name": "getGlobalsLoad",
			"outputs": [],
			"stateMutability": "view",
			"type": "function"
		},
		{
			"inputs": [],
			"name": "getTreasureBoxAddress",
			"outputs": [
				{
					"internalType": "address",
					"name": "",
					"type": "address"
				}
			],
			"stateMutability": "view",
			"type": "function"
		},
		{
			"inputs": [],
			"name": "globalInfo",
			"outputs": [
				{
					"internalType": "uint256[13]",
					"name": "",
					"type": "uint256[13]"
				}
			],
			"stateMutability": "view",
			"type": "function"
		},
		{
			"inputs": [],
			"name": "globals",
			"outputs": [
				{
					"internalType": "uint72",
					"name": "lockedHeartsTotal",
					"type": "uint72"
				},
				{
					"internalType": "uint72",
					"name": "nextStakeSharesTotal",
					"type": "uint72"
				},
				{
					"internalType": "uint40",
					"name": "shareRate",
					"type": "uint40"
				},
				{
					"internalType": "uint72",
					"name": "stakePenaltyTotal",
					"type": "uint72"
				},
				{
					"internalType": "uint16",
					"name": "dailyDataCount",
					"type": "uint16"
				},
				{
					"internalType": "uint72",
					"name": "stakeSharesTotal",
					"type": "uint72"
				},
				{
					"internalType": "uint40",
					"name": "latestStakeId",
					"type": "uint40"
				},
				{
					"internalType": "uint128",
					"name": "claimStats",
					"type": "uint128"
				}
			],
			"stateMutability": "view",
			"type": "function"
		},
		{
			"inputs": [
				{
					"internalType": "address",
					"name": "spender",
					"type": "address"
				},
				{
					"internalType": "uint256",
					"name": "addedValue",
					"type": "uint256"
				}
			],
			"name": "increaseAllowance",
			"outputs": [
				{
					"internalType": "bool",
					"name": "",
					"type": "bool"
				}
			],
			"stateMutability": "nonpayable",
			"type": "function"
		},
		{
			"inputs": [
				{
					"internalType": "bytes32",
					"name": "merkleLeaf",
					"type": "bytes32"
				},
				{
					"internalType": "bytes32[]",
					"name": "proof",
					"type": "bytes32[]"
				}
			],
			"name": "merkleProofIsValid",
			"outputs": [
				{
					"internalType": "bool",
					"name": "",
					"type": "bool"
				}
			],
			"stateMutability": "pure",
			"type": "function"
		},
		{
			"inputs": [
				{
					"internalType": "address",
					"name": "_receiver",
					"type": "address"
				},
				{
					"internalType": "uint256",
					"name": "_amount",
					"type": "uint256"
				},
				{
					"internalType": "address",
					"name": "_contractAddress",
					"type": "address"
				}
			],
			"name": "mint",
			"outputs": [],
			"stateMutability": "nonpayable",
			"type": "function"
		},
		{
			"inputs": [],
			"name": "name",
			"outputs": [
				{
					"internalType": "string",
					"name": "",
					"type": "string"
				}
			],
			"stateMutability": "view",
			"type": "function"
		},
		{
			"inputs": [
				{
					"internalType": "bytes32",
					"name": "pubKeyX",
					"type": "bytes32"
				},
				{
					"internalType": "bytes32",
					"name": "pubKeyY",
					"type": "bytes32"
				},
				{
					"internalType": "uint8",
					"name": "claimFlags",
					"type": "uint8"
				}
			],
			"name": "pubKeyToBtcAddress",
			"outputs": [
				{
					"internalType": "bytes20",
					"name": "",
					"type": "bytes20"
				}
			],
			"stateMutability": "pure",
			"type": "function"
		},
		{
			"inputs": [
				{
					"internalType": "bytes32",
					"name": "pubKeyX",
					"type": "bytes32"
				},
				{
					"internalType": "bytes32",
					"name": "pubKeyY",
					"type": "bytes32"
				}
			],
			"name": "pubKeyToEthAddress",
			"outputs": [
				{
					"internalType": "address",
					"name": "",
					"type": "address"
				}
			],
			"stateMutability": "pure",
			"type": "function"
		},
		{
			"inputs": [
				{
					"internalType": "address",
					"name": "_treasureBoxAddress",
					"type": "address"
				}
			],
			"name": "setTreasureBoxAddress",
			"outputs": [],
			"stateMutability": "nonpayable",
			"type": "function"
		},
		{
			"inputs": [
				{
					"internalType": "address",
					"name": "stakerAddr",
					"type": "address"
				}
			],
			"name": "stakeCount",
			"outputs": [
				{
					"internalType": "uint256",
					"name": "",
					"type": "uint256"
				}
			],
			"stateMutability": "view",
			"type": "function"
		},
		{
			"inputs": [
				{
					"internalType": "uint256",
					"name": "stakeIndex",
					"type": "uint256"
				},
				{
					"internalType": "uint40",
					"name": "stakeIdParam",
					"type": "uint40"
				}
			],
			"name": "stakeEnd",
			"outputs": [],
			"stateMutability": "nonpayable",
			"type": "function"
		},
		{
			"inputs": [
				{
					"internalType": "address",
					"name": "stakerAddr",
					"type": "address"
				},
				{
					"internalType": "uint256",
					"name": "stakeIndex",
					"type": "uint256"
				},
				{
					"internalType": "uint40",
					"name": "stakeIdParam",
					"type": "uint40"
				}
			],
			"name": "stakeGoodAccounting",
			"outputs": [],
			"stateMutability": "nonpayable",
			"type": "function"
		},
		{
			"inputs": [
				{
					"internalType": "address",
					"name": "",
					"type": "address"
				},
				{
					"internalType": "uint256",
					"name": "",
					"type": "uint256"
				}
			],
			"name": "stakeLists",
			"outputs": [
				{
					"internalType": "uint40",
					"name": "stakeId",
					"type": "uint40"
				},
				{
					"internalType": "uint72",
					"name": "stakedHearts",
					"type": "uint72"
				},
				{
					"internalType": "uint72",
					"name": "stakeShares",
					"type": "uint72"
				},
				{
					"internalType": "uint16",
					"name": "lockedDay",
					"type": "uint16"
				},
				{
					"internalType": "uint16",
					"name": "stakedDays",
					"type": "uint16"
				},
				{
					"internalType": "uint16",
					"name": "unlockedDay",
					"type": "uint16"
				},
				{
					"internalType": "bool",
					"name": "isAutoStake",
					"type": "bool"
				}
			],
			"stateMutability": "view",
			"type": "function"
		},
		{
			"inputs": [
				{
					"internalType": "uint256",
					"name": "newStakedHearts",
					"type": "uint256"
				},
				{
					"internalType": "uint256",
					"name": "newStakedDays",
					"type": "uint256"
				}
			],
			"name": "stakeStart",
			"outputs": [],
			"stateMutability": "nonpayable",
			"type": "function"
		},
		{
			"inputs": [],
			"name": "symbol",
			"outputs": [
				{
					"internalType": "string",
					"name": "",
					"type": "string"
				}
			],
			"stateMutability": "view",
			"type": "function"
		},
		{
			"inputs": [],
			"name": "totalSupply",
			"outputs": [
				{
					"internalType": "uint256",
					"name": "",
					"type": "uint256"
				}
			],
			"stateMutability": "view",
			"type": "function"
		},
		{
			"inputs": [
				{
					"internalType": "address",
					"name": "to",
					"type": "address"
				},
				{
					"internalType": "uint256",
					"name": "amount",
					"type": "uint256"
				}
			],
			"name": "transfer",
			"outputs": [
				{
					"internalType": "bool",
					"name": "",
					"type": "bool"
				}
			],
			"stateMutability": "nonpayable",
			"type": "function"
		},
		{
			"inputs": [
				{
					"internalType": "address",
					"name": "from",
					"type": "address"
				},
				{
					"internalType": "address",
					"name": "to",
					"type": "address"
				},
				{
					"internalType": "uint256",
					"name": "amount",
					"type": "uint256"
				}
			],
			"name": "transferFrom",
			"outputs": [
				{
					"internalType": "bool",
					"name": "",
					"type": "bool"
				}
			],
			"stateMutability": "nonpayable",
			"type": "function"
		},
		{
			"inputs": [],
			"name": "treasureBoxAddress",
			"outputs": [
				{
					"internalType": "address",
					"name": "",
					"type": "address"
				}
			],
			"stateMutability": "view",
			"type": "function"
		},
		{
			"inputs": [
				{
					"internalType": "uint256",
					"name": "",
					"type": "uint256"
				}
			],
			"name": "xfLobby",
			"outputs": [
				{
					"internalType": "uint256",
					"name": "",
					"type": "uint256"
				}
			],
			"stateMutability": "view",
			"type": "function"
		},
		{
			"inputs": [
				{
					"internalType": "address",
					"name": "referrerAddr",
					"type": "address"
				}
			],
			"name": "xfLobbyEnter",
			"outputs": [],
			"stateMutability": "payable",
			"type": "function"
		},
		{
			"inputs": [
				{
					"internalType": "address",
					"name": "memberAddr",
					"type": "address"
				},
				{
					"internalType": "uint256",
					"name": "entryId",
					"type": "uint256"
				}
			],
			"name": "xfLobbyEntry",
			"outputs": [
				{
					"internalType": "uint256",
					"name": "rawAmount",
					"type": "uint256"
				},
				{
					"internalType": "address",
					"name": "referrerAddr",
					"type": "address"
				}
			],
			"stateMutability": "view",
			"type": "function"
		},
		{
			"inputs": [
				{
					"internalType": "uint256",
					"name": "enterDay",
					"type": "uint256"
				},
				{
					"internalType": "uint256",
					"name": "count",
					"type": "uint256"
				}
			],
			"name": "xfLobbyExit",
			"outputs": [],
			"stateMutability": "nonpayable",
			"type": "function"
		},
		{
			"inputs": [
				{
					"internalType": "uint256",
					"name": "",
					"type": "uint256"
				},
				{
					"internalType": "address",
					"name": "",
					"type": "address"
				}
			],
			"name": "xfLobbyMembers",
			"outputs": [
				{
					"internalType": "uint40",
					"name": "headIndex",
					"type": "uint40"
				},
				{
					"internalType": "uint40",
					"name": "tailIndex",
					"type": "uint40"
				}
			],
			"stateMutability": "view",
			"type": "function"
		},
		{
			"inputs": [
				{
					"internalType": "address",
					"name": "memberAddr",
					"type": "address"
				}
			],
			"name": "xfLobbyPendingDays",
			"outputs": [
				{
					"internalType": "uint256[2]",
					"name": "words",
					"type": "uint256[2]"
				}
			],
			"stateMutability": "view",
			"type": "function"
		},
		{
			"inputs": [
				{
					"internalType": "uint256",
					"name": "beginDay",
					"type": "uint256"
				},
				{
					"internalType": "uint256",
					"name": "endDay",
					"type": "uint256"
				}
			],
			"name": "xfLobbyRange",
			"outputs": [
				{
					"internalType": "uint256[]",
					"name": "list",
					"type": "uint256[]"
				}
			],
			"stateMutability": "view",
			"type": "function"
		}
	]
}