{
	"data": {
		"bytecode": {
			"linkReferences": {},
			"object": "60a06040523480156200001157600080fd5b5060405180604001604052806007815260200166135e5b9d1a5cdd60ca1b815250604051806040016040528060048152602001631356539560e21b815250816003908162000060919062000121565b5060046200006f828262000121565b50503360805250620001ed565b634e487b7160e01b600052604160045260246000fd5b600181811c90821680620000a757607f821691505b602082108103620000c857634e487b7160e01b600052602260045260246000fd5b50919050565b601f8211156200011c57600081815260208120601f850160051c81016020861015620000f75750805b601f850160051c820191505b81811015620001185782815560010162000103565b5050505b505050565b81516001600160401b038111156200013d576200013d6200007c565b62000155816200014e845462000092565b84620000ce565b602080601f8311600181146200018d5760008415620001745750858301515b600019600386901b1c1916600185901b17855562000118565b600085815260208120601f198616915b82811015620001be578886015182559484019460019091019084016200019d565b5085821015620001dd5787850151600019600388901b60f8161c191681555b5050505050600190811b01905550565b60805161504b62000210600039600081816107720152611415015261504b6000f3fe608060405234801561001057600080fd5b506004361061025e5760003560e01c806365cf71b21161014657806395d89b41116100c3578063c312452511610087578063c3124525146106a5578063ce606ee01461076d578063d5a373ff14610794578063dd62ed3e146107a7578063ec9a1917146107ba578063f04b5fa0146107cd57600080fd5b806395d89b411461065157806396f62b9d14610659578063a457c2d71461066c578063a9059cbb1461067f578063b626d6fc1461069257600080fd5b806387a0f31c1161010a57806387a0f31c146105825780638cba2842146105a25780638e21aa01146105b55780638f1c65c0146105c857806390de6871146105db57600080fd5b806365cf71b2146104f057806365d2a557146105035780636a210a0e1461051657806370a08231146105365780637c4266201461055f57600080fd5b806330c1a785116101df57806334dc8bb5116101a357806334dc8bb51461044e578063395093511461045f5780633a70a5ca1461047257806344203faf1461047a57806352a438b8146104d55780635c9302c9146104e857600080fd5b806330c1a785146103c1578063313ce567146103fb578063319e74f61461040a57806333060d9014610412578063343009a21461043b57600080fd5b806318160ddd1161022657806318160ddd1461030257806323b872dd1461030a5780632607443b1461031d57806327aa601814610382578063283a5baf1461039557600080fd5b806306fdde0314610263578063095ea7b3146102815780630d4d1513146102a45780631285b047146102b957806313c5c2c7146102cf575b600080fd5b61026b6107e2565b6040516102789190614642565b60405180910390f35b61029461028f366004614691565b610874565b6040519015158152602001610278565b6102b76102b23660046146bb565b61088e565b005b6102c16108ff565b604051908152602001610278565b6102ea73dec9f2793e3c17cd26eefb21c4762fa5128e039981565b6040516001600160a01b039091168152602001610278565b6002546102c1565b6102946103183660046146f7565b61092a565b61033061032b366004614691565b610950565b6040805164ffffffffff9890981688526001600160481b039687166020890152949095169386019390935261ffff9182166060860152811660808501521660a0830152151560c082015260e001610278565b61029461039036600461477f565b6109cc565b6103a86103a33660046147dc565b610a13565b6040516001600160601b03199091168152602001610278565b6102ea6103cf366004614808565b604080516020808201949094528082019290925280518083038201815260609092019052805191012090565b60405160088152602001610278565b6102c1610bc4565b6102c161042036600461482a565b6001600160a01b03166000908152600a602052604090205490565b6102b761044936600461485a565b610bd0565b6005546001600160a01b03166102ea565b61029461046d366004614691565b610ea8565b6102c1610eca565b6104b7610488366004614886565b600c60209081526000928352604080842090915290825290205464ffffffffff80821691600160281b90041682565b6040805164ffffffffff938416815292909116602083015201610278565b6102b76104e3366004614808565b610ef1565b6102c1610f9b565b6102b76104fe3660046148a9565b610fa5565b6102b76105113660046149c2565b6112b1565b610529610524366004614808565b6112bf565b60405161027891906149f0565b6102c161054436600461482a565b6001600160a01b031660009081526020819052604090205490565b61029461056d366004614a4c565b60086020526000908152604090205460ff1681565b6102c1610590366004614a67565b600b6020526000908152604090205481565b6102b76105b036600461482a565b61140a565b6102946105c3366004614a80565b611494565b6102b76105d6366004614a67565b61159b565b6106226105e9366004614a67565b6009602052600090815260409020546001600160481b0380821691600160481b810490911690600160901b900466ffffffffffffff1683565b604080516001600160481b03948516815293909216602084015266ffffffffffffff1690820152606001610278565b61026b611693565b6102c1610667366004614ada565b6116a2565b61029461067a366004614691565b611988565b61029461068d366004614691565b611a0e565b6005546102ea906001600160a01b031681565b60065460075461070b916001600160481b0380821692600160481b830482169264ffffffffff600160901b8204811693600160b81b90920482169261ffff8116926201000082041691600160581b820416906001600160801b03600160801b9091041688565b604080516001600160481b03998a168152978916602089015264ffffffffff96871690880152938716606087015261ffff90921660808601529490941660a0840152921660c08201526001600160801b0390911660e082015261010001610278565b6102ea7f000000000000000000000000000000000000000000000000000000000000000081565b6102946107a2366004614b9d565b611a1c565b6102c16107b5366004614c11565b611b36565b6102946107c8366004614a80565b611b61565b6107d5611baa565b6040516102789190614c3b565b6060600380546107f190614c64565b80601f016020809104026020016040519081016040528092919081815260200182805461081d90614c64565b801561086a5780601f1061083f5761010080835404028352916020019161086a565b820191906000526020600020905b81548152906001019060200180831161084d57829003601f168201915b5050505050905090565b600033610882818585611cac565b60019150505b92915050565b6005546001600160a01b038281169116146108f05760405162461bcd60e51b815260206004820152601960248201527f43616c6c6572206973206e6f7420544220636f6e74726163740000000000000060448201526064015b60405180910390fd5b6108fa8383611dd0565b505050565b6127106305f5e1006109136008600a614d98565b61091d9190614da4565b6109279190614dc6565b81565b600033610938858285611e8f565b610943858585611f03565b60019150505b9392505050565b600a602052816000526040600020818154811061096c57600080fd5b60009182526020909120015464ffffffffff811692506001600160481b03600160281b820481169250600160701b8204169061ffff600160b81b8204811691600160c81b8104821691600160d81b8204169060ff600160e81b9091041687565b6000610a0b848484808060200260200160405190810160405280939291908181526020018383602002808284376000920191909152506120a792505050565b949350505050565b600080606060028416158015906004861615159060088716151590610ad857818015610a3c5750805b15610a845760405162461bcd60e51b8152602060048201526018602482015277135653950e8818db185a5b519b1859dcc81a5b9d985b1a5960421b60448201526064016108e7565b600160f81b60f889901b1615610a9b576003610a9e565b60025b6040516001600160f81b031960f883901b166020820152602181018b90529095506041016040516020818303038152906040529350610b5f565b81158015610ae4575080155b610b2b5760405162461bcd60e51b8152602060048201526018602482015277135653950e8818db185a5b519b1859dcc81a5b9d985b1a5960421b60448201526064016108e7565b604051600160fa1b6020820152602181018a9052604181018990526004955060610160405160208183030381529060405293505b6000610b6a856120d4565b90508215610bb757604051600560f21b60208201526001600160601b031982166022820152610baa906036016040516020818303038152906040526120d4565b9650505050505050610949565b9998505050505050505050565b61092760326007614dc6565b610bd8614558565b610be0614558565b610bea8282612181565b336000908152600a602052604081208054909103610c435760405162461bcd60e51b8152602060048201526016602482015275135653950e88115b5c1d1e481cdd185ad9481b1a5cdd60521b60448201526064016108e7565b80548510610c8e5760405162461bcd60e51b8152602060048201526018602482015277135653950e881cdd185ad9525b99195e081a5b9d985b1a5960421b60448201526064016108e7565b610c966145b9565b610cbc828781548110610cab57610cab614ddd565b90600052602060002001868361222f565b610cc5846122fd565b6000808260a001516000141590506000806000905060008086606001518a610140015110610dae578415610cff5786608001519550610d94565b610d098a88612311565b86606001518a6101400151610d1e9190614df3565b95508660800151861115610d385786608001519550610d94565b61015e861015610d94578660c0015115610d945760405162461bcd60e51b815260206004820152601d60248201527f4d594e543a204175746f2d7374616b65207374696c6c206c6f636b656400000060448201526064016108e7565b610d9f8a8888612339565b92965090945092509050610e21565b8660c0015115610e005760405162461bcd60e51b815260206004820152601d60248201527f4d594e543a204175746f2d7374616b65207374696c6c206c6f636b656400000060448201526064016108e7565b86604001518a602001818151610e169190614df3565b905250602087015193505b610e388b8860200151896040015186868b8b6123fd565b8015801590610e45575084155b15610e5457610e548a826124c2565b8315610e6f57610e643385611dd0565b610e6f8a888661251b565b60208701518a518b90610e83908390614df3565b905250610e90888d6125b5565b610e9a8a8a61274a565b505050505050505050505050565b600033610882818585610ebb8383611b36565b610ec59190614e06565b611cac565b6006546000906001600160481b0316610ee260025490565b610eec9190614e06565b905090565b610ef9614558565b610f01614558565b610f0b8282612181565b6001831015610f6b5760405162461bcd60e51b815260206004820152602660248201527f4d594e543a206e65775374616b656444617973206c6f776572207468616e206d604482015265696e696d756d60d01b60648201526084016108e7565b610f74826122fd565b610f81828585600061292a565b610f8b3385612bff565b610f95828261274a565b50505050565b6000610eec612d31565b610fad614558565b610fb5614558565b610fbf8282612181565b6001600160a01b0385166000908152600a6020526040812054900361101f5760405162461bcd60e51b8152602060048201526016602482015275135653950e88115b5c1d1e481cdd185ad9481b1a5cdd60521b60448201526064016108e7565b6001600160a01b0385166000908152600a602052604090205484106110815760405162461bcd60e51b8152602060048201526018602482015277135653950e881cdd185ad9525b99195e081a5b9d985b1a5960421b60448201526064016108e7565b6001600160a01b0385166000908152600a602052604081208054869081106110ab576110ab614ddd565b9060005260206000200190506110bf6145b9565b6110ca82868361222f565b806080015181606001516110de9190614e06565b84610140015110156111325760405162461bcd60e51b815260206004820152601c60248201527f4d594e543a205374616b65206e6f742066756c6c79207365727665640000000060448201526064016108e7565b60a0810151156111845760405162461bcd60e51b815260206004820152601c60248201527f4d594e543a205374616b6520616c726561647920756e6c6f636b65640000000060448201526064016108e7565b61118d846122fd565b6111978482612311565b60008060006111ab87858660800151612339565b935093509350506111c88a89866020015187604001518787612d4d565b80156111d8576111d887826124c2565b83518554602086015160408701516060880151608089015160a08a015160c08b015164ffffffffff9097166001600160701b031990961695909517600160281b6001600160481b039586160217600160701b600160c81b031916600160701b949093169390930261ffff60b81b191691909117600160b81b61ffff928316021763ffffffff60c81b1916600160c81b9282169290920261ffff60d81b191691909117600160d81b91909216021760ff60e81b1916600160e81b911515919091021785556112a5878761274a565b50505050505050505050565b6112bb8282612181565b5050565b606081831080156112d6575060075461ffff168211155b6113185760405162461bcd60e51b8152602060048201526013602482015272135653950e881c985b99d9481a5b9d985b1a59606a1b60448201526064016108e7565b6113228383614df3565b67ffffffffffffffff81111561133a5761133a6148dc565b604051908082528060200260200182016040528015611363578160200160208202803683370190505b509050826000805b61137760486002614dc6565b600084815260096020526040902054600160901b810466ffffffffffffff1690911b600160481b820460481b71ffffffffffffffffff00000000000000000016176001600160481b039091161790508084836113d281614e19565b9450815181106113e4576113e4614ddd565b6020908102919091010152846113f984614e19565b9350831061136b5750505092915050565b336001600160a01b037f000000000000000000000000000000000000000000000000000000000000000016146114725760405162461bcd60e51b815260206004820152600d60248201526c2737ba103a34329027bbb732b960991b60448201526064016108e7565b600580546001600160a01b0319166001600160a01b0392909216919091179055565b60008061149f612d31565b905060018110156114c25760405162461bcd60e51b81526004016108e790614e32565b6114ce60326007614dc6565b6114d9906001614e06565b81106115275760405162461bcd60e51b815260206004820152601b60248201527f4d594e543a20436c61696d2070686173652068617320656e646564000000000060448201526064016108e7565b6001600160601b0319861660009081526008602052604090205460ff1615611553576000915050610a0b565b6115918686868680806020026020016040519081016040528093929190818152602001838360200280828437600092019190915250612dea92505050565b9695505050505050565b6115a3614558565b6115ab614558565b6115b58282612181565b6001826101400151116115fc5760405162461bcd60e51b815260206004820152600f60248201526e4d594e543a20546f6f206561726c7960881b60448201526064016108e7565b8215611678578161014001518311156116675760405162461bcd60e51b815260206004820152602760248201527f4d594e543a206265666f72654461792063616e6e6f7420626520696e207468656044820152662066757475726560c81b60648201526084016108e7565b61167382846000612f27565b611689565b611689828361014001516000612f27565b6108fa828261274a565b6060600480546107f190614c64565b600065173cdf6f6e318d11156116f35760405162461bcd60e51b81526020600482015260166024820152754d594e543a2043484b3a207261775361746f7368697360501b60448201526064016108e7565b61015e8310156117545760405162461bcd60e51b815260206004820152602660248201527f4d594e543a206175746f5374616b6544617973206c6f776572207468616e206d604482015265696e696d756d60d01b60648201526084016108e7565b60006001600160a01b038b1633146117c557604080517f4e831acb4223b66de3b3d2e54a2edeefb0de3d7916e2886a4b134d9764d41bec6020820152908101859052606084811b6001600160601b031916908201526074016040516020818303038152906040528051906020012090505b6117d58b828c8c8c8c8c8c611a1c565b6118215760405162461bcd60e51b815260206004820152601860248201527f4d594e543a205369676e6174757265206d69736d61746368000000000000000060448201526064016108e7565b50600061182f8a8a8a610a13565b6001600160601b0319811660009081526008602052604090205490915060ff16156118ae5760405162461bcd60e51b815260206004820152602960248201527f4d594e543a2042544320616464726573732062616c616e636520616c726561646044820152681e4818db185a5b595960ba1b60648201526084016108e7565b6118ec818f8f8f80806020026020016040519081016040528093929190818152602001838360200280828437600092019190915250612dea92505050565b6119445760405162461bcd60e51b8152602060048201526024808201527f4d594e543a204254432061646472657373206f722062616c616e636520756e6b6044820152633737bbb760e11b60648201526084016108e7565b6001600160601b031981166000908152600860205260409020805460ff191660011790556119768e8c838b888861300c565b9e9d5050505050505050505050505050565b600033816119968286611b36565b9050838110156119f65760405162461bcd60e51b815260206004820152602560248201527f45524332303a2064656372656173656420616c6c6f77616e63652062656c6f77604482015264207a65726f60d81b60648201526084016108e7565b611a038286868403611cac565b506001949350505050565b600033610882818585611f03565b6000601b8460ff1610158015611a365750601e8460ff1611155b611a745760405162461bcd60e51b815260206004820152600f60248201526e135653950e881d881a5b9d985b1a59608a1b60448201526064016108e7565b6040805160208082018a9052818301899052825180830384018152606090920190925280519101206000611ab1611aac8c8c8a61304f565b613232565b60408051600081526020810180835283905260ff89169181019190915260608101879052608081018690529091506001600160a01b0383169060019060a0016020604051602081039080840390855afa158015611b12573d6000803e3d6000fd5b505050602060405103516001600160a01b0316149250505098975050505050505050565b6001600160a01b03918216600090815260016020908152604080832093909416825291909152205490565b6000611ba18585858580806020026020016040519081016040528093929190818152602001838360200280828437600092019190915250612dea92505050565b95945050505050565b611bb26145ff565b60075460009081908190611bd590600160801b90046001600160801b03166132f1565b604080516101a0810182526006546001600160481b038082168352600160481b82048116602084015264ffffffffff600160901b8304811694840194909452600160b81b9091048116606083015260075461ffff8116608084015262010000810490911660a0830152600160581b900490911660c082015260e08101829052610100810183905261012081018490524261014082015292955090935091506101608101611c8160025490565b8152602001600b6000611c92612d31565b815260200190815260200160002054815250935050505090565b6001600160a01b038316611d0e5760405162461bcd60e51b8152602060048201526024808201527f45524332303a20617070726f76652066726f6d20746865207a65726f206164646044820152637265737360e01b60648201526084016108e7565b6001600160a01b038216611d6f5760405162461bcd60e51b815260206004820152602260248201527f45524332303a20617070726f766520746f20746865207a65726f206164647265604482015261737360f01b60648201526084016108e7565b6001600160a01b0383811660008181526001602090815260408083209487168084529482529182902085905590518481527f8c5be1e5ebec7d5bd14f71427d1e84f3dd0314c0f7b2291e5b200ac8c7c3b925910160405180910390a3505050565b6001600160a01b038216611e265760405162461bcd60e51b815260206004820152601f60248201527f45524332303a206d696e7420746f20746865207a65726f20616464726573730060448201526064016108e7565b8060026000828254611e389190614e06565b90915550506001600160a01b038216600081815260208181526040808320805486019055518481527fddf252ad1be2c89b69c2b068fc378daa952ba7f163c4a11628f55a4df523b3ef910160405180910390a35050565b6000611e9b8484611b36565b90506000198114610f955781811015611ef65760405162461bcd60e51b815260206004820152601d60248201527f45524332303a20696e73756666696369656e7420616c6c6f77616e636500000060448201526064016108e7565b610f958484848403611cac565b6001600160a01b038316611f675760405162461bcd60e51b815260206004820152602560248201527f45524332303a207472616e736665722066726f6d20746865207a65726f206164604482015264647265737360d81b60648201526084016108e7565b6001600160a01b038216611fc95760405162461bcd60e51b815260206004820152602360248201527f45524332303a207472616e7366657220746f20746865207a65726f206164647260448201526265737360e81b60648201526084016108e7565b6001600160a01b038316600090815260208190526040902054818110156120415760405162461bcd60e51b815260206004820152602660248201527f45524332303a207472616e7366657220616d6f756e7420657863656564732062604482015265616c616e636560d01b60648201526084016108e7565b6001600160a01b03848116600081815260208181526040808320878703905593871680835291849020805487019055925185815290927fddf252ad1be2c89b69c2b068fc378daa952ba7f163c4a11628f55a4df523b3ef910160405180910390a3610f95565b6000610949827f4e831acb4223b66de3b3d2e54a2edeefb0de3d7916e2886a4b134d9764d41bec8561335e565b600060036002836040516120e89190614e77565b602060405180830381855afa158015612105573d6000803e3d6000fd5b5050506040513d601f19601f820116820180604052508101906121289190614e93565b60405160200161213a91815260200190565b60408051601f198184030181529082905261215491614e77565b602060405180830381855afa158015612171573d6000803e3d6000fd5b50506040515160601b9392505050565b6006546001600160481b038082168452600160481b82048116602085015264ffffffffff600160901b830481166040860152600160b81b9092048116606085015260075461ffff8116608086015262010000810490911660a0850152600160581b810490911660c0840152612206906001600160801b03600160801b909104166132f1565b60e085015261010084015261012083015261221f612d31565b6101408301526112bb8282613374565b825464ffffffffff8381169116146122895760405162461bcd60e51b815260206004820152601f60248201527f4d594e543a207374616b654964506172616d206e6f7420696e207374616b650060448201526064016108e7565b915464ffffffffff811683526001600160481b03600160281b820481166020850152600160701b820416604084015261ffff600160b81b820481166060850152600160c81b820481166080850152600160d81b82041660a084015260ff600160e81b90910416151560c09092019190915250565b61230e818261014001516001612f27565b50565b80604001518260a0018181516123279190614df3565b9052506101409091015160a090910152565b6000806000808560800151851015612380576123648787606001518860800151888a604001516133dc565b60208801519194509250612379908490614e06565b93506123ce565b6040860151606087015161239f91899161239a8982614e06565b6134ca565b92508286602001516123b19190614e06565b93506123cb866060015187608001518860a0015187613636565b91505b81156123f457838211156123e557506000926123f4565b50806123f18185614df3565b93505b93509350935093565b8664ffffffffff16336001600160a01b03167f72d9c5a7ab13846e08d9c838f9e866a1bb4a66a2fd3ba3c9e7da3cf9e394dfd760b8876001600160481b0316901b6070896001600160481b0316901b60288b6001600160481b0316901b4264ffffffffff1617171784612471576000612477565b600160581b5b6bffffffffffffffffffffffff1660488761ffff16901b886001600160481b031617176040516124b1929190918252602082015260400190565b60405180910390a350505050505050565b60006124cf600283614da4565b905080156124f5576124f5739a6a414d6f3497c05e3b1de90520765fa1e07c0382611dd0565b6124ff8183614df3565b905080836060018181516125139190614e06565b905250505050565b81602001518111156108fa576000612537828460800151613696565b905060008360400151620186a083856125509190614e06565b61255a9190614dc6565b6125649190614da4565b90506125756001600160281b614df3565b81111561258e5761258b6001600160281b614df3565b90505b84604001518111156125ae576040850181905283516125ae908290613804565b5050505050565b81546000906125c690600190614df3565b9050808214612713578281815481106125e1576125e1614ddd565b906000526020600020018383815481106125fd576125fd614ddd565b6000918252602090912082549101805464ffffffffff19811664ffffffffff909316928317825583546001600160481b03600160281b9182900481169091026001600160701b0319909216909317178082558354600160701b9081900490931690920268ffffffffffffffffff60701b19831681178255835461ffff600160b81b91829004811690910261ffff60b81b19909216600160701b600160c81b031990941693909317178082558354600160c81b9081900484160261ffff60c81b198216811783558454600160d81b9081900490941690930261ffff60d81b1990931663ffffffff60c81b199091161791909117808255915460ff600160e81b918290041615150260ff60e81b199092169190911790555b8280548061272357612723614eac565b600082815260209020810160001990810180546001600160f01b0319169055019055505050565b8051825114158061276357508060200151826020015114155b8061277657508060400151826040015114155b8061278957508060600151826060015114155b1561280c578151600680546020850151604086015160608701516001600160481b03908116600160b81b026001600160b81b0364ffffffffff909316600160901b029290921671ffffffffffffffffffffffffffffffffffff938216600160481b026001600160901b031990951691909616179290921716929092179190911790555b8060800151826080015114158061282b57508060a001518260a0015114155b8061284c57508060c0015164ffffffffff168260c0015164ffffffffff1614155b8061285f57508060e001518260e0015114155b80612874575080610100015182610100015114155b80612889575080610120015182610120015114155b156112bb5760808201516007805460a085015160c086015164ffffffffff16600160581b0264ffffffffff60581b196001600160481b0390921662010000026affffffffffffffffffffff1990931661ffff90951694909417919091171691909117905561012082015161010083015160e084015161290992919061385d565b600780546001600160801b03928316600160801b0292169190911790555050565b6115b382111561298c5760405162461bcd60e51b815260206004820152602760248201527f4d594e543a206e65775374616b65644461797320686967686572207468616e206044820152666d6178696d756d60c81b60648201526084016108e7565b60006129988484613696565b905060008560400151620186a083876129b19190614e06565b6129bb9190614dc6565b6129c59190614da4565b905080600003612a3d5760405162461bcd60e51b815260206004820152603860248201527f4d594e543a206e65775374616b6564486561727473206d75737420626520617460448201527f206c65617374206d696e696d756d20736861726552617465000000000000000060648201526084016108e7565b6000600187610140015110612a6257610140870151612a5d906001614e06565b612a6d565b612a6d600180614e06565b905060008760c0018051612a8090614ec2565b64ffffffffff1690819052336000908152600a60205260409020909150612bbf90828986868b8b6040805160e08101825264ffffffffff97881681526001600160481b03968716602080830191825296881692820192835261ffff9586166060830190815294861660808301908152600060a0840181815295151560c085019081528c54600181018e559c8252989020925192909a0180549151935195519a51945197511515600160e81b0260ff60e81b19988816600160d81b0261ffff60d81b19968916600160c81b029690961663ffffffff60c81b199c909816600160b81b0261ffff60b81b19978b16600160701b0297909716600160701b600160c81b031995909a16600160281b026001600160701b031990931693909a16929092171791909116959095179190911795909516179390931792909216179055565b612bcc8188858989613881565b8288602001818151612bde9190614e06565b905250875187908990612bf2908390614e06565b9052505050505050505050565b6001600160a01b038216612c5f5760405162461bcd60e51b815260206004820152602160248201527f45524332303a206275726e2066726f6d20746865207a65726f206164647265736044820152607360f81b60648201526084016108e7565b6001600160a01b03821660009081526020819052604090205481811015612cd35760405162461bcd60e51b815260206004820152602260248201527f45524332303a206275726e20616d6f756e7420657863656564732062616c616e604482015261636560f01b60648201526084016108e7565b6001600160a01b0383166000818152602081815260408083208686039055600280548790039055518581529192917fddf252ad1be2c89b69c2b068fc378daa952ba7f163c4a11628f55a4df523b3ef910160405180910390a3505050565b6000603c612d436365645b8f42614df3565b610eec9190614da4565b604080514264ffffffffff9081166dffffffffffffffffff0000000000602889901b161768ffffffffffffffffff60701b607088901b16176001600160b81b031960b887901b161782526001600160481b03841660208301523392908816916001600160a01b038a16917fd824970a2cf19cc2b630c87ce5b00f67301cac3ac60513d027c7a39129f93b46910160405180910390a4505050505050565b6000602d6001612dfb826060614df3565b6001901b612e099190614df3565b901b82600081518110612e1e57612e1e614ddd565b602002602001015160001c16600014612e6f5760405162461bcd60e51b8152602060048201526013602482015272135653950e881c1c9bdbd9881a5b9d985b1a59606a1b60448201526064016108e7565b60015b8251811015612f0f57602d6001612e8a826060614df3565b6001901b612e989190614df3565b901b838281518110612eac57612eac614ddd565b602002602001015160001c16600003612efd5760405162461bcd60e51b8152602060048201526013602482015272135653950e881c1c9bdbd9881a5b9d985b1a59606a1b60448201526064016108e7565b80612f0781614e19565b915050612e72565b506001600160601b031984168317611ba181846120a7565b81836080015110612f3757505050565b612f5b60405180606001604052806000815260200160008152602001600081525090565b8351600254612f6a9190614e06565b81526080840151612f7c858383613915565b602085015115612fa75784602001518560a001818151612f9c9190614e06565b905250600060208601525b83612fb182614e19565b9150811015612fca57612fc5858383613915565b612fa7565b612fd98560800151828561398d565b608085018190526020820151156125ae576125ae739a6a414d6f3497c05e3b1de90520765fa1e07c038360200151611dd0565b6000613016614558565b61301e614558565b6130288282612181565b613037828a8a8a8a8a8a613a06565b9250613043828261274a565b50509695505050505050565b6060600060018316810361308b576040518060400160405280601081526020016f086d8c2d2dabe9ab29ca8bee8debe60f60831b8152506130c2565b6040518060400160405280601781526020017f436c61696d5f426974636f696e4d594e545f746f5f30780000000000000000008152505b9050601083161560006130d58783613b7f565b90506000869003613145576018772134ba31b7b4b71029b4b3b732b21026b2b9b9b0b3b29d0560411b61310a60146002614ee6565b85516131169190614f09565b858460405160200161312c959493929190614f22565b6040516020818303038152906040529350505050610949565b6000613153600c6002614ee6565b60ff1667ffffffffffffffff81111561316e5761316e6148dc565b6040519080825280601f01601f191660200182016040528015613198576020820181803683370190505b5090506131a78188600c613c72565b6018772134ba31b7b4b71029b4b3b732b21026b2b9b9b0b3b29d0560411b6131d1600c6002614ee6565b6131dd60146002614ee6565b87516131e99190614f09565b6131f4906001614f09565b6131fe9190614f09565b86858560405160200161321696959493929190614f8a565b6040516020818303038152906040529450505050509392505050565b6000600280836040516132459190614e77565b602060405180830381855afa158015613262573d6000803e3d6000fd5b5050506040513d601f19601f820116820180604052508101906132859190614e93565b60405160200161329791815260200190565b60408051601f19818403018152908290526132b191614e77565b602060405180830381855afa1580156132ce573d6000803e3d6000fd5b5050506040513d601f19601f820116820180604052508101906108889190614e93565b6000808061330160336002614dc6565b6001600160801b0380861690911c16925061332460016608000000000000614df3565b603385901c16691fffffffffffffffffff16915061334a60016608000000000000614df3565b846001600160801b03161690509193909250565b60008261336b8584613d6d565b14949350505050565b815181526020808301519082015260408083015190820152606080830151908201526080808301519082015260a0808301519082015260c08083015164ffffffffff169082015260e08083015190820152610100808301519082015261012091820151910152565b600080806133ea8588614e06565b9050600060026133fb886001614e06565b6134059190614da4565b9050605a8110156134145750605a5b8560000361343f5760006134298a878b613dba565b90506134358282614dc6565b93505050506134c0565b85811015613488576000613453828a614e06565b90506134618a878b846134ca565b935060006134718b8884876134ca565b905061347d8186614e06565b9550505050506134c0565b61349489868a856134ca565b93508581036134a5578392506134bd565b856134b08286614dc6565b6134ba9190614da4565b92505b50505b9550959350505050565b6000825b8281101561352b576000818152600960205260409020546001600160481b03600160481b820481169161350391889116614dc6565b61350d9190614da4565b6135179083614e06565b91508061352381614e19565b9150506134ce565b5061353860326007614dc6565b613543906001614e06565b61354e906001614e06565b831115801561357d575061356460326007614dc6565b61356f906001614e06565b61357a906001614e06565b82115b15610a0b57600060098161359360326007614dc6565b61359e906001614e06565b6135a9906001614e06565b8152602081019190915260400160002054600160481b90046001600160481b0316856127106305f5e1006135df6008600a614d98565b6135e99190614da4565b6135f39190614dc6565b8860e001516136029190614dc6565b61360c9190614dc6565b6136169190614da4565b90506136228682613eed565b61362c9082614e06565b6115919083614e06565b60008061364560026007614dc6565b61364f8688614e06565b6136599190614e06565b905080841161366c576000915050610a0b565b61367860646007614dc6565b6136828286614df3565b61368c9085614dc6565b6115919190614da4565b600080600183111561370657606460c86136b36014618e30614da4565b6136bd9190614dc6565b6136c79190614da4565b8311156136f857606460c86136df6014618e30614da4565b6136e99190614dc6565b6136f39190614da4565b613703565b613703600184614df3565b90505b60006137146008600a614d98565b613722906308f0d180614dc6565b851115613748576137356008600a614d98565b613743906308f0d180614dc6565b61374a565b845b90506137596014618e30614da4565b6137639082614dc6565b600a613770600882614d98565b61377e906308f0d180614dc6565b613789906064614dc6565b6137939190614da4565b61379d9084614dc6565b6137a79190614e06565b9250600a6137b6600882614d98565b6137c4906308f0d180614dc6565b6137cf906064614dc6565b6137d99190614da4565b6137e66014618e30614da4565b6137f09190614dc6565b6137fa8487614dc6565b611ba19190614da4565b8064ffffffffff167f9861fa0ed101659f7a59b4583fcc798dfa4f3b419bea371c8ee2ad0ffe13a31e60288464ffffffffff16901b4264ffffffffff161760405161385191815260200190565b60405180910390a25050565b60008061386c60336002614dc6565b9490941b60339390931b929092171792915050565b64ffffffffff8516337f14872dc760f33532684e68e1b6d5fd3f71ba7b07dee76bdb2b084f28b74233ef836138b75760006138bd565b600160c81b5b6001600160d01b031660b88661ffff16901b6070886001600160481b0316901b60288a6001600160481b0316901b4264ffffffffff161717171760405161390691815260200190565b60405180910390a35050505050565b613920838383613f43565b60409182015160009182526009602052919020805460a084015160e09094015166ffffffffffffff16600160901b0266ffffffffffffff60901b196001600160481b03958616600160481b026001600160901b031990931695909416949094171791909116919091179055565b337fb8d6eb541ded1720cc657b719f57abcb1fe4711cb7ead82751b135f5d94bc944826139bb5760006139c1565b600160481b5b69ffffffffffffffffffff1660388561ffff16901b60288761ffff16901b4264ffffffffff161717176040516139f991815260200190565b60405180910390a2505050565b600060018861014001511015613a2e5760405162461bcd60e51b81526004016108e790614e32565b613a3a60326007614dc6565b613a45906001614e06565b88610140015110613a985760405162461bcd60e51b815260206004820152601b60248201527f4d594e543a20436c61696d2070686173652068617320656e646564000000000060448201526064016108e7565b613aa1886122fd565b6301ab362e88610120015110613af95760405162461bcd60e51b815260206004820152601f60248201527f4d594e543a2043484b3a205f636c61696d656442746341646472436f756e740060448201526064016108e7565b6000806000613b088b8b61407b565b6101208e0180519396509194509250613b2082614e19565b905250613b338989898d8787878c61419d565b935060006064613b44605a87614dc6565b613b4e9190614da4565b9050613b5d8c8289600161292a565b613b708a613b6b8388614df3565b611dd0565b50505050979650505050505050565b6060613b8d60146002614ee6565b60ff1667ffffffffffffffff811115613ba857613ba86148dc565b6040519080825280601f01601f191660200182016040528015613bd2576020820181803683370190505b509050613bef816001600160601b0319606086901b166014613c72565b811561088857805160208201206000805b6014811015613c69576000838260208110613c1d57613c1d614ddd565b1a9050613c3d8584613c2e81614e19565b955060048460ff16901c61428e565b613c568584613c4b81614e19565b955083600f1661428e565b5080613c6181614e19565b915050613c00565b50505092915050565b6000805b828110156125ae576000848260208110613c9257613c92614ddd565b1a90506f181899199a1a9b1b9c1cb0b131b232b360811b600482901c60ff1660108110613cc157613cc1614ddd565b1a60f81b8684613cd081614e19565b955081518110613ce257613ce2614ddd565b60200101906001600160f81b031916908160001a9053506f181899199a1a9b1b9c1cb0b131b232b360811b600f821660108110613d2157613d21614ddd565b1a60f81b8684613d3081614e19565b955081518110613d4257613d42614ddd565b60200101906001600160f81b031916908160001a905350508080613d6590614e19565b915050613c76565b600081815b8451811015613db257613d9e82868381518110613d9157613d91614ddd565b6020026020010151614306565b915080613daa81614e19565b915050613d72565b509392505050565b6000613dc4614558565b613dce8582613374565b613df260405180606001604052806000815260200160008152602001600081525090565b8551600254613e019190614e06565b8152613e0e828286613f43565b848260a001818151613e209190614e06565b90525060a08201516040820151613e38908790614dc6565b613e429190614da4565b9250613e5060326007614dc6565b613e5b906001614e06565b613e66906001614e06565b8403613ee45760a0820151600090866127106305f5e100613e896008600a614d98565b613e939190614da4565b613e9d9190614dc6565b8560e00151613eac9190614dc6565b613eb69190614dc6565b613ec09190614da4565b9050613ecc8382613eed565b613ed69082614e06565b613ee09085614e06565b9350505b50509392505050565b6000806301ab362e84610120015184613f069190614dc6565b613f109190614da4565b9050600066033bb85fc52d9985610100015185613f2d9190614dc6565b613f379190614da4565b9050611ba18183614e06565b81516305fcbae390613f5790612710614dc6565b613f619190614da4565b6040830152613f7260326007614dc6565b613f7d906001614e06565b81101561404c576000613f9260326007614dc6565b6127106305f5e100613fa66008600a614d98565b613fb09190614da4565b613fba9190614dc6565b8560e00151613fc99190614dc6565b613fd39190614da4565b90506000613ff085838660400151613feb9190614e06565b613eed565b613ffa9083614e06565b9050808460200181815161400e9190614e06565b905250835181908590614022908390614e06565b9052506040840151614035908690613eed565b846040018181516140469190614e06565b90525050505b6060830151156108fa5782606001518260400181815161406c9190614e06565b90525060006060840152505050565b600080600061408984614335565b925066033bb85fc52d99838661010001516140a49190614e06565b11156140f25760405162461bcd60e51b815260206004820181905260248201527f4d594e543a2043484b3a205f636c61696d65645361746f73686973546f74616c60448201526064016108e7565b8285610100018181516141059190614e06565b90525061014085015160009061411d60326007614dc6565b614128906001614e06565b6141329190614df3565b905061413e848261438a565b9350838660e0018181516141529190614df3565b9052506127106305f5e1006141696008600a614d98565b6141739190614da4565b61417d9190614dc6565b6141879085614dc6565b925061419383826143ac565b9150509250925092565b60006141a98385614e06565b9050826001600160a01b0383166141ce576141c98a8a8a8a8a87896143e6565b614263565b60006141db600a84614da4565b90506141e78184614e06565b925060006141f6600585614da4565b90506142028183614e06565b61420c9084614e06565b92508b6001600160a01b0316856001600160a01b031603614247576142318185614e06565b93506142428c8c8c8c8c898b6143e6565b614260565b6142568c8c8c8c8c898b6143e6565b6142608582611dd0565b50505b614281739a6a414d6f3497c05e3b1de90520765fa1e07c0382611dd0565b5098975050505050505050565b60008383815181106142a2576142a2614ddd565b01602001516001600160f81b0319169050606160f81b81108015906142cb575060088260ff1610155b15610f955780602060f81b188484815181106142e9576142e9614ddd565b60200101906001600160f81b031916908160001a90535050505050565b6000818310614322576000828152602084905260409020610949565b6000838152602083905260409020610949565b600064174876e800821015614348575090565b64e8d4a51000821061435f57610888600483614da4565b65034630b8a000614376836501ba60d33800614df3565b6143809084614dc6565b6108889190614da4565b600061439860326007614dc6565b6143a28385614dc6565b6109499190614da4565b600060016143bc60326007614dc6565b6143c69190614df3565b6143d1906005614dc6565b6143dc600184614df3565b6143a29085614dc6565b6040805164ffffffffff42166bffffffffffffff0000000000602888901b161766ffffffffffffff60601b606087901b161760ff60981b609889901b161768ffffffffffffffffff60a01b60a086901b161781523360208201526001600160a01b0380841692908a16916001600160601b03198a16917f41e3c7dc6eebc97a48a437ff2afdc629613f12c48ba37a2c94563f80acba9725910160405180910390a46001600160a01b038716331461454f57336001600160a01b03167f3a84b2d9dac24683628d63034c6949797f15fab735e16232518ee4e753fd49b760c88666ffffffffffffff16901b60288960601c6001600160a01b0316901b4264ffffffffff16171760d88860ff16901b60388b6001600160a01b0316901b8766ffffffffffffff1617176048856001600160a01b0316901b866001600160481b031617604051614546939291909283526020830191909152604082015260600190565b60405180910390a25b50505050505050565b604051806101600160405280600081526020016000815260200160008152602001600081526020016000815260200160008152602001600064ffffffffff168152602001600081526020016000815260200160008152602001600081525090565b6040518060e00160405280600064ffffffffff16815260200160008152602001600081526020016000815260200160008152602001600081526020016000151581525090565b604051806101a00160405280600d906020820280368337509192915050565b60005b83811015614639578181015183820152602001614621565b50506000910152565b602081526000825180602084015261466181604085016020870161461e565b601f01601f19169190910160400192915050565b80356001600160a01b038116811461468c57600080fd5b919050565b600080604083850312156146a457600080fd5b6146ad83614675565b946020939093013593505050565b6000806000606084860312156146d057600080fd5b6146d984614675565b9250602084013591506146ee60408501614675565b90509250925092565b60008060006060848603121561470c57600080fd5b61471584614675565b925061472360208501614675565b9150604084013590509250925092565b60008083601f84011261474557600080fd5b50813567ffffffffffffffff81111561475d57600080fd5b6020830191508360208260051b850101111561477857600080fd5b9250929050565b60008060006040848603121561479457600080fd5b83359250602084013567ffffffffffffffff8111156147b257600080fd5b6147be86828701614733565b9497909650939450505050565b803560ff8116811461468c57600080fd5b6000806000606084860312156147f157600080fd5b83359250602084013591506146ee604085016147cb565b6000806040838503121561481b57600080fd5b50508035926020909101359150565b60006020828403121561483c57600080fd5b61094982614675565b803564ffffffffff8116811461468c57600080fd5b6000806040838503121561486d57600080fd5b8235915061487d60208401614845565b90509250929050565b6000806040838503121561489957600080fd5b8235915061487d60208401614675565b6000806000606084860312156148be57600080fd5b6148c784614675565b9250602084013591506146ee60408501614845565b634e487b7160e01b600052604160045260246000fd5b604051610160810167ffffffffffffffff8111828210171561492457634e487b7160e01b600052604160045260246000fd5b60405290565b6000610160828403121561493d57600080fd5b6149456148f2565b9050813581526020820135602082015260408201356040820152606082013560608201526080820135608082015260a082013560a082015261498960c08301614845565b60c082015260e082013560e082015261010080830135818301525061012080830135818301525061014080830135818301525092915050565b6000806102c083850312156149d657600080fd5b6149e0848461492a565b915061487d84610160850161492a565b6020808252825182820181905260009190848201906040850190845b81811015614a2857835183529284019291840191600101614a0c565b50909695505050505050565b80356001600160601b03198116811461468c57600080fd5b600060208284031215614a5e57600080fd5b61094982614a34565b600060208284031215614a7957600080fd5b5035919050565b60008060008060608587031215614a9657600080fd5b614a9f85614a34565b935060208501359250604085013567ffffffffffffffff811115614ac257600080fd5b614ace87828801614733565b95989497509550505050565b6000806000806000806000806000806000806101608d8f031215614afd57600080fd5b8c359b5067ffffffffffffffff60208e01351115614b1a57600080fd5b614b2a8e60208f01358f01614733565b909b509950614b3b60408e01614675565b985060608d0135975060808d01359650614b5760a08e016147cb565b9550614b6560c08e016147cb565b945060e08d013593506101008d013592506101208d01359150614b8b6101408e01614675565b90509295989b509295989b509295989b565b600080600080600080600080610100898b031215614bba57600080fd5b614bc389614675565b9750602089013596506040890135955060608901359450614be660808a016147cb565b9350614bf460a08a016147cb565b925060c0890135915060e089013590509295985092959890939650565b60008060408385031215614c2457600080fd5b614c2d83614675565b915061487d60208401614675565b6101a08101818360005b600d811015613c69578151835260209283019290910190600101614c45565b600181811c90821680614c7857607f821691505b602082108103614c9857634e487b7160e01b600052602260045260246000fd5b50919050565b634e487b7160e01b600052601160045260246000fd5b600181815b80851115614cef578160001904821115614cd557614cd5614c9e565b80851615614ce257918102915b93841c9390800290614cb9565b509250929050565b600082614d0657506001610888565b81614d1357506000610888565b8160018114614d295760028114614d3357614d4f565b6001915050610888565b60ff841115614d4457614d44614c9e565b50506001821b610888565b5060208310610133831016604e8410600b8410161715614d72575081810a610888565b614d7c8383614cb4565b8060001904821115614d9057614d90614c9e565b029392505050565b60006109498383614cf7565b600082614dc157634e487b7160e01b600052601260045260246000fd5b500490565b808202811582820484141761088857610888614c9e565b634e487b7160e01b600052603260045260246000fd5b8181038181111561088857610888614c9e565b8082018082111561088857610888614c9e565b600060018201614e2b57614e2b614c9e565b5060010190565b60208082526025908201527f4d594e543a20436c61696d20706861736520686173206e6f7420796574207374604082015264185c9d195960da1b606082015260800190565b60008251614e8981846020870161461e565b9190910192915050565b600060208284031215614ea557600080fd5b5051919050565b634e487b7160e01b600052603160045260246000fd5b600064ffffffffff808316818103614edc57614edc614c9e565b6001019392505050565b60ff8181168382160290811690818114614f0257614f02614c9e565b5092915050565b60ff818116838216019081111561088857610888614c9e565b6001600160f81b031960f887811b8216835267ffffffffffffffff198716600184015285901b1660198201528251600090614f6481601a85016020880161461e565b835190830190614f7b81601a84016020880161461e565b01601a01979650505050505050565b6001600160f81b031960f888811b8216835267ffffffffffffffff198816600184015286901b1660198201528351600090614fcc81601a85016020890161461e565b845190830190614fe381601a84016020890161461e565b605f60f81b601a9290910191820152835161500581601b84016020880161461e565b01601b019897505050505050505056fea26469706673582212201857ed3f0c2138ae97fadd542f0277549558c9b191c0f889c0a524e751a718ae64736f6c63430008130033",
			"opcodes": "PUSH1 0xA0 PUSH1 0x40 MSTORE CALLVALUE DUP1 ISZERO PUSH3 0x11 JUMPI PUSH1 0x0 DUP1 REVERT JUMPDEST POP PUSH1 0x40 MLOAD DUP1 PUSH1 0x40 ADD PUSH1 0x40 MSTORE DUP1 PUSH1 0x7 DUP2 MSTORE PUSH1 0x20 ADD PUSH7 0x135E5B9D1A5CDD PUSH1 0xCA SHL DUP2 MSTORE POP PUSH1 0x40 MLOAD DUP1 PUSH1 0x40 ADD PUSH1 0x40 MSTORE DUP1 PUSH1 0x4 DUP2 MSTORE PUSH1 0x20 ADD PUSH4 0x13565395 PUSH1 0xE2 SHL DUP2 MSTORE POP DUP2 PUSH1 0x3 SWAP1 DUP2 PUSH3 0x60 SWAP2 SWAP1 PUSH3 0x121 JUMP JUMPDEST POP PUSH1 0x4 PUSH3 0x6F DUP3 DUP3 PUSH3 0x121 JUMP JUMPDEST POP POP CALLER PUSH1 0x80 MSTORE POP PUSH3 0x1ED JUMP JUMPDEST PUSH4 0x4E487B71 PUSH1 0xE0 SHL PUSH1 0x0 MSTORE PUSH1 0x41 PUSH1 0x4 MSTORE PUSH1 0x24 PUSH1 0x0 REVERT JUMPDEST PUSH1 0x1 DUP2 DUP2 SHR SWAP1 DUP3 AND DUP1 PUSH3 0xA7 JUMPI PUSH1 0x7F DUP3 AND SWAP2 POP JUMPDEST PUSH1 0x20 DUP3 LT DUP2 SUB PUSH3 0xC8 JUMPI PUSH4 0x4E487B71 PUSH1 0xE0 SHL PUSH1 0x0 MSTORE PUSH1 0x22 PUSH1 0x4 MSTORE PUSH1 0x24 PUSH1 0x0 REVERT JUMPDEST POP SWAP2 SWAP1 POP JUMP JUMPDEST PUSH1 0x1F DUP3 GT ISZERO PUSH3 0x11C JUMPI PUSH1 0x0 DUP2 DUP2 MSTORE PUSH1 0x20 DUP2 KECCAK256 PUSH1 0x1F DUP6 ADD PUSH1 0x5 SHR DUP2 ADD PUSH1 0x20 DUP7 LT ISZERO PUSH3 0xF7 JUMPI POP DUP1 JUMPDEST PUSH1 0x1F DUP6 ADD PUSH1 0x5 SHR DUP3 ADD SWAP2 POP JUMPDEST DUP2 DUP2 LT ISZERO PUSH3 0x118 JUMPI DUP3 DUP2 SSTORE PUSH1 0x1 ADD PUSH3 0x103 JUMP JUMPDEST POP POP POP JUMPDEST POP POP POP JUMP JUMPDEST DUP2 MLOAD PUSH1 0x1 PUSH1 0x1 PUSH1 0x40 SHL SUB DUP2 GT ISZERO PUSH3 0x13D JUMPI PUSH3 0x13D PUSH3 0x7C JUMP JUMPDEST PUSH3 0x155 DUP2 PUSH3 0x14E DUP5 SLOAD PUSH3 0x92 JUMP JUMPDEST DUP5 PUSH3 0xCE JUMP JUMPDEST PUSH1 0x20 DUP1 PUSH1 0x1F DUP4 GT PUSH1 0x1 DUP2 EQ PUSH3 0x18D JUMPI PUSH1 0x0 DUP5 ISZERO PUSH3 0x174 JUMPI POP DUP6 DUP4 ADD MLOAD JUMPDEST PUSH1 0x0 NOT PUSH1 0x3 DUP7 SWAP1 SHL SHR NOT AND PUSH1 0x1 DUP6 SWAP1 SHL OR DUP6 SSTORE PUSH3 0x118 JUMP JUMPDEST PUSH1 0x0 DUP6 DUP2 MSTORE PUSH1 0x20 DUP2 KECCAK256 PUSH1 0x1F NOT DUP7 AND SWAP2 JUMPDEST DUP3 DUP2 LT ISZERO PUSH3 0x1BE JUMPI DUP9 DUP7 ADD MLOAD DUP3 SSTORE SWAP5 DUP5 ADD SWAP5 PUSH1 0x1 SWAP1 SWAP2 ADD SWAP1 DUP5 ADD PUSH3 0x19D JUMP JUMPDEST POP DUP6 DUP3 LT ISZERO PUSH3 0x1DD JUMPI DUP8 DUP6 ADD MLOAD PUSH1 0x0 NOT PUSH1 0x3 DUP9 SWAP1 SHL PUSH1 0xF8 AND SHR NOT AND DUP2 SSTORE JUMPDEST POP POP POP POP POP PUSH1 0x1 SWAP1 DUP2 SHL ADD SWAP1 SSTORE POP JUMP JUMPDEST PUSH1 0x80 MLOAD PUSH2 0x504B PUSH3 0x210 PUSH1 0x0 CODECOPY PUSH1 0x0 DUP2 DUP2 PUSH2 0x772 ADD MSTORE PUSH2 0x1415 ADD MSTORE PUSH2 0x504B PUSH1 0x0 RETURN INVALID PUSH1 0x80 PUSH1 0x40 MSTORE CALLVALUE DUP1 ISZERO PUSH2 0x10 JUMPI PUSH1 0x0 DUP1 REVERT JUMPDEST POP PUSH1 0x4 CALLDATASIZE LT PUSH2 0x25E JUMPI PUSH1 0x0 CALLDATALOAD PUSH1 0xE0 SHR DUP1 PUSH4 0x65CF71B2 GT PUSH2 0x146 JUMPI DUP1 PUSH4 0x95D89B41 GT PUSH2 0xC3 JUMPI DUP1 PUSH4 0xC3124525 GT PUSH2 0x87 JUMPI DUP1 PUSH4 0xC3124525 EQ PUSH2 0x6A5 JUMPI DUP1 PUSH4 0xCE606EE0 EQ PUSH2 0x76D JUMPI DUP1 PUSH4 0xD5A373FF EQ PUSH2 0x794 JUMPI DUP1 PUSH4 0xDD62ED3E EQ PUSH2 0x7A7 JUMPI DUP1 PUSH4 0xEC9A1917 EQ PUSH2 0x7BA JUMPI DUP1 PUSH4 0xF04B5FA0 EQ PUSH2 0x7CD JUMPI PUSH1 0x0 DUP1 REVERT JUMPDEST DUP1 PUSH4 0x95D89B41 EQ PUSH2 0x651 JUMPI DUP1 PUSH4 0x96F62B9D EQ PUSH2 0x659 JUMPI DUP1 PUSH4 0xA457C2D7 EQ PUSH2 0x66C JUMPI DUP1 PUSH4 0xA9059CBB EQ PUSH2 0x67F JUMPI DUP1 PUSH4 0xB626D6FC EQ PUSH2 0x692 JUMPI PUSH1 0x0 DUP1 REVERT JUMPDEST DUP1 PUSH4 0x87A0F31C GT PUSH2 0x10A JUMPI DUP1 PUSH4 0x87A0F31C EQ PUSH2 0x582 JUMPI DUP1 PUSH4 0x8CBA2842 EQ PUSH2 0x5A2 JUMPI DUP1 PUSH4 0x8E21AA01 EQ PUSH2 0x5B5 JUMPI DUP1 PUSH4 0x8F1C65C0 EQ PUSH2 0x5C8 JUMPI DUP1 PUSH4 0x90DE6871 EQ PUSH2 0x5DB JUMPI PUSH1 0x0 DUP1 REVERT JUMPDEST DUP1 PUSH4 0x65CF71B2 EQ PUSH2 0x4F0 JUMPI DUP1 PUSH4 0x65D2A557 EQ PUSH2 0x503 JUMPI DUP1 PUSH4 0x6A210A0E EQ PUSH2 0x516 JUMPI DUP1 PUSH4 0x70A08231 EQ PUSH2 0x536 JUMPI DUP1 PUSH4 0x7C426620 EQ PUSH2 0x55F JUMPI PUSH1 0x0 DUP1 REVERT JUMPDEST DUP1 PUSH4 0x30C1A785 GT PUSH2 0x1DF JUMPI DUP1 PUSH4 0x34DC8BB5 GT PUSH2 0x1A3 JUMPI DUP1 PUSH4 0x34DC8BB5 EQ PUSH2 0x44E JUMPI DUP1 PUSH4 0x39509351 EQ PUSH2 0x45F JUMPI DUP1 PUSH4 0x3A70A5CA EQ PUSH2 0x472 JUMPI DUP1 PUSH4 0x44203FAF EQ PUSH2 0x47A JUMPI DUP1 PUSH4 0x52A438B8 EQ PUSH2 0x4D5 JUMPI DUP1 PUSH4 0x5C9302C9 EQ PUSH2 0x4E8 JUMPI PUSH1 0x0 DUP1 REVERT JUMPDEST DUP1 PUSH4 0x30C1A785 EQ PUSH2 0x3C1 JUMPI DUP1 PUSH4 0x313CE567 EQ PUSH2 0x3FB JUMPI DUP1 PUSH4 0x319E74F6 EQ PUSH2 0x40A JUMPI DUP1 PUSH4 0x33060D90 EQ PUSH2 0x412 JUMPI DUP1 PUSH4 0x343009A2 EQ PUSH2 0x43B JUMPI PUSH1 0x0 DUP1 REVERT JUMPDEST DUP1 PUSH4 0x18160DDD GT PUSH2 0x226 JUMPI DUP1 PUSH4 0x18160DDD EQ PUSH2 0x302 JUMPI DUP1 PUSH4 0x23B872DD EQ PUSH2 0x30A JUMPI DUP1 PUSH4 0x2607443B EQ PUSH2 0x31D JUMPI DUP1 PUSH4 0x27AA6018 EQ PUSH2 0x382 JUMPI DUP1 PUSH4 0x283A5BAF EQ PUSH2 0x395 JUMPI PUSH1 0x0 DUP1 REVERT JUMPDEST DUP1 PUSH4 0x6FDDE03 EQ PUSH2 0x263 JUMPI DUP1 PUSH4 0x95EA7B3 EQ PUSH2 0x281 JUMPI DUP1 PUSH4 0xD4D1513 EQ PUSH2 0x2A4 JUMPI DUP1 PUSH4 0x1285B047 EQ PUSH2 0x2B9 JUMPI DUP1 PUSH4 0x13C5C2C7 EQ PUSH2 0x2CF JUMPI JUMPDEST PUSH1 0x0 DUP1 REVERT JUMPDEST PUSH2 0x26B PUSH2 0x7E2 JUMP JUMPDEST PUSH1 0x40 MLOAD PUSH2 0x278 SWAP2 SWAP1 PUSH2 0x4642 JUMP JUMPDEST PUSH1 0x40 MLOAD DUP1 SWAP2 SUB SWAP1 RETURN JUMPDEST PUSH2 0x294 PUSH2 0x28F CALLDATASIZE PUSH1 0x4 PUSH2 0x4691 JUMP JUMPDEST PUSH2 0x874 JUMP JUMPDEST PUSH1 0x40 MLOAD SWAP1 ISZERO ISZERO DUP2 MSTORE PUSH1 0x20 ADD PUSH2 0x278 JUMP JUMPDEST PUSH2 0x2B7 PUSH2 0x2B2 CALLDATASIZE PUSH1 0x4 PUSH2 0x46BB JUMP JUMPDEST PUSH2 0x88E JUMP JUMPDEST STOP JUMPDEST PUSH2 0x2C1 PUSH2 0x8FF JUMP JUMPDEST PUSH1 0x40 MLOAD SWAP1 DUP2 MSTORE PUSH1 0x20 ADD PUSH2 0x278 JUMP JUMPDEST PUSH2 0x2EA PUSH20 0xDEC9F2793E3C17CD26EEFB21C4762FA5128E0399 DUP2 JUMP JUMPDEST PUSH1 0x40 MLOAD PUSH1 0x1 PUSH1 0x1 PUSH1 0xA0 SHL SUB SWAP1 SWAP2 AND DUP2 MSTORE PUSH1 0x20 ADD PUSH2 0x278 JUMP JUMPDEST PUSH1 0x2 SLOAD PUSH2 0x2C1 JUMP JUMPDEST PUSH2 0x294 PUSH2 0x318 CALLDATASIZE PUSH1 0x4 PUSH2 0x46F7 JUMP JUMPDEST PUSH2 0x92A JUMP JUMPDEST PUSH2 0x330 PUSH2 0x32B CALLDATASIZE PUSH1 0x4 PUSH2 0x4691 JUMP JUMPDEST PUSH2 0x950 JUMP JUMPDEST PUSH1 0x40 DUP1 MLOAD PUSH5 0xFFFFFFFFFF SWAP9 SWAP1 SWAP9 AND DUP9 MSTORE PUSH1 0x1 PUSH1 0x1 PUSH1 0x48 SHL SUB SWAP7 DUP8 AND PUSH1 0x20 DUP10 ADD MSTORE SWAP5 SWAP1 SWAP6 AND SWAP4 DUP7 ADD SWAP4 SWAP1 SWAP4 MSTORE PUSH2 0xFFFF SWAP2 DUP3 AND PUSH1 0x60 DUP7 ADD MSTORE DUP2 AND PUSH1 0x80 DUP6 ADD MSTORE AND PUSH1 0xA0 DUP4 ADD MSTORE ISZERO ISZERO PUSH1 0xC0 DUP3 ADD MSTORE PUSH1 0xE0 ADD PUSH2 0x278 JUMP JUMPDEST PUSH2 0x294 PUSH2 0x390 CALLDATASIZE PUSH1 0x4 PUSH2 0x477F JUMP JUMPDEST PUSH2 0x9CC JUMP JUMPDEST PUSH2 0x3A8 PUSH2 0x3A3 CALLDATASIZE PUSH1 0x4 PUSH2 0x47DC JUMP JUMPDEST PUSH2 0xA13 JUMP JUMPDEST PUSH1 0x40 MLOAD PUSH1 0x1 PUSH1 0x1 PUSH1 0x60 SHL SUB NOT SWAP1 SWAP2 AND DUP2 MSTORE PUSH1 0x20 ADD PUSH2 0x278 JUMP JUMPDEST PUSH2 0x2EA PUSH2 0x3CF CALLDATASIZE PUSH1 0x4 PUSH2 0x4808 JUMP JUMPDEST PUSH1 0x40 DUP1 MLOAD PUSH1 0x20 DUP1 DUP3 ADD SWAP5 SWAP1 SWAP5 MSTORE DUP1 DUP3 ADD SWAP3 SWAP1 SWAP3 MSTORE DUP1 MLOAD DUP1 DUP4 SUB DUP3 ADD DUP2 MSTORE PUSH1 0x60 SWAP1 SWAP3 ADD SWAP1 MSTORE DUP1 MLOAD SWAP2 ADD KECCAK256 SWAP1 JUMP JUMPDEST PUSH1 0x40 MLOAD PUSH1 0x8 DUP2 MSTORE PUSH1 0x20 ADD PUSH2 0x278 JUMP JUMPDEST PUSH2 0x2C1 PUSH2 0xBC4 JUMP JUMPDEST PUSH2 0x2C1 PUSH2 0x420 CALLDATASIZE PUSH1 0x4 PUSH2 0x482A JUMP JUMPDEST PUSH1 0x1 PUSH1 0x1 PUSH1 0xA0 SHL SUB AND PUSH1 0x0 SWAP1 DUP2 MSTORE PUSH1 0xA PUSH1 0x20 MSTORE PUSH1 0x40 SWAP1 KECCAK256 SLOAD SWAP1 JUMP JUMPDEST PUSH2 0x2B7 PUSH2 0x449 CALLDATASIZE PUSH1 0x4 PUSH2 0x485A JUMP JUMPDEST PUSH2 0xBD0 JUMP JUMPDEST PUSH1 0x5 SLOAD PUSH1 0x1 PUSH1 0x1 PUSH1 0xA0 SHL SUB AND PUSH2 0x2EA JUMP JUMPDEST PUSH2 0x294 PUSH2 0x46D CALLDATASIZE PUSH1 0x4 PUSH2 0x4691 JUMP JUMPDEST PUSH2 0xEA8 JUMP JUMPDEST PUSH2 0x2C1 PUSH2 0xECA JUMP JUMPDEST PUSH2 0x4B7 PUSH2 0x488 CALLDATASIZE PUSH1 0x4 PUSH2 0x4886 JUMP JUMPDEST PUSH1 0xC PUSH1 0x20 SWAP1 DUP2 MSTORE PUSH1 0x0 SWAP3 DUP4 MSTORE PUSH1 0x40 DUP1 DUP5 KECCAK256 SWAP1 SWAP2 MSTORE SWAP1 DUP3 MSTORE SWAP1 KECCAK256 SLOAD PUSH5 0xFFFFFFFFFF DUP1 DUP3 AND SWAP2 PUSH1 0x1 PUSH1 0x28 SHL SWAP1 DIV AND DUP3 JUMP JUMPDEST PUSH1 0x40 DUP1 MLOAD PUSH5 0xFFFFFFFFFF SWAP4 DUP5 AND DUP2 MSTORE SWAP3 SWAP1 SWAP2 AND PUSH1 0x20 DUP4 ADD MSTORE ADD PUSH2 0x278 JUMP JUMPDEST PUSH2 0x2B7 PUSH2 0x4E3 CALLDATASIZE PUSH1 0x4 PUSH2 0x4808 JUMP JUMPDEST PUSH2 0xEF1 JUMP JUMPDEST PUSH2 0x2C1 PUSH2 0xF9B JUMP JUMPDEST PUSH2 0x2B7 PUSH2 0x4FE CALLDATASIZE PUSH1 0x4 PUSH2 0x48A9 JUMP JUMPDEST PUSH2 0xFA5 JUMP JUMPDEST PUSH2 0x2B7 PUSH2 0x511 CALLDATASIZE PUSH1 0x4 PUSH2 0x49C2 JUMP JUMPDEST PUSH2 0x12B1 JUMP JUMPDEST PUSH2 0x529 PUSH2 0x524 CALLDATASIZE PUSH1 0x4 PUSH2 0x4808 JUMP JUMPDEST PUSH2 0x12BF JUMP JUMPDEST PUSH1 0x40 MLOAD PUSH2 0x278 SWAP2 SWAP1 PUSH2 0x49F0 JUMP JUMPDEST PUSH2 0x2C1 PUSH2 0x544 CALLDATASIZE PUSH1 0x4 PUSH2 0x482A JUMP JUMPDEST PUSH1 0x1 PUSH1 0x1 PUSH1 0xA0 SHL SUB AND PUSH1 0x0 SWAP1 DUP2 MSTORE PUSH1 0x20 DUP2 SWAP1 MSTORE PUSH1 0x40 SWAP1 KECCAK256 SLOAD SWAP1 JUMP JUMPDEST PUSH2 0x294 PUSH2 0x56D CALLDATASIZE PUSH1 0x4 PUSH2 0x4A4C JUMP JUMPDEST PUSH1 0x8 PUSH1 0x20 MSTORE PUSH1 0x0 SWAP1 DUP2 MSTORE PUSH1 0x40 SWAP1 KECCAK256 SLOAD PUSH1 0xFF AND DUP2 JUMP JUMPDEST PUSH2 0x2C1 PUSH2 0x590 CALLDATASIZE PUSH1 0x4 PUSH2 0x4A67 JUMP JUMPDEST PUSH1 0xB PUSH1 0x20 MSTORE PUSH1 0x0 SWAP1 DUP2 MSTORE PUSH1 0x40 SWAP1 KECCAK256 SLOAD DUP2 JUMP JUMPDEST PUSH2 0x2B7 PUSH2 0x5B0 CALLDATASIZE PUSH1 0x4 PUSH2 0x482A JUMP JUMPDEST PUSH2 0x140A JUMP JUMPDEST PUSH2 0x294 PUSH2 0x5C3 CALLDATASIZE PUSH1 0x4 PUSH2 0x4A80 JUMP JUMPDEST PUSH2 0x1494 JUMP JUMPDEST PUSH2 0x2B7 PUSH2 0x5D6 CALLDATASIZE PUSH1 0x4 PUSH2 0x4A67 JUMP JUMPDEST PUSH2 0x159B JUMP JUMPDEST PUSH2 0x622 PUSH2 0x5E9 CALLDATASIZE PUSH1 0x4 PUSH2 0x4A67 JUMP JUMPDEST PUSH1 0x9 PUSH1 0x20 MSTORE PUSH1 0x0 SWAP1 DUP2 MSTORE PUSH1 0x40 SWAP1 KECCAK256 SLOAD PUSH1 0x1 PUSH1 0x1 PUSH1 0x48 SHL SUB DUP1 DUP3 AND SWAP2 PUSH1 0x1 PUSH1 0x48 SHL DUP2 DIV SWAP1 SWAP2 AND SWAP1 PUSH1 0x1 PUSH1 0x90 SHL SWAP1 DIV PUSH7 0xFFFFFFFFFFFFFF AND DUP4 JUMP JUMPDEST PUSH1 0x40 DUP1 MLOAD PUSH1 0x1 PUSH1 0x1 PUSH1 0x48 SHL SUB SWAP5 DUP6 AND DUP2 MSTORE SWAP4 SWAP1 SWAP3 AND PUSH1 0x20 DUP5 ADD MSTORE PUSH7 0xFFFFFFFFFFFFFF AND SWAP1 DUP3 ADD MSTORE PUSH1 0x60 ADD PUSH2 0x278 JUMP JUMPDEST PUSH2 0x26B PUSH2 0x1693 JUMP JUMPDEST PUSH2 0x2C1 PUSH2 0x667 CALLDATASIZE PUSH1 0x4 PUSH2 0x4ADA JUMP JUMPDEST PUSH2 0x16A2 JUMP JUMPDEST PUSH2 0x294 PUSH2 0x67A CALLDATASIZE PUSH1 0x4 PUSH2 0x4691 JUMP JUMPDEST PUSH2 0x1988 JUMP JUMPDEST PUSH2 0x294 PUSH2 0x68D CALLDATASIZE PUSH1 0x4 PUSH2 0x4691 JUMP JUMPDEST PUSH2 0x1A0E JUMP JUMPDEST PUSH1 0x5 SLOAD PUSH2 0x2EA SWAP1 PUSH1 0x1 PUSH1 0x1 PUSH1 0xA0 SHL SUB AND DUP2 JUMP JUMPDEST PUSH1 0x6 SLOAD PUSH1 0x7 SLOAD PUSH2 0x70B SWAP2 PUSH1 0x1 PUSH1 0x1 PUSH1 0x48 SHL SUB DUP1 DUP3 AND SWAP3 PUSH1 0x1 PUSH1 0x48 SHL DUP4 DIV DUP3 AND SWAP3 PUSH5 0xFFFFFFFFFF PUSH1 0x1 PUSH1 0x90 SHL DUP3 DIV DUP2 AND SWAP4 PUSH1 0x1 PUSH1 0xB8 SHL SWAP1 SWAP3 DIV DUP3 AND SWAP3 PUSH2 0xFFFF DUP2 AND SWAP3 PUSH3 0x10000 DUP3 DIV AND SWAP2 PUSH1 0x1 PUSH1 0x58 SHL DUP3 DIV AND SWAP1 PUSH1 0x1 PUSH1 0x1 PUSH1 0x80 SHL SUB PUSH1 0x1 PUSH1 0x80 SHL SWAP1 SWAP2 DIV AND DUP9 JUMP JUMPDEST PUSH1 0x40 DUP1 MLOAD PUSH1 0x1 PUSH1 0x1 PUSH1 0x48 SHL SUB SWAP10 DUP11 AND DUP2 MSTORE SWAP8 DUP10 AND PUSH1 0x20 DUP10 ADD MSTORE PUSH5 0xFFFFFFFFFF SWAP7 DUP8 AND SWAP1 DUP9 ADD MSTORE SWAP4 DUP8 AND PUSH1 0x60 DUP8 ADD MSTORE PUSH2 0xFFFF SWAP1 SWAP3 AND PUSH1 0x80 DUP7 ADD MSTORE SWAP5 SWAP1 SWAP5 AND PUSH1 0xA0 DUP5 ADD MSTORE SWAP3 AND PUSH1 0xC0 DUP3 ADD MSTORE PUSH1 0x1 PUSH1 0x1 PUSH1 0x80 SHL SUB SWAP1 SWAP2 AND PUSH1 0xE0 DUP3 ADD MSTORE PUSH2 0x100 ADD PUSH2 0x278 JUMP JUMPDEST PUSH2 0x2EA PUSH32 0x0 DUP2 JUMP JUMPDEST PUSH2 0x294 PUSH2 0x7A2 CALLDATASIZE PUSH1 0x4 PUSH2 0x4B9D JUMP JUMPDEST PUSH2 0x1A1C JUMP JUMPDEST PUSH2 0x2C1 PUSH2 0x7B5 CALLDATASIZE PUSH1 0x4 PUSH2 0x4C11 JUMP JUMPDEST PUSH2 0x1B36 JUMP JUMPDEST PUSH2 0x294 PUSH2 0x7C8 CALLDATASIZE PUSH1 0x4 PUSH2 0x4A80 JUMP JUMPDEST PUSH2 0x1B61 JUMP JUMPDEST PUSH2 0x7D5 PUSH2 0x1BAA JUMP JUMPDEST PUSH1 0x40 MLOAD PUSH2 0x278 SWAP2 SWAP1 PUSH2 0x4C3B JUMP JUMPDEST PUSH1 0x60 PUSH1 0x3 DUP1 SLOAD PUSH2 0x7F1 SWAP1 PUSH2 0x4C64 JUMP JUMPDEST DUP1 PUSH1 0x1F ADD PUSH1 0x20 DUP1 SWAP2 DIV MUL PUSH1 0x20 ADD PUSH1 0x40 MLOAD SWAP1 DUP2 ADD PUSH1 0x40 MSTORE DUP1 SWAP3 SWAP2 SWAP1 DUP2 DUP2 MSTORE PUSH1 0x20 ADD DUP3 DUP1 SLOAD PUSH2 0x81D SWAP1 PUSH2 0x4C64 JUMP JUMPDEST DUP1 ISZERO PUSH2 0x86A JUMPI DUP1 PUSH1 0x1F LT PUSH2 0x83F JUMPI PUSH2 0x100 DUP1 DUP4 SLOAD DIV MUL DUP4 MSTORE SWAP2 PUSH1 0x20 ADD SWAP2 PUSH2 0x86A JUMP JUMPDEST DUP3 ADD SWAP2 SWAP1 PUSH1 0x0 MSTORE PUSH1 0x20 PUSH1 0x0 KECCAK256 SWAP1 JUMPDEST DUP2 SLOAD DUP2 MSTORE SWAP1 PUSH1 0x1 ADD SWAP1 PUSH1 0x20 ADD DUP1 DUP4 GT PUSH2 0x84D JUMPI DUP3 SWAP1 SUB PUSH1 0x1F AND DUP3 ADD SWAP2 JUMPDEST POP POP POP POP POP SWAP1 POP SWAP1 JUMP JUMPDEST PUSH1 0x0 CALLER PUSH2 0x882 DUP2 DUP6 DUP6 PUSH2 0x1CAC JUMP JUMPDEST PUSH1 0x1 SWAP2 POP POP JUMPDEST SWAP3 SWAP2 POP POP JUMP JUMPDEST PUSH1 0x5 SLOAD PUSH1 0x1 PUSH1 0x1 PUSH1 0xA0 SHL SUB DUP3 DUP2 AND SWAP2 AND EQ PUSH2 0x8F0 JUMPI PUSH1 0x40 MLOAD PUSH3 0x461BCD PUSH1 0xE5 SHL DUP2 MSTORE PUSH1 0x20 PUSH1 0x4 DUP3 ADD MSTORE PUSH1 0x19 PUSH1 0x24 DUP3 ADD MSTORE PUSH32 0x43616C6C6572206973206E6F7420544220636F6E747261637400000000000000 PUSH1 0x44 DUP3 ADD MSTORE PUSH1 0x64 ADD JUMPDEST PUSH1 0x40 MLOAD DUP1 SWAP2 SUB SWAP1 REVERT JUMPDEST PUSH2 0x8FA DUP4 DUP4 PUSH2 0x1DD0 JUMP JUMPDEST POP POP POP JUMP JUMPDEST PUSH2 0x2710 PUSH4 0x5F5E100 PUSH2 0x913 PUSH1 0x8 PUSH1 0xA PUSH2 0x4D98 JUMP JUMPDEST PUSH2 0x91D SWAP2 SWAP1 PUSH2 0x4DA4 JUMP JUMPDEST PUSH2 0x927 SWAP2 SWAP1 PUSH2 0x4DC6 JUMP JUMPDEST DUP2 JUMP JUMPDEST PUSH1 0x0 CALLER PUSH2 0x938 DUP6 DUP3 DUP6 PUSH2 0x1E8F JUMP JUMPDEST PUSH2 0x943 DUP6 DUP6 DUP6 PUSH2 0x1F03 JUMP JUMPDEST PUSH1 0x1 SWAP2 POP POP JUMPDEST SWAP4 SWAP3 POP POP POP JUMP JUMPDEST PUSH1 0xA PUSH1 0x20 MSTORE DUP2 PUSH1 0x0 MSTORE PUSH1 0x40 PUSH1 0x0 KECCAK256 DUP2 DUP2 SLOAD DUP2 LT PUSH2 0x96C JUMPI PUSH1 0x0 DUP1 REVERT JUMPDEST PUSH1 0x0 SWAP2 DUP3 MSTORE PUSH1 0x20 SWAP1 SWAP2 KECCAK256 ADD SLOAD PUSH5 0xFFFFFFFFFF DUP2 AND SWAP3 POP PUSH1 0x1 PUSH1 0x1 PUSH1 0x48 SHL SUB PUSH1 0x1 PUSH1 0x28 SHL DUP3 DIV DUP2 AND SWAP3 POP PUSH1 0x1 PUSH1 0x70 SHL DUP3 DIV AND SWAP1 PUSH2 0xFFFF PUSH1 0x1 PUSH1 0xB8 SHL DUP3 DIV DUP2 AND SWAP2 PUSH1 0x1 PUSH1 0xC8 SHL DUP2 DIV DUP3 AND SWAP2 PUSH1 0x1 PUSH1 0xD8 SHL DUP3 DIV AND SWAP1 PUSH1 0xFF PUSH1 0x1 PUSH1 0xE8 SHL SWAP1 SWAP2 DIV AND DUP8 JUMP JUMPDEST PUSH1 0x0 PUSH2 0xA0B DUP5 DUP5 DUP5 DUP1 DUP1 PUSH1 0x20 MUL PUSH1 0x20 ADD PUSH1 0x40 MLOAD SWAP1 DUP2 ADD PUSH1 0x40 MSTORE DUP1 SWAP4 SWAP3 SWAP2 SWAP1 DUP2 DUP2 MSTORE PUSH1 0x20 ADD DUP4 DUP4 PUSH1 0x20 MUL DUP1 DUP3 DUP5 CALLDATACOPY PUSH1 0x0 SWAP3 ADD SWAP2 SWAP1 SWAP2 MSTORE POP PUSH2 0x20A7 SWAP3 POP POP POP JUMP JUMPDEST SWAP5 SWAP4 POP POP POP POP JUMP JUMPDEST PUSH1 0x0 DUP1 PUSH1 0x60 PUSH1 0x2 DUP5 AND ISZERO DUP1 ISZERO SWAP1 PUSH1 0x4 DUP7 AND ISZERO ISZERO SWAP1 PUSH1 0x8 DUP8 AND ISZERO ISZERO SWAP1 PUSH2 0xAD8 JUMPI DUP2 DUP1 ISZERO PUSH2 0xA3C JUMPI POP DUP1 JUMPDEST ISZERO PUSH2 0xA84 JUMPI PUSH1 0x40 MLOAD PUSH3 0x461BCD PUSH1 0xE5 SHL DUP2 MSTORE PUSH1 0x20 PUSH1 0x4 DUP3 ADD MSTORE PUSH1 0x18 PUSH1 0x24 DUP3 ADD MSTORE PUSH24 0x135653950E8818DB185A5B519B1859DCC81A5B9D985B1A59 PUSH1 0x42 SHL PUSH1 0x44 DUP3 ADD MSTORE PUSH1 0x64 ADD PUSH2 0x8E7 JUMP JUMPDEST PUSH1 0x1 PUSH1 0xF8 SHL PUSH1 0xF8 DUP10 SWAP1 SHL AND ISZERO PUSH2 0xA9B JUMPI PUSH1 0x3 PUSH2 0xA9E JUMP JUMPDEST PUSH1 0x2 JUMPDEST PUSH1 0x40 MLOAD PUSH1 0x1 PUSH1 0x1 PUSH1 0xF8 SHL SUB NOT PUSH1 0xF8 DUP4 SWAP1 SHL AND PUSH1 0x20 DUP3 ADD MSTORE PUSH1 0x21 DUP2 ADD DUP12 SWAP1 MSTORE SWAP1 SWAP6 POP PUSH1 0x41 ADD PUSH1 0x40 MLOAD PUSH1 0x20 DUP2 DUP4 SUB SUB DUP2 MSTORE SWAP1 PUSH1 0x40 MSTORE SWAP4 POP PUSH2 0xB5F JUMP JUMPDEST DUP2 ISZERO DUP1 ISZERO PUSH2 0xAE4 JUMPI POP DUP1 ISZERO JUMPDEST PUSH2 0xB2B JUMPI PUSH1 0x40 MLOAD PUSH3 0x461BCD PUSH1 0xE5 SHL DUP2 MSTORE PUSH1 0x20 PUSH1 0x4 DUP3 ADD MSTORE PUSH1 0x18 PUSH1 0x24 DUP3 ADD MSTORE PUSH24 0x135653950E8818DB185A5B519B1859DCC81A5B9D985B1A59 PUSH1 0x42 SHL PUSH1 0x44 DUP3 ADD MSTORE PUSH1 0x64 ADD PUSH2 0x8E7 JUMP JUMPDEST PUSH1 0x40 MLOAD PUSH1 0x1 PUSH1 0xFA SHL PUSH1 0x20 DUP3 ADD MSTORE PUSH1 0x21 DUP2 ADD DUP11 SWAP1 MSTORE PUSH1 0x41 DUP2 ADD DUP10 SWAP1 MSTORE PUSH1 0x4 SWAP6 POP PUSH1 0x61 ADD PUSH1 0x40 MLOAD PUSH1 0x20 DUP2 DUP4 SUB SUB DUP2 MSTORE SWAP1 PUSH1 0x40 MSTORE SWAP4 POP JUMPDEST PUSH1 0x0 PUSH2 0xB6A DUP6 PUSH2 0x20D4 JUMP JUMPDEST SWAP1 POP DUP3 ISZERO PUSH2 0xBB7 JUMPI PUSH1 0x40 MLOAD PUSH1 0x5 PUSH1 0xF2 SHL PUSH1 0x20 DUP3 ADD MSTORE PUSH1 0x1 PUSH1 0x1 PUSH1 0x60 SHL SUB NOT DUP3 AND PUSH1 0x22 DUP3 ADD MSTORE PUSH2 0xBAA SWAP1 PUSH1 0x36 ADD PUSH1 0x40 MLOAD PUSH1 0x20 DUP2 DUP4 SUB SUB DUP2 MSTORE SWAP1 PUSH1 0x40 MSTORE PUSH2 0x20D4 JUMP JUMPDEST SWAP7 POP POP POP POP POP POP POP PUSH2 0x949 JUMP JUMPDEST SWAP10 SWAP9 POP POP POP POP POP POP POP POP POP JUMP JUMPDEST PUSH2 0x927 PUSH1 0x32 PUSH1 0x7 PUSH2 0x4DC6 JUMP JUMPDEST PUSH2 0xBD8 PUSH2 0x4558 JUMP JUMPDEST PUSH2 0xBE0 PUSH2 0x4558 JUMP JUMPDEST PUSH2 0xBEA DUP3 DUP3 PUSH2 0x2181 JUMP JUMPDEST CALLER PUSH1 0x0 SWAP1 DUP2 MSTORE PUSH1 0xA PUSH1 0x20 MSTORE PUSH1 0x40 DUP2 KECCAK256 DUP1 SLOAD SWAP1 SWAP2 SUB PUSH2 0xC43 JUMPI PUSH1 0x40 MLOAD PUSH3 0x461BCD PUSH1 0xE5 SHL DUP2 MSTORE PUSH1 0x20 PUSH1 0x4 DUP3 ADD MSTORE PUSH1 0x16 PUSH1 0x24 DUP3 ADD MSTORE PUSH22 0x135653950E88115B5C1D1E481CDD185AD9481B1A5CDD PUSH1 0x52 SHL PUSH1 0x44 DUP3 ADD MSTORE PUSH1 0x64 ADD PUSH2 0x8E7 JUMP JUMPDEST DUP1 SLOAD DUP6 LT PUSH2 0xC8E JUMPI PUSH1 0x40 MLOAD PUSH3 0x461BCD PUSH1 0xE5 SHL DUP2 MSTORE PUSH1 0x20 PUSH1 0x4 DUP3 ADD MSTORE PUSH1 0x18 PUSH1 0x24 DUP3 ADD MSTORE PUSH24 0x135653950E881CDD185AD9525B99195E081A5B9D985B1A59 PUSH1 0x42 SHL PUSH1 0x44 DUP3 ADD MSTORE PUSH1 0x64 ADD PUSH2 0x8E7 JUMP JUMPDEST PUSH2 0xC96 PUSH2 0x45B9 JUMP JUMPDEST PUSH2 0xCBC DUP3 DUP8 DUP2 SLOAD DUP2 LT PUSH2 0xCAB JUMPI PUSH2 0xCAB PUSH2 0x4DDD JUMP JUMPDEST SWAP1 PUSH1 0x0 MSTORE PUSH1 0x20 PUSH1 0x0 KECCAK256 ADD DUP7 DUP4 PUSH2 0x222F JUMP JUMPDEST PUSH2 0xCC5 DUP5 PUSH2 0x22FD JUMP JUMPDEST PUSH1 0x0 DUP1 DUP3 PUSH1 0xA0 ADD MLOAD PUSH1 0x0 EQ ISZERO SWAP1 POP PUSH1 0x0 DUP1 PUSH1 0x0 SWAP1 POP PUSH1 0x0 DUP1 DUP7 PUSH1 0x60 ADD MLOAD DUP11 PUSH2 0x140 ADD MLOAD LT PUSH2 0xDAE JUMPI DUP5 ISZERO PUSH2 0xCFF JUMPI DUP7 PUSH1 0x80 ADD MLOAD SWAP6 POP PUSH2 0xD94 JUMP JUMPDEST PUSH2 0xD09 DUP11 DUP9 PUSH2 0x2311 JUMP JUMPDEST DUP7 PUSH1 0x60 ADD MLOAD DUP11 PUSH2 0x140 ADD MLOAD PUSH2 0xD1E SWAP2 SWAP1 PUSH2 0x4DF3 JUMP JUMPDEST SWAP6 POP DUP7 PUSH1 0x80 ADD MLOAD DUP7 GT ISZERO PUSH2 0xD38 JUMPI DUP7 PUSH1 0x80 ADD MLOAD SWAP6 POP PUSH2 0xD94 JUMP JUMPDEST PUSH2 0x15E DUP7 LT ISZERO PUSH2 0xD94 JUMPI DUP7 PUSH1 0xC0 ADD MLOAD ISZERO PUSH2 0xD94 JUMPI PUSH1 0x40 MLOAD PUSH3 0x461BCD PUSH1 0xE5 SHL DUP2 MSTORE PUSH1 0x20 PUSH1 0x4 DUP3 ADD MSTORE PUSH1 0x1D PUSH1 0x24 DUP3 ADD MSTORE PUSH32 0x4D594E543A204175746F2D7374616B65207374696C6C206C6F636B6564000000 PUSH1 0x44 DUP3 ADD MSTORE PUSH1 0x64 ADD PUSH2 0x8E7 JUMP JUMPDEST PUSH2 0xD9F DUP11 DUP9 DUP9 PUSH2 0x2339 JUMP JUMPDEST SWAP3 SWAP7 POP SWAP1 SWAP5 POP SWAP3 POP SWAP1 POP PUSH2 0xE21 JUMP JUMPDEST DUP7 PUSH1 0xC0 ADD MLOAD ISZERO PUSH2 0xE00 JUMPI PUSH1 0x40 MLOAD PUSH3 0x461BCD PUSH1 0xE5 SHL DUP2 MSTORE PUSH1 0x20 PUSH1 0x4 DUP3 ADD MSTORE PUSH1 0x1D PUSH1 0x24 DUP3 ADD MSTORE PUSH32 0x4D594E543A204175746F2D7374616B65207374696C6C206C6F636B6564000000 PUSH1 0x44 DUP3 ADD MSTORE PUSH1 0x64 ADD PUSH2 0x8E7 JUMP JUMPDEST DUP7 PUSH1 0x40 ADD MLOAD DUP11 PUSH1 0x20 ADD DUP2 DUP2 MLOAD PUSH2 0xE16 SWAP2 SWAP1 PUSH2 0x4DF3 JUMP JUMPDEST SWAP1 MSTORE POP PUSH1 0x20 DUP8 ADD MLOAD SWAP4 POP JUMPDEST PUSH2 0xE38 DUP12 DUP9 PUSH1 0x20 ADD MLOAD DUP10 PUSH1 0x40 ADD MLOAD DUP7 DUP7 DUP12 DUP12 PUSH2 0x23FD JUMP JUMPDEST DUP1 ISZERO DUP1 ISZERO SWAP1 PUSH2 0xE45 JUMPI POP DUP5 ISZERO JUMPDEST ISZERO PUSH2 0xE54 JUMPI PUSH2 0xE54 DUP11 DUP3 PUSH2 0x24C2 JUMP JUMPDEST DUP4 ISZERO PUSH2 0xE6F JUMPI PUSH2 0xE64 CALLER DUP6 PUSH2 0x1DD0 JUMP JUMPDEST PUSH2 0xE6F DUP11 DUP9 DUP7 PUSH2 0x251B JUMP JUMPDEST PUSH1 0x20 DUP8 ADD MLOAD DUP11 MLOAD DUP12 SWAP1 PUSH2 0xE83 SWAP1 DUP4 SWAP1 PUSH2 0x4DF3 JUMP JUMPDEST SWAP1 MSTORE POP PUSH2 0xE90 DUP9 DUP14 PUSH2 0x25B5 JUMP JUMPDEST PUSH2 0xE9A DUP11 DUP11 PUSH2 0x274A JUMP JUMPDEST POP POP POP POP POP POP POP POP POP POP POP POP JUMP JUMPDEST PUSH1 0x0 CALLER PUSH2 0x882 DUP2 DUP6 DUP6 PUSH2 0xEBB DUP4 DUP4 PUSH2 0x1B36 JUMP JUMPDEST PUSH2 0xEC5 SWAP2 SWAP1 PUSH2 0x4E06 JUMP JUMPDEST PUSH2 0x1CAC JUMP JUMPDEST PUSH1 0x6 SLOAD PUSH1 0x0 SWAP1 PUSH1 0x1 PUSH1 0x1 PUSH1 0x48 SHL SUB AND PUSH2 0xEE2 PUSH1 0x2 SLOAD SWAP1 JUMP JUMPDEST PUSH2 0xEEC SWAP2 SWAP1 PUSH2 0x4E06 JUMP JUMPDEST SWAP1 POP SWAP1 JUMP JUMPDEST PUSH2 0xEF9 PUSH2 0x4558 JUMP JUMPDEST PUSH2 0xF01 PUSH2 0x4558 JUMP JUMPDEST PUSH2 0xF0B DUP3 DUP3 PUSH2 0x2181 JUMP JUMPDEST PUSH1 0x1 DUP4 LT ISZERO PUSH2 0xF6B JUMPI PUSH1 0x40 MLOAD PUSH3 0x461BCD PUSH1 0xE5 SHL DUP2 MSTORE PUSH1 0x20 PUSH1 0x4 DUP3 ADD MSTORE PUSH1 0x26 PUSH1 0x24 DUP3 ADD MSTORE PUSH32 0x4D594E543A206E65775374616B656444617973206C6F776572207468616E206D PUSH1 0x44 DUP3 ADD MSTORE PUSH6 0x696E696D756D PUSH1 0xD0 SHL PUSH1 0x64 DUP3 ADD MSTORE PUSH1 0x84 ADD PUSH2 0x8E7 JUMP JUMPDEST PUSH2 0xF74 DUP3 PUSH2 0x22FD JUMP JUMPDEST PUSH2 0xF81 DUP3 DUP6 DUP6 PUSH1 0x0 PUSH2 0x292A JUMP JUMPDEST PUSH2 0xF8B CALLER DUP6 PUSH2 0x2BFF JUMP JUMPDEST PUSH2 0xF95 DUP3 DUP3 PUSH2 0x274A JUMP JUMPDEST POP POP POP POP JUMP JUMPDEST PUSH1 0x0 PUSH2 0xEEC PUSH2 0x2D31 JUMP JUMPDEST PUSH2 0xFAD PUSH2 0x4558 JUMP JUMPDEST PUSH2 0xFB5 PUSH2 0x4558 JUMP JUMPDEST PUSH2 0xFBF DUP3 DUP3 PUSH2 0x2181 JUMP JUMPDEST PUSH1 0x1 PUSH1 0x1 PUSH1 0xA0 SHL SUB DUP6 AND PUSH1 0x0 SWAP1 DUP2 MSTORE PUSH1 0xA PUSH1 0x20 MSTORE PUSH1 0x40 DUP2 KECCAK256 SLOAD SWAP1 SUB PUSH2 0x101F JUMPI PUSH1 0x40 MLOAD PUSH3 0x461BCD PUSH1 0xE5 SHL DUP2 MSTORE PUSH1 0x20 PUSH1 0x4 DUP3 ADD MSTORE PUSH1 0x16 PUSH1 0x24 DUP3 ADD MSTORE PUSH22 0x135653950E88115B5C1D1E481CDD185AD9481B1A5CDD PUSH1 0x52 SHL PUSH1 0x44 DUP3 ADD MSTORE PUSH1 0x64 ADD PUSH2 0x8E7 JUMP JUMPDEST PUSH1 0x1 PUSH1 0x1 PUSH1 0xA0 SHL SUB DUP6 AND PUSH1 0x0 SWAP1 DUP2 MSTORE PUSH1 0xA PUSH1 0x20 MSTORE PUSH1 0x40 SWAP1 KECCAK256 SLOAD DUP5 LT PUSH2 0x1081 JUMPI PUSH1 0x40 MLOAD PUSH3 0x461BCD PUSH1 0xE5 SHL DUP2 MSTORE PUSH1 0x20 PUSH1 0x4 DUP3 ADD MSTORE PUSH1 0x18 PUSH1 0x24 DUP3 ADD MSTORE PUSH24 0x135653950E881CDD185AD9525B99195E081A5B9D985B1A59 PUSH1 0x42 SHL PUSH1 0x44 DUP3 ADD MSTORE PUSH1 0x64 ADD PUSH2 0x8E7 JUMP JUMPDEST PUSH1 0x1 PUSH1 0x1 PUSH1 0xA0 SHL SUB DUP6 AND PUSH1 0x0 SWAP1 DUP2 MSTORE PUSH1 0xA PUSH1 0x20 MSTORE PUSH1 0x40 DUP2 KECCAK256 DUP1 SLOAD DUP7 SWAP1 DUP2 LT PUSH2 0x10AB JUMPI PUSH2 0x10AB PUSH2 0x4DDD JUMP JUMPDEST SWAP1 PUSH1 0x0 MSTORE PUSH1 0x20 PUSH1 0x0 KECCAK256 ADD SWAP1 POP PUSH2 0x10BF PUSH2 0x45B9 JUMP JUMPDEST PUSH2 0x10CA DUP3 DUP7 DUP4 PUSH2 0x222F JUMP JUMPDEST DUP1 PUSH1 0x80 ADD MLOAD DUP2 PUSH1 0x60 ADD MLOAD PUSH2 0x10DE SWAP2 SWAP1 PUSH2 0x4E06 JUMP JUMPDEST DUP5 PUSH2 0x140 ADD MLOAD LT ISZERO PUSH2 0x1132 JUMPI PUSH1 0x40 MLOAD PUSH3 0x461BCD PUSH1 0xE5 SHL DUP2 MSTORE PUSH1 0x20 PUSH1 0x4 DUP3 ADD MSTORE PUSH1 0x1C PUSH1 0x24 DUP3 ADD MSTORE PUSH32 0x4D594E543A205374616B65206E6F742066756C6C792073657276656400000000 PUSH1 0x44 DUP3 ADD MSTORE PUSH1 0x64 ADD PUSH2 0x8E7 JUMP JUMPDEST PUSH1 0xA0 DUP2 ADD MLOAD ISZERO PUSH2 0x1184 JUMPI PUSH1 0x40 MLOAD PUSH3 0x461BCD PUSH1 0xE5 SHL DUP2 MSTORE PUSH1 0x20 PUSH1 0x4 DUP3 ADD MSTORE PUSH1 0x1C PUSH1 0x24 DUP3 ADD MSTORE PUSH32 0x4D594E543A205374616B6520616C726561647920756E6C6F636B656400000000 PUSH1 0x44 DUP3 ADD MSTORE PUSH1 0x64 ADD PUSH2 0x8E7 JUMP JUMPDEST PUSH2 0x118D DUP5 PUSH2 0x22FD JUMP JUMPDEST PUSH2 0x1197 DUP5 DUP3 PUSH2 0x2311 JUMP JUMPDEST PUSH1 0x0 DUP1 PUSH1 0x0 PUSH2 0x11AB DUP8 DUP6 DUP7 PUSH1 0x80 ADD MLOAD PUSH2 0x2339 JUMP JUMPDEST SWAP4 POP SWAP4 POP SWAP4 POP POP PUSH2 0x11C8 DUP11 DUP10 DUP7 PUSH1 0x20 ADD MLOAD DUP8 PUSH1 0x40 ADD MLOAD DUP8 DUP8 PUSH2 0x2D4D JUMP JUMPDEST DUP1 ISZERO PUSH2 0x11D8 JUMPI PUSH2 0x11D8 DUP8 DUP3 PUSH2 0x24C2 JUMP JUMPDEST DUP4 MLOAD DUP6 SLOAD PUSH1 0x20 DUP7 ADD MLOAD PUSH1 0x40 DUP8 ADD MLOAD PUSH1 0x60 DUP9 ADD MLOAD PUSH1 0x80 DUP10 ADD MLOAD PUSH1 0xA0 DUP11 ADD MLOAD PUSH1 0xC0 DUP12 ADD MLOAD PUSH5 0xFFFFFFFFFF SWAP1 SWAP8 AND PUSH1 0x1 PUSH1 0x1 PUSH1 0x70 SHL SUB NOT SWAP1 SWAP7 AND SWAP6 SWAP1 SWAP6 OR PUSH1 0x1 PUSH1 0x28 SHL PUSH1 0x1 PUSH1 0x1 PUSH1 0x48 SHL SUB SWAP6 DUP7 AND MUL OR PUSH1 0x1 PUSH1 0x70 SHL PUSH1 0x1 PUSH1 0xC8 SHL SUB NOT AND PUSH1 0x1 PUSH1 0x70 SHL SWAP5 SWAP1 SWAP4 AND SWAP4 SWAP1 SWAP4 MUL PUSH2 0xFFFF PUSH1 0xB8 SHL NOT AND SWAP2 SWAP1 SWAP2 OR PUSH1 0x1 PUSH1 0xB8 SHL PUSH2 0xFFFF SWAP3 DUP4 AND MUL OR PUSH4 0xFFFFFFFF PUSH1 0xC8 SHL NOT AND PUSH1 0x1 PUSH1 0xC8 SHL SWAP3 DUP3 AND SWAP3 SWAP1 SWAP3 MUL PUSH2 0xFFFF PUSH1 0xD8 SHL NOT AND SWAP2 SWAP1 SWAP2 OR PUSH1 0x1 PUSH1 0xD8 SHL SWAP2 SWAP1 SWAP3 AND MUL OR PUSH1 0xFF PUSH1 0xE8 SHL NOT AND PUSH1 0x1 PUSH1 0xE8 SHL SWAP2 ISZERO ISZERO SWAP2 SWAP1 SWAP2 MUL OR DUP6 SSTORE PUSH2 0x12A5 DUP8 DUP8 PUSH2 0x274A JUMP JUMPDEST POP POP POP POP POP POP POP POP POP POP JUMP JUMPDEST PUSH2 0x12BB DUP3 DUP3 PUSH2 0x2181 JUMP JUMPDEST POP POP JUMP JUMPDEST PUSH1 0x60 DUP2 DUP4 LT DUP1 ISZERO PUSH2 0x12D6 JUMPI POP PUSH1 0x7 SLOAD PUSH2 0xFFFF AND DUP3 GT ISZERO JUMPDEST PUSH2 0x1318 JUMPI PUSH1 0x40 MLOAD PUSH3 0x461BCD PUSH1 0xE5 SHL DUP2 MSTORE PUSH1 0x20 PUSH1 0x4 DUP3 ADD MSTORE PUSH1 0x13 PUSH1 0x24 DUP3 ADD MSTORE PUSH19 0x135653950E881C985B99D9481A5B9D985B1A59 PUSH1 0x6A SHL PUSH1 0x44 DUP3 ADD MSTORE PUSH1 0x64 ADD PUSH2 0x8E7 JUMP JUMPDEST PUSH2 0x1322 DUP4 DUP4 PUSH2 0x4DF3 JUMP JUMPDEST PUSH8 0xFFFFFFFFFFFFFFFF DUP2 GT ISZERO PUSH2 0x133A JUMPI PUSH2 0x133A PUSH2 0x48DC JUMP JUMPDEST PUSH1 0x40 MLOAD SWAP1 DUP1 DUP3 MSTORE DUP1 PUSH1 0x20 MUL PUSH1 0x20 ADD DUP3 ADD PUSH1 0x40 MSTORE DUP1 ISZERO PUSH2 0x1363 JUMPI DUP2 PUSH1 0x20 ADD PUSH1 0x20 DUP3 MUL DUP1 CALLDATASIZE DUP4 CALLDATACOPY ADD SWAP1 POP JUMPDEST POP SWAP1 POP DUP3 PUSH1 0x0 DUP1 JUMPDEST PUSH2 0x1377 PUSH1 0x48 PUSH1 0x2 PUSH2 0x4DC6 JUMP JUMPDEST PUSH1 0x0 DUP5 DUP2 MSTORE PUSH1 0x9 PUSH1 0x20 MSTORE PUSH1 0x40 SWAP1 KECCAK256 SLOAD PUSH1 0x1 PUSH1 0x90 SHL DUP2 DIV PUSH7 0xFFFFFFFFFFFFFF AND SWAP1 SWAP2 SHL PUSH1 0x1 PUSH1 0x48 SHL DUP3 DIV PUSH1 0x48 SHL PUSH18 0xFFFFFFFFFFFFFFFFFF000000000000000000 AND OR PUSH1 0x1 PUSH1 0x1 PUSH1 0x48 SHL SUB SWAP1 SWAP2 AND OR SWAP1 POP DUP1 DUP5 DUP4 PUSH2 0x13D2 DUP2 PUSH2 0x4E19 JUMP JUMPDEST SWAP5 POP DUP2 MLOAD DUP2 LT PUSH2 0x13E4 JUMPI PUSH2 0x13E4 PUSH2 0x4DDD JUMP JUMPDEST PUSH1 0x20 SWAP1 DUP2 MUL SWAP2 SWAP1 SWAP2 ADD ADD MSTORE DUP5 PUSH2 0x13F9 DUP5 PUSH2 0x4E19 JUMP JUMPDEST SWAP4 POP DUP4 LT PUSH2 0x136B JUMPI POP POP POP SWAP3 SWAP2 POP POP JUMP JUMPDEST CALLER PUSH1 0x1 PUSH1 0x1 PUSH1 0xA0 SHL SUB PUSH32 0x0 AND EQ PUSH2 0x1472 JUMPI PUSH1 0x40 MLOAD PUSH3 0x461BCD PUSH1 0xE5 SHL DUP2 MSTORE PUSH1 0x20 PUSH1 0x4 DUP3 ADD MSTORE PUSH1 0xD PUSH1 0x24 DUP3 ADD MSTORE PUSH13 0x2737BA103A34329027BBB732B9 PUSH1 0x99 SHL PUSH1 0x44 DUP3 ADD MSTORE PUSH1 0x64 ADD PUSH2 0x8E7 JUMP JUMPDEST PUSH1 0x5 DUP1 SLOAD PUSH1 0x1 PUSH1 0x1 PUSH1 0xA0 SHL SUB NOT AND PUSH1 0x1 PUSH1 0x1 PUSH1 0xA0 SHL SUB SWAP3 SWAP1 SWAP3 AND SWAP2 SWAP1 SWAP2 OR SWAP1 SSTORE JUMP JUMPDEST PUSH1 0x0 DUP1 PUSH2 0x149F PUSH2 0x2D31 JUMP JUMPDEST SWAP1 POP PUSH1 0x1 DUP2 LT ISZERO PUSH2 0x14C2 JUMPI PUSH1 0x40 MLOAD PUSH3 0x461BCD PUSH1 0xE5 SHL DUP2 MSTORE PUSH1 0x4 ADD PUSH2 0x8E7 SWAP1 PUSH2 0x4E32 JUMP JUMPDEST PUSH2 0x14CE PUSH1 0x32 PUSH1 0x7 PUSH2 0x4DC6 JUMP JUMPDEST PUSH2 0x14D9 SWAP1 PUSH1 0x1 PUSH2 0x4E06 JUMP JUMPDEST DUP2 LT PUSH2 0x1527 JUMPI PUSH1 0x40 MLOAD PUSH3 0x461BCD PUSH1 0xE5 SHL DUP2 MSTORE PUSH1 0x20 PUSH1 0x4 DUP3 ADD MSTORE PUSH1 0x1B PUSH1 0x24 DUP3 ADD MSTORE PUSH32 0x4D594E543A20436C61696D2070686173652068617320656E6465640000000000 PUSH1 0x44 DUP3 ADD MSTORE PUSH1 0x64 ADD PUSH2 0x8E7 JUMP JUMPDEST PUSH1 0x1 PUSH1 0x1 PUSH1 0x60 SHL SUB NOT DUP7 AND PUSH1 0x0 SWAP1 DUP2 MSTORE PUSH1 0x8 PUSH1 0x20 MSTORE PUSH1 0x40 SWAP1 KECCAK256 SLOAD PUSH1 0xFF AND ISZERO PUSH2 0x1553 JUMPI PUSH1 0x0 SWAP2 POP POP PUSH2 0xA0B JUMP JUMPDEST PUSH2 0x1591 DUP7 DUP7 DUP7 DUP7 DUP1 DUP1 PUSH1 0x20 MUL PUSH1 0x20 ADD PUSH1 0x40 MLOAD SWAP1 DUP2 ADD PUSH1 0x40 MSTORE DUP1 SWAP4 SWAP3 SWAP2 SWAP1 DUP2 DUP2 MSTORE PUSH1 0x20 ADD DUP4 DUP4 PUSH1 0x20 MUL DUP1 DUP3 DUP5 CALLDATACOPY PUSH1 0x0 SWAP3 ADD SWAP2 SWAP1 SWAP2 MSTORE POP PUSH2 0x2DEA SWAP3 POP POP POP JUMP JUMPDEST SWAP7 SWAP6 POP POP POP POP POP POP JUMP JUMPDEST PUSH2 0x15A3 PUSH2 0x4558 JUMP JUMPDEST PUSH2 0x15AB PUSH2 0x4558 JUMP JUMPDEST PUSH2 0x15B5 DUP3 DUP3 PUSH2 0x2181 JUMP JUMPDEST PUSH1 0x1 DUP3 PUSH2 0x140 ADD MLOAD GT PUSH2 0x15FC JUMPI PUSH1 0x40 MLOAD PUSH3 0x461BCD PUSH1 0xE5 SHL DUP2 MSTORE PUSH1 0x20 PUSH1 0x4 DUP3 ADD MSTORE PUSH1 0xF PUSH1 0x24 DUP3 ADD MSTORE PUSH15 0x4D594E543A20546F6F206561726C79 PUSH1 0x88 SHL PUSH1 0x44 DUP3 ADD MSTORE PUSH1 0x64 ADD PUSH2 0x8E7 JUMP JUMPDEST DUP3 ISZERO PUSH2 0x1678 JUMPI DUP2 PUSH2 0x140 ADD MLOAD DUP4 GT ISZERO PUSH2 0x1667 JUMPI PUSH1 0x40 MLOAD PUSH3 0x461BCD PUSH1 0xE5 SHL DUP2 MSTORE PUSH1 0x20 PUSH1 0x4 DUP3 ADD MSTORE PUSH1 0x27 PUSH1 0x24 DUP3 ADD MSTORE PUSH32 0x4D594E543A206265666F72654461792063616E6E6F7420626520696E20746865 PUSH1 0x44 DUP3 ADD MSTORE PUSH7 0x20667574757265 PUSH1 0xC8 SHL PUSH1 0x64 DUP3 ADD MSTORE PUSH1 0x84 ADD PUSH2 0x8E7 JUMP JUMPDEST PUSH2 0x1673 DUP3 DUP5 PUSH1 0x0 PUSH2 0x2F27 JUMP JUMPDEST PUSH2 0x1689 JUMP JUMPDEST PUSH2 0x1689 DUP3 DUP4 PUSH2 0x140 ADD MLOAD PUSH1 0x0 PUSH2 0x2F27 JUMP JUMPDEST PUSH2 0x8FA DUP3 DUP3 PUSH2 0x274A JUMP JUMPDEST PUSH1 0x60 PUSH1 0x4 DUP1 SLOAD PUSH2 0x7F1 SWAP1 PUSH2 0x4C64 JUMP JUMPDEST PUSH1 0x0 PUSH6 0x173CDF6F6E31 DUP14 GT ISZERO PUSH2 0x16F3 JUMPI PUSH1 0x40 MLOAD PUSH3 0x461BCD PUSH1 0xE5 SHL DUP2 MSTORE PUSH1 0x20 PUSH1 0x4 DUP3 ADD MSTORE PUSH1 0x16 PUSH1 0x24 DUP3 ADD MSTORE PUSH22 0x4D594E543A2043484B3A207261775361746F73686973 PUSH1 0x50 SHL PUSH1 0x44 DUP3 ADD MSTORE PUSH1 0x64 ADD PUSH2 0x8E7 JUMP JUMPDEST PUSH2 0x15E DUP4 LT ISZERO PUSH2 0x1754 JUMPI PUSH1 0x40 MLOAD PUSH3 0x461BCD PUSH1 0xE5 SHL DUP2 MSTORE PUSH1 0x20 PUSH1 0x4 DUP3 ADD MSTORE PUSH1 0x26 PUSH1 0x24 DUP3 ADD MSTORE PUSH32 0x4D594E543A206175746F5374616B6544617973206C6F776572207468616E206D PUSH1 0x44 DUP3 ADD MSTORE PUSH6 0x696E696D756D PUSH1 0xD0 SHL PUSH1 0x64 DUP3 ADD MSTORE PUSH1 0x84 ADD PUSH2 0x8E7 JUMP JUMPDEST PUSH1 0x0 PUSH1 0x1 PUSH1 0x1 PUSH1 0xA0 SHL SUB DUP12 AND CALLER EQ PUSH2 0x17C5 JUMPI PUSH1 0x40 DUP1 MLOAD PUSH32 0x4E831ACB4223B66DE3B3D2E54A2EDEEFB0DE3D7916E2886A4B134D9764D41BEC PUSH1 0x20 DUP3 ADD MSTORE SWAP1 DUP2 ADD DUP6 SWAP1 MSTORE PUSH1 0x60 DUP5 DUP2 SHL PUSH1 0x1 PUSH1 0x1 PUSH1 0x60 SHL SUB NOT AND SWAP1 DUP3 ADD MSTORE PUSH1 0x74 ADD PUSH1 0x40 MLOAD PUSH1 0x20 DUP2 DUP4 SUB SUB DUP2 MSTORE SWAP1 PUSH1 0x40 MSTORE DUP1 MLOAD SWAP1 PUSH1 0x20 ADD KECCAK256 SWAP1 POP JUMPDEST PUSH2 0x17D5 DUP12 DUP3 DUP13 DUP13 DUP13 DUP13 DUP13 DUP13 PUSH2 0x1A1C JUMP JUMPDEST PUSH2 0x1821 JUMPI PUSH1 0x40 MLOAD PUSH3 0x461BCD PUSH1 0xE5 SHL DUP2 MSTORE PUSH1 0x20 PUSH1 0x4 DUP3 ADD MSTORE PUSH1 0x18 PUSH1 0x24 DUP3 ADD MSTORE PUSH32 0x4D594E543A205369676E6174757265206D69736D617463680000000000000000 PUSH1 0x44 DUP3 ADD MSTORE PUSH1 0x64 ADD PUSH2 0x8E7 JUMP JUMPDEST POP PUSH1 0x0 PUSH2 0x182F DUP11 DUP11 DUP11 PUSH2 0xA13 JUMP JUMPDEST PUSH1 0x1 PUSH1 0x1 PUSH1 0x60 SHL SUB NOT DUP2 AND PUSH1 0x0 SWAP1 DUP2 MSTORE PUSH1 0x8 PUSH1 0x20 MSTORE PUSH1 0x40 SWAP1 KECCAK256 SLOAD SWAP1 SWAP2 POP PUSH1 0xFF AND ISZERO PUSH2 0x18AE JUMPI PUSH1 0x40 MLOAD PUSH3 0x461BCD PUSH1 0xE5 SHL DUP2 MSTORE PUSH1 0x20 PUSH1 0x4 DUP3 ADD MSTORE PUSH1 0x29 PUSH1 0x24 DUP3 ADD MSTORE PUSH32 0x4D594E543A2042544320616464726573732062616C616E636520616C72656164 PUSH1 0x44 DUP3 ADD MSTORE PUSH9 0x1E4818DB185A5B5959 PUSH1 0xBA SHL PUSH1 0x64 DUP3 ADD MSTORE PUSH1 0x84 ADD PUSH2 0x8E7 JUMP JUMPDEST PUSH2 0x18EC DUP2 DUP16 DUP16 DUP16 DUP1 DUP1 PUSH1 0x20 MUL PUSH1 0x20 ADD PUSH1 0x40 MLOAD SWAP1 DUP2 ADD PUSH1 0x40 MSTORE DUP1 SWAP4 SWAP3 SWAP2 SWAP1 DUP2 DUP2 MSTORE PUSH1 0x20 ADD DUP4 DUP4 PUSH1 0x20 MUL DUP1 DUP3 DUP5 CALLDATACOPY PUSH1 0x0 SWAP3 ADD SWAP2 SWAP1 SWAP2 MSTORE POP PUSH2 0x2DEA SWAP3 POP POP POP JUMP JUMPDEST PUSH2 0x1944 JUMPI PUSH1 0x40 MLOAD PUSH3 0x461BCD PUSH1 0xE5 SHL DUP2 MSTORE PUSH1 0x20 PUSH1 0x4 DUP3 ADD MSTORE PUSH1 0x24 DUP1 DUP3 ADD MSTORE PUSH32 0x4D594E543A204254432061646472657373206F722062616C616E636520756E6B PUSH1 0x44 DUP3 ADD MSTORE PUSH4 0x3737BBB7 PUSH1 0xE1 SHL PUSH1 0x64 DUP3 ADD MSTORE PUSH1 0x84 ADD PUSH2 0x8E7 JUMP JUMPDEST PUSH1 0x1 PUSH1 0x1 PUSH1 0x60 SHL SUB NOT DUP2 AND PUSH1 0x0 SWAP1 DUP2 MSTORE PUSH1 0x8 PUSH1 0x20 MSTORE PUSH1 0x40 SWAP1 KECCAK256 DUP1 SLOAD PUSH1 0xFF NOT AND PUSH1 0x1 OR SWAP1 SSTORE PUSH2 0x1976 DUP15 DUP13 DUP4 DUP12 DUP9 DUP9 PUSH2 0x300C JUMP JUMPDEST SWAP15 SWAP14 POP POP POP POP POP POP POP POP POP POP POP POP POP POP JUMP JUMPDEST PUSH1 0x0 CALLER DUP2 PUSH2 0x1996 DUP3 DUP7 PUSH2 0x1B36 JUMP JUMPDEST SWAP1 POP DUP4 DUP2 LT ISZERO PUSH2 0x19F6 JUMPI PUSH1 0x40 MLOAD PUSH3 0x461BCD PUSH1 0xE5 SHL DUP2 MSTORE PUSH1 0x20 PUSH1 0x4 DUP3 ADD MSTORE PUSH1 0x25 PUSH1 0x24 DUP3 ADD MSTORE PUSH32 0x45524332303A2064656372656173656420616C6C6F77616E63652062656C6F77 PUSH1 0x44 DUP3 ADD MSTORE PUSH5 0x207A65726F PUSH1 0xD8 SHL PUSH1 0x64 DUP3 ADD MSTORE PUSH1 0x84 ADD PUSH2 0x8E7 JUMP JUMPDEST PUSH2 0x1A03 DUP3 DUP7 DUP7 DUP5 SUB PUSH2 0x1CAC JUMP JUMPDEST POP PUSH1 0x1 SWAP5 SWAP4 POP POP POP POP JUMP JUMPDEST PUSH1 0x0 CALLER PUSH2 0x882 DUP2 DUP6 DUP6 PUSH2 0x1F03 JUMP JUMPDEST PUSH1 0x0 PUSH1 0x1B DUP5 PUSH1 0xFF AND LT ISZERO DUP1 ISZERO PUSH2 0x1A36 JUMPI POP PUSH1 0x1E DUP5 PUSH1 0xFF AND GT ISZERO JUMPDEST PUSH2 0x1A74 JUMPI PUSH1 0x40 MLOAD PUSH3 0x461BCD PUSH1 0xE5 SHL DUP2 MSTORE PUSH1 0x20 PUSH1 0x4 DUP3 ADD MSTORE PUSH1 0xF PUSH1 0x24 DUP3 ADD MSTORE PUSH15 0x135653950E881D881A5B9D985B1A59 PUSH1 0x8A SHL PUSH1 0x44 DUP3 ADD MSTORE PUSH1 0x64 ADD PUSH2 0x8E7 JUMP JUMPDEST PUSH1 0x40 DUP1 MLOAD PUSH1 0x20 DUP1 DUP3 ADD DUP11 SWAP1 MSTORE DUP2 DUP4 ADD DUP10 SWAP1 MSTORE DUP3 MLOAD DUP1 DUP4 SUB DUP5 ADD DUP2 MSTORE PUSH1 0x60 SWAP1 SWAP3 ADD SWAP1 SWAP3 MSTORE DUP1 MLOAD SWAP2 ADD KECCAK256 PUSH1 0x0 PUSH2 0x1AB1 PUSH2 0x1AAC DUP13 DUP13 DUP11 PUSH2 0x304F JUMP JUMPDEST PUSH2 0x3232 JUMP JUMPDEST PUSH1 0x40 DUP1 MLOAD PUSH1 0x0 DUP2 MSTORE PUSH1 0x20 DUP2 ADD DUP1 DUP4 MSTORE DUP4 SWAP1 MSTORE PUSH1 0xFF DUP10 AND SWAP2 DUP2 ADD SWAP2 SWAP1 SWAP2 MSTORE PUSH1 0x60 DUP2 ADD DUP8 SWAP1 MSTORE PUSH1 0x80 DUP2 ADD DUP7 SWAP1 MSTORE SWAP1 SWAP2 POP PUSH1 0x1 PUSH1 0x1 PUSH1 0xA0 SHL SUB DUP4 AND SWAP1 PUSH1 0x1 SWAP1 PUSH1 0xA0 ADD PUSH1 0x20 PUSH1 0x40 MLOAD PUSH1 0x20 DUP2 SUB SWAP1 DUP1 DUP5 SUB SWAP1 DUP6 GAS STATICCALL ISZERO DUP1 ISZERO PUSH2 0x1B12 JUMPI RETURNDATASIZE PUSH1 0x0 DUP1 RETURNDATACOPY RETURNDATASIZE PUSH1 0x0 REVERT JUMPDEST POP POP POP PUSH1 0x20 PUSH1 0x40 MLOAD SUB MLOAD PUSH1 0x1 PUSH1 0x1 PUSH1 0xA0 SHL SUB AND EQ SWAP3 POP POP POP SWAP9 SWAP8 POP POP POP POP POP POP POP POP JUMP JUMPDEST PUSH1 0x1 PUSH1 0x1 PUSH1 0xA0 SHL SUB SWAP2 DUP3 AND PUSH1 0x0 SWAP1 DUP2 MSTORE PUSH1 0x1 PUSH1 0x20 SWAP1 DUP2 MSTORE PUSH1 0x40 DUP1 DUP4 KECCAK256 SWAP4 SWAP1 SWAP5 AND DUP3 MSTORE SWAP2 SWAP1 SWAP2 MSTORE KECCAK256 SLOAD SWAP1 JUMP JUMPDEST PUSH1 0x0 PUSH2 0x1BA1 DUP6 DUP6 DUP6 DUP6 DUP1 DUP1 PUSH1 0x20 MUL PUSH1 0x20 ADD PUSH1 0x40 MLOAD SWAP1 DUP2 ADD PUSH1 0x40 MSTORE DUP1 SWAP4 SWAP3 SWAP2 SWAP1 DUP2 DUP2 MSTORE PUSH1 0x20 ADD DUP4 DUP4 PUSH1 0x20 MUL DUP1 DUP3 DUP5 CALLDATACOPY PUSH1 0x0 SWAP3 ADD SWAP2 SWAP1 SWAP2 MSTORE POP PUSH2 0x2DEA SWAP3 POP POP POP JUMP JUMPDEST SWAP6 SWAP5 POP POP POP POP POP JUMP JUMPDEST PUSH2 0x1BB2 PUSH2 0x45FF JUMP JUMPDEST PUSH1 0x7 SLOAD PUSH1 0x0 SWAP1 DUP2 SWAP1 DUP2 SWAP1 PUSH2 0x1BD5 SWAP1 PUSH1 0x1 PUSH1 0x80 SHL SWAP1 DIV PUSH1 0x1 PUSH1 0x1 PUSH1 0x80 SHL SUB AND PUSH2 0x32F1 JUMP JUMPDEST PUSH1 0x40 DUP1 MLOAD PUSH2 0x1A0 DUP2 ADD DUP3 MSTORE PUSH1 0x6 SLOAD PUSH1 0x1 PUSH1 0x1 PUSH1 0x48 SHL SUB DUP1 DUP3 AND DUP4 MSTORE PUSH1 0x1 PUSH1 0x48 SHL DUP3 DIV DUP2 AND PUSH1 0x20 DUP5 ADD MSTORE PUSH5 0xFFFFFFFFFF PUSH1 0x1 PUSH1 0x90 SHL DUP4 DIV DUP2 AND SWAP5 DUP5 ADD SWAP5 SWAP1 SWAP5 MSTORE PUSH1 0x1 PUSH1 0xB8 SHL SWAP1 SWAP2 DIV DUP2 AND PUSH1 0x60 DUP4 ADD MSTORE PUSH1 0x7 SLOAD PUSH2 0xFFFF DUP2 AND PUSH1 0x80 DUP5 ADD MSTORE PUSH3 0x10000 DUP2 DIV SWAP1 SWAP2 AND PUSH1 0xA0 DUP4 ADD MSTORE PUSH1 0x1 PUSH1 0x58 SHL SWAP1 DIV SWAP1 SWAP2 AND PUSH1 0xC0 DUP3 ADD MSTORE PUSH1 0xE0 DUP2 ADD DUP3 SWAP1 MSTORE PUSH2 0x100 DUP2 ADD DUP4 SWAP1 MSTORE PUSH2 0x120 DUP2 ADD DUP5 SWAP1 MSTORE TIMESTAMP PUSH2 0x140 DUP3 ADD MSTORE SWAP3 SWAP6 POP SWAP1 SWAP4 POP SWAP2 POP PUSH2 0x160 DUP2 ADD PUSH2 0x1C81 PUSH1 0x2 SLOAD SWAP1 JUMP JUMPDEST DUP2 MSTORE PUSH1 0x20 ADD PUSH1 0xB PUSH1 0x0 PUSH2 0x1C92 PUSH2 0x2D31 JUMP JUMPDEST DUP2 MSTORE PUSH1 0x20 ADD SWAP1 DUP2 MSTORE PUSH1 0x20 ADD PUSH1 0x0 KECCAK256 SLOAD DUP2 MSTORE POP SWAP4 POP POP POP POP SWAP1 JUMP JUMPDEST PUSH1 0x1 PUSH1 0x1 PUSH1 0xA0 SHL SUB DUP4 AND PUSH2 0x1D0E JUMPI PUSH1 0x40 MLOAD PUSH3 0x461BCD PUSH1 0xE5 SHL DUP2 MSTORE PUSH1 0x20 PUSH1 0x4 DUP3 ADD MSTORE PUSH1 0x24 DUP1 DUP3 ADD MSTORE PUSH32 0x45524332303A20617070726F76652066726F6D20746865207A65726F20616464 PUSH1 0x44 DUP3 ADD MSTORE PUSH4 0x72657373 PUSH1 0xE0 SHL PUSH1 0x64 DUP3 ADD MSTORE PUSH1 0x84 ADD PUSH2 0x8E7 JUMP JUMPDEST PUSH1 0x1 PUSH1 0x1 PUSH1 0xA0 SHL SUB DUP3 AND PUSH2 0x1D6F JUMPI PUSH1 0x40 MLOAD PUSH3 0x461BCD PUSH1 0xE5 SHL DUP2 MSTORE PUSH1 0x20 PUSH1 0x4 DUP3 ADD MSTORE PUSH1 0x22 PUSH1 0x24 DUP3 ADD MSTORE PUSH32 0x45524332303A20617070726F766520746F20746865207A65726F206164647265 PUSH1 0x44 DUP3 ADD MSTORE PUSH2 0x7373 PUSH1 0xF0 SHL PUSH1 0x64 DUP3 ADD MSTORE PUSH1 0x84 ADD PUSH2 0x8E7 JUMP JUMPDEST PUSH1 0x1 PUSH1 0x1 PUSH1 0xA0 SHL SUB DUP4 DUP2 AND PUSH1 0x0 DUP2 DUP2 MSTORE PUSH1 0x1 PUSH1 0x20 SWAP1 DUP2 MSTORE PUSH1 0x40 DUP1 DUP4 KECCAK256 SWAP5 DUP8 AND DUP1 DUP5 MSTORE SWAP5 DUP3 MSTORE SWAP2 DUP3 SWAP1 KECCAK256 DUP6 SWAP1 SSTORE SWAP1 MLOAD DUP5 DUP2 MSTORE PUSH32 0x8C5BE1E5EBEC7D5BD14F71427D1E84F3DD0314C0F7B2291E5B200AC8C7C3B925 SWAP2 ADD PUSH1 0x40 MLOAD DUP1 SWAP2 SUB SWAP1 LOG3 POP POP POP JUMP JUMPDEST PUSH1 0x1 PUSH1 0x1 PUSH1 0xA0 SHL SUB DUP3 AND PUSH2 0x1E26 JUMPI PUSH1 0x40 MLOAD PUSH3 0x461BCD PUSH1 0xE5 SHL DUP2 MSTORE PUSH1 0x20 PUSH1 0x4 DUP3 ADD MSTORE PUSH1 0x1F PUSH1 0x24 DUP3 ADD MSTORE PUSH32 0x45524332303A206D696E7420746F20746865207A65726F206164647265737300 PUSH1 0x44 DUP3 ADD MSTORE PUSH1 0x64 ADD PUSH2 0x8E7 JUMP JUMPDEST DUP1 PUSH1 0x2 PUSH1 0x0 DUP3 DUP3 SLOAD PUSH2 0x1E38 SWAP2 SWAP1 PUSH2 0x4E06 JUMP JUMPDEST SWAP1 SWAP2 SSTORE POP POP PUSH1 0x1 PUSH1 0x1 PUSH1 0xA0 SHL SUB DUP3 AND PUSH1 0x0 DUP2 DUP2 MSTORE PUSH1 0x20 DUP2 DUP2 MSTORE PUSH1 0x40 DUP1 DUP4 KECCAK256 DUP1 SLOAD DUP7 ADD SWAP1 SSTORE MLOAD DUP5 DUP2 MSTORE PUSH32 0xDDF252AD1BE2C89B69C2B068FC378DAA952BA7F163C4A11628F55A4DF523B3EF SWAP2 ADD PUSH1 0x40 MLOAD DUP1 SWAP2 SUB SWAP1 LOG3 POP POP JUMP JUMPDEST PUSH1 0x0 PUSH2 0x1E9B DUP5 DUP5 PUSH2 0x1B36 JUMP JUMPDEST SWAP1 POP PUSH1 0x0 NOT DUP2 EQ PUSH2 0xF95 JUMPI DUP2 DUP2 LT ISZERO PUSH2 0x1EF6 JUMPI PUSH1 0x40 MLOAD PUSH3 0x461BCD PUSH1 0xE5 SHL DUP2 MSTORE PUSH1 0x20 PUSH1 0x4 DUP3 ADD MSTORE PUSH1 0x1D PUSH1 0x24 DUP3 ADD MSTORE PUSH32 0x45524332303A20696E73756666696369656E7420616C6C6F77616E6365000000 PUSH1 0x44 DUP3 ADD MSTORE PUSH1 0x64 ADD PUSH2 0x8E7 JUMP JUMPDEST PUSH2 0xF95 DUP5 DUP5 DUP5 DUP5 SUB PUSH2 0x1CAC JUMP JUMPDEST PUSH1 0x1 PUSH1 0x1 PUSH1 0xA0 SHL SUB DUP4 AND PUSH2 0x1F67 JUMPI PUSH1 0x40 MLOAD PUSH3 0x461BCD PUSH1 0xE5 SHL DUP2 MSTORE PUSH1 0x20 PUSH1 0x4 DUP3 ADD MSTORE PUSH1 0x25 PUSH1 0x24 DUP3 ADD MSTORE PUSH32 0x45524332303A207472616E736665722066726F6D20746865207A65726F206164 PUSH1 0x44 DUP3 ADD MSTORE PUSH5 0x6472657373 PUSH1 0xD8 SHL PUSH1 0x64 DUP3 ADD MSTORE PUSH1 0x84 ADD PUSH2 0x8E7 JUMP JUMPDEST PUSH1 0x1 PUSH1 0x1 PUSH1 0xA0 SHL SUB DUP3 AND PUSH2 0x1FC9 JUMPI PUSH1 0x40 MLOAD PUSH3 0x461BCD PUSH1 0xE5 SHL DUP2 MSTORE PUSH1 0x20 PUSH1 0x4 DUP3 ADD MSTORE PUSH1 0x23 PUSH1 0x24 DUP3 ADD MSTORE PUSH32 0x45524332303A207472616E7366657220746F20746865207A65726F2061646472 PUSH1 0x44 DUP3 ADD MSTORE PUSH3 0x657373 PUSH1 0xE8 SHL PUSH1 0x64 DUP3 ADD MSTORE PUSH1 0x84 ADD PUSH2 0x8E7 JUMP JUMPDEST PUSH1 0x1 PUSH1 0x1 PUSH1 0xA0 SHL SUB DUP4 AND PUSH1 0x0 SWAP1 DUP2 MSTORE PUSH1 0x20 DUP2 SWAP1 MSTORE PUSH1 0x40 SWAP1 KECCAK256 SLOAD DUP2 DUP2 LT ISZERO PUSH2 0x2041 JUMPI PUSH1 0x40 MLOAD PUSH3 0x461BCD PUSH1 0xE5 SHL DUP2 MSTORE PUSH1 0x20 PUSH1 0x4 DUP3 ADD MSTORE PUSH1 0x26 PUSH1 0x24 DUP3 ADD MSTORE PUSH32 0x45524332303A207472616E7366657220616D6F756E7420657863656564732062 PUSH1 0x44 DUP3 ADD MSTORE PUSH6 0x616C616E6365 PUSH1 0xD0 SHL PUSH1 0x64 DUP3 ADD MSTORE PUSH1 0x84 ADD PUSH2 0x8E7 JUMP JUMPDEST PUSH1 0x1 PUSH1 0x1 PUSH1 0xA0 SHL SUB DUP5 DUP2 AND PUSH1 0x0 DUP2 DUP2 MSTORE PUSH1 0x20 DUP2 DUP2 MSTORE PUSH1 0x40 DUP1 DUP4 KECCAK256 DUP8 DUP8 SUB SWAP1 SSTORE SWAP4 DUP8 AND DUP1 DUP4 MSTORE SWAP2 DUP5 SWAP1 KECCAK256 DUP1 SLOAD DUP8 ADD SWAP1 SSTORE SWAP3 MLOAD DUP6 DUP2 MSTORE SWAP1 SWAP3 PUSH32 0xDDF252AD1BE2C89B69C2B068FC378DAA952BA7F163C4A11628F55A4DF523B3EF SWAP2 ADD PUSH1 0x40 MLOAD DUP1 SWAP2 SUB SWAP1 LOG3 PUSH2 0xF95 JUMP JUMPDEST PUSH1 0x0 PUSH2 0x949 DUP3 PUSH32 0x4E831ACB4223B66DE3B3D2E54A2EDEEFB0DE3D7916E2886A4B134D9764D41BEC DUP6 PUSH2 0x335E JUMP JUMPDEST PUSH1 0x0 PUSH1 0x3 PUSH1 0x2 DUP4 PUSH1 0x40 MLOAD PUSH2 0x20E8 SWAP2 SWAP1 PUSH2 0x4E77 JUMP JUMPDEST PUSH1 0x20 PUSH1 0x40 MLOAD DUP1 DUP4 SUB DUP2 DUP6 GAS STATICCALL ISZERO DUP1 ISZERO PUSH2 0x2105 JUMPI RETURNDATASIZE PUSH1 0x0 DUP1 RETURNDATACOPY RETURNDATASIZE PUSH1 0x0 REVERT JUMPDEST POP POP POP PUSH1 0x40 MLOAD RETURNDATASIZE PUSH1 0x1F NOT PUSH1 0x1F DUP3 ADD AND DUP3 ADD DUP1 PUSH1 0x40 MSTORE POP DUP2 ADD SWAP1 PUSH2 0x2128 SWAP2 SWAP1 PUSH2 0x4E93 JUMP JUMPDEST PUSH1 0x40 MLOAD PUSH1 0x20 ADD PUSH2 0x213A SWAP2 DUP2 MSTORE PUSH1 0x20 ADD SWAP1 JUMP JUMPDEST PUSH1 0x40 DUP1 MLOAD PUSH1 0x1F NOT DUP2 DUP5 SUB ADD DUP2 MSTORE SWAP1 DUP3 SWAP1 MSTORE PUSH2 0x2154 SWAP2 PUSH2 0x4E77 JUMP JUMPDEST PUSH1 0x20 PUSH1 0x40 MLOAD DUP1 DUP4 SUB DUP2 DUP6 GAS STATICCALL ISZERO DUP1 ISZERO PUSH2 0x2171 JUMPI RETURNDATASIZE PUSH1 0x0 DUP1 RETURNDATACOPY RETURNDATASIZE PUSH1 0x0 REVERT JUMPDEST POP POP PUSH1 0x40 MLOAD MLOAD PUSH1 0x60 SHL SWAP4 SWAP3 POP POP POP JUMP JUMPDEST PUSH1 0x6 SLOAD PUSH1 0x1 PUSH1 0x1 PUSH1 0x48 SHL SUB DUP1 DUP3 AND DUP5 MSTORE PUSH1 0x1 PUSH1 0x48 SHL DUP3 DIV DUP2 AND PUSH1 0x20 DUP6 ADD MSTORE PUSH5 0xFFFFFFFFFF PUSH1 0x1 PUSH1 0x90 SHL DUP4 DIV DUP2 AND PUSH1 0x40 DUP7 ADD MSTORE PUSH1 0x1 PUSH1 0xB8 SHL SWAP1 SWAP3 DIV DUP2 AND PUSH1 0x60 DUP6 ADD MSTORE PUSH1 0x7 SLOAD PUSH2 0xFFFF DUP2 AND PUSH1 0x80 DUP7 ADD MSTORE PUSH3 0x10000 DUP2 DIV SWAP1 SWAP2 AND PUSH1 0xA0 DUP6 ADD MSTORE PUSH1 0x1 PUSH1 0x58 SHL DUP2 DIV SWAP1 SWAP2 AND PUSH1 0xC0 DUP5 ADD MSTORE PUSH2 0x2206 SWAP1 PUSH1 0x1 PUSH1 0x1 PUSH1 0x80 SHL SUB PUSH1 0x1 PUSH1 0x80 SHL SWAP1 SWAP2 DIV AND PUSH2 0x32F1 JUMP JUMPDEST PUSH1 0xE0 DUP6 ADD MSTORE PUSH2 0x100 DUP5 ADD MSTORE PUSH2 0x120 DUP4 ADD MSTORE PUSH2 0x221F PUSH2 0x2D31 JUMP JUMPDEST PUSH2 0x140 DUP4 ADD MSTORE PUSH2 0x12BB DUP3 DUP3 PUSH2 0x3374 JUMP JUMPDEST DUP3 SLOAD PUSH5 0xFFFFFFFFFF DUP4 DUP2 AND SWAP2 AND EQ PUSH2 0x2289 JUMPI PUSH1 0x40 MLOAD PUSH3 0x461BCD PUSH1 0xE5 SHL DUP2 MSTORE PUSH1 0x20 PUSH1 0x4 DUP3 ADD MSTORE PUSH1 0x1F PUSH1 0x24 DUP3 ADD MSTORE PUSH32 0x4D594E543A207374616B654964506172616D206E6F7420696E207374616B6500 PUSH1 0x44 DUP3 ADD MSTORE PUSH1 0x64 ADD PUSH2 0x8E7 JUMP JUMPDEST SWAP2 SLOAD PUSH5 0xFFFFFFFFFF DUP2 AND DUP4 MSTORE PUSH1 0x1 PUSH1 0x1 PUSH1 0x48 SHL SUB PUSH1 0x1 PUSH1 0x28 SHL DUP3 DIV DUP2 AND PUSH1 0x20 DUP6 ADD MSTORE PUSH1 0x1 PUSH1 0x70 SHL DUP3 DIV AND PUSH1 0x40 DUP5 ADD MSTORE PUSH2 0xFFFF PUSH1 0x1 PUSH1 0xB8 SHL DUP3 DIV DUP2 AND PUSH1 0x60 DUP6 ADD MSTORE PUSH1 0x1 PUSH1 0xC8 SHL DUP3 DIV DUP2 AND PUSH1 0x80 DUP6 ADD MSTORE PUSH1 0x1 PUSH1 0xD8 SHL DUP3 DIV AND PUSH1 0xA0 DUP5 ADD MSTORE PUSH1 0xFF PUSH1 0x1 PUSH1 0xE8 SHL SWAP1 SWAP2 DIV AND ISZERO ISZERO PUSH1 0xC0 SWAP1 SWAP3 ADD SWAP2 SWAP1 SWAP2 MSTORE POP JUMP JUMPDEST PUSH2 0x230E DUP2 DUP3 PUSH2 0x140 ADD MLOAD PUSH1 0x1 PUSH2 0x2F27 JUMP JUMPDEST POP JUMP JUMPDEST DUP1 PUSH1 0x40 ADD MLOAD DUP3 PUSH1 0xA0 ADD DUP2 DUP2 MLOAD PUSH2 0x2327 SWAP2 SWAP1 PUSH2 0x4DF3 JUMP JUMPDEST SWAP1 MSTORE POP PUSH2 0x140 SWAP1 SWAP2 ADD MLOAD PUSH1 0xA0 SWAP1 SWAP2 ADD MSTORE JUMP JUMPDEST PUSH1 0x0 DUP1 PUSH1 0x0 DUP1 DUP6 PUSH1 0x80 ADD MLOAD DUP6 LT ISZERO PUSH2 0x2380 JUMPI PUSH2 0x2364 DUP8 DUP8 PUSH1 0x60 ADD MLOAD DUP9 PUSH1 0x80 ADD MLOAD DUP9 DUP11 PUSH1 0x40 ADD MLOAD PUSH2 0x33DC JUMP JUMPDEST PUSH1 0x20 DUP9 ADD MLOAD SWAP2 SWAP5 POP SWAP3 POP PUSH2 0x2379 SWAP1 DUP5 SWAP1 PUSH2 0x4E06 JUMP JUMPDEST SWAP4 POP PUSH2 0x23CE JUMP JUMPDEST PUSH1 0x40 DUP7 ADD MLOAD PUSH1 0x60 DUP8 ADD MLOAD PUSH2 0x239F SWAP2 DUP10 SWAP2 PUSH2 0x239A DUP10 DUP3 PUSH2 0x4E06 JUMP JUMPDEST PUSH2 0x34CA JUMP JUMPDEST SWAP3 POP DUP3 DUP7 PUSH1 0x20 ADD MLOAD PUSH2 0x23B1 SWAP2 SWAP1 PUSH2 0x4E06 JUMP JUMPDEST SWAP4 POP PUSH2 0x23CB DUP7 PUSH1 0x60 ADD MLOAD DUP8 PUSH1 0x80 ADD MLOAD DUP9 PUSH1 0xA0 ADD MLOAD DUP8 PUSH2 0x3636 JUMP JUMPDEST SWAP2 POP JUMPDEST DUP2 ISZERO PUSH2 0x23F4 JUMPI DUP4 DUP3 GT ISZERO PUSH2 0x23E5 JUMPI POP PUSH1 0x0 SWAP3 PUSH2 0x23F4 JUMP JUMPDEST POP DUP1 PUSH2 0x23F1 DUP2 DUP6 PUSH2 0x4DF3 JUMP JUMPDEST SWAP4 POP JUMPDEST SWAP4 POP SWAP4 POP SWAP4 POP SWAP4 JUMP JUMPDEST DUP7 PUSH5 0xFFFFFFFFFF AND CALLER PUSH1 0x1 PUSH1 0x1 PUSH1 0xA0 SHL SUB AND PUSH32 0x72D9C5A7AB13846E08D9C838F9E866A1BB4A66A2FD3BA3C9E7DA3CF9E394DFD7 PUSH1 0xB8 DUP8 PUSH1 0x1 PUSH1 0x1 PUSH1 0x48 SHL SUB AND SWAP1 SHL PUSH1 0x70 DUP10 PUSH1 0x1 PUSH1 0x1 PUSH1 0x48 SHL SUB AND SWAP1 SHL PUSH1 0x28 DUP12 PUSH1 0x1 PUSH1 0x1 PUSH1 0x48 SHL SUB AND SWAP1 SHL TIMESTAMP PUSH5 0xFFFFFFFFFF AND OR OR OR DUP5 PUSH2 0x2471 JUMPI PUSH1 0x0 PUSH2 0x2477 JUMP JUMPDEST PUSH1 0x1 PUSH1 0x58 SHL JUMPDEST PUSH12 0xFFFFFFFFFFFFFFFFFFFFFFFF AND PUSH1 0x48 DUP8 PUSH2 0xFFFF AND SWAP1 SHL DUP9 PUSH1 0x1 PUSH1 0x1 PUSH1 0x48 SHL SUB AND OR OR PUSH1 0x40 MLOAD PUSH2 0x24B1 SWAP3 SWAP2 SWAP1 SWAP2 DUP3 MSTORE PUSH1 0x20 DUP3 ADD MSTORE PUSH1 0x40 ADD SWAP1 JUMP JUMPDEST PUSH1 0x40 MLOAD DUP1 SWAP2 SUB SWAP1 LOG3 POP POP POP POP POP POP POP JUMP JUMPDEST PUSH1 0x0 PUSH2 0x24CF PUSH1 0x2 DUP4 PUSH2 0x4DA4 JUMP JUMPDEST SWAP1 POP DUP1 ISZERO PUSH2 0x24F5 JUMPI PUSH2 0x24F5 PUSH20 0x9A6A414D6F3497C05E3B1DE90520765FA1E07C03 DUP3 PUSH2 0x1DD0 JUMP JUMPDEST PUSH2 0x24FF DUP2 DUP4 PUSH2 0x4DF3 JUMP JUMPDEST SWAP1 POP DUP1 DUP4 PUSH1 0x60 ADD DUP2 DUP2 MLOAD PUSH2 0x2513 SWAP2 SWAP1 PUSH2 0x4E06 JUMP JUMPDEST SWAP1 MSTORE POP POP POP POP JUMP JUMPDEST DUP2 PUSH1 0x20 ADD MLOAD DUP2 GT ISZERO PUSH2 0x8FA JUMPI PUSH1 0x0 PUSH2 0x2537 DUP3 DUP5 PUSH1 0x80 ADD MLOAD PUSH2 0x3696 JUMP JUMPDEST SWAP1 POP PUSH1 0x0 DUP4 PUSH1 0x40 ADD MLOAD PUSH3 0x186A0 DUP4 DUP6 PUSH2 0x2550 SWAP2 SWAP1 PUSH2 0x4E06 JUMP JUMPDEST PUSH2 0x255A SWAP2 SWAP1 PUSH2 0x4DC6 JUMP JUMPDEST PUSH2 0x2564 SWAP2 SWAP1 PUSH2 0x4DA4 JUMP JUMPDEST SWAP1 POP PUSH2 0x2575 PUSH1 0x1 PUSH1 0x1 PUSH1 0x28 SHL PUSH2 0x4DF3 JUMP JUMPDEST DUP2 GT ISZERO PUSH2 0x258E JUMPI PUSH2 0x258B PUSH1 0x1 PUSH1 0x1 PUSH1 0x28 SHL PUSH2 0x4DF3 JUMP JUMPDEST SWAP1 POP JUMPDEST DUP5 PUSH1 0x40 ADD MLOAD DUP2 GT ISZERO PUSH2 0x25AE JUMPI PUSH1 0x40 DUP6 ADD DUP2 SWAP1 MSTORE DUP4 MLOAD PUSH2 0x25AE SWAP1 DUP3 SWAP1 PUSH2 0x3804 JUMP JUMPDEST POP POP POP POP POP JUMP JUMPDEST DUP2 SLOAD PUSH1 0x0 SWAP1 PUSH2 0x25C6 SWAP1 PUSH1 0x1 SWAP1 PUSH2 0x4DF3 JUMP JUMPDEST SWAP1 POP DUP1 DUP3 EQ PUSH2 0x2713 JUMPI DUP3 DUP2 DUP2 SLOAD DUP2 LT PUSH2 0x25E1 JUMPI PUSH2 0x25E1 PUSH2 0x4DDD JUMP JUMPDEST SWAP1 PUSH1 0x0 MSTORE PUSH1 0x20 PUSH1 0x0 KECCAK256 ADD DUP4 DUP4 DUP2 SLOAD DUP2 LT PUSH2 0x25FD JUMPI PUSH2 0x25FD PUSH2 0x4DDD JUMP JUMPDEST PUSH1 0x0 SWAP2 DUP3 MSTORE PUSH1 0x20 SWAP1 SWAP2 KECCAK256 DUP3 SLOAD SWAP2 ADD DUP1 SLOAD PUSH5 0xFFFFFFFFFF NOT DUP2 AND PUSH5 0xFFFFFFFFFF SWAP1 SWAP4 AND SWAP3 DUP4 OR DUP3 SSTORE DUP4 SLOAD PUSH1 0x1 PUSH1 0x1 PUSH1 0x48 SHL SUB PUSH1 0x1 PUSH1 0x28 SHL SWAP2 DUP3 SWAP1 DIV DUP2 AND SWAP1 SWAP2 MUL PUSH1 0x1 PUSH1 0x1 PUSH1 0x70 SHL SUB NOT SWAP1 SWAP3 AND SWAP1 SWAP4 OR OR DUP1 DUP3 SSTORE DUP4 SLOAD PUSH1 0x1 PUSH1 0x70 SHL SWAP1 DUP2 SWAP1 DIV SWAP1 SWAP4 AND SWAP1 SWAP3 MUL PUSH9 0xFFFFFFFFFFFFFFFFFF PUSH1 0x70 SHL NOT DUP4 AND DUP2 OR DUP3 SSTORE DUP4 SLOAD PUSH2 0xFFFF PUSH1 0x1 PUSH1 0xB8 SHL SWAP2 DUP3 SWAP1 DIV DUP2 AND SWAP1 SWAP2 MUL PUSH2 0xFFFF PUSH1 0xB8 SHL NOT SWAP1 SWAP3 AND PUSH1 0x1 PUSH1 0x70 SHL PUSH1 0x1 PUSH1 0xC8 SHL SUB NOT SWAP1 SWAP5 AND SWAP4 SWAP1 SWAP4 OR OR DUP1 DUP3 SSTORE DUP4 SLOAD PUSH1 0x1 PUSH1 0xC8 SHL SWAP1 DUP2 SWAP1 DIV DUP5 AND MUL PUSH2 0xFFFF PUSH1 0xC8 SHL NOT DUP3 AND DUP2 OR DUP4 SSTORE DUP5 SLOAD PUSH1 0x1 PUSH1 0xD8 SHL SWAP1 DUP2 SWAP1 DIV SWAP1 SWAP5 AND SWAP1 SWAP4 MUL PUSH2 0xFFFF PUSH1 0xD8 SHL NOT SWAP1 SWAP4 AND PUSH4 0xFFFFFFFF PUSH1 0xC8 SHL NOT SWAP1 SWAP2 AND OR SWAP2 SWAP1 SWAP2 OR DUP1 DUP3 SSTORE SWAP2 SLOAD PUSH1 0xFF PUSH1 0x1 PUSH1 0xE8 SHL SWAP2 DUP3 SWAP1 DIV AND ISZERO ISZERO MUL PUSH1 0xFF PUSH1 0xE8 SHL NOT SWAP1 SWAP3 AND SWAP2 SWAP1 SWAP2 OR SWAP1 SSTORE JUMPDEST DUP3 DUP1 SLOAD DUP1 PUSH2 0x2723 JUMPI PUSH2 0x2723 PUSH2 0x4EAC JUMP JUMPDEST PUSH1 0x0 DUP3 DUP2 MSTORE PUSH1 0x20 SWAP1 KECCAK256 DUP2 ADD PUSH1 0x0 NOT SWAP1 DUP2 ADD DUP1 SLOAD PUSH1 0x1 PUSH1 0x1 PUSH1 0xF0 SHL SUB NOT AND SWAP1 SSTORE ADD SWAP1 SSTORE POP POP POP JUMP JUMPDEST DUP1 MLOAD DUP3 MLOAD EQ ISZERO DUP1 PUSH2 0x2763 JUMPI POP DUP1 PUSH1 0x20 ADD MLOAD DUP3 PUSH1 0x20 ADD MLOAD EQ ISZERO JUMPDEST DUP1 PUSH2 0x2776 JUMPI POP DUP1 PUSH1 0x40 ADD MLOAD DUP3 PUSH1 0x40 ADD MLOAD EQ ISZERO JUMPDEST DUP1 PUSH2 0x2789 JUMPI POP DUP1 PUSH1 0x60 ADD MLOAD DUP3 PUSH1 0x60 ADD MLOAD EQ ISZERO JUMPDEST ISZERO PUSH2 0x280C JUMPI DUP2 MLOAD PUSH1 0x6 DUP1 SLOAD PUSH1 0x20 DUP6 ADD MLOAD PUSH1 0x40 DUP7 ADD MLOAD PUSH1 0x60 DUP8 ADD MLOAD PUSH1 0x1 PUSH1 0x1 PUSH1 0x48 SHL SUB SWAP1 DUP2 AND PUSH1 0x1 PUSH1 0xB8 SHL MUL PUSH1 0x1 PUSH1 0x1 PUSH1 0xB8 SHL SUB PUSH5 0xFFFFFFFFFF SWAP1 SWAP4 AND PUSH1 0x1 PUSH1 0x90 SHL MUL SWAP3 SWAP1 SWAP3 AND PUSH18 0xFFFFFFFFFFFFFFFFFFFFFFFFFFFFFFFFFFFF SWAP4 DUP3 AND PUSH1 0x1 PUSH1 0x48 SHL MUL PUSH1 0x1 PUSH1 0x1 PUSH1 0x90 SHL SUB NOT SWAP1 SWAP6 AND SWAP2 SWAP1 SWAP7 AND OR SWAP3 SWAP1 SWAP3 OR AND SWAP3 SWAP1 SWAP3 OR SWAP2 SWAP1 SWAP2 OR SWAP1 SSTORE JUMPDEST DUP1 PUSH1 0x80 ADD MLOAD DUP3 PUSH1 0x80 ADD MLOAD EQ ISZERO DUP1 PUSH2 0x282B JUMPI POP DUP1 PUSH1 0xA0 ADD MLOAD DUP3 PUSH1 0xA0 ADD MLOAD EQ ISZERO JUMPDEST DUP1 PUSH2 0x284C JUMPI POP DUP1 PUSH1 0xC0 ADD MLOAD PUSH5 0xFFFFFFFFFF AND DUP3 PUSH1 0xC0 ADD MLOAD PUSH5 0xFFFFFFFFFF AND EQ ISZERO JUMPDEST DUP1 PUSH2 0x285F JUMPI POP DUP1 PUSH1 0xE0 ADD MLOAD DUP3 PUSH1 0xE0 ADD MLOAD EQ ISZERO JUMPDEST DUP1 PUSH2 0x2874 JUMPI POP DUP1 PUSH2 0x100 ADD MLOAD DUP3 PUSH2 0x100 ADD MLOAD EQ ISZERO JUMPDEST DUP1 PUSH2 0x2889 JUMPI POP DUP1 PUSH2 0x120 ADD MLOAD DUP3 PUSH2 0x120 ADD MLOAD EQ ISZERO JUMPDEST ISZERO PUSH2 0x12BB JUMPI PUSH1 0x80 DUP3 ADD MLOAD PUSH1 0x7 DUP1 SLOAD PUSH1 0xA0 DUP6 ADD MLOAD PUSH1 0xC0 DUP7 ADD MLOAD PUSH5 0xFFFFFFFFFF AND PUSH1 0x1 PUSH1 0x58 SHL MUL PUSH5 0xFFFFFFFFFF PUSH1 0x58 SHL NOT PUSH1 0x1 PUSH1 0x1 PUSH1 0x48 SHL SUB SWAP1 SWAP3 AND PUSH3 0x10000 MUL PUSH11 0xFFFFFFFFFFFFFFFFFFFFFF NOT SWAP1 SWAP4 AND PUSH2 0xFFFF SWAP1 SWAP6 AND SWAP5 SWAP1 SWAP5 OR SWAP2 SWAP1 SWAP2 OR AND SWAP2 SWAP1 SWAP2 OR SWAP1 SSTORE PUSH2 0x120 DUP3 ADD MLOAD PUSH2 0x100 DUP4 ADD MLOAD PUSH1 0xE0 DUP5 ADD MLOAD PUSH2 0x2909 SWAP3 SWAP2 SWAP1 PUSH2 0x385D JUMP JUMPDEST PUSH1 0x7 DUP1 SLOAD PUSH1 0x1 PUSH1 0x1 PUSH1 0x80 SHL SUB SWAP3 DUP4 AND PUSH1 0x1 PUSH1 0x80 SHL MUL SWAP3 AND SWAP2 SWAP1 SWAP2 OR SWAP1 SSTORE POP POP JUMP JUMPDEST PUSH2 0x15B3 DUP3 GT ISZERO PUSH2 0x298C JUMPI PUSH1 0x40 MLOAD PUSH3 0x461BCD PUSH1 0xE5 SHL DUP2 MSTORE PUSH1 0x20 PUSH1 0x4 DUP3 ADD MSTORE PUSH1 0x27 PUSH1 0x24 DUP3 ADD MSTORE PUSH32 0x4D594E543A206E65775374616B65644461797320686967686572207468616E20 PUSH1 0x44 DUP3 ADD MSTORE PUSH7 0x6D6178696D756D PUSH1 0xC8 SHL PUSH1 0x64 DUP3 ADD MSTORE PUSH1 0x84 ADD PUSH2 0x8E7 JUMP JUMPDEST PUSH1 0x0 PUSH2 0x2998 DUP5 DUP5 PUSH2 0x3696 JUMP JUMPDEST SWAP1 POP PUSH1 0x0 DUP6 PUSH1 0x40 ADD MLOAD PUSH3 0x186A0 DUP4 DUP8 PUSH2 0x29B1 SWAP2 SWAP1 PUSH2 0x4E06 JUMP JUMPDEST PUSH2 0x29BB SWAP2 SWAP1 PUSH2 0x4DC6 JUMP JUMPDEST PUSH2 0x29C5 SWAP2 SWAP1 PUSH2 0x4DA4 JUMP JUMPDEST SWAP1 POP DUP1 PUSH1 0x0 SUB PUSH2 0x2A3D JUMPI PUSH1 0x40 MLOAD PUSH3 0x461BCD PUSH1 0xE5 SHL DUP2 MSTORE PUSH1 0x20 PUSH1 0x4 DUP3 ADD MSTORE PUSH1 0x38 PUSH1 0x24 DUP3 ADD MSTORE PUSH32 0x4D594E543A206E65775374616B6564486561727473206D757374206265206174 PUSH1 0x44 DUP3 ADD MSTORE PUSH32 0x206C65617374206D696E696D756D207368617265526174650000000000000000 PUSH1 0x64 DUP3 ADD MSTORE PUSH1 0x84 ADD PUSH2 0x8E7 JUMP JUMPDEST PUSH1 0x0 PUSH1 0x1 DUP8 PUSH2 0x140 ADD MLOAD LT PUSH2 0x2A62 JUMPI PUSH2 0x140 DUP8 ADD MLOAD PUSH2 0x2A5D SWAP1 PUSH1 0x1 PUSH2 0x4E06 JUMP JUMPDEST PUSH2 0x2A6D JUMP JUMPDEST PUSH2 0x2A6D PUSH1 0x1 DUP1 PUSH2 0x4E06 JUMP JUMPDEST SWAP1 POP PUSH1 0x0 DUP8 PUSH1 0xC0 ADD DUP1 MLOAD PUSH2 0x2A80 SWAP1 PUSH2 0x4EC2 JUMP JUMPDEST PUSH5 0xFFFFFFFFFF AND SWAP1 DUP2 SWAP1 MSTORE CALLER PUSH1 0x0 SWAP1 DUP2 MSTORE PUSH1 0xA PUSH1 0x20 MSTORE PUSH1 0x40 SWAP1 KECCAK256 SWAP1 SWAP2 POP PUSH2 0x2BBF SWAP1 DUP3 DUP10 DUP7 DUP7 DUP12 DUP12 PUSH1 0x40 DUP1 MLOAD PUSH1 0xE0 DUP2 ADD DUP3 MSTORE PUSH5 0xFFFFFFFFFF SWAP8 DUP9 AND DUP2 MSTORE PUSH1 0x1 PUSH1 0x1 PUSH1 0x48 SHL SUB SWAP7 DUP8 AND PUSH1 0x20 DUP1 DUP4 ADD SWAP2 DUP3 MSTORE SWAP7 DUP9 AND SWAP3 DUP3 ADD SWAP3 DUP4 MSTORE PUSH2 0xFFFF SWAP6 DUP7 AND PUSH1 0x60 DUP4 ADD SWAP1 DUP2 MSTORE SWAP5 DUP7 AND PUSH1 0x80 DUP4 ADD SWAP1 DUP2 MSTORE PUSH1 0x0 PUSH1 0xA0 DUP5 ADD DUP2 DUP2 MSTORE SWAP6 ISZERO ISZERO PUSH1 0xC0 DUP6 ADD SWAP1 DUP2 MSTORE DUP13 SLOAD PUSH1 0x1 DUP2 ADD DUP15 SSTORE SWAP13 DUP3 MSTORE SWAP9 SWAP1 KECCAK256 SWAP3 MLOAD SWAP3 SWAP1 SWAP11 ADD DUP1 SLOAD SWAP2 MLOAD SWAP4 MLOAD SWAP6 MLOAD SWAP11 MLOAD SWAP5 MLOAD SWAP8 MLOAD ISZERO ISZERO PUSH1 0x1 PUSH1 0xE8 SHL MUL PUSH1 0xFF PUSH1 0xE8 SHL NOT SWAP9 DUP9 AND PUSH1 0x1 PUSH1 0xD8 SHL MUL PUSH2 0xFFFF PUSH1 0xD8 SHL NOT SWAP7 DUP10 AND PUSH1 0x1 PUSH1 0xC8 SHL MUL SWAP7 SWAP1 SWAP7 AND PUSH4 0xFFFFFFFF PUSH1 0xC8 SHL NOT SWAP13 SWAP1 SWAP9 AND PUSH1 0x1 PUSH1 0xB8 SHL MUL PUSH2 0xFFFF PUSH1 0xB8 SHL NOT SWAP8 DUP12 AND PUSH1 0x1 PUSH1 0x70 SHL MUL SWAP8 SWAP1 SWAP8 AND PUSH1 0x1 PUSH1 0x70 SHL PUSH1 0x1 PUSH1 0xC8 SHL SUB NOT SWAP6 SWAP1 SWAP11 AND PUSH1 0x1 PUSH1 0x28 SHL MUL PUSH1 0x1 PUSH1 0x1 PUSH1 0x70 SHL SUB NOT SWAP1 SWAP4 AND SWAP4 SWAP1 SWAP11 AND SWAP3 SWAP1 SWAP3 OR OR SWAP2 SWAP1 SWAP2 AND SWAP6 SWAP1 SWAP6 OR SWAP2 SWAP1 SWAP2 OR SWAP6 SWAP1 SWAP6 AND OR SWAP4 SWAP1 SWAP4 OR SWAP3 SWAP1 SWAP3 AND OR SWAP1 SSTORE JUMP JUMPDEST PUSH2 0x2BCC DUP2 DUP9 DUP6 DUP10 DUP10 PUSH2 0x3881 JUMP JUMPDEST DUP3 DUP9 PUSH1 0x20 ADD DUP2 DUP2 MLOAD PUSH2 0x2BDE SWAP2 SWAP1 PUSH2 0x4E06 JUMP JUMPDEST SWAP1 MSTORE POP DUP8 MLOAD DUP8 SWAP1 DUP10 SWAP1 PUSH2 0x2BF2 SWAP1 DUP4 SWAP1 PUSH2 0x4E06 JUMP JUMPDEST SWAP1 MSTORE POP POP POP POP POP POP POP POP POP JUMP JUMPDEST PUSH1 0x1 PUSH1 0x1 PUSH1 0xA0 SHL SUB DUP3 AND PUSH2 0x2C5F JUMPI PUSH1 0x40 MLOAD PUSH3 0x461BCD PUSH1 0xE5 SHL DUP2 MSTORE PUSH1 0x20 PUSH1 0x4 DUP3 ADD MSTORE PUSH1 0x21 PUSH1 0x24 DUP3 ADD MSTORE PUSH32 0x45524332303A206275726E2066726F6D20746865207A65726F20616464726573 PUSH1 0x44 DUP3 ADD MSTORE PUSH1 0x73 PUSH1 0xF8 SHL PUSH1 0x64 DUP3 ADD MSTORE PUSH1 0x84 ADD PUSH2 0x8E7 JUMP JUMPDEST PUSH1 0x1 PUSH1 0x1 PUSH1 0xA0 SHL SUB DUP3 AND PUSH1 0x0 SWAP1 DUP2 MSTORE PUSH1 0x20 DUP2 SWAP1 MSTORE PUSH1 0x40 SWAP1 KECCAK256 SLOAD DUP2 DUP2 LT ISZERO PUSH2 0x2CD3 JUMPI PUSH1 0x40 MLOAD PUSH3 0x461BCD PUSH1 0xE5 SHL DUP2 MSTORE PUSH1 0x20 PUSH1 0x4 DUP3 ADD MSTORE PUSH1 0x22 PUSH1 0x24 DUP3 ADD MSTORE PUSH32 0x45524332303A206275726E20616D6F756E7420657863656564732062616C616E PUSH1 0x44 DUP3 ADD MSTORE PUSH2 0x6365 PUSH1 0xF0 SHL PUSH1 0x64 DUP3 ADD MSTORE PUSH1 0x84 ADD PUSH2 0x8E7 JUMP JUMPDEST PUSH1 0x1 PUSH1 0x1 PUSH1 0xA0 SHL SUB DUP4 AND PUSH1 0x0 DUP2 DUP2 MSTORE PUSH1 0x20 DUP2 DUP2 MSTORE PUSH1 0x40 DUP1 DUP4 KECCAK256 DUP7 DUP7 SUB SWAP1 SSTORE PUSH1 0x2 DUP1 SLOAD DUP8 SWAP1 SUB SWAP1 SSTORE MLOAD DUP6 DUP2 MSTORE SWAP2 SWAP3 SWAP2 PUSH32 0xDDF252AD1BE2C89B69C2B068FC378DAA952BA7F163C4A11628F55A4DF523B3EF SWAP2 ADD PUSH1 0x40 MLOAD DUP1 SWAP2 SUB SWAP1 LOG3 POP POP POP JUMP JUMPDEST PUSH1 0x0 PUSH1 0x3C PUSH2 0x2D43 PUSH4 0x65645B8F TIMESTAMP PUSH2 0x4DF3 JUMP JUMPDEST PUSH2 0xEEC SWAP2 SWAP1 PUSH2 0x4DA4 JUMP JUMPDEST PUSH1 0x40 DUP1 MLOAD TIMESTAMP PUSH5 0xFFFFFFFFFF SWAP1 DUP2 AND PUSH14 0xFFFFFFFFFFFFFFFFFF0000000000 PUSH1 0x28 DUP10 SWAP1 SHL AND OR PUSH9 0xFFFFFFFFFFFFFFFFFF PUSH1 0x70 SHL PUSH1 0x70 DUP9 SWAP1 SHL AND OR PUSH1 0x1 PUSH1 0x1 PUSH1 0xB8 SHL SUB NOT PUSH1 0xB8 DUP8 SWAP1 SHL AND OR DUP3 MSTORE PUSH1 0x1 PUSH1 0x1 PUSH1 0x48 SHL SUB DUP5 AND PUSH1 0x20 DUP4 ADD MSTORE CALLER SWAP3 SWAP1 DUP9 AND SWAP2 PUSH1 0x1 PUSH1 0x1 PUSH1 0xA0 SHL SUB DUP11 AND SWAP2 PUSH32 0xD824970A2CF19CC2B630C87CE5B00F67301CAC3AC60513D027C7A39129F93B46 SWAP2 ADD PUSH1 0x40 MLOAD DUP1 SWAP2 SUB SWAP1 LOG4 POP POP POP POP POP POP JUMP JUMPDEST PUSH1 0x0 PUSH1 0x2D PUSH1 0x1 PUSH2 0x2DFB DUP3 PUSH1 0x60 PUSH2 0x4DF3 JUMP JUMPDEST PUSH1 0x1 SWAP1 SHL PUSH2 0x2E09 SWAP2 SWAP1 PUSH2 0x4DF3 JUMP JUMPDEST SWAP1 SHL DUP3 PUSH1 0x0 DUP2 MLOAD DUP2 LT PUSH2 0x2E1E JUMPI PUSH2 0x2E1E PUSH2 0x4DDD JUMP JUMPDEST PUSH1 0x20 MUL PUSH1 0x20 ADD ADD MLOAD PUSH1 0x0 SHR AND PUSH1 0x0 EQ PUSH2 0x2E6F JUMPI PUSH1 0x40 MLOAD PUSH3 0x461BCD PUSH1 0xE5 SHL DUP2 MSTORE PUSH1 0x20 PUSH1 0x4 DUP3 ADD MSTORE PUSH1 0x13 PUSH1 0x24 DUP3 ADD MSTORE PUSH19 0x135653950E881C1C9BDBD9881A5B9D985B1A59 PUSH1 0x6A SHL PUSH1 0x44 DUP3 ADD MSTORE PUSH1 0x64 ADD PUSH2 0x8E7 JUMP JUMPDEST PUSH1 0x1 JUMPDEST DUP3 MLOAD DUP2 LT ISZERO PUSH2 0x2F0F JUMPI PUSH1 0x2D PUSH1 0x1 PUSH2 0x2E8A DUP3 PUSH1 0x60 PUSH2 0x4DF3 JUMP JUMPDEST PUSH1 0x1 SWAP1 SHL PUSH2 0x2E98 SWAP2 SWAP1 PUSH2 0x4DF3 JUMP JUMPDEST SWAP1 SHL DUP4 DUP3 DUP2 MLOAD DUP2 LT PUSH2 0x2EAC JUMPI PUSH2 0x2EAC PUSH2 0x4DDD JUMP JUMPDEST PUSH1 0x20 MUL PUSH1 0x20 ADD ADD MLOAD PUSH1 0x0 SHR AND PUSH1 0x0 SUB PUSH2 0x2EFD JUMPI PUSH1 0x40 MLOAD PUSH3 0x461BCD PUSH1 0xE5 SHL DUP2 MSTORE PUSH1 0x20 PUSH1 0x4 DUP3 ADD MSTORE PUSH1 0x13 PUSH1 0x24 DUP3 ADD MSTORE PUSH19 0x135653950E881C1C9BDBD9881A5B9D985B1A59 PUSH1 0x6A SHL PUSH1 0x44 DUP3 ADD MSTORE PUSH1 0x64 ADD PUSH2 0x8E7 JUMP JUMPDEST DUP1 PUSH2 0x2F07 DUP2 PUSH2 0x4E19 JUMP JUMPDEST SWAP2 POP POP PUSH2 0x2E72 JUMP JUMPDEST POP PUSH1 0x1 PUSH1 0x1 PUSH1 0x60 SHL SUB NOT DUP5 AND DUP4 OR PUSH2 0x1BA1 DUP2 DUP5 PUSH2 0x20A7 JUMP JUMPDEST DUP2 DUP4 PUSH1 0x80 ADD MLOAD LT PUSH2 0x2F37 JUMPI POP POP POP JUMP JUMPDEST PUSH2 0x2F5B PUSH1 0x40 MLOAD DUP1 PUSH1 0x60 ADD PUSH1 0x40 MSTORE DUP1 PUSH1 0x0 DUP2 MSTORE PUSH1 0x20 ADD PUSH1 0x0 DUP2 MSTORE PUSH1 0x20 ADD PUSH1 0x0 DUP2 MSTORE POP SWAP1 JUMP JUMPDEST DUP4 MLOAD PUSH1 0x2 SLOAD PUSH2 0x2F6A SWAP2 SWAP1 PUSH2 0x4E06 JUMP JUMPDEST DUP2 MSTORE PUSH1 0x80 DUP5 ADD MLOAD PUSH2 0x2F7C DUP6 DUP4 DUP4 PUSH2 0x3915 JUMP JUMPDEST PUSH1 0x20 DUP6 ADD MLOAD ISZERO PUSH2 0x2FA7 JUMPI DUP5 PUSH1 0x20 ADD MLOAD DUP6 PUSH1 0xA0 ADD DUP2 DUP2 MLOAD PUSH2 0x2F9C SWAP2 SWAP1 PUSH2 0x4E06 JUMP JUMPDEST SWAP1 MSTORE POP PUSH1 0x0 PUSH1 0x20 DUP7 ADD MSTORE JUMPDEST DUP4 PUSH2 0x2FB1 DUP3 PUSH2 0x4E19 JUMP JUMPDEST SWAP2 POP DUP2 LT ISZERO PUSH2 0x2FCA JUMPI PUSH2 0x2FC5 DUP6 DUP4 DUP4 PUSH2 0x3915 JUMP JUMPDEST PUSH2 0x2FA7 JUMP JUMPDEST PUSH2 0x2FD9 DUP6 PUSH1 0x80 ADD MLOAD DUP3 DUP6 PUSH2 0x398D JUMP JUMPDEST PUSH1 0x80 DUP6 ADD DUP2 SWAP1 MSTORE PUSH1 0x20 DUP3 ADD MLOAD ISZERO PUSH2 0x25AE JUMPI PUSH2 0x25AE PUSH20 0x9A6A414D6F3497C05E3B1DE90520765FA1E07C03 DUP4 PUSH1 0x20 ADD MLOAD PUSH2 0x1DD0 JUMP JUMPDEST PUSH1 0x0 PUSH2 0x3016 PUSH2 0x4558 JUMP JUMPDEST PUSH2 0x301E PUSH2 0x4558 JUMP JUMPDEST PUSH2 0x3028 DUP3 DUP3 PUSH2 0x2181 JUMP JUMPDEST PUSH2 0x3037 DUP3 DUP11 DUP11 DUP11 DUP11 DUP11 DUP11 PUSH2 0x3A06 JUMP JUMPDEST SWAP3 POP PUSH2 0x3043 DUP3 DUP3 PUSH2 0x274A JUMP JUMPDEST POP POP SWAP7 SWAP6 POP POP POP POP POP POP JUMP JUMPDEST PUSH1 0x60 PUSH1 0x0 PUSH1 0x1 DUP4 AND DUP2 SUB PUSH2 0x308B JUMPI PUSH1 0x40 MLOAD DUP1 PUSH1 0x40 ADD PUSH1 0x40 MSTORE DUP1 PUSH1 0x10 DUP2 MSTORE PUSH1 0x20 ADD PUSH16 0x86D8C2D2DABE9AB29CA8BEE8DEBE60F PUSH1 0x83 SHL DUP2 MSTORE POP PUSH2 0x30C2 JUMP JUMPDEST PUSH1 0x40 MLOAD DUP1 PUSH1 0x40 ADD PUSH1 0x40 MSTORE DUP1 PUSH1 0x17 DUP2 MSTORE PUSH1 0x20 ADD PUSH32 0x436C61696D5F426974636F696E4D594E545F746F5F3078000000000000000000 DUP2 MSTORE POP JUMPDEST SWAP1 POP PUSH1 0x10 DUP4 AND ISZERO PUSH1 0x0 PUSH2 0x30D5 DUP8 DUP4 PUSH2 0x3B7F JUMP JUMPDEST SWAP1 POP PUSH1 0x0 DUP7 SWAP1 SUB PUSH2 0x3145 JUMPI PUSH1 0x18 PUSH24 0x2134BA31B7B4B71029B4B3B732B21026B2B9B9B0B3B29D05 PUSH1 0x41 SHL PUSH2 0x310A PUSH1 0x14 PUSH1 0x2 PUSH2 0x4EE6 JUMP JUMPDEST DUP6 MLOAD PUSH2 0x3116 SWAP2 SWAP1 PUSH2 0x4F09 JUMP JUMPDEST DUP6 DUP5 PUSH1 0x40 MLOAD PUSH1 0x20 ADD PUSH2 0x312C SWAP6 SWAP5 SWAP4 SWAP3 SWAP2 SWAP1 PUSH2 0x4F22 JUMP JUMPDEST PUSH1 0x40 MLOAD PUSH1 0x20 DUP2 DUP4 SUB SUB DUP2 MSTORE SWAP1 PUSH1 0x40 MSTORE SWAP4 POP POP POP POP PUSH2 0x949 JUMP JUMPDEST PUSH1 0x0 PUSH2 0x3153 PUSH1 0xC PUSH1 0x2 PUSH2 0x4EE6 JUMP JUMPDEST PUSH1 0xFF AND PUSH8 0xFFFFFFFFFFFFFFFF DUP2 GT ISZERO PUSH2 0x316E JUMPI PUSH2 0x316E PUSH2 0x48DC JUMP JUMPDEST PUSH1 0x40 MLOAD SWAP1 DUP1 DUP3 MSTORE DUP1 PUSH1 0x1F ADD PUSH1 0x1F NOT AND PUSH1 0x20 ADD DUP3 ADD PUSH1 0x40 MSTORE DUP1 ISZERO PUSH2 0x3198 JUMPI PUSH1 0x20 DUP3 ADD DUP2 DUP1 CALLDATASIZE DUP4 CALLDATACOPY ADD SWAP1 POP JUMPDEST POP SWAP1 POP PUSH2 0x31A7 DUP2 DUP9 PUSH1 0xC PUSH2 0x3C72 JUMP JUMPDEST PUSH1 0x18 PUSH24 0x2134BA31B7B4B71029B4B3B732B21026B2B9B9B0B3B29D05 PUSH1 0x41 SHL PUSH2 0x31D1 PUSH1 0xC PUSH1 0x2 PUSH2 0x4EE6 JUMP JUMPDEST PUSH2 0x31DD PUSH1 0x14 PUSH1 0x2 PUSH2 0x4EE6 JUMP JUMPDEST DUP8 MLOAD PUSH2 0x31E9 SWAP2 SWAP1 PUSH2 0x4F09 JUMP JUMPDEST PUSH2 0x31F4 SWAP1 PUSH1 0x1 PUSH2 0x4F09 JUMP JUMPDEST PUSH2 0x31FE SWAP2 SWAP1 PUSH2 0x4F09 JUMP JUMPDEST DUP7 DUP6 DUP6 PUSH1 0x40 MLOAD PUSH1 0x20 ADD PUSH2 0x3216 SWAP7 SWAP6 SWAP5 SWAP4 SWAP3 SWAP2 SWAP1 PUSH2 0x4F8A JUMP JUMPDEST PUSH1 0x40 MLOAD PUSH1 0x20 DUP2 DUP4 SUB SUB DUP2 MSTORE SWAP1 PUSH1 0x40 MSTORE SWAP5 POP POP POP POP POP SWAP4 SWAP3 POP POP POP JUMP JUMPDEST PUSH1 0x0 PUSH1 0x2 DUP1 DUP4 PUSH1 0x40 MLOAD PUSH2 0x3245 SWAP2 SWAP1 PUSH2 0x4E77 JUMP JUMPDEST PUSH1 0x20 PUSH1 0x40 MLOAD DUP1 DUP4 SUB DUP2 DUP6 GAS STATICCALL ISZERO DUP1 ISZERO PUSH2 0x3262 JUMPI RETURNDATASIZE PUSH1 0x0 DUP1 RETURNDATACOPY RETURNDATASIZE PUSH1 0x0 REVERT JUMPDEST POP POP POP PUSH1 0x40 MLOAD RETURNDATASIZE PUSH1 0x1F NOT PUSH1 0x1F DUP3 ADD AND DUP3 ADD DUP1 PUSH1 0x40 MSTORE POP DUP2 ADD SWAP1 PUSH2 0x3285 SWAP2 SWAP1 PUSH2 0x4E93 JUMP JUMPDEST PUSH1 0x40 MLOAD PUSH1 0x20 ADD PUSH2 0x3297 SWAP2 DUP2 MSTORE PUSH1 0x20 ADD SWAP1 JUMP JUMPDEST PUSH1 0x40 DUP1 MLOAD PUSH1 0x1F NOT DUP2 DUP5 SUB ADD DUP2 MSTORE SWAP1 DUP3 SWAP1 MSTORE PUSH2 0x32B1 SWAP2 PUSH2 0x4E77 JUMP JUMPDEST PUSH1 0x20 PUSH1 0x40 MLOAD DUP1 DUP4 SUB DUP2 DUP6 GAS STATICCALL ISZERO DUP1 ISZERO PUSH2 0x32CE JUMPI RETURNDATASIZE PUSH1 0x0 DUP1 RETURNDATACOPY RETURNDATASIZE PUSH1 0x0 REVERT JUMPDEST POP POP POP PUSH1 0x40 MLOAD RETURNDATASIZE PUSH1 0x1F NOT PUSH1 0x1F DUP3 ADD AND DUP3 ADD DUP1 PUSH1 0x40 MSTORE POP DUP2 ADD SWAP1 PUSH2 0x888 SWAP2 SWAP1 PUSH2 0x4E93 JUMP JUMPDEST PUSH1 0x0 DUP1 DUP1 PUSH2 0x3301 PUSH1 0x33 PUSH1 0x2 PUSH2 0x4DC6 JUMP JUMPDEST PUSH1 0x1 PUSH1 0x1 PUSH1 0x80 SHL SUB DUP1 DUP7 AND SWAP1 SWAP2 SHR AND SWAP3 POP PUSH2 0x3324 PUSH1 0x1 PUSH7 0x8000000000000 PUSH2 0x4DF3 JUMP JUMPDEST PUSH1 0x33 DUP6 SWAP1 SHR AND PUSH10 0x1FFFFFFFFFFFFFFFFFFF AND SWAP2 POP PUSH2 0x334A PUSH1 0x1 PUSH7 0x8000000000000 PUSH2 0x4DF3 JUMP JUMPDEST DUP5 PUSH1 0x1 PUSH1 0x1 PUSH1 0x80 SHL SUB AND AND SWAP1 POP SWAP2 SWAP4 SWAP1 SWAP3 POP JUMP JUMPDEST PUSH1 0x0 DUP3 PUSH2 0x336B DUP6 DUP5 PUSH2 0x3D6D JUMP JUMPDEST EQ SWAP5 SWAP4 POP POP POP POP JUMP JUMPDEST DUP2 MLOAD DUP2 MSTORE PUSH1 0x20 DUP1 DUP4 ADD MLOAD SWAP1 DUP3 ADD MSTORE PUSH1 0x40 DUP1 DUP4 ADD MLOAD SWAP1 DUP3 ADD MSTORE PUSH1 0x60 DUP1 DUP4 ADD MLOAD SWAP1 DUP3 ADD MSTORE PUSH1 0x80 DUP1 DUP4 ADD MLOAD SWAP1 DUP3 ADD MSTORE PUSH1 0xA0 DUP1 DUP4 ADD MLOAD SWAP1 DUP3 ADD MSTORE PUSH1 0xC0 DUP1 DUP4 ADD MLOAD PUSH5 0xFFFFFFFFFF AND SWAP1 DUP3 ADD MSTORE PUSH1 0xE0 DUP1 DUP4 ADD MLOAD SWAP1 DUP3 ADD MSTORE PUSH2 0x100 DUP1 DUP4 ADD MLOAD SWAP1 DUP3 ADD MSTORE PUSH2 0x120 SWAP2 DUP3 ADD MLOAD SWAP2 ADD MSTORE JUMP JUMPDEST PUSH1 0x0 DUP1 DUP1 PUSH2 0x33EA DUP6 DUP9 PUSH2 0x4E06 JUMP JUMPDEST SWAP1 POP PUSH1 0x0 PUSH1 0x2 PUSH2 0x33FB DUP9 PUSH1 0x1 PUSH2 0x4E06 JUMP JUMPDEST PUSH2 0x3405 SWAP2 SWAP1 PUSH2 0x4DA4 JUMP JUMPDEST SWAP1 POP PUSH1 0x5A DUP2 LT ISZERO PUSH2 0x3414 JUMPI POP PUSH1 0x5A JUMPDEST DUP6 PUSH1 0x0 SUB PUSH2 0x343F JUMPI PUSH1 0x0 PUSH2 0x3429 DUP11 DUP8 DUP12 PUSH2 0x3DBA JUMP JUMPDEST SWAP1 POP PUSH2 0x3435 DUP3 DUP3 PUSH2 0x4DC6 JUMP JUMPDEST SWAP4 POP POP POP POP PUSH2 0x34C0 JUMP JUMPDEST DUP6 DUP2 LT ISZERO PUSH2 0x3488 JUMPI PUSH1 0x0 PUSH2 0x3453 DUP3 DUP11 PUSH2 0x4E06 JUMP JUMPDEST SWAP1 POP PUSH2 0x3461 DUP11 DUP8 DUP12 DUP5 PUSH2 0x34CA JUMP JUMPDEST SWAP4 POP PUSH1 0x0 PUSH2 0x3471 DUP12 DUP9 DUP5 DUP8 PUSH2 0x34CA JUMP JUMPDEST SWAP1 POP PUSH2 0x347D DUP2 DUP7 PUSH2 0x4E06 JUMP JUMPDEST SWAP6 POP POP POP POP POP PUSH2 0x34C0 JUMP JUMPDEST PUSH2 0x3494 DUP10 DUP7 DUP11 DUP6 PUSH2 0x34CA JUMP JUMPDEST SWAP4 POP DUP6 DUP2 SUB PUSH2 0x34A5 JUMPI DUP4 SWAP3 POP PUSH2 0x34BD JUMP JUMPDEST DUP6 PUSH2 0x34B0 DUP3 DUP7 PUSH2 0x4DC6 JUMP JUMPDEST PUSH2 0x34BA SWAP2 SWAP1 PUSH2 0x4DA4 JUMP JUMPDEST SWAP3 POP JUMPDEST POP POP JUMPDEST SWAP6 POP SWAP6 SWAP4 POP POP POP POP JUMP JUMPDEST PUSH1 0x0 DUP3 JUMPDEST DUP3 DUP2 LT ISZERO PUSH2 0x352B JUMPI PUSH1 0x0 DUP2 DUP2 MSTORE PUSH1 0x9 PUSH1 0x20 MSTORE PUSH1 0x40 SWAP1 KECCAK256 SLOAD PUSH1 0x1 PUSH1 0x1 PUSH1 0x48 SHL SUB PUSH1 0x1 PUSH1 0x48 SHL DUP3 DIV DUP2 AND SWAP2 PUSH2 0x3503 SWAP2 DUP9 SWAP2 AND PUSH2 0x4DC6 JUMP JUMPDEST PUSH2 0x350D SWAP2 SWAP1 PUSH2 0x4DA4 JUMP JUMPDEST PUSH2 0x3517 SWAP1 DUP4 PUSH2 0x4E06 JUMP JUMPDEST SWAP2 POP DUP1 PUSH2 0x3523 DUP2 PUSH2 0x4E19 JUMP JUMPDEST SWAP2 POP POP PUSH2 0x34CE JUMP JUMPDEST POP PUSH2 0x3538 PUSH1 0x32 PUSH1 0x7 PUSH2 0x4DC6 JUMP JUMPDEST PUSH2 0x3543 SWAP1 PUSH1 0x1 PUSH2 0x4E06 JUMP JUMPDEST PUSH2 0x354E SWAP1 PUSH1 0x1 PUSH2 0x4E06 JUMP JUMPDEST DUP4 GT ISZERO DUP1 ISZERO PUSH2 0x357D JUMPI POP PUSH2 0x3564 PUSH1 0x32 PUSH1 0x7 PUSH2 0x4DC6 JUMP JUMPDEST PUSH2 0x356F SWAP1 PUSH1 0x1 PUSH2 0x4E06 JUMP JUMPDEST PUSH2 0x357A SWAP1 PUSH1 0x1 PUSH2 0x4E06 JUMP JUMPDEST DUP3 GT JUMPDEST ISZERO PUSH2 0xA0B JUMPI PUSH1 0x0 PUSH1 0x9 DUP2 PUSH2 0x3593 PUSH1 0x32 PUSH1 0x7 PUSH2 0x4DC6 JUMP JUMPDEST PUSH2 0x359E SWAP1 PUSH1 0x1 PUSH2 0x4E06 JUMP JUMPDEST PUSH2 0x35A9 SWAP1 PUSH1 0x1 PUSH2 0x4E06 JUMP JUMPDEST DUP2 MSTORE PUSH1 0x20 DUP2 ADD SWAP2 SWAP1 SWAP2 MSTORE PUSH1 0x40 ADD PUSH1 0x0 KECCAK256 SLOAD PUSH1 0x1 PUSH1 0x48 SHL SWAP1 DIV PUSH1 0x1 PUSH1 0x1 PUSH1 0x48 SHL SUB AND DUP6 PUSH2 0x2710 PUSH4 0x5F5E100 PUSH2 0x35DF PUSH1 0x8 PUSH1 0xA PUSH2 0x4D98 JUMP JUMPDEST PUSH2 0x35E9 SWAP2 SWAP1 PUSH2 0x4DA4 JUMP JUMPDEST PUSH2 0x35F3 SWAP2 SWAP1 PUSH2 0x4DC6 JUMP JUMPDEST DUP9 PUSH1 0xE0 ADD MLOAD PUSH2 0x3602 SWAP2 SWAP1 PUSH2 0x4DC6 JUMP JUMPDEST PUSH2 0x360C SWAP2 SWAP1 PUSH2 0x4DC6 JUMP JUMPDEST PUSH2 0x3616 SWAP2 SWAP1 PUSH2 0x4DA4 JUMP JUMPDEST SWAP1 POP PUSH2 0x3622 DUP7 DUP3 PUSH2 0x3EED JUMP JUMPDEST PUSH2 0x362C SWAP1 DUP3 PUSH2 0x4E06 JUMP JUMPDEST PUSH2 0x1591 SWAP1 DUP4 PUSH2 0x4E06 JUMP JUMPDEST PUSH1 0x0 DUP1 PUSH2 0x3645 PUSH1 0x2 PUSH1 0x7 PUSH2 0x4DC6 JUMP JUMPDEST PUSH2 0x364F DUP7 DUP9 PUSH2 0x4E06 JUMP JUMPDEST PUSH2 0x3659 SWAP2 SWAP1 PUSH2 0x4E06 JUMP JUMPDEST SWAP1 POP DUP1 DUP5 GT PUSH2 0x366C JUMPI PUSH1 0x0 SWAP2 POP POP PUSH2 0xA0B JUMP JUMPDEST PUSH2 0x3678 PUSH1 0x64 PUSH1 0x7 PUSH2 0x4DC6 JUMP JUMPDEST PUSH2 0x3682 DUP3 DUP7 PUSH2 0x4DF3 JUMP JUMPDEST PUSH2 0x368C SWAP1 DUP6 PUSH2 0x4DC6 JUMP JUMPDEST PUSH2 0x1591 SWAP2 SWAP1 PUSH2 0x4DA4 JUMP JUMPDEST PUSH1 0x0 DUP1 PUSH1 0x1 DUP4 GT ISZERO PUSH2 0x3706 JUMPI PUSH1 0x64 PUSH1 0xC8 PUSH2 0x36B3 PUSH1 0x14 PUSH2 0x8E30 PUSH2 0x4DA4 JUMP JUMPDEST PUSH2 0x36BD SWAP2 SWAP1 PUSH2 0x4DC6 JUMP JUMPDEST PUSH2 0x36C7 SWAP2 SWAP1 PUSH2 0x4DA4 JUMP JUMPDEST DUP4 GT ISZERO PUSH2 0x36F8 JUMPI PUSH1 0x64 PUSH1 0xC8 PUSH2 0x36DF PUSH1 0x14 PUSH2 0x8E30 PUSH2 0x4DA4 JUMP JUMPDEST PUSH2 0x36E9 SWAP2 SWAP1 PUSH2 0x4DC6 JUMP JUMPDEST PUSH2 0x36F3 SWAP2 SWAP1 PUSH2 0x4DA4 JUMP JUMPDEST PUSH2 0x3703 JUMP JUMPDEST PUSH2 0x3703 PUSH1 0x1 DUP5 PUSH2 0x4DF3 JUMP JUMPDEST SWAP1 POP JUMPDEST PUSH1 0x0 PUSH2 0x3714 PUSH1 0x8 PUSH1 0xA PUSH2 0x4D98 JUMP JUMPDEST PUSH2 0x3722 SWAP1 PUSH4 0x8F0D180 PUSH2 0x4DC6 JUMP JUMPDEST DUP6 GT ISZERO PUSH2 0x3748 JUMPI PUSH2 0x3735 PUSH1 0x8 PUSH1 0xA PUSH2 0x4D98 JUMP JUMPDEST PUSH2 0x3743 SWAP1 PUSH4 0x8F0D180 PUSH2 0x4DC6 JUMP JUMPDEST PUSH2 0x374A JUMP JUMPDEST DUP5 JUMPDEST SWAP1 POP PUSH2 0x3759 PUSH1 0x14 PUSH2 0x8E30 PUSH2 0x4DA4 JUMP JUMPDEST PUSH2 0x3763 SWAP1 DUP3 PUSH2 0x4DC6 JUMP JUMPDEST PUSH1 0xA PUSH2 0x3770 PUSH1 0x8 DUP3 PUSH2 0x4D98 JUMP JUMPDEST PUSH2 0x377E SWAP1 PUSH4 0x8F0D180 PUSH2 0x4DC6 JUMP JUMPDEST PUSH2 0x3789 SWAP1 PUSH1 0x64 PUSH2 0x4DC6 JUMP JUMPDEST PUSH2 0x3793 SWAP2 SWAP1 PUSH2 0x4DA4 JUMP JUMPDEST PUSH2 0x379D SWAP1 DUP5 PUSH2 0x4DC6 JUMP JUMPDEST PUSH2 0x37A7 SWAP2 SWAP1 PUSH2 0x4E06 JUMP JUMPDEST SWAP3 POP PUSH1 0xA PUSH2 0x37B6 PUSH1 0x8 DUP3 PUSH2 0x4D98 JUMP JUMPDEST PUSH2 0x37C4 SWAP1 PUSH4 0x8F0D180 PUSH2 0x4DC6 JUMP JUMPDEST PUSH2 0x37CF SWAP1 PUSH1 0x64 PUSH2 0x4DC6 JUMP JUMPDEST PUSH2 0x37D9 SWAP2 SWAP1 PUSH2 0x4DA4 JUMP JUMPDEST PUSH2 0x37E6 PUSH1 0x14 PUSH2 0x8E30 PUSH2 0x4DA4 JUMP JUMPDEST PUSH2 0x37F0 SWAP2 SWAP1 PUSH2 0x4DC6 JUMP JUMPDEST PUSH2 0x37FA DUP5 DUP8 PUSH2 0x4DC6 JUMP JUMPDEST PUSH2 0x1BA1 SWAP2 SWAP1 PUSH2 0x4DA4 JUMP JUMPDEST DUP1 PUSH5 0xFFFFFFFFFF AND PUSH32 0x9861FA0ED101659F7A59B4583FCC798DFA4F3B419BEA371C8EE2AD0FFE13A31E PUSH1 0x28 DUP5 PUSH5 0xFFFFFFFFFF AND SWAP1 SHL TIMESTAMP PUSH5 0xFFFFFFFFFF AND OR PUSH1 0x40 MLOAD PUSH2 0x3851 SWAP2 DUP2 MSTORE PUSH1 0x20 ADD SWAP1 JUMP JUMPDEST PUSH1 0x40 MLOAD DUP1 SWAP2 SUB SWAP1 LOG2 POP POP JUMP JUMPDEST PUSH1 0x0 DUP1 PUSH2 0x386C PUSH1 0x33 PUSH1 0x2 PUSH2 0x4DC6 JUMP JUMPDEST SWAP5 SWAP1 SWAP5 SHL PUSH1 0x33 SWAP4 SWAP1 SWAP4 SHL SWAP3 SWAP1 SWAP3 OR OR SWAP3 SWAP2 POP POP JUMP JUMPDEST PUSH5 0xFFFFFFFFFF DUP6 AND CALLER PUSH32 0x14872DC760F33532684E68E1B6D5FD3F71BA7B07DEE76BDB2B084F28B74233EF DUP4 PUSH2 0x38B7 JUMPI PUSH1 0x0 PUSH2 0x38BD JUMP JUMPDEST PUSH1 0x1 PUSH1 0xC8 SHL JUMPDEST PUSH1 0x1 PUSH1 0x1 PUSH1 0xD0 SHL SUB AND PUSH1 0xB8 DUP7 PUSH2 0xFFFF AND SWAP1 SHL PUSH1 0x70 DUP9 PUSH1 0x1 PUSH1 0x1 PUSH1 0x48 SHL SUB AND SWAP1 SHL PUSH1 0x28 DUP11 PUSH1 0x1 PUSH1 0x1 PUSH1 0x48 SHL SUB AND SWAP1 SHL TIMESTAMP PUSH5 0xFFFFFFFFFF AND OR OR OR OR PUSH1 0x40 MLOAD PUSH2 0x3906 SWAP2 DUP2 MSTORE PUSH1 0x20 ADD SWAP1 JUMP JUMPDEST PUSH1 0x40 MLOAD DUP1 SWAP2 SUB SWAP1 LOG3 POP POP POP POP POP JUMP JUMPDEST PUSH2 0x3920 DUP4 DUP4 DUP4 PUSH2 0x3F43 JUMP JUMPDEST PUSH1 0x40 SWAP2 DUP3 ADD MLOAD PUSH1 0x0 SWAP2 DUP3 MSTORE PUSH1 0x9 PUSH1 0x20 MSTORE SWAP2 SWAP1 KECCAK256 DUP1 SLOAD PUSH1 0xA0 DUP5 ADD MLOAD PUSH1 0xE0 SWAP1 SWAP5 ADD MLOAD PUSH7 0xFFFFFFFFFFFFFF AND PUSH1 0x1 PUSH1 0x90 SHL MUL PUSH7 0xFFFFFFFFFFFFFF PUSH1 0x90 SHL NOT PUSH1 0x1 PUSH1 0x1 PUSH1 0x48 SHL SUB SWAP6 DUP7 AND PUSH1 0x1 PUSH1 0x48 SHL MUL PUSH1 0x1 PUSH1 0x1 PUSH1 0x90 SHL SUB NOT SWAP1 SWAP4 AND SWAP6 SWAP1 SWAP5 AND SWAP5 SWAP1 SWAP5 OR OR SWAP2 SWAP1 SWAP2 AND SWAP2 SWAP1 SWAP2 OR SWAP1 SSTORE JUMP JUMPDEST CALLER PUSH32 0xB8D6EB541DED1720CC657B719F57ABCB1FE4711CB7EAD82751B135F5D94BC944 DUP3 PUSH2 0x39BB JUMPI PUSH1 0x0 PUSH2 0x39C1 JUMP JUMPDEST PUSH1 0x1 PUSH1 0x48 SHL JUMPDEST PUSH10 0xFFFFFFFFFFFFFFFFFFFF AND PUSH1 0x38 DUP6 PUSH2 0xFFFF AND SWAP1 SHL PUSH1 0x28 DUP8 PUSH2 0xFFFF AND SWAP1 SHL TIMESTAMP PUSH5 0xFFFFFFFFFF AND OR OR OR PUSH1 0x40 MLOAD PUSH2 0x39F9 SWAP2 DUP2 MSTORE PUSH1 0x20 ADD SWAP1 JUMP JUMPDEST PUSH1 0x40 MLOAD DUP1 SWAP2 SUB SWAP1 LOG2 POP POP POP JUMP JUMPDEST PUSH1 0x0 PUSH1 0x1 DUP9 PUSH2 0x140 ADD MLOAD LT ISZERO PUSH2 0x3A2E JUMPI PUSH1 0x40 MLOAD PUSH3 0x461BCD PUSH1 0xE5 SHL DUP2 MSTORE PUSH1 0x4 ADD PUSH2 0x8E7 SWAP1 PUSH2 0x4E32 JUMP JUMPDEST PUSH2 0x3A3A PUSH1 0x32 PUSH1 0x7 PUSH2 0x4DC6 JUMP JUMPDEST PUSH2 0x3A45 SWAP1 PUSH1 0x1 PUSH2 0x4E06 JUMP JUMPDEST DUP9 PUSH2 0x140 ADD MLOAD LT PUSH2 0x3A98 JUMPI PUSH1 0x40 MLOAD PUSH3 0x461BCD PUSH1 0xE5 SHL DUP2 MSTORE PUSH1 0x20 PUSH1 0x4 DUP3 ADD MSTORE PUSH1 0x1B PUSH1 0x24 DUP3 ADD MSTORE PUSH32 0x4D594E543A20436C61696D2070686173652068617320656E6465640000000000 PUSH1 0x44 DUP3 ADD MSTORE PUSH1 0x64 ADD PUSH2 0x8E7 JUMP JUMPDEST PUSH2 0x3AA1 DUP9 PUSH2 0x22FD JUMP JUMPDEST PUSH4 0x1AB362E DUP9 PUSH2 0x120 ADD MLOAD LT PUSH2 0x3AF9 JUMPI PUSH1 0x40 MLOAD PUSH3 0x461BCD PUSH1 0xE5 SHL DUP2 MSTORE PUSH1 0x20 PUSH1 0x4 DUP3 ADD MSTORE PUSH1 0x1F PUSH1 0x24 DUP3 ADD MSTORE PUSH32 0x4D594E543A2043484B3A205F636C61696D656442746341646472436F756E7400 PUSH1 0x44 DUP3 ADD MSTORE PUSH1 0x64 ADD PUSH2 0x8E7 JUMP JUMPDEST PUSH1 0x0 DUP1 PUSH1 0x0 PUSH2 0x3B08 DUP12 DUP12 PUSH2 0x407B JUMP JUMPDEST PUSH2 0x120 DUP15 ADD DUP1 MLOAD SWAP4 SWAP7 POP SWAP2 SWAP5 POP SWAP3 POP PUSH2 0x3B20 DUP3 PUSH2 0x4E19 JUMP JUMPDEST SWAP1 MSTORE POP PUSH2 0x3B33 DUP10 DUP10 DUP10 DUP14 DUP8 DUP8 DUP8 DUP13 PUSH2 0x419D JUMP JUMPDEST SWAP4 POP PUSH1 0x0 PUSH1 0x64 PUSH2 0x3B44 PUSH1 0x5A DUP8 PUSH2 0x4DC6 JUMP JUMPDEST PUSH2 0x3B4E SWAP2 SWAP1 PUSH2 0x4DA4 JUMP JUMPDEST SWAP1 POP PUSH2 0x3B5D DUP13 DUP3 DUP10 PUSH1 0x1 PUSH2 0x292A JUMP JUMPDEST PUSH2 0x3B70 DUP11 PUSH2 0x3B6B DUP4 DUP9 PUSH2 0x4DF3 JUMP JUMPDEST PUSH2 0x1DD0 JUMP JUMPDEST POP POP POP POP SWAP8 SWAP7 POP POP POP POP POP POP POP JUMP JUMPDEST PUSH1 0x60 PUSH2 0x3B8D PUSH1 0x14 PUSH1 0x2 PUSH2 0x4EE6 JUMP JUMPDEST PUSH1 0xFF AND PUSH8 0xFFFFFFFFFFFFFFFF DUP2 GT ISZERO PUSH2 0x3BA8 JUMPI PUSH2 0x3BA8 PUSH2 0x48DC JUMP JUMPDEST PUSH1 0x40 MLOAD SWAP1 DUP1 DUP3 MSTORE DUP1 PUSH1 0x1F ADD PUSH1 0x1F NOT AND PUSH1 0x20 ADD DUP3 ADD PUSH1 0x40 MSTORE DUP1 ISZERO PUSH2 0x3BD2 JUMPI PUSH1 0x20 DUP3 ADD DUP2 DUP1 CALLDATASIZE DUP4 CALLDATACOPY ADD SWAP1 POP JUMPDEST POP SWAP1 POP PUSH2 0x3BEF DUP2 PUSH1 0x1 PUSH1 0x1 PUSH1 0x60 SHL SUB NOT PUSH1 0x60 DUP7 SWAP1 SHL AND PUSH1 0x14 PUSH2 0x3C72 JUMP JUMPDEST DUP2 ISZERO PUSH2 0x888 JUMPI DUP1 MLOAD PUSH1 0x20 DUP3 ADD KECCAK256 PUSH1 0x0 DUP1 JUMPDEST PUSH1 0x14 DUP2 LT ISZERO PUSH2 0x3C69 JUMPI PUSH1 0x0 DUP4 DUP3 PUSH1 0x20 DUP2 LT PUSH2 0x3C1D JUMPI PUSH2 0x3C1D PUSH2 0x4DDD JUMP JUMPDEST BYTE SWAP1 POP PUSH2 0x3C3D DUP6 DUP5 PUSH2 0x3C2E DUP2 PUSH2 0x4E19 JUMP JUMPDEST SWAP6 POP PUSH1 0x4 DUP5 PUSH1 0xFF AND SWAP1 SHR PUSH2 0x428E JUMP JUMPDEST PUSH2 0x3C56 DUP6 DUP5 PUSH2 0x3C4B DUP2 PUSH2 0x4E19 JUMP JUMPDEST SWAP6 POP DUP4 PUSH1 0xF AND PUSH2 0x428E JUMP JUMPDEST POP DUP1 PUSH2 0x3C61 DUP2 PUSH2 0x4E19 JUMP JUMPDEST SWAP2 POP POP PUSH2 0x3C00 JUMP JUMPDEST POP POP POP SWAP3 SWAP2 POP POP JUMP JUMPDEST PUSH1 0x0 DUP1 JUMPDEST DUP3 DUP2 LT ISZERO PUSH2 0x25AE JUMPI PUSH1 0x0 DUP5 DUP3 PUSH1 0x20 DUP2 LT PUSH2 0x3C92 JUMPI PUSH2 0x3C92 PUSH2 0x4DDD JUMP JUMPDEST BYTE SWAP1 POP PUSH16 0x181899199A1A9B1B9C1CB0B131B232B3 PUSH1 0x81 SHL PUSH1 0x4 DUP3 SWAP1 SHR PUSH1 0xFF AND PUSH1 0x10 DUP2 LT PUSH2 0x3CC1 JUMPI PUSH2 0x3CC1 PUSH2 0x4DDD JUMP JUMPDEST BYTE PUSH1 0xF8 SHL DUP7 DUP5 PUSH2 0x3CD0 DUP2 PUSH2 0x4E19 JUMP JUMPDEST SWAP6 POP DUP2 MLOAD DUP2 LT PUSH2 0x3CE2 JUMPI PUSH2 0x3CE2 PUSH2 0x4DDD JUMP JUMPDEST PUSH1 0x20 ADD ADD SWAP1 PUSH1 0x1 PUSH1 0x1 PUSH1 0xF8 SHL SUB NOT AND SWAP1 DUP2 PUSH1 0x0 BYTE SWAP1 MSTORE8 POP PUSH16 0x181899199A1A9B1B9C1CB0B131B232B3 PUSH1 0x81 SHL PUSH1 0xF DUP3 AND PUSH1 0x10 DUP2 LT PUSH2 0x3D21 JUMPI PUSH2 0x3D21 PUSH2 0x4DDD JUMP JUMPDEST BYTE PUSH1 0xF8 SHL DUP7 DUP5 PUSH2 0x3D30 DUP2 PUSH2 0x4E19 JUMP JUMPDEST SWAP6 POP DUP2 MLOAD DUP2 LT PUSH2 0x3D42 JUMPI PUSH2 0x3D42 PUSH2 0x4DDD JUMP JUMPDEST PUSH1 0x20 ADD ADD SWAP1 PUSH1 0x1 PUSH1 0x1 PUSH1 0xF8 SHL SUB NOT AND SWAP1 DUP2 PUSH1 0x0 BYTE SWAP1 MSTORE8 POP POP DUP1 DUP1 PUSH2 0x3D65 SWAP1 PUSH2 0x4E19 JUMP JUMPDEST SWAP2 POP POP PUSH2 0x3C76 JUMP JUMPDEST PUSH1 0x0 DUP2 DUP2 JUMPDEST DUP5 MLOAD DUP2 LT ISZERO PUSH2 0x3DB2 JUMPI PUSH2 0x3D9E DUP3 DUP7 DUP4 DUP2 MLOAD DUP2 LT PUSH2 0x3D91 JUMPI PUSH2 0x3D91 PUSH2 0x4DDD JUMP JUMPDEST PUSH1 0x20 MUL PUSH1 0x20 ADD ADD MLOAD PUSH2 0x4306 JUMP JUMPDEST SWAP2 POP DUP1 PUSH2 0x3DAA DUP2 PUSH2 0x4E19 JUMP JUMPDEST SWAP2 POP POP PUSH2 0x3D72 JUMP JUMPDEST POP SWAP4 SWAP3 POP POP POP JUMP JUMPDEST PUSH1 0x0 PUSH2 0x3DC4 PUSH2 0x4558 JUMP JUMPDEST PUSH2 0x3DCE DUP6 DUP3 PUSH2 0x3374 JUMP JUMPDEST PUSH2 0x3DF2 PUSH1 0x40 MLOAD DUP1 PUSH1 0x60 ADD PUSH1 0x40 MSTORE DUP1 PUSH1 0x0 DUP2 MSTORE PUSH1 0x20 ADD PUSH1 0x0 DUP2 MSTORE PUSH1 0x20 ADD PUSH1 0x0 DUP2 MSTORE POP SWAP1 JUMP JUMPDEST DUP6 MLOAD PUSH1 0x2 SLOAD PUSH2 0x3E01 SWAP2 SWAP1 PUSH2 0x4E06 JUMP JUMPDEST DUP2 MSTORE PUSH2 0x3E0E DUP3 DUP3 DUP7 PUSH2 0x3F43 JUMP JUMPDEST DUP5 DUP3 PUSH1 0xA0 ADD DUP2 DUP2 MLOAD PUSH2 0x3E20 SWAP2 SWAP1 PUSH2 0x4E06 JUMP JUMPDEST SWAP1 MSTORE POP PUSH1 0xA0 DUP3 ADD MLOAD PUSH1 0x40 DUP3 ADD MLOAD PUSH2 0x3E38 SWAP1 DUP8 SWAP1 PUSH2 0x4DC6 JUMP JUMPDEST PUSH2 0x3E42 SWAP2 SWAP1 PUSH2 0x4DA4 JUMP JUMPDEST SWAP3 POP PUSH2 0x3E50 PUSH1 0x32 PUSH1 0x7 PUSH2 0x4DC6 JUMP JUMPDEST PUSH2 0x3E5B SWAP1 PUSH1 0x1 PUSH2 0x4E06 JUMP JUMPDEST PUSH2 0x3E66 SWAP1 PUSH1 0x1 PUSH2 0x4E06 JUMP JUMPDEST DUP5 SUB PUSH2 0x3EE4 JUMPI PUSH1 0xA0 DUP3 ADD MLOAD PUSH1 0x0 SWAP1 DUP7 PUSH2 0x2710 PUSH4 0x5F5E100 PUSH2 0x3E89 PUSH1 0x8 PUSH1 0xA PUSH2 0x4D98 JUMP JUMPDEST PUSH2 0x3E93 SWAP2 SWAP1 PUSH2 0x4DA4 JUMP JUMPDEST PUSH2 0x3E9D SWAP2 SWAP1 PUSH2 0x4DC6 JUMP JUMPDEST DUP6 PUSH1 0xE0 ADD MLOAD PUSH2 0x3EAC SWAP2 SWAP1 PUSH2 0x4DC6 JUMP JUMPDEST PUSH2 0x3EB6 SWAP2 SWAP1 PUSH2 0x4DC6 JUMP JUMPDEST PUSH2 0x3EC0 SWAP2 SWAP1 PUSH2 0x4DA4 JUMP JUMPDEST SWAP1 POP PUSH2 0x3ECC DUP4 DUP3 PUSH2 0x3EED JUMP JUMPDEST PUSH2 0x3ED6 SWAP1 DUP3 PUSH2 0x4E06 JUMP JUMPDEST PUSH2 0x3EE0 SWAP1 DUP6 PUSH2 0x4E06 JUMP JUMPDEST SWAP4 POP POP JUMPDEST POP POP SWAP4 SWAP3 POP POP POP JUMP JUMPDEST PUSH1 0x0 DUP1 PUSH4 0x1AB362E DUP5 PUSH2 0x120 ADD MLOAD DUP5 PUSH2 0x3F06 SWAP2 SWAP1 PUSH2 0x4DC6 JUMP JUMPDEST PUSH2 0x3F10 SWAP2 SWAP1 PUSH2 0x4DA4 JUMP JUMPDEST SWAP1 POP PUSH1 0x0 PUSH7 0x33BB85FC52D99 DUP6 PUSH2 0x100 ADD MLOAD DUP6 PUSH2 0x3F2D SWAP2 SWAP1 PUSH2 0x4DC6 JUMP JUMPDEST PUSH2 0x3F37 SWAP2 SWAP1 PUSH2 0x4DA4 JUMP JUMPDEST SWAP1 POP PUSH2 0x1BA1 DUP2 DUP4 PUSH2 0x4E06 JUMP JUMPDEST DUP2 MLOAD PUSH4 0x5FCBAE3 SWAP1 PUSH2 0x3F57 SWAP1 PUSH2 0x2710 PUSH2 0x4DC6 JUMP JUMPDEST PUSH2 0x3F61 SWAP2 SWAP1 PUSH2 0x4DA4 JUMP JUMPDEST PUSH1 0x40 DUP4 ADD MSTORE PUSH2 0x3F72 PUSH1 0x32 PUSH1 0x7 PUSH2 0x4DC6 JUMP JUMPDEST PUSH2 0x3F7D SWAP1 PUSH1 0x1 PUSH2 0x4E06 JUMP JUMPDEST DUP2 LT ISZERO PUSH2 0x404C JUMPI PUSH1 0x0 PUSH2 0x3F92 PUSH1 0x32 PUSH1 0x7 PUSH2 0x4DC6 JUMP JUMPDEST PUSH2 0x2710 PUSH4 0x5F5E100 PUSH2 0x3FA6 PUSH1 0x8 PUSH1 0xA PUSH2 0x4D98 JUMP JUMPDEST PUSH2 0x3FB0 SWAP2 SWAP1 PUSH2 0x4DA4 JUMP JUMPDEST PUSH2 0x3FBA SWAP2 SWAP1 PUSH2 0x4DC6 JUMP JUMPDEST DUP6 PUSH1 0xE0 ADD MLOAD PUSH2 0x3FC9 SWAP2 SWAP1 PUSH2 0x4DC6 JUMP JUMPDEST PUSH2 0x3FD3 SWAP2 SWAP1 PUSH2 0x4DA4 JUMP JUMPDEST SWAP1 POP PUSH1 0x0 PUSH2 0x3FF0 DUP6 DUP4 DUP7 PUSH1 0x40 ADD MLOAD PUSH2 0x3FEB SWAP2 SWAP1 PUSH2 0x4E06 JUMP JUMPDEST PUSH2 0x3EED JUMP JUMPDEST PUSH2 0x3FFA SWAP1 DUP4 PUSH2 0x4E06 JUMP JUMPDEST SWAP1 POP DUP1 DUP5 PUSH1 0x20 ADD DUP2 DUP2 MLOAD PUSH2 0x400E SWAP2 SWAP1 PUSH2 0x4E06 JUMP JUMPDEST SWAP1 MSTORE POP DUP4 MLOAD DUP2 SWAP1 DUP6 SWAP1 PUSH2 0x4022 SWAP1 DUP4 SWAP1 PUSH2 0x4E06 JUMP JUMPDEST SWAP1 MSTORE POP PUSH1 0x40 DUP5 ADD MLOAD PUSH2 0x4035 SWAP1 DUP7 SWAP1 PUSH2 0x3EED JUMP JUMPDEST DUP5 PUSH1 0x40 ADD DUP2 DUP2 MLOAD PUSH2 0x4046 SWAP2 SWAP1 PUSH2 0x4E06 JUMP JUMPDEST SWAP1 MSTORE POP POP POP JUMPDEST PUSH1 0x60 DUP4 ADD MLOAD ISZERO PUSH2 0x8FA JUMPI DUP3 PUSH1 0x60 ADD MLOAD DUP3 PUSH1 0x40 ADD DUP2 DUP2 MLOAD PUSH2 0x406C SWAP2 SWAP1 PUSH2 0x4E06 JUMP JUMPDEST SWAP1 MSTORE POP PUSH1 0x0 PUSH1 0x60 DUP5 ADD MSTORE POP POP POP JUMP JUMPDEST PUSH1 0x0 DUP1 PUSH1 0x0 PUSH2 0x4089 DUP5 PUSH2 0x4335 JUMP JUMPDEST SWAP3 POP PUSH7 0x33BB85FC52D99 DUP4 DUP7 PUSH2 0x100 ADD MLOAD PUSH2 0x40A4 SWAP2 SWAP1 PUSH2 0x4E06 JUMP JUMPDEST GT ISZERO PUSH2 0x40F2 JUMPI PUSH1 0x40 MLOAD PUSH3 0x461BCD PUSH1 0xE5 SHL DUP2 MSTORE PUSH1 0x20 PUSH1 0x4 DUP3 ADD DUP2 SWAP1 MSTORE PUSH1 0x24 DUP3 ADD MSTORE PUSH32 0x4D594E543A2043484B3A205F636C61696D65645361746F73686973546F74616C PUSH1 0x44 DUP3 ADD MSTORE PUSH1 0x64 ADD PUSH2 0x8E7 JUMP JUMPDEST DUP3 DUP6 PUSH2 0x100 ADD DUP2 DUP2 MLOAD PUSH2 0x4105 SWAP2 SWAP1 PUSH2 0x4E06 JUMP JUMPDEST SWAP1 MSTORE POP PUSH2 0x140 DUP6 ADD MLOAD PUSH1 0x0 SWAP1 PUSH2 0x411D PUSH1 0x32 PUSH1 0x7 PUSH2 0x4DC6 JUMP JUMPDEST PUSH2 0x4128 SWAP1 PUSH1 0x1 PUSH2 0x4E06 JUMP JUMPDEST PUSH2 0x4132 SWAP2 SWAP1 PUSH2 0x4DF3 JUMP JUMPDEST SWAP1 POP PUSH2 0x413E DUP5 DUP3 PUSH2 0x438A JUMP JUMPDEST SWAP4 POP DUP4 DUP7 PUSH1 0xE0 ADD DUP2 DUP2 MLOAD PUSH2 0x4152 SWAP2 SWAP1 PUSH2 0x4DF3 JUMP JUMPDEST SWAP1 MSTORE POP PUSH2 0x2710 PUSH4 0x5F5E100 PUSH2 0x4169 PUSH1 0x8 PUSH1 0xA PUSH2 0x4D98 JUMP JUMPDEST PUSH2 0x4173 SWAP2 SWAP1 PUSH2 0x4DA4 JUMP JUMPDEST PUSH2 0x417D SWAP2 SWAP1 PUSH2 0x4DC6 JUMP JUMPDEST PUSH2 0x4187 SWAP1 DUP6 PUSH2 0x4DC6 JUMP JUMPDEST SWAP3 POP PUSH2 0x4193 DUP4 DUP3 PUSH2 0x43AC JUMP JUMPDEST SWAP2 POP POP SWAP3 POP SWAP3 POP SWAP3 JUMP JUMPDEST PUSH1 0x0 PUSH2 0x41A9 DUP4 DUP6 PUSH2 0x4E06 JUMP JUMPDEST SWAP1 POP DUP3 PUSH1 0x1 PUSH1 0x1 PUSH1 0xA0 SHL SUB DUP4 AND PUSH2 0x41CE JUMPI PUSH2 0x41C9 DUP11 DUP11 DUP11 DUP11 DUP11 DUP8 DUP10 PUSH2 0x43E6 JUMP JUMPDEST PUSH2 0x4263 JUMP JUMPDEST PUSH1 0x0 PUSH2 0x41DB PUSH1 0xA DUP5 PUSH2 0x4DA4 JUMP JUMPDEST SWAP1 POP PUSH2 0x41E7 DUP2 DUP5 PUSH2 0x4E06 JUMP JUMPDEST SWAP3 POP PUSH1 0x0 PUSH2 0x41F6 PUSH1 0x5 DUP6 PUSH2 0x4DA4 JUMP JUMPDEST SWAP1 POP PUSH2 0x4202 DUP2 DUP4 PUSH2 0x4E06 JUMP JUMPDEST PUSH2 0x420C SWAP1 DUP5 PUSH2 0x4E06 JUMP JUMPDEST SWAP3 POP DUP12 PUSH1 0x1 PUSH1 0x1 PUSH1 0xA0 SHL SUB AND DUP6 PUSH1 0x1 PUSH1 0x1 PUSH1 0xA0 SHL SUB AND SUB PUSH2 0x4247 JUMPI PUSH2 0x4231 DUP2 DUP6 PUSH2 0x4E06 JUMP JUMPDEST SWAP4 POP PUSH2 0x4242 DUP13 DUP13 DUP13 DUP13 DUP13 DUP10 DUP12 PUSH2 0x43E6 JUMP JUMPDEST PUSH2 0x4260 JUMP JUMPDEST PUSH2 0x4256 DUP13 DUP13 DUP13 DUP13 DUP13 DUP10 DUP12 PUSH2 0x43E6 JUMP JUMPDEST PUSH2 0x4260 DUP6 DUP3 PUSH2 0x1DD0 JUMP JUMPDEST POP POP JUMPDEST PUSH2 0x4281 PUSH20 0x9A6A414D6F3497C05E3B1DE90520765FA1E07C03 DUP3 PUSH2 0x1DD0 JUMP JUMPDEST POP SWAP9 SWAP8 POP POP POP POP POP POP POP POP JUMP JUMPDEST PUSH1 0x0 DUP4 DUP4 DUP2 MLOAD DUP2 LT PUSH2 0x42A2 JUMPI PUSH2 0x42A2 PUSH2 0x4DDD JUMP JUMPDEST ADD PUSH1 0x20 ADD MLOAD PUSH1 0x1 PUSH1 0x1 PUSH1 0xF8 SHL SUB NOT AND SWAP1 POP PUSH1 0x61 PUSH1 0xF8 SHL DUP2 LT DUP1 ISZERO SWAP1 PUSH2 0x42CB JUMPI POP PUSH1 0x8 DUP3 PUSH1 0xFF AND LT ISZERO JUMPDEST ISZERO PUSH2 0xF95 JUMPI DUP1 PUSH1 0x20 PUSH1 0xF8 SHL XOR DUP5 DUP5 DUP2 MLOAD DUP2 LT PUSH2 0x42E9 JUMPI PUSH2 0x42E9 PUSH2 0x4DDD JUMP JUMPDEST PUSH1 0x20 ADD ADD SWAP1 PUSH1 0x1 PUSH1 0x1 PUSH1 0xF8 SHL SUB NOT AND SWAP1 DUP2 PUSH1 0x0 BYTE SWAP1 MSTORE8 POP POP POP POP POP JUMP JUMPDEST PUSH1 0x0 DUP2 DUP4 LT PUSH2 0x4322 JUMPI PUSH1 0x0 DUP3 DUP2 MSTORE PUSH1 0x20 DUP5 SWAP1 MSTORE PUSH1 0x40 SWAP1 KECCAK256 PUSH2 0x949 JUMP JUMPDEST PUSH1 0x0 DUP4 DUP2 MSTORE PUSH1 0x20 DUP4 SWAP1 MSTORE PUSH1 0x40 SWAP1 KECCAK256 PUSH2 0x949 JUMP JUMPDEST PUSH1 0x0 PUSH5 0x174876E800 DUP3 LT ISZERO PUSH2 0x4348 JUMPI POP SWAP1 JUMP JUMPDEST PUSH5 0xE8D4A51000 DUP3 LT PUSH2 0x435F JUMPI PUSH2 0x888 PUSH1 0x4 DUP4 PUSH2 0x4DA4 JUMP JUMPDEST PUSH6 0x34630B8A000 PUSH2 0x4376 DUP4 PUSH6 0x1BA60D33800 PUSH2 0x4DF3 JUMP JUMPDEST PUSH2 0x4380 SWAP1 DUP5 PUSH2 0x4DC6 JUMP JUMPDEST PUSH2 0x888 SWAP2 SWAP1 PUSH2 0x4DA4 JUMP JUMPDEST PUSH1 0x0 PUSH2 0x4398 PUSH1 0x32 PUSH1 0x7 PUSH2 0x4DC6 JUMP JUMPDEST PUSH2 0x43A2 DUP4 DUP6 PUSH2 0x4DC6 JUMP JUMPDEST PUSH2 0x949 SWAP2 SWAP1 PUSH2 0x4DA4 JUMP JUMPDEST PUSH1 0x0 PUSH1 0x1 PUSH2 0x43BC PUSH1 0x32 PUSH1 0x7 PUSH2 0x4DC6 JUMP JUMPDEST PUSH2 0x43C6 SWAP2 SWAP1 PUSH2 0x4DF3 JUMP JUMPDEST PUSH2 0x43D1 SWAP1 PUSH1 0x5 PUSH2 0x4DC6 JUMP JUMPDEST PUSH2 0x43DC PUSH1 0x1 DUP5 PUSH2 0x4DF3 JUMP JUMPDEST PUSH2 0x43A2 SWAP1 DUP6 PUSH2 0x4DC6 JUMP JUMPDEST PUSH1 0x40 DUP1 MLOAD PUSH5 0xFFFFFFFFFF TIMESTAMP AND PUSH12 0xFFFFFFFFFFFFFF0000000000 PUSH1 0x28 DUP9 SWAP1 SHL AND OR PUSH7 0xFFFFFFFFFFFFFF PUSH1 0x60 SHL PUSH1 0x60 DUP8 SWAP1 SHL AND OR PUSH1 0xFF PUSH1 0x98 SHL PUSH1 0x98 DUP10 SWAP1 SHL AND OR PUSH9 0xFFFFFFFFFFFFFFFFFF PUSH1 0xA0 SHL PUSH1 0xA0 DUP7 SWAP1 SHL AND OR DUP2 MSTORE CALLER PUSH1 0x20 DUP3 ADD MSTORE PUSH1 0x1 PUSH1 0x1 PUSH1 0xA0 SHL SUB DUP1 DUP5 AND SWAP3 SWAP1 DUP11 AND SWAP2 PUSH1 0x1 PUSH1 0x1 PUSH1 0x60 SHL SUB NOT DUP11 AND SWAP2 PUSH32 0x41E3C7DC6EEBC97A48A437FF2AFDC629613F12C48BA37A2C94563F80ACBA9725 SWAP2 ADD PUSH1 0x40 MLOAD DUP1 SWAP2 SUB SWAP1 LOG4 PUSH1 0x1 PUSH1 0x1 PUSH1 0xA0 SHL SUB DUP8 AND CALLER EQ PUSH2 0x454F JUMPI CALLER PUSH1 0x1 PUSH1 0x1 PUSH1 0xA0 SHL SUB AND PUSH32 0x3A84B2D9DAC24683628D63034C6949797F15FAB735E16232518EE4E753FD49B7 PUSH1 0xC8 DUP7 PUSH7 0xFFFFFFFFFFFFFF AND SWAP1 SHL PUSH1 0x28 DUP10 PUSH1 0x60 SHR PUSH1 0x1 PUSH1 0x1 PUSH1 0xA0 SHL SUB AND SWAP1 SHL TIMESTAMP PUSH5 0xFFFFFFFFFF AND OR OR PUSH1 0xD8 DUP9 PUSH1 0xFF AND SWAP1 SHL PUSH1 0x38 DUP12 PUSH1 0x1 PUSH1 0x1 PUSH1 0xA0 SHL SUB AND SWAP1 SHL DUP8 PUSH7 0xFFFFFFFFFFFFFF AND OR OR PUSH1 0x48 DUP6 PUSH1 0x1 PUSH1 0x1 PUSH1 0xA0 SHL SUB AND SWAP1 SHL DUP7 PUSH1 0x1 PUSH1 0x1 PUSH1 0x48 SHL SUB AND OR PUSH1 0x40 MLOAD PUSH2 0x4546 SWAP4 SWAP3 SWAP2 SWAP1 SWAP3 DUP4 MSTORE PUSH1 0x20 DUP4 ADD SWAP2 SWAP1 SWAP2 MSTORE PUSH1 0x40 DUP3 ADD MSTORE PUSH1 0x60 ADD SWAP1 JUMP JUMPDEST PUSH1 0x40 MLOAD DUP1 SWAP2 SUB SWAP1 LOG2 JUMPDEST POP POP POP POP POP POP POP JUMP JUMPDEST PUSH1 0x40 MLOAD DUP1 PUSH2 0x160 ADD PUSH1 0x40 MSTORE DUP1 PUSH1 0x0 DUP2 MSTORE PUSH1 0x20 ADD PUSH1 0x0 DUP2 MSTORE PUSH1 0x20 ADD PUSH1 0x0 DUP2 MSTORE PUSH1 0x20 ADD PUSH1 0x0 DUP2 MSTORE PUSH1 0x20 ADD PUSH1 0x0 DUP2 MSTORE PUSH1 0x20 ADD PUSH1 0x0 DUP2 MSTORE PUSH1 0x20 ADD PUSH1 0x0 PUSH5 0xFFFFFFFFFF AND DUP2 MSTORE PUSH1 0x20 ADD PUSH1 0x0 DUP2 MSTORE PUSH1 0x20 ADD PUSH1 0x0 DUP2 MSTORE PUSH1 0x20 ADD PUSH1 0x0 DUP2 MSTORE PUSH1 0x20 ADD PUSH1 0x0 DUP2 MSTORE POP SWAP1 JUMP JUMPDEST PUSH1 0x40 MLOAD DUP1 PUSH1 0xE0 ADD PUSH1 0x40 MSTORE DUP1 PUSH1 0x0 PUSH5 0xFFFFFFFFFF AND DUP2 MSTORE PUSH1 0x20 ADD PUSH1 0x0 DUP2 MSTORE PUSH1 0x20 ADD PUSH1 0x0 DUP2 MSTORE PUSH1 0x20 ADD PUSH1 0x0 DUP2 MSTORE PUSH1 0x20 ADD PUSH1 0x0 DUP2 MSTORE PUSH1 0x20 ADD PUSH1 0x0 DUP2 MSTORE PUSH1 0x20 ADD PUSH1 0x0 ISZERO ISZERO DUP2 MSTORE POP SWAP1 JUMP JUMPDEST PUSH1 0x40 MLOAD DUP1 PUSH2 0x1A0 ADD PUSH1 0x40 MSTORE DUP1 PUSH1 0xD SWAP1 PUSH1 0x20 DUP3 MUL DUP1 CALLDATASIZE DUP4 CALLDATACOPY POP SWAP2 SWAP3 SWAP2 POP POP JUMP JUMPDEST PUSH1 0x0 JUMPDEST DUP4 DUP2 LT ISZERO PUSH2 0x4639 JUMPI DUP2 DUP2 ADD MLOAD DUP4 DUP3 ADD MSTORE PUSH1 0x20 ADD PUSH2 0x4621 JUMP JUMPDEST POP POP PUSH1 0x0 SWAP2 ADD MSTORE JUMP JUMPDEST PUSH1 0x20 DUP2 MSTORE PUSH1 0x0 DUP3 MLOAD DUP1 PUSH1 0x20 DUP5 ADD MSTORE PUSH2 0x4661 DUP2 PUSH1 0x40 DUP6 ADD PUSH1 0x20 DUP8 ADD PUSH2 0x461E JUMP JUMPDEST PUSH1 0x1F ADD PUSH1 0x1F NOT AND SWAP2 SWAP1 SWAP2 ADD PUSH1 0x40 ADD SWAP3 SWAP2 POP POP JUMP JUMPDEST DUP1 CALLDATALOAD PUSH1 0x1 PUSH1 0x1 PUSH1 0xA0 SHL SUB DUP2 AND DUP2 EQ PUSH2 0x468C JUMPI PUSH1 0x0 DUP1 REVERT JUMPDEST SWAP2 SWAP1 POP JUMP JUMPDEST PUSH1 0x0 DUP1 PUSH1 0x40 DUP4 DUP6 SUB SLT ISZERO PUSH2 0x46A4 JUMPI PUSH1 0x0 DUP1 REVERT JUMPDEST PUSH2 0x46AD DUP4 PUSH2 0x4675 JUMP JUMPDEST SWAP5 PUSH1 0x20 SWAP4 SWAP1 SWAP4 ADD CALLDATALOAD SWAP4 POP POP POP JUMP JUMPDEST PUSH1 0x0 DUP1 PUSH1 0x0 PUSH1 0x60 DUP5 DUP7 SUB SLT ISZERO PUSH2 0x46D0 JUMPI PUSH1 0x0 DUP1 REVERT JUMPDEST PUSH2 0x46D9 DUP5 PUSH2 0x4675 JUMP JUMPDEST SWAP3 POP PUSH1 0x20 DUP5 ADD CALLDATALOAD SWAP2 POP PUSH2 0x46EE PUSH1 0x40 DUP6 ADD PUSH2 0x4675 JUMP JUMPDEST SWAP1 POP SWAP3 POP SWAP3 POP SWAP3 JUMP JUMPDEST PUSH1 0x0 DUP1 PUSH1 0x0 PUSH1 0x60 DUP5 DUP7 SUB SLT ISZERO PUSH2 0x470C JUMPI PUSH1 0x0 DUP1 REVERT JUMPDEST PUSH2 0x4715 DUP5 PUSH2 0x4675 JUMP JUMPDEST SWAP3 POP PUSH2 0x4723 PUSH1 0x20 DUP6 ADD PUSH2 0x4675 JUMP JUMPDEST SWAP2 POP PUSH1 0x40 DUP5 ADD CALLDATALOAD SWAP1 POP SWAP3 POP SWAP3 POP SWAP3 JUMP JUMPDEST PUSH1 0x0 DUP1 DUP4 PUSH1 0x1F DUP5 ADD SLT PUSH2 0x4745 JUMPI PUSH1 0x0 DUP1 REVERT JUMPDEST POP DUP2 CALLDATALOAD PUSH8 0xFFFFFFFFFFFFFFFF DUP2 GT ISZERO PUSH2 0x475D JUMPI PUSH1 0x0 DUP1 REVERT JUMPDEST PUSH1 0x20 DUP4 ADD SWAP2 POP DUP4 PUSH1 0x20 DUP3 PUSH1 0x5 SHL DUP6 ADD ADD GT ISZERO PUSH2 0x4778 JUMPI PUSH1 0x0 DUP1 REVERT JUMPDEST SWAP3 POP SWAP3 SWAP1 POP JUMP JUMPDEST PUSH1 0x0 DUP1 PUSH1 0x0 PUSH1 0x40 DUP5 DUP7 SUB SLT ISZERO PUSH2 0x4794 JUMPI PUSH1 0x0 DUP1 REVERT JUMPDEST DUP4 CALLDATALOAD SWAP3 POP PUSH1 0x20 DUP5 ADD CALLDATALOAD PUSH8 0xFFFFFFFFFFFFFFFF DUP2 GT ISZERO PUSH2 0x47B2 JUMPI PUSH1 0x0 DUP1 REVERT JUMPDEST PUSH2 0x47BE DUP7 DUP3 DUP8 ADD PUSH2 0x4733 JUMP JUMPDEST SWAP5 SWAP8 SWAP1 SWAP7 POP SWAP4 SWAP5 POP POP POP POP JUMP JUMPDEST DUP1 CALLDATALOAD PUSH1 0xFF DUP2 AND DUP2 EQ PUSH2 0x468C JUMPI PUSH1 0x0 DUP1 REVERT JUMPDEST PUSH1 0x0 DUP1 PUSH1 0x0 PUSH1 0x60 DUP5 DUP7 SUB SLT ISZERO PUSH2 0x47F1 JUMPI PUSH1 0x0 DUP1 REVERT JUMPDEST DUP4 CALLDATALOAD SWAP3 POP PUSH1 0x20 DUP5 ADD CALLDATALOAD SWAP2 POP PUSH2 0x46EE PUSH1 0x40 DUP6 ADD PUSH2 0x47CB JUMP JUMPDEST PUSH1 0x0 DUP1 PUSH1 0x40 DUP4 DUP6 SUB SLT ISZERO PUSH2 0x481B JUMPI PUSH1 0x0 DUP1 REVERT JUMPDEST POP POP DUP1 CALLDATALOAD SWAP3 PUSH1 0x20 SWAP1 SWAP2 ADD CALLDATALOAD SWAP2 POP JUMP JUMPDEST PUSH1 0x0 PUSH1 0x20 DUP3 DUP5 SUB SLT ISZERO PUSH2 0x483C JUMPI PUSH1 0x0 DUP1 REVERT JUMPDEST PUSH2 0x949 DUP3 PUSH2 0x4675 JUMP JUMPDEST DUP1 CALLDATALOAD PUSH5 0xFFFFFFFFFF DUP2 AND DUP2 EQ PUSH2 0x468C JUMPI PUSH1 0x0 DUP1 REVERT JUMPDEST PUSH1 0x0 DUP1 PUSH1 0x40 DUP4 DUP6 SUB SLT ISZERO PUSH2 0x486D JUMPI PUSH1 0x0 DUP1 REVERT JUMPDEST DUP3 CALLDATALOAD SWAP2 POP PUSH2 0x487D PUSH1 0x20 DUP5 ADD PUSH2 0x4845 JUMP JUMPDEST SWAP1 POP SWAP3 POP SWAP3 SWAP1 POP JUMP JUMPDEST PUSH1 0x0 DUP1 PUSH1 0x40 DUP4 DUP6 SUB SLT ISZERO PUSH2 0x4899 JUMPI PUSH1 0x0 DUP1 REVERT JUMPDEST DUP3 CALLDATALOAD SWAP2 POP PUSH2 0x487D PUSH1 0x20 DUP5 ADD PUSH2 0x4675 JUMP JUMPDEST PUSH1 0x0 DUP1 PUSH1 0x0 PUSH1 0x60 DUP5 DUP7 SUB SLT ISZERO PUSH2 0x48BE JUMPI PUSH1 0x0 DUP1 REVERT JUMPDEST PUSH2 0x48C7 DUP5 PUSH2 0x4675 JUMP JUMPDEST SWAP3 POP PUSH1 0x20 DUP5 ADD CALLDATALOAD SWAP2 POP PUSH2 0x46EE PUSH1 0x40 DUP6 ADD PUSH2 0x4845 JUMP JUMPDEST PUSH4 0x4E487B71 PUSH1 0xE0 SHL PUSH1 0x0 MSTORE PUSH1 0x41 PUSH1 0x4 MSTORE PUSH1 0x24 PUSH1 0x0 REVERT JUMPDEST PUSH1 0x40 MLOAD PUSH2 0x160 DUP2 ADD PUSH8 0xFFFFFFFFFFFFFFFF DUP2 GT DUP3 DUP3 LT OR ISZERO PUSH2 0x4924 JUMPI PUSH4 0x4E487B71 PUSH1 0xE0 SHL PUSH1 0x0 MSTORE PUSH1 0x41 PUSH1 0x4 MSTORE PUSH1 0x24 PUSH1 0x0 REVERT JUMPDEST PUSH1 0x40 MSTORE SWAP1 JUMP JUMPDEST PUSH1 0x0 PUSH2 0x160 DUP3 DUP5 SUB SLT ISZERO PUSH2 0x493D JUMPI PUSH1 0x0 DUP1 REVERT JUMPDEST PUSH2 0x4945 PUSH2 0x48F2 JUMP JUMPDEST SWAP1 POP DUP2 CALLDATALOAD DUP2 MSTORE PUSH1 0x20 DUP3 ADD CALLDATALOAD PUSH1 0x20 DUP3 ADD MSTORE PUSH1 0x40 DUP3 ADD CALLDATALOAD PUSH1 0x40 DUP3 ADD MSTORE PUSH1 0x60 DUP3 ADD CALLDATALOAD PUSH1 0x60 DUP3 ADD MSTORE PUSH1 0x80 DUP3 ADD CALLDATALOAD PUSH1 0x80 DUP3 ADD MSTORE PUSH1 0xA0 DUP3 ADD CALLDATALOAD PUSH1 0xA0 DUP3 ADD MSTORE PUSH2 0x4989 PUSH1 0xC0 DUP4 ADD PUSH2 0x4845 JUMP JUMPDEST PUSH1 0xC0 DUP3 ADD MSTORE PUSH1 0xE0 DUP3 ADD CALLDATALOAD PUSH1 0xE0 DUP3 ADD MSTORE PUSH2 0x100 DUP1 DUP4 ADD CALLDATALOAD DUP2 DUP4 ADD MSTORE POP PUSH2 0x120 DUP1 DUP4 ADD CALLDATALOAD DUP2 DUP4 ADD MSTORE POP PUSH2 0x140 DUP1 DUP4 ADD CALLDATALOAD DUP2 DUP4 ADD MSTORE POP SWAP3 SWAP2 POP POP JUMP JUMPDEST PUSH1 0x0 DUP1 PUSH2 0x2C0 DUP4 DUP6 SUB SLT ISZERO PUSH2 0x49D6 JUMPI PUSH1 0x0 DUP1 REVERT JUMPDEST PUSH2 0x49E0 DUP5 DUP5 PUSH2 0x492A JUMP JUMPDEST SWAP2 POP PUSH2 0x487D DUP5 PUSH2 0x160 DUP6 ADD PUSH2 0x492A JUMP JUMPDEST PUSH1 0x20 DUP1 DUP3 MSTORE DUP3 MLOAD DUP3 DUP3 ADD DUP2 SWAP1 MSTORE PUSH1 0x0 SWAP2 SWAP1 DUP5 DUP3 ADD SWAP1 PUSH1 0x40 DUP6 ADD SWAP1 DUP5 JUMPDEST DUP2 DUP2 LT ISZERO PUSH2 0x4A28 JUMPI DUP4 MLOAD DUP4 MSTORE SWAP3 DUP5 ADD SWAP3 SWAP2 DUP5 ADD SWAP2 PUSH1 0x1 ADD PUSH2 0x4A0C JUMP JUMPDEST POP SWAP1 SWAP7 SWAP6 POP POP POP POP POP POP JUMP JUMPDEST DUP1 CALLDATALOAD PUSH1 0x1 PUSH1 0x1 PUSH1 0x60 SHL SUB NOT DUP2 AND DUP2 EQ PUSH2 0x468C JUMPI PUSH1 0x0 DUP1 REVERT JUMPDEST PUSH1 0x0 PUSH1 0x20 DUP3 DUP5 SUB SLT ISZERO PUSH2 0x4A5E JUMPI PUSH1 0x0 DUP1 REVERT JUMPDEST PUSH2 0x949 DUP3 PUSH2 0x4A34 JUMP JUMPDEST PUSH1 0x0 PUSH1 0x20 DUP3 DUP5 SUB SLT ISZERO PUSH2 0x4A79 JUMPI PUSH1 0x0 DUP1 REVERT JUMPDEST POP CALLDATALOAD SWAP2 SWAP1 POP JUMP JUMPDEST PUSH1 0x0 DUP1 PUSH1 0x0 DUP1 PUSH1 0x60 DUP6 DUP8 SUB SLT ISZERO PUSH2 0x4A96 JUMPI PUSH1 0x0 DUP1 REVERT JUMPDEST PUSH2 0x4A9F DUP6 PUSH2 0x4A34 JUMP JUMPDEST SWAP4 POP PUSH1 0x20 DUP6 ADD CALLDATALOAD SWAP3 POP PUSH1 0x40 DUP6 ADD CALLDATALOAD PUSH8 0xFFFFFFFFFFFFFFFF DUP2 GT ISZERO PUSH2 0x4AC2 JUMPI PUSH1 0x0 DUP1 REVERT JUMPDEST PUSH2 0x4ACE DUP8 DUP3 DUP9 ADD PUSH2 0x4733 JUMP JUMPDEST SWAP6 SWAP9 SWAP5 SWAP8 POP SWAP6 POP POP POP POP JUMP JUMPDEST PUSH1 0x0 DUP1 PUSH1 0x0 DUP1 PUSH1 0x0 DUP1 PUSH1 0x0 DUP1 PUSH1 0x0 DUP1 PUSH1 0x0 DUP1 PUSH2 0x160 DUP14 DUP16 SUB SLT ISZERO PUSH2 0x4AFD JUMPI PUSH1 0x0 DUP1 REVERT JUMPDEST DUP13 CALLDATALOAD SWAP12 POP PUSH8 0xFFFFFFFFFFFFFFFF PUSH1 0x20 DUP15 ADD CALLDATALOAD GT ISZERO PUSH2 0x4B1A JUMPI PUSH1 0x0 DUP1 REVERT JUMPDEST PUSH2 0x4B2A DUP15 PUSH1 0x20 DUP16 ADD CALLDATALOAD DUP16 ADD PUSH2 0x4733 JUMP JUMPDEST SWAP1 SWAP12 POP SWAP10 POP PUSH2 0x4B3B PUSH1 0x40 DUP15 ADD PUSH2 0x4675 JUMP JUMPDEST SWAP9 POP PUSH1 0x60 DUP14 ADD CALLDATALOAD SWAP8 POP PUSH1 0x80 DUP14 ADD CALLDATALOAD SWAP7 POP PUSH2 0x4B57 PUSH1 0xA0 DUP15 ADD PUSH2 0x47CB JUMP JUMPDEST SWAP6 POP PUSH2 0x4B65 PUSH1 0xC0 DUP15 ADD PUSH2 0x47CB JUMP JUMPDEST SWAP5 POP PUSH1 0xE0 DUP14 ADD CALLDATALOAD SWAP4 POP PUSH2 0x100 DUP14 ADD CALLDATALOAD SWAP3 POP PUSH2 0x120 DUP14 ADD CALLDATALOAD SWAP2 POP PUSH2 0x4B8B PUSH2 0x140 DUP15 ADD PUSH2 0x4675 JUMP JUMPDEST SWAP1 POP SWAP3 SWAP6 SWAP9 SWAP12 POP SWAP3 SWAP6 SWAP9 SWAP12 POP SWAP3 SWAP6 SWAP9 SWAP12 JUMP JUMPDEST PUSH1 0x0 DUP1 PUSH1 0x0 DUP1 PUSH1 0x0 DUP1 PUSH1 0x0 DUP1 PUSH2 0x100 DUP10 DUP12 SUB SLT ISZERO PUSH2 0x4BBA JUMPI PUSH1 0x0 DUP1 REVERT JUMPDEST PUSH2 0x4BC3 DUP10 PUSH2 0x4675 JUMP JUMPDEST SWAP8 POP PUSH1 0x20 DUP10 ADD CALLDATALOAD SWAP7 POP PUSH1 0x40 DUP10 ADD CALLDATALOAD SWAP6 POP PUSH1 0x60 DUP10 ADD CALLDATALOAD SWAP5 POP PUSH2 0x4BE6 PUSH1 0x80 DUP11 ADD PUSH2 0x47CB JUMP JUMPDEST SWAP4 POP PUSH2 0x4BF4 PUSH1 0xA0 DUP11 ADD PUSH2 0x47CB JUMP JUMPDEST SWAP3 POP PUSH1 0xC0 DUP10 ADD CALLDATALOAD SWAP2 POP PUSH1 0xE0 DUP10 ADD CALLDATALOAD SWAP1 POP SWAP3 SWAP6 SWAP9 POP SWAP3 SWAP6 SWAP9 SWAP1 SWAP4 SWAP7 POP JUMP JUMPDEST PUSH1 0x0 DUP1 PUSH1 0x40 DUP4 DUP6 SUB SLT ISZERO PUSH2 0x4C24 JUMPI PUSH1 0x0 DUP1 REVERT JUMPDEST PUSH2 0x4C2D DUP4 PUSH2 0x4675 JUMP JUMPDEST SWAP2 POP PUSH2 0x487D PUSH1 0x20 DUP5 ADD PUSH2 0x4675 JUMP JUMPDEST PUSH2 0x1A0 DUP2 ADD DUP2 DUP4 PUSH1 0x0 JUMPDEST PUSH1 0xD DUP2 LT ISZERO PUSH2 0x3C69 JUMPI DUP2 MLOAD DUP4 MSTORE PUSH1 0x20 SWAP3 DUP4 ADD SWAP3 SWAP1 SWAP2 ADD SWAP1 PUSH1 0x1 ADD PUSH2 0x4C45 JUMP JUMPDEST PUSH1 0x1 DUP2 DUP2 SHR SWAP1 DUP3 AND DUP1 PUSH2 0x4C78 JUMPI PUSH1 0x7F DUP3 AND SWAP2 POP JUMPDEST PUSH1 0x20 DUP3 LT DUP2 SUB PUSH2 0x4C98 JUMPI PUSH4 0x4E487B71 PUSH1 0xE0 SHL PUSH1 0x0 MSTORE PUSH1 0x22 PUSH1 0x4 MSTORE PUSH1 0x24 PUSH1 0x0 REVERT JUMPDEST POP SWAP2 SWAP1 POP JUMP JUMPDEST PUSH4 0x4E487B71 PUSH1 0xE0 SHL PUSH1 0x0 MSTORE PUSH1 0x11 PUSH1 0x4 MSTORE PUSH1 0x24 PUSH1 0x0 REVERT JUMPDEST PUSH1 0x1 DUP2 DUP2 JUMPDEST DUP1 DUP6 GT ISZERO PUSH2 0x4CEF JUMPI DUP2 PUSH1 0x0 NOT DIV DUP3 GT ISZERO PUSH2 0x4CD5 JUMPI PUSH2 0x4CD5 PUSH2 0x4C9E JUMP JUMPDEST DUP1 DUP6 AND ISZERO PUSH2 0x4CE2 JUMPI SWAP2 DUP2 MUL SWAP2 JUMPDEST SWAP4 DUP5 SHR SWAP4 SWAP1 DUP1 MUL SWAP1 PUSH2 0x4CB9 JUMP JUMPDEST POP SWAP3 POP SWAP3 SWAP1 POP JUMP JUMPDEST PUSH1 0x0 DUP3 PUSH2 0x4D06 JUMPI POP PUSH1 0x1 PUSH2 0x888 JUMP JUMPDEST DUP2 PUSH2 0x4D13 JUMPI POP PUSH1 0x0 PUSH2 0x888 JUMP JUMPDEST DUP2 PUSH1 0x1 DUP2 EQ PUSH2 0x4D29 JUMPI PUSH1 0x2 DUP2 EQ PUSH2 0x4D33 JUMPI PUSH2 0x4D4F JUMP JUMPDEST PUSH1 0x1 SWAP2 POP POP PUSH2 0x888 JUMP JUMPDEST PUSH1 0xFF DUP5 GT ISZERO PUSH2 0x4D44 JUMPI PUSH2 0x4D44 PUSH2 0x4C9E JUMP JUMPDEST POP POP PUSH1 0x1 DUP3 SHL PUSH2 0x888 JUMP JUMPDEST POP PUSH1 0x20 DUP4 LT PUSH2 0x133 DUP4 LT AND PUSH1 0x4E DUP5 LT PUSH1 0xB DUP5 LT AND OR ISZERO PUSH2 0x4D72 JUMPI POP DUP2 DUP2 EXP PUSH2 0x888 JUMP JUMPDEST PUSH2 0x4D7C DUP4 DUP4 PUSH2 0x4CB4 JUMP JUMPDEST DUP1 PUSH1 0x0 NOT DIV DUP3 GT ISZERO PUSH2 0x4D90 JUMPI PUSH2 0x4D90 PUSH2 0x4C9E JUMP JUMPDEST MUL SWAP4 SWAP3 POP POP POP JUMP JUMPDEST PUSH1 0x0 PUSH2 0x949 DUP4 DUP4 PUSH2 0x4CF7 JUMP JUMPDEST PUSH1 0x0 DUP3 PUSH2 0x4DC1 JUMPI PUSH4 0x4E487B71 PUSH1 0xE0 SHL PUSH1 0x0 MSTORE PUSH1 0x12 PUSH1 0x4 MSTORE PUSH1 0x24 PUSH1 0x0 REVERT JUMPDEST POP DIV SWAP1 JUMP JUMPDEST DUP1 DUP3 MUL DUP2 ISZERO DUP3 DUP3 DIV DUP5 EQ OR PUSH2 0x888 JUMPI PUSH2 0x888 PUSH2 0x4C9E JUMP JUMPDEST PUSH4 0x4E487B71 PUSH1 0xE0 SHL PUSH1 0x0 MSTORE PUSH1 0x32 PUSH1 0x4 MSTORE PUSH1 0x24 PUSH1 0x0 REVERT JUMPDEST DUP2 DUP2 SUB DUP2 DUP2 GT ISZERO PUSH2 0x888 JUMPI PUSH2 0x888 PUSH2 0x4C9E JUMP JUMPDEST DUP1 DUP3 ADD DUP1 DUP3 GT ISZERO PUSH2 0x888 JUMPI PUSH2 0x888 PUSH2 0x4C9E JUMP JUMPDEST PUSH1 0x0 PUSH1 0x1 DUP3 ADD PUSH2 0x4E2B JUMPI PUSH2 0x4E2B PUSH2 0x4C9E JUMP JUMPDEST POP PUSH1 0x1 ADD SWAP1 JUMP JUMPDEST PUSH1 0x20 DUP1 DUP3 MSTORE PUSH1 0x25 SWAP1 DUP3 ADD MSTORE PUSH32 0x4D594E543A20436C61696D20706861736520686173206E6F7420796574207374 PUSH1 0x40 DUP3 ADD MSTORE PUSH5 0x185C9D1959 PUSH1 0xDA SHL PUSH1 0x60 DUP3 ADD MSTORE PUSH1 0x80 ADD SWAP1 JUMP JUMPDEST PUSH1 0x0 DUP3 MLOAD PUSH2 0x4E89 DUP2 DUP5 PUSH1 0x20 DUP8 ADD PUSH2 0x461E JUMP JUMPDEST SWAP2 SWAP1 SWAP2 ADD SWAP3 SWAP2 POP POP JUMP JUMPDEST PUSH1 0x0 PUSH1 0x20 DUP3 DUP5 SUB SLT ISZERO PUSH2 0x4EA5 JUMPI PUSH1 0x0 DUP1 REVERT JUMPDEST POP MLOAD SWAP2 SWAP1 POP JUMP JUMPDEST PUSH4 0x4E487B71 PUSH1 0xE0 SHL PUSH1 0x0 MSTORE PUSH1 0x31 PUSH1 0x4 MSTORE PUSH1 0x24 PUSH1 0x0 REVERT JUMPDEST PUSH1 0x0 PUSH5 0xFFFFFFFFFF DUP1 DUP4 AND DUP2 DUP2 SUB PUSH2 0x4EDC JUMPI PUSH2 0x4EDC PUSH2 0x4C9E JUMP JUMPDEST PUSH1 0x1 ADD SWAP4 SWAP3 POP POP POP JUMP JUMPDEST PUSH1 0xFF DUP2 DUP2 AND DUP4 DUP3 AND MUL SWAP1 DUP2 AND SWAP1 DUP2 DUP2 EQ PUSH2 0x4F02 JUMPI PUSH2 0x4F02 PUSH2 0x4C9E JUMP JUMPDEST POP SWAP3 SWAP2 POP POP JUMP JUMPDEST PUSH1 0xFF DUP2 DUP2 AND DUP4 DUP3 AND ADD SWAP1 DUP2 GT ISZERO PUSH2 0x888 JUMPI PUSH2 0x888 PUSH2 0x4C9E JUMP JUMPDEST PUSH1 0x1 PUSH1 0x1 PUSH1 0xF8 SHL SUB NOT PUSH1 0xF8 DUP8 DUP2 SHL DUP3 AND DUP4 MSTORE PUSH8 0xFFFFFFFFFFFFFFFF NOT DUP8 AND PUSH1 0x1 DUP5 ADD MSTORE DUP6 SWAP1 SHL AND PUSH1 0x19 DUP3 ADD MSTORE DUP3 MLOAD PUSH1 0x0 SWAP1 PUSH2 0x4F64 DUP2 PUSH1 0x1A DUP6 ADD PUSH1 0x20 DUP9 ADD PUSH2 0x461E JUMP JUMPDEST DUP4 MLOAD SWAP1 DUP4 ADD SWAP1 PUSH2 0x4F7B DUP2 PUSH1 0x1A DUP5 ADD PUSH1 0x20 DUP9 ADD PUSH2 0x461E JUMP JUMPDEST ADD PUSH1 0x1A ADD SWAP8 SWAP7 POP POP POP POP POP POP POP JUMP JUMPDEST PUSH1 0x1 PUSH1 0x1 PUSH1 0xF8 SHL SUB NOT PUSH1 0xF8 DUP9 DUP2 SHL DUP3 AND DUP4 MSTORE PUSH8 0xFFFFFFFFFFFFFFFF NOT DUP9 AND PUSH1 0x1 DUP5 ADD MSTORE DUP7 SWAP1 SHL AND PUSH1 0x19 DUP3 ADD MSTORE DUP4 MLOAD PUSH1 0x0 SWAP1 PUSH2 0x4FCC DUP2 PUSH1 0x1A DUP6 ADD PUSH1 0x20 DUP10 ADD PUSH2 0x461E JUMP JUMPDEST DUP5 MLOAD SWAP1 DUP4 ADD SWAP1 PUSH2 0x4FE3 DUP2 PUSH1 0x1A DUP5 ADD PUSH1 0x20 DUP10 ADD PUSH2 0x461E JUMP JUMPDEST PUSH1 0x5F PUSH1 0xF8 SHL PUSH1 0x1A SWAP3 SWAP1 SWAP2 ADD SWAP2 DUP3 ADD MSTORE DUP4 MLOAD PUSH2 0x5005 DUP2 PUSH1 0x1B DUP5 ADD PUSH1 0x20 DUP9 ADD PUSH2 0x461E JUMP JUMPDEST ADD PUSH1 0x1B ADD SWAP9 SWAP8 POP POP POP POP POP POP POP POP JUMP INVALID LOG2 PUSH5 0x6970667358 0x22 SLT KECCAK256 XOR JUMPI 0xED EXTCODEHASH 0xC 0x21 CODESIZE 0xAE SWAP8 STATICCALL 0xDD SLOAD 0x2F MUL PUSH24 0x549558C9B191C0F889C0A524E751A718AE64736F6C634300 ADDMOD SGT STOP CALLER "
		},
		"gasEstimates": {
			"creation": {
				"codeDepositCost": "4111000",
				"executionCost": "infinite",
				"totalCost": "infinite"
			},
			"external": {
				"CLAIM_PHASE_DAYS()": "385",
				"FLUSH_ADDR()": "351",
				"HEARTS_PER_SATOSHI()": "infinite",
				"allocatedSupply()": "4618",
				"allowance(address,address)": "infinite",
				"approve(address,uint256)": "24674",
				"balanceOf(address)": "2652",
				"btcAddressClaim(uint256,bytes32[],address,bytes32,bytes32,uint8,uint8,bytes32,bytes32,uint256,address)": "infinite",
				"btcAddressClaims(bytes20)": "2668",
				"btcAddressIsClaimable(bytes20,uint256,bytes32[])": "infinite",
				"btcAddressIsValid(bytes20,uint256,bytes32[])": "infinite",
				"claimMessageMatchesSignature(address,bytes32,bytes32,bytes32,uint8,uint8,bytes32,bytes32)": "infinite",
				"contractOwner()": "infinite",
				"currentDay()": "infinite",
				"dailyData(uint256)": "2722",
				"dailyDataRange(uint256,uint256)": "infinite",
				"dailyDataUpdate(uint256)": "infinite",
				"decimals()": "245",
				"decreaseAllowance(address,uint256)": "27039",
				"getGlobalsLoad((uint256,uint256,uint256,uint256,uint256,uint256,uint40,uint256,uint256,uint256,uint256),(uint256,uint256,uint256,uint256,uint256,uint256,uint40,uint256,uint256,uint256,uint256))": "infinite",
				"getTreasureBoxAddress()": "2376",
				"globalInfo()": "infinite",
				"globals()": "4859",
				"increaseAllowance(address,uint256)": "infinite",
				"merkleProofIsValid(bytes32,bytes32[])": "infinite",
				"mint(address,uint256,address)": "infinite",
				"name()": "infinite",
				"pubKeyToBtcAddress(bytes32,bytes32,uint8)": "infinite",
				"pubKeyToEthAddress(bytes32,bytes32)": "521",
				"setTreasureBoxAddress(address)": "infinite",
				"stakeCount(address)": "2649",
				"stakeEnd(uint256,uint40)": "infinite",
				"stakeGoodAccounting(address,uint256,uint40)": "infinite",
				"stakeLists(address,uint256)": "5186",
				"stakeStart(uint256,uint256)": "infinite",
				"symbol()": "infinite",
				"totalSupply()": "2338",
				"transfer(address,uint256)": "51161",
				"transferFrom(address,address,uint256)": "infinite",
				"treasureBoxAddress()": "2470",
				"xfLobby(uint256)": "2483",
				"xfLobbyMembers(uint256,address)": "2799"
			},
			"internal": {
				"_adjustLateClaim(uint256,uint256)": "infinite",
				"_adjustSillyWhale(uint256)": "infinite",
				"_calcClaimValues(struct IGlobals.GlobalsCache memory,uint256)": "infinite",
				"_calcSpeedBonus(uint256,uint256)": "infinite",
				"_emitClaim(address,bytes20,uint8,uint256,uint256,uint256,address)": "infinite",
				"_remitBonuses(address,bytes20,uint8,uint256,uint256,uint256,uint256,address)": "infinite",
				"_satoshisClaim(struct IGlobals.GlobalsCache memory,uint256,address,bytes20,uint8,uint256,address)": "infinite",
				"_satoshisClaimSync(uint256,address,bytes20,uint8,uint256,address)": "infinite"
			}
		},
		"methodIdentifiers": {
			"CLAIM_PHASE_DAYS()": "319e74f6",
			"FLUSH_ADDR()": "13c5c2c7",
			"HEARTS_PER_SATOSHI()": "1285b047",
			"allocatedSupply()": "3a70a5ca",
			"allowance(address,address)": "dd62ed3e",
			"approve(address,uint256)": "095ea7b3",
			"balanceOf(address)": "70a08231",
			"btcAddressClaim(uint256,bytes32[],address,bytes32,bytes32,uint8,uint8,bytes32,bytes32,uint256,address)": "96f62b9d",
			"btcAddressClaims(bytes20)": "7c426620",
			"btcAddressIsClaimable(bytes20,uint256,bytes32[])": "8e21aa01",
			"btcAddressIsValid(bytes20,uint256,bytes32[])": "ec9a1917",
			"claimMessageMatchesSignature(address,bytes32,bytes32,bytes32,uint8,uint8,bytes32,bytes32)": "d5a373ff",
			"contractOwner()": "ce606ee0",
			"currentDay()": "5c9302c9",
			"dailyData(uint256)": "90de6871",
			"dailyDataRange(uint256,uint256)": "6a210a0e",
			"dailyDataUpdate(uint256)": "8f1c65c0",
			"decimals()": "313ce567",
			"decreaseAllowance(address,uint256)": "a457c2d7",
			"getGlobalsLoad((uint256,uint256,uint256,uint256,uint256,uint256,uint40,uint256,uint256,uint256,uint256),(uint256,uint256,uint256,uint256,uint256,uint256,uint40,uint256,uint256,uint256,uint256))": "65d2a557",
			"getTreasureBoxAddress()": "34dc8bb5",
			"globalInfo()": "f04b5fa0",
			"globals()": "c3124525",
			"increaseAllowance(address,uint256)": "39509351",
			"merkleProofIsValid(bytes32,bytes32[])": "27aa6018",
			"mint(address,uint256,address)": "0d4d1513",
			"name()": "06fdde03",
			"pubKeyToBtcAddress(bytes32,bytes32,uint8)": "283a5baf",
			"pubKeyToEthAddress(bytes32,bytes32)": "30c1a785",
			"setTreasureBoxAddress(address)": "8cba2842",
			"stakeCount(address)": "33060d90",
			"stakeEnd(uint256,uint40)": "343009a2",
			"stakeGoodAccounting(address,uint256,uint40)": "65cf71b2",
			"stakeLists(address,uint256)": "2607443b",
			"stakeStart(uint256,uint256)": "52a438b8",
			"symbol()": "95d89b41",
			"totalSupply()": "18160ddd",
			"transfer(address,uint256)": "a9059cbb",
			"transferFrom(address,address,uint256)": "23b872dd",
			"treasureBoxAddress()": "b626d6fc",
			"xfLobby(uint256)": "87a0f31c",
			"xfLobbyMembers(uint256,address)": "44203faf"
		}
	},
	"abi": [
		{
			"anonymous": false,
			"inputs": [
				{
					"indexed": true,
					"internalType": "address",
					"name": "owner",
					"type": "address"
				},
				{
					"indexed": true,
					"internalType": "address",
					"name": "spender",
					"type": "address"
				},
				{
					"indexed": false,
					"internalType": "uint256",
					"name": "value",
					"type": "uint256"
				}
			],
			"name": "Approval",
			"type": "event"
		},
		{
			"anonymous": false,
			"inputs": [
				{
					"indexed": false,
					"internalType": "uint256",
					"name": "data0",
					"type": "uint256"
				},
				{
					"indexed": false,
					"internalType": "uint256",
					"name": "data1",
					"type": "uint256"
				},
				{
					"indexed": true,
					"internalType": "bytes20",
					"name": "btcAddr",
					"type": "bytes20"
				},
				{
					"indexed": true,
					"internalType": "address",
					"name": "claimToAddr",
					"type": "address"
				},
				{
					"indexed": true,
					"internalType": "address",
					"name": "referrerAddr",
					"type": "address"
				}
			],
			"name": "Claim",
			"type": "event"
		},
		{
			"anonymous": false,
			"inputs": [
				{
					"indexed": false,
					"internalType": "uint256",
					"name": "data0",
					"type": "uint256"
				},
				{
					"indexed": false,
					"internalType": "uint256",
					"name": "data1",
					"type": "uint256"
				},
				{
					"indexed": false,
					"internalType": "uint256",
					"name": "data2",
					"type": "uint256"
				},
				{
					"indexed": true,
					"internalType": "address",
					"name": "senderAddr",
					"type": "address"
				}
			],
			"name": "ClaimAssist",
			"type": "event"
		},
		{
			"anonymous": false,
			"inputs": [
				{
					"indexed": false,
					"internalType": "uint256",
					"name": "data0",
					"type": "uint256"
				},
				{
					"indexed": true,
					"internalType": "address",
					"name": "updaterAddr",
					"type": "address"
				}
			],
			"name": "DailyDataUpdate",
			"type": "event"
		},
		{
			"anonymous": false,
			"inputs": [
				{
					"indexed": false,
					"internalType": "uint256",
					"name": "data0",
					"type": "uint256"
				},
				{
					"indexed": true,
					"internalType": "uint40",
					"name": "stakeId",
					"type": "uint40"
				}
			],
			"name": "ShareRateChange",
			"type": "event"
		},
		{
			"anonymous": false,
			"inputs": [
				{
					"indexed": false,
					"internalType": "uint256",
					"name": "data0",
					"type": "uint256"
				},
				{
					"indexed": false,
					"internalType": "uint256",
					"name": "data1",
					"type": "uint256"
				},
				{
					"indexed": true,
					"internalType": "address",
					"name": "stakerAddr",
					"type": "address"
				},
				{
					"indexed": true,
					"internalType": "uint40",
					"name": "stakeId",
					"type": "uint40"
				}
			],
			"name": "StakeEnd",
			"type": "event"
		},
		{
			"anonymous": false,
			"inputs": [
				{
					"indexed": false,
					"internalType": "uint256",
					"name": "data0",
					"type": "uint256"
				},
				{
					"indexed": false,
					"internalType": "uint256",
					"name": "data1",
					"type": "uint256"
				},
				{
					"indexed": true,
					"internalType": "address",
					"name": "stakerAddr",
					"type": "address"
				},
				{
					"indexed": true,
					"internalType": "uint40",
					"name": "stakeId",
					"type": "uint40"
				},
				{
					"indexed": true,
					"internalType": "address",
					"name": "senderAddr",
					"type": "address"
				}
			],
			"name": "StakeGoodAccounting",
			"type": "event"
		},
		{
			"anonymous": false,
			"inputs": [
				{
					"indexed": false,
					"internalType": "uint256",
					"name": "data0",
					"type": "uint256"
				},
				{
					"indexed": true,
					"internalType": "address",
					"name": "stakerAddr",
					"type": "address"
				},
				{
					"indexed": true,
					"internalType": "uint40",
					"name": "stakeId",
					"type": "uint40"
				}
			],
			"name": "StakeStart",
			"type": "event"
		},
		{
			"anonymous": false,
			"inputs": [
				{
					"indexed": true,
					"internalType": "address",
					"name": "from",
					"type": "address"
				},
				{
					"indexed": true,
					"internalType": "address",
					"name": "to",
					"type": "address"
				},
				{
					"indexed": false,
					"internalType": "uint256",
					"name": "value",
					"type": "uint256"
				}
			],
			"name": "Transfer",
			"type": "event"
		},
		{
			"anonymous": false,
			"inputs": [
				{
					"indexed": false,
					"internalType": "uint256",
					"name": "data0",
					"type": "uint256"
				},
				{
					"indexed": true,
					"internalType": "address",
					"name": "memberAddr",
					"type": "address"
				},
				{
					"indexed": true,
					"internalType": "uint256",
					"name": "entryId",
					"type": "uint256"
				},
				{
					"indexed": true,
					"internalType": "address",
					"name": "referrerAddr",
					"type": "address"
				}
			],
			"name": "XfLobbyEnter",
			"type": "event"
		},
		{
			"anonymous": false,
			"inputs": [
				{
					"indexed": false,
					"internalType": "uint256",
					"name": "data0",
					"type": "uint256"
				},
				{
					"indexed": true,
					"internalType": "address",
					"name": "memberAddr",
					"type": "address"
				},
				{
					"indexed": true,
					"internalType": "uint256",
					"name": "entryId",
					"type": "uint256"
				},
				{
					"indexed": true,
					"internalType": "address",
					"name": "referrerAddr",
					"type": "address"
				}
			],
			"name": "XfLobbyExit",
			"type": "event"
		},
		{
			"inputs": [],
			"name": "CLAIM_PHASE_DAYS",
			"outputs": [
				{
					"internalType": "uint256",
					"name": "",
					"type": "uint256"
				}
			],
			"stateMutability": "view",
			"type": "function"
		},
		{
			"inputs": [],
			"name": "FLUSH_ADDR",
			"outputs": [
				{
					"internalType": "address payable",
					"name": "",
					"type": "address"
				}
			],
			"stateMutability": "view",
			"type": "function"
		},
		{
			"inputs": [],
			"name": "HEARTS_PER_SATOSHI",
			"outputs": [
				{
					"internalType": "uint256",
					"name": "",
					"type": "uint256"
				}
			],
			"stateMutability": "view",
			"type": "function"
		},
		{
			"inputs": [],
			"name": "allocatedSupply",
			"outputs": [
				{
					"internalType": "uint256",
					"name": "",
					"type": "uint256"
				}
			],
			"stateMutability": "view",
			"type": "function"
		},
		{
			"inputs": [
				{
					"internalType": "address",
					"name": "owner",
					"type": "address"
				},
				{
					"internalType": "address",
					"name": "spender",
					"type": "address"
				}
			],
			"name": "allowance",
			"outputs": [
				{
					"internalType": "uint256",
					"name": "",
					"type": "uint256"
				}
			],
			"stateMutability": "view",
			"type": "function"
		},
		{
			"inputs": [
				{
					"internalType": "address",
					"name": "spender",
					"type": "address"
				},
				{
					"internalType": "uint256",
					"name": "amount",
					"type": "uint256"
				}
			],
			"name": "approve",
			"outputs": [
				{
					"internalType": "bool",
					"name": "",
					"type": "bool"
				}
			],
			"stateMutability": "nonpayable",
			"type": "function"
		},
		{
			"inputs": [
				{
					"internalType": "address",
					"name": "account",
					"type": "address"
				}
			],
			"name": "balanceOf",
			"outputs": [
				{
					"internalType": "uint256",
					"name": "",
					"type": "uint256"
				}
			],
			"stateMutability": "view",
			"type": "function"
		},
		{
			"inputs": [
				{
					"internalType": "uint256",
					"name": "rawSatoshis",
					"type": "uint256"
				},
				{
					"internalType": "bytes32[]",
					"name": "proof",
					"type": "bytes32[]"
				},
				{
					"internalType": "address",
					"name": "claimToAddr",
					"type": "address"
				},
				{
					"internalType": "bytes32",
					"name": "pubKeyX",
					"type": "bytes32"
				},
				{
					"internalType": "bytes32",
					"name": "pubKeyY",
					"type": "bytes32"
				},
				{
					"internalType": "uint8",
					"name": "claimFlags",
					"type": "uint8"
				},
				{
					"internalType": "uint8",
					"name": "v",
					"type": "uint8"
				},
				{
					"internalType": "bytes32",
					"name": "r",
					"type": "bytes32"
				},
				{
					"internalType": "bytes32",
					"name": "s",
					"type": "bytes32"
				},
				{
					"internalType": "uint256",
					"name": "autoStakeDays",
					"type": "uint256"
				},
				{
					"internalType": "address",
					"name": "referrerAddr",
					"type": "address"
				}
			],
			"name": "btcAddressClaim",
			"outputs": [
				{
					"internalType": "uint256",
					"name": "",
					"type": "uint256"
				}
			],
			"stateMutability": "nonpayable",
			"type": "function"
		},
		{
			"inputs": [
				{
					"internalType": "bytes20",
					"name": "",
					"type": "bytes20"
				}
			],
			"name": "btcAddressClaims",
			"outputs": [
				{
					"internalType": "bool",
					"name": "",
					"type": "bool"
				}
			],
			"stateMutability": "view",
			"type": "function"
		},
		{
			"inputs": [
				{
					"internalType": "bytes20",
					"name": "btcAddr",
					"type": "bytes20"
				},
				{
					"internalType": "uint256",
					"name": "rawSatoshis",
					"type": "uint256"
				},
				{
					"internalType": "bytes32[]",
					"name": "proof",
					"type": "bytes32[]"
				}
			],
			"name": "btcAddressIsClaimable",
			"outputs": [
				{
					"internalType": "bool",
					"name": "",
					"type": "bool"
				}
			],
			"stateMutability": "view",
			"type": "function"
		},
		{
			"inputs": [
				{
					"internalType": "bytes20",
					"name": "btcAddr",
					"type": "bytes20"
				},
				{
					"internalType": "uint256",
					"name": "rawSatoshis",
					"type": "uint256"
				},
				{
					"internalType": "bytes32[]",
					"name": "proof",
					"type": "bytes32[]"
				}
			],
			"name": "btcAddressIsValid",
			"outputs": [
				{
					"internalType": "bool",
					"name": "",
					"type": "bool"
				}
			],
			"stateMutability": "pure",
			"type": "function"
		},
		{
			"inputs": [
				{
					"internalType": "address",
					"name": "claimToAddr",
					"type": "address"
				},
				{
					"internalType": "bytes32",
					"name": "claimParamHash",
					"type": "bytes32"
				},
				{
					"internalType": "bytes32",
					"name": "pubKeyX",
					"type": "bytes32"
				},
				{
					"internalType": "bytes32",
					"name": "pubKeyY",
					"type": "bytes32"
				},
				{
					"internalType": "uint8",
					"name": "claimFlags",
					"type": "uint8"
				},
				{
					"internalType": "uint8",
					"name": "v",
					"type": "uint8"
				},
				{
					"internalType": "bytes32",
					"name": "r",
					"type": "bytes32"
				},
				{
					"internalType": "bytes32",
					"name": "s",
					"type": "bytes32"
				}
			],
			"name": "claimMessageMatchesSignature",
			"outputs": [
				{
					"internalType": "bool",
					"name": "",
					"type": "bool"
				}
			],
			"stateMutability": "pure",
			"type": "function"
		},
		{
			"inputs": [],
			"name": "contractOwner",
			"outputs": [
				{
					"internalType": "address",
					"name": "",
					"type": "address"
				}
			],
			"stateMutability": "view",
			"type": "function"
		},
		{
			"inputs": [],
			"name": "currentDay",
			"outputs": [
				{
					"internalType": "uint256",
					"name": "",
					"type": "uint256"
				}
			],
			"stateMutability": "view",
			"type": "function"
		},
		{
			"inputs": [
				{
					"internalType": "uint256",
					"name": "",
					"type": "uint256"
				}
			],
			"name": "dailyData",
			"outputs": [
				{
					"internalType": "uint72",
					"name": "dayPayoutTotal",
					"type": "uint72"
				},
				{
					"internalType": "uint72",
					"name": "dayStakeSharesTotal",
					"type": "uint72"
				},
				{
					"internalType": "uint56",
					"name": "dayUnclaimedSatoshisTotal",
					"type": "uint56"
				}
			],
			"stateMutability": "view",
			"type": "function"
		},
		{
			"inputs": [
				{
					"internalType": "uint256",
					"name": "beginDay",
					"type": "uint256"
				},
				{
					"internalType": "uint256",
					"name": "endDay",
					"type": "uint256"
				}
			],
			"name": "dailyDataRange",
			"outputs": [
				{
					"internalType": "uint256[]",
					"name": "list",
					"type": "uint256[]"
				}
			],
			"stateMutability": "view",
			"type": "function"
		},
		{
			"inputs": [
				{
					"internalType": "uint256",
					"name": "beforeDay",
					"type": "uint256"
				}
			],
			"name": "dailyDataUpdate",
			"outputs": [],
			"stateMutability": "nonpayable",
			"type": "function"
		},
		{
			"inputs": [],
			"name": "decimals",
			"outputs": [
				{
					"internalType": "uint8",
					"name": "",
					"type": "uint8"
				}
			],
			"stateMutability": "view",
			"type": "function"
		},
		{
			"inputs": [
				{
					"internalType": "address",
					"name": "spender",
					"type": "address"
				},
				{
					"internalType": "uint256",
					"name": "subtractedValue",
					"type": "uint256"
				}
			],
			"name": "decreaseAllowance",
			"outputs": [
				{
					"internalType": "bool",
					"name": "",
					"type": "bool"
				}
			],
			"stateMutability": "nonpayable",
			"type": "function"
		},
		{
			"inputs": [
				{
					"components": [
						{
							"internalType": "uint256",
							"name": "_lockedHeartsTotal",
							"type": "uint256"
						},
						{
							"internalType": "uint256",
							"name": "_nextStakeSharesTotal",
							"type": "uint256"
						},
						{
							"internalType": "uint256",
							"name": "_shareRate",
							"type": "uint256"
						},
						{
							"internalType": "uint256",
							"name": "_stakePenaltyTotal",
							"type": "uint256"
						},
						{
							"internalType": "uint256",
							"name": "_dailyDataCount",
							"type": "uint256"
						},
						{
							"internalType": "uint256",
							"name": "_stakeSharesTotal",
							"type": "uint256"
						},
						{
							"internalType": "uint40",
							"name": "_latestStakeId",
							"type": "uint40"
						},
						{
							"internalType": "uint256",
							"name": "_unclaimedSatoshisTotal",
							"type": "uint256"
						},
						{
							"internalType": "uint256",
							"name": "_claimedSatoshisTotal",
							"type": "uint256"
						},
						{
							"internalType": "uint256",
							"name": "_claimedBtcAddrCount",
							"type": "uint256"
						},
						{
							"internalType": "uint256",
							"name": "_currentDay",
							"type": "uint256"
						}
					],
					"internalType": "struct IGlobals.GlobalsCache",
					"name": "g",
					"type": "tuple"
				},
				{
					"components": [
						{
							"internalType": "uint256",
							"name": "_lockedHeartsTotal",
							"type": "uint256"
						},
						{
							"internalType": "uint256",
							"name": "_nextStakeSharesTotal",
							"type": "uint256"
						},
						{
							"internalType": "uint256",
							"name": "_shareRate",
							"type": "uint256"
						},
						{
							"internalType": "uint256",
							"name": "_stakePenaltyTotal",
							"type": "uint256"
						},
						{
							"internalType": "uint256",
							"name": "_dailyDataCount",
							"type": "uint256"
						},
						{
							"internalType": "uint256",
							"name": "_stakeSharesTotal",
							"type": "uint256"
						},
						{
							"internalType": "uint40",
							"name": "_latestStakeId",
							"type": "uint40"
						},
						{
							"internalType": "uint256",
							"name": "_unclaimedSatoshisTotal",
							"type": "uint256"
						},
						{
							"internalType": "uint256",
							"name": "_claimedSatoshisTotal",
							"type": "uint256"
						},
						{
							"internalType": "uint256",
							"name": "_claimedBtcAddrCount",
							"type": "uint256"
						},
						{
							"internalType": "uint256",
							"name": "_currentDay",
							"type": "uint256"
						}
					],
					"internalType": "struct IGlobals.GlobalsCache",
					"name": "gSnapshot",
					"type": "tuple"
				}
			],
			"name": "getGlobalsLoad",
			"outputs": [],
			"stateMutability": "view",
			"type": "function"
		},
		{
			"inputs": [],
			"name": "getTreasureBoxAddress",
			"outputs": [
				{
					"internalType": "address",
					"name": "",
					"type": "address"
				}
			],
			"stateMutability": "view",
			"type": "function"
		},
		{
			"inputs": [],
			"name": "globalInfo",
			"outputs": [
				{
					"internalType": "uint256[13]",
					"name": "",
					"type": "uint256[13]"
				}
			],
			"stateMutability": "view",
			"type": "function"
		},
		{
			"inputs": [],
			"name": "globals",
			"outputs": [
				{
					"internalType": "uint72",
					"name": "lockedHeartsTotal",
					"type": "uint72"
				},
				{
					"internalType": "uint72",
					"name": "nextStakeSharesTotal",
					"type": "uint72"
				},
				{
					"internalType": "uint40",
					"name": "shareRate",
					"type": "uint40"
				},
				{
					"internalType": "uint72",
					"name": "stakePenaltyTotal",
					"type": "uint72"
				},
				{
					"internalType": "uint16",
					"name": "dailyDataCount",
					"type": "uint16"
				},
				{
					"internalType": "uint72",
					"name": "stakeSharesTotal",
					"type": "uint72"
				},
				{
					"internalType": "uint40",
					"name": "latestStakeId",
					"type": "uint40"
				},
				{
					"internalType": "uint128",
					"name": "claimStats",
					"type": "uint128"
				}
			],
			"stateMutability": "view",
			"type": "function"
		},
		{
			"inputs": [
				{
					"internalType": "address",
					"name": "spender",
					"type": "address"
				},
				{
					"internalType": "uint256",
					"name": "addedValue",
					"type": "uint256"
				}
			],
			"name": "increaseAllowance",
			"outputs": [
				{
					"internalType": "bool",
					"name": "",
					"type": "bool"
				}
			],
			"stateMutability": "nonpayable",
			"type": "function"
		},
		{
			"inputs": [
				{
					"internalType": "bytes32",
					"name": "merkleLeaf",
					"type": "bytes32"
				},
				{
					"internalType": "bytes32[]",
					"name": "proof",
					"type": "bytes32[]"
				}
			],
			"name": "merkleProofIsValid",
			"outputs": [
				{
					"internalType": "bool",
					"name": "",
					"type": "bool"
				}
			],
			"stateMutability": "pure",
			"type": "function"
		},
		{
			"inputs": [
				{
					"internalType": "address",
					"name": "_receiver",
					"type": "address"
				},
				{
					"internalType": "uint256",
					"name": "_amount",
					"type": "uint256"
				},
				{
					"internalType": "address",
					"name": "_contractAddress",
					"type": "address"
				}
			],
			"name": "mint",
			"outputs": [],
			"stateMutability": "nonpayable",
			"type": "function"
		},
		{
			"inputs": [],
			"name": "name",
			"outputs": [
				{
					"internalType": "string",
					"name": "",
					"type": "string"
				}
			],
			"stateMutability": "view",
			"type": "function"
		},
		{
			"inputs": [
				{
					"internalType": "bytes32",
					"name": "pubKeyX",
					"type": "bytes32"
				},
				{
					"internalType": "bytes32",
					"name": "pubKeyY",
					"type": "bytes32"
				},
				{
					"internalType": "uint8",
					"name": "claimFlags",
					"type": "uint8"
				}
			],
			"name": "pubKeyToBtcAddress",
			"outputs": [
				{
					"internalType": "bytes20",
					"name": "",
					"type": "bytes20"
				}
			],
			"stateMutability": "pure",
			"type": "function"
		},
		{
			"inputs": [
				{
					"internalType": "bytes32",
					"name": "pubKeyX",
					"type": "bytes32"
				},
				{
					"internalType": "bytes32",
					"name": "pubKeyY",
					"type": "bytes32"
				}
			],
			"name": "pubKeyToEthAddress",
			"outputs": [
				{
					"internalType": "address",
					"name": "",
					"type": "address"
				}
			],
			"stateMutability": "pure",
			"type": "function"
		},
		{
			"inputs": [
				{
					"internalType": "address",
					"name": "_treasureBoxAddress",
					"type": "address"
				}
			],
			"name": "setTreasureBoxAddress",
			"outputs": [],
			"stateMutability": "nonpayable",
			"type": "function"
		},
		{
			"inputs": [
				{
					"internalType": "address",
					"name": "stakerAddr",
					"type": "address"
				}
			],
			"name": "stakeCount",
			"outputs": [
				{
					"internalType": "uint256",
					"name": "",
					"type": "uint256"
				}
			],
			"stateMutability": "view",
			"type": "function"
		},
		{
			"inputs": [
				{
					"internalType": "uint256",
					"name": "stakeIndex",
					"type": "uint256"
				},
				{
					"internalType": "uint40",
					"name": "stakeIdParam",
					"type": "uint40"
				}
			],
			"name": "stakeEnd",
			"outputs": [],
			"stateMutability": "nonpayable",
			"type": "function"
		},
		{
			"inputs": [
				{
					"internalType": "address",
					"name": "stakerAddr",
					"type": "address"
				},
				{
					"internalType": "uint256",
					"name": "stakeIndex",
					"type": "uint256"
				},
				{
					"internalType": "uint40",
					"name": "stakeIdParam",
					"type": "uint40"
				}
			],
			"name": "stakeGoodAccounting",
			"outputs": [],
			"stateMutability": "nonpayable",
			"type": "function"
		},
		{
			"inputs": [
				{
					"internalType": "address",
					"name": "",
					"type": "address"
				},
				{
					"internalType": "uint256",
					"name": "",
					"type": "uint256"
				}
			],
			"name": "stakeLists",
			"outputs": [
				{
					"internalType": "uint40",
					"name": "stakeId",
					"type": "uint40"
				},
				{
					"internalType": "uint72",
					"name": "stakedHearts",
					"type": "uint72"
				},
				{
					"internalType": "uint72",
					"name": "stakeShares",
					"type": "uint72"
				},
				{
					"internalType": "uint16",
					"name": "lockedDay",
					"type": "uint16"
				},
				{
					"internalType": "uint16",
					"name": "stakedDays",
					"type": "uint16"
				},
				{
					"internalType": "uint16",
					"name": "unlockedDay",
					"type": "uint16"
				},
				{
					"internalType": "bool",
					"name": "isAutoStake",
					"type": "bool"
				}
			],
			"stateMutability": "view",
			"type": "function"
		},
		{
			"inputs": [
				{
					"internalType": "uint256",
					"name": "newStakedHearts",
					"type": "uint256"
				},
				{
					"internalType": "uint256",
					"name": "newStakedDays",
					"type": "uint256"
				}
			],
			"name": "stakeStart",
			"outputs": [],
			"stateMutability": "nonpayable",
			"type": "function"
		},
		{
			"inputs": [],
			"name": "symbol",
			"outputs": [
				{
					"internalType": "string",
					"name": "",
					"type": "string"
				}
			],
			"stateMutability": "view",
			"type": "function"
		},
		{
			"inputs": [],
			"name": "totalSupply",
			"outputs": [
				{
					"internalType": "uint256",
					"name": "",
					"type": "uint256"
				}
			],
			"stateMutability": "view",
			"type": "function"
		},
		{
			"inputs": [
				{
					"internalType": "address",
					"name": "to",
					"type": "address"
				},
				{
					"internalType": "uint256",
					"name": "amount",
					"type": "uint256"
				}
			],
			"name": "transfer",
			"outputs": [
				{
					"internalType": "bool",
					"name": "",
					"type": "bool"
				}
			],
			"stateMutability": "nonpayable",
			"type": "function"
		},
		{
			"inputs": [
				{
					"internalType": "address",
					"name": "from",
					"type": "address"
				},
				{
					"internalType": "address",
					"name": "to",
					"type": "address"
				},
				{
					"internalType": "uint256",
					"name": "amount",
					"type": "uint256"
				}
			],
			"name": "transferFrom",
			"outputs": [
				{
					"internalType": "bool",
					"name": "",
					"type": "bool"
				}
			],
			"stateMutability": "nonpayable",
			"type": "function"
		},
		{
			"inputs": [],
			"name": "treasureBoxAddress",
			"outputs": [
				{
					"internalType": "address",
					"name": "",
					"type": "address"
				}
			],
			"stateMutability": "view",
			"type": "function"
		},
		{
			"inputs": [
				{
					"internalType": "uint256",
					"name": "",
					"type": "uint256"
				}
			],
			"name": "xfLobby",
			"outputs": [
				{
					"internalType": "uint256",
					"name": "",
					"type": "uint256"
				}
			],
			"stateMutability": "view",
			"type": "function"
		},
		{
			"inputs": [
				{
					"internalType": "uint256",
					"name": "",
					"type": "uint256"
				},
				{
					"internalType": "address",
					"name": "",
					"type": "address"
				}
			],
			"name": "xfLobbyMembers",
			"outputs": [
				{
					"internalType": "uint40",
					"name": "headIndex",
					"type": "uint40"
				},
				{
					"internalType": "uint40",
					"name": "tailIndex",
					"type": "uint40"
				}
			],
			"stateMutability": "view",
			"type": "function"
		}
	]
}