{
	"data": {
		"bytecode": {
			"linkReferences": {},
			"object": "60a06040523480156200001157600080fd5b5060405180604001604052806007815260200166135e5b9d1a5cdd60ca1b815250604051806040016040528060048152602001631356539560e21b815250816003908162000060919062000121565b5060046200006f828262000121565b50503360805250620001ed565b634e487b7160e01b600052604160045260246000fd5b600181811c90821680620000a757607f821691505b602082108103620000c857634e487b7160e01b600052602260045260246000fd5b50919050565b601f8211156200011c57600081815260208120601f850160051c81016020861015620000f75750805b601f850160051c820191505b81811015620001185782815560010162000103565b5050505b505050565b81516001600160401b038111156200013d576200013d6200007c565b62000155816200014e845462000092565b84620000ce565b602080601f8311600181146200018d5760008415620001745750858301515b600019600386901b1c1916600185901b17855562000118565b600085815260208120601f198616915b82811015620001be578886015182559484019460019091019084016200019d565b5085821015620001dd5787850151600019600388901b60f8161c191681555b5050505050600190811b01905550565b60805161468b620002106000396000818161075401526113f7015261468b6000f3fe608060405234801561001057600080fd5b50600436106102535760003560e01c80635c9302c91161014657806390de6871116100c3578063c312452511610087578063c312452514610687578063ce606ee01461074f578063d5a373ff14610776578063dd62ed3e14610789578063ec9a19171461079c578063f04b5fa0146107af57600080fd5b806390de6871146105d057806395d89b4114610646578063a457c2d71461064e578063a9059cbb14610661578063b626d6fc1461067457600080fd5b80637c4266201161010a5780637c4266201461055457806387a0f31c146105775780638cba2842146105975780638e21aa01146105aa5780638f1c65c0146105bd57600080fd5b80635c9302c9146104dd57806365cf71b2146104e557806365d2a557146104f85780636a210a0e1461050b57806370a082311461052b57600080fd5b806330c1a785116101d457806334dc8bb51161019857806334dc8bb51461044357806339509351146104545780633a70a5ca1461046757806344203faf1461046f57806352a438b8146104ca57600080fd5b806330c1a785146103b6578063313ce567146103f0578063319e74f6146103ff57806333060d9014610407578063343009a21461043057600080fd5b806318160ddd1161021b57806318160ddd146102f757806323b872dd146102ff5780632607443b1461031257806327aa601814610377578063283a5baf1461038a57600080fd5b806306fdde0314610258578063095ea7b3146102765780630d4d1513146102995780631285b047146102ae57806313c5c2c7146102c4575b600080fd5b6102606107c4565b60405161026d9190613d8a565b60405180910390f35b610289610284366004613dd9565b610856565b604051901515815260200161026d565b6102ac6102a7366004613e03565b610870565b005b6102b66108e1565b60405190815260200161026d565b6102df73dec9f2793e3c17cd26eefb21c4762fa5128e039981565b6040516001600160a01b03909116815260200161026d565b6002546102b6565b61028961030d366004613e3f565b61090c565b610325610320366004613dd9565b610932565b6040805164ffffffffff9890981688526001600160481b039687166020890152949095169386019390935261ffff9182166060860152811660808501521660a0830152151560c082015260e00161026d565b610289610385366004613ec7565b6109ae565b61039d610398366004613f24565b6109f5565b6040516001600160601b0319909116815260200161026d565b6102df6103c4366004613f50565b604080516020808201949094528082019290925280518083038201815260609092019052805191012090565b6040516008815260200161026d565b6102b6610ba6565b6102b6610415366004613f72565b6001600160a01b03166000908152600a602052604090205490565b6102ac61043e366004613fa2565b610bb2565b6005546001600160a01b03166102df565b610289610462366004613dd9565b610e8a565b6102b6610eac565b6104ac61047d366004613fce565b600c60209081526000928352604080842090915290825290205464ffffffffff80821691600160281b90041682565b6040805164ffffffffff93841681529290911660208301520161026d565b6102ac6104d8366004613f50565b610ed3565b6102b6610f7d565b6102ac6104f3366004613ff1565b610f87565b6102ac61050636600461410a565b611293565b61051e610519366004613f50565b6112a1565b60405161026d9190614138565b6102b6610539366004613f72565b6001600160a01b031660009081526020819052604090205490565b610289610562366004614194565b60086020526000908152604090205460ff1681565b6102b66105853660046141af565b600b6020526000908152604090205481565b6102ac6105a5366004613f72565b6113ec565b6102896105b83660046141c8565b611476565b6102ac6105cb3660046141af565b6115bb565b6106176105de3660046141af565b6009602052600090815260409020546001600160481b0380821691600160481b810490911690600160901b900466ffffffffffffff1683565b604080516001600160481b03948516815293909216602084015266ffffffffffffff169082015260600161026d565b6102606116b3565b61028961065c366004613dd9565b6116c2565b61028961066f366004613dd9565b611748565b6005546102df906001600160a01b031681565b6006546007546106ed916001600160481b0380821692600160481b830482169264ffffffffff600160901b8204811693600160b81b90920482169261ffff8116926201000082041691600160581b820416906001600160801b03600160801b9091041688565b604080516001600160481b03998a168152978916602089015264ffffffffff96871690880152938716606087015261ffff90921660808601529490941660a0840152921660c08201526001600160801b0390911660e08201526101000161026d565b6102df7f000000000000000000000000000000000000000000000000000000000000000081565b610289610784366004614222565b611756565b6102b6610797366004614296565b611870565b6102896107aa3660046141c8565b61189b565b6107b76118e4565b60405161026d91906142c0565b6060600380546107d3906142e9565b80601f01602080910402602001604051908101604052809291908181526020018280546107ff906142e9565b801561084c5780601f106108215761010080835404028352916020019161084c565b820191906000526020600020905b81548152906001019060200180831161082f57829003601f168201915b5050505050905090565b6000336108648185856119e6565b60019150505b92915050565b6005546001600160a01b038281169116146108d25760405162461bcd60e51b815260206004820152601960248201527f43616c6c6572206973206e6f7420544220636f6e74726163740000000000000060448201526064015b60405180910390fd5b6108dc8383611b0a565b505050565b6127106305f5e1006108f56008600a61441d565b6108ff9190614429565b610909919061444b565b81565b60003361091a858285611bc9565b610925858585611c3d565b60019150505b9392505050565b600a602052816000526040600020818154811061094e57600080fd5b60009182526020909120015464ffffffffff811692506001600160481b03600160281b820481169250600160701b8204169061ffff600160b81b8204811691600160c81b8104821691600160d81b8204169060ff600160e81b9091041687565b60006109ed84848480806020026020016040519081016040528093929190818152602001838360200280828437600092019190915250611de192505050565b949350505050565b600080606060028416158015906004861615159060088716151590610aba57818015610a1e5750805b15610a665760405162461bcd60e51b8152602060048201526018602482015277135653950e8818db185a5b519b1859dcc81a5b9d985b1a5960421b60448201526064016108c9565b600160f81b60f889901b1615610a7d576003610a80565b60025b6040516001600160f81b031960f883901b166020820152602181018b90529095506041016040516020818303038152906040529350610b41565b81158015610ac6575080155b610b0d5760405162461bcd60e51b8152602060048201526018602482015277135653950e8818db185a5b519b1859dcc81a5b9d985b1a5960421b60448201526064016108c9565b604051600160fa1b6020820152602181018a9052604181018990526004955060610160405160208183030381529060405293505b6000610b4c85611e0e565b90508215610b9957604051600560f21b60208201526001600160601b031982166022820152610b8c90603601604051602081830303815290604052611e0e565b965050505050505061092b565b9998505050505050505050565b6109096032600761444b565b610bba613ca0565b610bc2613ca0565b610bcc8282611ebb565b336000908152600a602052604081208054909103610c255760405162461bcd60e51b8152602060048201526016602482015275135653950e88115b5c1d1e481cdd185ad9481b1a5cdd60521b60448201526064016108c9565b80548510610c705760405162461bcd60e51b8152602060048201526018602482015277135653950e881cdd185ad9525b99195e081a5b9d985b1a5960421b60448201526064016108c9565b610c78613d01565b610c9e828781548110610c8d57610c8d614462565b906000526020600020018683611f69565b610ca784612037565b6000808260a001516000141590506000806000905060008086606001518a610140015110610d90578415610ce15786608001519550610d76565b610ceb8a8861204b565b86606001518a6101400151610d009190614478565b95508660800151861115610d1a5786608001519550610d76565b61015e861015610d76578660c0015115610d765760405162461bcd60e51b815260206004820152601d60248201527f4d594e543a204175746f2d7374616b65207374696c6c206c6f636b656400000060448201526064016108c9565b610d818a8888612073565b92965090945092509050610e03565b8660c0015115610de25760405162461bcd60e51b815260206004820152601d60248201527f4d594e543a204175746f2d7374616b65207374696c6c206c6f636b656400000060448201526064016108c9565b86604001518a602001818151610df89190614478565b905250602087015193505b610e1a8b8860200151896040015186868b8b612137565b8015801590610e27575084155b15610e3657610e368a826121fc565b8315610e5157610e463385611b0a565b610e518a8886612255565b60208701518a518b90610e65908390614478565b905250610e72888d6122ef565b610e7c8a8a612484565b505050505050505050505050565b600033610864818585610e9d8383611870565b610ea7919061448b565b6119e6565b6006546000906001600160481b0316610ec460025490565b610ece919061448b565b905090565b610edb613ca0565b610ee3613ca0565b610eed8282611ebb565b6001831015610f4d5760405162461bcd60e51b815260206004820152602660248201527f4d594e543a206e65775374616b656444617973206c6f776572207468616e206d604482015265696e696d756d60d01b60648201526084016108c9565b610f5682612037565b610f638285856000612664565b610f6d3385612939565b610f778282612484565b50505050565b6000610ece612a6b565b610f8f613ca0565b610f97613ca0565b610fa18282611ebb565b6001600160a01b0385166000908152600a602052604081205490036110015760405162461bcd60e51b8152602060048201526016602482015275135653950e88115b5c1d1e481cdd185ad9481b1a5cdd60521b60448201526064016108c9565b6001600160a01b0385166000908152600a602052604090205484106110635760405162461bcd60e51b8152602060048201526018602482015277135653950e881cdd185ad9525b99195e081a5b9d985b1a5960421b60448201526064016108c9565b6001600160a01b0385166000908152600a6020526040812080548690811061108d5761108d614462565b9060005260206000200190506110a1613d01565b6110ac828683611f69565b806080015181606001516110c0919061448b565b84610140015110156111145760405162461bcd60e51b815260206004820152601c60248201527f4d594e543a205374616b65206e6f742066756c6c79207365727665640000000060448201526064016108c9565b60a0810151156111665760405162461bcd60e51b815260206004820152601c60248201527f4d594e543a205374616b6520616c726561647920756e6c6f636b65640000000060448201526064016108c9565b61116f84612037565b611179848261204b565b600080600061118d87858660800151612073565b935093509350506111aa8a89866020015187604001518787612a87565b80156111ba576111ba87826121fc565b83518554602086015160408701516060880151608089015160a08a015160c08b015164ffffffffff9097166001600160701b031990961695909517600160281b6001600160481b039586160217600160701b600160c81b031916600160701b949093169390930261ffff60b81b191691909117600160b81b61ffff928316021763ffffffff60c81b1916600160c81b9282169290920261ffff60d81b191691909117600160d81b91909216021760ff60e81b1916600160e81b911515919091021785556112878787612484565b50505050505050505050565b61129d8282611ebb565b5050565b606081831080156112b8575060075461ffff168211155b6112fa5760405162461bcd60e51b8152602060048201526013602482015272135653950e881c985b99d9481a5b9d985b1a59606a1b60448201526064016108c9565b6113048383614478565b67ffffffffffffffff81111561131c5761131c614024565b604051908082528060200260200182016040528015611345578160200160208202803683370190505b509050826000805b6113596048600261444b565b600084815260096020526040902054600160901b810466ffffffffffffff1690911b600160481b820460481b71ffffffffffffffffff00000000000000000016176001600160481b039091161790508084836113b48161449e565b9450815181106113c6576113c6614462565b6020908102919091010152846113db8461449e565b9350831061134d5750505092915050565b336001600160a01b037f000000000000000000000000000000000000000000000000000000000000000016146114545760405162461bcd60e51b815260206004820152600d60248201526c2737ba103a34329027bbb732b960991b60448201526064016108c9565b600580546001600160a01b0319166001600160a01b0392909216919091179055565b600080611481612a6b565b905060018110156114e25760405162461bcd60e51b815260206004820152602560248201527f4d594e543a20436c61696d20706861736520686173206e6f7420796574207374604482015264185c9d195960da1b60648201526084016108c9565b6114ee6032600761444b565b6114f990600161448b565b81106115475760405162461bcd60e51b815260206004820152601b60248201527f4d594e543a20436c61696d2070686173652068617320656e646564000000000060448201526064016108c9565b6001600160601b0319861660009081526008602052604090205460ff16156115735760009150506109ed565b6115b18686868680806020026020016040519081016040528093929190818152602001838360200280828437600092019190915250612b2492505050565b9695505050505050565b6115c3613ca0565b6115cb613ca0565b6115d58282611ebb565b60018261014001511161161c5760405162461bcd60e51b815260206004820152600f60248201526e4d594e543a20546f6f206561726c7960881b60448201526064016108c9565b8215611698578161014001518311156116875760405162461bcd60e51b815260206004820152602760248201527f4d594e543a206265666f72654461792063616e6e6f7420626520696e207468656044820152662066757475726560c81b60648201526084016108c9565b61169382846000612c61565b6116a9565b6116a9828361014001516000612c61565b6108dc8282612484565b6060600480546107d3906142e9565b600033816116d08286611870565b9050838110156117305760405162461bcd60e51b815260206004820152602560248201527f45524332303a2064656372656173656420616c6c6f77616e63652062656c6f77604482015264207a65726f60d81b60648201526084016108c9565b61173d82868684036119e6565b506001949350505050565b600033610864818585611c3d565b6000601b8460ff16101580156117705750601e8460ff1611155b6117ae5760405162461bcd60e51b815260206004820152600f60248201526e135653950e881d881a5b9d985b1a59608a1b60448201526064016108c9565b6040805160208082018a90528183018990528251808303840181526060909201909252805191012060006117eb6117e68c8c8a612d46565b612f29565b60408051600081526020810180835283905260ff89169181019190915260608101879052608081018690529091506001600160a01b0383169060019060a0016020604051602081039080840390855afa15801561184c573d6000803e3d6000fd5b505050602060405103516001600160a01b0316149250505098975050505050505050565b6001600160a01b03918216600090815260016020908152604080832093909416825291909152205490565b60006118db8585858580806020026020016040519081016040528093929190818152602001838360200280828437600092019190915250612b2492505050565b95945050505050565b6118ec613d47565b6007546000908190819061190f90600160801b90046001600160801b0316612fe8565b604080516101a0810182526006546001600160481b038082168352600160481b82048116602084015264ffffffffff600160901b8304811694840194909452600160b81b9091048116606083015260075461ffff8116608084015262010000810490911660a0830152600160581b900490911660c082015260e081018290526101008101839052610120810184905242610140820152929550909350915061016081016119bb60025490565b8152602001600b60006119cc612a6b565b815260200190815260200160002054815250935050505090565b6001600160a01b038316611a485760405162461bcd60e51b8152602060048201526024808201527f45524332303a20617070726f76652066726f6d20746865207a65726f206164646044820152637265737360e01b60648201526084016108c9565b6001600160a01b038216611aa95760405162461bcd60e51b815260206004820152602260248201527f45524332303a20617070726f766520746f20746865207a65726f206164647265604482015261737360f01b60648201526084016108c9565b6001600160a01b0383811660008181526001602090815260408083209487168084529482529182902085905590518481527f8c5be1e5ebec7d5bd14f71427d1e84f3dd0314c0f7b2291e5b200ac8c7c3b925910160405180910390a3505050565b6001600160a01b038216611b605760405162461bcd60e51b815260206004820152601f60248201527f45524332303a206d696e7420746f20746865207a65726f20616464726573730060448201526064016108c9565b8060026000828254611b72919061448b565b90915550506001600160a01b038216600081815260208181526040808320805486019055518481527fddf252ad1be2c89b69c2b068fc378daa952ba7f163c4a11628f55a4df523b3ef910160405180910390a35050565b6000611bd58484611870565b90506000198114610f775781811015611c305760405162461bcd60e51b815260206004820152601d60248201527f45524332303a20696e73756666696369656e7420616c6c6f77616e636500000060448201526064016108c9565b610f7784848484036119e6565b6001600160a01b038316611ca15760405162461bcd60e51b815260206004820152602560248201527f45524332303a207472616e736665722066726f6d20746865207a65726f206164604482015264647265737360d81b60648201526084016108c9565b6001600160a01b038216611d035760405162461bcd60e51b815260206004820152602360248201527f45524332303a207472616e7366657220746f20746865207a65726f206164647260448201526265737360e81b60648201526084016108c9565b6001600160a01b03831660009081526020819052604090205481811015611d7b5760405162461bcd60e51b815260206004820152602660248201527f45524332303a207472616e7366657220616d6f756e7420657863656564732062604482015265616c616e636560d01b60648201526084016108c9565b6001600160a01b03848116600081815260208181526040808320878703905593871680835291849020805487019055925185815290927fddf252ad1be2c89b69c2b068fc378daa952ba7f163c4a11628f55a4df523b3ef910160405180910390a3610f77565b600061092b827f4e831acb4223b66de3b3d2e54a2edeefb0de3d7916e2886a4b134d9764d41bec85613055565b60006003600283604051611e2291906144b7565b602060405180830381855afa158015611e3f573d6000803e3d6000fd5b5050506040513d601f19601f82011682018060405250810190611e6291906144d3565b604051602001611e7491815260200190565b60408051601f1981840301815290829052611e8e916144b7565b602060405180830381855afa158015611eab573d6000803e3d6000fd5b50506040515160601b9392505050565b6006546001600160481b038082168452600160481b82048116602085015264ffffffffff600160901b830481166040860152600160b81b9092048116606085015260075461ffff8116608086015262010000810490911660a0850152600160581b810490911660c0840152611f40906001600160801b03600160801b90910416612fe8565b60e0850152610100840152610120830152611f59612a6b565b61014083015261129d828261306b565b825464ffffffffff838116911614611fc35760405162461bcd60e51b815260206004820152601f60248201527f4d594e543a207374616b654964506172616d206e6f7420696e207374616b650060448201526064016108c9565b915464ffffffffff811683526001600160481b03600160281b820481166020850152600160701b820416604084015261ffff600160b81b820481166060850152600160c81b820481166080850152600160d81b82041660a084015260ff600160e81b90910416151560c09092019190915250565b612048818261014001516001612c61565b50565b80604001518260a0018181516120619190614478565b9052506101409091015160a090910152565b60008060008085608001518510156120ba5761209e8787606001518860800151888a604001516130d3565b602088015191945092506120b390849061448b565b9350612108565b604086015160608701516120d99189916120d4898261448b565b6131c1565b92508286602001516120eb919061448b565b9350612105866060015187608001518860a001518761332d565b91505b811561212e578382111561211f575060009261212e565b508061212b8185614478565b93505b93509350935093565b8664ffffffffff16336001600160a01b03167f72d9c5a7ab13846e08d9c838f9e866a1bb4a66a2fd3ba3c9e7da3cf9e394dfd760b8876001600160481b0316901b6070896001600160481b0316901b60288b6001600160481b0316901b4264ffffffffff16171717846121ab5760006121b1565b600160581b5b6bffffffffffffffffffffffff1660488761ffff16901b886001600160481b031617176040516121eb929190918252602082015260400190565b60405180910390a350505050505050565b6000612209600283614429565b9050801561222f5761222f739a6a414d6f3497c05e3b1de90520765fa1e07c0382611b0a565b6122398183614478565b9050808360600181815161224d919061448b565b905250505050565b81602001518111156108dc57600061227182846080015161338d565b905060008360400151620186a0838561228a919061448b565b612294919061444b565b61229e9190614429565b90506122af6001600160281b614478565b8111156122c8576122c56001600160281b614478565b90505b84604001518111156122e8576040850181905283516122e89082906134fb565b5050505050565b815460009061230090600190614478565b905080821461244d5782818154811061231b5761231b614462565b9060005260206000200183838154811061233757612337614462565b6000918252602090912082549101805464ffffffffff19811664ffffffffff909316928317825583546001600160481b03600160281b9182900481169091026001600160701b0319909216909317178082558354600160701b9081900490931690920268ffffffffffffffffff60701b19831681178255835461ffff600160b81b91829004811690910261ffff60b81b19909216600160701b600160c81b031990941693909317178082558354600160c81b9081900484160261ffff60c81b198216811783558454600160d81b9081900490941690930261ffff60d81b1990931663ffffffff60c81b199091161791909117808255915460ff600160e81b918290041615150260ff60e81b199092169190911790555b8280548061245d5761245d6144ec565b600082815260209020810160001990810180546001600160f01b0319169055019055505050565b8051825114158061249d57508060200151826020015114155b806124b057508060400151826040015114155b806124c357508060600151826060015114155b15612546578151600680546020850151604086015160608701516001600160481b03908116600160b81b026001600160b81b0364ffffffffff909316600160901b029290921671ffffffffffffffffffffffffffffffffffff938216600160481b026001600160901b031990951691909616179290921716929092179190911790555b8060800151826080015114158061256557508060a001518260a0015114155b8061258657508060c0015164ffffffffff168260c0015164ffffffffff1614155b8061259957508060e001518260e0015114155b806125ae575080610100015182610100015114155b806125c3575080610120015182610120015114155b1561129d5760808201516007805460a085015160c086015164ffffffffff16600160581b0264ffffffffff60581b196001600160481b0390921662010000026affffffffffffffffffffff1990931661ffff90951694909417919091171691909117905561012082015161010083015160e0840151612643929190613554565b600780546001600160801b03928316600160801b0292169190911790555050565b6115b38211156126c65760405162461bcd60e51b815260206004820152602760248201527f4d594e543a206e65775374616b65644461797320686967686572207468616e206044820152666d6178696d756d60c81b60648201526084016108c9565b60006126d2848461338d565b905060008560400151620186a083876126eb919061448b565b6126f5919061444b565b6126ff9190614429565b9050806000036127775760405162461bcd60e51b815260206004820152603860248201527f4d594e543a206e65775374616b6564486561727473206d75737420626520617460448201527f206c65617374206d696e696d756d20736861726552617465000000000000000060648201526084016108c9565b600060018761014001511061279c5761014087015161279790600161448b565b6127a7565b6127a760018061448b565b905060008760c00180516127ba90614502565b64ffffffffff1690819052336000908152600a602052604090209091506128f990828986868b8b6040805160e08101825264ffffffffff97881681526001600160481b03968716602080830191825296881692820192835261ffff9586166060830190815294861660808301908152600060a0840181815295151560c085019081528c54600181018e559c8252989020925192909a0180549151935195519a51945197511515600160e81b0260ff60e81b19988816600160d81b0261ffff60d81b19968916600160c81b029690961663ffffffff60c81b199c909816600160b81b0261ffff60b81b19978b16600160701b0297909716600160701b600160c81b031995909a16600160281b026001600160701b031990931693909a16929092171791909116959095179190911795909516179390931792909216179055565b6129068188858989613578565b8288602001818151612918919061448b565b90525087518790899061292c90839061448b565b9052505050505050505050565b6001600160a01b0382166129995760405162461bcd60e51b815260206004820152602160248201527f45524332303a206275726e2066726f6d20746865207a65726f206164647265736044820152607360f81b60648201526084016108c9565b6001600160a01b03821660009081526020819052604090205481811015612a0d5760405162461bcd60e51b815260206004820152602260248201527f45524332303a206275726e20616d6f756e7420657863656564732062616c616e604482015261636560f01b60648201526084016108c9565b6001600160a01b0383166000818152602081815260408083208686039055600280548790039055518581529192917fddf252ad1be2c89b69c2b068fc378daa952ba7f163c4a11628f55a4df523b3ef910160405180910390a3505050565b6000603c612a7d6365645b8f42614478565b610ece9190614429565b604080514264ffffffffff9081166dffffffffffffffffff0000000000602889901b161768ffffffffffffffffff60701b607088901b16176001600160b81b031960b887901b161782526001600160481b03841660208301523392908816916001600160a01b038a16917fd824970a2cf19cc2b630c87ce5b00f67301cac3ac60513d027c7a39129f93b46910160405180910390a4505050505050565b6000602d6001612b35826060614478565b6001901b612b439190614478565b901b82600081518110612b5857612b58614462565b602002602001015160001c16600014612ba95760405162461bcd60e51b8152602060048201526013602482015272135653950e881c1c9bdbd9881a5b9d985b1a59606a1b60448201526064016108c9565b60015b8251811015612c4957602d6001612bc4826060614478565b6001901b612bd29190614478565b901b838281518110612be657612be6614462565b602002602001015160001c16600003612c375760405162461bcd60e51b8152602060048201526013602482015272135653950e881c1c9bdbd9881a5b9d985b1a59606a1b60448201526064016108c9565b80612c418161449e565b915050612bac565b506001600160601b0319841683176118db8184611de1565b81836080015110612c7157505050565b612c9560405180606001604052806000815260200160008152602001600081525090565b8351600254612ca4919061448b565b81526080840151612cb685838361360c565b602085015115612ce15784602001518560a001818151612cd6919061448b565b905250600060208601525b83612ceb8261449e565b9150811015612d0457612cff85838361360c565b612ce1565b612d1385608001518285613684565b608085018190526020820151156122e8576122e8739a6a414d6f3497c05e3b1de90520765fa1e07c038360200151611b0a565b60606000600183168103612d82576040518060400160405280601081526020016f086d8c2d2dabe9ab29ca8bee8debe60f60831b815250612db9565b6040518060400160405280601781526020017f436c61696d5f426974636f696e4d594e545f746f5f30780000000000000000008152505b905060108316156000612dcc87836136fd565b90506000869003612e3c576018772134ba31b7b4b71029b4b3b732b21026b2b9b9b0b3b29d0560411b612e0160146002614526565b8551612e0d9190614549565b8584604051602001612e23959493929190614562565b604051602081830303815290604052935050505061092b565b6000612e4a600c6002614526565b60ff1667ffffffffffffffff811115612e6557612e65614024565b6040519080825280601f01601f191660200182016040528015612e8f576020820181803683370190505b509050612e9e8188600c6137f0565b6018772134ba31b7b4b71029b4b3b732b21026b2b9b9b0b3b29d0560411b612ec8600c6002614526565b612ed460146002614526565b8751612ee09190614549565b612eeb906001614549565b612ef59190614549565b868585604051602001612f0d969594939291906145ca565b6040516020818303038152906040529450505050509392505050565b600060028083604051612f3c91906144b7565b602060405180830381855afa158015612f59573d6000803e3d6000fd5b5050506040513d601f19601f82011682018060405250810190612f7c91906144d3565b604051602001612f8e91815260200190565b60408051601f1981840301815290829052612fa8916144b7565b602060405180830381855afa158015612fc5573d6000803e3d6000fd5b5050506040513d601f19601f8201168201806040525081019061086a91906144d3565b60008080612ff86033600261444b565b6001600160801b0380861690911c16925061301b60016608000000000000614478565b603385901c16691fffffffffffffffffff16915061304160016608000000000000614478565b846001600160801b03161690509193909250565b60008261306285846138eb565b14949350505050565b815181526020808301519082015260408083015190820152606080830151908201526080808301519082015260a0808301519082015260c08083015164ffffffffff169082015260e08083015190820152610100808301519082015261012091820151910152565b600080806130e1858861448b565b9050600060026130f288600161448b565b6130fc9190614429565b9050605a81101561310b5750605a5b856000036131365760006131208a878b613938565b905061312c828261444b565b93505050506131b7565b8581101561317f57600061314a828a61448b565b90506131588a878b846131c1565b935060006131688b8884876131c1565b9050613174818661448b565b9550505050506131b7565b61318b89868a856131c1565b935085810361319c578392506131b4565b856131a7828661444b565b6131b19190614429565b92505b50505b9550959350505050565b6000825b82811015613222576000818152600960205260409020546001600160481b03600160481b82048116916131fa9188911661444b565b6132049190614429565b61320e908361448b565b91508061321a8161449e565b9150506131c5565b5061322f6032600761444b565b61323a90600161448b565b61324590600161448b565b8311158015613274575061325b6032600761444b565b61326690600161448b565b61327190600161448b565b82115b156109ed57600060098161328a6032600761444b565b61329590600161448b565b6132a090600161448b565b8152602081019190915260400160002054600160481b90046001600160481b0316856127106305f5e1006132d66008600a61441d565b6132e09190614429565b6132ea919061444b565b8860e001516132f9919061444b565b613303919061444b565b61330d9190614429565b90506133198682613a6b565b613323908261448b565b6115b1908361448b565b60008061333c6002600761444b565b613346868861448b565b613350919061448b565b90508084116133635760009150506109ed565b61336f6064600761444b565b6133798286614478565b613383908561444b565b6115b19190614429565b60008060018311156133fd57606460c86133aa6014618e30614429565b6133b4919061444b565b6133be9190614429565b8311156133ef57606460c86133d66014618e30614429565b6133e0919061444b565b6133ea9190614429565b6133fa565b6133fa600184614478565b90505b600061340b6008600a61441d565b613419906308f0d18061444b565b85111561343f5761342c6008600a61441d565b61343a906308f0d18061444b565b613441565b845b90506134506014618e30614429565b61345a908261444b565b600a61346760088261441d565b613475906308f0d18061444b565b61348090606461444b565b61348a9190614429565b613494908461444b565b61349e919061448b565b9250600a6134ad60088261441d565b6134bb906308f0d18061444b565b6134c690606461444b565b6134d09190614429565b6134dd6014618e30614429565b6134e7919061444b565b6134f1848761444b565b6118db9190614429565b8064ffffffffff167f9861fa0ed101659f7a59b4583fcc798dfa4f3b419bea371c8ee2ad0ffe13a31e60288464ffffffffff16901b4264ffffffffff161760405161354891815260200190565b60405180910390a25050565b6000806135636033600261444b565b9490941b60339390931b929092171792915050565b64ffffffffff8516337f14872dc760f33532684e68e1b6d5fd3f71ba7b07dee76bdb2b084f28b74233ef836135ae5760006135b4565b600160c81b5b6001600160d01b031660b88661ffff16901b6070886001600160481b0316901b60288a6001600160481b0316901b4264ffffffffff16171717176040516135fd91815260200190565b60405180910390a35050505050565b613617838383613ac1565b60409182015160009182526009602052919020805460a084015160e09094015166ffffffffffffff16600160901b0266ffffffffffffff60901b196001600160481b03958616600160481b026001600160901b031990931695909416949094171791909116919091179055565b337fb8d6eb541ded1720cc657b719f57abcb1fe4711cb7ead82751b135f5d94bc944826136b25760006136b8565b600160481b5b69ffffffffffffffffffff1660388561ffff16901b60288761ffff16901b4264ffffffffff161717176040516136f091815260200190565b60405180910390a2505050565b606061370b60146002614526565b60ff1667ffffffffffffffff81111561372657613726614024565b6040519080825280601f01601f191660200182016040528015613750576020820181803683370190505b50905061376d816001600160601b0319606086901b1660146137f0565b811561086a57805160208201206000805b60148110156137e757600083826020811061379b5761379b614462565b1a90506137bb85846137ac8161449e565b955060048460ff16901c613bf9565b6137d485846137c98161449e565b955083600f16613bf9565b50806137df8161449e565b91505061377e565b50505092915050565b6000805b828110156122e857600084826020811061381057613810614462565b1a90506f181899199a1a9b1b9c1cb0b131b232b360811b600482901c60ff166010811061383f5761383f614462565b1a60f81b868461384e8161449e565b95508151811061386057613860614462565b60200101906001600160f81b031916908160001a9053506f181899199a1a9b1b9c1cb0b131b232b360811b600f82166010811061389f5761389f614462565b1a60f81b86846138ae8161449e565b9550815181106138c0576138c0614462565b60200101906001600160f81b031916908160001a9053505080806138e39061449e565b9150506137f4565b600081815b84518110156139305761391c8286838151811061390f5761390f614462565b6020026020010151613c71565b9150806139288161449e565b9150506138f0565b509392505050565b6000613942613ca0565b61394c858261306b565b61397060405180606001604052806000815260200160008152602001600081525090565b855160025461397f919061448b565b815261398c828286613ac1565b848260a00181815161399e919061448b565b90525060a082015160408201516139b690879061444b565b6139c09190614429565b92506139ce6032600761444b565b6139d990600161448b565b6139e490600161448b565b8403613a625760a0820151600090866127106305f5e100613a076008600a61441d565b613a119190614429565b613a1b919061444b565b8560e00151613a2a919061444b565b613a34919061444b565b613a3e9190614429565b9050613a4a8382613a6b565b613a54908261448b565b613a5e908561448b565b9350505b50509392505050565b6000806301ab362e84610120015184613a84919061444b565b613a8e9190614429565b9050600066033bb85fc52d9985610100015185613aab919061444b565b613ab59190614429565b90506118db818361448b565b81516305fcbae390613ad59061271061444b565b613adf9190614429565b6040830152613af06032600761444b565b613afb90600161448b565b811015613bca576000613b106032600761444b565b6127106305f5e100613b246008600a61441d565b613b2e9190614429565b613b38919061444b565b8560e00151613b47919061444b565b613b519190614429565b90506000613b6e85838660400151613b69919061448b565b613a6b565b613b78908361448b565b90508084602001818151613b8c919061448b565b905250835181908590613ba090839061448b565b9052506040840151613bb3908690613a6b565b84604001818151613bc4919061448b565b90525050505b6060830151156108dc57826060015182604001818151613bea919061448b565b90525060006060840152505050565b6000838381518110613c0d57613c0d614462565b01602001516001600160f81b0319169050606160f81b8110801590613c36575060088260ff1610155b15610f775780602060f81b18848481518110613c5457613c54614462565b60200101906001600160f81b031916908160001a90535050505050565b6000818310613c8d57600082815260208490526040902061092b565b600083815260208390526040902061092b565b604051806101600160405280600081526020016000815260200160008152602001600081526020016000815260200160008152602001600064ffffffffff168152602001600081526020016000815260200160008152602001600081525090565b6040518060e00160405280600064ffffffffff16815260200160008152602001600081526020016000815260200160008152602001600081526020016000151581525090565b604051806101a00160405280600d906020820280368337509192915050565b60005b83811015613d81578181015183820152602001613d69565b50506000910152565b6020815260008251806020840152613da9816040850160208701613d66565b601f01601f19169190910160400192915050565b80356001600160a01b0381168114613dd457600080fd5b919050565b60008060408385031215613dec57600080fd5b613df583613dbd565b946020939093013593505050565b600080600060608486031215613e1857600080fd5b613e2184613dbd565b925060208401359150613e3660408501613dbd565b90509250925092565b600080600060608486031215613e5457600080fd5b613e5d84613dbd565b9250613e6b60208501613dbd565b9150604084013590509250925092565b60008083601f840112613e8d57600080fd5b50813567ffffffffffffffff811115613ea557600080fd5b6020830191508360208260051b8501011115613ec057600080fd5b9250929050565b600080600060408486031215613edc57600080fd5b83359250602084013567ffffffffffffffff811115613efa57600080fd5b613f0686828701613e7b565b9497909650939450505050565b803560ff81168114613dd457600080fd5b600080600060608486031215613f3957600080fd5b8335925060208401359150613e3660408501613f13565b60008060408385031215613f6357600080fd5b50508035926020909101359150565b600060208284031215613f8457600080fd5b61092b82613dbd565b803564ffffffffff81168114613dd457600080fd5b60008060408385031215613fb557600080fd5b82359150613fc560208401613f8d565b90509250929050565b60008060408385031215613fe157600080fd5b82359150613fc560208401613dbd565b60008060006060848603121561400657600080fd5b61400f84613dbd565b925060208401359150613e3660408501613f8d565b634e487b7160e01b600052604160045260246000fd5b604051610160810167ffffffffffffffff8111828210171561406c57634e487b7160e01b600052604160045260246000fd5b60405290565b6000610160828403121561408557600080fd5b61408d61403a565b9050813581526020820135602082015260408201356040820152606082013560608201526080820135608082015260a082013560a08201526140d160c08301613f8d565b60c082015260e082013560e082015261010080830135818301525061012080830135818301525061014080830135818301525092915050565b6000806102c0838503121561411e57600080fd5b6141288484614072565b9150613fc5846101608501614072565b6020808252825182820181905260009190848201906040850190845b8181101561417057835183529284019291840191600101614154565b50909695505050505050565b80356001600160601b031981168114613dd457600080fd5b6000602082840312156141a657600080fd5b61092b8261417c565b6000602082840312156141c157600080fd5b5035919050565b600080600080606085870312156141de57600080fd5b6141e78561417c565b935060208501359250604085013567ffffffffffffffff81111561420a57600080fd5b61421687828801613e7b565b95989497509550505050565b600080600080600080600080610100898b03121561423f57600080fd5b61424889613dbd565b975060208901359650604089013595506060890135945061426b60808a01613f13565b935061427960a08a01613f13565b925060c0890135915060e089013590509295985092959890939650565b600080604083850312156142a957600080fd5b6142b283613dbd565b9150613fc560208401613dbd565b6101a08101818360005b600d8110156137e75781518352602092830192909101906001016142ca565b600181811c908216806142fd57607f821691505b60208210810361431d57634e487b7160e01b600052602260045260246000fd5b50919050565b634e487b7160e01b600052601160045260246000fd5b600181815b8085111561437457816000190482111561435a5761435a614323565b8085161561436757918102915b93841c939080029061433e565b509250929050565b60008261438b5750600161086a565b816143985750600061086a565b81600181146143ae57600281146143b8576143d4565b600191505061086a565b60ff8411156143c9576143c9614323565b50506001821b61086a565b5060208310610133831016604e8410600b84101617156143f7575081810a61086a565b6144018383614339565b806000190482111561441557614415614323565b029392505050565b600061092b838361437c565b60008261444657634e487b7160e01b600052601260045260246000fd5b500490565b808202811582820484141761086a5761086a614323565b634e487b7160e01b600052603260045260246000fd5b8181038181111561086a5761086a614323565b8082018082111561086a5761086a614323565b6000600182016144b0576144b0614323565b5060010190565b600082516144c9818460208701613d66565b9190910192915050565b6000602082840312156144e557600080fd5b5051919050565b634e487b7160e01b600052603160045260246000fd5b600064ffffffffff80831681810361451c5761451c614323565b6001019392505050565b60ff818116838216029081169081811461454257614542614323565b5092915050565b60ff818116838216019081111561086a5761086a614323565b6001600160f81b031960f887811b8216835267ffffffffffffffff198716600184015285901b16601982015282516000906145a481601a850160208801613d66565b8351908301906145bb81601a840160208801613d66565b01601a01979650505050505050565b6001600160f81b031960f888811b8216835267ffffffffffffffff198816600184015286901b166019820152835160009061460c81601a850160208901613d66565b84519083019061462381601a840160208901613d66565b605f60f81b601a9290910191820152835161464581601b840160208801613d66565b01601b019897505050505050505056fea264697066735822122012f69103eded630caacf8d4fca3643719634b1c4f4072aa897a97a5c836a7e8c64736f6c63430008130033",
			"opcodes": "PUSH1 0xA0 PUSH1 0x40 MSTORE CALLVALUE DUP1 ISZERO PUSH3 0x11 JUMPI PUSH1 0x0 DUP1 REVERT JUMPDEST POP PUSH1 0x40 MLOAD DUP1 PUSH1 0x40 ADD PUSH1 0x40 MSTORE DUP1 PUSH1 0x7 DUP2 MSTORE PUSH1 0x20 ADD PUSH7 0x135E5B9D1A5CDD PUSH1 0xCA SHL DUP2 MSTORE POP PUSH1 0x40 MLOAD DUP1 PUSH1 0x40 ADD PUSH1 0x40 MSTORE DUP1 PUSH1 0x4 DUP2 MSTORE PUSH1 0x20 ADD PUSH4 0x13565395 PUSH1 0xE2 SHL DUP2 MSTORE POP DUP2 PUSH1 0x3 SWAP1 DUP2 PUSH3 0x60 SWAP2 SWAP1 PUSH3 0x121 JUMP JUMPDEST POP PUSH1 0x4 PUSH3 0x6F DUP3 DUP3 PUSH3 0x121 JUMP JUMPDEST POP POP CALLER PUSH1 0x80 MSTORE POP PUSH3 0x1ED JUMP JUMPDEST PUSH4 0x4E487B71 PUSH1 0xE0 SHL PUSH1 0x0 MSTORE PUSH1 0x41 PUSH1 0x4 MSTORE PUSH1 0x24 PUSH1 0x0 REVERT JUMPDEST PUSH1 0x1 DUP2 DUP2 SHR SWAP1 DUP3 AND DUP1 PUSH3 0xA7 JUMPI PUSH1 0x7F DUP3 AND SWAP2 POP JUMPDEST PUSH1 0x20 DUP3 LT DUP2 SUB PUSH3 0xC8 JUMPI PUSH4 0x4E487B71 PUSH1 0xE0 SHL PUSH1 0x0 MSTORE PUSH1 0x22 PUSH1 0x4 MSTORE PUSH1 0x24 PUSH1 0x0 REVERT JUMPDEST POP SWAP2 SWAP1 POP JUMP JUMPDEST PUSH1 0x1F DUP3 GT ISZERO PUSH3 0x11C JUMPI PUSH1 0x0 DUP2 DUP2 MSTORE PUSH1 0x20 DUP2 KECCAK256 PUSH1 0x1F DUP6 ADD PUSH1 0x5 SHR DUP2 ADD PUSH1 0x20 DUP7 LT ISZERO PUSH3 0xF7 JUMPI POP DUP1 JUMPDEST PUSH1 0x1F DUP6 ADD PUSH1 0x5 SHR DUP3 ADD SWAP2 POP JUMPDEST DUP2 DUP2 LT ISZERO PUSH3 0x118 JUMPI DUP3 DUP2 SSTORE PUSH1 0x1 ADD PUSH3 0x103 JUMP JUMPDEST POP POP POP JUMPDEST POP POP POP JUMP JUMPDEST DUP2 MLOAD PUSH1 0x1 PUSH1 0x1 PUSH1 0x40 SHL SUB DUP2 GT ISZERO PUSH3 0x13D JUMPI PUSH3 0x13D PUSH3 0x7C JUMP JUMPDEST PUSH3 0x155 DUP2 PUSH3 0x14E DUP5 SLOAD PUSH3 0x92 JUMP JUMPDEST DUP5 PUSH3 0xCE JUMP JUMPDEST PUSH1 0x20 DUP1 PUSH1 0x1F DUP4 GT PUSH1 0x1 DUP2 EQ PUSH3 0x18D JUMPI PUSH1 0x0 DUP5 ISZERO PUSH3 0x174 JUMPI POP DUP6 DUP4 ADD MLOAD JUMPDEST PUSH1 0x0 NOT PUSH1 0x3 DUP7 SWAP1 SHL SHR NOT AND PUSH1 0x1 DUP6 SWAP1 SHL OR DUP6 SSTORE PUSH3 0x118 JUMP JUMPDEST PUSH1 0x0 DUP6 DUP2 MSTORE PUSH1 0x20 DUP2 KECCAK256 PUSH1 0x1F NOT DUP7 AND SWAP2 JUMPDEST DUP3 DUP2 LT ISZERO PUSH3 0x1BE JUMPI DUP9 DUP7 ADD MLOAD DUP3 SSTORE SWAP5 DUP5 ADD SWAP5 PUSH1 0x1 SWAP1 SWAP2 ADD SWAP1 DUP5 ADD PUSH3 0x19D JUMP JUMPDEST POP DUP6 DUP3 LT ISZERO PUSH3 0x1DD JUMPI DUP8 DUP6 ADD MLOAD PUSH1 0x0 NOT PUSH1 0x3 DUP9 SWAP1 SHL PUSH1 0xF8 AND SHR NOT AND DUP2 SSTORE JUMPDEST POP POP POP POP POP PUSH1 0x1 SWAP1 DUP2 SHL ADD SWAP1 SSTORE POP JUMP JUMPDEST PUSH1 0x80 MLOAD PUSH2 0x468B PUSH3 0x210 PUSH1 0x0 CODECOPY PUSH1 0x0 DUP2 DUP2 PUSH2 0x754 ADD MSTORE PUSH2 0x13F7 ADD MSTORE PUSH2 0x468B PUSH1 0x0 RETURN INVALID PUSH1 0x80 PUSH1 0x40 MSTORE CALLVALUE DUP1 ISZERO PUSH2 0x10 JUMPI PUSH1 0x0 DUP1 REVERT JUMPDEST POP PUSH1 0x4 CALLDATASIZE LT PUSH2 0x253 JUMPI PUSH1 0x0 CALLDATALOAD PUSH1 0xE0 SHR DUP1 PUSH4 0x5C9302C9 GT PUSH2 0x146 JUMPI DUP1 PUSH4 0x90DE6871 GT PUSH2 0xC3 JUMPI DUP1 PUSH4 0xC3124525 GT PUSH2 0x87 JUMPI DUP1 PUSH4 0xC3124525 EQ PUSH2 0x687 JUMPI DUP1 PUSH4 0xCE606EE0 EQ PUSH2 0x74F JUMPI DUP1 PUSH4 0xD5A373FF EQ PUSH2 0x776 JUMPI DUP1 PUSH4 0xDD62ED3E EQ PUSH2 0x789 JUMPI DUP1 PUSH4 0xEC9A1917 EQ PUSH2 0x79C JUMPI DUP1 PUSH4 0xF04B5FA0 EQ PUSH2 0x7AF JUMPI PUSH1 0x0 DUP1 REVERT JUMPDEST DUP1 PUSH4 0x90DE6871 EQ PUSH2 0x5D0 JUMPI DUP1 PUSH4 0x95D89B41 EQ PUSH2 0x646 JUMPI DUP1 PUSH4 0xA457C2D7 EQ PUSH2 0x64E JUMPI DUP1 PUSH4 0xA9059CBB EQ PUSH2 0x661 JUMPI DUP1 PUSH4 0xB626D6FC EQ PUSH2 0x674 JUMPI PUSH1 0x0 DUP1 REVERT JUMPDEST DUP1 PUSH4 0x7C426620 GT PUSH2 0x10A JUMPI DUP1 PUSH4 0x7C426620 EQ PUSH2 0x554 JUMPI DUP1 PUSH4 0x87A0F31C EQ PUSH2 0x577 JUMPI DUP1 PUSH4 0x8CBA2842 EQ PUSH2 0x597 JUMPI DUP1 PUSH4 0x8E21AA01 EQ PUSH2 0x5AA JUMPI DUP1 PUSH4 0x8F1C65C0 EQ PUSH2 0x5BD JUMPI PUSH1 0x0 DUP1 REVERT JUMPDEST DUP1 PUSH4 0x5C9302C9 EQ PUSH2 0x4DD JUMPI DUP1 PUSH4 0x65CF71B2 EQ PUSH2 0x4E5 JUMPI DUP1 PUSH4 0x65D2A557 EQ PUSH2 0x4F8 JUMPI DUP1 PUSH4 0x6A210A0E EQ PUSH2 0x50B JUMPI DUP1 PUSH4 0x70A08231 EQ PUSH2 0x52B JUMPI PUSH1 0x0 DUP1 REVERT JUMPDEST DUP1 PUSH4 0x30C1A785 GT PUSH2 0x1D4 JUMPI DUP1 PUSH4 0x34DC8BB5 GT PUSH2 0x198 JUMPI DUP1 PUSH4 0x34DC8BB5 EQ PUSH2 0x443 JUMPI DUP1 PUSH4 0x39509351 EQ PUSH2 0x454 JUMPI DUP1 PUSH4 0x3A70A5CA EQ PUSH2 0x467 JUMPI DUP1 PUSH4 0x44203FAF EQ PUSH2 0x46F JUMPI DUP1 PUSH4 0x52A438B8 EQ PUSH2 0x4CA JUMPI PUSH1 0x0 DUP1 REVERT JUMPDEST DUP1 PUSH4 0x30C1A785 EQ PUSH2 0x3B6 JUMPI DUP1 PUSH4 0x313CE567 EQ PUSH2 0x3F0 JUMPI DUP1 PUSH4 0x319E74F6 EQ PUSH2 0x3FF JUMPI DUP1 PUSH4 0x33060D90 EQ PUSH2 0x407 JUMPI DUP1 PUSH4 0x343009A2 EQ PUSH2 0x430 JUMPI PUSH1 0x0 DUP1 REVERT JUMPDEST DUP1 PUSH4 0x18160DDD GT PUSH2 0x21B JUMPI DUP1 PUSH4 0x18160DDD EQ PUSH2 0x2F7 JUMPI DUP1 PUSH4 0x23B872DD EQ PUSH2 0x2FF JUMPI DUP1 PUSH4 0x2607443B EQ PUSH2 0x312 JUMPI DUP1 PUSH4 0x27AA6018 EQ PUSH2 0x377 JUMPI DUP1 PUSH4 0x283A5BAF EQ PUSH2 0x38A JUMPI PUSH1 0x0 DUP1 REVERT JUMPDEST DUP1 PUSH4 0x6FDDE03 EQ PUSH2 0x258 JUMPI DUP1 PUSH4 0x95EA7B3 EQ PUSH2 0x276 JUMPI DUP1 PUSH4 0xD4D1513 EQ PUSH2 0x299 JUMPI DUP1 PUSH4 0x1285B047 EQ PUSH2 0x2AE JUMPI DUP1 PUSH4 0x13C5C2C7 EQ PUSH2 0x2C4 JUMPI JUMPDEST PUSH1 0x0 DUP1 REVERT JUMPDEST PUSH2 0x260 PUSH2 0x7C4 JUMP JUMPDEST PUSH1 0x40 MLOAD PUSH2 0x26D SWAP2 SWAP1 PUSH2 0x3D8A JUMP JUMPDEST PUSH1 0x40 MLOAD DUP1 SWAP2 SUB SWAP1 RETURN JUMPDEST PUSH2 0x289 PUSH2 0x284 CALLDATASIZE PUSH1 0x4 PUSH2 0x3DD9 JUMP JUMPDEST PUSH2 0x856 JUMP JUMPDEST PUSH1 0x40 MLOAD SWAP1 ISZERO ISZERO DUP2 MSTORE PUSH1 0x20 ADD PUSH2 0x26D JUMP JUMPDEST PUSH2 0x2AC PUSH2 0x2A7 CALLDATASIZE PUSH1 0x4 PUSH2 0x3E03 JUMP JUMPDEST PUSH2 0x870 JUMP JUMPDEST STOP JUMPDEST PUSH2 0x2B6 PUSH2 0x8E1 JUMP JUMPDEST PUSH1 0x40 MLOAD SWAP1 DUP2 MSTORE PUSH1 0x20 ADD PUSH2 0x26D JUMP JUMPDEST PUSH2 0x2DF PUSH20 0xDEC9F2793E3C17CD26EEFB21C4762FA5128E0399 DUP2 JUMP JUMPDEST PUSH1 0x40 MLOAD PUSH1 0x1 PUSH1 0x1 PUSH1 0xA0 SHL SUB SWAP1 SWAP2 AND DUP2 MSTORE PUSH1 0x20 ADD PUSH2 0x26D JUMP JUMPDEST PUSH1 0x2 SLOAD PUSH2 0x2B6 JUMP JUMPDEST PUSH2 0x289 PUSH2 0x30D CALLDATASIZE PUSH1 0x4 PUSH2 0x3E3F JUMP JUMPDEST PUSH2 0x90C JUMP JUMPDEST PUSH2 0x325 PUSH2 0x320 CALLDATASIZE PUSH1 0x4 PUSH2 0x3DD9 JUMP JUMPDEST PUSH2 0x932 JUMP JUMPDEST PUSH1 0x40 DUP1 MLOAD PUSH5 0xFFFFFFFFFF SWAP9 SWAP1 SWAP9 AND DUP9 MSTORE PUSH1 0x1 PUSH1 0x1 PUSH1 0x48 SHL SUB SWAP7 DUP8 AND PUSH1 0x20 DUP10 ADD MSTORE SWAP5 SWAP1 SWAP6 AND SWAP4 DUP7 ADD SWAP4 SWAP1 SWAP4 MSTORE PUSH2 0xFFFF SWAP2 DUP3 AND PUSH1 0x60 DUP7 ADD MSTORE DUP2 AND PUSH1 0x80 DUP6 ADD MSTORE AND PUSH1 0xA0 DUP4 ADD MSTORE ISZERO ISZERO PUSH1 0xC0 DUP3 ADD MSTORE PUSH1 0xE0 ADD PUSH2 0x26D JUMP JUMPDEST PUSH2 0x289 PUSH2 0x385 CALLDATASIZE PUSH1 0x4 PUSH2 0x3EC7 JUMP JUMPDEST PUSH2 0x9AE JUMP JUMPDEST PUSH2 0x39D PUSH2 0x398 CALLDATASIZE PUSH1 0x4 PUSH2 0x3F24 JUMP JUMPDEST PUSH2 0x9F5 JUMP JUMPDEST PUSH1 0x40 MLOAD PUSH1 0x1 PUSH1 0x1 PUSH1 0x60 SHL SUB NOT SWAP1 SWAP2 AND DUP2 MSTORE PUSH1 0x20 ADD PUSH2 0x26D JUMP JUMPDEST PUSH2 0x2DF PUSH2 0x3C4 CALLDATASIZE PUSH1 0x4 PUSH2 0x3F50 JUMP JUMPDEST PUSH1 0x40 DUP1 MLOAD PUSH1 0x20 DUP1 DUP3 ADD SWAP5 SWAP1 SWAP5 MSTORE DUP1 DUP3 ADD SWAP3 SWAP1 SWAP3 MSTORE DUP1 MLOAD DUP1 DUP4 SUB DUP3 ADD DUP2 MSTORE PUSH1 0x60 SWAP1 SWAP3 ADD SWAP1 MSTORE DUP1 MLOAD SWAP2 ADD KECCAK256 SWAP1 JUMP JUMPDEST PUSH1 0x40 MLOAD PUSH1 0x8 DUP2 MSTORE PUSH1 0x20 ADD PUSH2 0x26D JUMP JUMPDEST PUSH2 0x2B6 PUSH2 0xBA6 JUMP JUMPDEST PUSH2 0x2B6 PUSH2 0x415 CALLDATASIZE PUSH1 0x4 PUSH2 0x3F72 JUMP JUMPDEST PUSH1 0x1 PUSH1 0x1 PUSH1 0xA0 SHL SUB AND PUSH1 0x0 SWAP1 DUP2 MSTORE PUSH1 0xA PUSH1 0x20 MSTORE PUSH1 0x40 SWAP1 KECCAK256 SLOAD SWAP1 JUMP JUMPDEST PUSH2 0x2AC PUSH2 0x43E CALLDATASIZE PUSH1 0x4 PUSH2 0x3FA2 JUMP JUMPDEST PUSH2 0xBB2 JUMP JUMPDEST PUSH1 0x5 SLOAD PUSH1 0x1 PUSH1 0x1 PUSH1 0xA0 SHL SUB AND PUSH2 0x2DF JUMP JUMPDEST PUSH2 0x289 PUSH2 0x462 CALLDATASIZE PUSH1 0x4 PUSH2 0x3DD9 JUMP JUMPDEST PUSH2 0xE8A JUMP JUMPDEST PUSH2 0x2B6 PUSH2 0xEAC JUMP JUMPDEST PUSH2 0x4AC PUSH2 0x47D CALLDATASIZE PUSH1 0x4 PUSH2 0x3FCE JUMP JUMPDEST PUSH1 0xC PUSH1 0x20 SWAP1 DUP2 MSTORE PUSH1 0x0 SWAP3 DUP4 MSTORE PUSH1 0x40 DUP1 DUP5 KECCAK256 SWAP1 SWAP2 MSTORE SWAP1 DUP3 MSTORE SWAP1 KECCAK256 SLOAD PUSH5 0xFFFFFFFFFF DUP1 DUP3 AND SWAP2 PUSH1 0x1 PUSH1 0x28 SHL SWAP1 DIV AND DUP3 JUMP JUMPDEST PUSH1 0x40 DUP1 MLOAD PUSH5 0xFFFFFFFFFF SWAP4 DUP5 AND DUP2 MSTORE SWAP3 SWAP1 SWAP2 AND PUSH1 0x20 DUP4 ADD MSTORE ADD PUSH2 0x26D JUMP JUMPDEST PUSH2 0x2AC PUSH2 0x4D8 CALLDATASIZE PUSH1 0x4 PUSH2 0x3F50 JUMP JUMPDEST PUSH2 0xED3 JUMP JUMPDEST PUSH2 0x2B6 PUSH2 0xF7D JUMP JUMPDEST PUSH2 0x2AC PUSH2 0x4F3 CALLDATASIZE PUSH1 0x4 PUSH2 0x3FF1 JUMP JUMPDEST PUSH2 0xF87 JUMP JUMPDEST PUSH2 0x2AC PUSH2 0x506 CALLDATASIZE PUSH1 0x4 PUSH2 0x410A JUMP JUMPDEST PUSH2 0x1293 JUMP JUMPDEST PUSH2 0x51E PUSH2 0x519 CALLDATASIZE PUSH1 0x4 PUSH2 0x3F50 JUMP JUMPDEST PUSH2 0x12A1 JUMP JUMPDEST PUSH1 0x40 MLOAD PUSH2 0x26D SWAP2 SWAP1 PUSH2 0x4138 JUMP JUMPDEST PUSH2 0x2B6 PUSH2 0x539 CALLDATASIZE PUSH1 0x4 PUSH2 0x3F72 JUMP JUMPDEST PUSH1 0x1 PUSH1 0x1 PUSH1 0xA0 SHL SUB AND PUSH1 0x0 SWAP1 DUP2 MSTORE PUSH1 0x20 DUP2 SWAP1 MSTORE PUSH1 0x40 SWAP1 KECCAK256 SLOAD SWAP1 JUMP JUMPDEST PUSH2 0x289 PUSH2 0x562 CALLDATASIZE PUSH1 0x4 PUSH2 0x4194 JUMP JUMPDEST PUSH1 0x8 PUSH1 0x20 MSTORE PUSH1 0x0 SWAP1 DUP2 MSTORE PUSH1 0x40 SWAP1 KECCAK256 SLOAD PUSH1 0xFF AND DUP2 JUMP JUMPDEST PUSH2 0x2B6 PUSH2 0x585 CALLDATASIZE PUSH1 0x4 PUSH2 0x41AF JUMP JUMPDEST PUSH1 0xB PUSH1 0x20 MSTORE PUSH1 0x0 SWAP1 DUP2 MSTORE PUSH1 0x40 SWAP1 KECCAK256 SLOAD DUP2 JUMP JUMPDEST PUSH2 0x2AC PUSH2 0x5A5 CALLDATASIZE PUSH1 0x4 PUSH2 0x3F72 JUMP JUMPDEST PUSH2 0x13EC JUMP JUMPDEST PUSH2 0x289 PUSH2 0x5B8 CALLDATASIZE PUSH1 0x4 PUSH2 0x41C8 JUMP JUMPDEST PUSH2 0x1476 JUMP JUMPDEST PUSH2 0x2AC PUSH2 0x5CB CALLDATASIZE PUSH1 0x4 PUSH2 0x41AF JUMP JUMPDEST PUSH2 0x15BB JUMP JUMPDEST PUSH2 0x617 PUSH2 0x5DE CALLDATASIZE PUSH1 0x4 PUSH2 0x41AF JUMP JUMPDEST PUSH1 0x9 PUSH1 0x20 MSTORE PUSH1 0x0 SWAP1 DUP2 MSTORE PUSH1 0x40 SWAP1 KECCAK256 SLOAD PUSH1 0x1 PUSH1 0x1 PUSH1 0x48 SHL SUB DUP1 DUP3 AND SWAP2 PUSH1 0x1 PUSH1 0x48 SHL DUP2 DIV SWAP1 SWAP2 AND SWAP1 PUSH1 0x1 PUSH1 0x90 SHL SWAP1 DIV PUSH7 0xFFFFFFFFFFFFFF AND DUP4 JUMP JUMPDEST PUSH1 0x40 DUP1 MLOAD PUSH1 0x1 PUSH1 0x1 PUSH1 0x48 SHL SUB SWAP5 DUP6 AND DUP2 MSTORE SWAP4 SWAP1 SWAP3 AND PUSH1 0x20 DUP5 ADD MSTORE PUSH7 0xFFFFFFFFFFFFFF AND SWAP1 DUP3 ADD MSTORE PUSH1 0x60 ADD PUSH2 0x26D JUMP JUMPDEST PUSH2 0x260 PUSH2 0x16B3 JUMP JUMPDEST PUSH2 0x289 PUSH2 0x65C CALLDATASIZE PUSH1 0x4 PUSH2 0x3DD9 JUMP JUMPDEST PUSH2 0x16C2 JUMP JUMPDEST PUSH2 0x289 PUSH2 0x66F CALLDATASIZE PUSH1 0x4 PUSH2 0x3DD9 JUMP JUMPDEST PUSH2 0x1748 JUMP JUMPDEST PUSH1 0x5 SLOAD PUSH2 0x2DF SWAP1 PUSH1 0x1 PUSH1 0x1 PUSH1 0xA0 SHL SUB AND DUP2 JUMP JUMPDEST PUSH1 0x6 SLOAD PUSH1 0x7 SLOAD PUSH2 0x6ED SWAP2 PUSH1 0x1 PUSH1 0x1 PUSH1 0x48 SHL SUB DUP1 DUP3 AND SWAP3 PUSH1 0x1 PUSH1 0x48 SHL DUP4 DIV DUP3 AND SWAP3 PUSH5 0xFFFFFFFFFF PUSH1 0x1 PUSH1 0x90 SHL DUP3 DIV DUP2 AND SWAP4 PUSH1 0x1 PUSH1 0xB8 SHL SWAP1 SWAP3 DIV DUP3 AND SWAP3 PUSH2 0xFFFF DUP2 AND SWAP3 PUSH3 0x10000 DUP3 DIV AND SWAP2 PUSH1 0x1 PUSH1 0x58 SHL DUP3 DIV AND SWAP1 PUSH1 0x1 PUSH1 0x1 PUSH1 0x80 SHL SUB PUSH1 0x1 PUSH1 0x80 SHL SWAP1 SWAP2 DIV AND DUP9 JUMP JUMPDEST PUSH1 0x40 DUP1 MLOAD PUSH1 0x1 PUSH1 0x1 PUSH1 0x48 SHL SUB SWAP10 DUP11 AND DUP2 MSTORE SWAP8 DUP10 AND PUSH1 0x20 DUP10 ADD MSTORE PUSH5 0xFFFFFFFFFF SWAP7 DUP8 AND SWAP1 DUP9 ADD MSTORE SWAP4 DUP8 AND PUSH1 0x60 DUP8 ADD MSTORE PUSH2 0xFFFF SWAP1 SWAP3 AND PUSH1 0x80 DUP7 ADD MSTORE SWAP5 SWAP1 SWAP5 AND PUSH1 0xA0 DUP5 ADD MSTORE SWAP3 AND PUSH1 0xC0 DUP3 ADD MSTORE PUSH1 0x1 PUSH1 0x1 PUSH1 0x80 SHL SUB SWAP1 SWAP2 AND PUSH1 0xE0 DUP3 ADD MSTORE PUSH2 0x100 ADD PUSH2 0x26D JUMP JUMPDEST PUSH2 0x2DF PUSH32 0x0 DUP2 JUMP JUMPDEST PUSH2 0x289 PUSH2 0x784 CALLDATASIZE PUSH1 0x4 PUSH2 0x4222 JUMP JUMPDEST PUSH2 0x1756 JUMP JUMPDEST PUSH2 0x2B6 PUSH2 0x797 CALLDATASIZE PUSH1 0x4 PUSH2 0x4296 JUMP JUMPDEST PUSH2 0x1870 JUMP JUMPDEST PUSH2 0x289 PUSH2 0x7AA CALLDATASIZE PUSH1 0x4 PUSH2 0x41C8 JUMP JUMPDEST PUSH2 0x189B JUMP JUMPDEST PUSH2 0x7B7 PUSH2 0x18E4 JUMP JUMPDEST PUSH1 0x40 MLOAD PUSH2 0x26D SWAP2 SWAP1 PUSH2 0x42C0 JUMP JUMPDEST PUSH1 0x60 PUSH1 0x3 DUP1 SLOAD PUSH2 0x7D3 SWAP1 PUSH2 0x42E9 JUMP JUMPDEST DUP1 PUSH1 0x1F ADD PUSH1 0x20 DUP1 SWAP2 DIV MUL PUSH1 0x20 ADD PUSH1 0x40 MLOAD SWAP1 DUP2 ADD PUSH1 0x40 MSTORE DUP1 SWAP3 SWAP2 SWAP1 DUP2 DUP2 MSTORE PUSH1 0x20 ADD DUP3 DUP1 SLOAD PUSH2 0x7FF SWAP1 PUSH2 0x42E9 JUMP JUMPDEST DUP1 ISZERO PUSH2 0x84C JUMPI DUP1 PUSH1 0x1F LT PUSH2 0x821 JUMPI PUSH2 0x100 DUP1 DUP4 SLOAD DIV MUL DUP4 MSTORE SWAP2 PUSH1 0x20 ADD SWAP2 PUSH2 0x84C JUMP JUMPDEST DUP3 ADD SWAP2 SWAP1 PUSH1 0x0 MSTORE PUSH1 0x20 PUSH1 0x0 KECCAK256 SWAP1 JUMPDEST DUP2 SLOAD DUP2 MSTORE SWAP1 PUSH1 0x1 ADD SWAP1 PUSH1 0x20 ADD DUP1 DUP4 GT PUSH2 0x82F JUMPI DUP3 SWAP1 SUB PUSH1 0x1F AND DUP3 ADD SWAP2 JUMPDEST POP POP POP POP POP SWAP1 POP SWAP1 JUMP JUMPDEST PUSH1 0x0 CALLER PUSH2 0x864 DUP2 DUP6 DUP6 PUSH2 0x19E6 JUMP JUMPDEST PUSH1 0x1 SWAP2 POP POP JUMPDEST SWAP3 SWAP2 POP POP JUMP JUMPDEST PUSH1 0x5 SLOAD PUSH1 0x1 PUSH1 0x1 PUSH1 0xA0 SHL SUB DUP3 DUP2 AND SWAP2 AND EQ PUSH2 0x8D2 JUMPI PUSH1 0x40 MLOAD PUSH3 0x461BCD PUSH1 0xE5 SHL DUP2 MSTORE PUSH1 0x20 PUSH1 0x4 DUP3 ADD MSTORE PUSH1 0x19 PUSH1 0x24 DUP3 ADD MSTORE PUSH32 0x43616C6C6572206973206E6F7420544220636F6E747261637400000000000000 PUSH1 0x44 DUP3 ADD MSTORE PUSH1 0x64 ADD JUMPDEST PUSH1 0x40 MLOAD DUP1 SWAP2 SUB SWAP1 REVERT JUMPDEST PUSH2 0x8DC DUP4 DUP4 PUSH2 0x1B0A JUMP JUMPDEST POP POP POP JUMP JUMPDEST PUSH2 0x2710 PUSH4 0x5F5E100 PUSH2 0x8F5 PUSH1 0x8 PUSH1 0xA PUSH2 0x441D JUMP JUMPDEST PUSH2 0x8FF SWAP2 SWAP1 PUSH2 0x4429 JUMP JUMPDEST PUSH2 0x909 SWAP2 SWAP1 PUSH2 0x444B JUMP JUMPDEST DUP2 JUMP JUMPDEST PUSH1 0x0 CALLER PUSH2 0x91A DUP6 DUP3 DUP6 PUSH2 0x1BC9 JUMP JUMPDEST PUSH2 0x925 DUP6 DUP6 DUP6 PUSH2 0x1C3D JUMP JUMPDEST PUSH1 0x1 SWAP2 POP POP JUMPDEST SWAP4 SWAP3 POP POP POP JUMP JUMPDEST PUSH1 0xA PUSH1 0x20 MSTORE DUP2 PUSH1 0x0 MSTORE PUSH1 0x40 PUSH1 0x0 KECCAK256 DUP2 DUP2 SLOAD DUP2 LT PUSH2 0x94E JUMPI PUSH1 0x0 DUP1 REVERT JUMPDEST PUSH1 0x0 SWAP2 DUP3 MSTORE PUSH1 0x20 SWAP1 SWAP2 KECCAK256 ADD SLOAD PUSH5 0xFFFFFFFFFF DUP2 AND SWAP3 POP PUSH1 0x1 PUSH1 0x1 PUSH1 0x48 SHL SUB PUSH1 0x1 PUSH1 0x28 SHL DUP3 DIV DUP2 AND SWAP3 POP PUSH1 0x1 PUSH1 0x70 SHL DUP3 DIV AND SWAP1 PUSH2 0xFFFF PUSH1 0x1 PUSH1 0xB8 SHL DUP3 DIV DUP2 AND SWAP2 PUSH1 0x1 PUSH1 0xC8 SHL DUP2 DIV DUP3 AND SWAP2 PUSH1 0x1 PUSH1 0xD8 SHL DUP3 DIV AND SWAP1 PUSH1 0xFF PUSH1 0x1 PUSH1 0xE8 SHL SWAP1 SWAP2 DIV AND DUP8 JUMP JUMPDEST PUSH1 0x0 PUSH2 0x9ED DUP5 DUP5 DUP5 DUP1 DUP1 PUSH1 0x20 MUL PUSH1 0x20 ADD PUSH1 0x40 MLOAD SWAP1 DUP2 ADD PUSH1 0x40 MSTORE DUP1 SWAP4 SWAP3 SWAP2 SWAP1 DUP2 DUP2 MSTORE PUSH1 0x20 ADD DUP4 DUP4 PUSH1 0x20 MUL DUP1 DUP3 DUP5 CALLDATACOPY PUSH1 0x0 SWAP3 ADD SWAP2 SWAP1 SWAP2 MSTORE POP PUSH2 0x1DE1 SWAP3 POP POP POP JUMP JUMPDEST SWAP5 SWAP4 POP POP POP POP JUMP JUMPDEST PUSH1 0x0 DUP1 PUSH1 0x60 PUSH1 0x2 DUP5 AND ISZERO DUP1 ISZERO SWAP1 PUSH1 0x4 DUP7 AND ISZERO ISZERO SWAP1 PUSH1 0x8 DUP8 AND ISZERO ISZERO SWAP1 PUSH2 0xABA JUMPI DUP2 DUP1 ISZERO PUSH2 0xA1E JUMPI POP DUP1 JUMPDEST ISZERO PUSH2 0xA66 JUMPI PUSH1 0x40 MLOAD PUSH3 0x461BCD PUSH1 0xE5 SHL DUP2 MSTORE PUSH1 0x20 PUSH1 0x4 DUP3 ADD MSTORE PUSH1 0x18 PUSH1 0x24 DUP3 ADD MSTORE PUSH24 0x135653950E8818DB185A5B519B1859DCC81A5B9D985B1A59 PUSH1 0x42 SHL PUSH1 0x44 DUP3 ADD MSTORE PUSH1 0x64 ADD PUSH2 0x8C9 JUMP JUMPDEST PUSH1 0x1 PUSH1 0xF8 SHL PUSH1 0xF8 DUP10 SWAP1 SHL AND ISZERO PUSH2 0xA7D JUMPI PUSH1 0x3 PUSH2 0xA80 JUMP JUMPDEST PUSH1 0x2 JUMPDEST PUSH1 0x40 MLOAD PUSH1 0x1 PUSH1 0x1 PUSH1 0xF8 SHL SUB NOT PUSH1 0xF8 DUP4 SWAP1 SHL AND PUSH1 0x20 DUP3 ADD MSTORE PUSH1 0x21 DUP2 ADD DUP12 SWAP1 MSTORE SWAP1 SWAP6 POP PUSH1 0x41 ADD PUSH1 0x40 MLOAD PUSH1 0x20 DUP2 DUP4 SUB SUB DUP2 MSTORE SWAP1 PUSH1 0x40 MSTORE SWAP4 POP PUSH2 0xB41 JUMP JUMPDEST DUP2 ISZERO DUP1 ISZERO PUSH2 0xAC6 JUMPI POP DUP1 ISZERO JUMPDEST PUSH2 0xB0D JUMPI PUSH1 0x40 MLOAD PUSH3 0x461BCD PUSH1 0xE5 SHL DUP2 MSTORE PUSH1 0x20 PUSH1 0x4 DUP3 ADD MSTORE PUSH1 0x18 PUSH1 0x24 DUP3 ADD MSTORE PUSH24 0x135653950E8818DB185A5B519B1859DCC81A5B9D985B1A59 PUSH1 0x42 SHL PUSH1 0x44 DUP3 ADD MSTORE PUSH1 0x64 ADD PUSH2 0x8C9 JUMP JUMPDEST PUSH1 0x40 MLOAD PUSH1 0x1 PUSH1 0xFA SHL PUSH1 0x20 DUP3 ADD MSTORE PUSH1 0x21 DUP2 ADD DUP11 SWAP1 MSTORE PUSH1 0x41 DUP2 ADD DUP10 SWAP1 MSTORE PUSH1 0x4 SWAP6 POP PUSH1 0x61 ADD PUSH1 0x40 MLOAD PUSH1 0x20 DUP2 DUP4 SUB SUB DUP2 MSTORE SWAP1 PUSH1 0x40 MSTORE SWAP4 POP JUMPDEST PUSH1 0x0 PUSH2 0xB4C DUP6 PUSH2 0x1E0E JUMP JUMPDEST SWAP1 POP DUP3 ISZERO PUSH2 0xB99 JUMPI PUSH1 0x40 MLOAD PUSH1 0x5 PUSH1 0xF2 SHL PUSH1 0x20 DUP3 ADD MSTORE PUSH1 0x1 PUSH1 0x1 PUSH1 0x60 SHL SUB NOT DUP3 AND PUSH1 0x22 DUP3 ADD MSTORE PUSH2 0xB8C SWAP1 PUSH1 0x36 ADD PUSH1 0x40 MLOAD PUSH1 0x20 DUP2 DUP4 SUB SUB DUP2 MSTORE SWAP1 PUSH1 0x40 MSTORE PUSH2 0x1E0E JUMP JUMPDEST SWAP7 POP POP POP POP POP POP POP PUSH2 0x92B JUMP JUMPDEST SWAP10 SWAP9 POP POP POP POP POP POP POP POP POP JUMP JUMPDEST PUSH2 0x909 PUSH1 0x32 PUSH1 0x7 PUSH2 0x444B JUMP JUMPDEST PUSH2 0xBBA PUSH2 0x3CA0 JUMP JUMPDEST PUSH2 0xBC2 PUSH2 0x3CA0 JUMP JUMPDEST PUSH2 0xBCC DUP3 DUP3 PUSH2 0x1EBB JUMP JUMPDEST CALLER PUSH1 0x0 SWAP1 DUP2 MSTORE PUSH1 0xA PUSH1 0x20 MSTORE PUSH1 0x40 DUP2 KECCAK256 DUP1 SLOAD SWAP1 SWAP2 SUB PUSH2 0xC25 JUMPI PUSH1 0x40 MLOAD PUSH3 0x461BCD PUSH1 0xE5 SHL DUP2 MSTORE PUSH1 0x20 PUSH1 0x4 DUP3 ADD MSTORE PUSH1 0x16 PUSH1 0x24 DUP3 ADD MSTORE PUSH22 0x135653950E88115B5C1D1E481CDD185AD9481B1A5CDD PUSH1 0x52 SHL PUSH1 0x44 DUP3 ADD MSTORE PUSH1 0x64 ADD PUSH2 0x8C9 JUMP JUMPDEST DUP1 SLOAD DUP6 LT PUSH2 0xC70 JUMPI PUSH1 0x40 MLOAD PUSH3 0x461BCD PUSH1 0xE5 SHL DUP2 MSTORE PUSH1 0x20 PUSH1 0x4 DUP3 ADD MSTORE PUSH1 0x18 PUSH1 0x24 DUP3 ADD MSTORE PUSH24 0x135653950E881CDD185AD9525B99195E081A5B9D985B1A59 PUSH1 0x42 SHL PUSH1 0x44 DUP3 ADD MSTORE PUSH1 0x64 ADD PUSH2 0x8C9 JUMP JUMPDEST PUSH2 0xC78 PUSH2 0x3D01 JUMP JUMPDEST PUSH2 0xC9E DUP3 DUP8 DUP2 SLOAD DUP2 LT PUSH2 0xC8D JUMPI PUSH2 0xC8D PUSH2 0x4462 JUMP JUMPDEST SWAP1 PUSH1 0x0 MSTORE PUSH1 0x20 PUSH1 0x0 KECCAK256 ADD DUP7 DUP4 PUSH2 0x1F69 JUMP JUMPDEST PUSH2 0xCA7 DUP5 PUSH2 0x2037 JUMP JUMPDEST PUSH1 0x0 DUP1 DUP3 PUSH1 0xA0 ADD MLOAD PUSH1 0x0 EQ ISZERO SWAP1 POP PUSH1 0x0 DUP1 PUSH1 0x0 SWAP1 POP PUSH1 0x0 DUP1 DUP7 PUSH1 0x60 ADD MLOAD DUP11 PUSH2 0x140 ADD MLOAD LT PUSH2 0xD90 JUMPI DUP5 ISZERO PUSH2 0xCE1 JUMPI DUP7 PUSH1 0x80 ADD MLOAD SWAP6 POP PUSH2 0xD76 JUMP JUMPDEST PUSH2 0xCEB DUP11 DUP9 PUSH2 0x204B JUMP JUMPDEST DUP7 PUSH1 0x60 ADD MLOAD DUP11 PUSH2 0x140 ADD MLOAD PUSH2 0xD00 SWAP2 SWAP1 PUSH2 0x4478 JUMP JUMPDEST SWAP6 POP DUP7 PUSH1 0x80 ADD MLOAD DUP7 GT ISZERO PUSH2 0xD1A JUMPI DUP7 PUSH1 0x80 ADD MLOAD SWAP6 POP PUSH2 0xD76 JUMP JUMPDEST PUSH2 0x15E DUP7 LT ISZERO PUSH2 0xD76 JUMPI DUP7 PUSH1 0xC0 ADD MLOAD ISZERO PUSH2 0xD76 JUMPI PUSH1 0x40 MLOAD PUSH3 0x461BCD PUSH1 0xE5 SHL DUP2 MSTORE PUSH1 0x20 PUSH1 0x4 DUP3 ADD MSTORE PUSH1 0x1D PUSH1 0x24 DUP3 ADD MSTORE PUSH32 0x4D594E543A204175746F2D7374616B65207374696C6C206C6F636B6564000000 PUSH1 0x44 DUP3 ADD MSTORE PUSH1 0x64 ADD PUSH2 0x8C9 JUMP JUMPDEST PUSH2 0xD81 DUP11 DUP9 DUP9 PUSH2 0x2073 JUMP JUMPDEST SWAP3 SWAP7 POP SWAP1 SWAP5 POP SWAP3 POP SWAP1 POP PUSH2 0xE03 JUMP JUMPDEST DUP7 PUSH1 0xC0 ADD MLOAD ISZERO PUSH2 0xDE2 JUMPI PUSH1 0x40 MLOAD PUSH3 0x461BCD PUSH1 0xE5 SHL DUP2 MSTORE PUSH1 0x20 PUSH1 0x4 DUP3 ADD MSTORE PUSH1 0x1D PUSH1 0x24 DUP3 ADD MSTORE PUSH32 0x4D594E543A204175746F2D7374616B65207374696C6C206C6F636B6564000000 PUSH1 0x44 DUP3 ADD MSTORE PUSH1 0x64 ADD PUSH2 0x8C9 JUMP JUMPDEST DUP7 PUSH1 0x40 ADD MLOAD DUP11 PUSH1 0x20 ADD DUP2 DUP2 MLOAD PUSH2 0xDF8 SWAP2 SWAP1 PUSH2 0x4478 JUMP JUMPDEST SWAP1 MSTORE POP PUSH1 0x20 DUP8 ADD MLOAD SWAP4 POP JUMPDEST PUSH2 0xE1A DUP12 DUP9 PUSH1 0x20 ADD MLOAD DUP10 PUSH1 0x40 ADD MLOAD DUP7 DUP7 DUP12 DUP12 PUSH2 0x2137 JUMP JUMPDEST DUP1 ISZERO DUP1 ISZERO SWAP1 PUSH2 0xE27 JUMPI POP DUP5 ISZERO JUMPDEST ISZERO PUSH2 0xE36 JUMPI PUSH2 0xE36 DUP11 DUP3 PUSH2 0x21FC JUMP JUMPDEST DUP4 ISZERO PUSH2 0xE51 JUMPI PUSH2 0xE46 CALLER DUP6 PUSH2 0x1B0A JUMP JUMPDEST PUSH2 0xE51 DUP11 DUP9 DUP7 PUSH2 0x2255 JUMP JUMPDEST PUSH1 0x20 DUP8 ADD MLOAD DUP11 MLOAD DUP12 SWAP1 PUSH2 0xE65 SWAP1 DUP4 SWAP1 PUSH2 0x4478 JUMP JUMPDEST SWAP1 MSTORE POP PUSH2 0xE72 DUP9 DUP14 PUSH2 0x22EF JUMP JUMPDEST PUSH2 0xE7C DUP11 DUP11 PUSH2 0x2484 JUMP JUMPDEST POP POP POP POP POP POP POP POP POP POP POP POP JUMP JUMPDEST PUSH1 0x0 CALLER PUSH2 0x864 DUP2 DUP6 DUP6 PUSH2 0xE9D DUP4 DUP4 PUSH2 0x1870 JUMP JUMPDEST PUSH2 0xEA7 SWAP2 SWAP1 PUSH2 0x448B JUMP JUMPDEST PUSH2 0x19E6 JUMP JUMPDEST PUSH1 0x6 SLOAD PUSH1 0x0 SWAP1 PUSH1 0x1 PUSH1 0x1 PUSH1 0x48 SHL SUB AND PUSH2 0xEC4 PUSH1 0x2 SLOAD SWAP1 JUMP JUMPDEST PUSH2 0xECE SWAP2 SWAP1 PUSH2 0x448B JUMP JUMPDEST SWAP1 POP SWAP1 JUMP JUMPDEST PUSH2 0xEDB PUSH2 0x3CA0 JUMP JUMPDEST PUSH2 0xEE3 PUSH2 0x3CA0 JUMP JUMPDEST PUSH2 0xEED DUP3 DUP3 PUSH2 0x1EBB JUMP JUMPDEST PUSH1 0x1 DUP4 LT ISZERO PUSH2 0xF4D JUMPI PUSH1 0x40 MLOAD PUSH3 0x461BCD PUSH1 0xE5 SHL DUP2 MSTORE PUSH1 0x20 PUSH1 0x4 DUP3 ADD MSTORE PUSH1 0x26 PUSH1 0x24 DUP3 ADD MSTORE PUSH32 0x4D594E543A206E65775374616B656444617973206C6F776572207468616E206D PUSH1 0x44 DUP3 ADD MSTORE PUSH6 0x696E696D756D PUSH1 0xD0 SHL PUSH1 0x64 DUP3 ADD MSTORE PUSH1 0x84 ADD PUSH2 0x8C9 JUMP JUMPDEST PUSH2 0xF56 DUP3 PUSH2 0x2037 JUMP JUMPDEST PUSH2 0xF63 DUP3 DUP6 DUP6 PUSH1 0x0 PUSH2 0x2664 JUMP JUMPDEST PUSH2 0xF6D CALLER DUP6 PUSH2 0x2939 JUMP JUMPDEST PUSH2 0xF77 DUP3 DUP3 PUSH2 0x2484 JUMP JUMPDEST POP POP POP POP JUMP JUMPDEST PUSH1 0x0 PUSH2 0xECE PUSH2 0x2A6B JUMP JUMPDEST PUSH2 0xF8F PUSH2 0x3CA0 JUMP JUMPDEST PUSH2 0xF97 PUSH2 0x3CA0 JUMP JUMPDEST PUSH2 0xFA1 DUP3 DUP3 PUSH2 0x1EBB JUMP JUMPDEST PUSH1 0x1 PUSH1 0x1 PUSH1 0xA0 SHL SUB DUP6 AND PUSH1 0x0 SWAP1 DUP2 MSTORE PUSH1 0xA PUSH1 0x20 MSTORE PUSH1 0x40 DUP2 KECCAK256 SLOAD SWAP1 SUB PUSH2 0x1001 JUMPI PUSH1 0x40 MLOAD PUSH3 0x461BCD PUSH1 0xE5 SHL DUP2 MSTORE PUSH1 0x20 PUSH1 0x4 DUP3 ADD MSTORE PUSH1 0x16 PUSH1 0x24 DUP3 ADD MSTORE PUSH22 0x135653950E88115B5C1D1E481CDD185AD9481B1A5CDD PUSH1 0x52 SHL PUSH1 0x44 DUP3 ADD MSTORE PUSH1 0x64 ADD PUSH2 0x8C9 JUMP JUMPDEST PUSH1 0x1 PUSH1 0x1 PUSH1 0xA0 SHL SUB DUP6 AND PUSH1 0x0 SWAP1 DUP2 MSTORE PUSH1 0xA PUSH1 0x20 MSTORE PUSH1 0x40 SWAP1 KECCAK256 SLOAD DUP5 LT PUSH2 0x1063 JUMPI PUSH1 0x40 MLOAD PUSH3 0x461BCD PUSH1 0xE5 SHL DUP2 MSTORE PUSH1 0x20 PUSH1 0x4 DUP3 ADD MSTORE PUSH1 0x18 PUSH1 0x24 DUP3 ADD MSTORE PUSH24 0x135653950E881CDD185AD9525B99195E081A5B9D985B1A59 PUSH1 0x42 SHL PUSH1 0x44 DUP3 ADD MSTORE PUSH1 0x64 ADD PUSH2 0x8C9 JUMP JUMPDEST PUSH1 0x1 PUSH1 0x1 PUSH1 0xA0 SHL SUB DUP6 AND PUSH1 0x0 SWAP1 DUP2 MSTORE PUSH1 0xA PUSH1 0x20 MSTORE PUSH1 0x40 DUP2 KECCAK256 DUP1 SLOAD DUP7 SWAP1 DUP2 LT PUSH2 0x108D JUMPI PUSH2 0x108D PUSH2 0x4462 JUMP JUMPDEST SWAP1 PUSH1 0x0 MSTORE PUSH1 0x20 PUSH1 0x0 KECCAK256 ADD SWAP1 POP PUSH2 0x10A1 PUSH2 0x3D01 JUMP JUMPDEST PUSH2 0x10AC DUP3 DUP7 DUP4 PUSH2 0x1F69 JUMP JUMPDEST DUP1 PUSH1 0x80 ADD MLOAD DUP2 PUSH1 0x60 ADD MLOAD PUSH2 0x10C0 SWAP2 SWAP1 PUSH2 0x448B JUMP JUMPDEST DUP5 PUSH2 0x140 ADD MLOAD LT ISZERO PUSH2 0x1114 JUMPI PUSH1 0x40 MLOAD PUSH3 0x461BCD PUSH1 0xE5 SHL DUP2 MSTORE PUSH1 0x20 PUSH1 0x4 DUP3 ADD MSTORE PUSH1 0x1C PUSH1 0x24 DUP3 ADD MSTORE PUSH32 0x4D594E543A205374616B65206E6F742066756C6C792073657276656400000000 PUSH1 0x44 DUP3 ADD MSTORE PUSH1 0x64 ADD PUSH2 0x8C9 JUMP JUMPDEST PUSH1 0xA0 DUP2 ADD MLOAD ISZERO PUSH2 0x1166 JUMPI PUSH1 0x40 MLOAD PUSH3 0x461BCD PUSH1 0xE5 SHL DUP2 MSTORE PUSH1 0x20 PUSH1 0x4 DUP3 ADD MSTORE PUSH1 0x1C PUSH1 0x24 DUP3 ADD MSTORE PUSH32 0x4D594E543A205374616B6520616C726561647920756E6C6F636B656400000000 PUSH1 0x44 DUP3 ADD MSTORE PUSH1 0x64 ADD PUSH2 0x8C9 JUMP JUMPDEST PUSH2 0x116F DUP5 PUSH2 0x2037 JUMP JUMPDEST PUSH2 0x1179 DUP5 DUP3 PUSH2 0x204B JUMP JUMPDEST PUSH1 0x0 DUP1 PUSH1 0x0 PUSH2 0x118D DUP8 DUP6 DUP7 PUSH1 0x80 ADD MLOAD PUSH2 0x2073 JUMP JUMPDEST SWAP4 POP SWAP4 POP SWAP4 POP POP PUSH2 0x11AA DUP11 DUP10 DUP7 PUSH1 0x20 ADD MLOAD DUP8 PUSH1 0x40 ADD MLOAD DUP8 DUP8 PUSH2 0x2A87 JUMP JUMPDEST DUP1 ISZERO PUSH2 0x11BA JUMPI PUSH2 0x11BA DUP8 DUP3 PUSH2 0x21FC JUMP JUMPDEST DUP4 MLOAD DUP6 SLOAD PUSH1 0x20 DUP7 ADD MLOAD PUSH1 0x40 DUP8 ADD MLOAD PUSH1 0x60 DUP9 ADD MLOAD PUSH1 0x80 DUP10 ADD MLOAD PUSH1 0xA0 DUP11 ADD MLOAD PUSH1 0xC0 DUP12 ADD MLOAD PUSH5 0xFFFFFFFFFF SWAP1 SWAP8 AND PUSH1 0x1 PUSH1 0x1 PUSH1 0x70 SHL SUB NOT SWAP1 SWAP7 AND SWAP6 SWAP1 SWAP6 OR PUSH1 0x1 PUSH1 0x28 SHL PUSH1 0x1 PUSH1 0x1 PUSH1 0x48 SHL SUB SWAP6 DUP7 AND MUL OR PUSH1 0x1 PUSH1 0x70 SHL PUSH1 0x1 PUSH1 0xC8 SHL SUB NOT AND PUSH1 0x1 PUSH1 0x70 SHL SWAP5 SWAP1 SWAP4 AND SWAP4 SWAP1 SWAP4 MUL PUSH2 0xFFFF PUSH1 0xB8 SHL NOT AND SWAP2 SWAP1 SWAP2 OR PUSH1 0x1 PUSH1 0xB8 SHL PUSH2 0xFFFF SWAP3 DUP4 AND MUL OR PUSH4 0xFFFFFFFF PUSH1 0xC8 SHL NOT AND PUSH1 0x1 PUSH1 0xC8 SHL SWAP3 DUP3 AND SWAP3 SWAP1 SWAP3 MUL PUSH2 0xFFFF PUSH1 0xD8 SHL NOT AND SWAP2 SWAP1 SWAP2 OR PUSH1 0x1 PUSH1 0xD8 SHL SWAP2 SWAP1 SWAP3 AND MUL OR PUSH1 0xFF PUSH1 0xE8 SHL NOT AND PUSH1 0x1 PUSH1 0xE8 SHL SWAP2 ISZERO ISZERO SWAP2 SWAP1 SWAP2 MUL OR DUP6 SSTORE PUSH2 0x1287 DUP8 DUP8 PUSH2 0x2484 JUMP JUMPDEST POP POP POP POP POP POP POP POP POP POP JUMP JUMPDEST PUSH2 0x129D DUP3 DUP3 PUSH2 0x1EBB JUMP JUMPDEST POP POP JUMP JUMPDEST PUSH1 0x60 DUP2 DUP4 LT DUP1 ISZERO PUSH2 0x12B8 JUMPI POP PUSH1 0x7 SLOAD PUSH2 0xFFFF AND DUP3 GT ISZERO JUMPDEST PUSH2 0x12FA JUMPI PUSH1 0x40 MLOAD PUSH3 0x461BCD PUSH1 0xE5 SHL DUP2 MSTORE PUSH1 0x20 PUSH1 0x4 DUP3 ADD MSTORE PUSH1 0x13 PUSH1 0x24 DUP3 ADD MSTORE PUSH19 0x135653950E881C985B99D9481A5B9D985B1A59 PUSH1 0x6A SHL PUSH1 0x44 DUP3 ADD MSTORE PUSH1 0x64 ADD PUSH2 0x8C9 JUMP JUMPDEST PUSH2 0x1304 DUP4 DUP4 PUSH2 0x4478 JUMP JUMPDEST PUSH8 0xFFFFFFFFFFFFFFFF DUP2 GT ISZERO PUSH2 0x131C JUMPI PUSH2 0x131C PUSH2 0x4024 JUMP JUMPDEST PUSH1 0x40 MLOAD SWAP1 DUP1 DUP3 MSTORE DUP1 PUSH1 0x20 MUL PUSH1 0x20 ADD DUP3 ADD PUSH1 0x40 MSTORE DUP1 ISZERO PUSH2 0x1345 JUMPI DUP2 PUSH1 0x20 ADD PUSH1 0x20 DUP3 MUL DUP1 CALLDATASIZE DUP4 CALLDATACOPY ADD SWAP1 POP JUMPDEST POP SWAP1 POP DUP3 PUSH1 0x0 DUP1 JUMPDEST PUSH2 0x1359 PUSH1 0x48 PUSH1 0x2 PUSH2 0x444B JUMP JUMPDEST PUSH1 0x0 DUP5 DUP2 MSTORE PUSH1 0x9 PUSH1 0x20 MSTORE PUSH1 0x40 SWAP1 KECCAK256 SLOAD PUSH1 0x1 PUSH1 0x90 SHL DUP2 DIV PUSH7 0xFFFFFFFFFFFFFF AND SWAP1 SWAP2 SHL PUSH1 0x1 PUSH1 0x48 SHL DUP3 DIV PUSH1 0x48 SHL PUSH18 0xFFFFFFFFFFFFFFFFFF000000000000000000 AND OR PUSH1 0x1 PUSH1 0x1 PUSH1 0x48 SHL SUB SWAP1 SWAP2 AND OR SWAP1 POP DUP1 DUP5 DUP4 PUSH2 0x13B4 DUP2 PUSH2 0x449E JUMP JUMPDEST SWAP5 POP DUP2 MLOAD DUP2 LT PUSH2 0x13C6 JUMPI PUSH2 0x13C6 PUSH2 0x4462 JUMP JUMPDEST PUSH1 0x20 SWAP1 DUP2 MUL SWAP2 SWAP1 SWAP2 ADD ADD MSTORE DUP5 PUSH2 0x13DB DUP5 PUSH2 0x449E JUMP JUMPDEST SWAP4 POP DUP4 LT PUSH2 0x134D JUMPI POP POP POP SWAP3 SWAP2 POP POP JUMP JUMPDEST CALLER PUSH1 0x1 PUSH1 0x1 PUSH1 0xA0 SHL SUB PUSH32 0x0 AND EQ PUSH2 0x1454 JUMPI PUSH1 0x40 MLOAD PUSH3 0x461BCD PUSH1 0xE5 SHL DUP2 MSTORE PUSH1 0x20 PUSH1 0x4 DUP3 ADD MSTORE PUSH1 0xD PUSH1 0x24 DUP3 ADD MSTORE PUSH13 0x2737BA103A34329027BBB732B9 PUSH1 0x99 SHL PUSH1 0x44 DUP3 ADD MSTORE PUSH1 0x64 ADD PUSH2 0x8C9 JUMP JUMPDEST PUSH1 0x5 DUP1 SLOAD PUSH1 0x1 PUSH1 0x1 PUSH1 0xA0 SHL SUB NOT AND PUSH1 0x1 PUSH1 0x1 PUSH1 0xA0 SHL SUB SWAP3 SWAP1 SWAP3 AND SWAP2 SWAP1 SWAP2 OR SWAP1 SSTORE JUMP JUMPDEST PUSH1 0x0 DUP1 PUSH2 0x1481 PUSH2 0x2A6B JUMP JUMPDEST SWAP1 POP PUSH1 0x1 DUP2 LT ISZERO PUSH2 0x14E2 JUMPI PUSH1 0x40 MLOAD PUSH3 0x461BCD PUSH1 0xE5 SHL DUP2 MSTORE PUSH1 0x20 PUSH1 0x4 DUP3 ADD MSTORE PUSH1 0x25 PUSH1 0x24 DUP3 ADD MSTORE PUSH32 0x4D594E543A20436C61696D20706861736520686173206E6F7420796574207374 PUSH1 0x44 DUP3 ADD MSTORE PUSH5 0x185C9D1959 PUSH1 0xDA SHL PUSH1 0x64 DUP3 ADD MSTORE PUSH1 0x84 ADD PUSH2 0x8C9 JUMP JUMPDEST PUSH2 0x14EE PUSH1 0x32 PUSH1 0x7 PUSH2 0x444B JUMP JUMPDEST PUSH2 0x14F9 SWAP1 PUSH1 0x1 PUSH2 0x448B JUMP JUMPDEST DUP2 LT PUSH2 0x1547 JUMPI PUSH1 0x40 MLOAD PUSH3 0x461BCD PUSH1 0xE5 SHL DUP2 MSTORE PUSH1 0x20 PUSH1 0x4 DUP3 ADD MSTORE PUSH1 0x1B PUSH1 0x24 DUP3 ADD MSTORE PUSH32 0x4D594E543A20436C61696D2070686173652068617320656E6465640000000000 PUSH1 0x44 DUP3 ADD MSTORE PUSH1 0x64 ADD PUSH2 0x8C9 JUMP JUMPDEST PUSH1 0x1 PUSH1 0x1 PUSH1 0x60 SHL SUB NOT DUP7 AND PUSH1 0x0 SWAP1 DUP2 MSTORE PUSH1 0x8 PUSH1 0x20 MSTORE PUSH1 0x40 SWAP1 KECCAK256 SLOAD PUSH1 0xFF AND ISZERO PUSH2 0x1573 JUMPI PUSH1 0x0 SWAP2 POP POP PUSH2 0x9ED JUMP JUMPDEST PUSH2 0x15B1 DUP7 DUP7 DUP7 DUP7 DUP1 DUP1 PUSH1 0x20 MUL PUSH1 0x20 ADD PUSH1 0x40 MLOAD SWAP1 DUP2 ADD PUSH1 0x40 MSTORE DUP1 SWAP4 SWAP3 SWAP2 SWAP1 DUP2 DUP2 MSTORE PUSH1 0x20 ADD DUP4 DUP4 PUSH1 0x20 MUL DUP1 DUP3 DUP5 CALLDATACOPY PUSH1 0x0 SWAP3 ADD SWAP2 SWAP1 SWAP2 MSTORE POP PUSH2 0x2B24 SWAP3 POP POP POP JUMP JUMPDEST SWAP7 SWAP6 POP POP POP POP POP POP JUMP JUMPDEST PUSH2 0x15C3 PUSH2 0x3CA0 JUMP JUMPDEST PUSH2 0x15CB PUSH2 0x3CA0 JUMP JUMPDEST PUSH2 0x15D5 DUP3 DUP3 PUSH2 0x1EBB JUMP JUMPDEST PUSH1 0x1 DUP3 PUSH2 0x140 ADD MLOAD GT PUSH2 0x161C JUMPI PUSH1 0x40 MLOAD PUSH3 0x461BCD PUSH1 0xE5 SHL DUP2 MSTORE PUSH1 0x20 PUSH1 0x4 DUP3 ADD MSTORE PUSH1 0xF PUSH1 0x24 DUP3 ADD MSTORE PUSH15 0x4D594E543A20546F6F206561726C79 PUSH1 0x88 SHL PUSH1 0x44 DUP3 ADD MSTORE PUSH1 0x64 ADD PUSH2 0x8C9 JUMP JUMPDEST DUP3 ISZERO PUSH2 0x1698 JUMPI DUP2 PUSH2 0x140 ADD MLOAD DUP4 GT ISZERO PUSH2 0x1687 JUMPI PUSH1 0x40 MLOAD PUSH3 0x461BCD PUSH1 0xE5 SHL DUP2 MSTORE PUSH1 0x20 PUSH1 0x4 DUP3 ADD MSTORE PUSH1 0x27 PUSH1 0x24 DUP3 ADD MSTORE PUSH32 0x4D594E543A206265666F72654461792063616E6E6F7420626520696E20746865 PUSH1 0x44 DUP3 ADD MSTORE PUSH7 0x20667574757265 PUSH1 0xC8 SHL PUSH1 0x64 DUP3 ADD MSTORE PUSH1 0x84 ADD PUSH2 0x8C9 JUMP JUMPDEST PUSH2 0x1693 DUP3 DUP5 PUSH1 0x0 PUSH2 0x2C61 JUMP JUMPDEST PUSH2 0x16A9 JUMP JUMPDEST PUSH2 0x16A9 DUP3 DUP4 PUSH2 0x140 ADD MLOAD PUSH1 0x0 PUSH2 0x2C61 JUMP JUMPDEST PUSH2 0x8DC DUP3 DUP3 PUSH2 0x2484 JUMP JUMPDEST PUSH1 0x60 PUSH1 0x4 DUP1 SLOAD PUSH2 0x7D3 SWAP1 PUSH2 0x42E9 JUMP JUMPDEST PUSH1 0x0 CALLER DUP2 PUSH2 0x16D0 DUP3 DUP7 PUSH2 0x1870 JUMP JUMPDEST SWAP1 POP DUP4 DUP2 LT ISZERO PUSH2 0x1730 JUMPI PUSH1 0x40 MLOAD PUSH3 0x461BCD PUSH1 0xE5 SHL DUP2 MSTORE PUSH1 0x20 PUSH1 0x4 DUP3 ADD MSTORE PUSH1 0x25 PUSH1 0x24 DUP3 ADD MSTORE PUSH32 0x45524332303A2064656372656173656420616C6C6F77616E63652062656C6F77 PUSH1 0x44 DUP3 ADD MSTORE PUSH5 0x207A65726F PUSH1 0xD8 SHL PUSH1 0x64 DUP3 ADD MSTORE PUSH1 0x84 ADD PUSH2 0x8C9 JUMP JUMPDEST PUSH2 0x173D DUP3 DUP7 DUP7 DUP5 SUB PUSH2 0x19E6 JUMP JUMPDEST POP PUSH1 0x1 SWAP5 SWAP4 POP POP POP POP JUMP JUMPDEST PUSH1 0x0 CALLER PUSH2 0x864 DUP2 DUP6 DUP6 PUSH2 0x1C3D JUMP JUMPDEST PUSH1 0x0 PUSH1 0x1B DUP5 PUSH1 0xFF AND LT ISZERO DUP1 ISZERO PUSH2 0x1770 JUMPI POP PUSH1 0x1E DUP5 PUSH1 0xFF AND GT ISZERO JUMPDEST PUSH2 0x17AE JUMPI PUSH1 0x40 MLOAD PUSH3 0x461BCD PUSH1 0xE5 SHL DUP2 MSTORE PUSH1 0x20 PUSH1 0x4 DUP3 ADD MSTORE PUSH1 0xF PUSH1 0x24 DUP3 ADD MSTORE PUSH15 0x135653950E881D881A5B9D985B1A59 PUSH1 0x8A SHL PUSH1 0x44 DUP3 ADD MSTORE PUSH1 0x64 ADD PUSH2 0x8C9 JUMP JUMPDEST PUSH1 0x40 DUP1 MLOAD PUSH1 0x20 DUP1 DUP3 ADD DUP11 SWAP1 MSTORE DUP2 DUP4 ADD DUP10 SWAP1 MSTORE DUP3 MLOAD DUP1 DUP4 SUB DUP5 ADD DUP2 MSTORE PUSH1 0x60 SWAP1 SWAP3 ADD SWAP1 SWAP3 MSTORE DUP1 MLOAD SWAP2 ADD KECCAK256 PUSH1 0x0 PUSH2 0x17EB PUSH2 0x17E6 DUP13 DUP13 DUP11 PUSH2 0x2D46 JUMP JUMPDEST PUSH2 0x2F29 JUMP JUMPDEST PUSH1 0x40 DUP1 MLOAD PUSH1 0x0 DUP2 MSTORE PUSH1 0x20 DUP2 ADD DUP1 DUP4 MSTORE DUP4 SWAP1 MSTORE PUSH1 0xFF DUP10 AND SWAP2 DUP2 ADD SWAP2 SWAP1 SWAP2 MSTORE PUSH1 0x60 DUP2 ADD DUP8 SWAP1 MSTORE PUSH1 0x80 DUP2 ADD DUP7 SWAP1 MSTORE SWAP1 SWAP2 POP PUSH1 0x1 PUSH1 0x1 PUSH1 0xA0 SHL SUB DUP4 AND SWAP1 PUSH1 0x1 SWAP1 PUSH1 0xA0 ADD PUSH1 0x20 PUSH1 0x40 MLOAD PUSH1 0x20 DUP2 SUB SWAP1 DUP1 DUP5 SUB SWAP1 DUP6 GAS STATICCALL ISZERO DUP1 ISZERO PUSH2 0x184C JUMPI RETURNDATASIZE PUSH1 0x0 DUP1 RETURNDATACOPY RETURNDATASIZE PUSH1 0x0 REVERT JUMPDEST POP POP POP PUSH1 0x20 PUSH1 0x40 MLOAD SUB MLOAD PUSH1 0x1 PUSH1 0x1 PUSH1 0xA0 SHL SUB AND EQ SWAP3 POP POP POP SWAP9 SWAP8 POP POP POP POP POP POP POP POP JUMP JUMPDEST PUSH1 0x1 PUSH1 0x1 PUSH1 0xA0 SHL SUB SWAP2 DUP3 AND PUSH1 0x0 SWAP1 DUP2 MSTORE PUSH1 0x1 PUSH1 0x20 SWAP1 DUP2 MSTORE PUSH1 0x40 DUP1 DUP4 KECCAK256 SWAP4 SWAP1 SWAP5 AND DUP3 MSTORE SWAP2 SWAP1 SWAP2 MSTORE KECCAK256 SLOAD SWAP1 JUMP JUMPDEST PUSH1 0x0 PUSH2 0x18DB DUP6 DUP6 DUP6 DUP6 DUP1 DUP1 PUSH1 0x20 MUL PUSH1 0x20 ADD PUSH1 0x40 MLOAD SWAP1 DUP2 ADD PUSH1 0x40 MSTORE DUP1 SWAP4 SWAP3 SWAP2 SWAP1 DUP2 DUP2 MSTORE PUSH1 0x20 ADD DUP4 DUP4 PUSH1 0x20 MUL DUP1 DUP3 DUP5 CALLDATACOPY PUSH1 0x0 SWAP3 ADD SWAP2 SWAP1 SWAP2 MSTORE POP PUSH2 0x2B24 SWAP3 POP POP POP JUMP JUMPDEST SWAP6 SWAP5 POP POP POP POP POP JUMP JUMPDEST PUSH2 0x18EC PUSH2 0x3D47 JUMP JUMPDEST PUSH1 0x7 SLOAD PUSH1 0x0 SWAP1 DUP2 SWAP1 DUP2 SWAP1 PUSH2 0x190F SWAP1 PUSH1 0x1 PUSH1 0x80 SHL SWAP1 DIV PUSH1 0x1 PUSH1 0x1 PUSH1 0x80 SHL SUB AND PUSH2 0x2FE8 JUMP JUMPDEST PUSH1 0x40 DUP1 MLOAD PUSH2 0x1A0 DUP2 ADD DUP3 MSTORE PUSH1 0x6 SLOAD PUSH1 0x1 PUSH1 0x1 PUSH1 0x48 SHL SUB DUP1 DUP3 AND DUP4 MSTORE PUSH1 0x1 PUSH1 0x48 SHL DUP3 DIV DUP2 AND PUSH1 0x20 DUP5 ADD MSTORE PUSH5 0xFFFFFFFFFF PUSH1 0x1 PUSH1 0x90 SHL DUP4 DIV DUP2 AND SWAP5 DUP5 ADD SWAP5 SWAP1 SWAP5 MSTORE PUSH1 0x1 PUSH1 0xB8 SHL SWAP1 SWAP2 DIV DUP2 AND PUSH1 0x60 DUP4 ADD MSTORE PUSH1 0x7 SLOAD PUSH2 0xFFFF DUP2 AND PUSH1 0x80 DUP5 ADD MSTORE PUSH3 0x10000 DUP2 DIV SWAP1 SWAP2 AND PUSH1 0xA0 DUP4 ADD MSTORE PUSH1 0x1 PUSH1 0x58 SHL SWAP1 DIV SWAP1 SWAP2 AND PUSH1 0xC0 DUP3 ADD MSTORE PUSH1 0xE0 DUP2 ADD DUP3 SWAP1 MSTORE PUSH2 0x100 DUP2 ADD DUP4 SWAP1 MSTORE PUSH2 0x120 DUP2 ADD DUP5 SWAP1 MSTORE TIMESTAMP PUSH2 0x140 DUP3 ADD MSTORE SWAP3 SWAP6 POP SWAP1 SWAP4 POP SWAP2 POP PUSH2 0x160 DUP2 ADD PUSH2 0x19BB PUSH1 0x2 SLOAD SWAP1 JUMP JUMPDEST DUP2 MSTORE PUSH1 0x20 ADD PUSH1 0xB PUSH1 0x0 PUSH2 0x19CC PUSH2 0x2A6B JUMP JUMPDEST DUP2 MSTORE PUSH1 0x20 ADD SWAP1 DUP2 MSTORE PUSH1 0x20 ADD PUSH1 0x0 KECCAK256 SLOAD DUP2 MSTORE POP SWAP4 POP POP POP POP SWAP1 JUMP JUMPDEST PUSH1 0x1 PUSH1 0x1 PUSH1 0xA0 SHL SUB DUP4 AND PUSH2 0x1A48 JUMPI PUSH1 0x40 MLOAD PUSH3 0x461BCD PUSH1 0xE5 SHL DUP2 MSTORE PUSH1 0x20 PUSH1 0x4 DUP3 ADD MSTORE PUSH1 0x24 DUP1 DUP3 ADD MSTORE PUSH32 0x45524332303A20617070726F76652066726F6D20746865207A65726F20616464 PUSH1 0x44 DUP3 ADD MSTORE PUSH4 0x72657373 PUSH1 0xE0 SHL PUSH1 0x64 DUP3 ADD MSTORE PUSH1 0x84 ADD PUSH2 0x8C9 JUMP JUMPDEST PUSH1 0x1 PUSH1 0x1 PUSH1 0xA0 SHL SUB DUP3 AND PUSH2 0x1AA9 JUMPI PUSH1 0x40 MLOAD PUSH3 0x461BCD PUSH1 0xE5 SHL DUP2 MSTORE PUSH1 0x20 PUSH1 0x4 DUP3 ADD MSTORE PUSH1 0x22 PUSH1 0x24 DUP3 ADD MSTORE PUSH32 0x45524332303A20617070726F766520746F20746865207A65726F206164647265 PUSH1 0x44 DUP3 ADD MSTORE PUSH2 0x7373 PUSH1 0xF0 SHL PUSH1 0x64 DUP3 ADD MSTORE PUSH1 0x84 ADD PUSH2 0x8C9 JUMP JUMPDEST PUSH1 0x1 PUSH1 0x1 PUSH1 0xA0 SHL SUB DUP4 DUP2 AND PUSH1 0x0 DUP2 DUP2 MSTORE PUSH1 0x1 PUSH1 0x20 SWAP1 DUP2 MSTORE PUSH1 0x40 DUP1 DUP4 KECCAK256 SWAP5 DUP8 AND DUP1 DUP5 MSTORE SWAP5 DUP3 MSTORE SWAP2 DUP3 SWAP1 KECCAK256 DUP6 SWAP1 SSTORE SWAP1 MLOAD DUP5 DUP2 MSTORE PUSH32 0x8C5BE1E5EBEC7D5BD14F71427D1E84F3DD0314C0F7B2291E5B200AC8C7C3B925 SWAP2 ADD PUSH1 0x40 MLOAD DUP1 SWAP2 SUB SWAP1 LOG3 POP POP POP JUMP JUMPDEST PUSH1 0x1 PUSH1 0x1 PUSH1 0xA0 SHL SUB DUP3 AND PUSH2 0x1B60 JUMPI PUSH1 0x40 MLOAD PUSH3 0x461BCD PUSH1 0xE5 SHL DUP2 MSTORE PUSH1 0x20 PUSH1 0x4 DUP3 ADD MSTORE PUSH1 0x1F PUSH1 0x24 DUP3 ADD MSTORE PUSH32 0x45524332303A206D696E7420746F20746865207A65726F206164647265737300 PUSH1 0x44 DUP3 ADD MSTORE PUSH1 0x64 ADD PUSH2 0x8C9 JUMP JUMPDEST DUP1 PUSH1 0x2 PUSH1 0x0 DUP3 DUP3 SLOAD PUSH2 0x1B72 SWAP2 SWAP1 PUSH2 0x448B JUMP JUMPDEST SWAP1 SWAP2 SSTORE POP POP PUSH1 0x1 PUSH1 0x1 PUSH1 0xA0 SHL SUB DUP3 AND PUSH1 0x0 DUP2 DUP2 MSTORE PUSH1 0x20 DUP2 DUP2 MSTORE PUSH1 0x40 DUP1 DUP4 KECCAK256 DUP1 SLOAD DUP7 ADD SWAP1 SSTORE MLOAD DUP5 DUP2 MSTORE PUSH32 0xDDF252AD1BE2C89B69C2B068FC378DAA952BA7F163C4A11628F55A4DF523B3EF SWAP2 ADD PUSH1 0x40 MLOAD DUP1 SWAP2 SUB SWAP1 LOG3 POP POP JUMP JUMPDEST PUSH1 0x0 PUSH2 0x1BD5 DUP5 DUP5 PUSH2 0x1870 JUMP JUMPDEST SWAP1 POP PUSH1 0x0 NOT DUP2 EQ PUSH2 0xF77 JUMPI DUP2 DUP2 LT ISZERO PUSH2 0x1C30 JUMPI PUSH1 0x40 MLOAD PUSH3 0x461BCD PUSH1 0xE5 SHL DUP2 MSTORE PUSH1 0x20 PUSH1 0x4 DUP3 ADD MSTORE PUSH1 0x1D PUSH1 0x24 DUP3 ADD MSTORE PUSH32 0x45524332303A20696E73756666696369656E7420616C6C6F77616E6365000000 PUSH1 0x44 DUP3 ADD MSTORE PUSH1 0x64 ADD PUSH2 0x8C9 JUMP JUMPDEST PUSH2 0xF77 DUP5 DUP5 DUP5 DUP5 SUB PUSH2 0x19E6 JUMP JUMPDEST PUSH1 0x1 PUSH1 0x1 PUSH1 0xA0 SHL SUB DUP4 AND PUSH2 0x1CA1 JUMPI PUSH1 0x40 MLOAD PUSH3 0x461BCD PUSH1 0xE5 SHL DUP2 MSTORE PUSH1 0x20 PUSH1 0x4 DUP3 ADD MSTORE PUSH1 0x25 PUSH1 0x24 DUP3 ADD MSTORE PUSH32 0x45524332303A207472616E736665722066726F6D20746865207A65726F206164 PUSH1 0x44 DUP3 ADD MSTORE PUSH5 0x6472657373 PUSH1 0xD8 SHL PUSH1 0x64 DUP3 ADD MSTORE PUSH1 0x84 ADD PUSH2 0x8C9 JUMP JUMPDEST PUSH1 0x1 PUSH1 0x1 PUSH1 0xA0 SHL SUB DUP3 AND PUSH2 0x1D03 JUMPI PUSH1 0x40 MLOAD PUSH3 0x461BCD PUSH1 0xE5 SHL DUP2 MSTORE PUSH1 0x20 PUSH1 0x4 DUP3 ADD MSTORE PUSH1 0x23 PUSH1 0x24 DUP3 ADD MSTORE PUSH32 0x45524332303A207472616E7366657220746F20746865207A65726F2061646472 PUSH1 0x44 DUP3 ADD MSTORE PUSH3 0x657373 PUSH1 0xE8 SHL PUSH1 0x64 DUP3 ADD MSTORE PUSH1 0x84 ADD PUSH2 0x8C9 JUMP JUMPDEST PUSH1 0x1 PUSH1 0x1 PUSH1 0xA0 SHL SUB DUP4 AND PUSH1 0x0 SWAP1 DUP2 MSTORE PUSH1 0x20 DUP2 SWAP1 MSTORE PUSH1 0x40 SWAP1 KECCAK256 SLOAD DUP2 DUP2 LT ISZERO PUSH2 0x1D7B JUMPI PUSH1 0x40 MLOAD PUSH3 0x461BCD PUSH1 0xE5 SHL DUP2 MSTORE PUSH1 0x20 PUSH1 0x4 DUP3 ADD MSTORE PUSH1 0x26 PUSH1 0x24 DUP3 ADD MSTORE PUSH32 0x45524332303A207472616E7366657220616D6F756E7420657863656564732062 PUSH1 0x44 DUP3 ADD MSTORE PUSH6 0x616C616E6365 PUSH1 0xD0 SHL PUSH1 0x64 DUP3 ADD MSTORE PUSH1 0x84 ADD PUSH2 0x8C9 JUMP JUMPDEST PUSH1 0x1 PUSH1 0x1 PUSH1 0xA0 SHL SUB DUP5 DUP2 AND PUSH1 0x0 DUP2 DUP2 MSTORE PUSH1 0x20 DUP2 DUP2 MSTORE PUSH1 0x40 DUP1 DUP4 KECCAK256 DUP8 DUP8 SUB SWAP1 SSTORE SWAP4 DUP8 AND DUP1 DUP4 MSTORE SWAP2 DUP5 SWAP1 KECCAK256 DUP1 SLOAD DUP8 ADD SWAP1 SSTORE SWAP3 MLOAD DUP6 DUP2 MSTORE SWAP1 SWAP3 PUSH32 0xDDF252AD1BE2C89B69C2B068FC378DAA952BA7F163C4A11628F55A4DF523B3EF SWAP2 ADD PUSH1 0x40 MLOAD DUP1 SWAP2 SUB SWAP1 LOG3 PUSH2 0xF77 JUMP JUMPDEST PUSH1 0x0 PUSH2 0x92B DUP3 PUSH32 0x4E831ACB4223B66DE3B3D2E54A2EDEEFB0DE3D7916E2886A4B134D9764D41BEC DUP6 PUSH2 0x3055 JUMP JUMPDEST PUSH1 0x0 PUSH1 0x3 PUSH1 0x2 DUP4 PUSH1 0x40 MLOAD PUSH2 0x1E22 SWAP2 SWAP1 PUSH2 0x44B7 JUMP JUMPDEST PUSH1 0x20 PUSH1 0x40 MLOAD DUP1 DUP4 SUB DUP2 DUP6 GAS STATICCALL ISZERO DUP1 ISZERO PUSH2 0x1E3F JUMPI RETURNDATASIZE PUSH1 0x0 DUP1 RETURNDATACOPY RETURNDATASIZE PUSH1 0x0 REVERT JUMPDEST POP POP POP PUSH1 0x40 MLOAD RETURNDATASIZE PUSH1 0x1F NOT PUSH1 0x1F DUP3 ADD AND DUP3 ADD DUP1 PUSH1 0x40 MSTORE POP DUP2 ADD SWAP1 PUSH2 0x1E62 SWAP2 SWAP1 PUSH2 0x44D3 JUMP JUMPDEST PUSH1 0x40 MLOAD PUSH1 0x20 ADD PUSH2 0x1E74 SWAP2 DUP2 MSTORE PUSH1 0x20 ADD SWAP1 JUMP JUMPDEST PUSH1 0x40 DUP1 MLOAD PUSH1 0x1F NOT DUP2 DUP5 SUB ADD DUP2 MSTORE SWAP1 DUP3 SWAP1 MSTORE PUSH2 0x1E8E SWAP2 PUSH2 0x44B7 JUMP JUMPDEST PUSH1 0x20 PUSH1 0x40 MLOAD DUP1 DUP4 SUB DUP2 DUP6 GAS STATICCALL ISZERO DUP1 ISZERO PUSH2 0x1EAB JUMPI RETURNDATASIZE PUSH1 0x0 DUP1 RETURNDATACOPY RETURNDATASIZE PUSH1 0x0 REVERT JUMPDEST POP POP PUSH1 0x40 MLOAD MLOAD PUSH1 0x60 SHL SWAP4 SWAP3 POP POP POP JUMP JUMPDEST PUSH1 0x6 SLOAD PUSH1 0x1 PUSH1 0x1 PUSH1 0x48 SHL SUB DUP1 DUP3 AND DUP5 MSTORE PUSH1 0x1 PUSH1 0x48 SHL DUP3 DIV DUP2 AND PUSH1 0x20 DUP6 ADD MSTORE PUSH5 0xFFFFFFFFFF PUSH1 0x1 PUSH1 0x90 SHL DUP4 DIV DUP2 AND PUSH1 0x40 DUP7 ADD MSTORE PUSH1 0x1 PUSH1 0xB8 SHL SWAP1 SWAP3 DIV DUP2 AND PUSH1 0x60 DUP6 ADD MSTORE PUSH1 0x7 SLOAD PUSH2 0xFFFF DUP2 AND PUSH1 0x80 DUP7 ADD MSTORE PUSH3 0x10000 DUP2 DIV SWAP1 SWAP2 AND PUSH1 0xA0 DUP6 ADD MSTORE PUSH1 0x1 PUSH1 0x58 SHL DUP2 DIV SWAP1 SWAP2 AND PUSH1 0xC0 DUP5 ADD MSTORE PUSH2 0x1F40 SWAP1 PUSH1 0x1 PUSH1 0x1 PUSH1 0x80 SHL SUB PUSH1 0x1 PUSH1 0x80 SHL SWAP1 SWAP2 DIV AND PUSH2 0x2FE8 JUMP JUMPDEST PUSH1 0xE0 DUP6 ADD MSTORE PUSH2 0x100 DUP5 ADD MSTORE PUSH2 0x120 DUP4 ADD MSTORE PUSH2 0x1F59 PUSH2 0x2A6B JUMP JUMPDEST PUSH2 0x140 DUP4 ADD MSTORE PUSH2 0x129D DUP3 DUP3 PUSH2 0x306B JUMP JUMPDEST DUP3 SLOAD PUSH5 0xFFFFFFFFFF DUP4 DUP2 AND SWAP2 AND EQ PUSH2 0x1FC3 JUMPI PUSH1 0x40 MLOAD PUSH3 0x461BCD PUSH1 0xE5 SHL DUP2 MSTORE PUSH1 0x20 PUSH1 0x4 DUP3 ADD MSTORE PUSH1 0x1F PUSH1 0x24 DUP3 ADD MSTORE PUSH32 0x4D594E543A207374616B654964506172616D206E6F7420696E207374616B6500 PUSH1 0x44 DUP3 ADD MSTORE PUSH1 0x64 ADD PUSH2 0x8C9 JUMP JUMPDEST SWAP2 SLOAD PUSH5 0xFFFFFFFFFF DUP2 AND DUP4 MSTORE PUSH1 0x1 PUSH1 0x1 PUSH1 0x48 SHL SUB PUSH1 0x1 PUSH1 0x28 SHL DUP3 DIV DUP2 AND PUSH1 0x20 DUP6 ADD MSTORE PUSH1 0x1 PUSH1 0x70 SHL DUP3 DIV AND PUSH1 0x40 DUP5 ADD MSTORE PUSH2 0xFFFF PUSH1 0x1 PUSH1 0xB8 SHL DUP3 DIV DUP2 AND PUSH1 0x60 DUP6 ADD MSTORE PUSH1 0x1 PUSH1 0xC8 SHL DUP3 DIV DUP2 AND PUSH1 0x80 DUP6 ADD MSTORE PUSH1 0x1 PUSH1 0xD8 SHL DUP3 DIV AND PUSH1 0xA0 DUP5 ADD MSTORE PUSH1 0xFF PUSH1 0x1 PUSH1 0xE8 SHL SWAP1 SWAP2 DIV AND ISZERO ISZERO PUSH1 0xC0 SWAP1 SWAP3 ADD SWAP2 SWAP1 SWAP2 MSTORE POP JUMP JUMPDEST PUSH2 0x2048 DUP2 DUP3 PUSH2 0x140 ADD MLOAD PUSH1 0x1 PUSH2 0x2C61 JUMP JUMPDEST POP JUMP JUMPDEST DUP1 PUSH1 0x40 ADD MLOAD DUP3 PUSH1 0xA0 ADD DUP2 DUP2 MLOAD PUSH2 0x2061 SWAP2 SWAP1 PUSH2 0x4478 JUMP JUMPDEST SWAP1 MSTORE POP PUSH2 0x140 SWAP1 SWAP2 ADD MLOAD PUSH1 0xA0 SWAP1 SWAP2 ADD MSTORE JUMP JUMPDEST PUSH1 0x0 DUP1 PUSH1 0x0 DUP1 DUP6 PUSH1 0x80 ADD MLOAD DUP6 LT ISZERO PUSH2 0x20BA JUMPI PUSH2 0x209E DUP8 DUP8 PUSH1 0x60 ADD MLOAD DUP9 PUSH1 0x80 ADD MLOAD DUP9 DUP11 PUSH1 0x40 ADD MLOAD PUSH2 0x30D3 JUMP JUMPDEST PUSH1 0x20 DUP9 ADD MLOAD SWAP2 SWAP5 POP SWAP3 POP PUSH2 0x20B3 SWAP1 DUP5 SWAP1 PUSH2 0x448B JUMP JUMPDEST SWAP4 POP PUSH2 0x2108 JUMP JUMPDEST PUSH1 0x40 DUP7 ADD MLOAD PUSH1 0x60 DUP8 ADD MLOAD PUSH2 0x20D9 SWAP2 DUP10 SWAP2 PUSH2 0x20D4 DUP10 DUP3 PUSH2 0x448B JUMP JUMPDEST PUSH2 0x31C1 JUMP JUMPDEST SWAP3 POP DUP3 DUP7 PUSH1 0x20 ADD MLOAD PUSH2 0x20EB SWAP2 SWAP1 PUSH2 0x448B JUMP JUMPDEST SWAP4 POP PUSH2 0x2105 DUP7 PUSH1 0x60 ADD MLOAD DUP8 PUSH1 0x80 ADD MLOAD DUP9 PUSH1 0xA0 ADD MLOAD DUP8 PUSH2 0x332D JUMP JUMPDEST SWAP2 POP JUMPDEST DUP2 ISZERO PUSH2 0x212E JUMPI DUP4 DUP3 GT ISZERO PUSH2 0x211F JUMPI POP PUSH1 0x0 SWAP3 PUSH2 0x212E JUMP JUMPDEST POP DUP1 PUSH2 0x212B DUP2 DUP6 PUSH2 0x4478 JUMP JUMPDEST SWAP4 POP JUMPDEST SWAP4 POP SWAP4 POP SWAP4 POP SWAP4 JUMP JUMPDEST DUP7 PUSH5 0xFFFFFFFFFF AND CALLER PUSH1 0x1 PUSH1 0x1 PUSH1 0xA0 SHL SUB AND PUSH32 0x72D9C5A7AB13846E08D9C838F9E866A1BB4A66A2FD3BA3C9E7DA3CF9E394DFD7 PUSH1 0xB8 DUP8 PUSH1 0x1 PUSH1 0x1 PUSH1 0x48 SHL SUB AND SWAP1 SHL PUSH1 0x70 DUP10 PUSH1 0x1 PUSH1 0x1 PUSH1 0x48 SHL SUB AND SWAP1 SHL PUSH1 0x28 DUP12 PUSH1 0x1 PUSH1 0x1 PUSH1 0x48 SHL SUB AND SWAP1 SHL TIMESTAMP PUSH5 0xFFFFFFFFFF AND OR OR OR DUP5 PUSH2 0x21AB JUMPI PUSH1 0x0 PUSH2 0x21B1 JUMP JUMPDEST PUSH1 0x1 PUSH1 0x58 SHL JUMPDEST PUSH12 0xFFFFFFFFFFFFFFFFFFFFFFFF AND PUSH1 0x48 DUP8 PUSH2 0xFFFF AND SWAP1 SHL DUP9 PUSH1 0x1 PUSH1 0x1 PUSH1 0x48 SHL SUB AND OR OR PUSH1 0x40 MLOAD PUSH2 0x21EB SWAP3 SWAP2 SWAP1 SWAP2 DUP3 MSTORE PUSH1 0x20 DUP3 ADD MSTORE PUSH1 0x40 ADD SWAP1 JUMP JUMPDEST PUSH1 0x40 MLOAD DUP1 SWAP2 SUB SWAP1 LOG3 POP POP POP POP POP POP POP JUMP JUMPDEST PUSH1 0x0 PUSH2 0x2209 PUSH1 0x2 DUP4 PUSH2 0x4429 JUMP JUMPDEST SWAP1 POP DUP1 ISZERO PUSH2 0x222F JUMPI PUSH2 0x222F PUSH20 0x9A6A414D6F3497C05E3B1DE90520765FA1E07C03 DUP3 PUSH2 0x1B0A JUMP JUMPDEST PUSH2 0x2239 DUP2 DUP4 PUSH2 0x4478 JUMP JUMPDEST SWAP1 POP DUP1 DUP4 PUSH1 0x60 ADD DUP2 DUP2 MLOAD PUSH2 0x224D SWAP2 SWAP1 PUSH2 0x448B JUMP JUMPDEST SWAP1 MSTORE POP POP POP POP JUMP JUMPDEST DUP2 PUSH1 0x20 ADD MLOAD DUP2 GT ISZERO PUSH2 0x8DC JUMPI PUSH1 0x0 PUSH2 0x2271 DUP3 DUP5 PUSH1 0x80 ADD MLOAD PUSH2 0x338D JUMP JUMPDEST SWAP1 POP PUSH1 0x0 DUP4 PUSH1 0x40 ADD MLOAD PUSH3 0x186A0 DUP4 DUP6 PUSH2 0x228A SWAP2 SWAP1 PUSH2 0x448B JUMP JUMPDEST PUSH2 0x2294 SWAP2 SWAP1 PUSH2 0x444B JUMP JUMPDEST PUSH2 0x229E SWAP2 SWAP1 PUSH2 0x4429 JUMP JUMPDEST SWAP1 POP PUSH2 0x22AF PUSH1 0x1 PUSH1 0x1 PUSH1 0x28 SHL PUSH2 0x4478 JUMP JUMPDEST DUP2 GT ISZERO PUSH2 0x22C8 JUMPI PUSH2 0x22C5 PUSH1 0x1 PUSH1 0x1 PUSH1 0x28 SHL PUSH2 0x4478 JUMP JUMPDEST SWAP1 POP JUMPDEST DUP5 PUSH1 0x40 ADD MLOAD DUP2 GT ISZERO PUSH2 0x22E8 JUMPI PUSH1 0x40 DUP6 ADD DUP2 SWAP1 MSTORE DUP4 MLOAD PUSH2 0x22E8 SWAP1 DUP3 SWAP1 PUSH2 0x34FB JUMP JUMPDEST POP POP POP POP POP JUMP JUMPDEST DUP2 SLOAD PUSH1 0x0 SWAP1 PUSH2 0x2300 SWAP1 PUSH1 0x1 SWAP1 PUSH2 0x4478 JUMP JUMPDEST SWAP1 POP DUP1 DUP3 EQ PUSH2 0x244D JUMPI DUP3 DUP2 DUP2 SLOAD DUP2 LT PUSH2 0x231B JUMPI PUSH2 0x231B PUSH2 0x4462 JUMP JUMPDEST SWAP1 PUSH1 0x0 MSTORE PUSH1 0x20 PUSH1 0x0 KECCAK256 ADD DUP4 DUP4 DUP2 SLOAD DUP2 LT PUSH2 0x2337 JUMPI PUSH2 0x2337 PUSH2 0x4462 JUMP JUMPDEST PUSH1 0x0 SWAP2 DUP3 MSTORE PUSH1 0x20 SWAP1 SWAP2 KECCAK256 DUP3 SLOAD SWAP2 ADD DUP1 SLOAD PUSH5 0xFFFFFFFFFF NOT DUP2 AND PUSH5 0xFFFFFFFFFF SWAP1 SWAP4 AND SWAP3 DUP4 OR DUP3 SSTORE DUP4 SLOAD PUSH1 0x1 PUSH1 0x1 PUSH1 0x48 SHL SUB PUSH1 0x1 PUSH1 0x28 SHL SWAP2 DUP3 SWAP1 DIV DUP2 AND SWAP1 SWAP2 MUL PUSH1 0x1 PUSH1 0x1 PUSH1 0x70 SHL SUB NOT SWAP1 SWAP3 AND SWAP1 SWAP4 OR OR DUP1 DUP3 SSTORE DUP4 SLOAD PUSH1 0x1 PUSH1 0x70 SHL SWAP1 DUP2 SWAP1 DIV SWAP1 SWAP4 AND SWAP1 SWAP3 MUL PUSH9 0xFFFFFFFFFFFFFFFFFF PUSH1 0x70 SHL NOT DUP4 AND DUP2 OR DUP3 SSTORE DUP4 SLOAD PUSH2 0xFFFF PUSH1 0x1 PUSH1 0xB8 SHL SWAP2 DUP3 SWAP1 DIV DUP2 AND SWAP1 SWAP2 MUL PUSH2 0xFFFF PUSH1 0xB8 SHL NOT SWAP1 SWAP3 AND PUSH1 0x1 PUSH1 0x70 SHL PUSH1 0x1 PUSH1 0xC8 SHL SUB NOT SWAP1 SWAP5 AND SWAP4 SWAP1 SWAP4 OR OR DUP1 DUP3 SSTORE DUP4 SLOAD PUSH1 0x1 PUSH1 0xC8 SHL SWAP1 DUP2 SWAP1 DIV DUP5 AND MUL PUSH2 0xFFFF PUSH1 0xC8 SHL NOT DUP3 AND DUP2 OR DUP4 SSTORE DUP5 SLOAD PUSH1 0x1 PUSH1 0xD8 SHL SWAP1 DUP2 SWAP1 DIV SWAP1 SWAP5 AND SWAP1 SWAP4 MUL PUSH2 0xFFFF PUSH1 0xD8 SHL NOT SWAP1 SWAP4 AND PUSH4 0xFFFFFFFF PUSH1 0xC8 SHL NOT SWAP1 SWAP2 AND OR SWAP2 SWAP1 SWAP2 OR DUP1 DUP3 SSTORE SWAP2 SLOAD PUSH1 0xFF PUSH1 0x1 PUSH1 0xE8 SHL SWAP2 DUP3 SWAP1 DIV AND ISZERO ISZERO MUL PUSH1 0xFF PUSH1 0xE8 SHL NOT SWAP1 SWAP3 AND SWAP2 SWAP1 SWAP2 OR SWAP1 SSTORE JUMPDEST DUP3 DUP1 SLOAD DUP1 PUSH2 0x245D JUMPI PUSH2 0x245D PUSH2 0x44EC JUMP JUMPDEST PUSH1 0x0 DUP3 DUP2 MSTORE PUSH1 0x20 SWAP1 KECCAK256 DUP2 ADD PUSH1 0x0 NOT SWAP1 DUP2 ADD DUP1 SLOAD PUSH1 0x1 PUSH1 0x1 PUSH1 0xF0 SHL SUB NOT AND SWAP1 SSTORE ADD SWAP1 SSTORE POP POP POP JUMP JUMPDEST DUP1 MLOAD DUP3 MLOAD EQ ISZERO DUP1 PUSH2 0x249D JUMPI POP DUP1 PUSH1 0x20 ADD MLOAD DUP3 PUSH1 0x20 ADD MLOAD EQ ISZERO JUMPDEST DUP1 PUSH2 0x24B0 JUMPI POP DUP1 PUSH1 0x40 ADD MLOAD DUP3 PUSH1 0x40 ADD MLOAD EQ ISZERO JUMPDEST DUP1 PUSH2 0x24C3 JUMPI POP DUP1 PUSH1 0x60 ADD MLOAD DUP3 PUSH1 0x60 ADD MLOAD EQ ISZERO JUMPDEST ISZERO PUSH2 0x2546 JUMPI DUP2 MLOAD PUSH1 0x6 DUP1 SLOAD PUSH1 0x20 DUP6 ADD MLOAD PUSH1 0x40 DUP7 ADD MLOAD PUSH1 0x60 DUP8 ADD MLOAD PUSH1 0x1 PUSH1 0x1 PUSH1 0x48 SHL SUB SWAP1 DUP2 AND PUSH1 0x1 PUSH1 0xB8 SHL MUL PUSH1 0x1 PUSH1 0x1 PUSH1 0xB8 SHL SUB PUSH5 0xFFFFFFFFFF SWAP1 SWAP4 AND PUSH1 0x1 PUSH1 0x90 SHL MUL SWAP3 SWAP1 SWAP3 AND PUSH18 0xFFFFFFFFFFFFFFFFFFFFFFFFFFFFFFFFFFFF SWAP4 DUP3 AND PUSH1 0x1 PUSH1 0x48 SHL MUL PUSH1 0x1 PUSH1 0x1 PUSH1 0x90 SHL SUB NOT SWAP1 SWAP6 AND SWAP2 SWAP1 SWAP7 AND OR SWAP3 SWAP1 SWAP3 OR AND SWAP3 SWAP1 SWAP3 OR SWAP2 SWAP1 SWAP2 OR SWAP1 SSTORE JUMPDEST DUP1 PUSH1 0x80 ADD MLOAD DUP3 PUSH1 0x80 ADD MLOAD EQ ISZERO DUP1 PUSH2 0x2565 JUMPI POP DUP1 PUSH1 0xA0 ADD MLOAD DUP3 PUSH1 0xA0 ADD MLOAD EQ ISZERO JUMPDEST DUP1 PUSH2 0x2586 JUMPI POP DUP1 PUSH1 0xC0 ADD MLOAD PUSH5 0xFFFFFFFFFF AND DUP3 PUSH1 0xC0 ADD MLOAD PUSH5 0xFFFFFFFFFF AND EQ ISZERO JUMPDEST DUP1 PUSH2 0x2599 JUMPI POP DUP1 PUSH1 0xE0 ADD MLOAD DUP3 PUSH1 0xE0 ADD MLOAD EQ ISZERO JUMPDEST DUP1 PUSH2 0x25AE JUMPI POP DUP1 PUSH2 0x100 ADD MLOAD DUP3 PUSH2 0x100 ADD MLOAD EQ ISZERO JUMPDEST DUP1 PUSH2 0x25C3 JUMPI POP DUP1 PUSH2 0x120 ADD MLOAD DUP3 PUSH2 0x120 ADD MLOAD EQ ISZERO JUMPDEST ISZERO PUSH2 0x129D JUMPI PUSH1 0x80 DUP3 ADD MLOAD PUSH1 0x7 DUP1 SLOAD PUSH1 0xA0 DUP6 ADD MLOAD PUSH1 0xC0 DUP7 ADD MLOAD PUSH5 0xFFFFFFFFFF AND PUSH1 0x1 PUSH1 0x58 SHL MUL PUSH5 0xFFFFFFFFFF PUSH1 0x58 SHL NOT PUSH1 0x1 PUSH1 0x1 PUSH1 0x48 SHL SUB SWAP1 SWAP3 AND PUSH3 0x10000 MUL PUSH11 0xFFFFFFFFFFFFFFFFFFFFFF NOT SWAP1 SWAP4 AND PUSH2 0xFFFF SWAP1 SWAP6 AND SWAP5 SWAP1 SWAP5 OR SWAP2 SWAP1 SWAP2 OR AND SWAP2 SWAP1 SWAP2 OR SWAP1 SSTORE PUSH2 0x120 DUP3 ADD MLOAD PUSH2 0x100 DUP4 ADD MLOAD PUSH1 0xE0 DUP5 ADD MLOAD PUSH2 0x2643 SWAP3 SWAP2 SWAP1 PUSH2 0x3554 JUMP JUMPDEST PUSH1 0x7 DUP1 SLOAD PUSH1 0x1 PUSH1 0x1 PUSH1 0x80 SHL SUB SWAP3 DUP4 AND PUSH1 0x1 PUSH1 0x80 SHL MUL SWAP3 AND SWAP2 SWAP1 SWAP2 OR SWAP1 SSTORE POP POP JUMP JUMPDEST PUSH2 0x15B3 DUP3 GT ISZERO PUSH2 0x26C6 JUMPI PUSH1 0x40 MLOAD PUSH3 0x461BCD PUSH1 0xE5 SHL DUP2 MSTORE PUSH1 0x20 PUSH1 0x4 DUP3 ADD MSTORE PUSH1 0x27 PUSH1 0x24 DUP3 ADD MSTORE PUSH32 0x4D594E543A206E65775374616B65644461797320686967686572207468616E20 PUSH1 0x44 DUP3 ADD MSTORE PUSH7 0x6D6178696D756D PUSH1 0xC8 SHL PUSH1 0x64 DUP3 ADD MSTORE PUSH1 0x84 ADD PUSH2 0x8C9 JUMP JUMPDEST PUSH1 0x0 PUSH2 0x26D2 DUP5 DUP5 PUSH2 0x338D JUMP JUMPDEST SWAP1 POP PUSH1 0x0 DUP6 PUSH1 0x40 ADD MLOAD PUSH3 0x186A0 DUP4 DUP8 PUSH2 0x26EB SWAP2 SWAP1 PUSH2 0x448B JUMP JUMPDEST PUSH2 0x26F5 SWAP2 SWAP1 PUSH2 0x444B JUMP JUMPDEST PUSH2 0x26FF SWAP2 SWAP1 PUSH2 0x4429 JUMP JUMPDEST SWAP1 POP DUP1 PUSH1 0x0 SUB PUSH2 0x2777 JUMPI PUSH1 0x40 MLOAD PUSH3 0x461BCD PUSH1 0xE5 SHL DUP2 MSTORE PUSH1 0x20 PUSH1 0x4 DUP3 ADD MSTORE PUSH1 0x38 PUSH1 0x24 DUP3 ADD MSTORE PUSH32 0x4D594E543A206E65775374616B6564486561727473206D757374206265206174 PUSH1 0x44 DUP3 ADD MSTORE PUSH32 0x206C65617374206D696E696D756D207368617265526174650000000000000000 PUSH1 0x64 DUP3 ADD MSTORE PUSH1 0x84 ADD PUSH2 0x8C9 JUMP JUMPDEST PUSH1 0x0 PUSH1 0x1 DUP8 PUSH2 0x140 ADD MLOAD LT PUSH2 0x279C JUMPI PUSH2 0x140 DUP8 ADD MLOAD PUSH2 0x2797 SWAP1 PUSH1 0x1 PUSH2 0x448B JUMP JUMPDEST PUSH2 0x27A7 JUMP JUMPDEST PUSH2 0x27A7 PUSH1 0x1 DUP1 PUSH2 0x448B JUMP JUMPDEST SWAP1 POP PUSH1 0x0 DUP8 PUSH1 0xC0 ADD DUP1 MLOAD PUSH2 0x27BA SWAP1 PUSH2 0x4502 JUMP JUMPDEST PUSH5 0xFFFFFFFFFF AND SWAP1 DUP2 SWAP1 MSTORE CALLER PUSH1 0x0 SWAP1 DUP2 MSTORE PUSH1 0xA PUSH1 0x20 MSTORE PUSH1 0x40 SWAP1 KECCAK256 SWAP1 SWAP2 POP PUSH2 0x28F9 SWAP1 DUP3 DUP10 DUP7 DUP7 DUP12 DUP12 PUSH1 0x40 DUP1 MLOAD PUSH1 0xE0 DUP2 ADD DUP3 MSTORE PUSH5 0xFFFFFFFFFF SWAP8 DUP9 AND DUP2 MSTORE PUSH1 0x1 PUSH1 0x1 PUSH1 0x48 SHL SUB SWAP7 DUP8 AND PUSH1 0x20 DUP1 DUP4 ADD SWAP2 DUP3 MSTORE SWAP7 DUP9 AND SWAP3 DUP3 ADD SWAP3 DUP4 MSTORE PUSH2 0xFFFF SWAP6 DUP7 AND PUSH1 0x60 DUP4 ADD SWAP1 DUP2 MSTORE SWAP5 DUP7 AND PUSH1 0x80 DUP4 ADD SWAP1 DUP2 MSTORE PUSH1 0x0 PUSH1 0xA0 DUP5 ADD DUP2 DUP2 MSTORE SWAP6 ISZERO ISZERO PUSH1 0xC0 DUP6 ADD SWAP1 DUP2 MSTORE DUP13 SLOAD PUSH1 0x1 DUP2 ADD DUP15 SSTORE SWAP13 DUP3 MSTORE SWAP9 SWAP1 KECCAK256 SWAP3 MLOAD SWAP3 SWAP1 SWAP11 ADD DUP1 SLOAD SWAP2 MLOAD SWAP4 MLOAD SWAP6 MLOAD SWAP11 MLOAD SWAP5 MLOAD SWAP8 MLOAD ISZERO ISZERO PUSH1 0x1 PUSH1 0xE8 SHL MUL PUSH1 0xFF PUSH1 0xE8 SHL NOT SWAP9 DUP9 AND PUSH1 0x1 PUSH1 0xD8 SHL MUL PUSH2 0xFFFF PUSH1 0xD8 SHL NOT SWAP7 DUP10 AND PUSH1 0x1 PUSH1 0xC8 SHL MUL SWAP7 SWAP1 SWAP7 AND PUSH4 0xFFFFFFFF PUSH1 0xC8 SHL NOT SWAP13 SWAP1 SWAP9 AND PUSH1 0x1 PUSH1 0xB8 SHL MUL PUSH2 0xFFFF PUSH1 0xB8 SHL NOT SWAP8 DUP12 AND PUSH1 0x1 PUSH1 0x70 SHL MUL SWAP8 SWAP1 SWAP8 AND PUSH1 0x1 PUSH1 0x70 SHL PUSH1 0x1 PUSH1 0xC8 SHL SUB NOT SWAP6 SWAP1 SWAP11 AND PUSH1 0x1 PUSH1 0x28 SHL MUL PUSH1 0x1 PUSH1 0x1 PUSH1 0x70 SHL SUB NOT SWAP1 SWAP4 AND SWAP4 SWAP1 SWAP11 AND SWAP3 SWAP1 SWAP3 OR OR SWAP2 SWAP1 SWAP2 AND SWAP6 SWAP1 SWAP6 OR SWAP2 SWAP1 SWAP2 OR SWAP6 SWAP1 SWAP6 AND OR SWAP4 SWAP1 SWAP4 OR SWAP3 SWAP1 SWAP3 AND OR SWAP1 SSTORE JUMP JUMPDEST PUSH2 0x2906 DUP2 DUP9 DUP6 DUP10 DUP10 PUSH2 0x3578 JUMP JUMPDEST DUP3 DUP9 PUSH1 0x20 ADD DUP2 DUP2 MLOAD PUSH2 0x2918 SWAP2 SWAP1 PUSH2 0x448B JUMP JUMPDEST SWAP1 MSTORE POP DUP8 MLOAD DUP8 SWAP1 DUP10 SWAP1 PUSH2 0x292C SWAP1 DUP4 SWAP1 PUSH2 0x448B JUMP JUMPDEST SWAP1 MSTORE POP POP POP POP POP POP POP POP POP JUMP JUMPDEST PUSH1 0x1 PUSH1 0x1 PUSH1 0xA0 SHL SUB DUP3 AND PUSH2 0x2999 JUMPI PUSH1 0x40 MLOAD PUSH3 0x461BCD PUSH1 0xE5 SHL DUP2 MSTORE PUSH1 0x20 PUSH1 0x4 DUP3 ADD MSTORE PUSH1 0x21 PUSH1 0x24 DUP3 ADD MSTORE PUSH32 0x45524332303A206275726E2066726F6D20746865207A65726F20616464726573 PUSH1 0x44 DUP3 ADD MSTORE PUSH1 0x73 PUSH1 0xF8 SHL PUSH1 0x64 DUP3 ADD MSTORE PUSH1 0x84 ADD PUSH2 0x8C9 JUMP JUMPDEST PUSH1 0x1 PUSH1 0x1 PUSH1 0xA0 SHL SUB DUP3 AND PUSH1 0x0 SWAP1 DUP2 MSTORE PUSH1 0x20 DUP2 SWAP1 MSTORE PUSH1 0x40 SWAP1 KECCAK256 SLOAD DUP2 DUP2 LT ISZERO PUSH2 0x2A0D JUMPI PUSH1 0x40 MLOAD PUSH3 0x461BCD PUSH1 0xE5 SHL DUP2 MSTORE PUSH1 0x20 PUSH1 0x4 DUP3 ADD MSTORE PUSH1 0x22 PUSH1 0x24 DUP3 ADD MSTORE PUSH32 0x45524332303A206275726E20616D6F756E7420657863656564732062616C616E PUSH1 0x44 DUP3 ADD MSTORE PUSH2 0x6365 PUSH1 0xF0 SHL PUSH1 0x64 DUP3 ADD MSTORE PUSH1 0x84 ADD PUSH2 0x8C9 JUMP JUMPDEST PUSH1 0x1 PUSH1 0x1 PUSH1 0xA0 SHL SUB DUP4 AND PUSH1 0x0 DUP2 DUP2 MSTORE PUSH1 0x20 DUP2 DUP2 MSTORE PUSH1 0x40 DUP1 DUP4 KECCAK256 DUP7 DUP7 SUB SWAP1 SSTORE PUSH1 0x2 DUP1 SLOAD DUP8 SWAP1 SUB SWAP1 SSTORE MLOAD DUP6 DUP2 MSTORE SWAP2 SWAP3 SWAP2 PUSH32 0xDDF252AD1BE2C89B69C2B068FC378DAA952BA7F163C4A11628F55A4DF523B3EF SWAP2 ADD PUSH1 0x40 MLOAD DUP1 SWAP2 SUB SWAP1 LOG3 POP POP POP JUMP JUMPDEST PUSH1 0x0 PUSH1 0x3C PUSH2 0x2A7D PUSH4 0x65645B8F TIMESTAMP PUSH2 0x4478 JUMP JUMPDEST PUSH2 0xECE SWAP2 SWAP1 PUSH2 0x4429 JUMP JUMPDEST PUSH1 0x40 DUP1 MLOAD TIMESTAMP PUSH5 0xFFFFFFFFFF SWAP1 DUP2 AND PUSH14 0xFFFFFFFFFFFFFFFFFF0000000000 PUSH1 0x28 DUP10 SWAP1 SHL AND OR PUSH9 0xFFFFFFFFFFFFFFFFFF PUSH1 0x70 SHL PUSH1 0x70 DUP9 SWAP1 SHL AND OR PUSH1 0x1 PUSH1 0x1 PUSH1 0xB8 SHL SUB NOT PUSH1 0xB8 DUP8 SWAP1 SHL AND OR DUP3 MSTORE PUSH1 0x1 PUSH1 0x1 PUSH1 0x48 SHL SUB DUP5 AND PUSH1 0x20 DUP4 ADD MSTORE CALLER SWAP3 SWAP1 DUP9 AND SWAP2 PUSH1 0x1 PUSH1 0x1 PUSH1 0xA0 SHL SUB DUP11 AND SWAP2 PUSH32 0xD824970A2CF19CC2B630C87CE5B00F67301CAC3AC60513D027C7A39129F93B46 SWAP2 ADD PUSH1 0x40 MLOAD DUP1 SWAP2 SUB SWAP1 LOG4 POP POP POP POP POP POP JUMP JUMPDEST PUSH1 0x0 PUSH1 0x2D PUSH1 0x1 PUSH2 0x2B35 DUP3 PUSH1 0x60 PUSH2 0x4478 JUMP JUMPDEST PUSH1 0x1 SWAP1 SHL PUSH2 0x2B43 SWAP2 SWAP1 PUSH2 0x4478 JUMP JUMPDEST SWAP1 SHL DUP3 PUSH1 0x0 DUP2 MLOAD DUP2 LT PUSH2 0x2B58 JUMPI PUSH2 0x2B58 PUSH2 0x4462 JUMP JUMPDEST PUSH1 0x20 MUL PUSH1 0x20 ADD ADD MLOAD PUSH1 0x0 SHR AND PUSH1 0x0 EQ PUSH2 0x2BA9 JUMPI PUSH1 0x40 MLOAD PUSH3 0x461BCD PUSH1 0xE5 SHL DUP2 MSTORE PUSH1 0x20 PUSH1 0x4 DUP3 ADD MSTORE PUSH1 0x13 PUSH1 0x24 DUP3 ADD MSTORE PUSH19 0x135653950E881C1C9BDBD9881A5B9D985B1A59 PUSH1 0x6A SHL PUSH1 0x44 DUP3 ADD MSTORE PUSH1 0x64 ADD PUSH2 0x8C9 JUMP JUMPDEST PUSH1 0x1 JUMPDEST DUP3 MLOAD DUP2 LT ISZERO PUSH2 0x2C49 JUMPI PUSH1 0x2D PUSH1 0x1 PUSH2 0x2BC4 DUP3 PUSH1 0x60 PUSH2 0x4478 JUMP JUMPDEST PUSH1 0x1 SWAP1 SHL PUSH2 0x2BD2 SWAP2 SWAP1 PUSH2 0x4478 JUMP JUMPDEST SWAP1 SHL DUP4 DUP3 DUP2 MLOAD DUP2 LT PUSH2 0x2BE6 JUMPI PUSH2 0x2BE6 PUSH2 0x4462 JUMP JUMPDEST PUSH1 0x20 MUL PUSH1 0x20 ADD ADD MLOAD PUSH1 0x0 SHR AND PUSH1 0x0 SUB PUSH2 0x2C37 JUMPI PUSH1 0x40 MLOAD PUSH3 0x461BCD PUSH1 0xE5 SHL DUP2 MSTORE PUSH1 0x20 PUSH1 0x4 DUP3 ADD MSTORE PUSH1 0x13 PUSH1 0x24 DUP3 ADD MSTORE PUSH19 0x135653950E881C1C9BDBD9881A5B9D985B1A59 PUSH1 0x6A SHL PUSH1 0x44 DUP3 ADD MSTORE PUSH1 0x64 ADD PUSH2 0x8C9 JUMP JUMPDEST DUP1 PUSH2 0x2C41 DUP2 PUSH2 0x449E JUMP JUMPDEST SWAP2 POP POP PUSH2 0x2BAC JUMP JUMPDEST POP PUSH1 0x1 PUSH1 0x1 PUSH1 0x60 SHL SUB NOT DUP5 AND DUP4 OR PUSH2 0x18DB DUP2 DUP5 PUSH2 0x1DE1 JUMP JUMPDEST DUP2 DUP4 PUSH1 0x80 ADD MLOAD LT PUSH2 0x2C71 JUMPI POP POP POP JUMP JUMPDEST PUSH2 0x2C95 PUSH1 0x40 MLOAD DUP1 PUSH1 0x60 ADD PUSH1 0x40 MSTORE DUP1 PUSH1 0x0 DUP2 MSTORE PUSH1 0x20 ADD PUSH1 0x0 DUP2 MSTORE PUSH1 0x20 ADD PUSH1 0x0 DUP2 MSTORE POP SWAP1 JUMP JUMPDEST DUP4 MLOAD PUSH1 0x2 SLOAD PUSH2 0x2CA4 SWAP2 SWAP1 PUSH2 0x448B JUMP JUMPDEST DUP2 MSTORE PUSH1 0x80 DUP5 ADD MLOAD PUSH2 0x2CB6 DUP6 DUP4 DUP4 PUSH2 0x360C JUMP JUMPDEST PUSH1 0x20 DUP6 ADD MLOAD ISZERO PUSH2 0x2CE1 JUMPI DUP5 PUSH1 0x20 ADD MLOAD DUP6 PUSH1 0xA0 ADD DUP2 DUP2 MLOAD PUSH2 0x2CD6 SWAP2 SWAP1 PUSH2 0x448B JUMP JUMPDEST SWAP1 MSTORE POP PUSH1 0x0 PUSH1 0x20 DUP7 ADD MSTORE JUMPDEST DUP4 PUSH2 0x2CEB DUP3 PUSH2 0x449E JUMP JUMPDEST SWAP2 POP DUP2 LT ISZERO PUSH2 0x2D04 JUMPI PUSH2 0x2CFF DUP6 DUP4 DUP4 PUSH2 0x360C JUMP JUMPDEST PUSH2 0x2CE1 JUMP JUMPDEST PUSH2 0x2D13 DUP6 PUSH1 0x80 ADD MLOAD DUP3 DUP6 PUSH2 0x3684 JUMP JUMPDEST PUSH1 0x80 DUP6 ADD DUP2 SWAP1 MSTORE PUSH1 0x20 DUP3 ADD MLOAD ISZERO PUSH2 0x22E8 JUMPI PUSH2 0x22E8 PUSH20 0x9A6A414D6F3497C05E3B1DE90520765FA1E07C03 DUP4 PUSH1 0x20 ADD MLOAD PUSH2 0x1B0A JUMP JUMPDEST PUSH1 0x60 PUSH1 0x0 PUSH1 0x1 DUP4 AND DUP2 SUB PUSH2 0x2D82 JUMPI PUSH1 0x40 MLOAD DUP1 PUSH1 0x40 ADD PUSH1 0x40 MSTORE DUP1 PUSH1 0x10 DUP2 MSTORE PUSH1 0x20 ADD PUSH16 0x86D8C2D2DABE9AB29CA8BEE8DEBE60F PUSH1 0x83 SHL DUP2 MSTORE POP PUSH2 0x2DB9 JUMP JUMPDEST PUSH1 0x40 MLOAD DUP1 PUSH1 0x40 ADD PUSH1 0x40 MSTORE DUP1 PUSH1 0x17 DUP2 MSTORE PUSH1 0x20 ADD PUSH32 0x436C61696D5F426974636F696E4D594E545F746F5F3078000000000000000000 DUP2 MSTORE POP JUMPDEST SWAP1 POP PUSH1 0x10 DUP4 AND ISZERO PUSH1 0x0 PUSH2 0x2DCC DUP8 DUP4 PUSH2 0x36FD JUMP JUMPDEST SWAP1 POP PUSH1 0x0 DUP7 SWAP1 SUB PUSH2 0x2E3C JUMPI PUSH1 0x18 PUSH24 0x2134BA31B7B4B71029B4B3B732B21026B2B9B9B0B3B29D05 PUSH1 0x41 SHL PUSH2 0x2E01 PUSH1 0x14 PUSH1 0x2 PUSH2 0x4526 JUMP JUMPDEST DUP6 MLOAD PUSH2 0x2E0D SWAP2 SWAP1 PUSH2 0x4549 JUMP JUMPDEST DUP6 DUP5 PUSH1 0x40 MLOAD PUSH1 0x20 ADD PUSH2 0x2E23 SWAP6 SWAP5 SWAP4 SWAP3 SWAP2 SWAP1 PUSH2 0x4562 JUMP JUMPDEST PUSH1 0x40 MLOAD PUSH1 0x20 DUP2 DUP4 SUB SUB DUP2 MSTORE SWAP1 PUSH1 0x40 MSTORE SWAP4 POP POP POP POP PUSH2 0x92B JUMP JUMPDEST PUSH1 0x0 PUSH2 0x2E4A PUSH1 0xC PUSH1 0x2 PUSH2 0x4526 JUMP JUMPDEST PUSH1 0xFF AND PUSH8 0xFFFFFFFFFFFFFFFF DUP2 GT ISZERO PUSH2 0x2E65 JUMPI PUSH2 0x2E65 PUSH2 0x4024 JUMP JUMPDEST PUSH1 0x40 MLOAD SWAP1 DUP1 DUP3 MSTORE DUP1 PUSH1 0x1F ADD PUSH1 0x1F NOT AND PUSH1 0x20 ADD DUP3 ADD PUSH1 0x40 MSTORE DUP1 ISZERO PUSH2 0x2E8F JUMPI PUSH1 0x20 DUP3 ADD DUP2 DUP1 CALLDATASIZE DUP4 CALLDATACOPY ADD SWAP1 POP JUMPDEST POP SWAP1 POP PUSH2 0x2E9E DUP2 DUP9 PUSH1 0xC PUSH2 0x37F0 JUMP JUMPDEST PUSH1 0x18 PUSH24 0x2134BA31B7B4B71029B4B3B732B21026B2B9B9B0B3B29D05 PUSH1 0x41 SHL PUSH2 0x2EC8 PUSH1 0xC PUSH1 0x2 PUSH2 0x4526 JUMP JUMPDEST PUSH2 0x2ED4 PUSH1 0x14 PUSH1 0x2 PUSH2 0x4526 JUMP JUMPDEST DUP8 MLOAD PUSH2 0x2EE0 SWAP2 SWAP1 PUSH2 0x4549 JUMP JUMPDEST PUSH2 0x2EEB SWAP1 PUSH1 0x1 PUSH2 0x4549 JUMP JUMPDEST PUSH2 0x2EF5 SWAP2 SWAP1 PUSH2 0x4549 JUMP JUMPDEST DUP7 DUP6 DUP6 PUSH1 0x40 MLOAD PUSH1 0x20 ADD PUSH2 0x2F0D SWAP7 SWAP6 SWAP5 SWAP4 SWAP3 SWAP2 SWAP1 PUSH2 0x45CA JUMP JUMPDEST PUSH1 0x40 MLOAD PUSH1 0x20 DUP2 DUP4 SUB SUB DUP2 MSTORE SWAP1 PUSH1 0x40 MSTORE SWAP5 POP POP POP POP POP SWAP4 SWAP3 POP POP POP JUMP JUMPDEST PUSH1 0x0 PUSH1 0x2 DUP1 DUP4 PUSH1 0x40 MLOAD PUSH2 0x2F3C SWAP2 SWAP1 PUSH2 0x44B7 JUMP JUMPDEST PUSH1 0x20 PUSH1 0x40 MLOAD DUP1 DUP4 SUB DUP2 DUP6 GAS STATICCALL ISZERO DUP1 ISZERO PUSH2 0x2F59 JUMPI RETURNDATASIZE PUSH1 0x0 DUP1 RETURNDATACOPY RETURNDATASIZE PUSH1 0x0 REVERT JUMPDEST POP POP POP PUSH1 0x40 MLOAD RETURNDATASIZE PUSH1 0x1F NOT PUSH1 0x1F DUP3 ADD AND DUP3 ADD DUP1 PUSH1 0x40 MSTORE POP DUP2 ADD SWAP1 PUSH2 0x2F7C SWAP2 SWAP1 PUSH2 0x44D3 JUMP JUMPDEST PUSH1 0x40 MLOAD PUSH1 0x20 ADD PUSH2 0x2F8E SWAP2 DUP2 MSTORE PUSH1 0x20 ADD SWAP1 JUMP JUMPDEST PUSH1 0x40 DUP1 MLOAD PUSH1 0x1F NOT DUP2 DUP5 SUB ADD DUP2 MSTORE SWAP1 DUP3 SWAP1 MSTORE PUSH2 0x2FA8 SWAP2 PUSH2 0x44B7 JUMP JUMPDEST PUSH1 0x20 PUSH1 0x40 MLOAD DUP1 DUP4 SUB DUP2 DUP6 GAS STATICCALL ISZERO DUP1 ISZERO PUSH2 0x2FC5 JUMPI RETURNDATASIZE PUSH1 0x0 DUP1 RETURNDATACOPY RETURNDATASIZE PUSH1 0x0 REVERT JUMPDEST POP POP POP PUSH1 0x40 MLOAD RETURNDATASIZE PUSH1 0x1F NOT PUSH1 0x1F DUP3 ADD AND DUP3 ADD DUP1 PUSH1 0x40 MSTORE POP DUP2 ADD SWAP1 PUSH2 0x86A SWAP2 SWAP1 PUSH2 0x44D3 JUMP JUMPDEST PUSH1 0x0 DUP1 DUP1 PUSH2 0x2FF8 PUSH1 0x33 PUSH1 0x2 PUSH2 0x444B JUMP JUMPDEST PUSH1 0x1 PUSH1 0x1 PUSH1 0x80 SHL SUB DUP1 DUP7 AND SWAP1 SWAP2 SHR AND SWAP3 POP PUSH2 0x301B PUSH1 0x1 PUSH7 0x8000000000000 PUSH2 0x4478 JUMP JUMPDEST PUSH1 0x33 DUP6 SWAP1 SHR AND PUSH10 0x1FFFFFFFFFFFFFFFFFFF AND SWAP2 POP PUSH2 0x3041 PUSH1 0x1 PUSH7 0x8000000000000 PUSH2 0x4478 JUMP JUMPDEST DUP5 PUSH1 0x1 PUSH1 0x1 PUSH1 0x80 SHL SUB AND AND SWAP1 POP SWAP2 SWAP4 SWAP1 SWAP3 POP JUMP JUMPDEST PUSH1 0x0 DUP3 PUSH2 0x3062 DUP6 DUP5 PUSH2 0x38EB JUMP JUMPDEST EQ SWAP5 SWAP4 POP POP POP POP JUMP JUMPDEST DUP2 MLOAD DUP2 MSTORE PUSH1 0x20 DUP1 DUP4 ADD MLOAD SWAP1 DUP3 ADD MSTORE PUSH1 0x40 DUP1 DUP4 ADD MLOAD SWAP1 DUP3 ADD MSTORE PUSH1 0x60 DUP1 DUP4 ADD MLOAD SWAP1 DUP3 ADD MSTORE PUSH1 0x80 DUP1 DUP4 ADD MLOAD SWAP1 DUP3 ADD MSTORE PUSH1 0xA0 DUP1 DUP4 ADD MLOAD SWAP1 DUP3 ADD MSTORE PUSH1 0xC0 DUP1 DUP4 ADD MLOAD PUSH5 0xFFFFFFFFFF AND SWAP1 DUP3 ADD MSTORE PUSH1 0xE0 DUP1 DUP4 ADD MLOAD SWAP1 DUP3 ADD MSTORE PUSH2 0x100 DUP1 DUP4 ADD MLOAD SWAP1 DUP3 ADD MSTORE PUSH2 0x120 SWAP2 DUP3 ADD MLOAD SWAP2 ADD MSTORE JUMP JUMPDEST PUSH1 0x0 DUP1 DUP1 PUSH2 0x30E1 DUP6 DUP9 PUSH2 0x448B JUMP JUMPDEST SWAP1 POP PUSH1 0x0 PUSH1 0x2 PUSH2 0x30F2 DUP9 PUSH1 0x1 PUSH2 0x448B JUMP JUMPDEST PUSH2 0x30FC SWAP2 SWAP1 PUSH2 0x4429 JUMP JUMPDEST SWAP1 POP PUSH1 0x5A DUP2 LT ISZERO PUSH2 0x310B JUMPI POP PUSH1 0x5A JUMPDEST DUP6 PUSH1 0x0 SUB PUSH2 0x3136 JUMPI PUSH1 0x0 PUSH2 0x3120 DUP11 DUP8 DUP12 PUSH2 0x3938 JUMP JUMPDEST SWAP1 POP PUSH2 0x312C DUP3 DUP3 PUSH2 0x444B JUMP JUMPDEST SWAP4 POP POP POP POP PUSH2 0x31B7 JUMP JUMPDEST DUP6 DUP2 LT ISZERO PUSH2 0x317F JUMPI PUSH1 0x0 PUSH2 0x314A DUP3 DUP11 PUSH2 0x448B JUMP JUMPDEST SWAP1 POP PUSH2 0x3158 DUP11 DUP8 DUP12 DUP5 PUSH2 0x31C1 JUMP JUMPDEST SWAP4 POP PUSH1 0x0 PUSH2 0x3168 DUP12 DUP9 DUP5 DUP8 PUSH2 0x31C1 JUMP JUMPDEST SWAP1 POP PUSH2 0x3174 DUP2 DUP7 PUSH2 0x448B JUMP JUMPDEST SWAP6 POP POP POP POP POP PUSH2 0x31B7 JUMP JUMPDEST PUSH2 0x318B DUP10 DUP7 DUP11 DUP6 PUSH2 0x31C1 JUMP JUMPDEST SWAP4 POP DUP6 DUP2 SUB PUSH2 0x319C JUMPI DUP4 SWAP3 POP PUSH2 0x31B4 JUMP JUMPDEST DUP6 PUSH2 0x31A7 DUP3 DUP7 PUSH2 0x444B JUMP JUMPDEST PUSH2 0x31B1 SWAP2 SWAP1 PUSH2 0x4429 JUMP JUMPDEST SWAP3 POP JUMPDEST POP POP JUMPDEST SWAP6 POP SWAP6 SWAP4 POP POP POP POP JUMP JUMPDEST PUSH1 0x0 DUP3 JUMPDEST DUP3 DUP2 LT ISZERO PUSH2 0x3222 JUMPI PUSH1 0x0 DUP2 DUP2 MSTORE PUSH1 0x9 PUSH1 0x20 MSTORE PUSH1 0x40 SWAP1 KECCAK256 SLOAD PUSH1 0x1 PUSH1 0x1 PUSH1 0x48 SHL SUB PUSH1 0x1 PUSH1 0x48 SHL DUP3 DIV DUP2 AND SWAP2 PUSH2 0x31FA SWAP2 DUP9 SWAP2 AND PUSH2 0x444B JUMP JUMPDEST PUSH2 0x3204 SWAP2 SWAP1 PUSH2 0x4429 JUMP JUMPDEST PUSH2 0x320E SWAP1 DUP4 PUSH2 0x448B JUMP JUMPDEST SWAP2 POP DUP1 PUSH2 0x321A DUP2 PUSH2 0x449E JUMP JUMPDEST SWAP2 POP POP PUSH2 0x31C5 JUMP JUMPDEST POP PUSH2 0x322F PUSH1 0x32 PUSH1 0x7 PUSH2 0x444B JUMP JUMPDEST PUSH2 0x323A SWAP1 PUSH1 0x1 PUSH2 0x448B JUMP JUMPDEST PUSH2 0x3245 SWAP1 PUSH1 0x1 PUSH2 0x448B JUMP JUMPDEST DUP4 GT ISZERO DUP1 ISZERO PUSH2 0x3274 JUMPI POP PUSH2 0x325B PUSH1 0x32 PUSH1 0x7 PUSH2 0x444B JUMP JUMPDEST PUSH2 0x3266 SWAP1 PUSH1 0x1 PUSH2 0x448B JUMP JUMPDEST PUSH2 0x3271 SWAP1 PUSH1 0x1 PUSH2 0x448B JUMP JUMPDEST DUP3 GT JUMPDEST ISZERO PUSH2 0x9ED JUMPI PUSH1 0x0 PUSH1 0x9 DUP2 PUSH2 0x328A PUSH1 0x32 PUSH1 0x7 PUSH2 0x444B JUMP JUMPDEST PUSH2 0x3295 SWAP1 PUSH1 0x1 PUSH2 0x448B JUMP JUMPDEST PUSH2 0x32A0 SWAP1 PUSH1 0x1 PUSH2 0x448B JUMP JUMPDEST DUP2 MSTORE PUSH1 0x20 DUP2 ADD SWAP2 SWAP1 SWAP2 MSTORE PUSH1 0x40 ADD PUSH1 0x0 KECCAK256 SLOAD PUSH1 0x1 PUSH1 0x48 SHL SWAP1 DIV PUSH1 0x1 PUSH1 0x1 PUSH1 0x48 SHL SUB AND DUP6 PUSH2 0x2710 PUSH4 0x5F5E100 PUSH2 0x32D6 PUSH1 0x8 PUSH1 0xA PUSH2 0x441D JUMP JUMPDEST PUSH2 0x32E0 SWAP2 SWAP1 PUSH2 0x4429 JUMP JUMPDEST PUSH2 0x32EA SWAP2 SWAP1 PUSH2 0x444B JUMP JUMPDEST DUP9 PUSH1 0xE0 ADD MLOAD PUSH2 0x32F9 SWAP2 SWAP1 PUSH2 0x444B JUMP JUMPDEST PUSH2 0x3303 SWAP2 SWAP1 PUSH2 0x444B JUMP JUMPDEST PUSH2 0x330D SWAP2 SWAP1 PUSH2 0x4429 JUMP JUMPDEST SWAP1 POP PUSH2 0x3319 DUP7 DUP3 PUSH2 0x3A6B JUMP JUMPDEST PUSH2 0x3323 SWAP1 DUP3 PUSH2 0x448B JUMP JUMPDEST PUSH2 0x15B1 SWAP1 DUP4 PUSH2 0x448B JUMP JUMPDEST PUSH1 0x0 DUP1 PUSH2 0x333C PUSH1 0x2 PUSH1 0x7 PUSH2 0x444B JUMP JUMPDEST PUSH2 0x3346 DUP7 DUP9 PUSH2 0x448B JUMP JUMPDEST PUSH2 0x3350 SWAP2 SWAP1 PUSH2 0x448B JUMP JUMPDEST SWAP1 POP DUP1 DUP5 GT PUSH2 0x3363 JUMPI PUSH1 0x0 SWAP2 POP POP PUSH2 0x9ED JUMP JUMPDEST PUSH2 0x336F PUSH1 0x64 PUSH1 0x7 PUSH2 0x444B JUMP JUMPDEST PUSH2 0x3379 DUP3 DUP7 PUSH2 0x4478 JUMP JUMPDEST PUSH2 0x3383 SWAP1 DUP6 PUSH2 0x444B JUMP JUMPDEST PUSH2 0x15B1 SWAP2 SWAP1 PUSH2 0x4429 JUMP JUMPDEST PUSH1 0x0 DUP1 PUSH1 0x1 DUP4 GT ISZERO PUSH2 0x33FD JUMPI PUSH1 0x64 PUSH1 0xC8 PUSH2 0x33AA PUSH1 0x14 PUSH2 0x8E30 PUSH2 0x4429 JUMP JUMPDEST PUSH2 0x33B4 SWAP2 SWAP1 PUSH2 0x444B JUMP JUMPDEST PUSH2 0x33BE SWAP2 SWAP1 PUSH2 0x4429 JUMP JUMPDEST DUP4 GT ISZERO PUSH2 0x33EF JUMPI PUSH1 0x64 PUSH1 0xC8 PUSH2 0x33D6 PUSH1 0x14 PUSH2 0x8E30 PUSH2 0x4429 JUMP JUMPDEST PUSH2 0x33E0 SWAP2 SWAP1 PUSH2 0x444B JUMP JUMPDEST PUSH2 0x33EA SWAP2 SWAP1 PUSH2 0x4429 JUMP JUMPDEST PUSH2 0x33FA JUMP JUMPDEST PUSH2 0x33FA PUSH1 0x1 DUP5 PUSH2 0x4478 JUMP JUMPDEST SWAP1 POP JUMPDEST PUSH1 0x0 PUSH2 0x340B PUSH1 0x8 PUSH1 0xA PUSH2 0x441D JUMP JUMPDEST PUSH2 0x3419 SWAP1 PUSH4 0x8F0D180 PUSH2 0x444B JUMP JUMPDEST DUP6 GT ISZERO PUSH2 0x343F JUMPI PUSH2 0x342C PUSH1 0x8 PUSH1 0xA PUSH2 0x441D JUMP JUMPDEST PUSH2 0x343A SWAP1 PUSH4 0x8F0D180 PUSH2 0x444B JUMP JUMPDEST PUSH2 0x3441 JUMP JUMPDEST DUP5 JUMPDEST SWAP1 POP PUSH2 0x3450 PUSH1 0x14 PUSH2 0x8E30 PUSH2 0x4429 JUMP JUMPDEST PUSH2 0x345A SWAP1 DUP3 PUSH2 0x444B JUMP JUMPDEST PUSH1 0xA PUSH2 0x3467 PUSH1 0x8 DUP3 PUSH2 0x441D JUMP JUMPDEST PUSH2 0x3475 SWAP1 PUSH4 0x8F0D180 PUSH2 0x444B JUMP JUMPDEST PUSH2 0x3480 SWAP1 PUSH1 0x64 PUSH2 0x444B JUMP JUMPDEST PUSH2 0x348A SWAP2 SWAP1 PUSH2 0x4429 JUMP JUMPDEST PUSH2 0x3494 SWAP1 DUP5 PUSH2 0x444B JUMP JUMPDEST PUSH2 0x349E SWAP2 SWAP1 PUSH2 0x448B JUMP JUMPDEST SWAP3 POP PUSH1 0xA PUSH2 0x34AD PUSH1 0x8 DUP3 PUSH2 0x441D JUMP JUMPDEST PUSH2 0x34BB SWAP1 PUSH4 0x8F0D180 PUSH2 0x444B JUMP JUMPDEST PUSH2 0x34C6 SWAP1 PUSH1 0x64 PUSH2 0x444B JUMP JUMPDEST PUSH2 0x34D0 SWAP2 SWAP1 PUSH2 0x4429 JUMP JUMPDEST PUSH2 0x34DD PUSH1 0x14 PUSH2 0x8E30 PUSH2 0x4429 JUMP JUMPDEST PUSH2 0x34E7 SWAP2 SWAP1 PUSH2 0x444B JUMP JUMPDEST PUSH2 0x34F1 DUP5 DUP8 PUSH2 0x444B JUMP JUMPDEST PUSH2 0x18DB SWAP2 SWAP1 PUSH2 0x4429 JUMP JUMPDEST DUP1 PUSH5 0xFFFFFFFFFF AND PUSH32 0x9861FA0ED101659F7A59B4583FCC798DFA4F3B419BEA371C8EE2AD0FFE13A31E PUSH1 0x28 DUP5 PUSH5 0xFFFFFFFFFF AND SWAP1 SHL TIMESTAMP PUSH5 0xFFFFFFFFFF AND OR PUSH1 0x40 MLOAD PUSH2 0x3548 SWAP2 DUP2 MSTORE PUSH1 0x20 ADD SWAP1 JUMP JUMPDEST PUSH1 0x40 MLOAD DUP1 SWAP2 SUB SWAP1 LOG2 POP POP JUMP JUMPDEST PUSH1 0x0 DUP1 PUSH2 0x3563 PUSH1 0x33 PUSH1 0x2 PUSH2 0x444B JUMP JUMPDEST SWAP5 SWAP1 SWAP5 SHL PUSH1 0x33 SWAP4 SWAP1 SWAP4 SHL SWAP3 SWAP1 SWAP3 OR OR SWAP3 SWAP2 POP POP JUMP JUMPDEST PUSH5 0xFFFFFFFFFF DUP6 AND CALLER PUSH32 0x14872DC760F33532684E68E1B6D5FD3F71BA7B07DEE76BDB2B084F28B74233EF DUP4 PUSH2 0x35AE JUMPI PUSH1 0x0 PUSH2 0x35B4 JUMP JUMPDEST PUSH1 0x1 PUSH1 0xC8 SHL JUMPDEST PUSH1 0x1 PUSH1 0x1 PUSH1 0xD0 SHL SUB AND PUSH1 0xB8 DUP7 PUSH2 0xFFFF AND SWAP1 SHL PUSH1 0x70 DUP9 PUSH1 0x1 PUSH1 0x1 PUSH1 0x48 SHL SUB AND SWAP1 SHL PUSH1 0x28 DUP11 PUSH1 0x1 PUSH1 0x1 PUSH1 0x48 SHL SUB AND SWAP1 SHL TIMESTAMP PUSH5 0xFFFFFFFFFF AND OR OR OR OR PUSH1 0x40 MLOAD PUSH2 0x35FD SWAP2 DUP2 MSTORE PUSH1 0x20 ADD SWAP1 JUMP JUMPDEST PUSH1 0x40 MLOAD DUP1 SWAP2 SUB SWAP1 LOG3 POP POP POP POP POP JUMP JUMPDEST PUSH2 0x3617 DUP4 DUP4 DUP4 PUSH2 0x3AC1 JUMP JUMPDEST PUSH1 0x40 SWAP2 DUP3 ADD MLOAD PUSH1 0x0 SWAP2 DUP3 MSTORE PUSH1 0x9 PUSH1 0x20 MSTORE SWAP2 SWAP1 KECCAK256 DUP1 SLOAD PUSH1 0xA0 DUP5 ADD MLOAD PUSH1 0xE0 SWAP1 SWAP5 ADD MLOAD PUSH7 0xFFFFFFFFFFFFFF AND PUSH1 0x1 PUSH1 0x90 SHL MUL PUSH7 0xFFFFFFFFFFFFFF PUSH1 0x90 SHL NOT PUSH1 0x1 PUSH1 0x1 PUSH1 0x48 SHL SUB SWAP6 DUP7 AND PUSH1 0x1 PUSH1 0x48 SHL MUL PUSH1 0x1 PUSH1 0x1 PUSH1 0x90 SHL SUB NOT SWAP1 SWAP4 AND SWAP6 SWAP1 SWAP5 AND SWAP5 SWAP1 SWAP5 OR OR SWAP2 SWAP1 SWAP2 AND SWAP2 SWAP1 SWAP2 OR SWAP1 SSTORE JUMP JUMPDEST CALLER PUSH32 0xB8D6EB541DED1720CC657B719F57ABCB1FE4711CB7EAD82751B135F5D94BC944 DUP3 PUSH2 0x36B2 JUMPI PUSH1 0x0 PUSH2 0x36B8 JUMP JUMPDEST PUSH1 0x1 PUSH1 0x48 SHL JUMPDEST PUSH10 0xFFFFFFFFFFFFFFFFFFFF AND PUSH1 0x38 DUP6 PUSH2 0xFFFF AND SWAP1 SHL PUSH1 0x28 DUP8 PUSH2 0xFFFF AND SWAP1 SHL TIMESTAMP PUSH5 0xFFFFFFFFFF AND OR OR OR PUSH1 0x40 MLOAD PUSH2 0x36F0 SWAP2 DUP2 MSTORE PUSH1 0x20 ADD SWAP1 JUMP JUMPDEST PUSH1 0x40 MLOAD DUP1 SWAP2 SUB SWAP1 LOG2 POP POP POP JUMP JUMPDEST PUSH1 0x60 PUSH2 0x370B PUSH1 0x14 PUSH1 0x2 PUSH2 0x4526 JUMP JUMPDEST PUSH1 0xFF AND PUSH8 0xFFFFFFFFFFFFFFFF DUP2 GT ISZERO PUSH2 0x3726 JUMPI PUSH2 0x3726 PUSH2 0x4024 JUMP JUMPDEST PUSH1 0x40 MLOAD SWAP1 DUP1 DUP3 MSTORE DUP1 PUSH1 0x1F ADD PUSH1 0x1F NOT AND PUSH1 0x20 ADD DUP3 ADD PUSH1 0x40 MSTORE DUP1 ISZERO PUSH2 0x3750 JUMPI PUSH1 0x20 DUP3 ADD DUP2 DUP1 CALLDATASIZE DUP4 CALLDATACOPY ADD SWAP1 POP JUMPDEST POP SWAP1 POP PUSH2 0x376D DUP2 PUSH1 0x1 PUSH1 0x1 PUSH1 0x60 SHL SUB NOT PUSH1 0x60 DUP7 SWAP1 SHL AND PUSH1 0x14 PUSH2 0x37F0 JUMP JUMPDEST DUP2 ISZERO PUSH2 0x86A JUMPI DUP1 MLOAD PUSH1 0x20 DUP3 ADD KECCAK256 PUSH1 0x0 DUP1 JUMPDEST PUSH1 0x14 DUP2 LT ISZERO PUSH2 0x37E7 JUMPI PUSH1 0x0 DUP4 DUP3 PUSH1 0x20 DUP2 LT PUSH2 0x379B JUMPI PUSH2 0x379B PUSH2 0x4462 JUMP JUMPDEST BYTE SWAP1 POP PUSH2 0x37BB DUP6 DUP5 PUSH2 0x37AC DUP2 PUSH2 0x449E JUMP JUMPDEST SWAP6 POP PUSH1 0x4 DUP5 PUSH1 0xFF AND SWAP1 SHR PUSH2 0x3BF9 JUMP JUMPDEST PUSH2 0x37D4 DUP6 DUP5 PUSH2 0x37C9 DUP2 PUSH2 0x449E JUMP JUMPDEST SWAP6 POP DUP4 PUSH1 0xF AND PUSH2 0x3BF9 JUMP JUMPDEST POP DUP1 PUSH2 0x37DF DUP2 PUSH2 0x449E JUMP JUMPDEST SWAP2 POP POP PUSH2 0x377E JUMP JUMPDEST POP POP POP SWAP3 SWAP2 POP POP JUMP JUMPDEST PUSH1 0x0 DUP1 JUMPDEST DUP3 DUP2 LT ISZERO PUSH2 0x22E8 JUMPI PUSH1 0x0 DUP5 DUP3 PUSH1 0x20 DUP2 LT PUSH2 0x3810 JUMPI PUSH2 0x3810 PUSH2 0x4462 JUMP JUMPDEST BYTE SWAP1 POP PUSH16 0x181899199A1A9B1B9C1CB0B131B232B3 PUSH1 0x81 SHL PUSH1 0x4 DUP3 SWAP1 SHR PUSH1 0xFF AND PUSH1 0x10 DUP2 LT PUSH2 0x383F JUMPI PUSH2 0x383F PUSH2 0x4462 JUMP JUMPDEST BYTE PUSH1 0xF8 SHL DUP7 DUP5 PUSH2 0x384E DUP2 PUSH2 0x449E JUMP JUMPDEST SWAP6 POP DUP2 MLOAD DUP2 LT PUSH2 0x3860 JUMPI PUSH2 0x3860 PUSH2 0x4462 JUMP JUMPDEST PUSH1 0x20 ADD ADD SWAP1 PUSH1 0x1 PUSH1 0x1 PUSH1 0xF8 SHL SUB NOT AND SWAP1 DUP2 PUSH1 0x0 BYTE SWAP1 MSTORE8 POP PUSH16 0x181899199A1A9B1B9C1CB0B131B232B3 PUSH1 0x81 SHL PUSH1 0xF DUP3 AND PUSH1 0x10 DUP2 LT PUSH2 0x389F JUMPI PUSH2 0x389F PUSH2 0x4462 JUMP JUMPDEST BYTE PUSH1 0xF8 SHL DUP7 DUP5 PUSH2 0x38AE DUP2 PUSH2 0x449E JUMP JUMPDEST SWAP6 POP DUP2 MLOAD DUP2 LT PUSH2 0x38C0 JUMPI PUSH2 0x38C0 PUSH2 0x4462 JUMP JUMPDEST PUSH1 0x20 ADD ADD SWAP1 PUSH1 0x1 PUSH1 0x1 PUSH1 0xF8 SHL SUB NOT AND SWAP1 DUP2 PUSH1 0x0 BYTE SWAP1 MSTORE8 POP POP DUP1 DUP1 PUSH2 0x38E3 SWAP1 PUSH2 0x449E JUMP JUMPDEST SWAP2 POP POP PUSH2 0x37F4 JUMP JUMPDEST PUSH1 0x0 DUP2 DUP2 JUMPDEST DUP5 MLOAD DUP2 LT ISZERO PUSH2 0x3930 JUMPI PUSH2 0x391C DUP3 DUP7 DUP4 DUP2 MLOAD DUP2 LT PUSH2 0x390F JUMPI PUSH2 0x390F PUSH2 0x4462 JUMP JUMPDEST PUSH1 0x20 MUL PUSH1 0x20 ADD ADD MLOAD PUSH2 0x3C71 JUMP JUMPDEST SWAP2 POP DUP1 PUSH2 0x3928 DUP2 PUSH2 0x449E JUMP JUMPDEST SWAP2 POP POP PUSH2 0x38F0 JUMP JUMPDEST POP SWAP4 SWAP3 POP POP POP JUMP JUMPDEST PUSH1 0x0 PUSH2 0x3942 PUSH2 0x3CA0 JUMP JUMPDEST PUSH2 0x394C DUP6 DUP3 PUSH2 0x306B JUMP JUMPDEST PUSH2 0x3970 PUSH1 0x40 MLOAD DUP1 PUSH1 0x60 ADD PUSH1 0x40 MSTORE DUP1 PUSH1 0x0 DUP2 MSTORE PUSH1 0x20 ADD PUSH1 0x0 DUP2 MSTORE PUSH1 0x20 ADD PUSH1 0x0 DUP2 MSTORE POP SWAP1 JUMP JUMPDEST DUP6 MLOAD PUSH1 0x2 SLOAD PUSH2 0x397F SWAP2 SWAP1 PUSH2 0x448B JUMP JUMPDEST DUP2 MSTORE PUSH2 0x398C DUP3 DUP3 DUP7 PUSH2 0x3AC1 JUMP JUMPDEST DUP5 DUP3 PUSH1 0xA0 ADD DUP2 DUP2 MLOAD PUSH2 0x399E SWAP2 SWAP1 PUSH2 0x448B JUMP JUMPDEST SWAP1 MSTORE POP PUSH1 0xA0 DUP3 ADD MLOAD PUSH1 0x40 DUP3 ADD MLOAD PUSH2 0x39B6 SWAP1 DUP8 SWAP1 PUSH2 0x444B JUMP JUMPDEST PUSH2 0x39C0 SWAP2 SWAP1 PUSH2 0x4429 JUMP JUMPDEST SWAP3 POP PUSH2 0x39CE PUSH1 0x32 PUSH1 0x7 PUSH2 0x444B JUMP JUMPDEST PUSH2 0x39D9 SWAP1 PUSH1 0x1 PUSH2 0x448B JUMP JUMPDEST PUSH2 0x39E4 SWAP1 PUSH1 0x1 PUSH2 0x448B JUMP JUMPDEST DUP5 SUB PUSH2 0x3A62 JUMPI PUSH1 0xA0 DUP3 ADD MLOAD PUSH1 0x0 SWAP1 DUP7 PUSH2 0x2710 PUSH4 0x5F5E100 PUSH2 0x3A07 PUSH1 0x8 PUSH1 0xA PUSH2 0x441D JUMP JUMPDEST PUSH2 0x3A11 SWAP2 SWAP1 PUSH2 0x4429 JUMP JUMPDEST PUSH2 0x3A1B SWAP2 SWAP1 PUSH2 0x444B JUMP JUMPDEST DUP6 PUSH1 0xE0 ADD MLOAD PUSH2 0x3A2A SWAP2 SWAP1 PUSH2 0x444B JUMP JUMPDEST PUSH2 0x3A34 SWAP2 SWAP1 PUSH2 0x444B JUMP JUMPDEST PUSH2 0x3A3E SWAP2 SWAP1 PUSH2 0x4429 JUMP JUMPDEST SWAP1 POP PUSH2 0x3A4A DUP4 DUP3 PUSH2 0x3A6B JUMP JUMPDEST PUSH2 0x3A54 SWAP1 DUP3 PUSH2 0x448B JUMP JUMPDEST PUSH2 0x3A5E SWAP1 DUP6 PUSH2 0x448B JUMP JUMPDEST SWAP4 POP POP JUMPDEST POP POP SWAP4 SWAP3 POP POP POP JUMP JUMPDEST PUSH1 0x0 DUP1 PUSH4 0x1AB362E DUP5 PUSH2 0x120 ADD MLOAD DUP5 PUSH2 0x3A84 SWAP2 SWAP1 PUSH2 0x444B JUMP JUMPDEST PUSH2 0x3A8E SWAP2 SWAP1 PUSH2 0x4429 JUMP JUMPDEST SWAP1 POP PUSH1 0x0 PUSH7 0x33BB85FC52D99 DUP6 PUSH2 0x100 ADD MLOAD DUP6 PUSH2 0x3AAB SWAP2 SWAP1 PUSH2 0x444B JUMP JUMPDEST PUSH2 0x3AB5 SWAP2 SWAP1 PUSH2 0x4429 JUMP JUMPDEST SWAP1 POP PUSH2 0x18DB DUP2 DUP4 PUSH2 0x448B JUMP JUMPDEST DUP2 MLOAD PUSH4 0x5FCBAE3 SWAP1 PUSH2 0x3AD5 SWAP1 PUSH2 0x2710 PUSH2 0x444B JUMP JUMPDEST PUSH2 0x3ADF SWAP2 SWAP1 PUSH2 0x4429 JUMP JUMPDEST PUSH1 0x40 DUP4 ADD MSTORE PUSH2 0x3AF0 PUSH1 0x32 PUSH1 0x7 PUSH2 0x444B JUMP JUMPDEST PUSH2 0x3AFB SWAP1 PUSH1 0x1 PUSH2 0x448B JUMP JUMPDEST DUP2 LT ISZERO PUSH2 0x3BCA JUMPI PUSH1 0x0 PUSH2 0x3B10 PUSH1 0x32 PUSH1 0x7 PUSH2 0x444B JUMP JUMPDEST PUSH2 0x2710 PUSH4 0x5F5E100 PUSH2 0x3B24 PUSH1 0x8 PUSH1 0xA PUSH2 0x441D JUMP JUMPDEST PUSH2 0x3B2E SWAP2 SWAP1 PUSH2 0x4429 JUMP JUMPDEST PUSH2 0x3B38 SWAP2 SWAP1 PUSH2 0x444B JUMP JUMPDEST DUP6 PUSH1 0xE0 ADD MLOAD PUSH2 0x3B47 SWAP2 SWAP1 PUSH2 0x444B JUMP JUMPDEST PUSH2 0x3B51 SWAP2 SWAP1 PUSH2 0x4429 JUMP JUMPDEST SWAP1 POP PUSH1 0x0 PUSH2 0x3B6E DUP6 DUP4 DUP7 PUSH1 0x40 ADD MLOAD PUSH2 0x3B69 SWAP2 SWAP1 PUSH2 0x448B JUMP JUMPDEST PUSH2 0x3A6B JUMP JUMPDEST PUSH2 0x3B78 SWAP1 DUP4 PUSH2 0x448B JUMP JUMPDEST SWAP1 POP DUP1 DUP5 PUSH1 0x20 ADD DUP2 DUP2 MLOAD PUSH2 0x3B8C SWAP2 SWAP1 PUSH2 0x448B JUMP JUMPDEST SWAP1 MSTORE POP DUP4 MLOAD DUP2 SWAP1 DUP6 SWAP1 PUSH2 0x3BA0 SWAP1 DUP4 SWAP1 PUSH2 0x448B JUMP JUMPDEST SWAP1 MSTORE POP PUSH1 0x40 DUP5 ADD MLOAD PUSH2 0x3BB3 SWAP1 DUP7 SWAP1 PUSH2 0x3A6B JUMP JUMPDEST DUP5 PUSH1 0x40 ADD DUP2 DUP2 MLOAD PUSH2 0x3BC4 SWAP2 SWAP1 PUSH2 0x448B JUMP JUMPDEST SWAP1 MSTORE POP POP POP JUMPDEST PUSH1 0x60 DUP4 ADD MLOAD ISZERO PUSH2 0x8DC JUMPI DUP3 PUSH1 0x60 ADD MLOAD DUP3 PUSH1 0x40 ADD DUP2 DUP2 MLOAD PUSH2 0x3BEA SWAP2 SWAP1 PUSH2 0x448B JUMP JUMPDEST SWAP1 MSTORE POP PUSH1 0x0 PUSH1 0x60 DUP5 ADD MSTORE POP POP POP JUMP JUMPDEST PUSH1 0x0 DUP4 DUP4 DUP2 MLOAD DUP2 LT PUSH2 0x3C0D JUMPI PUSH2 0x3C0D PUSH2 0x4462 JUMP JUMPDEST ADD PUSH1 0x20 ADD MLOAD PUSH1 0x1 PUSH1 0x1 PUSH1 0xF8 SHL SUB NOT AND SWAP1 POP PUSH1 0x61 PUSH1 0xF8 SHL DUP2 LT DUP1 ISZERO SWAP1 PUSH2 0x3C36 JUMPI POP PUSH1 0x8 DUP3 PUSH1 0xFF AND LT ISZERO JUMPDEST ISZERO PUSH2 0xF77 JUMPI DUP1 PUSH1 0x20 PUSH1 0xF8 SHL XOR DUP5 DUP5 DUP2 MLOAD DUP2 LT PUSH2 0x3C54 JUMPI PUSH2 0x3C54 PUSH2 0x4462 JUMP JUMPDEST PUSH1 0x20 ADD ADD SWAP1 PUSH1 0x1 PUSH1 0x1 PUSH1 0xF8 SHL SUB NOT AND SWAP1 DUP2 PUSH1 0x0 BYTE SWAP1 MSTORE8 POP POP POP POP POP JUMP JUMPDEST PUSH1 0x0 DUP2 DUP4 LT PUSH2 0x3C8D JUMPI PUSH1 0x0 DUP3 DUP2 MSTORE PUSH1 0x20 DUP5 SWAP1 MSTORE PUSH1 0x40 SWAP1 KECCAK256 PUSH2 0x92B JUMP JUMPDEST PUSH1 0x0 DUP4 DUP2 MSTORE PUSH1 0x20 DUP4 SWAP1 MSTORE PUSH1 0x40 SWAP1 KECCAK256 PUSH2 0x92B JUMP JUMPDEST PUSH1 0x40 MLOAD DUP1 PUSH2 0x160 ADD PUSH1 0x40 MSTORE DUP1 PUSH1 0x0 DUP2 MSTORE PUSH1 0x20 ADD PUSH1 0x0 DUP2 MSTORE PUSH1 0x20 ADD PUSH1 0x0 DUP2 MSTORE PUSH1 0x20 ADD PUSH1 0x0 DUP2 MSTORE PUSH1 0x20 ADD PUSH1 0x0 DUP2 MSTORE PUSH1 0x20 ADD PUSH1 0x0 DUP2 MSTORE PUSH1 0x20 ADD PUSH1 0x0 PUSH5 0xFFFFFFFFFF AND DUP2 MSTORE PUSH1 0x20 ADD PUSH1 0x0 DUP2 MSTORE PUSH1 0x20 ADD PUSH1 0x0 DUP2 MSTORE PUSH1 0x20 ADD PUSH1 0x0 DUP2 MSTORE PUSH1 0x20 ADD PUSH1 0x0 DUP2 MSTORE POP SWAP1 JUMP JUMPDEST PUSH1 0x40 MLOAD DUP1 PUSH1 0xE0 ADD PUSH1 0x40 MSTORE DUP1 PUSH1 0x0 PUSH5 0xFFFFFFFFFF AND DUP2 MSTORE PUSH1 0x20 ADD PUSH1 0x0 DUP2 MSTORE PUSH1 0x20 ADD PUSH1 0x0 DUP2 MSTORE PUSH1 0x20 ADD PUSH1 0x0 DUP2 MSTORE PUSH1 0x20 ADD PUSH1 0x0 DUP2 MSTORE PUSH1 0x20 ADD PUSH1 0x0 DUP2 MSTORE PUSH1 0x20 ADD PUSH1 0x0 ISZERO ISZERO DUP2 MSTORE POP SWAP1 JUMP JUMPDEST PUSH1 0x40 MLOAD DUP1 PUSH2 0x1A0 ADD PUSH1 0x40 MSTORE DUP1 PUSH1 0xD SWAP1 PUSH1 0x20 DUP3 MUL DUP1 CALLDATASIZE DUP4 CALLDATACOPY POP SWAP2 SWAP3 SWAP2 POP POP JUMP JUMPDEST PUSH1 0x0 JUMPDEST DUP4 DUP2 LT ISZERO PUSH2 0x3D81 JUMPI DUP2 DUP2 ADD MLOAD DUP4 DUP3 ADD MSTORE PUSH1 0x20 ADD PUSH2 0x3D69 JUMP JUMPDEST POP POP PUSH1 0x0 SWAP2 ADD MSTORE JUMP JUMPDEST PUSH1 0x20 DUP2 MSTORE PUSH1 0x0 DUP3 MLOAD DUP1 PUSH1 0x20 DUP5 ADD MSTORE PUSH2 0x3DA9 DUP2 PUSH1 0x40 DUP6 ADD PUSH1 0x20 DUP8 ADD PUSH2 0x3D66 JUMP JUMPDEST PUSH1 0x1F ADD PUSH1 0x1F NOT AND SWAP2 SWAP1 SWAP2 ADD PUSH1 0x40 ADD SWAP3 SWAP2 POP POP JUMP JUMPDEST DUP1 CALLDATALOAD PUSH1 0x1 PUSH1 0x1 PUSH1 0xA0 SHL SUB DUP2 AND DUP2 EQ PUSH2 0x3DD4 JUMPI PUSH1 0x0 DUP1 REVERT JUMPDEST SWAP2 SWAP1 POP JUMP JUMPDEST PUSH1 0x0 DUP1 PUSH1 0x40 DUP4 DUP6 SUB SLT ISZERO PUSH2 0x3DEC JUMPI PUSH1 0x0 DUP1 REVERT JUMPDEST PUSH2 0x3DF5 DUP4 PUSH2 0x3DBD JUMP JUMPDEST SWAP5 PUSH1 0x20 SWAP4 SWAP1 SWAP4 ADD CALLDATALOAD SWAP4 POP POP POP JUMP JUMPDEST PUSH1 0x0 DUP1 PUSH1 0x0 PUSH1 0x60 DUP5 DUP7 SUB SLT ISZERO PUSH2 0x3E18 JUMPI PUSH1 0x0 DUP1 REVERT JUMPDEST PUSH2 0x3E21 DUP5 PUSH2 0x3DBD JUMP JUMPDEST SWAP3 POP PUSH1 0x20 DUP5 ADD CALLDATALOAD SWAP2 POP PUSH2 0x3E36 PUSH1 0x40 DUP6 ADD PUSH2 0x3DBD JUMP JUMPDEST SWAP1 POP SWAP3 POP SWAP3 POP SWAP3 JUMP JUMPDEST PUSH1 0x0 DUP1 PUSH1 0x0 PUSH1 0x60 DUP5 DUP7 SUB SLT ISZERO PUSH2 0x3E54 JUMPI PUSH1 0x0 DUP1 REVERT JUMPDEST PUSH2 0x3E5D DUP5 PUSH2 0x3DBD JUMP JUMPDEST SWAP3 POP PUSH2 0x3E6B PUSH1 0x20 DUP6 ADD PUSH2 0x3DBD JUMP JUMPDEST SWAP2 POP PUSH1 0x40 DUP5 ADD CALLDATALOAD SWAP1 POP SWAP3 POP SWAP3 POP SWAP3 JUMP JUMPDEST PUSH1 0x0 DUP1 DUP4 PUSH1 0x1F DUP5 ADD SLT PUSH2 0x3E8D JUMPI PUSH1 0x0 DUP1 REVERT JUMPDEST POP DUP2 CALLDATALOAD PUSH8 0xFFFFFFFFFFFFFFFF DUP2 GT ISZERO PUSH2 0x3EA5 JUMPI PUSH1 0x0 DUP1 REVERT JUMPDEST PUSH1 0x20 DUP4 ADD SWAP2 POP DUP4 PUSH1 0x20 DUP3 PUSH1 0x5 SHL DUP6 ADD ADD GT ISZERO PUSH2 0x3EC0 JUMPI PUSH1 0x0 DUP1 REVERT JUMPDEST SWAP3 POP SWAP3 SWAP1 POP JUMP JUMPDEST PUSH1 0x0 DUP1 PUSH1 0x0 PUSH1 0x40 DUP5 DUP7 SUB SLT ISZERO PUSH2 0x3EDC JUMPI PUSH1 0x0 DUP1 REVERT JUMPDEST DUP4 CALLDATALOAD SWAP3 POP PUSH1 0x20 DUP5 ADD CALLDATALOAD PUSH8 0xFFFFFFFFFFFFFFFF DUP2 GT ISZERO PUSH2 0x3EFA JUMPI PUSH1 0x0 DUP1 REVERT JUMPDEST PUSH2 0x3F06 DUP7 DUP3 DUP8 ADD PUSH2 0x3E7B JUMP JUMPDEST SWAP5 SWAP8 SWAP1 SWAP7 POP SWAP4 SWAP5 POP POP POP POP JUMP JUMPDEST DUP1 CALLDATALOAD PUSH1 0xFF DUP2 AND DUP2 EQ PUSH2 0x3DD4 JUMPI PUSH1 0x0 DUP1 REVERT JUMPDEST PUSH1 0x0 DUP1 PUSH1 0x0 PUSH1 0x60 DUP5 DUP7 SUB SLT ISZERO PUSH2 0x3F39 JUMPI PUSH1 0x0 DUP1 REVERT JUMPDEST DUP4 CALLDATALOAD SWAP3 POP PUSH1 0x20 DUP5 ADD CALLDATALOAD SWAP2 POP PUSH2 0x3E36 PUSH1 0x40 DUP6 ADD PUSH2 0x3F13 JUMP JUMPDEST PUSH1 0x0 DUP1 PUSH1 0x40 DUP4 DUP6 SUB SLT ISZERO PUSH2 0x3F63 JUMPI PUSH1 0x0 DUP1 REVERT JUMPDEST POP POP DUP1 CALLDATALOAD SWAP3 PUSH1 0x20 SWAP1 SWAP2 ADD CALLDATALOAD SWAP2 POP JUMP JUMPDEST PUSH1 0x0 PUSH1 0x20 DUP3 DUP5 SUB SLT ISZERO PUSH2 0x3F84 JUMPI PUSH1 0x0 DUP1 REVERT JUMPDEST PUSH2 0x92B DUP3 PUSH2 0x3DBD JUMP JUMPDEST DUP1 CALLDATALOAD PUSH5 0xFFFFFFFFFF DUP2 AND DUP2 EQ PUSH2 0x3DD4 JUMPI PUSH1 0x0 DUP1 REVERT JUMPDEST PUSH1 0x0 DUP1 PUSH1 0x40 DUP4 DUP6 SUB SLT ISZERO PUSH2 0x3FB5 JUMPI PUSH1 0x0 DUP1 REVERT JUMPDEST DUP3 CALLDATALOAD SWAP2 POP PUSH2 0x3FC5 PUSH1 0x20 DUP5 ADD PUSH2 0x3F8D JUMP JUMPDEST SWAP1 POP SWAP3 POP SWAP3 SWAP1 POP JUMP JUMPDEST PUSH1 0x0 DUP1 PUSH1 0x40 DUP4 DUP6 SUB SLT ISZERO PUSH2 0x3FE1 JUMPI PUSH1 0x0 DUP1 REVERT JUMPDEST DUP3 CALLDATALOAD SWAP2 POP PUSH2 0x3FC5 PUSH1 0x20 DUP5 ADD PUSH2 0x3DBD JUMP JUMPDEST PUSH1 0x0 DUP1 PUSH1 0x0 PUSH1 0x60 DUP5 DUP7 SUB SLT ISZERO PUSH2 0x4006 JUMPI PUSH1 0x0 DUP1 REVERT JUMPDEST PUSH2 0x400F DUP5 PUSH2 0x3DBD JUMP JUMPDEST SWAP3 POP PUSH1 0x20 DUP5 ADD CALLDATALOAD SWAP2 POP PUSH2 0x3E36 PUSH1 0x40 DUP6 ADD PUSH2 0x3F8D JUMP JUMPDEST PUSH4 0x4E487B71 PUSH1 0xE0 SHL PUSH1 0x0 MSTORE PUSH1 0x41 PUSH1 0x4 MSTORE PUSH1 0x24 PUSH1 0x0 REVERT JUMPDEST PUSH1 0x40 MLOAD PUSH2 0x160 DUP2 ADD PUSH8 0xFFFFFFFFFFFFFFFF DUP2 GT DUP3 DUP3 LT OR ISZERO PUSH2 0x406C JUMPI PUSH4 0x4E487B71 PUSH1 0xE0 SHL PUSH1 0x0 MSTORE PUSH1 0x41 PUSH1 0x4 MSTORE PUSH1 0x24 PUSH1 0x0 REVERT JUMPDEST PUSH1 0x40 MSTORE SWAP1 JUMP JUMPDEST PUSH1 0x0 PUSH2 0x160 DUP3 DUP5 SUB SLT ISZERO PUSH2 0x4085 JUMPI PUSH1 0x0 DUP1 REVERT JUMPDEST PUSH2 0x408D PUSH2 0x403A JUMP JUMPDEST SWAP1 POP DUP2 CALLDATALOAD DUP2 MSTORE PUSH1 0x20 DUP3 ADD CALLDATALOAD PUSH1 0x20 DUP3 ADD MSTORE PUSH1 0x40 DUP3 ADD CALLDATALOAD PUSH1 0x40 DUP3 ADD MSTORE PUSH1 0x60 DUP3 ADD CALLDATALOAD PUSH1 0x60 DUP3 ADD MSTORE PUSH1 0x80 DUP3 ADD CALLDATALOAD PUSH1 0x80 DUP3 ADD MSTORE PUSH1 0xA0 DUP3 ADD CALLDATALOAD PUSH1 0xA0 DUP3 ADD MSTORE PUSH2 0x40D1 PUSH1 0xC0 DUP4 ADD PUSH2 0x3F8D JUMP JUMPDEST PUSH1 0xC0 DUP3 ADD MSTORE PUSH1 0xE0 DUP3 ADD CALLDATALOAD PUSH1 0xE0 DUP3 ADD MSTORE PUSH2 0x100 DUP1 DUP4 ADD CALLDATALOAD DUP2 DUP4 ADD MSTORE POP PUSH2 0x120 DUP1 DUP4 ADD CALLDATALOAD DUP2 DUP4 ADD MSTORE POP PUSH2 0x140 DUP1 DUP4 ADD CALLDATALOAD DUP2 DUP4 ADD MSTORE POP SWAP3 SWAP2 POP POP JUMP JUMPDEST PUSH1 0x0 DUP1 PUSH2 0x2C0 DUP4 DUP6 SUB SLT ISZERO PUSH2 0x411E JUMPI PUSH1 0x0 DUP1 REVERT JUMPDEST PUSH2 0x4128 DUP5 DUP5 PUSH2 0x4072 JUMP JUMPDEST SWAP2 POP PUSH2 0x3FC5 DUP5 PUSH2 0x160 DUP6 ADD PUSH2 0x4072 JUMP JUMPDEST PUSH1 0x20 DUP1 DUP3 MSTORE DUP3 MLOAD DUP3 DUP3 ADD DUP2 SWAP1 MSTORE PUSH1 0x0 SWAP2 SWAP1 DUP5 DUP3 ADD SWAP1 PUSH1 0x40 DUP6 ADD SWAP1 DUP5 JUMPDEST DUP2 DUP2 LT ISZERO PUSH2 0x4170 JUMPI DUP4 MLOAD DUP4 MSTORE SWAP3 DUP5 ADD SWAP3 SWAP2 DUP5 ADD SWAP2 PUSH1 0x1 ADD PUSH2 0x4154 JUMP JUMPDEST POP SWAP1 SWAP7 SWAP6 POP POP POP POP POP POP JUMP JUMPDEST DUP1 CALLDATALOAD PUSH1 0x1 PUSH1 0x1 PUSH1 0x60 SHL SUB NOT DUP2 AND DUP2 EQ PUSH2 0x3DD4 JUMPI PUSH1 0x0 DUP1 REVERT JUMPDEST PUSH1 0x0 PUSH1 0x20 DUP3 DUP5 SUB SLT ISZERO PUSH2 0x41A6 JUMPI PUSH1 0x0 DUP1 REVERT JUMPDEST PUSH2 0x92B DUP3 PUSH2 0x417C JUMP JUMPDEST PUSH1 0x0 PUSH1 0x20 DUP3 DUP5 SUB SLT ISZERO PUSH2 0x41C1 JUMPI PUSH1 0x0 DUP1 REVERT JUMPDEST POP CALLDATALOAD SWAP2 SWAP1 POP JUMP JUMPDEST PUSH1 0x0 DUP1 PUSH1 0x0 DUP1 PUSH1 0x60 DUP6 DUP8 SUB SLT ISZERO PUSH2 0x41DE JUMPI PUSH1 0x0 DUP1 REVERT JUMPDEST PUSH2 0x41E7 DUP6 PUSH2 0x417C JUMP JUMPDEST SWAP4 POP PUSH1 0x20 DUP6 ADD CALLDATALOAD SWAP3 POP PUSH1 0x40 DUP6 ADD CALLDATALOAD PUSH8 0xFFFFFFFFFFFFFFFF DUP2 GT ISZERO PUSH2 0x420A JUMPI PUSH1 0x0 DUP1 REVERT JUMPDEST PUSH2 0x4216 DUP8 DUP3 DUP9 ADD PUSH2 0x3E7B JUMP JUMPDEST SWAP6 SWAP9 SWAP5 SWAP8 POP SWAP6 POP POP POP POP JUMP JUMPDEST PUSH1 0x0 DUP1 PUSH1 0x0 DUP1 PUSH1 0x0 DUP1 PUSH1 0x0 DUP1 PUSH2 0x100 DUP10 DUP12 SUB SLT ISZERO PUSH2 0x423F JUMPI PUSH1 0x0 DUP1 REVERT JUMPDEST PUSH2 0x4248 DUP10 PUSH2 0x3DBD JUMP JUMPDEST SWAP8 POP PUSH1 0x20 DUP10 ADD CALLDATALOAD SWAP7 POP PUSH1 0x40 DUP10 ADD CALLDATALOAD SWAP6 POP PUSH1 0x60 DUP10 ADD CALLDATALOAD SWAP5 POP PUSH2 0x426B PUSH1 0x80 DUP11 ADD PUSH2 0x3F13 JUMP JUMPDEST SWAP4 POP PUSH2 0x4279 PUSH1 0xA0 DUP11 ADD PUSH2 0x3F13 JUMP JUMPDEST SWAP3 POP PUSH1 0xC0 DUP10 ADD CALLDATALOAD SWAP2 POP PUSH1 0xE0 DUP10 ADD CALLDATALOAD SWAP1 POP SWAP3 SWAP6 SWAP9 POP SWAP3 SWAP6 SWAP9 SWAP1 SWAP4 SWAP7 POP JUMP JUMPDEST PUSH1 0x0 DUP1 PUSH1 0x40 DUP4 DUP6 SUB SLT ISZERO PUSH2 0x42A9 JUMPI PUSH1 0x0 DUP1 REVERT JUMPDEST PUSH2 0x42B2 DUP4 PUSH2 0x3DBD JUMP JUMPDEST SWAP2 POP PUSH2 0x3FC5 PUSH1 0x20 DUP5 ADD PUSH2 0x3DBD JUMP JUMPDEST PUSH2 0x1A0 DUP2 ADD DUP2 DUP4 PUSH1 0x0 JUMPDEST PUSH1 0xD DUP2 LT ISZERO PUSH2 0x37E7 JUMPI DUP2 MLOAD DUP4 MSTORE PUSH1 0x20 SWAP3 DUP4 ADD SWAP3 SWAP1 SWAP2 ADD SWAP1 PUSH1 0x1 ADD PUSH2 0x42CA JUMP JUMPDEST PUSH1 0x1 DUP2 DUP2 SHR SWAP1 DUP3 AND DUP1 PUSH2 0x42FD JUMPI PUSH1 0x7F DUP3 AND SWAP2 POP JUMPDEST PUSH1 0x20 DUP3 LT DUP2 SUB PUSH2 0x431D JUMPI PUSH4 0x4E487B71 PUSH1 0xE0 SHL PUSH1 0x0 MSTORE PUSH1 0x22 PUSH1 0x4 MSTORE PUSH1 0x24 PUSH1 0x0 REVERT JUMPDEST POP SWAP2 SWAP1 POP JUMP JUMPDEST PUSH4 0x4E487B71 PUSH1 0xE0 SHL PUSH1 0x0 MSTORE PUSH1 0x11 PUSH1 0x4 MSTORE PUSH1 0x24 PUSH1 0x0 REVERT JUMPDEST PUSH1 0x1 DUP2 DUP2 JUMPDEST DUP1 DUP6 GT ISZERO PUSH2 0x4374 JUMPI DUP2 PUSH1 0x0 NOT DIV DUP3 GT ISZERO PUSH2 0x435A JUMPI PUSH2 0x435A PUSH2 0x4323 JUMP JUMPDEST DUP1 DUP6 AND ISZERO PUSH2 0x4367 JUMPI SWAP2 DUP2 MUL SWAP2 JUMPDEST SWAP4 DUP5 SHR SWAP4 SWAP1 DUP1 MUL SWAP1 PUSH2 0x433E JUMP JUMPDEST POP SWAP3 POP SWAP3 SWAP1 POP JUMP JUMPDEST PUSH1 0x0 DUP3 PUSH2 0x438B JUMPI POP PUSH1 0x1 PUSH2 0x86A JUMP JUMPDEST DUP2 PUSH2 0x4398 JUMPI POP PUSH1 0x0 PUSH2 0x86A JUMP JUMPDEST DUP2 PUSH1 0x1 DUP2 EQ PUSH2 0x43AE JUMPI PUSH1 0x2 DUP2 EQ PUSH2 0x43B8 JUMPI PUSH2 0x43D4 JUMP JUMPDEST PUSH1 0x1 SWAP2 POP POP PUSH2 0x86A JUMP JUMPDEST PUSH1 0xFF DUP5 GT ISZERO PUSH2 0x43C9 JUMPI PUSH2 0x43C9 PUSH2 0x4323 JUMP JUMPDEST POP POP PUSH1 0x1 DUP3 SHL PUSH2 0x86A JUMP JUMPDEST POP PUSH1 0x20 DUP4 LT PUSH2 0x133 DUP4 LT AND PUSH1 0x4E DUP5 LT PUSH1 0xB DUP5 LT AND OR ISZERO PUSH2 0x43F7 JUMPI POP DUP2 DUP2 EXP PUSH2 0x86A JUMP JUMPDEST PUSH2 0x4401 DUP4 DUP4 PUSH2 0x4339 JUMP JUMPDEST DUP1 PUSH1 0x0 NOT DIV DUP3 GT ISZERO PUSH2 0x4415 JUMPI PUSH2 0x4415 PUSH2 0x4323 JUMP JUMPDEST MUL SWAP4 SWAP3 POP POP POP JUMP JUMPDEST PUSH1 0x0 PUSH2 0x92B DUP4 DUP4 PUSH2 0x437C JUMP JUMPDEST PUSH1 0x0 DUP3 PUSH2 0x4446 JUMPI PUSH4 0x4E487B71 PUSH1 0xE0 SHL PUSH1 0x0 MSTORE PUSH1 0x12 PUSH1 0x4 MSTORE PUSH1 0x24 PUSH1 0x0 REVERT JUMPDEST POP DIV SWAP1 JUMP JUMPDEST DUP1 DUP3 MUL DUP2 ISZERO DUP3 DUP3 DIV DUP5 EQ OR PUSH2 0x86A JUMPI PUSH2 0x86A PUSH2 0x4323 JUMP JUMPDEST PUSH4 0x4E487B71 PUSH1 0xE0 SHL PUSH1 0x0 MSTORE PUSH1 0x32 PUSH1 0x4 MSTORE PUSH1 0x24 PUSH1 0x0 REVERT JUMPDEST DUP2 DUP2 SUB DUP2 DUP2 GT ISZERO PUSH2 0x86A JUMPI PUSH2 0x86A PUSH2 0x4323 JUMP JUMPDEST DUP1 DUP3 ADD DUP1 DUP3 GT ISZERO PUSH2 0x86A JUMPI PUSH2 0x86A PUSH2 0x4323 JUMP JUMPDEST PUSH1 0x0 PUSH1 0x1 DUP3 ADD PUSH2 0x44B0 JUMPI PUSH2 0x44B0 PUSH2 0x4323 JUMP JUMPDEST POP PUSH1 0x1 ADD SWAP1 JUMP JUMPDEST PUSH1 0x0 DUP3 MLOAD PUSH2 0x44C9 DUP2 DUP5 PUSH1 0x20 DUP8 ADD PUSH2 0x3D66 JUMP JUMPDEST SWAP2 SWAP1 SWAP2 ADD SWAP3 SWAP2 POP POP JUMP JUMPDEST PUSH1 0x0 PUSH1 0x20 DUP3 DUP5 SUB SLT ISZERO PUSH2 0x44E5 JUMPI PUSH1 0x0 DUP1 REVERT JUMPDEST POP MLOAD SWAP2 SWAP1 POP JUMP JUMPDEST PUSH4 0x4E487B71 PUSH1 0xE0 SHL PUSH1 0x0 MSTORE PUSH1 0x31 PUSH1 0x4 MSTORE PUSH1 0x24 PUSH1 0x0 REVERT JUMPDEST PUSH1 0x0 PUSH5 0xFFFFFFFFFF DUP1 DUP4 AND DUP2 DUP2 SUB PUSH2 0x451C JUMPI PUSH2 0x451C PUSH2 0x4323 JUMP JUMPDEST PUSH1 0x1 ADD SWAP4 SWAP3 POP POP POP JUMP JUMPDEST PUSH1 0xFF DUP2 DUP2 AND DUP4 DUP3 AND MUL SWAP1 DUP2 AND SWAP1 DUP2 DUP2 EQ PUSH2 0x4542 JUMPI PUSH2 0x4542 PUSH2 0x4323 JUMP JUMPDEST POP SWAP3 SWAP2 POP POP JUMP JUMPDEST PUSH1 0xFF DUP2 DUP2 AND DUP4 DUP3 AND ADD SWAP1 DUP2 GT ISZERO PUSH2 0x86A JUMPI PUSH2 0x86A PUSH2 0x4323 JUMP JUMPDEST PUSH1 0x1 PUSH1 0x1 PUSH1 0xF8 SHL SUB NOT PUSH1 0xF8 DUP8 DUP2 SHL DUP3 AND DUP4 MSTORE PUSH8 0xFFFFFFFFFFFFFFFF NOT DUP8 AND PUSH1 0x1 DUP5 ADD MSTORE DUP6 SWAP1 SHL AND PUSH1 0x19 DUP3 ADD MSTORE DUP3 MLOAD PUSH1 0x0 SWAP1 PUSH2 0x45A4 DUP2 PUSH1 0x1A DUP6 ADD PUSH1 0x20 DUP9 ADD PUSH2 0x3D66 JUMP JUMPDEST DUP4 MLOAD SWAP1 DUP4 ADD SWAP1 PUSH2 0x45BB DUP2 PUSH1 0x1A DUP5 ADD PUSH1 0x20 DUP9 ADD PUSH2 0x3D66 JUMP JUMPDEST ADD PUSH1 0x1A ADD SWAP8 SWAP7 POP POP POP POP POP POP POP JUMP JUMPDEST PUSH1 0x1 PUSH1 0x1 PUSH1 0xF8 SHL SUB NOT PUSH1 0xF8 DUP9 DUP2 SHL DUP3 AND DUP4 MSTORE PUSH8 0xFFFFFFFFFFFFFFFF NOT DUP9 AND PUSH1 0x1 DUP5 ADD MSTORE DUP7 SWAP1 SHL AND PUSH1 0x19 DUP3 ADD MSTORE DUP4 MLOAD PUSH1 0x0 SWAP1 PUSH2 0x460C DUP2 PUSH1 0x1A DUP6 ADD PUSH1 0x20 DUP10 ADD PUSH2 0x3D66 JUMP JUMPDEST DUP5 MLOAD SWAP1 DUP4 ADD SWAP1 PUSH2 0x4623 DUP2 PUSH1 0x1A DUP5 ADD PUSH1 0x20 DUP10 ADD PUSH2 0x3D66 JUMP JUMPDEST PUSH1 0x5F PUSH1 0xF8 SHL PUSH1 0x1A SWAP3 SWAP1 SWAP2 ADD SWAP2 DUP3 ADD MSTORE DUP4 MLOAD PUSH2 0x4645 DUP2 PUSH1 0x1B DUP5 ADD PUSH1 0x20 DUP9 ADD PUSH2 0x3D66 JUMP JUMPDEST ADD PUSH1 0x1B ADD SWAP9 SWAP8 POP POP POP POP POP POP POP POP JUMP INVALID LOG2 PUSH5 0x6970667358 0x22 SLT KECCAK256 SLT 0xF6 SWAP2 SUB 0xED 0xED PUSH4 0xCAACF8D 0x4F 0xCA CALLDATASIZE NUMBER PUSH18 0x9634B1C4F4072AA897A97A5C836A7E8C6473 PUSH16 0x6C634300081300330000000000000000 "
		},
		"gasEstimates": {
			"creation": {
				"codeDepositCost": "3611800",
				"executionCost": "infinite",
				"totalCost": "infinite"
			},
			"external": {
				"CLAIM_PHASE_DAYS()": "385",
				"FLUSH_ADDR()": "351",
				"HEARTS_PER_SATOSHI()": "infinite",
				"allocatedSupply()": "4618",
				"allowance(address,address)": "infinite",
				"approve(address,uint256)": "24674",
				"balanceOf(address)": "2674",
				"btcAddressClaims(bytes20)": "2579",
				"btcAddressIsClaimable(bytes20,uint256,bytes32[])": "infinite",
				"btcAddressIsValid(bytes20,uint256,bytes32[])": "infinite",
				"claimMessageMatchesSignature(address,bytes32,bytes32,bytes32,uint8,uint8,bytes32,bytes32)": "infinite",
				"contractOwner()": "infinite",
				"currentDay()": "infinite",
				"dailyData(uint256)": "2634",
				"dailyDataRange(uint256,uint256)": "infinite",
				"dailyDataUpdate(uint256)": "infinite",
				"decimals()": "245",
				"decreaseAllowance(address,uint256)": "27039",
				"getGlobalsLoad((uint256,uint256,uint256,uint256,uint256,uint256,uint40,uint256,uint256,uint256,uint256),(uint256,uint256,uint256,uint256,uint256,uint256,uint40,uint256,uint256,uint256,uint256))": "infinite",
				"getTreasureBoxAddress()": "2376",
				"globalInfo()": "infinite",
				"globals()": "4859",
				"increaseAllowance(address,uint256)": "infinite",
				"merkleProofIsValid(bytes32,bytes32[])": "infinite",
				"mint(address,uint256,address)": "infinite",
				"name()": "infinite",
				"pubKeyToBtcAddress(bytes32,bytes32,uint8)": "infinite",
				"pubKeyToEthAddress(bytes32,bytes32)": "521",
				"setTreasureBoxAddress(address)": "infinite",
				"stakeCount(address)": "2649",
				"stakeEnd(uint256,uint40)": "infinite",
				"stakeGoodAccounting(address,uint256,uint40)": "infinite",
				"stakeLists(address,uint256)": "5186",
				"stakeStart(uint256,uint256)": "infinite",
				"symbol()": "infinite",
				"totalSupply()": "2338",
				"transfer(address,uint256)": "51161",
				"transferFrom(address,address,uint256)": "infinite",
				"treasureBoxAddress()": "2470",
				"xfLobby(uint256)": "2505",
				"xfLobbyMembers(uint256,address)": "2799"
			},
			"internal": {
				"_addressStringChecksumChar(bytes memory,uint256,uint8)": "infinite",
				"_addressStringCreate(address,bool)": "infinite",
				"_btcAddressIsValid(bytes20,uint256,bytes32[] memory)": "infinite",
				"_claimMessageCreate(address,bytes32,uint8)": "infinite",
				"_hash160(bytes memory)": "infinite",
				"_hash256(bytes memory)": "infinite",
				"_hexStringFromData(bytes memory,bytes32,uint256)": "infinite",
				"_merkleProofIsValid(bytes32,bytes32[] memory)": "infinite"
			}
		},
		"methodIdentifiers": {
			"CLAIM_PHASE_DAYS()": "319e74f6",
			"FLUSH_ADDR()": "13c5c2c7",
			"HEARTS_PER_SATOSHI()": "1285b047",
			"allocatedSupply()": "3a70a5ca",
			"allowance(address,address)": "dd62ed3e",
			"approve(address,uint256)": "095ea7b3",
			"balanceOf(address)": "70a08231",
			"btcAddressClaims(bytes20)": "7c426620",
			"btcAddressIsClaimable(bytes20,uint256,bytes32[])": "8e21aa01",
			"btcAddressIsValid(bytes20,uint256,bytes32[])": "ec9a1917",
			"claimMessageMatchesSignature(address,bytes32,bytes32,bytes32,uint8,uint8,bytes32,bytes32)": "d5a373ff",
			"contractOwner()": "ce606ee0",
			"currentDay()": "5c9302c9",
			"dailyData(uint256)": "90de6871",
			"dailyDataRange(uint256,uint256)": "6a210a0e",
			"dailyDataUpdate(uint256)": "8f1c65c0",
			"decimals()": "313ce567",
			"decreaseAllowance(address,uint256)": "a457c2d7",
			"getGlobalsLoad((uint256,uint256,uint256,uint256,uint256,uint256,uint40,uint256,uint256,uint256,uint256),(uint256,uint256,uint256,uint256,uint256,uint256,uint40,uint256,uint256,uint256,uint256))": "65d2a557",
			"getTreasureBoxAddress()": "34dc8bb5",
			"globalInfo()": "f04b5fa0",
			"globals()": "c3124525",
			"increaseAllowance(address,uint256)": "39509351",
			"merkleProofIsValid(bytes32,bytes32[])": "27aa6018",
			"mint(address,uint256,address)": "0d4d1513",
			"name()": "06fdde03",
			"pubKeyToBtcAddress(bytes32,bytes32,uint8)": "283a5baf",
			"pubKeyToEthAddress(bytes32,bytes32)": "30c1a785",
			"setTreasureBoxAddress(address)": "8cba2842",
			"stakeCount(address)": "33060d90",
			"stakeEnd(uint256,uint40)": "343009a2",
			"stakeGoodAccounting(address,uint256,uint40)": "65cf71b2",
			"stakeLists(address,uint256)": "2607443b",
			"stakeStart(uint256,uint256)": "52a438b8",
			"symbol()": "95d89b41",
			"totalSupply()": "18160ddd",
			"transfer(address,uint256)": "a9059cbb",
			"transferFrom(address,address,uint256)": "23b872dd",
			"treasureBoxAddress()": "b626d6fc",
			"xfLobby(uint256)": "87a0f31c",
			"xfLobbyMembers(uint256,address)": "44203faf"
		}
	},
	"abi": [
		{
			"anonymous": false,
			"inputs": [
				{
					"indexed": true,
					"internalType": "address",
					"name": "owner",
					"type": "address"
				},
				{
					"indexed": true,
					"internalType": "address",
					"name": "spender",
					"type": "address"
				},
				{
					"indexed": false,
					"internalType": "uint256",
					"name": "value",
					"type": "uint256"
				}
			],
			"name": "Approval",
			"type": "event"
		},
		{
			"anonymous": false,
			"inputs": [
				{
					"indexed": false,
					"internalType": "uint256",
					"name": "data0",
					"type": "uint256"
				},
				{
					"indexed": false,
					"internalType": "uint256",
					"name": "data1",
					"type": "uint256"
				},
				{
					"indexed": true,
					"internalType": "bytes20",
					"name": "btcAddr",
					"type": "bytes20"
				},
				{
					"indexed": true,
					"internalType": "address",
					"name": "claimToAddr",
					"type": "address"
				},
				{
					"indexed": true,
					"internalType": "address",
					"name": "referrerAddr",
					"type": "address"
				}
			],
			"name": "Claim",
			"type": "event"
		},
		{
			"anonymous": false,
			"inputs": [
				{
					"indexed": false,
					"internalType": "uint256",
					"name": "data0",
					"type": "uint256"
				},
				{
					"indexed": false,
					"internalType": "uint256",
					"name": "data1",
					"type": "uint256"
				},
				{
					"indexed": false,
					"internalType": "uint256",
					"name": "data2",
					"type": "uint256"
				},
				{
					"indexed": true,
					"internalType": "address",
					"name": "senderAddr",
					"type": "address"
				}
			],
			"name": "ClaimAssist",
			"type": "event"
		},
		{
			"anonymous": false,
			"inputs": [
				{
					"indexed": false,
					"internalType": "uint256",
					"name": "data0",
					"type": "uint256"
				},
				{
					"indexed": true,
					"internalType": "address",
					"name": "updaterAddr",
					"type": "address"
				}
			],
			"name": "DailyDataUpdate",
			"type": "event"
		},
		{
			"anonymous": false,
			"inputs": [
				{
					"indexed": false,
					"internalType": "uint256",
					"name": "data0",
					"type": "uint256"
				},
				{
					"indexed": true,
					"internalType": "uint40",
					"name": "stakeId",
					"type": "uint40"
				}
			],
			"name": "ShareRateChange",
			"type": "event"
		},
		{
			"anonymous": false,
			"inputs": [
				{
					"indexed": false,
					"internalType": "uint256",
					"name": "data0",
					"type": "uint256"
				},
				{
					"indexed": false,
					"internalType": "uint256",
					"name": "data1",
					"type": "uint256"
				},
				{
					"indexed": true,
					"internalType": "address",
					"name": "stakerAddr",
					"type": "address"
				},
				{
					"indexed": true,
					"internalType": "uint40",
					"name": "stakeId",
					"type": "uint40"
				}
			],
			"name": "StakeEnd",
			"type": "event"
		},
		{
			"anonymous": false,
			"inputs": [
				{
					"indexed": false,
					"internalType": "uint256",
					"name": "data0",
					"type": "uint256"
				},
				{
					"indexed": false,
					"internalType": "uint256",
					"name": "data1",
					"type": "uint256"
				},
				{
					"indexed": true,
					"internalType": "address",
					"name": "stakerAddr",
					"type": "address"
				},
				{
					"indexed": true,
					"internalType": "uint40",
					"name": "stakeId",
					"type": "uint40"
				},
				{
					"indexed": true,
					"internalType": "address",
					"name": "senderAddr",
					"type": "address"
				}
			],
			"name": "StakeGoodAccounting",
			"type": "event"
		},
		{
			"anonymous": false,
			"inputs": [
				{
					"indexed": false,
					"internalType": "uint256",
					"name": "data0",
					"type": "uint256"
				},
				{
					"indexed": true,
					"internalType": "address",
					"name": "stakerAddr",
					"type": "address"
				},
				{
					"indexed": true,
					"internalType": "uint40",
					"name": "stakeId",
					"type": "uint40"
				}
			],
			"name": "StakeStart",
			"type": "event"
		},
		{
			"anonymous": false,
			"inputs": [
				{
					"indexed": true,
					"internalType": "address",
					"name": "from",
					"type": "address"
				},
				{
					"indexed": true,
					"internalType": "address",
					"name": "to",
					"type": "address"
				},
				{
					"indexed": false,
					"internalType": "uint256",
					"name": "value",
					"type": "uint256"
				}
			],
			"name": "Transfer",
			"type": "event"
		},
		{
			"anonymous": false,
			"inputs": [
				{
					"indexed": false,
					"internalType": "uint256",
					"name": "data0",
					"type": "uint256"
				},
				{
					"indexed": true,
					"internalType": "address",
					"name": "memberAddr",
					"type": "address"
				},
				{
					"indexed": true,
					"internalType": "uint256",
					"name": "entryId",
					"type": "uint256"
				},
				{
					"indexed": true,
					"internalType": "address",
					"name": "referrerAddr",
					"type": "address"
				}
			],
			"name": "XfLobbyEnter",
			"type": "event"
		},
		{
			"anonymous": false,
			"inputs": [
				{
					"indexed": false,
					"internalType": "uint256",
					"name": "data0",
					"type": "uint256"
				},
				{
					"indexed": true,
					"internalType": "address",
					"name": "memberAddr",
					"type": "address"
				},
				{
					"indexed": true,
					"internalType": "uint256",
					"name": "entryId",
					"type": "uint256"
				},
				{
					"indexed": true,
					"internalType": "address",
					"name": "referrerAddr",
					"type": "address"
				}
			],
			"name": "XfLobbyExit",
			"type": "event"
		},
		{
			"inputs": [],
			"name": "CLAIM_PHASE_DAYS",
			"outputs": [
				{
					"internalType": "uint256",
					"name": "",
					"type": "uint256"
				}
			],
			"stateMutability": "view",
			"type": "function"
		},
		{
			"inputs": [],
			"name": "FLUSH_ADDR",
			"outputs": [
				{
					"internalType": "address payable",
					"name": "",
					"type": "address"
				}
			],
			"stateMutability": "view",
			"type": "function"
		},
		{
			"inputs": [],
			"name": "HEARTS_PER_SATOSHI",
			"outputs": [
				{
					"internalType": "uint256",
					"name": "",
					"type": "uint256"
				}
			],
			"stateMutability": "view",
			"type": "function"
		},
		{
			"inputs": [],
			"name": "allocatedSupply",
			"outputs": [
				{
					"internalType": "uint256",
					"name": "",
					"type": "uint256"
				}
			],
			"stateMutability": "view",
			"type": "function"
		},
		{
			"inputs": [
				{
					"internalType": "address",
					"name": "owner",
					"type": "address"
				},
				{
					"internalType": "address",
					"name": "spender",
					"type": "address"
				}
			],
			"name": "allowance",
			"outputs": [
				{
					"internalType": "uint256",
					"name": "",
					"type": "uint256"
				}
			],
			"stateMutability": "view",
			"type": "function"
		},
		{
			"inputs": [
				{
					"internalType": "address",
					"name": "spender",
					"type": "address"
				},
				{
					"internalType": "uint256",
					"name": "amount",
					"type": "uint256"
				}
			],
			"name": "approve",
			"outputs": [
				{
					"internalType": "bool",
					"name": "",
					"type": "bool"
				}
			],
			"stateMutability": "nonpayable",
			"type": "function"
		},
		{
			"inputs": [
				{
					"internalType": "address",
					"name": "account",
					"type": "address"
				}
			],
			"name": "balanceOf",
			"outputs": [
				{
					"internalType": "uint256",
					"name": "",
					"type": "uint256"
				}
			],
			"stateMutability": "view",
			"type": "function"
		},
		{
			"inputs": [
				{
					"internalType": "bytes20",
					"name": "",
					"type": "bytes20"
				}
			],
			"name": "btcAddressClaims",
			"outputs": [
				{
					"internalType": "bool",
					"name": "",
					"type": "bool"
				}
			],
			"stateMutability": "view",
			"type": "function"
		},
		{
			"inputs": [
				{
					"internalType": "bytes20",
					"name": "btcAddr",
					"type": "bytes20"
				},
				{
					"internalType": "uint256",
					"name": "rawSatoshis",
					"type": "uint256"
				},
				{
					"internalType": "bytes32[]",
					"name": "proof",
					"type": "bytes32[]"
				}
			],
			"name": "btcAddressIsClaimable",
			"outputs": [
				{
					"internalType": "bool",
					"name": "",
					"type": "bool"
				}
			],
			"stateMutability": "view",
			"type": "function"
		},
		{
			"inputs": [
				{
					"internalType": "bytes20",
					"name": "btcAddr",
					"type": "bytes20"
				},
				{
					"internalType": "uint256",
					"name": "rawSatoshis",
					"type": "uint256"
				},
				{
					"internalType": "bytes32[]",
					"name": "proof",
					"type": "bytes32[]"
				}
			],
			"name": "btcAddressIsValid",
			"outputs": [
				{
					"internalType": "bool",
					"name": "",
					"type": "bool"
				}
			],
			"stateMutability": "pure",
			"type": "function"
		},
		{
			"inputs": [
				{
					"internalType": "address",
					"name": "claimToAddr",
					"type": "address"
				},
				{
					"internalType": "bytes32",
					"name": "claimParamHash",
					"type": "bytes32"
				},
				{
					"internalType": "bytes32",
					"name": "pubKeyX",
					"type": "bytes32"
				},
				{
					"internalType": "bytes32",
					"name": "pubKeyY",
					"type": "bytes32"
				},
				{
					"internalType": "uint8",
					"name": "claimFlags",
					"type": "uint8"
				},
				{
					"internalType": "uint8",
					"name": "v",
					"type": "uint8"
				},
				{
					"internalType": "bytes32",
					"name": "r",
					"type": "bytes32"
				},
				{
					"internalType": "bytes32",
					"name": "s",
					"type": "bytes32"
				}
			],
			"name": "claimMessageMatchesSignature",
			"outputs": [
				{
					"internalType": "bool",
					"name": "",
					"type": "bool"
				}
			],
			"stateMutability": "pure",
			"type": "function"
		},
		{
			"inputs": [],
			"name": "contractOwner",
			"outputs": [
				{
					"internalType": "address",
					"name": "",
					"type": "address"
				}
			],
			"stateMutability": "view",
			"type": "function"
		},
		{
			"inputs": [],
			"name": "currentDay",
			"outputs": [
				{
					"internalType": "uint256",
					"name": "",
					"type": "uint256"
				}
			],
			"stateMutability": "view",
			"type": "function"
		},
		{
			"inputs": [
				{
					"internalType": "uint256",
					"name": "",
					"type": "uint256"
				}
			],
			"name": "dailyData",
			"outputs": [
				{
					"internalType": "uint72",
					"name": "dayPayoutTotal",
					"type": "uint72"
				},
				{
					"internalType": "uint72",
					"name": "dayStakeSharesTotal",
					"type": "uint72"
				},
				{
					"internalType": "uint56",
					"name": "dayUnclaimedSatoshisTotal",
					"type": "uint56"
				}
			],
			"stateMutability": "view",
			"type": "function"
		},
		{
			"inputs": [
				{
					"internalType": "uint256",
					"name": "beginDay",
					"type": "uint256"
				},
				{
					"internalType": "uint256",
					"name": "endDay",
					"type": "uint256"
				}
			],
			"name": "dailyDataRange",
			"outputs": [
				{
					"internalType": "uint256[]",
					"name": "list",
					"type": "uint256[]"
				}
			],
			"stateMutability": "view",
			"type": "function"
		},
		{
			"inputs": [
				{
					"internalType": "uint256",
					"name": "beforeDay",
					"type": "uint256"
				}
			],
			"name": "dailyDataUpdate",
			"outputs": [],
			"stateMutability": "nonpayable",
			"type": "function"
		},
		{
			"inputs": [],
			"name": "decimals",
			"outputs": [
				{
					"internalType": "uint8",
					"name": "",
					"type": "uint8"
				}
			],
			"stateMutability": "view",
			"type": "function"
		},
		{
			"inputs": [
				{
					"internalType": "address",
					"name": "spender",
					"type": "address"
				},
				{
					"internalType": "uint256",
					"name": "subtractedValue",
					"type": "uint256"
				}
			],
			"name": "decreaseAllowance",
			"outputs": [
				{
					"internalType": "bool",
					"name": "",
					"type": "bool"
				}
			],
			"stateMutability": "nonpayable",
			"type": "function"
		},
		{
			"inputs": [
				{
					"components": [
						{
							"internalType": "uint256",
							"name": "_lockedHeartsTotal",
							"type": "uint256"
						},
						{
							"internalType": "uint256",
							"name": "_nextStakeSharesTotal",
							"type": "uint256"
						},
						{
							"internalType": "uint256",
							"name": "_shareRate",
							"type": "uint256"
						},
						{
							"internalType": "uint256",
							"name": "_stakePenaltyTotal",
							"type": "uint256"
						},
						{
							"internalType": "uint256",
							"name": "_dailyDataCount",
							"type": "uint256"
						},
						{
							"internalType": "uint256",
							"name": "_stakeSharesTotal",
							"type": "uint256"
						},
						{
							"internalType": "uint40",
							"name": "_latestStakeId",
							"type": "uint40"
						},
						{
							"internalType": "uint256",
							"name": "_unclaimedSatoshisTotal",
							"type": "uint256"
						},
						{
							"internalType": "uint256",
							"name": "_claimedSatoshisTotal",
							"type": "uint256"
						},
						{
							"internalType": "uint256",
							"name": "_claimedBtcAddrCount",
							"type": "uint256"
						},
						{
							"internalType": "uint256",
							"name": "_currentDay",
							"type": "uint256"
						}
					],
					"internalType": "struct IGlobals.GlobalsCache",
					"name": "g",
					"type": "tuple"
				},
				{
					"components": [
						{
							"internalType": "uint256",
							"name": "_lockedHeartsTotal",
							"type": "uint256"
						},
						{
							"internalType": "uint256",
							"name": "_nextStakeSharesTotal",
							"type": "uint256"
						},
						{
							"internalType": "uint256",
							"name": "_shareRate",
							"type": "uint256"
						},
						{
							"internalType": "uint256",
							"name": "_stakePenaltyTotal",
							"type": "uint256"
						},
						{
							"internalType": "uint256",
							"name": "_dailyDataCount",
							"type": "uint256"
						},
						{
							"internalType": "uint256",
							"name": "_stakeSharesTotal",
							"type": "uint256"
						},
						{
							"internalType": "uint40",
							"name": "_latestStakeId",
							"type": "uint40"
						},
						{
							"internalType": "uint256",
							"name": "_unclaimedSatoshisTotal",
							"type": "uint256"
						},
						{
							"internalType": "uint256",
							"name": "_claimedSatoshisTotal",
							"type": "uint256"
						},
						{
							"internalType": "uint256",
							"name": "_claimedBtcAddrCount",
							"type": "uint256"
						},
						{
							"internalType": "uint256",
							"name": "_currentDay",
							"type": "uint256"
						}
					],
					"internalType": "struct IGlobals.GlobalsCache",
					"name": "gSnapshot",
					"type": "tuple"
				}
			],
			"name": "getGlobalsLoad",
			"outputs": [],
			"stateMutability": "view",
			"type": "function"
		},
		{
			"inputs": [],
			"name": "getTreasureBoxAddress",
			"outputs": [
				{
					"internalType": "address",
					"name": "",
					"type": "address"
				}
			],
			"stateMutability": "view",
			"type": "function"
		},
		{
			"inputs": [],
			"name": "globalInfo",
			"outputs": [
				{
					"internalType": "uint256[13]",
					"name": "",
					"type": "uint256[13]"
				}
			],
			"stateMutability": "view",
			"type": "function"
		},
		{
			"inputs": [],
			"name": "globals",
			"outputs": [
				{
					"internalType": "uint72",
					"name": "lockedHeartsTotal",
					"type": "uint72"
				},
				{
					"internalType": "uint72",
					"name": "nextStakeSharesTotal",
					"type": "uint72"
				},
				{
					"internalType": "uint40",
					"name": "shareRate",
					"type": "uint40"
				},
				{
					"internalType": "uint72",
					"name": "stakePenaltyTotal",
					"type": "uint72"
				},
				{
					"internalType": "uint16",
					"name": "dailyDataCount",
					"type": "uint16"
				},
				{
					"internalType": "uint72",
					"name": "stakeSharesTotal",
					"type": "uint72"
				},
				{
					"internalType": "uint40",
					"name": "latestStakeId",
					"type": "uint40"
				},
				{
					"internalType": "uint128",
					"name": "claimStats",
					"type": "uint128"
				}
			],
			"stateMutability": "view",
			"type": "function"
		},
		{
			"inputs": [
				{
					"internalType": "address",
					"name": "spender",
					"type": "address"
				},
				{
					"internalType": "uint256",
					"name": "addedValue",
					"type": "uint256"
				}
			],
			"name": "increaseAllowance",
			"outputs": [
				{
					"internalType": "bool",
					"name": "",
					"type": "bool"
				}
			],
			"stateMutability": "nonpayable",
			"type": "function"
		},
		{
			"inputs": [
				{
					"internalType": "bytes32",
					"name": "merkleLeaf",
					"type": "bytes32"
				},
				{
					"internalType": "bytes32[]",
					"name": "proof",
					"type": "bytes32[]"
				}
			],
			"name": "merkleProofIsValid",
			"outputs": [
				{
					"internalType": "bool",
					"name": "",
					"type": "bool"
				}
			],
			"stateMutability": "pure",
			"type": "function"
		},
		{
			"inputs": [
				{
					"internalType": "address",
					"name": "_receiver",
					"type": "address"
				},
				{
					"internalType": "uint256",
					"name": "_amount",
					"type": "uint256"
				},
				{
					"internalType": "address",
					"name": "_contractAddress",
					"type": "address"
				}
			],
			"name": "mint",
			"outputs": [],
			"stateMutability": "nonpayable",
			"type": "function"
		},
		{
			"inputs": [],
			"name": "name",
			"outputs": [
				{
					"internalType": "string",
					"name": "",
					"type": "string"
				}
			],
			"stateMutability": "view",
			"type": "function"
		},
		{
			"inputs": [
				{
					"internalType": "bytes32",
					"name": "pubKeyX",
					"type": "bytes32"
				},
				{
					"internalType": "bytes32",
					"name": "pubKeyY",
					"type": "bytes32"
				},
				{
					"internalType": "uint8",
					"name": "claimFlags",
					"type": "uint8"
				}
			],
			"name": "pubKeyToBtcAddress",
			"outputs": [
				{
					"internalType": "bytes20",
					"name": "",
					"type": "bytes20"
				}
			],
			"stateMutability": "pure",
			"type": "function"
		},
		{
			"inputs": [
				{
					"internalType": "bytes32",
					"name": "pubKeyX",
					"type": "bytes32"
				},
				{
					"internalType": "bytes32",
					"name": "pubKeyY",
					"type": "bytes32"
				}
			],
			"name": "pubKeyToEthAddress",
			"outputs": [
				{
					"internalType": "address",
					"name": "",
					"type": "address"
				}
			],
			"stateMutability": "pure",
			"type": "function"
		},
		{
			"inputs": [
				{
					"internalType": "address",
					"name": "_treasureBoxAddress",
					"type": "address"
				}
			],
			"name": "setTreasureBoxAddress",
			"outputs": [],
			"stateMutability": "nonpayable",
			"type": "function"
		},
		{
			"inputs": [
				{
					"internalType": "address",
					"name": "stakerAddr",
					"type": "address"
				}
			],
			"name": "stakeCount",
			"outputs": [
				{
					"internalType": "uint256",
					"name": "",
					"type": "uint256"
				}
			],
			"stateMutability": "view",
			"type": "function"
		},
		{
			"inputs": [
				{
					"internalType": "uint256",
					"name": "stakeIndex",
					"type": "uint256"
				},
				{
					"internalType": "uint40",
					"name": "stakeIdParam",
					"type": "uint40"
				}
			],
			"name": "stakeEnd",
			"outputs": [],
			"stateMutability": "nonpayable",
			"type": "function"
		},
		{
			"inputs": [
				{
					"internalType": "address",
					"name": "stakerAddr",
					"type": "address"
				},
				{
					"internalType": "uint256",
					"name": "stakeIndex",
					"type": "uint256"
				},
				{
					"internalType": "uint40",
					"name": "stakeIdParam",
					"type": "uint40"
				}
			],
			"name": "stakeGoodAccounting",
			"outputs": [],
			"stateMutability": "nonpayable",
			"type": "function"
		},
		{
			"inputs": [
				{
					"internalType": "address",
					"name": "",
					"type": "address"
				},
				{
					"internalType": "uint256",
					"name": "",
					"type": "uint256"
				}
			],
			"name": "stakeLists",
			"outputs": [
				{
					"internalType": "uint40",
					"name": "stakeId",
					"type": "uint40"
				},
				{
					"internalType": "uint72",
					"name": "stakedHearts",
					"type": "uint72"
				},
				{
					"internalType": "uint72",
					"name": "stakeShares",
					"type": "uint72"
				},
				{
					"internalType": "uint16",
					"name": "lockedDay",
					"type": "uint16"
				},
				{
					"internalType": "uint16",
					"name": "stakedDays",
					"type": "uint16"
				},
				{
					"internalType": "uint16",
					"name": "unlockedDay",
					"type": "uint16"
				},
				{
					"internalType": "bool",
					"name": "isAutoStake",
					"type": "bool"
				}
			],
			"stateMutability": "view",
			"type": "function"
		},
		{
			"inputs": [
				{
					"internalType": "uint256",
					"name": "newStakedHearts",
					"type": "uint256"
				},
				{
					"internalType": "uint256",
					"name": "newStakedDays",
					"type": "uint256"
				}
			],
			"name": "stakeStart",
			"outputs": [],
			"stateMutability": "nonpayable",
			"type": "function"
		},
		{
			"inputs": [],
			"name": "symbol",
			"outputs": [
				{
					"internalType": "string",
					"name": "",
					"type": "string"
				}
			],
			"stateMutability": "view",
			"type": "function"
		},
		{
			"inputs": [],
			"name": "totalSupply",
			"outputs": [
				{
					"internalType": "uint256",
					"name": "",
					"type": "uint256"
				}
			],
			"stateMutability": "view",
			"type": "function"
		},
		{
			"inputs": [
				{
					"internalType": "address",
					"name": "to",
					"type": "address"
				},
				{
					"internalType": "uint256",
					"name": "amount",
					"type": "uint256"
				}
			],
			"name": "transfer",
			"outputs": [
				{
					"internalType": "bool",
					"name": "",
					"type": "bool"
				}
			],
			"stateMutability": "nonpayable",
			"type": "function"
		},
		{
			"inputs": [
				{
					"internalType": "address",
					"name": "from",
					"type": "address"
				},
				{
					"internalType": "address",
					"name": "to",
					"type": "address"
				},
				{
					"internalType": "uint256",
					"name": "amount",
					"type": "uint256"
				}
			],
			"name": "transferFrom",
			"outputs": [
				{
					"internalType": "bool",
					"name": "",
					"type": "bool"
				}
			],
			"stateMutability": "nonpayable",
			"type": "function"
		},
		{
			"inputs": [],
			"name": "treasureBoxAddress",
			"outputs": [
				{
					"internalType": "address",
					"name": "",
					"type": "address"
				}
			],
			"stateMutability": "view",
			"type": "function"
		},
		{
			"inputs": [
				{
					"internalType": "uint256",
					"name": "",
					"type": "uint256"
				}
			],
			"name": "xfLobby",
			"outputs": [
				{
					"internalType": "uint256",
					"name": "",
					"type": "uint256"
				}
			],
			"stateMutability": "view",
			"type": "function"
		},
		{
			"inputs": [
				{
					"internalType": "uint256",
					"name": "",
					"type": "uint256"
				},
				{
					"internalType": "address",
					"name": "",
					"type": "address"
				}
			],
			"name": "xfLobbyMembers",
			"outputs": [
				{
					"internalType": "uint40",
					"name": "headIndex",
					"type": "uint40"
				},
				{
					"internalType": "uint40",
					"name": "tailIndex",
					"type": "uint40"
				}
			],
			"stateMutability": "view",
			"type": "function"
		}
	]
}